{"abi":[{"type":"constructor","inputs":[],"stateMutability":"nonpayable"},{"type":"function","name":"DEFAULT_ADMIN_ROLE","inputs":[],"outputs":[{"name":"","type":"bytes32","internalType":"bytes32"}],"stateMutability":"view"},{"type":"function","name":"REWARD_MANAGER_ROLE","inputs":[],"outputs":[{"name":"","type":"bytes32","internalType":"bytes32"}],"stateMutability":"view"},{"type":"function","name":"UPGRADE_INTERFACE_VERSION","inputs":[],"outputs":[{"name":"","type":"string","internalType":"string"}],"stateMutability":"view"},{"type":"function","name":"batchClaimReward","inputs":[{"name":"periodNumbers","type":"uint256[]","internalType":"uint256[]"}],"outputs":[],"stateMutability":"nonpayable"},{"type":"function","name":"claimReward","inputs":[{"name":"periodNumber","type":"uint256","internalType":"uint256"}],"outputs":[],"stateMutability":"nonpayable"},{"type":"function","name":"claimed","inputs":[{"name":"","type":"uint256","internalType":"uint256"},{"name":"","type":"address","internalType":"address"}],"outputs":[{"name":"","type":"bool","internalType":"bool"}],"stateMutability":"view"},{"type":"function","name":"contribution","inputs":[],"outputs":[{"name":"","type":"address","internalType":"contract IContribution"}],"stateMutability":"view"},{"type":"function","name":"getClaimableReward","inputs":[{"name":"periodNumber","type":"uint256","internalType":"uint256"},{"name":"user","type":"address","internalType":"address"}],"outputs":[{"name":"","type":"uint256","internalType":"uint256"}],"stateMutability":"view"},{"type":"function","name":"getCurrentPeriod","inputs":[],"outputs":[{"name":"","type":"uint256","internalType":"uint256"}],"stateMutability":"view"},{"type":"function","name":"getReward","inputs":[{"name":"periodNumber","type":"uint256","internalType":"uint256"}],"outputs":[{"name":"","type":"bool","internalType":"bool"},{"name":"","type":"uint256","internalType":"uint256"}],"stateMutability":"view"},{"type":"function","name":"getRoleAdmin","inputs":[{"name":"role","type":"bytes32","internalType":"bytes32"}],"outputs":[{"name":"","type":"bytes32","internalType":"bytes32"}],"stateMutability":"view"},{"type":"function","name":"grantRole","inputs":[{"name":"role","type":"bytes32","internalType":"bytes32"},{"name":"account","type":"address","internalType":"address"}],"outputs":[],"stateMutability":"nonpayable"},{"type":"function","name":"hasRole","inputs":[{"name":"role","type":"bytes32","internalType":"bytes32"},{"name":"account","type":"address","internalType":"address"}],"outputs":[{"name":"","type":"bool","internalType":"bool"}],"stateMutability":"view"},{"type":"function","name":"initialize","inputs":[{"name":"_admin","type":"address","internalType":"address"},{"name":"_rewardManager","type":"address","internalType":"address"},{"name":"_contribution","type":"address","internalType":"address"},{"name":"_intmaxToken","type":"address","internalType":"address"}],"outputs":[],"stateMutability":"nonpayable"},{"type":"function","name":"intmaxToken","inputs":[],"outputs":[{"name":"","type":"address","internalType":"contract IERC20"}],"stateMutability":"view"},{"type":"function","name":"proxiableUUID","inputs":[],"outputs":[{"name":"","type":"bytes32","internalType":"bytes32"}],"stateMutability":"view"},{"type":"function","name":"renounceRole","inputs":[{"name":"role","type":"bytes32","internalType":"bytes32"},{"name":"callerConfirmation","type":"address","internalType":"address"}],"outputs":[],"stateMutability":"nonpayable"},{"type":"function","name":"revokeRole","inputs":[{"name":"role","type":"bytes32","internalType":"bytes32"},{"name":"account","type":"address","internalType":"address"}],"outputs":[],"stateMutability":"nonpayable"},{"type":"function","name":"setReward","inputs":[{"name":"periodNumber","type":"uint256","internalType":"uint256"},{"name":"amount","type":"uint256","internalType":"uint256"}],"outputs":[],"stateMutability":"nonpayable"},{"type":"function","name":"supportsInterface","inputs":[{"name":"interfaceId","type":"bytes4","internalType":"bytes4"}],"outputs":[{"name":"","type":"bool","internalType":"bool"}],"stateMutability":"view"},{"type":"function","name":"totalRewards","inputs":[{"name":"","type":"uint256","internalType":"uint256"}],"outputs":[{"name":"isSet","type":"bool","internalType":"bool"},{"name":"amount","type":"uint248","internalType":"uint248"}],"stateMutability":"view"},{"type":"function","name":"upgradeToAndCall","inputs":[{"name":"newImplementation","type":"address","internalType":"address"},{"name":"data","type":"bytes","internalType":"bytes"}],"outputs":[],"stateMutability":"payable"},{"type":"event","name":"Claimed","inputs":[{"name":"periodNumber","type":"uint256","indexed":true,"internalType":"uint256"},{"name":"user","type":"address","indexed":true,"internalType":"address"},{"name":"amount","type":"uint256","indexed":false,"internalType":"uint256"}],"anonymous":false},{"type":"event","name":"Initialized","inputs":[{"name":"version","type":"uint64","indexed":false,"internalType":"uint64"}],"anonymous":false},{"type":"event","name":"RoleAdminChanged","inputs":[{"name":"role","type":"bytes32","indexed":true,"internalType":"bytes32"},{"name":"previousAdminRole","type":"bytes32","indexed":true,"internalType":"bytes32"},{"name":"newAdminRole","type":"bytes32","indexed":true,"internalType":"bytes32"}],"anonymous":false},{"type":"event","name":"RoleGranted","inputs":[{"name":"role","type":"bytes32","indexed":true,"internalType":"bytes32"},{"name":"account","type":"address","indexed":true,"internalType":"address"},{"name":"sender","type":"address","indexed":true,"internalType":"address"}],"anonymous":false},{"type":"event","name":"RoleRevoked","inputs":[{"name":"role","type":"bytes32","indexed":true,"internalType":"bytes32"},{"name":"account","type":"address","indexed":true,"internalType":"address"},{"name":"sender","type":"address","indexed":true,"internalType":"address"}],"anonymous":false},{"type":"event","name":"SetReward","inputs":[{"name":"periodNumber","type":"uint256","indexed":true,"internalType":"uint256"},{"name":"amount","type":"uint256","indexed":false,"internalType":"uint256"}],"anonymous":false},{"type":"event","name":"Upgraded","inputs":[{"name":"implementation","type":"address","indexed":true,"internalType":"address"}],"anonymous":false},{"type":"error","name":"AccessControlBadConfirmation","inputs":[]},{"type":"error","name":"AccessControlUnauthorizedAccount","inputs":[{"name":"account","type":"address","internalType":"address"},{"name":"neededRole","type":"bytes32","internalType":"bytes32"}]},{"type":"error","name":"AddressEmptyCode","inputs":[{"name":"target","type":"address","internalType":"address"}]},{"type":"error","name":"AddressZero","inputs":[]},{"type":"error","name":"AlreadyClaimed","inputs":[]},{"type":"error","name":"AlreadySetReward","inputs":[]},{"type":"error","name":"ERC1967InvalidImplementation","inputs":[{"name":"implementation","type":"address","internalType":"address"}]},{"type":"error","name":"ERC1967NonPayable","inputs":[]},{"type":"error","name":"FailedCall","inputs":[]},{"type":"error","name":"InvalidInitialization","inputs":[]},{"type":"error","name":"NotInitializing","inputs":[]},{"type":"error","name":"NotSetReward","inputs":[]},{"type":"error","name":"PeriodNotEnded","inputs":[]},{"type":"error","name":"RewardTooLarge","inputs":[]},{"type":"error","name":"UUPSUnauthorizedCallContext","inputs":[]},{"type":"error","name":"UUPSUnsupportedProxiableUUID","inputs":[{"name":"slot","type":"bytes32","internalType":"bytes32"}]}],"bytecode":{"object":"0x60a06040523073ffffffffffffffffffffffffffffffffffffffff1660809073ffffffffffffffffffffffffffffffffffffffff16815250348015610042575f5ffd5b5061005161005660201b60201c565b6101b6565b5f61006561015460201b60201c565b9050805f0160089054906101000a900460ff16156100af576040517ff92ee8a900000000000000000000000000000000000000000000000000000000815260040160405180910390fd5b67ffffffffffffffff8016815f015f9054906101000a900467ffffffffffffffff1667ffffffffffffffff16146101515767ffffffffffffffff815f015f6101000a81548167ffffffffffffffff021916908367ffffffffffffffff1602179055507fc7f505b2f371ae2175ee4913f4499e1f2633a7b5936321eed1cdaeb6115181d267ffffffffffffffff604051610148919061019d565b60405180910390a15b50565b5f7ff0c57e16840df040f15088dc2f81fe391c3923bec73e23a9662efc9c229c6a00905090565b5f67ffffffffffffffff82169050919050565b6101978161017b565b82525050565b5f6020820190506101b05f83018461018e565b92915050565b608051612d066101dc5f395f8181611b9301528181611be80152611da70152612d065ff3fe608060405260043610610134575f3560e01c80636d750d80116100aa578063ad3cb1cc1161006e578063ad3cb1cc14610444578063ad8d28071461046e578063ae169a5014610498578063c760da04146104c0578063d547741f146104e8578063f8c8765e1461051057610134565b80636d750d801461035057806391d148541461037a578063a217fddf146103b6578063a47bd496146103e0578063ab3b55e31461040857610134565b80632f2ff15d116100fc5780632f2ff15d1461025357806332f266941461027b57806336568abe146102b85780634f1ef286146102e057806350520b1f146102fc57806352d1902d1461032657610134565b806301ffc9a714610138578063086146d214610174578063120aa8771461019e5780631c4b774b146101da578063248a9ca314610217575b5f5ffd5b348015610143575f5ffd5b5061015e600480360381019061015991906122a0565b610538565b60405161016b91906122e5565b60405180910390f35b34801561017f575f5ffd5b506101886105b1565b6040516101959190612316565b60405180910390f35b3480156101a9575f5ffd5b506101c460048036038101906101bf91906123b3565b610644565b6040516101d191906122e5565b60405180910390f35b3480156101e5575f5ffd5b5061020060048036038101906101fb91906123f1565b61066e565b60405161020e92919061241c565b60405180910390f35b348015610222575f5ffd5b5061023d60048036038101906102389190612476565b610752565b60405161024a91906124b0565b60405180910390f35b34801561025e575f5ffd5b50610279600480360381019061027491906124c9565b61077c565b005b348015610286575f5ffd5b506102a1600480360381019061029c91906123f1565b61079e565b6040516102af929190612540565b60405180910390f35b3480156102c3575f5ffd5b506102de60048036038101906102d991906124c9565b6107f4565b005b6102fa60048036038101906102f591906126a3565b61086f565b005b348015610307575f5ffd5b5061031061088e565b60405161031d9190612758565b60405180910390f35b348015610331575f5ffd5b5061033a6108b2565b60405161034791906124b0565b60405180910390f35b34801561035b575f5ffd5b506103646108e3565b60405161037191906124b0565b60405180910390f35b348015610385575f5ffd5b506103a0600480360381019061039b91906124c9565b610907565b6040516103ad91906122e5565b60405180910390f35b3480156103c1575f5ffd5b506103ca610978565b6040516103d791906124b0565b60405180910390f35b3480156103eb575f5ffd5b5061040660048036038101906104019190612771565b61097e565b005b348015610413575f5ffd5b5061042e600480360381019061042991906123b3565b610bf4565b60405161043b9190612316565b60405180910390f35b34801561044f575f5ffd5b50610458610f76565b604051610465919061280f565b60405180910390f35b348015610479575f5ffd5b50610482610faf565b60405161048f919061284f565b60405180910390f35b3480156104a3575f5ffd5b506104be60048036038101906104b991906123f1565b610fd4565b005b3480156104cb575f5ffd5b506104e660048036038101906104e191906128c5565b611541565b005b3480156104f3575f5ffd5b5061050e600480360381019061050991906124c9565b61158a565b005b34801561051b575f5ffd5b5061053660048036038101906105319190612910565b6115ac565b005b5f7f7965db0b000000000000000000000000000000000000000000000000000000007bffffffffffffffffffffffffffffffffffffffffffffffffffffffff1916827bffffffffffffffffffffffffffffffffffffffffffffffffffffffff191614806105aa57506105a9826118f6565b5b9050919050565b5f5f5f9054906101000a900473ffffffffffffffffffffffffffffffffffffffff1673ffffffffffffffffffffffffffffffffffffffff1663086146d26040518163ffffffff1660e01b8152600401602060405180830381865afa15801561061b573d5f5f3e3d5ffd5b505050506040513d601f19601f8201168201806040525081019061063f9190612988565b905090565b6003602052815f5260405f20602052805f5260405f205f915091509054906101000a900460ff1681565b5f5f5f60025f8581526020019081526020015f206040518060400160405290815f82015f9054906101000a900460ff161515151581526020015f820160019054906101000a90047effffffffffffffffffffffffffffffffffffffffffffffffffffffffffffff167effffffffffffffffffffffffffffffffffffffffffffffffffffffffffffff167effffffffffffffffffffffffffffffffffffffffffffffffffffffffffffff16815250509050805f015181602001517effffffffffffffffffffffffffffffffffffffffffffffffffffffffffffff169250925050915091565b5f5f61075c61195f565b9050805f015f8481526020019081526020015f2060010154915050919050565b61078582610752565b61078e81611986565b610798838361199a565b50505050565b6002602052805f5260405f205f91509050805f015f9054906101000a900460ff1690805f0160019054906101000a90047effffffffffffffffffffffffffffffffffffffffffffffffffffffffffffff16905082565b6107fc611a92565b73ffffffffffffffffffffffffffffffffffffffff168173ffffffffffffffffffffffffffffffffffffffff1614610860576040517f6697b23200000000000000000000000000000000000000000000000000000000815260040160405180910390fd5b61086a8282611a99565b505050565b610877611b91565b61088082611c77565b61088a8282611c87565b5050565b5f5f9054906101000a900473ffffffffffffffffffffffffffffffffffffffff1681565b5f6108bb611da5565b7f360894a13ba1a3210667c828492db98dca3e2076cc3735a920a3ca505d382bbc5f1b905090565b7f0f51adb3f49e4a9bbb17b3783f025995eaf8c24be2c8eefff214bdfda05ef94d81565b5f5f61091161195f565b9050805f015f8581526020019081526020015f205f015f8473ffffffffffffffffffffffffffffffffffffffff1673ffffffffffffffffffffffffffffffffffffffff1681526020019081526020015f205f9054906101000a900460ff1691505092915050565b5f5f1b81565b7f0f51adb3f49e4a9bbb17b3783f025995eaf8c24be2c8eefff214bdfda05ef94d6109a881611986565b5f829050807effffffffffffffffffffffffffffffffffffffffffffffffffffffffffffff168314610a06576040517f71009bf700000000000000000000000000000000000000000000000000000000815260040160405180910390fd5b5f60025f8681526020019081526020015f206040518060400160405290815f82015f9054906101000a900460ff161515151581526020015f820160019054906101000a90047effffffffffffffffffffffffffffffffffffffffffffffffffffffffffffff167effffffffffffffffffffffffffffffffffffffffffffffffffffffffffffff167effffffffffffffffffffffffffffffffffffffffffffffffffffffffffffff16815250509050805f015115610aef576040517fdf54677000000000000000000000000000000000000000000000000000000000815260040160405180910390fd5b6040518060400160405280600115158152602001837effffffffffffffffffffffffffffffffffffffffffffffffffffffffffffff1681525060025f8781526020019081526020015f205f820151815f015f6101000a81548160ff0219169083151502179055506020820151815f0160016101000a8154817effffffffffffffffffffffffffffffffffffffffffffffffffffffffffffff02191690837effffffffffffffffffffffffffffffffffffffffffffffffffffffffffffff160217905550905050847ff0ce7aa5ba2b3ac54f08032f04953c5d57c298b78460dd948bf0211bb0a8587185604051610be59190612316565b60405180910390a25050505050565b5f825f5f9054906101000a900473ffffffffffffffffffffffffffffffffffffffff1673ffffffffffffffffffffffffffffffffffffffff1663086146d26040518163ffffffff1660e01b8152600401602060405180830381865afa158015610c5f573d5f5f3e3d5ffd5b505050506040513d601f19601f82011682018060405250810190610c839190612988565b11610c90575f9050610f70565b5f60025f8581526020019081526020015f206040518060400160405290815f82015f9054906101000a900460ff161515151581526020015f820160019054906101000a90047effffffffffffffffffffffffffffffffffffffffffffffffffffffffffffff167effffffffffffffffffffffffffffffffffffffffffffffffffffffffffffff167effffffffffffffffffffffffffffffffffffffffffffffffffffffffffffff16815250509050805f0151610d4f575f915050610f70565b5f81602001517effffffffffffffffffffffffffffffffffffffffffffffffffffffffffffff16905060035f8681526020019081526020015f205f8573ffffffffffffffffffffffffffffffffffffffff1673ffffffffffffffffffffffffffffffffffffffff1681526020019081526020015f205f9054906101000a900460ff1615610de0575f92505050610f70565b5f5f9054906101000a900473ffffffffffffffffffffffffffffffffffffffff1673ffffffffffffffffffffffffffffffffffffffff16638c962d9d867f86b9f03d796881acc3ae8b638c23861904ac9c358da18e1d9994e3874f61c12d6040518363ffffffff1660e01b8152600401610e5b9291906129b3565b602060405180830381865afa158015610e76573d5f5f3e3d5ffd5b505050506040513d601f19601f82011682018060405250810190610e9a9190612988565b5f5f9054906101000a900473ffffffffffffffffffffffffffffffffffffffff1673ffffffffffffffffffffffffffffffffffffffff16636513f7ab877f86b9f03d796881acc3ae8b638c23861904ac9c358da18e1d9994e3874f61c12d886040518463ffffffff1660e01b8152600401610f17939291906129e9565b602060405180830381865afa158015610f32573d5f5f3e3d5ffd5b505050506040513d601f19601f82011682018060405250810190610f569190612988565b82610f619190612a4b565b610f6b9190612ab9565b925050505b92915050565b6040518060400160405280600581526020017f352e302e3000000000000000000000000000000000000000000000000000000081525081565b60015f9054906101000a900473ffffffffffffffffffffffffffffffffffffffff1681565b805f5f9054906101000a900473ffffffffffffffffffffffffffffffffffffffff1673ffffffffffffffffffffffffffffffffffffffff1663086146d26040518163ffffffff1660e01b8152600401602060405180830381865afa15801561103e573d5f5f3e3d5ffd5b505050506040513d601f19601f820116820180604052508101906110629190612988565b11611099576040517fac59a02d00000000000000000000000000000000000000000000000000000000815260040160405180910390fd5b5f60025f8381526020019081526020015f206040518060400160405290815f82015f9054906101000a900460ff161515151581526020015f820160019054906101000a90047effffffffffffffffffffffffffffffffffffffffffffffffffffffffffffff167effffffffffffffffffffffffffffffffffffffffffffffffffffffffffffff167effffffffffffffffffffffffffffffffffffffffffffffffffffffffffffff16815250509050805f0151611181576040517f8fbe5a9b00000000000000000000000000000000000000000000000000000000815260040160405180910390fd5b5f81602001517effffffffffffffffffffffffffffffffffffffffffffffffffffffffffffff16905060035f8481526020019081526020015f205f6111c4611a92565b73ffffffffffffffffffffffffffffffffffffffff1673ffffffffffffffffffffffffffffffffffffffff1681526020019081526020015f205f9054906101000a900460ff1615611241576040517f646cf55800000000000000000000000000000000000000000000000000000000815260040160405180910390fd5b600160035f8581526020019081526020015f205f61125d611a92565b73ffffffffffffffffffffffffffffffffffffffff1673ffffffffffffffffffffffffffffffffffffffff1681526020019081526020015f205f6101000a81548160ff0219169083151502179055505f5f5f9054906101000a900473ffffffffffffffffffffffffffffffffffffffff1673ffffffffffffffffffffffffffffffffffffffff16638c962d9d857f86b9f03d796881acc3ae8b638c23861904ac9c358da18e1d9994e3874f61c12d6040518363ffffffff1660e01b81526004016113289291906129b3565b602060405180830381865afa158015611343573d5f5f3e3d5ffd5b505050506040513d601f19601f820116820180604052508101906113679190612988565b5f5f9054906101000a900473ffffffffffffffffffffffffffffffffffffffff1673ffffffffffffffffffffffffffffffffffffffff16636513f7ab867f86b9f03d796881acc3ae8b638c23861904ac9c358da18e1d9994e3874f61c12d6113cd611a92565b6040518463ffffffff1660e01b81526004016113eb939291906129e9565b602060405180830381865afa158015611406573d5f5f3e3d5ffd5b505050506040513d601f19601f8201168201806040525081019061142a9190612988565b836114359190612a4b565b61143f9190612ab9565b905060015f9054906101000a900473ffffffffffffffffffffffffffffffffffffffff1673ffffffffffffffffffffffffffffffffffffffff1663a9059cbb611486611a92565b836040518363ffffffff1660e01b81526004016114a4929190612ae9565b6020604051808303815f875af11580156114c0573d5f5f3e3d5ffd5b505050506040513d601f19601f820116820180604052508101906114e49190612b3a565b506114ed611a92565b73ffffffffffffffffffffffffffffffffffffffff16847f4ec90e965519d92681267467f775ada5bd214aa92c0dc93d90a5e880ce9ed026836040516115339190612316565b60405180910390a350505050565b5f5f90505b82829050811015611585575f83838381811061156557611564612b65565b5b90506020020135905061157781610fd4565b508080600101915050611546565b505050565b61159382610752565b61159c81611986565b6115a68383611a99565b50505050565b5f6115b5611e2c565b90505f815f0160089054906101000a900460ff161590505f825f015f9054906101000a900467ffffffffffffffff1690505f5f8267ffffffffffffffff161480156115fd5750825b90505f60018367ffffffffffffffff1614801561163057505f3073ffffffffffffffffffffffffffffffffffffffff163b145b90508115801561163e575080155b15611675576040517ff92ee8a900000000000000000000000000000000000000000000000000000000815260040160405180910390fd5b6001855f015f6101000a81548167ffffffffffffffff021916908367ffffffffffffffff16021790555083156116c2576001855f0160086101000a81548160ff0219169083151502179055505b5f73ffffffffffffffffffffffffffffffffffffffff168973ffffffffffffffffffffffffffffffffffffffff16148061172757505f73ffffffffffffffffffffffffffffffffffffffff168873ffffffffffffffffffffffffffffffffffffffff16145b8061175d57505f73ffffffffffffffffffffffffffffffffffffffff168773ffffffffffffffffffffffffffffffffffffffff16145b8061179357505f73ffffffffffffffffffffffffffffffffffffffff168673ffffffffffffffffffffffffffffffffffffffff16145b156117ca576040517f9fabe1c100000000000000000000000000000000000000000000000000000000815260040160405180910390fd5b6117d2611e53565b6117da611e5d565b6117e65f5f1b8a61199a565b506118117f0f51adb3f49e4a9bbb17b3783f025995eaf8c24be2c8eefff214bdfda05ef94d8961199a565b50865f5f6101000a81548173ffffffffffffffffffffffffffffffffffffffff021916908373ffffffffffffffffffffffffffffffffffffffff1602179055508560015f6101000a81548173ffffffffffffffffffffffffffffffffffffffff021916908373ffffffffffffffffffffffffffffffffffffffff16021790555083156118eb575f855f0160086101000a81548160ff0219169083151502179055507fc7f505b2f371ae2175ee4913f4499e1f2633a7b5936321eed1cdaeb6115181d260016040516118e29190612bde565b60405180910390a15b505050505050505050565b5f7f01ffc9a7000000000000000000000000000000000000000000000000000000007bffffffffffffffffffffffffffffffffffffffffffffffffffffffff1916827bffffffffffffffffffffffffffffffffffffffffffffffffffffffff1916149050919050565b5f7f02dd7bc7dec4dceedda775e58dd541e08a116c6c53815c0bd028192f7b626800905090565b61199781611992611a92565b611e67565b50565b5f5f6119a461195f565b90506119b08484610907565b611a87576001815f015f8681526020019081526020015f205f015f8573ffffffffffffffffffffffffffffffffffffffff1673ffffffffffffffffffffffffffffffffffffffff1681526020019081526020015f205f6101000a81548160ff021916908315150217905550611a23611a92565b73ffffffffffffffffffffffffffffffffffffffff168373ffffffffffffffffffffffffffffffffffffffff16857f2f8788117e7eff1d82e926ec794901d17c78024a50270940304540a733656f0d60405160405180910390a46001915050611a8c565b5f9150505b92915050565b5f33905090565b5f5f611aa361195f565b9050611aaf8484610907565b15611b86575f815f015f8681526020019081526020015f205f015f8573ffffffffffffffffffffffffffffffffffffffff1673ffffffffffffffffffffffffffffffffffffffff1681526020019081526020015f205f6101000a81548160ff021916908315150217905550611b22611a92565b73ffffffffffffffffffffffffffffffffffffffff168373ffffffffffffffffffffffffffffffffffffffff16857ff6391f5c32d9c69d2a47ea670b442974b53935d1edc7fd64eb21e047a839171b60405160405180910390a46001915050611b8b565b5f9150505b92915050565b7f000000000000000000000000000000000000000000000000000000000000000073ffffffffffffffffffffffffffffffffffffffff163073ffffffffffffffffffffffffffffffffffffffff161480611c3e57507f000000000000000000000000000000000000000000000000000000000000000073ffffffffffffffffffffffffffffffffffffffff16611c25611eb8565b73ffffffffffffffffffffffffffffffffffffffff1614155b15611c75576040517fe07c8dba00000000000000000000000000000000000000000000000000000000815260040160405180910390fd5b565b5f5f1b611c8381611986565b5050565b8173ffffffffffffffffffffffffffffffffffffffff166352d1902d6040518163ffffffff1660e01b8152600401602060405180830381865afa925050508015611cef57506040513d601f19601f82011682018060405250810190611cec9190612c0b565b60015b611d3057816040517f4c9c8ce3000000000000000000000000000000000000000000000000000000008152600401611d279190612c36565b60405180910390fd5b7f360894a13ba1a3210667c828492db98dca3e2076cc3735a920a3ca505d382bbc5f1b8114611d9657806040517faa1d49a4000000000000000000000000000000000000000000000000000000008152600401611d8d91906124b0565b60405180910390fd5b611da08383611f0b565b505050565b7f000000000000000000000000000000000000000000000000000000000000000073ffffffffffffffffffffffffffffffffffffffff163073ffffffffffffffffffffffffffffffffffffffff1614611e2a576040517fe07c8dba00000000000000000000000000000000000000000000000000000000815260040160405180910390fd5b565b5f7ff0c57e16840df040f15088dc2f81fe391c3923bec73e23a9662efc9c229c6a00905090565b611e5b611f7d565b565b611e65611f7d565b565b611e718282610907565b611eb45780826040517fe2517d3f000000000000000000000000000000000000000000000000000000008152600401611eab929190612c4f565b60405180910390fd5b5050565b5f611ee47f360894a13ba1a3210667c828492db98dca3e2076cc3735a920a3ca505d382bbc5f1b611fbd565b5f015f9054906101000a900473ffffffffffffffffffffffffffffffffffffffff16905090565b611f1482611fc6565b8173ffffffffffffffffffffffffffffffffffffffff167fbc7cd75a20ee27fd9adebab32041f755214dbc6bffa90cc0225b39da2e5c2d3b60405160405180910390a25f81511115611f7057611f6a828261208f565b50611f79565b611f7861210f565b5b5050565b611f8561214b565b611fbb576040517fd7e6bcf800000000000000000000000000000000000000000000000000000000815260040160405180910390fd5b565b5f819050919050565b5f8173ffffffffffffffffffffffffffffffffffffffff163b0361202157806040517f4c9c8ce30000000000000000000000000000000000000000000000000000000081526004016120189190612c36565b60405180910390fd5b8061204d7f360894a13ba1a3210667c828492db98dca3e2076cc3735a920a3ca505d382bbc5f1b611fbd565b5f015f6101000a81548173ffffffffffffffffffffffffffffffffffffffff021916908373ffffffffffffffffffffffffffffffffffffffff16021790555050565b60605f5f8473ffffffffffffffffffffffffffffffffffffffff16846040516120b89190612cba565b5f60405180830381855af49150503d805f81146120f0576040519150601f19603f3d011682016040523d82523d5f602084013e6120f5565b606091505b5091509150612105858383612169565b9250505092915050565b5f341115612149576040517fb398979f00000000000000000000000000000000000000000000000000000000815260040160405180910390fd5b565b5f612154611e2c565b5f0160089054906101000a900460ff16905090565b60608261217e57612179826121f6565b6121ee565b5f82511480156121a457505f8473ffffffffffffffffffffffffffffffffffffffff163b145b156121e657836040517f9996b3150000000000000000000000000000000000000000000000000000000081526004016121dd9190612c36565b60405180910390fd5b8190506121ef565b5b9392505050565b5f815111156122085780518082602001fd5b6040517fd6bda27500000000000000000000000000000000000000000000000000000000815260040160405180910390fd5b5f604051905090565b5f5ffd5b5f5ffd5b5f7fffffffff0000000000000000000000000000000000000000000000000000000082169050919050565b61227f8161224b565b8114612289575f5ffd5b50565b5f8135905061229a81612276565b92915050565b5f602082840312156122b5576122b4612243565b5b5f6122c28482850161228c565b91505092915050565b5f8115159050919050565b6122df816122cb565b82525050565b5f6020820190506122f85f8301846122d6565b92915050565b5f819050919050565b612310816122fe565b82525050565b5f6020820190506123295f830184612307565b92915050565b612338816122fe565b8114612342575f5ffd5b50565b5f813590506123538161232f565b92915050565b5f73ffffffffffffffffffffffffffffffffffffffff82169050919050565b5f61238282612359565b9050919050565b61239281612378565b811461239c575f5ffd5b50565b5f813590506123ad81612389565b92915050565b5f5f604083850312156123c9576123c8612243565b5b5f6123d685828601612345565b92505060206123e78582860161239f565b9150509250929050565b5f6020828403121561240657612405612243565b5b5f61241384828501612345565b91505092915050565b5f60408201905061242f5f8301856122d6565b61243c6020830184612307565b9392505050565b5f819050919050565b61245581612443565b811461245f575f5ffd5b50565b5f813590506124708161244c565b92915050565b5f6020828403121561248b5761248a612243565b5b5f61249884828501612462565b91505092915050565b6124aa81612443565b82525050565b5f6020820190506124c35f8301846124a1565b92915050565b5f5f604083850312156124df576124de612243565b5b5f6124ec85828601612462565b92505060206124fd8582860161239f565b9150509250929050565b5f7effffffffffffffffffffffffffffffffffffffffffffffffffffffffffffff82169050919050565b61253a81612507565b82525050565b5f6040820190506125535f8301856122d6565b6125606020830184612531565b9392505050565b5f5ffd5b5f5ffd5b5f601f19601f8301169050919050565b7f4e487b71000000000000000000000000000000000000000000000000000000005f52604160045260245ffd5b6125b58261256f565b810181811067ffffffffffffffff821117156125d4576125d361257f565b5b80604052505050565b5f6125e661223a565b90506125f282826125ac565b919050565b5f67ffffffffffffffff8211156126115761261061257f565b5b61261a8261256f565b9050602081019050919050565b828183375f83830152505050565b5f612647612642846125f7565b6125dd565b9050828152602081018484840111156126635761266261256b565b5b61266e848285612627565b509392505050565b5f82601f83011261268a57612689612567565b5b813561269a848260208601612635565b91505092915050565b5f5f604083850312156126b9576126b8612243565b5b5f6126c68582860161239f565b925050602083013567ffffffffffffffff8111156126e7576126e6612247565b5b6126f385828601612676565b9150509250929050565b5f819050919050565b5f61272061271b61271684612359565b6126fd565b612359565b9050919050565b5f61273182612706565b9050919050565b5f61274282612727565b9050919050565b61275281612738565b82525050565b5f60208201905061276b5f830184612749565b92915050565b5f5f6040838503121561278757612786612243565b5b5f61279485828601612345565b92505060206127a585828601612345565b9150509250929050565b5f81519050919050565b5f82825260208201905092915050565b8281835e5f83830152505050565b5f6127e1826127af565b6127eb81856127b9565b93506127fb8185602086016127c9565b6128048161256f565b840191505092915050565b5f6020820190508181035f83015261282781846127d7565b905092915050565b5f61283982612727565b9050919050565b6128498161282f565b82525050565b5f6020820190506128625f830184612840565b92915050565b5f5ffd5b5f5ffd5b5f5f83601f84011261288557612884612567565b5b8235905067ffffffffffffffff8111156128a2576128a1612868565b5b6020830191508360208202830111156128be576128bd61286c565b5b9250929050565b5f5f602083850312156128db576128da612243565b5b5f83013567ffffffffffffffff8111156128f8576128f7612247565b5b61290485828601612870565b92509250509250929050565b5f5f5f5f6080858703121561292857612927612243565b5b5f6129358782880161239f565b94505060206129468782880161239f565b93505060406129578782880161239f565b92505060606129688782880161239f565b91505092959194509250565b5f815190506129828161232f565b92915050565b5f6020828403121561299d5761299c612243565b5b5f6129aa84828501612974565b91505092915050565b5f6040820190506129c65f830185612307565b6129d360208301846124a1565b9392505050565b6129e381612378565b82525050565b5f6060820190506129fc5f830186612307565b612a0960208301856124a1565b612a1660408301846129da565b949350505050565b7f4e487b71000000000000000000000000000000000000000000000000000000005f52601160045260245ffd5b5f612a55826122fe565b9150612a60836122fe565b9250828202612a6e816122fe565b91508282048414831517612a8557612a84612a1e565b5b5092915050565b7f4e487b71000000000000000000000000000000000000000000000000000000005f52601260045260245ffd5b5f612ac3826122fe565b9150612ace836122fe565b925082612ade57612add612a8c565b5b828204905092915050565b5f604082019050612afc5f8301856129da565b612b096020830184612307565b9392505050565b612b19816122cb565b8114612b23575f5ffd5b50565b5f81519050612b3481612b10565b92915050565b5f60208284031215612b4f57612b4e612243565b5b5f612b5c84828501612b26565b91505092915050565b7f4e487b71000000000000000000000000000000000000000000000000000000005f52603260045260245ffd5b5f819050919050565b5f67ffffffffffffffff82169050919050565b5f612bc8612bc3612bbe84612b92565b6126fd565b612b9b565b9050919050565b612bd881612bae565b82525050565b5f602082019050612bf15f830184612bcf565b92915050565b5f81519050612c058161244c565b92915050565b5f60208284031215612c2057612c1f612243565b5b5f612c2d84828501612bf7565b91505092915050565b5f602082019050612c495f8301846129da565b92915050565b5f604082019050612c625f8301856129da565b612c6f60208301846124a1565b9392505050565b5f81519050919050565b5f81905092915050565b5f612c9482612c76565b612c9e8185612c80565b9350612cae8185602086016127c9565b80840191505092915050565b5f612cc58284612c8a565b91508190509291505056fea26469706673582212208745d89dce221cb05072236bbd80da4eda544944a851a5a0a0498fc38723a33a64736f6c634300081b0033","linkReferences":{}},"methodIdentifiers":{"DEFAULT_ADMIN_ROLE()":"a217fddf","REWARD_MANAGER_ROLE()":"6d750d80","UPGRADE_INTERFACE_VERSION()":"ad3cb1cc","batchClaimReward(uint256[])":"c760da04","claimReward(uint256)":"ae169a50","claimed(uint256,address)":"120aa877","contribution()":"50520b1f","getClaimableReward(uint256,address)":"ab3b55e3","getCurrentPeriod()":"086146d2","getReward(uint256)":"1c4b774b","getRoleAdmin(bytes32)":"248a9ca3","grantRole(bytes32,address)":"2f2ff15d","hasRole(bytes32,address)":"91d14854","initialize(address,address,address,address)":"f8c8765e","intmaxToken()":"ad8d2807","proxiableUUID()":"52d1902d","renounceRole(bytes32,address)":"36568abe","revokeRole(bytes32,address)":"d547741f","setReward(uint256,uint256)":"a47bd496","supportsInterface(bytes4)":"01ffc9a7","totalRewards(uint256)":"32f26694","upgradeToAndCall(address,bytes)":"4f1ef286"},"id":40}