{
  "_format": "hh-sol-artifact-1",
  "contractName": "Liquidity",
  "sourceName": "contracts/liquidity/Liquidity.sol",
  "abi": [
    {
      "inputs": [],
      "stateMutability": "nonpayable",
      "type": "constructor"
    },
    {
      "inputs": [],
      "name": "AccessControlBadConfirmation",
      "type": "error"
    },
    {
      "inputs": [
        {
          "internalType": "address",
          "name": "account",
          "type": "address"
        },
        {
          "internalType": "bytes32",
          "name": "neededRole",
          "type": "bytes32"
        }
      ],
      "name": "AccessControlUnauthorizedAccount",
      "type": "error"
    },
    {
      "inputs": [
        {
          "internalType": "address",
          "name": "target",
          "type": "address"
        }
      ],
      "name": "AddressEmptyCode",
      "type": "error"
    },
    {
      "inputs": [],
      "name": "AddressZero",
      "type": "error"
    },
    {
      "inputs": [],
      "name": "AlreadyAnalyzed",
      "type": "error"
    },
    {
      "inputs": [
        {
          "internalType": "bytes32",
          "name": "depositHash",
          "type": "bytes32"
        }
      ],
      "name": "DepositHashAlreadyExists",
      "type": "error"
    },
    {
      "inputs": [
        {
          "internalType": "address",
          "name": "implementation",
          "type": "address"
        }
      ],
      "name": "ERC1967InvalidImplementation",
      "type": "error"
    },
    {
      "inputs": [],
      "name": "ERC1967NonPayable",
      "type": "error"
    },
    {
      "inputs": [],
      "name": "FailedCall",
      "type": "error"
    },
    {
      "inputs": [
        {
          "internalType": "bytes32",
          "name": "depositDataHash",
          "type": "bytes32"
        },
        {
          "internalType": "bytes32",
          "name": "calculatedHash",
          "type": "bytes32"
        }
      ],
      "name": "InvalidDepositHash",
      "type": "error"
    },
    {
      "inputs": [],
      "name": "InvalidInitialization",
      "type": "error"
    },
    {
      "inputs": [],
      "name": "InvalidWithdrawalAddress",
      "type": "error"
    },
    {
      "inputs": [],
      "name": "NotInitializing",
      "type": "error"
    },
    {
      "inputs": [],
      "name": "OnlySenderCanCancelDeposit",
      "type": "error"
    },
    {
      "inputs": [
        {
          "internalType": "address",
          "name": "token",
          "type": "address"
        }
      ],
      "name": "SafeERC20FailedOperation",
      "type": "error"
    },
    {
      "inputs": [],
      "name": "SenderIsNotScrollMessenger",
      "type": "error"
    },
    {
      "inputs": [],
      "name": "TokenAddressIsZero",
      "type": "error"
    },
    {
      "inputs": [
        {
          "internalType": "uint256",
          "name": "upToDepositId",
          "type": "uint256"
        },
        {
          "internalType": "uint256",
          "name": "firstDepositId",
          "type": "uint256"
        },
        {
          "internalType": "uint256",
          "name": "lastDepositId",
          "type": "uint256"
        }
      ],
      "name": "TriedAnalyzeOutOfRange",
      "type": "error"
    },
    {
      "inputs": [],
      "name": "TriedToDepositZero",
      "type": "error"
    },
    {
      "inputs": [
        {
          "internalType": "uint256",
          "name": "rejectIndex",
          "type": "uint256"
        },
        {
          "internalType": "uint256",
          "name": "front",
          "type": "uint256"
        },
        {
          "internalType": "uint256",
          "name": "upToDepositId",
          "type": "uint256"
        }
      ],
      "name": "TriedToRejectOutOfRange",
      "type": "error"
    },
    {
      "inputs": [],
      "name": "UUPSUnauthorizedCallContext",
      "type": "error"
    },
    {
      "inputs": [
        {
          "internalType": "bytes32",
          "name": "slot",
          "type": "bytes32"
        }
      ],
      "name": "UUPSUnsupportedProxiableUUID",
      "type": "error"
    },
    {
      "inputs": [],
      "name": "WithdrawalAddressNotSet",
      "type": "error"
    },
    {
      "inputs": [
        {
          "internalType": "bytes32",
          "name": "withdrawalHash",
          "type": "bytes32"
        }
      ],
      "name": "WithdrawalNotFound",
      "type": "error"
    },
    {
      "anonymous": false,
      "inputs": [
        {
          "indexed": true,
          "internalType": "uint256",
          "name": "lastProcessedClaimableWithdrawalId",
          "type": "uint256"
        }
      ],
      "name": "ClaimableWithdrawalsProcessed",
      "type": "event"
    },
    {
      "anonymous": false,
      "inputs": [
        {
          "indexed": true,
          "internalType": "address",
          "name": "recipient",
          "type": "address"
        },
        {
          "indexed": true,
          "internalType": "bytes32",
          "name": "withdrawalHash",
          "type": "bytes32"
        }
      ],
      "name": "ClaimedWithdrawal",
      "type": "event"
    },
    {
      "anonymous": false,
      "inputs": [
        {
          "indexed": true,
          "internalType": "uint256",
          "name": "depositId",
          "type": "uint256"
        }
      ],
      "name": "DepositCanceled",
      "type": "event"
    },
    {
      "anonymous": false,
      "inputs": [
        {
          "indexed": true,
          "internalType": "uint256",
          "name": "depositId",
          "type": "uint256"
        },
        {
          "indexed": true,
          "internalType": "address",
          "name": "sender",
          "type": "address"
        },
        {
          "indexed": true,
          "internalType": "bytes32",
          "name": "recipientSaltHash",
          "type": "bytes32"
        },
        {
          "indexed": false,
          "internalType": "uint32",
          "name": "tokenIndex",
          "type": "uint32"
        },
        {
          "indexed": false,
          "internalType": "uint256",
          "name": "amount",
          "type": "uint256"
        },
        {
          "indexed": false,
          "internalType": "uint256",
          "name": "depositedAt",
          "type": "uint256"
        }
      ],
      "name": "Deposited",
      "type": "event"
    },
    {
      "anonymous": false,
      "inputs": [
        {
          "indexed": true,
          "internalType": "uint256",
          "name": "upToDepositId",
          "type": "uint256"
        },
        {
          "indexed": false,
          "internalType": "uint256[]",
          "name": "rejectedIndices",
          "type": "uint256[]"
        },
        {
          "indexed": false,
          "internalType": "uint256",
          "name": "gasLimit",
          "type": "uint256"
        },
        {
          "indexed": false,
          "internalType": "bytes",
          "name": "message",
          "type": "bytes"
        }
      ],
      "name": "DepositsAnalyzedAndRelayed",
      "type": "event"
    },
    {
      "anonymous": false,
      "inputs": [
        {
          "indexed": true,
          "internalType": "bytes32",
          "name": "withdrawalHash",
          "type": "bytes32"
        },
        {
          "components": [
            {
              "internalType": "address",
              "name": "recipient",
              "type": "address"
            },
            {
              "internalType": "uint32",
              "name": "tokenIndex",
              "type": "uint32"
            },
            {
              "internalType": "uint256",
              "name": "amount",
              "type": "uint256"
            },
            {
              "internalType": "uint256",
              "name": "id",
              "type": "uint256"
            }
          ],
          "indexed": false,
          "internalType": "struct WithdrawalLib.Withdrawal",
          "name": "withdrawal",
          "type": "tuple"
        }
      ],
      "name": "DirectWithdrawalFailed",
      "type": "event"
    },
    {
      "anonymous": false,
      "inputs": [
        {
          "indexed": true,
          "internalType": "uint256",
          "name": "lastProcessedDirectWithdrawalId",
          "type": "uint256"
        }
      ],
      "name": "DirectWithdrawalsProcessed",
      "type": "event"
    },
    {
      "anonymous": false,
      "inputs": [
        {
          "indexed": false,
          "internalType": "uint64",
          "name": "version",
          "type": "uint64"
        }
      ],
      "name": "Initialized",
      "type": "event"
    },
    {
      "anonymous": false,
      "inputs": [
        {
          "indexed": true,
          "internalType": "bytes32",
          "name": "role",
          "type": "bytes32"
        },
        {
          "indexed": true,
          "internalType": "bytes32",
          "name": "previousAdminRole",
          "type": "bytes32"
        },
        {
          "indexed": true,
          "internalType": "bytes32",
          "name": "newAdminRole",
          "type": "bytes32"
        }
      ],
      "name": "RoleAdminChanged",
      "type": "event"
    },
    {
      "anonymous": false,
      "inputs": [
        {
          "indexed": true,
          "internalType": "bytes32",
          "name": "role",
          "type": "bytes32"
        },
        {
          "indexed": true,
          "internalType": "address",
          "name": "account",
          "type": "address"
        },
        {
          "indexed": true,
          "internalType": "address",
          "name": "sender",
          "type": "address"
        }
      ],
      "name": "RoleGranted",
      "type": "event"
    },
    {
      "anonymous": false,
      "inputs": [
        {
          "indexed": true,
          "internalType": "bytes32",
          "name": "role",
          "type": "bytes32"
        },
        {
          "indexed": true,
          "internalType": "address",
          "name": "account",
          "type": "address"
        },
        {
          "indexed": true,
          "internalType": "address",
          "name": "sender",
          "type": "address"
        }
      ],
      "name": "RoleRevoked",
      "type": "event"
    },
    {
      "anonymous": false,
      "inputs": [
        {
          "indexed": true,
          "internalType": "address",
          "name": "implementation",
          "type": "address"
        }
      ],
      "name": "Upgraded",
      "type": "event"
    },
    {
      "anonymous": false,
      "inputs": [
        {
          "indexed": true,
          "internalType": "bytes32",
          "name": "withdrawalHash",
          "type": "bytes32"
        }
      ],
      "name": "WithdrawalClaimable",
      "type": "event"
    },
    {
      "inputs": [],
      "name": "ANALYZER",
      "outputs": [
        {
          "internalType": "bytes32",
          "name": "",
          "type": "bytes32"
        }
      ],
      "stateMutability": "view",
      "type": "function"
    },
    {
      "inputs": [],
      "name": "DEFAULT_ADMIN_ROLE",
      "outputs": [
        {
          "internalType": "bytes32",
          "name": "",
          "type": "bytes32"
        }
      ],
      "stateMutability": "view",
      "type": "function"
    },
    {
      "inputs": [],
      "name": "UPGRADE_INTERFACE_VERSION",
      "outputs": [
        {
          "internalType": "string",
          "name": "",
          "type": "string"
        }
      ],
      "stateMutability": "view",
      "type": "function"
    },
    {
      "inputs": [
        {
          "internalType": "uint256",
          "name": "upToDepositId",
          "type": "uint256"
        },
        {
          "internalType": "uint256[]",
          "name": "rejectDepositIds",
          "type": "uint256[]"
        },
        {
          "internalType": "uint256",
          "name": "gasLimit",
          "type": "uint256"
        }
      ],
      "name": "analyzeAndRelayDeposits",
      "outputs": [],
      "stateMutability": "payable",
      "type": "function"
    },
    {
      "inputs": [
        {
          "internalType": "uint256",
          "name": "depositId",
          "type": "uint256"
        },
        {
          "components": [
            {
              "internalType": "bytes32",
              "name": "recipientSaltHash",
              "type": "bytes32"
            },
            {
              "internalType": "uint32",
              "name": "tokenIndex",
              "type": "uint32"
            },
            {
              "internalType": "uint256",
              "name": "amount",
              "type": "uint256"
            }
          ],
          "internalType": "struct DepositLib.Deposit",
          "name": "deposit",
          "type": "tuple"
        }
      ],
      "name": "cancelDeposit",
      "outputs": [],
      "stateMutability": "nonpayable",
      "type": "function"
    },
    {
      "inputs": [
        {
          "components": [
            {
              "internalType": "address",
              "name": "recipient",
              "type": "address"
            },
            {
              "internalType": "uint32",
              "name": "tokenIndex",
              "type": "uint32"
            },
            {
              "internalType": "uint256",
              "name": "amount",
              "type": "uint256"
            },
            {
              "internalType": "uint256",
              "name": "id",
              "type": "uint256"
            }
          ],
          "internalType": "struct WithdrawalLib.Withdrawal[]",
          "name": "withdrawals",
          "type": "tuple[]"
        }
      ],
      "name": "claimWithdrawals",
      "outputs": [],
      "stateMutability": "nonpayable",
      "type": "function"
    },
    {
      "inputs": [
        {
          "internalType": "bytes32",
          "name": "",
          "type": "bytes32"
        }
      ],
      "name": "claimableWithdrawals",
      "outputs": [
        {
          "internalType": "uint256",
          "name": "",
          "type": "uint256"
        }
      ],
      "stateMutability": "view",
      "type": "function"
    },
    {
      "inputs": [
        {
          "internalType": "address",
          "name": "tokenAddress",
          "type": "address"
        },
        {
          "internalType": "bytes32",
          "name": "recipientSaltHash",
          "type": "bytes32"
        },
        {
          "internalType": "uint256",
          "name": "tokenId",
          "type": "uint256"
        },
        {
          "internalType": "uint256",
          "name": "amount",
          "type": "uint256"
        }
      ],
      "name": "depositERC1155",
      "outputs": [],
      "stateMutability": "nonpayable",
      "type": "function"
    },
    {
      "inputs": [
        {
          "internalType": "address",
          "name": "tokenAddress",
          "type": "address"
        },
        {
          "internalType": "bytes32",
          "name": "recipientSaltHash",
          "type": "bytes32"
        },
        {
          "internalType": "uint256",
          "name": "amount",
          "type": "uint256"
        }
      ],
      "name": "depositERC20",
      "outputs": [],
      "stateMutability": "nonpayable",
      "type": "function"
    },
    {
      "inputs": [
        {
          "internalType": "address",
          "name": "tokenAddress",
          "type": "address"
        },
        {
          "internalType": "bytes32",
          "name": "recipientSaltHash",
          "type": "bytes32"
        },
        {
          "internalType": "uint256",
          "name": "tokenId",
          "type": "uint256"
        }
      ],
      "name": "depositERC721",
      "outputs": [],
      "stateMutability": "nonpayable",
      "type": "function"
    },
    {
      "inputs": [
        {
          "internalType": "bytes32",
          "name": "recipientSaltHash",
          "type": "bytes32"
        }
      ],
      "name": "depositNativeToken",
      "outputs": [],
      "stateMutability": "payable",
      "type": "function"
    },
    {
      "inputs": [
        {
          "internalType": "uint256",
          "name": "depositId",
          "type": "uint256"
        }
      ],
      "name": "getDepositData",
      "outputs": [
        {
          "components": [
            {
              "internalType": "bytes32",
              "name": "depositHash",
              "type": "bytes32"
            },
            {
              "internalType": "address",
              "name": "sender",
              "type": "address"
            },
            {
              "internalType": "bool",
              "name": "isRejected",
              "type": "bool"
            }
          ],
          "internalType": "struct DepositQueueLib.DepositData",
          "name": "",
          "type": "tuple"
        }
      ],
      "stateMutability": "view",
      "type": "function"
    },
    {
      "inputs": [
        {
          "internalType": "uint256[]",
          "name": "depositIds",
          "type": "uint256[]"
        }
      ],
      "name": "getDepositDataBatch",
      "outputs": [
        {
          "components": [
            {
              "internalType": "bytes32",
              "name": "depositHash",
              "type": "bytes32"
            },
            {
              "internalType": "address",
              "name": "sender",
              "type": "address"
            },
            {
              "internalType": "bool",
              "name": "isRejected",
              "type": "bool"
            }
          ],
          "internalType": "struct DepositQueueLib.DepositData[]",
          "name": "",
          "type": "tuple[]"
        }
      ],
      "stateMutability": "view",
      "type": "function"
    },
    {
      "inputs": [
        {
          "internalType": "uint256",
          "name": "depositId",
          "type": "uint256"
        }
      ],
      "name": "getDepositDataHash",
      "outputs": [
        {
          "internalType": "bytes32",
          "name": "",
          "type": "bytes32"
        }
      ],
      "stateMutability": "view",
      "type": "function"
    },
    {
      "inputs": [],
      "name": "getLastDepositId",
      "outputs": [
        {
          "internalType": "uint256",
          "name": "",
          "type": "uint256"
        }
      ],
      "stateMutability": "view",
      "type": "function"
    },
    {
      "inputs": [],
      "name": "getLastRelayedDepositId",
      "outputs": [
        {
          "internalType": "uint256",
          "name": "",
          "type": "uint256"
        }
      ],
      "stateMutability": "view",
      "type": "function"
    },
    {
      "inputs": [],
      "name": "getNativeTokenIndex",
      "outputs": [
        {
          "internalType": "uint32",
          "name": "",
          "type": "uint32"
        }
      ],
      "stateMutability": "pure",
      "type": "function"
    },
    {
      "inputs": [
        {
          "internalType": "bytes32",
          "name": "role",
          "type": "bytes32"
        }
      ],
      "name": "getRoleAdmin",
      "outputs": [
        {
          "internalType": "bytes32",
          "name": "",
          "type": "bytes32"
        }
      ],
      "stateMutability": "view",
      "type": "function"
    },
    {
      "inputs": [
        {
          "internalType": "enum ITokenData.TokenType",
          "name": "tokenType",
          "type": "uint8"
        },
        {
          "internalType": "address",
          "name": "tokenAddress",
          "type": "address"
        },
        {
          "internalType": "uint256",
          "name": "tokenId",
          "type": "uint256"
        }
      ],
      "name": "getTokenIndex",
      "outputs": [
        {
          "internalType": "bool",
          "name": "",
          "type": "bool"
        },
        {
          "internalType": "uint32",
          "name": "",
          "type": "uint32"
        }
      ],
      "stateMutability": "view",
      "type": "function"
    },
    {
      "inputs": [
        {
          "internalType": "uint32",
          "name": "tokenIndex",
          "type": "uint32"
        }
      ],
      "name": "getTokenInfo",
      "outputs": [
        {
          "components": [
            {
              "internalType": "enum ITokenData.TokenType",
              "name": "tokenType",
              "type": "uint8"
            },
            {
              "internalType": "address",
              "name": "tokenAddress",
              "type": "address"
            },
            {
              "internalType": "uint256",
              "name": "tokenId",
              "type": "uint256"
            }
          ],
          "internalType": "struct ITokenData.TokenInfo",
          "name": "",
          "type": "tuple"
        }
      ],
      "stateMutability": "view",
      "type": "function"
    },
    {
      "inputs": [
        {
          "internalType": "bytes32",
          "name": "role",
          "type": "bytes32"
        },
        {
          "internalType": "address",
          "name": "account",
          "type": "address"
        }
      ],
      "name": "grantRole",
      "outputs": [],
      "stateMutability": "nonpayable",
      "type": "function"
    },
    {
      "inputs": [
        {
          "internalType": "bytes32",
          "name": "role",
          "type": "bytes32"
        },
        {
          "internalType": "address",
          "name": "account",
          "type": "address"
        }
      ],
      "name": "hasRole",
      "outputs": [
        {
          "internalType": "bool",
          "name": "",
          "type": "bool"
        }
      ],
      "stateMutability": "view",
      "type": "function"
    },
    {
      "inputs": [
        {
          "internalType": "address",
          "name": "_l1ScrollMessenger",
          "type": "address"
        },
        {
          "internalType": "address",
          "name": "_rollup",
          "type": "address"
        },
        {
          "internalType": "address",
          "name": "_withdrawal",
          "type": "address"
        },
        {
          "internalType": "address",
          "name": "_analyzer",
          "type": "address"
        },
        {
          "internalType": "address",
          "name": "_contribution",
          "type": "address"
        },
        {
          "internalType": "address[]",
          "name": "initialERC20Tokens",
          "type": "address[]"
        }
      ],
      "name": "initialize",
      "outputs": [],
      "stateMutability": "nonpayable",
      "type": "function"
    },
    {
      "inputs": [
        {
          "internalType": "uint256",
          "name": "depositId",
          "type": "uint256"
        },
        {
          "internalType": "bytes32",
          "name": "recipientSaltHash",
          "type": "bytes32"
        },
        {
          "internalType": "uint32",
          "name": "tokenIndex",
          "type": "uint32"
        },
        {
          "internalType": "uint256",
          "name": "amount",
          "type": "uint256"
        },
        {
          "internalType": "address",
          "name": "sender",
          "type": "address"
        }
      ],
      "name": "isDepositValid",
      "outputs": [
        {
          "internalType": "bool",
          "name": "",
          "type": "bool"
        }
      ],
      "stateMutability": "view",
      "type": "function"
    },
    {
      "inputs": [
        {
          "internalType": "address",
          "name": "",
          "type": "address"
        },
        {
          "internalType": "address",
          "name": "",
          "type": "address"
        },
        {
          "internalType": "uint256",
          "name": "",
          "type": "uint256"
        },
        {
          "internalType": "uint256",
          "name": "",
          "type": "uint256"
        },
        {
          "internalType": "bytes",
          "name": "",
          "type": "bytes"
        }
      ],
      "name": "onERC1155Received",
      "outputs": [
        {
          "internalType": "bytes4",
          "name": "",
          "type": "bytes4"
        }
      ],
      "stateMutability": "pure",
      "type": "function"
    },
    {
      "inputs": [
        {
          "internalType": "uint256",
          "name": "_lastProcessedDirectWithdrawalId",
          "type": "uint256"
        },
        {
          "components": [
            {
              "internalType": "address",
              "name": "recipient",
              "type": "address"
            },
            {
              "internalType": "uint32",
              "name": "tokenIndex",
              "type": "uint32"
            },
            {
              "internalType": "uint256",
              "name": "amount",
              "type": "uint256"
            },
            {
              "internalType": "uint256",
              "name": "id",
              "type": "uint256"
            }
          ],
          "internalType": "struct WithdrawalLib.Withdrawal[]",
          "name": "withdrawals",
          "type": "tuple[]"
        },
        {
          "internalType": "uint256",
          "name": "_lastProcessedClaimableWithdrawalId",
          "type": "uint256"
        },
        {
          "internalType": "bytes32[]",
          "name": "withdrawalHashes",
          "type": "bytes32[]"
        }
      ],
      "name": "processWithdrawals",
      "outputs": [],
      "stateMutability": "nonpayable",
      "type": "function"
    },
    {
      "inputs": [],
      "name": "proxiableUUID",
      "outputs": [
        {
          "internalType": "bytes32",
          "name": "",
          "type": "bytes32"
        }
      ],
      "stateMutability": "view",
      "type": "function"
    },
    {
      "inputs": [
        {
          "internalType": "bytes32",
          "name": "role",
          "type": "bytes32"
        },
        {
          "internalType": "address",
          "name": "callerConfirmation",
          "type": "address"
        }
      ],
      "name": "renounceRole",
      "outputs": [],
      "stateMutability": "nonpayable",
      "type": "function"
    },
    {
      "inputs": [
        {
          "internalType": "bytes32",
          "name": "role",
          "type": "bytes32"
        },
        {
          "internalType": "address",
          "name": "account",
          "type": "address"
        }
      ],
      "name": "revokeRole",
      "outputs": [],
      "stateMutability": "nonpayable",
      "type": "function"
    },
    {
      "inputs": [
        {
          "internalType": "bytes4",
          "name": "interfaceId",
          "type": "bytes4"
        }
      ],
      "name": "supportsInterface",
      "outputs": [
        {
          "internalType": "bool",
          "name": "",
          "type": "bool"
        }
      ],
      "stateMutability": "view",
      "type": "function"
    },
    {
      "inputs": [
        {
          "internalType": "address",
          "name": "newImplementation",
          "type": "address"
        },
        {
          "internalType": "bytes",
          "name": "data",
          "type": "bytes"
        }
      ],
      "name": "upgradeToAndCall",
      "outputs": [],
      "stateMutability": "payable",
      "type": "function"
    }
  ],
  "bytecode": "0x60a06040523073ffffffffffffffffffffffffffffffffffffffff1660809073ffffffffffffffffffffffffffffffffffffffff1681525034801561004357600080fd5b5061005261005760201b60201c565b6101c1565b600061006761015b60201b60201c565b90508060000160089054906101000a900460ff16156100b2576040517ff92ee8a900000000000000000000000000000000000000000000000000000000815260040160405180910390fd5b67ffffffffffffffff80168160000160009054906101000a900467ffffffffffffffff1667ffffffffffffffff16146101585767ffffffffffffffff8160000160006101000a81548167ffffffffffffffff021916908367ffffffffffffffff1602179055507fc7f505b2f371ae2175ee4913f4499e1f2633a7b5936321eed1cdaeb6115181d267ffffffffffffffff60405161014f91906101a6565b60405180910390a15b50565b60007ff0c57e16840df040f15088dc2f81fe391c3923bec73e23a9662efc9c229c6a00905090565b600067ffffffffffffffff82169050919050565b6101a081610183565b82525050565b60006020820190506101bb6000830184610197565b92915050565b6080516157606101ea6000396000818161254401528181612599015261275a01526157606000f3fe6080604052600436106101d85760003560e01c80636ef5475b11610102578063b5df06b411610095578063dd9ea29911610064578063dd9ea299146106d7578063e579fa2b14610702578063f23a6e611461073f578063ffd553321461077c576101d8565b8063b5df06b41461060b578063c13819b614610634578063cbd90cd014610671578063d547741f146106ae576101d8565b8063986be0e2116100d1578063986be0e21461054f5780639f401f581461058c578063a217fddf146105b5578063ad3cb1cc146105e0576101d8565b80636ef5475b14610497578063729f67be146104c0578063788c2ecf146104e957806391d1485414610512576101d8565b806326fc02dd1161017a5780634f1ef286116101495780634f1ef2861461040957806352d1902d146104255780635362485e14610450578063675178371461046c576101d8565b806326fc02dd146103505780632f2ff15d1461037957806336568abe146103a2578063381175f6146103cb576101d8565b8063117cbe26116101b6578063117cbe261461026e578063219cd263146102ab578063232c1c8a146102d6578063248a9ca314610313576101d8565b806301ffc9a7146101dd578063088f0bdd1461021a5780630c0b59b914610243575b600080fd5b3480156101e957600080fd5b5061020460048036038101906101ff9190613dd6565b610798565b6040516102119190613e1e565b60405180910390f35b34801561022657600080fd5b50610241600480360381019061023c9190613f2a565b610812565b005b34801561024f57600080fd5b50610258610a25565b6040516102659190613fea565b60405180910390f35b34801561027a57600080fd5b50610295600480360381019061029091906140cb565b610a49565b6040516102a29190613e1e565b60405180910390f35b3480156102b757600080fd5b506102c0610ba3565b6040516102cd9190614155565b60405180910390f35b3480156102e257600080fd5b506102fd60048036038101906102f891906142bf565b610ba8565b60405161030a9190614426565b60405180910390f35b34801561031f57600080fd5b5061033a60048036038101906103359190614448565b610d09565b6040516103479190613fea565b60405180910390f35b34801561035c57600080fd5b5061037760048036038101906103729190614475565b610d37565b005b34801561038557600080fd5b506103a0600480360381019061039b91906144dc565b610e24565b005b3480156103ae57600080fd5b506103c960048036038101906103c491906144dc565b610e46565b005b3480156103d757600080fd5b506103f260048036038101906103ed9190614541565b610ec1565b604051610400929190614594565b60405180910390f35b610423600480360381019061041e9190614672565b6110ed565b005b34801561043157600080fd5b5061043a61110c565b6040516104479190613fea565b60405180910390f35b61046a600480360381019061046591906146ce565b61113f565b005b34801561047857600080fd5b50610481611303565b60405161048e919061474c565b60405180910390f35b3480156104a357600080fd5b506104be60048036038101906104b991906147d0565b61131c565b005b3480156104cc57600080fd5b506104e760048036038101906104e29190614810565b611563565b005b3480156104f557600080fd5b50610510600480360381019061050b919061485d565b6116a9565b005b34801561051e57600080fd5b50610539600480360381019061053491906144dc565b611741565b6040516105469190613e1e565b60405180910390f35b34801561055b57600080fd5b50610576600480360381019061057191906148b0565b6117ba565b6040516105839190613fea565b60405180910390f35b34801561059857600080fd5b506105b360048036038101906105ae919061485d565b6117ec565b005b3480156105c157600080fd5b506105ca61188c565b6040516105d79190613fea565b60405180910390f35b3480156105ec57600080fd5b506105f5611893565b604051610602919061495c565b60405180910390f35b34801561061757600080fd5b50610632600480360381019061062d9190614a41565b6118cc565b005b34801561064057600080fd5b5061065b600480360381019061065691906148b0565b611bbe565b6040516106689190614b2c565b60405180910390f35b34801561067d57600080fd5b5061069860048036038101906106939190614b47565b611c78565b6040516106a59190614c3c565b60405180910390f35b3480156106ba57600080fd5b506106d560048036038101906106d091906144dc565b611d55565b005b3480156106e357600080fd5b506106ec611d77565b6040516106f9919061474c565b60405180910390f35b34801561070e57600080fd5b5061072960048036038101906107249190614448565b611d93565b604051610736919061474c565b60405180910390f35b34801561074b57600080fd5b5061076660048036038101906107619190614cad565b611dab565b6040516107739190614d56565b60405180910390f35b61079660048036038101906107919190614448565b611dc1565b005b60007f7965db0b000000000000000000000000000000000000000000000000000000007bffffffffffffffffffffffffffffffffffffffffffffffffffffffff1916827bffffffffffffffffffffffffffffffffffffffffffffffffffffffff1916148061080b575061080a82611e1e565b5b9050919050565b6000600660009054906101000a900473ffffffffffffffffffffffffffffffffffffffff1690506000600360009054906101000a900473ffffffffffffffffffffffffffffffffffffffff169050600073ffffffffffffffffffffffffffffffffffffffff168273ffffffffffffffffffffffffffffffffffffffff16036108c6576040517ff8994bfa00000000000000000000000000000000000000000000000000000000815260040160405180910390fd5b8073ffffffffffffffffffffffffffffffffffffffff166108e5611e88565b73ffffffffffffffffffffffffffffffffffffffff1614610932576040517fd8844f1500000000000000000000000000000000000000000000000000000000815260040160405180910390fd5b8073ffffffffffffffffffffffffffffffffffffffff16636e296e456040518163ffffffff1660e01b8152600401602060405180830381865afa15801561097d573d6000803e3d6000fd5b505050506040513d601f19601f820116820180604052508101906109a19190614d86565b73ffffffffffffffffffffffffffffffffffffffff168273ffffffffffffffffffffffffffffffffffffffff1614610a05576040517f84c2102600000000000000000000000000000000000000000000000000000000815260040160405180910390fd5b610a10888888611e90565b610a1b858585611fd0565b5050505050505050565b7fe5002bd16ffc71462a6c1c19eaf55e254c97864c770378b6f68c1a085231514a81565b60008060096000018781548110610a6357610a62614db3565b5b9060005260206000209060020201604051806060016040529081600082015481526020016001820160009054906101000a900473ffffffffffffffffffffffffffffffffffffffff1673ffffffffffffffffffffffffffffffffffffffff1673ffffffffffffffffffffffffffffffffffffffff1681526020016001820160149054906101000a900460ff16151515158152505090506000610b2460405180606001604052808981526020018863ffffffff16815260200187815250612156565b905080826000015114610b3c57600092505050610b9a565b8373ffffffffffffffffffffffffffffffffffffffff16826020015173ffffffffffffffffffffffffffffffffffffffff1614610b7e57600092505050610b9a565b816040015115610b9357600092505050610b9a565b6001925050505b95945050505050565b600090565b60606000825167ffffffffffffffff811115610bc757610bc6614181565b5b604051908082528060200260200182016040528015610c0057816020015b610bed613ce5565b815260200190600190039081610be55790505b50905060005b8351811015610cff576009600001848281518110610c2757610c26614db3565b5b602002602001015181548110610c4057610c3f614db3565b5b9060005260206000209060020201604051806060016040529081600082015481526020016001820160009054906101000a900473ffffffffffffffffffffffffffffffffffffffff1673ffffffffffffffffffffffffffffffffffffffff1673ffffffffffffffffffffffffffffffffffffffff1681526020016001820160149054906101000a900460ff161515151581525050828281518110610ce757610ce6614db3565b5b60200260200101819052508080600101915050610c06565b5080915050919050565b600080610d14612196565b905080600001600084815260200190815260200160002060010154915050919050565b60008103610d71576040517f94fe88d900000000000000000000000000000000000000000000000000000000815260040160405180910390fd5b8373ffffffffffffffffffffffffffffffffffffffff1663f242432a610d95611e88565b308585604051806020016040528060008152506040518663ffffffff1660e01b8152600401610dc8959493929190614e46565b600060405180830381600087803b158015610de257600080fd5b505af1158015610df6573d6000803e3d6000fd5b505050506000610e08600386856121be565b9050610e1d610e15611e88565b8583856121f9565b5050505050565b610e2d82610d09565b610e368161232b565b610e40838361233f565b50505050565b610e4e611e88565b73ffffffffffffffffffffffffffffffffffffffff168173ffffffffffffffffffffffffffffffffffffffff1614610eb2576040517f6697b23200000000000000000000000000000000000000000000000000000000815260040160405180910390fd5b610ebc8282612440565b505050565b60008060006003811115610ed857610ed7614b74565b5b856003811115610eeb57610eea614b74565b5b03610efd5760016000915091506110e5565b600073ffffffffffffffffffffffffffffffffffffffff168473ffffffffffffffffffffffffffffffffffffffff1603610f63576040517fdc2e5e8d00000000000000000000000000000000000000000000000000000000815260040160405180910390fd5b60016003811115610f7757610f76614b74565b5b856003811115610f8a57610f89614b74565b5b03611000576000600160008673ffffffffffffffffffffffffffffffffffffffff1673ffffffffffffffffffffffffffffffffffffffff16815260200190815260200160002060009054906101000a900463ffffffff16905060008163ffffffff1614610ffe5760018192509250506110e5565b505b6002600381111561101457611013614b74565b5b85600381111561102757611026614b74565b5b1480611056575060038081111561104157611040614b74565b5b85600381111561105457611053614b74565b5b145b156110dd576000600260008673ffffffffffffffffffffffffffffffffffffffff1673ffffffffffffffffffffffffffffffffffffffff168152602001908152602001600020600085815260200190815260200160002060009054906101000a900463ffffffff16905060008163ffffffff16146110db5760018192509250506110e5565b505b600080915091505b935093915050565b6110f5612542565b6110fe82612628565b6111088282612639565b5050565b6000611116612758565b7f360894a13ba1a3210667c828492db98dca3e2076cc3735a920a3ca505d382bbc60001b905090565b7fe5002bd16ffc71462a6c1c19eaf55e254c97864c770378b6f68c1a085231514a6111698161232b565b6000611181858560096127df9092919063ffffffff16565b9050600063f03efa3760e01b86836040516024016111a0929190614f4f565b604051602081830303815290604052907bffffffffffffffffffffffffffffffffffffffffffffffffffffffff19166020820180517bffffffffffffffffffffffffffffffffffffffffffffffffffffffff83818316178352505050509050600360009054906101000a900473ffffffffffffffffffffffffffffffffffffffff1673ffffffffffffffffffffffffffffffffffffffff16635f7b157734600560009054906101000a900473ffffffffffffffffffffffffffffffffffffffff166000858961126d611e88565b6040518763ffffffff1660e01b815260040161128d959493929190614fc4565b6000604051808303818588803b1580156112a657600080fd5b505af11580156112ba573d6000803e3d6000fd5b5050505050857f2f41e147f23b2fb60bd8f0c0f016c37b7eeff712415ba8c2d60f846be3b098e68686846040516112f3939291906150cd565b60405180910390a2505050505050565b600060016009600101546113179190615141565b905090565b818160006009600001838154811061133757611336614db3565b5b9060005260206000209060020201604051806060016040529081600082015481526020016001820160009054906101000a900473ffffffffffffffffffffffffffffffffffffffff1673ffffffffffffffffffffffffffffffffffffffff1673ffffffffffffffffffffffffffffffffffffffff1681526020016001820160149054906101000a900460ff16151515158152505090506113d5611e88565b73ffffffffffffffffffffffffffffffffffffffff16816020015173ffffffffffffffffffffffffffffffffffffffff161461143d576040517f8b2ea0f800000000000000000000000000000000000000000000000000000000815260040160405180910390fd5b600061144883612156565b905080826000015114611498578160000151816040517f7be225b600000000000000000000000000000000000000000000000000000000815260040161148f929190615175565b60405180910390fd5b6114a0611303565b84116114e25781604001516114e1576040517f643710d400000000000000000000000000000000000000000000000000000000815260040160405180910390fd5b5b60006114f8876009612ba890919063ffffffff16565b905060006115098760200151611c78565b905061152c8160000151826020015184602001518a604001518560400151612ccc565b877f0c1c0787650562778c282502dfd6dcea2fb79d23783920aa18aee36b4aa3dc4860405160405180910390a25050505050505050565b60005b828290508110156116a457600083838381811061158657611585614db3565b5b90506080020180360381019061159c9190615216565b905060006115a982612ecc565b9050600060076000838152602001908152602001600020540361160357806040517f60737bc00000000000000000000000000000000000000000000000000000000081526004016115fa9190613fea565b60405180910390fd5b60006116128360200151611c78565b9050600760008381526020019081526020016000206000905561164c81600001518260200151856000015186604001518560400151612ccc565b81836000015173ffffffffffffffffffffffffffffffffffffffff167f0575467d13f5ab9174f470cec96623374b05cf4b19a3c83a4bfca523e243ab0460405160405180910390a35050508080600101915050611566565b505050565b600081036116e3576040517f94fe88d900000000000000000000000000000000000000000000000000000000815260040160405180910390fd5b6117176116ee611e88565b30838673ffffffffffffffffffffffffffffffffffffffff16612f12909392919063ffffffff16565b600061172660018560006121be565b905061173b611733611e88565b8483856121f9565b50505050565b60008061174c612196565b905080600001600085815260200190815260200160002060000160008473ffffffffffffffffffffffffffffffffffffffff1673ffffffffffffffffffffffffffffffffffffffff16815260200190815260200160002060009054906101000a900460ff1691505092915050565b6000600960000182815481106117d3576117d2614db3565b5b9060005260206000209060020201600001549050919050565b8273ffffffffffffffffffffffffffffffffffffffff166323b872dd611810611e88565b30846040518463ffffffff1660e01b815260040161183093929190615243565b600060405180830381600087803b15801561184a57600080fd5b505af115801561185e573d6000803e3d6000fd5b505050506000611870600285846121be565b905061188661187d611e88565b848360016121f9565b50505050565b6000801b81565b6040518060400160405280600581526020017f352e302e3000000000000000000000000000000000000000000000000000000081525081565b60006118d6612f94565b905060008160000160089054906101000a900460ff1615905060008260000160009054906101000a900467ffffffffffffffff1690506000808267ffffffffffffffff161480156119245750825b9050600060018367ffffffffffffffff16148015611959575060003073ffffffffffffffffffffffffffffffffffffffff163b145b905081158015611967575080155b1561199e576040517ff92ee8a900000000000000000000000000000000000000000000000000000000815260040160405180910390fd5b60018560000160006101000a81548167ffffffffffffffff021916908367ffffffffffffffff16021790555083156119ee5760018560000160086101000a81548160ff0219169083151502179055505b611a026000801b6119fd611e88565b61233f565b50611a2d7fe5002bd16ffc71462a6c1c19eaf55e254c97864c770378b6f68c1a085231514a8961233f565b50611a36612fbc565b611a3e612fc6565b611a4786612fd0565b611a51600961302b565b8a600360006101000a81548173ffffffffffffffffffffffffffffffffffffffff021916908373ffffffffffffffffffffffffffffffffffffffff16021790555086600460006101000a81548173ffffffffffffffffffffffffffffffffffffffff021916908373ffffffffffffffffffffffffffffffffffffffff16021790555089600560006101000a81548173ffffffffffffffffffffffffffffffffffffffff021916908373ffffffffffffffffffffffffffffffffffffffff16021790555088600660006101000a81548173ffffffffffffffffffffffffffffffffffffffff021916908373ffffffffffffffffffffffffffffffffffffffff1602179055508315611bb15760008560000160086101000a81548160ff0219169083151502179055507fc7f505b2f371ae2175ee4913f4499e1f2633a7b5936321eed1cdaeb6115181d26001604051611ba891906152c9565b60405180910390a15b5050505050505050505050565b611bc6613ce5565b60096000018281548110611bdd57611bdc614db3565b5b9060005260206000209060020201604051806060016040529081600082015481526020016001820160009054906101000a900473ffffffffffffffffffffffffffffffffffffffff1673ffffffffffffffffffffffffffffffffffffffff1673ffffffffffffffffffffffffffffffffffffffff1681526020016001820160149054906101000a900460ff1615151515815250509050919050565b611c80613d21565b60008263ffffffff1681548110611c9a57611c99614db3565b5b90600052602060002090600202016040518060600160405290816000820160009054906101000a900460ff166003811115611cd857611cd7614b74565b5b6003811115611cea57611ce9614b74565b5b81526020016000820160019054906101000a900473ffffffffffffffffffffffffffffffffffffffff1673ffffffffffffffffffffffffffffffffffffffff1673ffffffffffffffffffffffffffffffffffffffff1681526020016001820154815250509050919050565b611d5e82610d09565b611d678161232b565b611d718383612440565b50505050565b60006001600960000180549050611d8e9190615141565b905090565b60076020528060005260406000206000915090505481565b600063f23a6e6160e01b90509695505050505050565b60003403611dfb576040517f94fe88d900000000000000000000000000000000000000000000000000000000815260040160405180910390fd5b6000611e05610ba3565b9050611e1a611e12611e88565b8383346121f9565b5050565b60007f01ffc9a7000000000000000000000000000000000000000000000000000000007bffffffffffffffffffffffffffffffffffffffffffffffffffffffff1916827bffffffffffffffffffffffffffffffffffffffffffffffffffffffff1916149050919050565b600033905090565b60005b82829050811015611edc57611ecf838383818110611eb457611eb3614db3565b5b905060800201803603810190611eca9190615216565b613110565b8080600101915050611e93565b506000828290501115611fcb57827f6d89692e6d34d23438c6aee95e29bb1a47404cb2868acb8a3041d16dceadff1860405160405180910390a2600460009054906101000a900473ffffffffffffffffffffffffffffffffffffffff1673ffffffffffffffffffffffffffffffffffffffff1663f099f9f57ff00e60aabbc167f41684e8d81677229edbc0f1876ae2c1ded0a60367465292ab32858590506040518463ffffffff1660e01b8152600401611f98939291906152e4565b600060405180830381600087803b158015611fb257600080fd5b505af1158015611fc6573d6000803e3d6000fd5b505050505b505050565b60005b82829050811015612062574260076000858585818110611ff657611ff5614db3565b5b9050602002013581526020019081526020016000208190555082828281811061202257612021614db3565b5b905060200201357fd63a18c6858559d79659151118b33c6ad7cf4f7735b64fe9dbd85c509e11a11760405160405180910390a28080600101915050611fd3565b50600082829050111561215157827fc822ed466f0466d78c7d829b38f3d4f38f64b1f07363274ac66dde2ed8d833e760405160405180910390a2600460009054906101000a900473ffffffffffffffffffffffffffffffffffffffff1673ffffffffffffffffffffffffffffffffffffffff1663f099f9f57f25146e2fbfab3f988e64e94788d256b87c4fa8691f43ec409c49b57436cb7ee632858590506040518463ffffffff1660e01b815260040161211e939291906152e4565b600060405180830381600087803b15801561213857600080fd5b505af115801561214c573d6000803e3d6000fd5b505050505b505050565b600081600001518260200151836040015160405160200161217993929190615393565b604051602081830303815290604052805190602001209050919050565b60007f02dd7bc7dec4dceedda775e58dd541e08a116c6c53815c0bd028192f7b626800905090565b60008060006121ce868686610ec1565b9150915081156121e25780925050506121f2565b6121ed86868661332c565b925050505b9392505050565b600061222460405180606001604052808681526020018563ffffffff16815260200184815250612156565b90506008600082815260200190815260200160002060009054906101000a900460ff161561228957806040517fbff0e9e70000000000000000000000000000000000000000000000000000000081526004016122809190613fea565b60405180910390fd5b60016008600083815260200190815260200160002060006101000a81548160ff02191690831515021790555060006122cd8287600961362f9092919063ffffffff16565b9050848673ffffffffffffffffffffffffffffffffffffffff16827f1e88950eef3c1bd8dd83d765aec1f21f34ca153104f0acd7a6218bf8f48e841087874260405161231b939291906153d0565b60405180910390a4505050505050565b61233c81612337611e88565b613716565b50565b60008061234a612196565b90506123568484611741565b61243457600181600001600086815260200190815260200160002060000160008573ffffffffffffffffffffffffffffffffffffffff1673ffffffffffffffffffffffffffffffffffffffff16815260200190815260200160002060006101000a81548160ff0219169083151502179055506123d0611e88565b73ffffffffffffffffffffffffffffffffffffffff168373ffffffffffffffffffffffffffffffffffffffff16857f2f8788117e7eff1d82e926ec794901d17c78024a50270940304540a733656f0d60405160405180910390a4600191505061243a565b60009150505b92915050565b60008061244b612196565b90506124578484611741565b1561253657600081600001600086815260200190815260200160002060000160008573ffffffffffffffffffffffffffffffffffffffff1673ffffffffffffffffffffffffffffffffffffffff16815260200190815260200160002060006101000a81548160ff0219169083151502179055506124d2611e88565b73ffffffffffffffffffffffffffffffffffffffff168373ffffffffffffffffffffffffffffffffffffffff16857ff6391f5c32d9c69d2a47ea670b442974b53935d1edc7fd64eb21e047a839171b60405160405180910390a4600191505061253c565b60009150505b92915050565b7f000000000000000000000000000000000000000000000000000000000000000073ffffffffffffffffffffffffffffffffffffffff163073ffffffffffffffffffffffffffffffffffffffff1614806125ef57507f000000000000000000000000000000000000000000000000000000000000000073ffffffffffffffffffffffffffffffffffffffff166125d6613767565b73ffffffffffffffffffffffffffffffffffffffff1614155b15612626576040517fe07c8dba00000000000000000000000000000000000000000000000000000000815260040160405180910390fd5b565b6000801b6126358161232b565b5050565b8173ffffffffffffffffffffffffffffffffffffffff166352d1902d6040518163ffffffff1660e01b8152600401602060405180830381865afa9250505080156126a157506040513d601f19601f8201168201806040525081019061269e919061541c565b60015b6126e257816040517f4c9c8ce30000000000000000000000000000000000000000000000000000000081526004016126d99190615449565b60405180910390fd5b7f360894a13ba1a3210667c828492db98dca3e2076cc3735a920a3ca505d382bbc60001b811461274957806040517faa1d49a40000000000000000000000000000000000000000000000000000000081526004016127409190613fea565b60405180910390fd5b61275383836137be565b505050565b7f000000000000000000000000000000000000000000000000000000000000000073ffffffffffffffffffffffffffffffffffffffff163073ffffffffffffffffffffffffffffffffffffffff16146127dd576040517fe07c8dba00000000000000000000000000000000000000000000000000000000815260040160405180910390fd5b565b60606000846001015490508460000180549050841015806127ff57508084105b156128585783816001876000018054905061281a9190615141565b6040517f3b40553600000000000000000000000000000000000000000000000000000000815260040161284f93929190615464565b60405180910390fd5b60005b835181101561292457600084828151811061287957612878614db3565b5b602002602001015190508581118061289057508281105b156128d6578083876040517f9e16c3b90000000000000000000000000000000000000000000000000000000081526004016128cd93929190615464565b60405180910390fd5b60018760000182815481106128ee576128ed614db3565b5b906000526020600020906002020160010160146101000a81548160ff02191690831515021790555050808060010191505061285b565b506000808290505b858111612a0a57600073ffffffffffffffffffffffffffffffffffffffff1687600001828154811061296157612960614db3565b5b906000526020600020906002020160010160009054906101000a900473ffffffffffffffffffffffffffffffffffffffff1673ffffffffffffffffffffffffffffffffffffffff1603156129f7578660000181815481106129c5576129c4614db3565b5b906000526020600020906002020160010160149054906101000a900460ff166129f75781806129f39061549b565b9250505b8080612a029061549b565b91505061292c565b5060008167ffffffffffffffff811115612a2757612a26614181565b5b604051908082528060200260200182016040528015612a555781602001602082028036833780820191505090505b5090506000808490505b878111612b8457600073ffffffffffffffffffffffffffffffffffffffff16896000018281548110612a9457612a93614db3565b5b906000526020600020906002020160010160009054906101000a900473ffffffffffffffffffffffffffffffffffffffff1673ffffffffffffffffffffffffffffffffffffffff160315612b7157886000018181548110612af857612af7614db3565b5b906000526020600020906002020160010160149054906101000a900460ff16612b7157886000018181548110612b3157612b30614db3565b5b906000526020600020906002020160000154838381518110612b5657612b55614db3565b5b6020026020010181815250508180612b6d9061549b565b9250505b8080612b7c9061549b565b915050612a5f565b50600187612b9291906154e3565b8860010181905550819450505050509392505050565b612bb0613ce5565b826000018281548110612bc657612bc5614db3565b5b9060005260206000209060020201604051806060016040529081600082015481526020016001820160009054906101000a900473ffffffffffffffffffffffffffffffffffffffff1673ffffffffffffffffffffffffffffffffffffffff1673ffffffffffffffffffffffffffffffffffffffff1681526020016001820160149054906101000a900460ff1615151515815250509050826000018281548110612c7257612c71614db3565b5b90600052602060002090600202016000808201600090556001820160006101000a81549073ffffffffffffffffffffffffffffffffffffffff02191690556001820160146101000a81549060ff0219169055505092915050565b60006003811115612ce057612cdf614b74565b5b856003811115612cf357612cf2614b74565b5b03612d44578273ffffffffffffffffffffffffffffffffffffffff166108fc839081150290604051600060405180830381858888f19350505050158015612d3e573d6000803e3d6000fd5b50612ec5565b60016003811115612d5857612d57614b74565b5b856003811115612d6b57612d6a614b74565b5b03612da057612d9b83838673ffffffffffffffffffffffffffffffffffffffff166138319092919063ffffffff16565b612ec4565b60026003811115612db457612db3614b74565b5b856003811115612dc757612dc6614b74565b5b03612e40578373ffffffffffffffffffffffffffffffffffffffff166323b872dd3085846040518463ffffffff1660e01b8152600401612e0993929190615243565b600060405180830381600087803b158015612e2357600080fd5b505af1158015612e37573d6000803e3d6000fd5b50505050612ec3565b8373ffffffffffffffffffffffffffffffffffffffff1663f242432a30858486604051806020016040528060008152506040518663ffffffff1660e01b8152600401612e90959493929190614e46565b600060405180830381600087803b158015612eaa57600080fd5b505af1158015612ebe573d6000803e3d6000fd5b505050505b5b5b5050505050565b60008160000151826020015183604001518460600151604051602001612ef5949392919061555f565b604051602081830303815290604052805190602001209050919050565b612f8e848573ffffffffffffffffffffffffffffffffffffffff166323b872dd868686604051602401612f4793929190615243565b604051602081830303815290604052915060e01b6020820180517bffffffffffffffffffffffffffffffffffffffffffffffffffffffff83818316178352505050506138b0565b50505050565b60007ff0c57e16840df040f15088dc2f81fe391c3923bec73e23a9662efc9c229c6a00905090565b612fc4613952565b565b612fce613952565b565b612fd8613952565b612fe5600080600061332c565b5060005b815181101561302757613019600183838151811061300a57613009614db3565b5b6020026020010151600061332c565b508080600101915050612fe9565b5050565b8060000160405180606001604052806000801b8152602001600073ffffffffffffffffffffffffffffffffffffffff1681526020016000151581525090806001815401808255809150506001900390600052602060002090600202016000909190919091506000820151816000015560208201518160010160006101000a81548173ffffffffffffffffffffffffffffffffffffffff021916908373ffffffffffffffffffffffffffffffffffffffff16021790555060408201518160010160146101000a81548160ff02191690831515021790555050506001816001018190555050565b600061311f8260200151611c78565b90506000600190506000600381111561313b5761313a614b74565b5b8260000151600381111561315257613151614b74565b5b036131a1576000836000015173ffffffffffffffffffffffffffffffffffffffff166108fc85604001519081150290604051600060405180830381858888f19350505050905080915050613296565b600160038111156131b5576131b4614b74565b5b826000015160038111156131cc576131cb614b74565b5b0361329057600082602001515063a9059cbb60e01b846000015185604001516040516024016131fc9291906155ad565b604051602081830303815290604052907bffffffffffffffffffffffffffffffffffffffffffffffffffffffff19166020820180517bffffffffffffffffffffffffffffffffffffffffffffffffffffffff8381831617835250505050905061328881846020015173ffffffffffffffffffffffffffffffffffffffff1661399290919063ffffffff16565b915050613295565b600090505b5b806133275760006132a684612ecc565b9050426007600083815260200190815260200160002081905550807f8ce8bbdabe2ee16dd931b3f10c29bf34ea5c7130f483ff81aa5fdcfa8a10135c856040516132f0919061563a565b60405180910390a2807fd63a18c6858559d79659151118b33c6ad7cf4f7735b64fe9dbd85c509e11a11760405160405180910390a2505b505050565b60008060008054905090506000604051806060016040528087600381111561335757613356614b74565b5b81526020018673ffffffffffffffffffffffffffffffffffffffff16815260200185815250908060018154018082558091505060019003906000526020600020906002020160009091909190915060008201518160000160006101000a81548160ff021916908360038111156133d0576133cf614b74565b5b021790555060208201518160000160016101000a81548173ffffffffffffffffffffffffffffffffffffffff021916908373ffffffffffffffffffffffffffffffffffffffff1602179055506040820151816001015550506000600381111561343c5761343b614b74565b5b85600381111561344f5761344e614b74565b5b036134bb5780600160008073ffffffffffffffffffffffffffffffffffffffff1673ffffffffffffffffffffffffffffffffffffffff16815260200190815260200160002060006101000a81548163ffffffff021916908363ffffffff16021790555080915050613628565b600073ffffffffffffffffffffffffffffffffffffffff168473ffffffffffffffffffffffffffffffffffffffff1603613521576040517fdc2e5e8d00000000000000000000000000000000000000000000000000000000815260040160405180910390fd5b6001600381111561353557613534614b74565b5b85600381111561354857613547614b74565b5b036135b45780600160008673ffffffffffffffffffffffffffffffffffffffff1673ffffffffffffffffffffffffffffffffffffffff16815260200190815260200160002060006101000a81548163ffffffff021916908363ffffffff16021790555080915050613628565b80600260008673ffffffffffffffffffffffffffffffffffffffff1673ffffffffffffffffffffffffffffffffffffffff168152602001908152602001600020600085815260200190815260200160002060006101000a81548163ffffffff021916908363ffffffff160217905550809150505b9392505050565b6000836000018054905090508360000160405180606001604052808581526020018473ffffffffffffffffffffffffffffffffffffffff1681526020016000151581525090806001815401808255809150506001900390600052602060002090600202016000909190919091506000820151816000015560208201518160010160006101000a81548173ffffffffffffffffffffffffffffffffffffffff021916908373ffffffffffffffffffffffffffffffffffffffff16021790555060408201518160010160146101000a81548160ff02191690831515021790555050509392505050565b6137208282611741565b6137635780826040517fe2517d3f00000000000000000000000000000000000000000000000000000000815260040161375a929190615655565b60405180910390fd5b5050565b60006137957f360894a13ba1a3210667c828492db98dca3e2076cc3735a920a3ca505d382bbc60001b613a59565b60000160009054906101000a900473ffffffffffffffffffffffffffffffffffffffff16905090565b6137c782613a63565b8173ffffffffffffffffffffffffffffffffffffffff167fbc7cd75a20ee27fd9adebab32041f755214dbc6bffa90cc0225b39da2e5c2d3b60405160405180910390a26000815111156138245761381e8282613b30565b5061382d565b61382c613bb4565b5b5050565b6138ab838473ffffffffffffffffffffffffffffffffffffffff1663a9059cbb85856040516024016138649291906155ad565b604051602081830303815290604052915060e01b6020820180517bffffffffffffffffffffffffffffffffffffffffffffffffffffffff83818316178352505050506138b0565b505050565b600080602060008451602086016000885af1806138d3576040513d6000823e3d81fd5b3d9250600051915050600082146138ee57600181141561390a565b60008473ffffffffffffffffffffffffffffffffffffffff163b145b1561394c57836040517f5274afe70000000000000000000000000000000000000000000000000000000081526004016139439190615449565b60405180910390fd5b50505050565b61395a613bf1565b613990576040517fd7e6bcf800000000000000000000000000000000000000000000000000000000815260040160405180910390fd5b565b60008060008473ffffffffffffffffffffffffffffffffffffffff16846040516139bc91906156ba565b6000604051808303816000865af19150503d80600081146139f9576040519150601f19603f3d011682016040523d82523d6000602084013e6139fe565b606091505b5091509150818015613a2c5750600081511480613a2b575080806020019051810190613a2a91906156fd565b5b5b8015613a4f575060008573ffffffffffffffffffffffffffffffffffffffff163b115b9250505092915050565b6000819050919050565b60008173ffffffffffffffffffffffffffffffffffffffff163b03613abf57806040517f4c9c8ce3000000000000000000000000000000000000000000000000000000008152600401613ab69190615449565b60405180910390fd5b80613aec7f360894a13ba1a3210667c828492db98dca3e2076cc3735a920a3ca505d382bbc60001b613a59565b60000160006101000a81548173ffffffffffffffffffffffffffffffffffffffff021916908373ffffffffffffffffffffffffffffffffffffffff16021790555050565b60606000808473ffffffffffffffffffffffffffffffffffffffff1684604051613b5a91906156ba565b600060405180830381855af49150503d8060008114613b95576040519150601f19603f3d011682016040523d82523d6000602084013e613b9a565b606091505b5091509150613baa858383613c11565b9250505092915050565b6000341115613bef576040517fb398979f00000000000000000000000000000000000000000000000000000000815260040160405180910390fd5b565b6000613bfb612f94565b60000160089054906101000a900460ff16905090565b606082613c2657613c2182613ca0565b613c98565b60008251148015613c4e575060008473ffffffffffffffffffffffffffffffffffffffff163b145b15613c9057836040517f9996b315000000000000000000000000000000000000000000000000000000008152600401613c879190615449565b60405180910390fd5b819050613c99565b5b9392505050565b600081511115613cb35780518082602001fd5b6040517fd6bda27500000000000000000000000000000000000000000000000000000000815260040160405180910390fd5b604051806060016040528060008019168152602001600073ffffffffffffffffffffffffffffffffffffffff1681526020016000151581525090565b604051806060016040528060006003811115613d4057613d3f614b74565b5b8152602001600073ffffffffffffffffffffffffffffffffffffffff168152602001600081525090565b6000604051905090565b600080fd5b600080fd5b60007fffffffff0000000000000000000000000000000000000000000000000000000082169050919050565b613db381613d7e565b8114613dbe57600080fd5b50565b600081359050613dd081613daa565b92915050565b600060208284031215613dec57613deb613d74565b5b6000613dfa84828501613dc1565b91505092915050565b60008115159050919050565b613e1881613e03565b82525050565b6000602082019050613e336000830184613e0f565b92915050565b6000819050919050565b613e4c81613e39565b8114613e5757600080fd5b50565b600081359050613e6981613e43565b92915050565b600080fd5b600080fd5b600080fd5b60008083601f840112613e9457613e93613e6f565b5b8235905067ffffffffffffffff811115613eb157613eb0613e74565b5b602083019150836080820283011115613ecd57613ecc613e79565b5b9250929050565b60008083601f840112613eea57613ee9613e6f565b5b8235905067ffffffffffffffff811115613f0757613f06613e74565b5b602083019150836020820283011115613f2357613f22613e79565b5b9250929050565b60008060008060008060808789031215613f4757613f46613d74565b5b6000613f5589828a01613e5a565b965050602087013567ffffffffffffffff811115613f7657613f75613d79565b5b613f8289828a01613e7e565b95509550506040613f9589828a01613e5a565b935050606087013567ffffffffffffffff811115613fb657613fb5613d79565b5b613fc289828a01613ed4565b92509250509295509295509295565b6000819050919050565b613fe481613fd1565b82525050565b6000602082019050613fff6000830184613fdb565b92915050565b61400e81613fd1565b811461401957600080fd5b50565b60008135905061402b81614005565b92915050565b600063ffffffff82169050919050565b61404a81614031565b811461405557600080fd5b50565b60008135905061406781614041565b92915050565b600073ffffffffffffffffffffffffffffffffffffffff82169050919050565b60006140988261406d565b9050919050565b6140a88161408d565b81146140b357600080fd5b50565b6000813590506140c58161409f565b92915050565b600080600080600060a086880312156140e7576140e6613d74565b5b60006140f588828901613e5a565b95505060206141068882890161401c565b945050604061411788828901614058565b935050606061412888828901613e5a565b9250506080614139888289016140b6565b9150509295509295909350565b61414f81614031565b82525050565b600060208201905061416a6000830184614146565b92915050565b6000601f19601f8301169050919050565b7f4e487b7100000000000000000000000000000000000000000000000000000000600052604160045260246000fd5b6141b982614170565b810181811067ffffffffffffffff821117156141d8576141d7614181565b5b80604052505050565b60006141eb613d6a565b90506141f782826141b0565b919050565b600067ffffffffffffffff82111561421757614216614181565b5b602082029050602081019050919050565b600061423b614236846141fc565b6141e1565b9050808382526020820190506020840283018581111561425e5761425d613e79565b5b835b8181101561428757806142738882613e5a565b845260208401935050602081019050614260565b5050509392505050565b600082601f8301126142a6576142a5613e6f565b5b81356142b6848260208601614228565b91505092915050565b6000602082840312156142d5576142d4613d74565b5b600082013567ffffffffffffffff8111156142f3576142f2613d79565b5b6142ff84828501614291565b91505092915050565b600081519050919050565b600082825260208201905092915050565b6000819050602082019050919050565b61433d81613fd1565b82525050565b61434c8161408d565b82525050565b61435b81613e03565b82525050565b6060820160008201516143776000850182614334565b50602082015161438a6020850182614343565b50604082015161439d6040850182614352565b50505050565b60006143af8383614361565b60608301905092915050565b6000602082019050919050565b60006143d382614308565b6143dd8185614313565b93506143e883614324565b8060005b8381101561441957815161440088826143a3565b975061440b836143bb565b9250506001810190506143ec565b5085935050505092915050565b6000602082019050818103600083015261444081846143c8565b905092915050565b60006020828403121561445e5761445d613d74565b5b600061446c8482850161401c565b91505092915050565b6000806000806080858703121561448f5761448e613d74565b5b600061449d878288016140b6565b94505060206144ae8782880161401c565b93505060406144bf87828801613e5a565b92505060606144d087828801613e5a565b91505092959194509250565b600080604083850312156144f3576144f2613d74565b5b60006145018582860161401c565b9250506020614512858286016140b6565b9150509250929050565b6004811061452957600080fd5b50565b60008135905061453b8161451c565b92915050565b60008060006060848603121561455a57614559613d74565b5b60006145688682870161452c565b9350506020614579868287016140b6565b925050604061458a86828701613e5a565b9150509250925092565b60006040820190506145a96000830185613e0f565b6145b66020830184614146565b9392505050565b600080fd5b600067ffffffffffffffff8211156145dd576145dc614181565b5b6145e682614170565b9050602081019050919050565b82818337600083830152505050565b6000614615614610846145c2565b6141e1565b905082815260208101848484011115614631576146306145bd565b5b61463c8482856145f3565b509392505050565b600082601f83011261465957614658613e6f565b5b8135614669848260208601614602565b91505092915050565b6000806040838503121561468957614688613d74565b5b6000614697858286016140b6565b925050602083013567ffffffffffffffff8111156146b8576146b7613d79565b5b6146c485828601614644565b9150509250929050565b6000806000606084860312156146e7576146e6613d74565b5b60006146f586828701613e5a565b935050602084013567ffffffffffffffff81111561471657614715613d79565b5b61472286828701614291565b925050604061473386828701613e5a565b9150509250925092565b61474681613e39565b82525050565b6000602082019050614761600083018461473d565b92915050565b600080fd5b60006060828403121561478257614781614767565b5b61478c60606141e1565b9050600061479c8482850161401c565b60008301525060206147b084828501614058565b60208301525060406147c484828501613e5a565b60408301525092915050565b600080608083850312156147e7576147e6613d74565b5b60006147f585828601613e5a565b92505060206148068582860161476c565b9150509250929050565b6000806020838503121561482757614826613d74565b5b600083013567ffffffffffffffff81111561484557614844613d79565b5b61485185828601613e7e565b92509250509250929050565b60008060006060848603121561487657614875613d74565b5b6000614884868287016140b6565b93505060206148958682870161401c565b92505060406148a686828701613e5a565b9150509250925092565b6000602082840312156148c6576148c5613d74565b5b60006148d484828501613e5a565b91505092915050565b600081519050919050565b600082825260208201905092915050565b60005b838110156149175780820151818401526020810190506148fc565b60008484015250505050565b600061492e826148dd565b61493881856148e8565b93506149488185602086016148f9565b61495181614170565b840191505092915050565b600060208201905081810360008301526149768184614923565b905092915050565b600067ffffffffffffffff82111561499957614998614181565b5b602082029050602081019050919050565b60006149bd6149b88461497e565b6141e1565b905080838252602082019050602084028301858111156149e0576149df613e79565b5b835b81811015614a0957806149f588826140b6565b8452602084019350506020810190506149e2565b5050509392505050565b600082601f830112614a2857614a27613e6f565b5b8135614a388482602086016149aa565b91505092915050565b60008060008060008060c08789031215614a5e57614a5d613d74565b5b6000614a6c89828a016140b6565b9650506020614a7d89828a016140b6565b9550506040614a8e89828a016140b6565b9450506060614a9f89828a016140b6565b9350506080614ab089828a016140b6565b92505060a087013567ffffffffffffffff811115614ad157614ad0613d79565b5b614add89828a01614a13565b9150509295509295509295565b606082016000820151614b006000850182614334565b506020820151614b136020850182614343565b506040820151614b266040850182614352565b50505050565b6000606082019050614b416000830184614aea565b92915050565b600060208284031215614b5d57614b5c613d74565b5b6000614b6b84828501614058565b91505092915050565b7f4e487b7100000000000000000000000000000000000000000000000000000000600052602160045260246000fd5b60048110614bb457614bb3614b74565b5b50565b6000819050614bc582614ba3565b919050565b6000614bd582614bb7565b9050919050565b614be581614bca565b82525050565b614bf481613e39565b82525050565b606082016000820151614c106000850182614bdc565b506020820151614c236020850182614343565b506040820151614c366040850182614beb565b50505050565b6000606082019050614c516000830184614bfa565b92915050565b60008083601f840112614c6d57614c6c613e6f565b5b8235905067ffffffffffffffff811115614c8a57614c89613e74565b5b602083019150836001820283011115614ca657614ca5613e79565b5b9250929050565b60008060008060008060a08789031215614cca57614cc9613d74565b5b6000614cd889828a016140b6565b9650506020614ce989828a016140b6565b9550506040614cfa89828a01613e5a565b9450506060614d0b89828a01613e5a565b935050608087013567ffffffffffffffff811115614d2c57614d2b613d79565b5b614d3889828a01614c57565b92509250509295509295509295565b614d5081613d7e565b82525050565b6000602082019050614d6b6000830184614d47565b92915050565b600081519050614d808161409f565b92915050565b600060208284031215614d9c57614d9b613d74565b5b6000614daa84828501614d71565b91505092915050565b7f4e487b7100000000000000000000000000000000000000000000000000000000600052603260045260246000fd5b614deb8161408d565b82525050565b600081519050919050565b600082825260208201905092915050565b6000614e1882614df1565b614e228185614dfc565b9350614e328185602086016148f9565b614e3b81614170565b840191505092915050565b600060a082019050614e5b6000830188614de2565b614e686020830187614de2565b614e75604083018661473d565b614e82606083018561473d565b8181036080830152614e948184614e0d565b90509695505050505050565b600081519050919050565b600082825260208201905092915050565b6000819050602082019050919050565b6000614ed88383614334565b60208301905092915050565b6000602082019050919050565b6000614efc82614ea0565b614f068185614eab565b9350614f1183614ebc565b8060005b83811015614f42578151614f298882614ecc565b9750614f3483614ee4565b925050600181019050614f15565b5085935050505092915050565b6000604082019050614f64600083018561473d565b8181036020830152614f768184614ef1565b90509392505050565b6000819050919050565b6000819050919050565b6000614fae614fa9614fa484614f7f565b614f89565b613e39565b9050919050565b614fbe81614f93565b82525050565b600060a082019050614fd96000830188614de2565b614fe66020830187614fb5565b8181036040830152614ff88186614e0d565b9050615007606083018561473d565b6150146080830184614de2565b9695505050505050565b600081519050919050565b600082825260208201905092915050565b6000819050602082019050919050565b60006150568383614beb565b60208301905092915050565b6000602082019050919050565b600061507a8261501e565b6150848185615029565b935061508f8361503a565b8060005b838110156150c05781516150a7888261504a565b97506150b283615062565b925050600181019050615093565b5085935050505092915050565b600060608201905081810360008301526150e7818661506f565b90506150f6602083018561473d565b81810360408301526151088184614e0d565b9050949350505050565b7f4e487b7100000000000000000000000000000000000000000000000000000000600052601160045260246000fd5b600061514c82613e39565b915061515783613e39565b925082820390508181111561516f5761516e615112565b5b92915050565b600060408201905061518a6000830185613fdb565b6151976020830184613fdb565b9392505050565b6000608082840312156151b4576151b3614767565b5b6151be60806141e1565b905060006151ce848285016140b6565b60008301525060206151e284828501614058565b60208301525060406151f684828501613e5a565b604083015250606061520a84828501613e5a565b60608301525092915050565b60006080828403121561522c5761522b613d74565b5b600061523a8482850161519e565b91505092915050565b60006060820190506152586000830186614de2565b6152656020830185614de2565b615272604083018461473d565b949350505050565b6000819050919050565b600067ffffffffffffffff82169050919050565b60006152b36152ae6152a98461527a565b614f89565b615284565b9050919050565b6152c381615298565b82525050565b60006020820190506152de60008301846152ba565b92915050565b60006060820190506152f96000830186613fdb565b6153066020830185614de2565b615313604083018461473d565b949350505050565b6000819050919050565b61533661533182613fd1565b61531b565b82525050565b60008160e01b9050919050565b60006153548261533c565b9050919050565b61536c61536782614031565b615349565b82525050565b6000819050919050565b61538d61538882613e39565b615372565b82525050565b600061539f8286615325565b6020820191506153af828561535b565b6004820191506153bf828461537c565b602082019150819050949350505050565b60006060820190506153e56000830186614146565b6153f2602083018561473d565b6153ff604083018461473d565b949350505050565b60008151905061541681614005565b92915050565b60006020828403121561543257615431613d74565b5b600061544084828501615407565b91505092915050565b600060208201905061545e6000830184614de2565b92915050565b6000606082019050615479600083018661473d565b615486602083018561473d565b615493604083018461473d565b949350505050565b60006154a682613e39565b91507fffffffffffffffffffffffffffffffffffffffffffffffffffffffffffffffff82036154d8576154d7615112565b5b600182019050919050565b60006154ee82613e39565b91506154f983613e39565b925082820190508082111561551157615510615112565b5b92915050565b60008160601b9050919050565b600061552f82615517565b9050919050565b600061554182615524565b9050919050565b6155596155548261408d565b615536565b82525050565b600061556b8287615548565b60148201915061557b828661535b565b60048201915061558b828561537c565b60208201915061559b828461537c565b60208201915081905095945050505050565b60006040820190506155c26000830185614de2565b6155cf602083018461473d565b9392505050565b6155df81614031565b82525050565b6080820160008201516155fb6000850182614343565b50602082015161560e60208501826155d6565b5060408201516156216040850182614beb565b5060608201516156346060850182614beb565b50505050565b600060808201905061564f60008301846155e5565b92915050565b600060408201905061566a6000830185614de2565b6156776020830184613fdb565b9392505050565b600081905092915050565b600061569482614df1565b61569e818561567e565b93506156ae8185602086016148f9565b80840191505092915050565b60006156c68284615689565b915081905092915050565b6156da81613e03565b81146156e557600080fd5b50565b6000815190506156f7816156d1565b92915050565b60006020828403121561571357615712613d74565b5b6000615721848285016156e8565b9150509291505056fea26469706673582212201c59e1b143785447349d886cd5f3aa42ba8ea988df53b347250ee092ab4e81b564736f6c634300081b0033",
  "linkReferences": {},
  "deployedLinkReferences": {}
}