{
  "_format": "hh-sol-artifact-1",
  "contractName": "Liquidity",
  "sourceName": "contracts/liquidity/Liquidity.sol",
  "abi": [
    {
      "inputs": [],
      "stateMutability": "nonpayable",
      "type": "constructor"
    },
    {
      "inputs": [],
      "name": "AccessControlBadConfirmation",
      "type": "error"
    },
    {
      "inputs": [
        {
          "internalType": "address",
          "name": "account",
          "type": "address"
        },
        {
          "internalType": "bytes32",
          "name": "neededRole",
          "type": "bytes32"
        }
      ],
      "name": "AccessControlUnauthorizedAccount",
      "type": "error"
    },
    {
      "inputs": [
        {
          "internalType": "address",
          "name": "target",
          "type": "address"
        }
      ],
      "name": "AddressEmptyCode",
      "type": "error"
    },
    {
      "inputs": [],
      "name": "AddressZero",
      "type": "error"
    },
    {
      "inputs": [],
      "name": "AlreadyRelayed",
      "type": "error"
    },
    {
      "inputs": [],
      "name": "AmlValidationFailed",
      "type": "error"
    },
    {
      "inputs": [
        {
          "internalType": "uint256",
          "name": "depositAmount",
          "type": "uint256"
        },
        {
          "internalType": "uint256",
          "name": "limit",
          "type": "uint256"
        }
      ],
      "name": "DepositAmountExceedsLimit",
      "type": "error"
    },
    {
      "inputs": [
        {
          "internalType": "bytes32",
          "name": "depositHash",
          "type": "bytes32"
        }
      ],
      "name": "DepositHashAlreadyExists",
      "type": "error"
    },
    {
      "inputs": [
        {
          "internalType": "address",
          "name": "implementation",
          "type": "address"
        }
      ],
      "name": "ERC1967InvalidImplementation",
      "type": "error"
    },
    {
      "inputs": [],
      "name": "ERC1967NonPayable",
      "type": "error"
    },
    {
      "inputs": [],
      "name": "EligibilityValidationFailed",
      "type": "error"
    },
    {
      "inputs": [],
      "name": "EnforcedPause",
      "type": "error"
    },
    {
      "inputs": [],
      "name": "ExpectedPause",
      "type": "error"
    },
    {
      "inputs": [],
      "name": "FailedCall",
      "type": "error"
    },
    {
      "inputs": [
        {
          "internalType": "bytes32",
          "name": "depositDataHash",
          "type": "bytes32"
        },
        {
          "internalType": "bytes32",
          "name": "calculatedHash",
          "type": "bytes32"
        }
      ],
      "name": "InvalidDepositHash",
      "type": "error"
    },
    {
      "inputs": [],
      "name": "InvalidInitialization",
      "type": "error"
    },
    {
      "inputs": [],
      "name": "InvalidWithdrawalAddress",
      "type": "error"
    },
    {
      "inputs": [],
      "name": "NotInitializing",
      "type": "error"
    },
    {
      "inputs": [],
      "name": "OnlySenderCanCancelDeposit",
      "type": "error"
    },
    {
      "inputs": [
        {
          "internalType": "uint256",
          "name": "upToDepositId",
          "type": "uint256"
        },
        {
          "internalType": "uint256",
          "name": "firstDepositId",
          "type": "uint256"
        },
        {
          "internalType": "uint256",
          "name": "lastDepositId",
          "type": "uint256"
        }
      ],
      "name": "OutOfRange",
      "type": "error"
    },
    {
      "inputs": [
        {
          "internalType": "address",
          "name": "token",
          "type": "address"
        }
      ],
      "name": "SafeERC20FailedOperation",
      "type": "error"
    },
    {
      "inputs": [],
      "name": "SenderIsNotScrollMessenger",
      "type": "error"
    },
    {
      "inputs": [],
      "name": "TokenAddressIsZero",
      "type": "error"
    },
    {
      "inputs": [],
      "name": "TriedToDepositZero",
      "type": "error"
    },
    {
      "inputs": [],
      "name": "UUPSUnauthorizedCallContext",
      "type": "error"
    },
    {
      "inputs": [
        {
          "internalType": "bytes32",
          "name": "slot",
          "type": "bytes32"
        }
      ],
      "name": "UUPSUnsupportedProxiableUUID",
      "type": "error"
    },
    {
      "inputs": [],
      "name": "WithdrawalAddressNotSet",
      "type": "error"
    },
    {
      "inputs": [],
      "name": "WithdrawalFeeRatioExceedsLimit",
      "type": "error"
    },
    {
      "inputs": [
        {
          "internalType": "bytes32",
          "name": "withdrawalHash",
          "type": "bytes32"
        }
      ],
      "name": "WithdrawalNotFound",
      "type": "error"
    },
    {
      "anonymous": false,
      "inputs": [
        {
          "indexed": true,
          "internalType": "address",
          "name": "recipient",
          "type": "address"
        },
        {
          "indexed": true,
          "internalType": "bytes32",
          "name": "withdrawalHash",
          "type": "bytes32"
        }
      ],
      "name": "ClaimedWithdrawal",
      "type": "event"
    },
    {
      "anonymous": false,
      "inputs": [
        {
          "indexed": true,
          "internalType": "uint256",
          "name": "depositId",
          "type": "uint256"
        }
      ],
      "name": "DepositCanceled",
      "type": "event"
    },
    {
      "anonymous": false,
      "inputs": [
        {
          "indexed": true,
          "internalType": "uint256",
          "name": "depositId",
          "type": "uint256"
        },
        {
          "indexed": true,
          "internalType": "address",
          "name": "sender",
          "type": "address"
        },
        {
          "indexed": true,
          "internalType": "bytes32",
          "name": "recipientSaltHash",
          "type": "bytes32"
        },
        {
          "indexed": false,
          "internalType": "uint32",
          "name": "tokenIndex",
          "type": "uint32"
        },
        {
          "indexed": false,
          "internalType": "uint256",
          "name": "amount",
          "type": "uint256"
        },
        {
          "indexed": false,
          "internalType": "bool",
          "name": "isEligible",
          "type": "bool"
        },
        {
          "indexed": false,
          "internalType": "uint256",
          "name": "depositedAt",
          "type": "uint256"
        }
      ],
      "name": "Deposited",
      "type": "event"
    },
    {
      "anonymous": false,
      "inputs": [
        {
          "indexed": true,
          "internalType": "uint256",
          "name": "upToDepositId",
          "type": "uint256"
        },
        {
          "indexed": false,
          "internalType": "uint256",
          "name": "gasLimit",
          "type": "uint256"
        },
        {
          "indexed": false,
          "internalType": "bytes",
          "name": "message",
          "type": "bytes"
        }
      ],
      "name": "DepositsRelayed",
      "type": "event"
    },
    {
      "anonymous": false,
      "inputs": [
        {
          "indexed": true,
          "internalType": "bytes32",
          "name": "withdrawalHash",
          "type": "bytes32"
        },
        {
          "components": [
            {
              "internalType": "address",
              "name": "recipient",
              "type": "address"
            },
            {
              "internalType": "uint32",
              "name": "tokenIndex",
              "type": "uint32"
            },
            {
              "internalType": "uint256",
              "name": "amount",
              "type": "uint256"
            },
            {
              "internalType": "bytes32",
              "name": "nullifier",
              "type": "bytes32"
            }
          ],
          "indexed": false,
          "internalType": "struct WithdrawalLib.Withdrawal",
          "name": "withdrawal",
          "type": "tuple"
        }
      ],
      "name": "DirectWithdrawalFailed",
      "type": "event"
    },
    {
      "anonymous": false,
      "inputs": [
        {
          "indexed": true,
          "internalType": "bytes32",
          "name": "withdrawalHash",
          "type": "bytes32"
        },
        {
          "indexed": true,
          "internalType": "address",
          "name": "recipient",
          "type": "address"
        }
      ],
      "name": "DirectWithdrawalSuccessed",
      "type": "event"
    },
    {
      "anonymous": false,
      "inputs": [
        {
          "indexed": false,
          "internalType": "uint64",
          "name": "version",
          "type": "uint64"
        }
      ],
      "name": "Initialized",
      "type": "event"
    },
    {
      "anonymous": false,
      "inputs": [
        {
          "indexed": false,
          "internalType": "address",
          "name": "account",
          "type": "address"
        }
      ],
      "name": "Paused",
      "type": "event"
    },
    {
      "anonymous": false,
      "inputs": [
        {
          "indexed": true,
          "internalType": "address",
          "name": "amlPermitter",
          "type": "address"
        },
        {
          "indexed": true,
          "internalType": "address",
          "name": "eligibilityPermitter",
          "type": "address"
        }
      ],
      "name": "PermitterSet",
      "type": "event"
    },
    {
      "anonymous": false,
      "inputs": [
        {
          "indexed": true,
          "internalType": "bytes32",
          "name": "role",
          "type": "bytes32"
        },
        {
          "indexed": true,
          "internalType": "bytes32",
          "name": "previousAdminRole",
          "type": "bytes32"
        },
        {
          "indexed": true,
          "internalType": "bytes32",
          "name": "newAdminRole",
          "type": "bytes32"
        }
      ],
      "name": "RoleAdminChanged",
      "type": "event"
    },
    {
      "anonymous": false,
      "inputs": [
        {
          "indexed": true,
          "internalType": "bytes32",
          "name": "role",
          "type": "bytes32"
        },
        {
          "indexed": true,
          "internalType": "address",
          "name": "account",
          "type": "address"
        },
        {
          "indexed": true,
          "internalType": "address",
          "name": "sender",
          "type": "address"
        }
      ],
      "name": "RoleGranted",
      "type": "event"
    },
    {
      "anonymous": false,
      "inputs": [
        {
          "indexed": true,
          "internalType": "bytes32",
          "name": "role",
          "type": "bytes32"
        },
        {
          "indexed": true,
          "internalType": "address",
          "name": "account",
          "type": "address"
        },
        {
          "indexed": true,
          "internalType": "address",
          "name": "sender",
          "type": "address"
        }
      ],
      "name": "RoleRevoked",
      "type": "event"
    },
    {
      "anonymous": false,
      "inputs": [
        {
          "indexed": false,
          "internalType": "address",
          "name": "account",
          "type": "address"
        }
      ],
      "name": "Unpaused",
      "type": "event"
    },
    {
      "anonymous": false,
      "inputs": [
        {
          "indexed": true,
          "internalType": "address",
          "name": "implementation",
          "type": "address"
        }
      ],
      "name": "Upgraded",
      "type": "event"
    },
    {
      "anonymous": false,
      "inputs": [
        {
          "indexed": true,
          "internalType": "bytes32",
          "name": "withdrawalHash",
          "type": "bytes32"
        }
      ],
      "name": "WithdrawalClaimable",
      "type": "event"
    },
    {
      "anonymous": false,
      "inputs": [
        {
          "indexed": true,
          "internalType": "uint32",
          "name": "token",
          "type": "uint32"
        },
        {
          "indexed": false,
          "internalType": "uint256",
          "name": "amount",
          "type": "uint256"
        }
      ],
      "name": "WithdrawalFeeCollected",
      "type": "event"
    },
    {
      "anonymous": false,
      "inputs": [
        {
          "indexed": true,
          "internalType": "uint32",
          "name": "tokenIndex",
          "type": "uint32"
        },
        {
          "indexed": false,
          "internalType": "uint256",
          "name": "feeRatio",
          "type": "uint256"
        }
      ],
      "name": "WithdrawalFeeRatioSet",
      "type": "event"
    },
    {
      "anonymous": false,
      "inputs": [
        {
          "indexed": true,
          "internalType": "address",
          "name": "recipient",
          "type": "address"
        },
        {
          "indexed": true,
          "internalType": "uint32",
          "name": "token",
          "type": "uint32"
        },
        {
          "indexed": false,
          "internalType": "uint256",
          "name": "amount",
          "type": "uint256"
        }
      ],
      "name": "WithdrawalFeeWithdrawn",
      "type": "event"
    },
    {
      "inputs": [],
      "name": "DEFAULT_ADMIN_ROLE",
      "outputs": [
        {
          "internalType": "bytes32",
          "name": "",
          "type": "bytes32"
        }
      ],
      "stateMutability": "view",
      "type": "function"
    },
    {
      "inputs": [],
      "name": "RELAYER",
      "outputs": [
        {
          "internalType": "bytes32",
          "name": "",
          "type": "bytes32"
        }
      ],
      "stateMutability": "view",
      "type": "function"
    },
    {
      "inputs": [],
      "name": "UPGRADE_INTERFACE_VERSION",
      "outputs": [
        {
          "internalType": "string",
          "name": "",
          "type": "string"
        }
      ],
      "stateMutability": "view",
      "type": "function"
    },
    {
      "inputs": [],
      "name": "WITHDRAWAL",
      "outputs": [
        {
          "internalType": "bytes32",
          "name": "",
          "type": "bytes32"
        }
      ],
      "stateMutability": "view",
      "type": "function"
    },
    {
      "inputs": [],
      "name": "WITHDRAWAL_FEE_RATIO_LIMIT",
      "outputs": [
        {
          "internalType": "uint256",
          "name": "",
          "type": "uint256"
        }
      ],
      "stateMutability": "view",
      "type": "function"
    },
    {
      "inputs": [],
      "name": "amlPermitter",
      "outputs": [
        {
          "internalType": "contract IPermitter",
          "name": "",
          "type": "address"
        }
      ],
      "stateMutability": "view",
      "type": "function"
    },
    {
      "inputs": [
        {
          "internalType": "uint256",
          "name": "depositId",
          "type": "uint256"
        },
        {
          "components": [
            {
              "internalType": "address",
              "name": "depositor",
              "type": "address"
            },
            {
              "internalType": "bytes32",
              "name": "recipientSaltHash",
              "type": "bytes32"
            },
            {
              "internalType": "uint256",
              "name": "amount",
              "type": "uint256"
            },
            {
              "internalType": "uint32",
              "name": "tokenIndex",
              "type": "uint32"
            },
            {
              "internalType": "bool",
              "name": "isEligible",
              "type": "bool"
            }
          ],
          "internalType": "struct DepositLib.Deposit",
          "name": "deposit",
          "type": "tuple"
        }
      ],
      "name": "cancelDeposit",
      "outputs": [],
      "stateMutability": "nonpayable",
      "type": "function"
    },
    {
      "inputs": [
        {
          "components": [
            {
              "internalType": "address",
              "name": "recipient",
              "type": "address"
            },
            {
              "internalType": "uint32",
              "name": "tokenIndex",
              "type": "uint32"
            },
            {
              "internalType": "uint256",
              "name": "amount",
              "type": "uint256"
            },
            {
              "internalType": "bytes32",
              "name": "nullifier",
              "type": "bytes32"
            }
          ],
          "internalType": "struct WithdrawalLib.Withdrawal[]",
          "name": "withdrawals",
          "type": "tuple[]"
        }
      ],
      "name": "claimWithdrawals",
      "outputs": [],
      "stateMutability": "nonpayable",
      "type": "function"
    },
    {
      "inputs": [
        {
          "internalType": "bytes32",
          "name": "",
          "type": "bytes32"
        }
      ],
      "name": "claimableWithdrawals",
      "outputs": [
        {
          "internalType": "uint256",
          "name": "",
          "type": "uint256"
        }
      ],
      "stateMutability": "view",
      "type": "function"
    },
    {
      "inputs": [
        {
          "internalType": "uint32",
          "name": "",
          "type": "uint32"
        }
      ],
      "name": "collectedWithdrawalFees",
      "outputs": [
        {
          "internalType": "uint256",
          "name": "",
          "type": "uint256"
        }
      ],
      "stateMutability": "view",
      "type": "function"
    },
    {
      "inputs": [],
      "name": "deploymentTime",
      "outputs": [
        {
          "internalType": "uint256",
          "name": "",
          "type": "uint256"
        }
      ],
      "stateMutability": "view",
      "type": "function"
    },
    {
      "inputs": [
        {
          "internalType": "address",
          "name": "tokenAddress",
          "type": "address"
        },
        {
          "internalType": "bytes32",
          "name": "recipientSaltHash",
          "type": "bytes32"
        },
        {
          "internalType": "uint256",
          "name": "tokenId",
          "type": "uint256"
        },
        {
          "internalType": "uint256",
          "name": "amount",
          "type": "uint256"
        },
        {
          "internalType": "bytes",
          "name": "amlPermission",
          "type": "bytes"
        },
        {
          "internalType": "bytes",
          "name": "eligibilityPermission",
          "type": "bytes"
        }
      ],
      "name": "depositERC1155",
      "outputs": [],
      "stateMutability": "nonpayable",
      "type": "function"
    },
    {
      "inputs": [
        {
          "internalType": "address",
          "name": "tokenAddress",
          "type": "address"
        },
        {
          "internalType": "bytes32",
          "name": "recipientSaltHash",
          "type": "bytes32"
        },
        {
          "internalType": "uint256",
          "name": "amount",
          "type": "uint256"
        },
        {
          "internalType": "bytes",
          "name": "amlPermission",
          "type": "bytes"
        },
        {
          "internalType": "bytes",
          "name": "eligibilityPermission",
          "type": "bytes"
        }
      ],
      "name": "depositERC20",
      "outputs": [],
      "stateMutability": "nonpayable",
      "type": "function"
    },
    {
      "inputs": [
        {
          "internalType": "address",
          "name": "tokenAddress",
          "type": "address"
        },
        {
          "internalType": "bytes32",
          "name": "recipientSaltHash",
          "type": "bytes32"
        },
        {
          "internalType": "uint256",
          "name": "tokenId",
          "type": "uint256"
        },
        {
          "internalType": "bytes",
          "name": "amlPermission",
          "type": "bytes"
        },
        {
          "internalType": "bytes",
          "name": "eligibilityPermission",
          "type": "bytes"
        }
      ],
      "name": "depositERC721",
      "outputs": [],
      "stateMutability": "nonpayable",
      "type": "function"
    },
    {
      "inputs": [
        {
          "internalType": "bytes32",
          "name": "recipientSaltHash",
          "type": "bytes32"
        },
        {
          "internalType": "bytes",
          "name": "amlPermission",
          "type": "bytes"
        },
        {
          "internalType": "bytes",
          "name": "eligibilityPermission",
          "type": "bytes"
        }
      ],
      "name": "depositNativeToken",
      "outputs": [],
      "stateMutability": "payable",
      "type": "function"
    },
    {
      "inputs": [],
      "name": "eligibilityPermitter",
      "outputs": [
        {
          "internalType": "contract IPermitter",
          "name": "",
          "type": "address"
        }
      ],
      "stateMutability": "view",
      "type": "function"
    },
    {
      "inputs": [
        {
          "internalType": "uint256",
          "name": "depositId",
          "type": "uint256"
        }
      ],
      "name": "getDepositData",
      "outputs": [
        {
          "components": [
            {
              "internalType": "bytes32",
              "name": "depositHash",
              "type": "bytes32"
            },
            {
              "internalType": "address",
              "name": "sender",
              "type": "address"
            }
          ],
          "internalType": "struct DepositQueueLib.DepositData",
          "name": "",
          "type": "tuple"
        }
      ],
      "stateMutability": "view",
      "type": "function"
    },
    {
      "inputs": [
        {
          "internalType": "uint256[]",
          "name": "depositIds",
          "type": "uint256[]"
        }
      ],
      "name": "getDepositDataBatch",
      "outputs": [
        {
          "components": [
            {
              "internalType": "bytes32",
              "name": "depositHash",
              "type": "bytes32"
            },
            {
              "internalType": "address",
              "name": "sender",
              "type": "address"
            }
          ],
          "internalType": "struct DepositQueueLib.DepositData[]",
          "name": "",
          "type": "tuple[]"
        }
      ],
      "stateMutability": "view",
      "type": "function"
    },
    {
      "inputs": [
        {
          "internalType": "uint256",
          "name": "depositId",
          "type": "uint256"
        }
      ],
      "name": "getDepositDataHash",
      "outputs": [
        {
          "internalType": "bytes32",
          "name": "",
          "type": "bytes32"
        }
      ],
      "stateMutability": "view",
      "type": "function"
    },
    {
      "inputs": [],
      "name": "getLastDepositId",
      "outputs": [
        {
          "internalType": "uint256",
          "name": "",
          "type": "uint256"
        }
      ],
      "stateMutability": "view",
      "type": "function"
    },
    {
      "inputs": [],
      "name": "getLastRelayedDepositId",
      "outputs": [
        {
          "internalType": "uint256",
          "name": "",
          "type": "uint256"
        }
      ],
      "stateMutability": "view",
      "type": "function"
    },
    {
      "inputs": [],
      "name": "getNativeTokenIndex",
      "outputs": [
        {
          "internalType": "uint32",
          "name": "",
          "type": "uint32"
        }
      ],
      "stateMutability": "pure",
      "type": "function"
    },
    {
      "inputs": [
        {
          "internalType": "bytes32",
          "name": "role",
          "type": "bytes32"
        }
      ],
      "name": "getRoleAdmin",
      "outputs": [
        {
          "internalType": "bytes32",
          "name": "",
          "type": "bytes32"
        }
      ],
      "stateMutability": "view",
      "type": "function"
    },
    {
      "inputs": [
        {
          "internalType": "enum ITokenData.TokenType",
          "name": "tokenType",
          "type": "uint8"
        },
        {
          "internalType": "address",
          "name": "tokenAddress",
          "type": "address"
        },
        {
          "internalType": "uint256",
          "name": "tokenId",
          "type": "uint256"
        }
      ],
      "name": "getTokenIndex",
      "outputs": [
        {
          "internalType": "bool",
          "name": "",
          "type": "bool"
        },
        {
          "internalType": "uint32",
          "name": "",
          "type": "uint32"
        }
      ],
      "stateMutability": "view",
      "type": "function"
    },
    {
      "inputs": [
        {
          "internalType": "uint32",
          "name": "tokenIndex",
          "type": "uint32"
        }
      ],
      "name": "getTokenInfo",
      "outputs": [
        {
          "components": [
            {
              "internalType": "enum ITokenData.TokenType",
              "name": "tokenType",
              "type": "uint8"
            },
            {
              "internalType": "address",
              "name": "tokenAddress",
              "type": "address"
            },
            {
              "internalType": "uint256",
              "name": "tokenId",
              "type": "uint256"
            }
          ],
          "internalType": "struct ITokenData.TokenInfo",
          "name": "",
          "type": "tuple"
        }
      ],
      "stateMutability": "view",
      "type": "function"
    },
    {
      "inputs": [
        {
          "internalType": "bytes32",
          "name": "role",
          "type": "bytes32"
        },
        {
          "internalType": "address",
          "name": "account",
          "type": "address"
        }
      ],
      "name": "grantRole",
      "outputs": [],
      "stateMutability": "nonpayable",
      "type": "function"
    },
    {
      "inputs": [
        {
          "internalType": "bytes32",
          "name": "role",
          "type": "bytes32"
        },
        {
          "internalType": "address",
          "name": "account",
          "type": "address"
        }
      ],
      "name": "hasRole",
      "outputs": [
        {
          "internalType": "bool",
          "name": "",
          "type": "bool"
        }
      ],
      "stateMutability": "view",
      "type": "function"
    },
    {
      "inputs": [
        {
          "internalType": "address",
          "name": "_admin",
          "type": "address"
        },
        {
          "internalType": "address",
          "name": "_l1ScrollMessenger",
          "type": "address"
        },
        {
          "internalType": "address",
          "name": "_rollup",
          "type": "address"
        },
        {
          "internalType": "address",
          "name": "_withdrawal",
          "type": "address"
        },
        {
          "internalType": "address",
          "name": "_claim",
          "type": "address"
        },
        {
          "internalType": "address",
          "name": "_relayer",
          "type": "address"
        },
        {
          "internalType": "address",
          "name": "_contribution",
          "type": "address"
        },
        {
          "internalType": "address[]",
          "name": "initialERC20Tokens",
          "type": "address[]"
        }
      ],
      "name": "initialize",
      "outputs": [],
      "stateMutability": "nonpayable",
      "type": "function"
    },
    {
      "inputs": [
        {
          "internalType": "uint256",
          "name": "depositId",
          "type": "uint256"
        },
        {
          "internalType": "bytes32",
          "name": "recipientSaltHash",
          "type": "bytes32"
        },
        {
          "internalType": "uint32",
          "name": "tokenIndex",
          "type": "uint32"
        },
        {
          "internalType": "uint256",
          "name": "amount",
          "type": "uint256"
        },
        {
          "internalType": "bool",
          "name": "isEligible",
          "type": "bool"
        },
        {
          "internalType": "address",
          "name": "sender",
          "type": "address"
        }
      ],
      "name": "isDepositValid",
      "outputs": [
        {
          "internalType": "bool",
          "name": "",
          "type": "bool"
        }
      ],
      "stateMutability": "view",
      "type": "function"
    },
    {
      "inputs": [
        {
          "internalType": "address",
          "name": "",
          "type": "address"
        },
        {
          "internalType": "address",
          "name": "",
          "type": "address"
        },
        {
          "internalType": "uint256",
          "name": "",
          "type": "uint256"
        },
        {
          "internalType": "uint256",
          "name": "",
          "type": "uint256"
        },
        {
          "internalType": "bytes",
          "name": "",
          "type": "bytes"
        }
      ],
      "name": "onERC1155Received",
      "outputs": [
        {
          "internalType": "bytes4",
          "name": "",
          "type": "bytes4"
        }
      ],
      "stateMutability": "pure",
      "type": "function"
    },
    {
      "inputs": [],
      "name": "pauseDeposits",
      "outputs": [],
      "stateMutability": "nonpayable",
      "type": "function"
    },
    {
      "inputs": [],
      "name": "paused",
      "outputs": [
        {
          "internalType": "bool",
          "name": "",
          "type": "bool"
        }
      ],
      "stateMutability": "view",
      "type": "function"
    },
    {
      "inputs": [
        {
          "components": [
            {
              "internalType": "address",
              "name": "recipient",
              "type": "address"
            },
            {
              "internalType": "uint32",
              "name": "tokenIndex",
              "type": "uint32"
            },
            {
              "internalType": "uint256",
              "name": "amount",
              "type": "uint256"
            },
            {
              "internalType": "bytes32",
              "name": "nullifier",
              "type": "bytes32"
            }
          ],
          "internalType": "struct WithdrawalLib.Withdrawal[]",
          "name": "withdrawals",
          "type": "tuple[]"
        },
        {
          "internalType": "bytes32[]",
          "name": "withdrawalHashes",
          "type": "bytes32[]"
        }
      ],
      "name": "processWithdrawals",
      "outputs": [],
      "stateMutability": "nonpayable",
      "type": "function"
    },
    {
      "inputs": [],
      "name": "proxiableUUID",
      "outputs": [
        {
          "internalType": "bytes32",
          "name": "",
          "type": "bytes32"
        }
      ],
      "stateMutability": "view",
      "type": "function"
    },
    {
      "inputs": [
        {
          "internalType": "uint256",
          "name": "upToDepositId",
          "type": "uint256"
        },
        {
          "internalType": "uint256",
          "name": "gasLimit",
          "type": "uint256"
        }
      ],
      "name": "relayDeposits",
      "outputs": [],
      "stateMutability": "payable",
      "type": "function"
    },
    {
      "inputs": [
        {
          "internalType": "bytes32",
          "name": "role",
          "type": "bytes32"
        },
        {
          "internalType": "address",
          "name": "callerConfirmation",
          "type": "address"
        }
      ],
      "name": "renounceRole",
      "outputs": [],
      "stateMutability": "nonpayable",
      "type": "function"
    },
    {
      "inputs": [
        {
          "internalType": "bytes32",
          "name": "role",
          "type": "bytes32"
        },
        {
          "internalType": "address",
          "name": "account",
          "type": "address"
        }
      ],
      "name": "revokeRole",
      "outputs": [],
      "stateMutability": "nonpayable",
      "type": "function"
    },
    {
      "inputs": [
        {
          "internalType": "address",
          "name": "_amlPermitter",
          "type": "address"
        },
        {
          "internalType": "address",
          "name": "_eligibilityPermitter",
          "type": "address"
        }
      ],
      "name": "setPermitter",
      "outputs": [],
      "stateMutability": "nonpayable",
      "type": "function"
    },
    {
      "inputs": [
        {
          "internalType": "uint32",
          "name": "tokenIndex",
          "type": "uint32"
        },
        {
          "internalType": "uint256",
          "name": "feeRatio",
          "type": "uint256"
        }
      ],
      "name": "setWithdrawalFeeRatio",
      "outputs": [],
      "stateMutability": "nonpayable",
      "type": "function"
    },
    {
      "inputs": [
        {
          "internalType": "bytes4",
          "name": "interfaceId",
          "type": "bytes4"
        }
      ],
      "name": "supportsInterface",
      "outputs": [
        {
          "internalType": "bool",
          "name": "",
          "type": "bool"
        }
      ],
      "stateMutability": "view",
      "type": "function"
    },
    {
      "inputs": [],
      "name": "unpauseDeposits",
      "outputs": [],
      "stateMutability": "nonpayable",
      "type": "function"
    },
    {
      "inputs": [
        {
          "internalType": "address",
          "name": "newImplementation",
          "type": "address"
        },
        {
          "internalType": "bytes",
          "name": "data",
          "type": "bytes"
        }
      ],
      "name": "upgradeToAndCall",
      "outputs": [],
      "stateMutability": "payable",
      "type": "function"
    },
    {
      "inputs": [
        {
          "internalType": "address",
          "name": "recipient",
          "type": "address"
        },
        {
          "internalType": "uint32[]",
          "name": "tokenIndices",
          "type": "uint32[]"
        }
      ],
      "name": "withdrawCollectedFees",
      "outputs": [],
      "stateMutability": "nonpayable",
      "type": "function"
    },
    {
      "inputs": [
        {
          "internalType": "uint32",
          "name": "",
          "type": "uint32"
        }
      ],
      "name": "withdrawalFeeRatio",
      "outputs": [
        {
          "internalType": "uint256",
          "name": "",
          "type": "uint256"
        }
      ],
      "stateMutability": "view",
      "type": "function"
    }
  ],
  "bytecode": "0x60a06040523060805234801561001457600080fd5b5061001d610022565b6100d4565b7ff0c57e16840df040f15088dc2f81fe391c3923bec73e23a9662efc9c229c6a00805468010000000000000000900460ff16156100725760405163f92ee8a960e01b815260040160405180910390fd5b80546001600160401b03908116146100d15780546001600160401b0319166001600160401b0390811782556040519081527fc7f505b2f371ae2175ee4913f4499e1f2633a7b5936321eed1cdaeb6115181d29060200160405180910390a15b50565b6080516145286100fd600039600081816120ee01528181612117015261225b01526145286000f3fe6080604052600436106102675760003560e01c806391d1485411610144578063cbd90cd0116100b6578063dd9ea2991161007a578063dd9ea2991461079d578063e579fa2b146107b2578063ea4644bb146107df578063ecda10f5146107ff578063f23a6e6114610815578063f6a552d41461085b57600080fd5b8063cbd90cd0146106e3578063cd6a976e14610710578063d395c01714610730578063d438c3491461075d578063d547741f1461077d57600080fd5b80639d07861c116101085780639d07861c146105f65780639d6a54cb14610616578063a217fddf14610636578063ad3cb1cc1461064b578063c13819b614610689578063c60af2b5146106b657600080fd5b806391d148541461055657806391f69b7d14610576578063978069b414610596578063986be0e2146105b65780639c79a31c146105d657600080fd5b8063433f6c12116101dd5780635c975abb116101a15780635c975abb1461049c57806363d8882a146104c157806367517837146104d657806376918c0d146104eb57806385979730146104fe578063902eeef31461053657600080fd5b8063433f6c12146104125780634f1ef2861461043457806352d1902d146104475780635521f77e1461045c57806358dec40a1461047c57600080fd5b8063248a9ca31161022f578063248a9ca3146103435780632f2ff15d1461036357806336568abe14610383578063381175f6146103a35780633cd07066146103df5780633de40cfa146103ff57600080fd5b806301ffc9a71461026c57806302191980146102a1578063219cd263146102b8578063232c1c8a146102d45780632483e71514610301575b600080fd5b34801561027857600080fd5b5061028c6102873660046136f9565b610871565b60405190151581526020015b60405180910390f35b3480156102ad57600080fd5b506102b66108a8565b005b3480156102c457600080fd5b5060405160008152602001610298565b3480156102e057600080fd5b506102f46102ef36600461378c565b6108be565b604051610298919061381c565b34801561030d57600080fd5b506103357fab4f864e5201b0fde9b5ee3e4cf96384802b0ffdfcf7f9de4699ce21a30afc4f81565b604051908152602001610298565b34801561034f57600080fd5b5061033561035e36600461387d565b6109bf565b34801561036f57600080fd5b506102b661037e3660046138ab565b6109e1565b34801561038f57600080fd5b506102b661039e3660046138ab565b610a03565b3480156103af57600080fd5b506103c36103be3660046138db565b610a3b565b60408051921515835263ffffffff909116602083015201610298565b3480156103eb57600080fd5b506102b66103fa366004613939565b610b56565b6102b661040d3660046139ab565b610bdb565b34801561041e57600080fd5b506103356000805160206144d383398151915281565b6102b6610442366004613a28565b610cd0565b34801561045357600080fd5b50610335610cef565b34801561046857600080fd5b506102b6610477366004613ad3565b610d0c565b34801561048857600080fd5b506102b6610497366004613bb0565b610e37565b3480156104a857600080fd5b506000805160206144b38339815191525460ff1661028c565b3480156104cd57600080fd5b506102b6610f36565b3480156104e257600080fd5b50610335610f49565b6102b66104f9366004613c04565b610f60565b34801561050a57600080fd5b5060085461051e906001600160a01b031681565b6040516001600160a01b039091168152602001610298565b34801561054257600080fd5b506102b6610551366004613c26565b6110a4565b34801561056257600080fd5b5061028c6105713660046138ab565b61110e565b34801561058257600080fd5b506102b6610591366004613c98565b611146565b3480156105a257600080fd5b5060075461051e906001600160a01b031681565b3480156105c257600080fd5b506103356105d136600461387d565b6112f3565b3480156105e257600080fd5b506102b66105f1366004613cd9565b611324565b34801561060257600080fd5b5061028c610611366004613d1f565b61149c565b34801561062257600080fd5b506102b6610631366004613d84565b61156e565b34801561064257600080fd5b50610335600081565b34801561065757600080fd5b5061067c604051806040016040528060058152602001640352e302e360dc1b81525081565b6040516102989190613e43565b34801561069557600080fd5b506106a96106a436600461387d565b61163f565b6040516102989190613e56565b3480156106c257600080fd5b506103356106d1366004613e76565b600b6020526000908152604090205481565b3480156106ef57600080fd5b506107036106fe366004613e76565b6116a0565b6040516102989190613ea7565b34801561071c57600080fd5b506102b661072b366004613ad3565b611743565b34801561073c57600080fd5b5061033561074b366004613e76565b600a6020526000908152604090205481565b34801561076957600080fd5b506102b6610778366004613ef2565b6118a3565b34801561078957600080fd5b506102b66107983660046138ab565b611a32565b3480156107a957600080fd5b50610335611a4e565b3480156107be57600080fd5b506103356107cd36600461387d565b60096020526000908152604090205481565b3480156107eb57600080fd5b506102b66107fa366004613f94565b611a60565b34801561080b57600080fd5b5061033560035481565b34801561082157600080fd5b506108426108303660046140bc565b63f23a6e6160e01b9695505050505050565b6040516001600160e01b03199091168152602001610298565b34801561086757600080fd5b506103356105dc81565b60006001600160e01b03198216637965db0b60e01b14806108a257506301ffc9a760e01b6001600160e01b03198316145b92915050565b60006108b381611d71565b6108bb611d7b565b50565b6060600082516001600160401b038111156108db576108db613723565b60405190808252806020026020018201604052801561092057816020015b60408051808201909152600080825260208201528152602001906001900390816108f95790505b50905060005b83518110156109b857600d60000184828151811061094657610946614137565b60200260200101518154811061095e5761095e614137565b60009182526020918290206040805180820190915260029092020180548252600101546001600160a01b03169181019190915282518390839081106109a5576109a5614137565b6020908102919091010152600101610926565b5092915050565b6000908152600080516020614493833981519152602052604090206001015490565b6109ea826109bf565b6109f381611d71565b6109fd8383611dde565b50505050565b6001600160a01b0381163314610a2c5760405163334bd91960e11b815260040160405180910390fd5b610a368282611e83565b505050565b60008080856003811115610a5157610a51613e91565b03610a625750600190506000610b4e565b6001600160a01b038416610a895760405163dc2e5e8d60e01b815260040160405180910390fd5b6001856003811115610a9d57610a9d613e91565b03610ad4576001600160a01b03841660009081526001602052604090205463ffffffff168015610ad257600192509050610b4e565b505b6002856003811115610ae857610ae8613e91565b1480610b0557506003856003811115610b0357610b03613e91565b145b15610b47576001600160a01b038416600090815260026020908152604080832086845290915290205463ffffffff168015610b4557600192509050610b4e565b505b5060009050805b935093915050565b6000610b6181611d71565b6105dc821115610b845760405163886349bb60e01b815260040160405180910390fd5b63ffffffff83166000818152600a602052604090819020849055517ff5a91001916153e67eaaa2ae82827a002838792ca48af87df63408cc09cb96f490610bce9085815260200190565b60405180910390a2505050565b610be3611eff565b34600003610c04576040516394fe88d960e01b815260040160405180910390fd5b60008086604051602401610c1a91815260200190565b60408051601f198184030181529190526020810180516001600160e01b031660016215566760e11b03191790529050610cc7610c533390565b888434858b8b8080601f01602080910402602001604051908101604052809392919081815260200183838082843760009201919091525050604080516020601f8f018190048102820181019092528d815292508d91508c9081908401838280828437600092019190915250611f3292505050565b50505050505050565b610cd86120e3565b610ce182612188565b610ceb8282612193565b5050565b6000610cf9612250565b5060008051602061447383398151915290565b610d14611eff565b84600003610d35576040516394fe88d960e01b815260040160405180910390fd5b610d4a6001600160a01b038816333088612299565b6000610d596001896000612300565b6040516001600160a01b038a166024820152604481018990526064810188905290915060009060840160408051601f198184030181529190526020810180516001600160e01b031663788c2ecf60e01b1790529050610e2c610db83390565b89848a858b8b8080601f01602080910402602001604051908101604052809392919081815260200183838082843760009201919091525050604080516020601f8f018190048102820181019092528d815292508d91508c9081908401838280828437600092019190915250611f3292505050565b505050505050505050565b6000610e4281611d71565b60005b82811015610f2f576000848483818110610e6157610e61614137565b9050602002016020810190610e769190613e76565b63ffffffff81166000908152600b6020526040812054919250819003610e9d575050610f27565b63ffffffff82166000908152600b60205260408120819055610ebe836116a0565b9050610ed9816000015182602001518a85856040015161233a565b8263ffffffff16886001600160a01b03167f6c8628f02ab9884920c84f6f3507810561c8ed6c4b3bae0ce96eceab6def228b84604051610f1b91815260200190565b60405180910390a35050505b600101610e45565b5050505050565b6000610f4181611d71565b6108bb6124b5565b600e54600090610f5b90600190614163565b905090565b7fab4f864e5201b0fde9b5ee3e4cf96384802b0ffdfcf7f9de4699ce21a30afc4f610f8a81611d71565b6000610f97600d856124fb565b9050600063f03efa3760e01b8583604051602401610fb6929190614176565b60408051601f198184030181529190526020810180516001600160e01b03166001600160e01b0319909316929092179091526004546006549192506001600160a01b0390811691635f7b157791349116600085896110113390565b6040518763ffffffff1660e01b81526004016110319594939291906141c5565b6000604051808303818588803b15801561104a57600080fd5b505af115801561105e573d6000803e3d6000fd5b5050505050847f71df2a50f3ab1563277a27043770eb570eeaa3fc42ef76c607cdc667a82d03a4858360405161109592919061420e565b60405180910390a25050505050565b60006110af81611d71565b600780546001600160a01b03199081166001600160a01b03868116918217909355600880549092169285169283179091556040517ff670cdc1c52016a5cec857c88e8948913b39f86889230c0661b011fd2ed57df590600090a3505050565b6000918252600080516020614493833981519152602090815260408084206001600160a01b0393909316845291905290205460ff1690565b60005b81811015610a3657600083838381811061116557611165614137565b90506080020180360381019061117b9190614227565b90506000611188826126c3565b600081815260096020526040812054919250036111c057604051630181cdef60e61b8152600481018290526024015b60405180910390fd5b60006111d483602001518460400151612740565b905060008184604001516111e89190614163565b905060006111f985602001516116a0565b9050600960008581526020019081526020016000206000905561122f81600001518260200151876000015185856040015161233a565b845160405185916001600160a01b0316907f0575467d13f5ab9174f470cec96623374b05cf4b19a3c83a4bfca523e243ab0490600090a382156112e25760208086015163ffffffff166000908152600b90915260408120805485929061129690849061429b565b92505081905550846020015163ffffffff167f34658d4aa4a80fa713a0f3a04329f39177b5bea34e8dcba253600ee5ade6c654846040516112d991815260200190565b60405180910390a25b505060019093019250611149915050565b6000600d600001828154811061130b5761130b614137565b9060005260206000209060020201600001549050919050565b81611334368390038301836142ae565b6000600d600001838154811061134c5761134c614137565b60009182526020918290206040805180820190915260029092020180548252600101546001600160a01b03169181019190915290506113883390565b6001600160a01b031681602001516001600160a01b0316146113bd57604051631165d41f60e31b815260040160405180910390fd5b60006113c883612775565b825190915081146113f9578151604051633df112db60e11b81526004810191909152602481018290526044016111b7565b611401610f49565b84116114205760405163d0ebeb4b60e01b815260040160405180910390fd5b600061142d600d886127f3565b905060006114446106fe6080890160608a01613e76565b90506114678160000151826020015184602001518a60400135856040015161233a565b60405188907f0c1c0787650562778c282502dfd6dcea2fb79d23783920aa18aee36b4aa3dc4890600090a25050505050505050565b600080600d60000188815481106114b5576114b5614137565b60009182526020808320604080518082018252600290940290910180548452600101546001600160a01b0390811684840152815160a08101835290881681529182018b9052810188905263ffffffff89166060820152861515608082015290925061151f90612775565b8251909150811461153557600092505050611564565b836001600160a01b031682602001516001600160a01b03161461155d57600092505050611564565b6001925050505b9695505050505050565b6004546001600160a01b031633811461159a5760405163d8844f1560e01b815260040160405180910390fd5b61160e6000805160206144d3833981519152826001600160a01b0316636e296e456040518163ffffffff1660e01b8152600401602060405180830381865afa1580156115ea573d6000803e3d6000fd5b505050506040513d601f19601f820116820180604052508101906105719190614333565b61162b57604051634261081360e11b815260040160405180910390fd5b611635858561288f565b610f2f8383612968565b6040805180820190915260008082526020820152600d80548390811061166757611667614137565b60009182526020918290206040805180820190915260029092020180548252600101546001600160a01b03169181019190915292915050565b604080516060810182526000808252602082018190529181019190915260008263ffffffff16815481106116d6576116d6614137565b6000918252602090912060408051606081019091526002909202018054829060ff16600381111561170957611709613e91565b600381111561171a5761171a613e91565b8152815461010090046001600160a01b0316602082015260019091015460409091015292915050565b61174b611eff565b6001600160a01b0387166323b872dd336040516001600160e01b031960e084901b1681526001600160a01b03909116600482015230602482015260448101889052606401600060405180830381600087803b1580156117a957600080fd5b505af11580156117bd573d6000803e3d6000fd5b5050505060006117cf60028988612300565b6040516001600160a01b038a166024820152604481018990526064810188905290915060009060840160408051601f198184030181529190526020810180516001600160e01b03166313e803eb60e31b1790529050610e2c61182e3390565b89846001858b8b8080601f01602080910402602001604051908101604052809392919081815260200183838082843760009201919091525050604080516020601f8f018190048102820181019092528d815292508d91508c9081908401838280828437600092019190915250611f3292505050565b6118ab611eff565b846000036118cc576040516394fe88d960e01b815260040160405180910390fd5b60408051602081018252600081529051637921219560e11b81526001600160a01b038a169163f242432a9161190c91339130918c918c9190600401614350565b600060405180830381600087803b15801561192657600080fd5b505af115801561193a573d6000803e3d6000fd5b50505050600061194c60038a89612300565b6040516001600160a01b038b166024820152604481018a9052606481018990526084810188905290915060009060a40160408051601f198184030181529190526020810180516001600160e01b03166326fc02dd60e01b1790529050611a266119b23390565b8a848a858b8b8080601f01602080910402602001604051908101604052809392919081815260200183838082843760009201919091525050604080516020601f8f018190048102820181019092528d815292508d91508c9081908401838280828437600092019190915250611f3292505050565b50505050505050505050565b611a3b826109bf565b611a4481611d71565b6109fd8383611e83565b600d54600090610f5b90600190614163565b7ff0c57e16840df040f15088dc2f81fe391c3923bec73e23a9662efc9c229c6a008054600160401b810460ff1615906001600160401b0316600081158015611aa55750825b90506000826001600160401b03166001148015611ac15750303b155b905081158015611acf575080155b15611aed5760405163f92ee8a960e01b815260040160405180910390fd5b845467ffffffffffffffff191660011785558315611b1757845460ff60401b1916600160401b1785555b6001600160a01b038d161580611b3457506001600160a01b038c16155b80611b4657506001600160a01b038b16155b80611b5857506001600160a01b038a16155b80611b6a57506001600160a01b038916155b80611b7c57506001600160a01b038816155b80611b8e57506001600160a01b038716155b15611bac57604051639fabe1c160e01b815260040160405180910390fd5b611bb760008e611dde565b50611be27fab4f864e5201b0fde9b5ee3e4cf96384802b0ffdfcf7f9de4699ce21a30afc4f89611dde565b50611bfb6000805160206144d38339815191528b611dde565b50611c146000805160206144d38339815191528a611dde565b50611c1d612a54565b611c25612a54565b611c2e86612a5c565b611c36612aad565b60408051808201909152600080825260208201818152600d8054600180820183559190935292517fd7b6990105719101dabeb77144f2a3385c8033acd3af97e9423a695e81ad1eb5600290930292830155517fd7b6990105719101dabeb77144f2a3385c8033acd3af97e9423a695e81ad1eb690910180546001600160a01b039283166001600160a01b031991821617909155600e929092556004805483168f83161790556005805483168a831617905560068054909216908d16179055611d016201518042614395565b611d0c90600161429b565b611d1990620151806143b7565b6003558315611d6257845460ff60401b19168555604051600181527fc7f505b2f371ae2175ee4913f4499e1f2633a7b5936321eed1cdaeb6115181d29060200160405180910390a15b50505050505050505050505050565b6108bb8133612abd565b611d83611eff565b6000805160206144b3833981519152805460ff191660011781557f62e78cea01bee320cd4e420270b5ea74000d11b0c9f74754ebdbfc544b05a258335b6040516001600160a01b03909116815260200160405180910390a150565b6000600080516020614493833981519152611df9848461110e565b611e79576000848152602082815260408083206001600160a01b03871684529091529020805460ff19166001179055611e2f3390565b6001600160a01b0316836001600160a01b0316857f2f8788117e7eff1d82e926ec794901d17c78024a50270940304540a733656f0d60405160405180910390a460019150506108a2565b60009150506108a2565b6000600080516020614493833981519152611e9e848461110e565b15611e79576000848152602082815260408083206001600160a01b0387168085529252808320805460ff1916905551339287917ff6391f5c32d9c69d2a47ea670b442974b53935d1edc7fd64eb21e047a839171b9190a460019150506108a2565b6000805160206144b38339815191525460ff1615611f305760405163d93c066560e01b815260040160405180910390fd5b565b611f3c8383612af6565b6000611f488483612ba4565b90506000611f5887600354612c74565b905080861115611f855760405163539163e160e01b815260048101879052602481018290526044016111b7565b6000611fc76040518060a001604052808c6001600160a01b031681526020018b81526020018981526020018a63ffffffff168152602001851515815250612775565b6000818152600c602052604090205490915060ff1615611ffd5760405163bff0e9e760e01b8152600481018290526024016111b7565b6000818152600c60205260408120805460ff19166001179055612077600d838d8254604080518082019091529283526001600160a01b0391821660208085019182526001808401875560009687529520935160028302909401938455519290930180546001600160a01b0319169290911691909117905590565b6040805163ffffffff8c168152602081018b90528615158183015242606082015290519192508b916001600160a01b038e169184917f1061e9784cdd951f4cbc394956165b3a94cf872a3afda95fc76b55cefb35cc519181900360800190a45050505050505050505050565b306001600160a01b037f000000000000000000000000000000000000000000000000000000000000000016148061216a57507f00000000000000000000000000000000000000000000000000000000000000006001600160a01b031661215e600080516020614473833981519152546001600160a01b031690565b6001600160a01b031614155b15611f305760405163703e46dd60e11b815260040160405180910390fd5b6000610ceb81611d71565b816001600160a01b03166352d1902d6040518163ffffffff1660e01b8152600401602060405180830381865afa9250505080156121ed575060408051601f3d908101601f191682019092526121ea918101906143ce565b60015b61221557604051634c9c8ce360e01b81526001600160a01b03831660048201526024016111b7565b600080516020614473833981519152811461224657604051632a87526960e21b8152600481018290526024016111b7565b610a368383612ef7565b306001600160a01b037f00000000000000000000000000000000000000000000000000000000000000001614611f305760405163703e46dd60e11b815260040160405180910390fd5b6040516001600160a01b0384811660248301528381166044830152606482018390526109fd9186918216906323b872dd906084015b604051602081830303815290604052915060e01b6020820180516001600160e01b038381831617835250505050612f4d565b6000806000612310868686610a3b565b9150915081156123235791506123339050565b61232e868686612fbe565b925050505b9392505050565b600085600381111561234e5761234e613e91565b0361238f576040516001600160a01b0384169083156108fc029084906000818181858888f19350505050158015612389573d6000803e3d6000fd5b50610f2f565b60018560038111156123a3576123a3613e91565b036123c1576123bc6001600160a01b0385168484613180565b610f2f565b60028560038111156123d5576123d5613e91565b03612447576040516323b872dd60e01b81523060048201526001600160a01b038481166024830152604482018390528516906323b872dd90606401600060405180830381600087803b15801561242a57600080fd5b505af115801561243e573d6000803e3d6000fd5b50505050610f2f565b60408051602081018252600081529051637921219560e11b81526001600160a01b0386169163f242432a9161248791309188918791899190600401614350565b600060405180830381600087803b1580156124a157600080fd5b505af1158015610e2c573d6000803e3d6000fd5b6124bd6131b1565b6000805160206144b3833981519152805460ff191681557f5db9ee0a495bf2e6ff9c91a7834c1ba4fdd244a5e8aa4e537bd38aeae4b073aa33611dc0565b60018201548254606091908310158061251357508083105b156125545783548390829061252a90600190614163565b604051634a0dd9bd60e01b81526004810193909352602483019190915260448201526064016111b7565b6000815b8481116125b857855460009087908390811061257657612576614137565b60009182526020909120600160029092020101546001600160a01b0316146125a657816125a2816143e7565b9250505b806125b0816143e7565b915050612558565b506000816001600160401b038111156125d3576125d3613723565b6040519080825280602002602001820160405280156125fc578160200160208202803683370190505b5090506000835b8681116126a757875460009089908390811061262157612621614137565b60009182526020909120600160029092020101546001600160a01b0316146126955787600001818154811061265857612658614137565b90600052602060002090600202016000015483838151811061267c5761267c614137565b602090810291909101015281612691816143e7565b9250505b8061269f816143e7565b915050612603565b506126b386600161429b565b6001880155509250505092915050565b60008160000151826020015183604001518460600151604051602001612723949392919060609490941b6bffffffffffffffffffffffff1916845260e09290921b6001600160e01b03191660148401526018830152603882015260580190565b604051602081830303815290604052805190602001209050919050565b63ffffffff82166000908152600a602052604081205461271061276382856143b7565b61276d9190614395565b949350505050565b60008160000151826020015183604001518460600151856080015161279b57600061279e565b60015b60405160609590951b6bffffffffffffffffffffffff191660208601526034850193909352605484019190915260e090811b6001600160e01b03191660748401521b60ff60e01b166078820152607c01612723565b604080518082019091526000808252602082015282600001828154811061281c5761281c614137565b60009182526020918290206040805180820190915260029092020180548252600101546001600160a01b031691810191909152835490915083908390811061286657612866614137565b60009182526020822060029091020190815560010180546001600160a01b031916905592915050565b60005b818110156128d2576128ca8383838181106128af576128af614137565b9050608002018036038101906128c59190614227565b6131e1565b600101612892565b508015610ceb5760055460405163f099f9f560e01b81527ff00e60aabbc167f41684e8d81677229edbc0f1876ae2c1ded0a60367465292ab6004820152326024820152604481018390526001600160a01b039091169063f099f9f5906064015b600060405180830381600087803b15801561294c57600080fd5b505af1158015612960573d6000803e3d6000fd5b505050505050565b60005b818110156129f057426009600085858581811061298a5761298a614137565b905060200201358152602001908152602001600020819055508282828181106129b5576129b5614137565b905060200201357fd63a18c6858559d79659151118b33c6ad7cf4f7735b64fe9dbd85c509e11a11760405160405180910390a260010161296b565b508015610ceb5760055460405163f099f9f560e01b81527f25146e2fbfab3f988e64e94788d256b87c4fa8691f43ec409c49b57436cb7ee66004820152326024820152604481018390526001600160a01b039091169063f099f9f590606401612932565b611f3061346d565b612a6461346d565b612a716000806000612fbe565b5060005b8151811015610ceb57612aa46001838381518110612a9557612a95614137565b60200260200101516000612fbe565b50600101612a75565b612ab561346d565b611f306134b6565b612ac7828261110e565b610ceb5760405163e2517d3f60e01b81526001600160a01b0382166004820152602481018390526044016111b7565b6007546001600160a01b0316612b0a575050565b60075460405163901afa5f60e01b81526000916001600160a01b03169063901afa5f90612b41903390349088908890600401614400565b6020604051808303816000875af1158015612b60573d6000803e3d6000fd5b505050506040513d601f19601f82011682018060405250810190612b849190614439565b905080610a3657604051631195542160e11b815260040160405180910390fd5b6008546000906001600160a01b0316612bbf575060016108a2565b8151600003612bd0575060006108a2565b60085460405163901afa5f60e01b81526000916001600160a01b03169063901afa5f90612c07903390349089908990600401614400565b6020604051808303816000875af1158015612c26573d6000803e3d6000fd5b505050506040513d601f19601f82011682018060405250810190612c4a9190614439565b905080612c6a57604051630a3a260560e01b815260040160405180910390fd5b5060019392505050565b600063ffffffff831615801590612c92575063ffffffff8316600214155b8015612ca5575063ffffffff8316600314155b15612cb357506000196108a2565b81421015612cfc5763ffffffff8316612cd6575068056bc75e2d631000006108a2565b60011963ffffffff841601612cf05750631dcd65006108a2565b5064746a5288006108a2565b600062015180612d0c8442614163565b612d169190614395565b905060006102d88210612d2b57506004612d61565b6102228210612d3c57506003612d61565b61016c8210612d4d57506002612d61565b60b68210612d5d57506001612d61565b5060005b63ffffffff8516612df9578060ff16600003612d8a5768056bc75e2d63100000925050506108a2565b8060ff16600103612da857681b1ae4d6e2ef500000925050506108a2565b8060ff16600203612dc657683635c9adc5dea00000925050506108a2565b8060ff16600303612de55769010f0cf064dd59200000925050506108a2565b69021e19e0c9bab2400000925050506108a2565b60011963ffffffff861601612e7d578060ff16600003612e2157631dcd6500925050506108a2565b8060ff16600103612e3a57633b9aca00925050506108a2565b8060ff16600203612e545764012a05f200925050506108a2565b8060ff16600303612e6e576402540be400925050506108a2565b640ba43b7400925050506108a2565b8060ff16600003612e975764746a528800925050506108a2565b8060ff16600103612eb15764e8d4a51000925050506108a2565b8060ff16600203612ecc5765048c27395000925050506108a2565b8060ff16600303612ee7576509184e72a000925050506108a2565b652d79883d2000925050506108a2565b612f00826134d7565b6040516001600160a01b038316907fbc7cd75a20ee27fd9adebab32041f755214dbc6bffa90cc0225b39da2e5c2d3b90600090a2805115612f4557610a36828261353c565b610ceb6135b2565b600080602060008451602086016000885af180612f70576040513d6000823e3d81fd5b50506000513d91508115612f88578060011415612f95565b6001600160a01b0384163b155b156109fd57604051635274afe760e01b81526001600160a01b03851660048201526024016111b7565b600080546040805160608101909152829080876003811115612fe257612fe2613e91565b81526001600160a01b038716602080830191909152604090910186905282546001818101855560009485529190932082516002909402018054929390929091839160ff19169083600381111561303a5761303a613e91565b0217905550602082015181546001600160a01b0390911661010002610100600160a81b0319909116178155604090910151600190910155600085600381111561308557613085613e91565b036130ce576000805260016020527fa6eef7e35abe7026729641147f7915573c7e97b47efa546f5f6e3230263bcb49805463ffffffff191663ffffffff83161790559050612333565b6001600160a01b0384166130f55760405163dc2e5e8d60e01b815260040160405180910390fd5b600185600381111561310957613109613e91565b03613140576001600160a01b0384166000908152600160205260409020805463ffffffff191663ffffffff83161790559050612333565b6001600160a01b0393909316600090815260026020908152604080832094835293905291909120805463ffffffff191663ffffffff841617905550919050565b6040516001600160a01b03838116602483015260448201839052610a3691859182169063a9059cbb906064016122ce565b6000805160206144b38339815191525460ff16611f3057604051638dfc202b60e01b815260040160405180910390fd5b60006131f082602001516116a0565b9050600061320683602001518460400151612740565b9050600081846040015161321a9190614163565b9050600160008451600381111561323357613233613e91565b036132685784516040516000916001600160a01b03169084156108fc0290859084818181858888f195506132e9945050505050565b60018451600381111561327d5761327d613e91565b036132e5578451604080516001600160a01b0392831660248201526044808201869052825180830390910181526064909101909152602080820180516001600160e01b031663a9059cbb60e01b17905286015190916132dd9116826135d1565b9150506132e9565b5060005b80156133ac5784516001600160a01b0316613303866126c3565b6040517f6a65a945f1306f9bb3d4e3ce63aa367de6976a375de002492404554392c2460e90600090a382156123bc5760208086015163ffffffff166000908152600b90915260408120805485929061335c90849061429b565b92505081905550846020015163ffffffff167f34658d4aa4a80fa713a0f3a04329f39177b5bea34e8dcba253600ee5ade6c6548460405161339f91815260200190565b60405180910390a2610f2f565b60006133b7866126c3565b600081815260096020526040908190204290555190915081907fedf8120f63daf877f6cb9aa7a3e21724c4532681d4afd77a45561904f1a045999061343290899081516001600160a01b0316815260208083015163ffffffff1690820152604080830151908201526060918201519181019190915260800190565b60405180910390a260405181907fd63a18c6858559d79659151118b33c6ad7cf4f7735b64fe9dbd85c509e11a11790600090a2505050505050565b7ff0c57e16840df040f15088dc2f81fe391c3923bec73e23a9662efc9c229c6a0054600160401b900460ff16611f3057604051631afcd79f60e31b815260040160405180910390fd5b6134be61346d565b6000805160206144b3833981519152805460ff19169055565b806001600160a01b03163b60000361350d57604051634c9c8ce360e01b81526001600160a01b03821660048201526024016111b7565b60008051602061447383398151915280546001600160a01b0319166001600160a01b0392909216919091179055565b6060600080846001600160a01b0316846040516135599190614456565b600060405180830381855af49150503d8060008114613594576040519150601f19603f3d011682016040523d82523d6000602084013e613599565b606091505b50915091506135a9858383613674565b95945050505050565b3415611f305760405163b398979f60e01b815260040160405180910390fd5b6000806000846001600160a01b0316846040516135ee9190614456565b6000604051808303816000865af19150503d806000811461362b576040519150601f19603f3d011682016040523d82523d6000602084013e613630565b606091505b509150915081801561365a57508051158061365a57508080602001905181019061365a9190614439565b80156135a95750505050506001600160a01b03163b151590565b60608261368957613684826136d0565b612333565b81511580156136a057506001600160a01b0384163b155b156136c957604051639996b31560e01b81526001600160a01b03851660048201526024016111b7565b5080612333565b8051156136e05780518082602001fd5b60405163d6bda27560e01b815260040160405180910390fd5b60006020828403121561370b57600080fd5b81356001600160e01b03198116811461233357600080fd5b634e487b7160e01b600052604160045260246000fd5b604051601f8201601f191681016001600160401b038111828210171561376157613761613723565b604052919050565b60006001600160401b0382111561378257613782613723565b5060051b60200190565b60006020828403121561379e57600080fd5b81356001600160401b038111156137b457600080fd5b8201601f810184136137c557600080fd5b80356137d86137d382613769565b613739565b8082825260208201915060208360051b8501019250868311156137fa57600080fd5b6020840193505b82841015611564578335825260209384019390910190613801565b602080825282518282018190526000918401906040840190835b818110156138725761385c838551805182526020908101516001600160a01b0316910152565b6020939093019260409290920191600101613836565b509095945050505050565b60006020828403121561388f57600080fd5b5035919050565b6001600160a01b03811681146108bb57600080fd5b600080604083850312156138be57600080fd5b8235915060208301356138d081613896565b809150509250929050565b6000806000606084860312156138f057600080fd5b8335600481106138ff57600080fd5b9250602084013561390f81613896565b929592945050506040919091013590565b803563ffffffff8116811461393457600080fd5b919050565b6000806040838503121561394c57600080fd5b61395583613920565b946020939093013593505050565b60008083601f84011261397557600080fd5b5081356001600160401b0381111561398c57600080fd5b6020830191508360208285010111156139a457600080fd5b9250929050565b6000806000806000606086880312156139c357600080fd5b8535945060208601356001600160401b038111156139e057600080fd5b6139ec88828901613963565b90955093505060408601356001600160401b03811115613a0b57600080fd5b613a1788828901613963565b969995985093965092949392505050565b60008060408385031215613a3b57600080fd5b8235613a4681613896565b915060208301356001600160401b03811115613a6157600080fd5b8301601f81018513613a7257600080fd5b80356001600160401b03811115613a8b57613a8b613723565b613a9e601f8201601f1916602001613739565b818152866020838501011115613ab357600080fd5b816020840160208301376000602083830101528093505050509250929050565b600080600080600080600060a0888a031215613aee57600080fd5b8735613af981613896565b9650602088013595506040880135945060608801356001600160401b03811115613b2257600080fd5b613b2e8a828b01613963565b90955093505060808801356001600160401b03811115613b4d57600080fd5b613b598a828b01613963565b989b979a50959850939692959293505050565b60008083601f840112613b7e57600080fd5b5081356001600160401b03811115613b9557600080fd5b6020830191508360208260051b85010111156139a457600080fd5b600080600060408486031215613bc557600080fd5b8335613bd081613896565b925060208401356001600160401b03811115613beb57600080fd5b613bf786828701613b6c565b9497909650939450505050565b60008060408385031215613c1757600080fd5b50508035926020909101359150565b60008060408385031215613c3957600080fd5b8235613c4481613896565b915060208301356138d081613896565b60008083601f840112613c6657600080fd5b5081356001600160401b03811115613c7d57600080fd5b6020830191508360208260071b85010111156139a457600080fd5b60008060208385031215613cab57600080fd5b82356001600160401b03811115613cc157600080fd5b613ccd85828601613c54565b90969095509350505050565b60008082840360c0811215613ced57600080fd5b8335925060a0601f1982011215613d0357600080fd5b506020830190509250929050565b80151581146108bb57600080fd5b60008060008060008060c08789031215613d3857600080fd5b8635955060208701359450613d4f60408801613920565b9350606087013592506080870135613d6681613d11565b915060a0870135613d7681613896565b809150509295509295509295565b60008060008060408587031215613d9a57600080fd5b84356001600160401b03811115613db057600080fd5b613dbc87828801613c54565b90955093505060208501356001600160401b03811115613ddb57600080fd5b613de787828801613b6c565b95989497509550505050565b60005b83811015613e0e578181015183820152602001613df6565b50506000910152565b60008151808452613e2f816020860160208601613df3565b601f01601f19169290920160200192915050565b6020815260006123336020830184613e17565b815181526020808301516001600160a01b031690820152604081016108a2565b600060208284031215613e8857600080fd5b61233382613920565b634e487b7160e01b600052602160045260246000fd5b8151606082019060048110613ecc57634e487b7160e01b600052602160045260246000fd5b82526020838101516001600160a01b031690830152604092830151929091019190915290565b60008060008060008060008060c0898b031215613f0e57600080fd5b8835613f1981613896565b975060208901359650604089013595506060890135945060808901356001600160401b03811115613f4957600080fd5b613f558b828c01613963565b90955093505060a08901356001600160401b03811115613f7457600080fd5b613f808b828c01613963565b999c989b5096995094979396929594505050565b600080600080600080600080610100898b031215613fb157600080fd5b8835613fbc81613896565b97506020890135613fcc81613896565b96506040890135613fdc81613896565b95506060890135613fec81613896565b94506080890135613ffc81613896565b935060a089013561400c81613896565b925060c089013561401c81613896565b915060e08901356001600160401b0381111561403757600080fd5b89016000601f82018c1361404a57600080fd5b81356140586137d382613769565b8082825260208201915060208360051b86010192508e83111561407a57600080fd5b6020850194505b828510156140a557843561409481613896565b825260209485019490910190614081565b9b9e9a9d50989b5096999598949750929550505050565b60008060008060008060a087890312156140d557600080fd5b86356140e081613896565b955060208701356140f081613896565b9450604087013593506060870135925060808701356001600160401b0381111561411957600080fd5b61412589828a01613963565b979a9699509497509295939492505050565b634e487b7160e01b600052603260045260246000fd5b634e487b7160e01b600052601160045260246000fd5b818103818111156108a2576108a261414d565b6000604082018483526040602084015280845180835260608501915060208601925060005b818110156141b957835183526020938401939092019160010161419b565b50909695505050505050565b60018060a01b038616815284602082015260a0604082015260006141ec60a0830186613e17565b6060830194909452506001600160a01b03919091166080909101529392505050565b82815260406020820152600061276d6040830184613e17565b6000608082840312801561423a57600080fd5b50604051608081016001600160401b038111828210171561425d5761425d613723565b604052823561426b81613896565b815261427960208401613920565b6020820152604083810135908201526060928301359281019290925250919050565b808201808211156108a2576108a261414d565b600060a08284031280156142c157600080fd5b5060405160a081016001600160401b03811182821017156142e4576142e4613723565b60405282356142f281613896565b8152602083810135908201526040808401359082015261431460608401613920565b6060820152608083013561432781613d11565b60808201529392505050565b60006020828403121561434557600080fd5b815161233381613896565b6001600160a01b03868116825285166020820152604081018490526060810183905260a06080820181905260009061438a90830184613e17565b979650505050505050565b6000826143b257634e487b7160e01b600052601260045260246000fd5b500490565b80820281158282048414176108a2576108a261414d565b6000602082840312156143e057600080fd5b5051919050565b6000600182016143f9576143f961414d565b5060010190565b60018060a01b03851681528360208201526080604082015260006144276080830185613e17565b828103606084015261438a8185613e17565b60006020828403121561444b57600080fd5b815161233381613d11565b60008251614468818460208701613df3565b919091019291505056fe360894a13ba1a3210667c828492db98dca3e2076cc3735a920a3ca505d382bbc02dd7bc7dec4dceedda775e58dd541e08a116c6c53815c0bd028192f7b626800cd5ed15c6e187e77e9aee88184c21f4f2182ab5827cb3b7e07fbedcd63f03300738128fe393bef1bcd8a524796fff40618b938cd467c71fcf37850ab0ba4f7d7a2646970667358221220a60fe3872bff0a9af9633d5ac612b8ea4bd79a473bfb91919e4e5205fd5fe02d64736f6c634300081b0033",
  "linkReferences": {},
  "deployedLinkReferences": {}
}