{
  "_format": "hh-sol-artifact-1",
  "contractName": "Liquidity",
  "sourceName": "contracts/liquidity/Liquidity.sol",
  "abi": [
    {
      "inputs": [],
      "stateMutability": "nonpayable",
      "type": "constructor"
    },
    {
      "inputs": [],
      "name": "AccessControlBadConfirmation",
      "type": "error"
    },
    {
      "inputs": [
        {
          "internalType": "address",
          "name": "account",
          "type": "address"
        },
        {
          "internalType": "bytes32",
          "name": "neededRole",
          "type": "bytes32"
        }
      ],
      "name": "AccessControlUnauthorizedAccount",
      "type": "error"
    },
    {
      "inputs": [
        {
          "internalType": "address",
          "name": "target",
          "type": "address"
        }
      ],
      "name": "AddressEmptyCode",
      "type": "error"
    },
    {
      "inputs": [],
      "name": "AddressZero",
      "type": "error"
    },
    {
      "inputs": [],
      "name": "AlreadyAnalyzed",
      "type": "error"
    },
    {
      "inputs": [
        {
          "internalType": "bytes32",
          "name": "depositHash",
          "type": "bytes32"
        }
      ],
      "name": "DepositHashAlreadyExists",
      "type": "error"
    },
    {
      "inputs": [
        {
          "internalType": "address",
          "name": "implementation",
          "type": "address"
        }
      ],
      "name": "ERC1967InvalidImplementation",
      "type": "error"
    },
    {
      "inputs": [],
      "name": "ERC1967NonPayable",
      "type": "error"
    },
    {
      "inputs": [],
      "name": "FailedCall",
      "type": "error"
    },
    {
      "inputs": [
        {
          "internalType": "bytes32",
          "name": "depositDataHash",
          "type": "bytes32"
        },
        {
          "internalType": "bytes32",
          "name": "calculatedHash",
          "type": "bytes32"
        }
      ],
      "name": "InvalidDepositHash",
      "type": "error"
    },
    {
      "inputs": [],
      "name": "InvalidInitialization",
      "type": "error"
    },
    {
      "inputs": [],
      "name": "InvalidWithdrawalAddress",
      "type": "error"
    },
    {
      "inputs": [],
      "name": "NotInitializing",
      "type": "error"
    },
    {
      "inputs": [],
      "name": "OnlySenderCanCancelDeposit",
      "type": "error"
    },
    {
      "inputs": [
        {
          "internalType": "address",
          "name": "token",
          "type": "address"
        }
      ],
      "name": "SafeERC20FailedOperation",
      "type": "error"
    },
    {
      "inputs": [],
      "name": "SenderIsNotScrollMessenger",
      "type": "error"
    },
    {
      "inputs": [],
      "name": "TokenAddressIsZero",
      "type": "error"
    },
    {
      "inputs": [
        {
          "internalType": "uint256",
          "name": "upToDepositId",
          "type": "uint256"
        },
        {
          "internalType": "uint256",
          "name": "firstDepositId",
          "type": "uint256"
        },
        {
          "internalType": "uint256",
          "name": "lastDepositId",
          "type": "uint256"
        }
      ],
      "name": "TriedAnalyzeOutOfRange",
      "type": "error"
    },
    {
      "inputs": [],
      "name": "TriedToDepositZero",
      "type": "error"
    },
    {
      "inputs": [
        {
          "internalType": "uint256",
          "name": "rejectIndex",
          "type": "uint256"
        },
        {
          "internalType": "uint256",
          "name": "front",
          "type": "uint256"
        },
        {
          "internalType": "uint256",
          "name": "upToDepositId",
          "type": "uint256"
        }
      ],
      "name": "TriedToRejectOutOfRange",
      "type": "error"
    },
    {
      "inputs": [],
      "name": "UUPSUnauthorizedCallContext",
      "type": "error"
    },
    {
      "inputs": [
        {
          "internalType": "bytes32",
          "name": "slot",
          "type": "bytes32"
        }
      ],
      "name": "UUPSUnsupportedProxiableUUID",
      "type": "error"
    },
    {
      "inputs": [],
      "name": "WithdrawalAddressNotSet",
      "type": "error"
    },
    {
      "inputs": [
        {
          "internalType": "bytes32",
          "name": "withdrawalHash",
          "type": "bytes32"
        }
      ],
      "name": "WithdrawalNotFound",
      "type": "error"
    },
    {
      "anonymous": false,
      "inputs": [
        {
          "indexed": true,
          "internalType": "address",
          "name": "recipient",
          "type": "address"
        },
        {
          "indexed": true,
          "internalType": "bytes32",
          "name": "withdrawalHash",
          "type": "bytes32"
        }
      ],
      "name": "ClaimedWithdrawal",
      "type": "event"
    },
    {
      "anonymous": false,
      "inputs": [
        {
          "indexed": true,
          "internalType": "uint256",
          "name": "depositId",
          "type": "uint256"
        }
      ],
      "name": "DepositCanceled",
      "type": "event"
    },
    {
      "anonymous": false,
      "inputs": [
        {
          "indexed": true,
          "internalType": "uint256",
          "name": "depositId",
          "type": "uint256"
        },
        {
          "indexed": true,
          "internalType": "address",
          "name": "sender",
          "type": "address"
        },
        {
          "indexed": true,
          "internalType": "bytes32",
          "name": "recipientSaltHash",
          "type": "bytes32"
        },
        {
          "indexed": false,
          "internalType": "uint32",
          "name": "tokenIndex",
          "type": "uint32"
        },
        {
          "indexed": false,
          "internalType": "uint256",
          "name": "amount",
          "type": "uint256"
        },
        {
          "indexed": false,
          "internalType": "uint256",
          "name": "depositedAt",
          "type": "uint256"
        }
      ],
      "name": "Deposited",
      "type": "event"
    },
    {
      "anonymous": false,
      "inputs": [
        {
          "indexed": true,
          "internalType": "uint256",
          "name": "upToDepositId",
          "type": "uint256"
        },
        {
          "indexed": false,
          "internalType": "uint256[]",
          "name": "rejectedIndices",
          "type": "uint256[]"
        },
        {
          "indexed": false,
          "internalType": "uint256",
          "name": "gasLimit",
          "type": "uint256"
        },
        {
          "indexed": false,
          "internalType": "bytes",
          "name": "message",
          "type": "bytes"
        }
      ],
      "name": "DepositsAnalyzedAndRelayed",
      "type": "event"
    },
    {
      "anonymous": false,
      "inputs": [
        {
          "indexed": true,
          "internalType": "bytes32",
          "name": "withdrawalHash",
          "type": "bytes32"
        },
        {
          "components": [
            {
              "internalType": "address",
              "name": "recipient",
              "type": "address"
            },
            {
              "internalType": "uint32",
              "name": "tokenIndex",
              "type": "uint32"
            },
            {
              "internalType": "uint256",
              "name": "amount",
              "type": "uint256"
            },
            {
              "internalType": "bytes32",
              "name": "nullifier",
              "type": "bytes32"
            }
          ],
          "indexed": false,
          "internalType": "struct WithdrawalLib.Withdrawal",
          "name": "withdrawal",
          "type": "tuple"
        }
      ],
      "name": "DirectWithdrawalFailed",
      "type": "event"
    },
    {
      "anonymous": false,
      "inputs": [
        {
          "indexed": true,
          "internalType": "bytes32",
          "name": "withdrawalHash",
          "type": "bytes32"
        },
        {
          "indexed": true,
          "internalType": "address",
          "name": "recipient",
          "type": "address"
        }
      ],
      "name": "DirectWithdrawalSuccessed",
      "type": "event"
    },
    {
      "anonymous": false,
      "inputs": [
        {
          "indexed": false,
          "internalType": "uint64",
          "name": "version",
          "type": "uint64"
        }
      ],
      "name": "Initialized",
      "type": "event"
    },
    {
      "anonymous": false,
      "inputs": [
        {
          "indexed": true,
          "internalType": "bytes32",
          "name": "role",
          "type": "bytes32"
        },
        {
          "indexed": true,
          "internalType": "bytes32",
          "name": "previousAdminRole",
          "type": "bytes32"
        },
        {
          "indexed": true,
          "internalType": "bytes32",
          "name": "newAdminRole",
          "type": "bytes32"
        }
      ],
      "name": "RoleAdminChanged",
      "type": "event"
    },
    {
      "anonymous": false,
      "inputs": [
        {
          "indexed": true,
          "internalType": "bytes32",
          "name": "role",
          "type": "bytes32"
        },
        {
          "indexed": true,
          "internalType": "address",
          "name": "account",
          "type": "address"
        },
        {
          "indexed": true,
          "internalType": "address",
          "name": "sender",
          "type": "address"
        }
      ],
      "name": "RoleGranted",
      "type": "event"
    },
    {
      "anonymous": false,
      "inputs": [
        {
          "indexed": true,
          "internalType": "bytes32",
          "name": "role",
          "type": "bytes32"
        },
        {
          "indexed": true,
          "internalType": "address",
          "name": "account",
          "type": "address"
        },
        {
          "indexed": true,
          "internalType": "address",
          "name": "sender",
          "type": "address"
        }
      ],
      "name": "RoleRevoked",
      "type": "event"
    },
    {
      "anonymous": false,
      "inputs": [
        {
          "indexed": true,
          "internalType": "address",
          "name": "implementation",
          "type": "address"
        }
      ],
      "name": "Upgraded",
      "type": "event"
    },
    {
      "anonymous": false,
      "inputs": [
        {
          "indexed": true,
          "internalType": "bytes32",
          "name": "withdrawalHash",
          "type": "bytes32"
        }
      ],
      "name": "WithdrawalClaimable",
      "type": "event"
    },
    {
      "inputs": [],
      "name": "ANALYZER",
      "outputs": [
        {
          "internalType": "bytes32",
          "name": "",
          "type": "bytes32"
        }
      ],
      "stateMutability": "view",
      "type": "function"
    },
    {
      "inputs": [],
      "name": "DEFAULT_ADMIN_ROLE",
      "outputs": [
        {
          "internalType": "bytes32",
          "name": "",
          "type": "bytes32"
        }
      ],
      "stateMutability": "view",
      "type": "function"
    },
    {
      "inputs": [],
      "name": "UPGRADE_INTERFACE_VERSION",
      "outputs": [
        {
          "internalType": "string",
          "name": "",
          "type": "string"
        }
      ],
      "stateMutability": "view",
      "type": "function"
    },
    {
      "inputs": [
        {
          "internalType": "uint256",
          "name": "upToDepositId",
          "type": "uint256"
        },
        {
          "internalType": "uint256[]",
          "name": "rejectDepositIds",
          "type": "uint256[]"
        },
        {
          "internalType": "uint256",
          "name": "gasLimit",
          "type": "uint256"
        }
      ],
      "name": "analyzeAndRelayDeposits",
      "outputs": [],
      "stateMutability": "payable",
      "type": "function"
    },
    {
      "inputs": [
        {
          "internalType": "uint256",
          "name": "depositId",
          "type": "uint256"
        },
        {
          "components": [
            {
              "internalType": "bytes32",
              "name": "recipientSaltHash",
              "type": "bytes32"
            },
            {
              "internalType": "uint32",
              "name": "tokenIndex",
              "type": "uint32"
            },
            {
              "internalType": "uint256",
              "name": "amount",
              "type": "uint256"
            }
          ],
          "internalType": "struct DepositLib.Deposit",
          "name": "deposit",
          "type": "tuple"
        }
      ],
      "name": "cancelDeposit",
      "outputs": [],
      "stateMutability": "nonpayable",
      "type": "function"
    },
    {
      "inputs": [
        {
          "components": [
            {
              "internalType": "address",
              "name": "recipient",
              "type": "address"
            },
            {
              "internalType": "uint32",
              "name": "tokenIndex",
              "type": "uint32"
            },
            {
              "internalType": "uint256",
              "name": "amount",
              "type": "uint256"
            },
            {
              "internalType": "bytes32",
              "name": "nullifier",
              "type": "bytes32"
            }
          ],
          "internalType": "struct WithdrawalLib.Withdrawal[]",
          "name": "withdrawals",
          "type": "tuple[]"
        }
      ],
      "name": "claimWithdrawals",
      "outputs": [],
      "stateMutability": "nonpayable",
      "type": "function"
    },
    {
      "inputs": [
        {
          "internalType": "bytes32",
          "name": "",
          "type": "bytes32"
        }
      ],
      "name": "claimableWithdrawals",
      "outputs": [
        {
          "internalType": "uint256",
          "name": "",
          "type": "uint256"
        }
      ],
      "stateMutability": "view",
      "type": "function"
    },
    {
      "inputs": [
        {
          "internalType": "address",
          "name": "tokenAddress",
          "type": "address"
        },
        {
          "internalType": "bytes32",
          "name": "recipientSaltHash",
          "type": "bytes32"
        },
        {
          "internalType": "uint256",
          "name": "tokenId",
          "type": "uint256"
        },
        {
          "internalType": "uint256",
          "name": "amount",
          "type": "uint256"
        }
      ],
      "name": "depositERC1155",
      "outputs": [],
      "stateMutability": "nonpayable",
      "type": "function"
    },
    {
      "inputs": [
        {
          "internalType": "address",
          "name": "tokenAddress",
          "type": "address"
        },
        {
          "internalType": "bytes32",
          "name": "recipientSaltHash",
          "type": "bytes32"
        },
        {
          "internalType": "uint256",
          "name": "amount",
          "type": "uint256"
        }
      ],
      "name": "depositERC20",
      "outputs": [],
      "stateMutability": "nonpayable",
      "type": "function"
    },
    {
      "inputs": [
        {
          "internalType": "address",
          "name": "tokenAddress",
          "type": "address"
        },
        {
          "internalType": "bytes32",
          "name": "recipientSaltHash",
          "type": "bytes32"
        },
        {
          "internalType": "uint256",
          "name": "tokenId",
          "type": "uint256"
        }
      ],
      "name": "depositERC721",
      "outputs": [],
      "stateMutability": "nonpayable",
      "type": "function"
    },
    {
      "inputs": [
        {
          "internalType": "bytes32",
          "name": "recipientSaltHash",
          "type": "bytes32"
        }
      ],
      "name": "depositNativeToken",
      "outputs": [],
      "stateMutability": "payable",
      "type": "function"
    },
    {
      "inputs": [
        {
          "internalType": "uint256",
          "name": "depositId",
          "type": "uint256"
        }
      ],
      "name": "getDepositData",
      "outputs": [
        {
          "components": [
            {
              "internalType": "bytes32",
              "name": "depositHash",
              "type": "bytes32"
            },
            {
              "internalType": "address",
              "name": "sender",
              "type": "address"
            },
            {
              "internalType": "bool",
              "name": "isRejected",
              "type": "bool"
            }
          ],
          "internalType": "struct DepositQueueLib.DepositData",
          "name": "",
          "type": "tuple"
        }
      ],
      "stateMutability": "view",
      "type": "function"
    },
    {
      "inputs": [
        {
          "internalType": "uint256[]",
          "name": "depositIds",
          "type": "uint256[]"
        }
      ],
      "name": "getDepositDataBatch",
      "outputs": [
        {
          "components": [
            {
              "internalType": "bytes32",
              "name": "depositHash",
              "type": "bytes32"
            },
            {
              "internalType": "address",
              "name": "sender",
              "type": "address"
            },
            {
              "internalType": "bool",
              "name": "isRejected",
              "type": "bool"
            }
          ],
          "internalType": "struct DepositQueueLib.DepositData[]",
          "name": "",
          "type": "tuple[]"
        }
      ],
      "stateMutability": "view",
      "type": "function"
    },
    {
      "inputs": [
        {
          "internalType": "uint256",
          "name": "depositId",
          "type": "uint256"
        }
      ],
      "name": "getDepositDataHash",
      "outputs": [
        {
          "internalType": "bytes32",
          "name": "",
          "type": "bytes32"
        }
      ],
      "stateMutability": "view",
      "type": "function"
    },
    {
      "inputs": [],
      "name": "getLastDepositId",
      "outputs": [
        {
          "internalType": "uint256",
          "name": "",
          "type": "uint256"
        }
      ],
      "stateMutability": "view",
      "type": "function"
    },
    {
      "inputs": [],
      "name": "getLastRelayedDepositId",
      "outputs": [
        {
          "internalType": "uint256",
          "name": "",
          "type": "uint256"
        }
      ],
      "stateMutability": "view",
      "type": "function"
    },
    {
      "inputs": [],
      "name": "getNativeTokenIndex",
      "outputs": [
        {
          "internalType": "uint32",
          "name": "",
          "type": "uint32"
        }
      ],
      "stateMutability": "pure",
      "type": "function"
    },
    {
      "inputs": [
        {
          "internalType": "bytes32",
          "name": "role",
          "type": "bytes32"
        }
      ],
      "name": "getRoleAdmin",
      "outputs": [
        {
          "internalType": "bytes32",
          "name": "",
          "type": "bytes32"
        }
      ],
      "stateMutability": "view",
      "type": "function"
    },
    {
      "inputs": [
        {
          "internalType": "enum ITokenData.TokenType",
          "name": "tokenType",
          "type": "uint8"
        },
        {
          "internalType": "address",
          "name": "tokenAddress",
          "type": "address"
        },
        {
          "internalType": "uint256",
          "name": "tokenId",
          "type": "uint256"
        }
      ],
      "name": "getTokenIndex",
      "outputs": [
        {
          "internalType": "bool",
          "name": "",
          "type": "bool"
        },
        {
          "internalType": "uint32",
          "name": "",
          "type": "uint32"
        }
      ],
      "stateMutability": "view",
      "type": "function"
    },
    {
      "inputs": [
        {
          "internalType": "uint32",
          "name": "tokenIndex",
          "type": "uint32"
        }
      ],
      "name": "getTokenInfo",
      "outputs": [
        {
          "components": [
            {
              "internalType": "enum ITokenData.TokenType",
              "name": "tokenType",
              "type": "uint8"
            },
            {
              "internalType": "address",
              "name": "tokenAddress",
              "type": "address"
            },
            {
              "internalType": "uint256",
              "name": "tokenId",
              "type": "uint256"
            }
          ],
          "internalType": "struct ITokenData.TokenInfo",
          "name": "",
          "type": "tuple"
        }
      ],
      "stateMutability": "view",
      "type": "function"
    },
    {
      "inputs": [
        {
          "internalType": "bytes32",
          "name": "role",
          "type": "bytes32"
        },
        {
          "internalType": "address",
          "name": "account",
          "type": "address"
        }
      ],
      "name": "grantRole",
      "outputs": [],
      "stateMutability": "nonpayable",
      "type": "function"
    },
    {
      "inputs": [
        {
          "internalType": "bytes32",
          "name": "role",
          "type": "bytes32"
        },
        {
          "internalType": "address",
          "name": "account",
          "type": "address"
        }
      ],
      "name": "hasRole",
      "outputs": [
        {
          "internalType": "bool",
          "name": "",
          "type": "bool"
        }
      ],
      "stateMutability": "view",
      "type": "function"
    },
    {
      "inputs": [
        {
          "internalType": "address",
          "name": "_admin",
          "type": "address"
        },
        {
          "internalType": "address",
          "name": "_l1ScrollMessenger",
          "type": "address"
        },
        {
          "internalType": "address",
          "name": "_rollup",
          "type": "address"
        },
        {
          "internalType": "address",
          "name": "_withdrawal",
          "type": "address"
        },
        {
          "internalType": "address",
          "name": "_analyzer",
          "type": "address"
        },
        {
          "internalType": "address",
          "name": "_contribution",
          "type": "address"
        },
        {
          "internalType": "address[]",
          "name": "initialERC20Tokens",
          "type": "address[]"
        }
      ],
      "name": "initialize",
      "outputs": [],
      "stateMutability": "nonpayable",
      "type": "function"
    },
    {
      "inputs": [
        {
          "internalType": "uint256",
          "name": "depositId",
          "type": "uint256"
        },
        {
          "internalType": "bytes32",
          "name": "recipientSaltHash",
          "type": "bytes32"
        },
        {
          "internalType": "uint32",
          "name": "tokenIndex",
          "type": "uint32"
        },
        {
          "internalType": "uint256",
          "name": "amount",
          "type": "uint256"
        },
        {
          "internalType": "address",
          "name": "sender",
          "type": "address"
        }
      ],
      "name": "isDepositValid",
      "outputs": [
        {
          "internalType": "bool",
          "name": "",
          "type": "bool"
        }
      ],
      "stateMutability": "view",
      "type": "function"
    },
    {
      "inputs": [
        {
          "internalType": "address",
          "name": "",
          "type": "address"
        },
        {
          "internalType": "address",
          "name": "",
          "type": "address"
        },
        {
          "internalType": "uint256",
          "name": "",
          "type": "uint256"
        },
        {
          "internalType": "uint256",
          "name": "",
          "type": "uint256"
        },
        {
          "internalType": "bytes",
          "name": "",
          "type": "bytes"
        }
      ],
      "name": "onERC1155Received",
      "outputs": [
        {
          "internalType": "bytes4",
          "name": "",
          "type": "bytes4"
        }
      ],
      "stateMutability": "pure",
      "type": "function"
    },
    {
      "inputs": [
        {
          "components": [
            {
              "internalType": "address",
              "name": "recipient",
              "type": "address"
            },
            {
              "internalType": "uint32",
              "name": "tokenIndex",
              "type": "uint32"
            },
            {
              "internalType": "uint256",
              "name": "amount",
              "type": "uint256"
            },
            {
              "internalType": "bytes32",
              "name": "nullifier",
              "type": "bytes32"
            }
          ],
          "internalType": "struct WithdrawalLib.Withdrawal[]",
          "name": "withdrawals",
          "type": "tuple[]"
        },
        {
          "internalType": "bytes32[]",
          "name": "withdrawalHashes",
          "type": "bytes32[]"
        }
      ],
      "name": "processWithdrawals",
      "outputs": [],
      "stateMutability": "nonpayable",
      "type": "function"
    },
    {
      "inputs": [],
      "name": "proxiableUUID",
      "outputs": [
        {
          "internalType": "bytes32",
          "name": "",
          "type": "bytes32"
        }
      ],
      "stateMutability": "view",
      "type": "function"
    },
    {
      "inputs": [
        {
          "internalType": "bytes32",
          "name": "role",
          "type": "bytes32"
        },
        {
          "internalType": "address",
          "name": "callerConfirmation",
          "type": "address"
        }
      ],
      "name": "renounceRole",
      "outputs": [],
      "stateMutability": "nonpayable",
      "type": "function"
    },
    {
      "inputs": [
        {
          "internalType": "bytes32",
          "name": "role",
          "type": "bytes32"
        },
        {
          "internalType": "address",
          "name": "account",
          "type": "address"
        }
      ],
      "name": "revokeRole",
      "outputs": [],
      "stateMutability": "nonpayable",
      "type": "function"
    },
    {
      "inputs": [
        {
          "internalType": "bytes4",
          "name": "interfaceId",
          "type": "bytes4"
        }
      ],
      "name": "supportsInterface",
      "outputs": [
        {
          "internalType": "bool",
          "name": "",
          "type": "bool"
        }
      ],
      "stateMutability": "view",
      "type": "function"
    },
    {
      "inputs": [
        {
          "internalType": "address",
          "name": "newImplementation",
          "type": "address"
        },
        {
          "internalType": "bytes",
          "name": "data",
          "type": "bytes"
        }
      ],
      "name": "upgradeToAndCall",
      "outputs": [],
      "stateMutability": "payable",
      "type": "function"
    }
  ],
  "bytecode": "0x60a06040523073ffffffffffffffffffffffffffffffffffffffff1660809073ffffffffffffffffffffffffffffffffffffffff1681525034801561004357600080fd5b5061005261005760201b60201c565b6101c1565b600061006761015b60201b60201c565b90508060000160089054906101000a900460ff16156100b2576040517ff92ee8a900000000000000000000000000000000000000000000000000000000815260040160405180910390fd5b67ffffffffffffffff80168160000160009054906101000a900467ffffffffffffffff1667ffffffffffffffff16146101585767ffffffffffffffff8160000160006101000a81548167ffffffffffffffff021916908367ffffffffffffffff1602179055507fc7f505b2f371ae2175ee4913f4499e1f2633a7b5936321eed1cdaeb6115181d267ffffffffffffffff60405161014f91906101a6565b60405180910390a15b50565b60007ff0c57e16840df040f15088dc2f81fe391c3923bec73e23a9662efc9c229c6a00905090565b600067ffffffffffffffff82169050919050565b6101a081610183565b82525050565b60006020820190506101bb6000830184610197565b92915050565b6080516155086101ea600039600081816121fb01528181612250015261241101526155086000f3fe6080604052600436106101d85760003560e01c80636ef5475b11610102578063ad3cb1cc11610095578063dd9ea29911610064578063dd9ea299146106d7578063e579fa2b14610702578063f23a6e611461073f578063ffd553321461077c576101d8565b8063ad3cb1cc14610609578063c13819b614610634578063cbd90cd014610671578063d547741f146106ae576101d8565b8063986be0e2116100d1578063986be0e21461054f5780639d6a54cb1461058c5780639f401f58146105b5578063a217fddf146105de576101d8565b80636ef5475b14610497578063788c2ecf146104c057806391d14854146104e957806391f69b7d14610526576101d8565b80632f2ff15d1161017a5780634f1ef286116101495780634f1ef2861461040957806352d1902d146104255780635362485e14610450578063675178371461046c576101d8565b80632f2ff15d1461035057806336568abe14610379578063381175f6146103a257806342a82b4f146103e0576101d8565b8063219cd263116101b6578063219cd26314610282578063232c1c8a146102ad578063248a9ca3146102ea57806326fc02dd14610327576101d8565b806301ffc9a7146101dd5780630c0b59b91461021a578063117cbe2614610245575b600080fd5b3480156101e957600080fd5b5061020460048036038101906101ff9190613bd1565b610798565b6040516102119190613c19565b60405180910390f35b34801561022657600080fd5b5061022f610812565b60405161023c9190613c4d565b60405180910390f35b34801561025157600080fd5b5061026c60048036038101906102679190613d64565b610836565b6040516102799190613c19565b60405180910390f35b34801561028e57600080fd5b50610297610990565b6040516102a49190613dee565b60405180910390f35b3480156102b957600080fd5b506102d460048036038101906102cf9190613f62565b610995565b6040516102e191906140c9565b60405180910390f35b3480156102f657600080fd5b50610311600480360381019061030c91906140eb565b610af6565b60405161031e9190613c4d565b60405180910390f35b34801561033357600080fd5b5061034e60048036038101906103499190614118565b610b24565b005b34801561035c57600080fd5b506103776004803603810190610372919061417f565b610c11565b005b34801561038557600080fd5b506103a0600480360381019061039b919061417f565b610c33565b005b3480156103ae57600080fd5b506103c960048036038101906103c491906141e4565b610cae565b6040516103d7929190614237565b60405180910390f35b3480156103ec57600080fd5b5061040760048036038101906104029190614323565b610eda565b005b610423600480360381019061041e9190614496565b6111c6565b005b34801561043157600080fd5b5061043a6111e5565b6040516104479190613c4d565b60405180910390f35b61046a600480360381019061046591906144f2565b611218565b005b34801561047857600080fd5b506104816113dc565b60405161048e9190614570565b60405180910390f35b3480156104a357600080fd5b506104be60048036038101906104b991906145f4565b6113f5565b005b3480156104cc57600080fd5b506104e760048036038101906104e29190614634565b61163c565b005b3480156104f557600080fd5b50610510600480360381019061050b919061417f565b6116d4565b60405161051d9190613c19565b60405180910390f35b34801561053257600080fd5b5061054d600480360381019061054891906146e2565b61174d565b005b34801561055b57600080fd5b506105766004803603810190610571919061472f565b611893565b6040516105839190613c4d565b60405180910390f35b34801561059857600080fd5b506105b360048036038101906105ae91906147b2565b6118c5565b005b3480156105c157600080fd5b506105dc60048036038101906105d79190614634565b6118df565b005b3480156105ea57600080fd5b506105f361197f565b6040516106009190613c4d565b60405180910390f35b34801561061557600080fd5b5061061e611986565b60405161062b91906148b2565b60405180910390f35b34801561064057600080fd5b5061065b6004803603810190610656919061472f565b6119bf565b6040516106689190614916565b60405180910390f35b34801561067d57600080fd5b5061069860048036038101906106939190614931565b611a79565b6040516106a59190614a26565b60405180910390f35b3480156106ba57600080fd5b506106d560048036038101906106d0919061417f565b611b56565b005b3480156106e357600080fd5b506106ec611b78565b6040516106f99190614570565b60405180910390f35b34801561070e57600080fd5b50610729600480360381019061072491906140eb565b611b94565b6040516107369190614570565b60405180910390f35b34801561074b57600080fd5b5061076660048036038101906107619190614a97565b611bac565b6040516107739190614b40565b60405180910390f35b610796600480360381019061079191906140eb565b611bc2565b005b60007f7965db0b000000000000000000000000000000000000000000000000000000007bffffffffffffffffffffffffffffffffffffffffffffffffffffffff1916827bffffffffffffffffffffffffffffffffffffffffffffffffffffffff1916148061080b575061080a82611c1f565b5b9050919050565b7fe5002bd16ffc71462a6c1c19eaf55e254c97864c770378b6f68c1a085231514a81565b600080600960000187815481106108505761084f614b5b565b5b9060005260206000209060020201604051806060016040529081600082015481526020016001820160009054906101000a900473ffffffffffffffffffffffffffffffffffffffff1673ffffffffffffffffffffffffffffffffffffffff1673ffffffffffffffffffffffffffffffffffffffff1681526020016001820160149054906101000a900460ff1615151515815250509050600061091160405180606001604052808981526020018863ffffffff16815260200187815250611c89565b90508082600001511461092957600092505050610987565b8373ffffffffffffffffffffffffffffffffffffffff16826020015173ffffffffffffffffffffffffffffffffffffffff161461096b57600092505050610987565b81604001511561098057600092505050610987565b6001925050505b95945050505050565b600090565b60606000825167ffffffffffffffff8111156109b4576109b3613e1f565b5b6040519080825280602002602001820160405280156109ed57816020015b6109da613ae0565b8152602001906001900390816109d25790505b50905060005b8351811015610aec576009600001848281518110610a1457610a13614b5b565b5b602002602001015181548110610a2d57610a2c614b5b565b5b9060005260206000209060020201604051806060016040529081600082015481526020016001820160009054906101000a900473ffffffffffffffffffffffffffffffffffffffff1673ffffffffffffffffffffffffffffffffffffffff1673ffffffffffffffffffffffffffffffffffffffff1681526020016001820160149054906101000a900460ff161515151581525050828281518110610ad457610ad3614b5b565b5b602002602001018190525080806001019150506109f3565b5080915050919050565b600080610b01611cc9565b905080600001600084815260200190815260200160002060010154915050919050565b60008103610b5e576040517f94fe88d900000000000000000000000000000000000000000000000000000000815260040160405180910390fd5b8373ffffffffffffffffffffffffffffffffffffffff1663f242432a610b82611cf1565b308585604051806020016040528060008152506040518663ffffffff1660e01b8152600401610bb5959493929190614bee565b600060405180830381600087803b158015610bcf57600080fd5b505af1158015610be3573d6000803e3d6000fd5b505050506000610bf560038685611cf9565b9050610c0a610c02611cf1565b858385611d34565b5050505050565b610c1a82610af6565b610c2381611e66565b610c2d8383611e7a565b50505050565b610c3b611cf1565b73ffffffffffffffffffffffffffffffffffffffff168173ffffffffffffffffffffffffffffffffffffffff1614610c9f576040517f6697b23200000000000000000000000000000000000000000000000000000000815260040160405180910390fd5b610ca98282611f7b565b505050565b60008060006003811115610cc557610cc461495e565b5b856003811115610cd857610cd761495e565b5b03610cea576001600091509150610ed2565b600073ffffffffffffffffffffffffffffffffffffffff168473ffffffffffffffffffffffffffffffffffffffff1603610d50576040517fdc2e5e8d00000000000000000000000000000000000000000000000000000000815260040160405180910390fd5b60016003811115610d6457610d6361495e565b5b856003811115610d7757610d7661495e565b5b03610ded576000600160008673ffffffffffffffffffffffffffffffffffffffff1673ffffffffffffffffffffffffffffffffffffffff16815260200190815260200160002060009054906101000a900463ffffffff16905060008163ffffffff1614610deb576001819250925050610ed2565b505b60026003811115610e0157610e0061495e565b5b856003811115610e1457610e1361495e565b5b1480610e435750600380811115610e2e57610e2d61495e565b5b856003811115610e4157610e4061495e565b5b145b15610eca576000600260008673ffffffffffffffffffffffffffffffffffffffff1673ffffffffffffffffffffffffffffffffffffffff168152602001908152602001600020600085815260200190815260200160002060009054906101000a900463ffffffff16905060008163ffffffff1614610ec8576001819250925050610ed2565b505b600080915091505b935093915050565b6000610ee461207d565b905060008160000160089054906101000a900460ff1615905060008260000160009054906101000a900467ffffffffffffffff1690506000808267ffffffffffffffff16148015610f325750825b9050600060018367ffffffffffffffff16148015610f67575060003073ffffffffffffffffffffffffffffffffffffffff163b145b905081158015610f75575080155b15610fac576040517ff92ee8a900000000000000000000000000000000000000000000000000000000815260040160405180910390fd5b60018560000160006101000a81548167ffffffffffffffff021916908367ffffffffffffffff1602179055508315610ffc5760018560000160086101000a81548160ff0219169083151502179055505b6110096000801b8d611e7a565b506110347fe5002bd16ffc71462a6c1c19eaf55e254c97864c770378b6f68c1a085231514a89611e7a565b5061103d6120a5565b6110456120af565b61104e866120b9565b6110586009612114565b8a600360006101000a81548173ffffffffffffffffffffffffffffffffffffffff021916908373ffffffffffffffffffffffffffffffffffffffff16021790555086600460006101000a81548173ffffffffffffffffffffffffffffffffffffffff021916908373ffffffffffffffffffffffffffffffffffffffff16021790555089600560006101000a81548173ffffffffffffffffffffffffffffffffffffffff021916908373ffffffffffffffffffffffffffffffffffffffff16021790555088600660006101000a81548173ffffffffffffffffffffffffffffffffffffffff021916908373ffffffffffffffffffffffffffffffffffffffff16021790555083156111b85760008560000160086101000a81548160ff0219169083151502179055507fc7f505b2f371ae2175ee4913f4499e1f2633a7b5936321eed1cdaeb6115181d260016040516111af9190614ca1565b60405180910390a15b505050505050505050505050565b6111ce6121f9565b6111d7826122df565b6111e182826122f0565b5050565b60006111ef61240f565b7f360894a13ba1a3210667c828492db98dca3e2076cc3735a920a3ca505d382bbc60001b905090565b7fe5002bd16ffc71462a6c1c19eaf55e254c97864c770378b6f68c1a085231514a61124281611e66565b600061125a858560096124969092919063ffffffff16565b9050600063f03efa3760e01b8683604051602401611279929190614d6b565b604051602081830303815290604052907bffffffffffffffffffffffffffffffffffffffffffffffffffffffff19166020820180517bffffffffffffffffffffffffffffffffffffffffffffffffffffffff83818316178352505050509050600360009054906101000a900473ffffffffffffffffffffffffffffffffffffffff1673ffffffffffffffffffffffffffffffffffffffff16635f7b157734600560009054906101000a900473ffffffffffffffffffffffffffffffffffffffff1660008589611346611cf1565b6040518763ffffffff1660e01b8152600401611366959493929190614dd6565b6000604051808303818588803b15801561137f57600080fd5b505af1158015611393573d6000803e3d6000fd5b5050505050857f2f41e147f23b2fb60bd8f0c0f016c37b7eeff712415ba8c2d60f846be3b098e68686846040516113cc93929190614edf565b60405180910390a2505050505050565b600060016009600101546113f09190614f53565b905090565b81816000600960000183815481106114105761140f614b5b565b5b9060005260206000209060020201604051806060016040529081600082015481526020016001820160009054906101000a900473ffffffffffffffffffffffffffffffffffffffff1673ffffffffffffffffffffffffffffffffffffffff1673ffffffffffffffffffffffffffffffffffffffff1681526020016001820160149054906101000a900460ff16151515158152505090506114ae611cf1565b73ffffffffffffffffffffffffffffffffffffffff16816020015173ffffffffffffffffffffffffffffffffffffffff1614611516576040517f8b2ea0f800000000000000000000000000000000000000000000000000000000815260040160405180910390fd5b600061152183611c89565b905080826000015114611571578160000151816040517f7be225b6000000000000000000000000000000000000000000000000000000008152600401611568929190614f87565b60405180910390fd5b6115796113dc565b84116115bb5781604001516115ba576040517f643710d400000000000000000000000000000000000000000000000000000000815260040160405180910390fd5b5b60006115d187600961285f90919063ffffffff16565b905060006115e28760200151611a79565b90506116058160000151826020015184602001518a604001518560400151612983565b877f0c1c0787650562778c282502dfd6dcea2fb79d23783920aa18aee36b4aa3dc4860405160405180910390a25050505050505050565b60008103611676576040517f94fe88d900000000000000000000000000000000000000000000000000000000815260040160405180910390fd5b6116aa611681611cf1565b30838673ffffffffffffffffffffffffffffffffffffffff16612b83909392919063ffffffff16565b60006116b96001856000611cf9565b90506116ce6116c6611cf1565b848385611d34565b50505050565b6000806116df611cc9565b905080600001600085815260200190815260200160002060000160008473ffffffffffffffffffffffffffffffffffffffff1673ffffffffffffffffffffffffffffffffffffffff16815260200190815260200160002060009054906101000a900460ff1691505092915050565b60005b8282905081101561188e5760008383838181106117705761176f614b5b565b5b9050608002018036038101906117869190615028565b9050600061179382612c05565b905060006007600083815260200190815260200160002054036117ed57806040517f60737bc00000000000000000000000000000000000000000000000000000000081526004016117e49190613c4d565b60405180910390fd5b60006117fc8360200151611a79565b9050600760008381526020019081526020016000206000905561183681600001518260200151856000015186604001518560400151612983565b81836000015173ffffffffffffffffffffffffffffffffffffffff167f0575467d13f5ab9174f470cec96623374b05cf4b19a3c83a4bfca523e243ab0460405160405180910390a35050508080600101915050611750565b505050565b6000600960000182815481106118ac576118ab614b5b565b5b9060005260206000209060020201600001549050919050565b6118cf8484612c4b565b6118d98282612d5d565b50505050565b8273ffffffffffffffffffffffffffffffffffffffff166323b872dd611903611cf1565b30846040518463ffffffff1660e01b815260040161192393929190615055565b600060405180830381600087803b15801561193d57600080fd5b505af1158015611951573d6000803e3d6000fd5b50505050600061196360028584611cf9565b9050611979611970611cf1565b84836001611d34565b50505050565b6000801b81565b6040518060400160405280600581526020017f352e302e3000000000000000000000000000000000000000000000000000000081525081565b6119c7613ae0565b600960000182815481106119de576119dd614b5b565b5b9060005260206000209060020201604051806060016040529081600082015481526020016001820160009054906101000a900473ffffffffffffffffffffffffffffffffffffffff1673ffffffffffffffffffffffffffffffffffffffff1673ffffffffffffffffffffffffffffffffffffffff1681526020016001820160149054906101000a900460ff1615151515815250509050919050565b611a81613b1c565b60008263ffffffff1681548110611a9b57611a9a614b5b565b5b90600052602060002090600202016040518060600160405290816000820160009054906101000a900460ff166003811115611ad957611ad861495e565b5b6003811115611aeb57611aea61495e565b5b81526020016000820160019054906101000a900473ffffffffffffffffffffffffffffffffffffffff1673ffffffffffffffffffffffffffffffffffffffff1673ffffffffffffffffffffffffffffffffffffffff1681526020016001820154815250509050919050565b611b5f82610af6565b611b6881611e66565b611b728383611f7b565b50505050565b60006001600960000180549050611b8f9190614f53565b905090565b60076020528060005260406000206000915090505481565b600063f23a6e6160e01b90509695505050505050565b60003403611bfc576040517f94fe88d900000000000000000000000000000000000000000000000000000000815260040160405180910390fd5b6000611c06610990565b9050611c1b611c13611cf1565b838334611d34565b5050565b60007f01ffc9a7000000000000000000000000000000000000000000000000000000007bffffffffffffffffffffffffffffffffffffffffffffffffffffffff1916827bffffffffffffffffffffffffffffffffffffffffffffffffffffffff1916149050919050565b6000816000015182602001518360400151604051602001611cac93929190615104565b604051602081830303815290604052805190602001209050919050565b60007f02dd7bc7dec4dceedda775e58dd541e08a116c6c53815c0bd028192f7b626800905090565b600033905090565b6000806000611d09868686610cae565b915091508115611d1d578092505050611d2d565b611d28868686612eb5565b925050505b9392505050565b6000611d5f60405180606001604052808681526020018563ffffffff16815260200184815250611c89565b90506008600082815260200190815260200160002060009054906101000a900460ff1615611dc457806040517fbff0e9e7000000000000000000000000000000000000000000000000000000008152600401611dbb9190613c4d565b60405180910390fd5b60016008600083815260200190815260200160002060006101000a81548160ff0219169083151502179055506000611e08828760096131b89092919063ffffffff16565b9050848673ffffffffffffffffffffffffffffffffffffffff16827f1e88950eef3c1bd8dd83d765aec1f21f34ca153104f0acd7a6218bf8f48e8410878742604051611e5693929190615141565b60405180910390a4505050505050565b611e7781611e72611cf1565b61329f565b50565b600080611e85611cc9565b9050611e9184846116d4565b611f6f57600181600001600086815260200190815260200160002060000160008573ffffffffffffffffffffffffffffffffffffffff1673ffffffffffffffffffffffffffffffffffffffff16815260200190815260200160002060006101000a81548160ff021916908315150217905550611f0b611cf1565b73ffffffffffffffffffffffffffffffffffffffff168373ffffffffffffffffffffffffffffffffffffffff16857f2f8788117e7eff1d82e926ec794901d17c78024a50270940304540a733656f0d60405160405180910390a46001915050611f75565b60009150505b92915050565b600080611f86611cc9565b9050611f9284846116d4565b1561207157600081600001600086815260200190815260200160002060000160008573ffffffffffffffffffffffffffffffffffffffff1673ffffffffffffffffffffffffffffffffffffffff16815260200190815260200160002060006101000a81548160ff02191690831515021790555061200d611cf1565b73ffffffffffffffffffffffffffffffffffffffff168373ffffffffffffffffffffffffffffffffffffffff16857ff6391f5c32d9c69d2a47ea670b442974b53935d1edc7fd64eb21e047a839171b60405160405180910390a46001915050612077565b60009150505b92915050565b60007ff0c57e16840df040f15088dc2f81fe391c3923bec73e23a9662efc9c229c6a00905090565b6120ad6132f0565b565b6120b76132f0565b565b6120c16132f0565b6120ce6000806000612eb5565b5060005b81518110156121105761210260018383815181106120f3576120f2614b5b565b5b60200260200101516000612eb5565b5080806001019150506120d2565b5050565b8060000160405180606001604052806000801b8152602001600073ffffffffffffffffffffffffffffffffffffffff1681526020016000151581525090806001815401808255809150506001900390600052602060002090600202016000909190919091506000820151816000015560208201518160010160006101000a81548173ffffffffffffffffffffffffffffffffffffffff021916908373ffffffffffffffffffffffffffffffffffffffff16021790555060408201518160010160146101000a81548160ff02191690831515021790555050506001816001018190555050565b7f000000000000000000000000000000000000000000000000000000000000000073ffffffffffffffffffffffffffffffffffffffff163073ffffffffffffffffffffffffffffffffffffffff1614806122a657507f000000000000000000000000000000000000000000000000000000000000000073ffffffffffffffffffffffffffffffffffffffff1661228d613330565b73ffffffffffffffffffffffffffffffffffffffff1614155b156122dd576040517fe07c8dba00000000000000000000000000000000000000000000000000000000815260040160405180910390fd5b565b6000801b6122ec81611e66565b5050565b8173ffffffffffffffffffffffffffffffffffffffff166352d1902d6040518163ffffffff1660e01b8152600401602060405180830381865afa92505050801561235857506040513d601f19601f82011682018060405250810190612355919061518d565b60015b61239957816040517f4c9c8ce300000000000000000000000000000000000000000000000000000000815260040161239091906151ba565b60405180910390fd5b7f360894a13ba1a3210667c828492db98dca3e2076cc3735a920a3ca505d382bbc60001b811461240057806040517faa1d49a40000000000000000000000000000000000000000000000000000000081526004016123f79190613c4d565b60405180910390fd5b61240a8383613387565b505050565b7f000000000000000000000000000000000000000000000000000000000000000073ffffffffffffffffffffffffffffffffffffffff163073ffffffffffffffffffffffffffffffffffffffff1614612494576040517fe07c8dba00000000000000000000000000000000000000000000000000000000815260040160405180910390fd5b565b60606000846001015490508460000180549050841015806124b657508084105b1561250f578381600187600001805490506124d19190614f53565b6040517f3b405536000000000000000000000000000000000000000000000000000000008152600401612506939291906151d5565b60405180910390fd5b60005b83518110156125db5760008482815181106125305761252f614b5b565b5b602002602001015190508581118061254757508281105b1561258d578083876040517f9e16c3b9000000000000000000000000000000000000000000000000000000008152600401612584939291906151d5565b60405180910390fd5b60018760000182815481106125a5576125a4614b5b565b5b906000526020600020906002020160010160146101000a81548160ff021916908315150217905550508080600101915050612512565b506000808290505b8581116126c157600073ffffffffffffffffffffffffffffffffffffffff1687600001828154811061261857612617614b5b565b5b906000526020600020906002020160010160009054906101000a900473ffffffffffffffffffffffffffffffffffffffff1673ffffffffffffffffffffffffffffffffffffffff1603156126ae5786600001818154811061267c5761267b614b5b565b5b906000526020600020906002020160010160149054906101000a900460ff166126ae5781806126aa9061520c565b9250505b80806126b99061520c565b9150506125e3565b5060008167ffffffffffffffff8111156126de576126dd613e1f565b5b60405190808252806020026020018201604052801561270c5781602001602082028036833780820191505090505b5090506000808490505b87811161283b57600073ffffffffffffffffffffffffffffffffffffffff1689600001828154811061274b5761274a614b5b565b5b906000526020600020906002020160010160009054906101000a900473ffffffffffffffffffffffffffffffffffffffff1673ffffffffffffffffffffffffffffffffffffffff160315612828578860000181815481106127af576127ae614b5b565b5b906000526020600020906002020160010160149054906101000a900460ff16612828578860000181815481106127e8576127e7614b5b565b5b90600052602060002090600202016000015483838151811061280d5761280c614b5b565b5b60200260200101818152505081806128249061520c565b9250505b80806128339061520c565b915050612716565b506001876128499190615254565b8860010181905550819450505050509392505050565b612867613ae0565b82600001828154811061287d5761287c614b5b565b5b9060005260206000209060020201604051806060016040529081600082015481526020016001820160009054906101000a900473ffffffffffffffffffffffffffffffffffffffff1673ffffffffffffffffffffffffffffffffffffffff1673ffffffffffffffffffffffffffffffffffffffff1681526020016001820160149054906101000a900460ff161515151581525050905082600001828154811061292957612928614b5b565b5b90600052602060002090600202016000808201600090556001820160006101000a81549073ffffffffffffffffffffffffffffffffffffffff02191690556001820160146101000a81549060ff0219169055505092915050565b600060038111156129975761299661495e565b5b8560038111156129aa576129a961495e565b5b036129fb578273ffffffffffffffffffffffffffffffffffffffff166108fc839081150290604051600060405180830381858888f193505050501580156129f5573d6000803e3d6000fd5b50612b7c565b60016003811115612a0f57612a0e61495e565b5b856003811115612a2257612a2161495e565b5b03612a5757612a5283838673ffffffffffffffffffffffffffffffffffffffff166133fa9092919063ffffffff16565b612b7b565b60026003811115612a6b57612a6a61495e565b5b856003811115612a7e57612a7d61495e565b5b03612af7578373ffffffffffffffffffffffffffffffffffffffff166323b872dd3085846040518463ffffffff1660e01b8152600401612ac093929190615055565b600060405180830381600087803b158015612ada57600080fd5b505af1158015612aee573d6000803e3d6000fd5b50505050612b7a565b8373ffffffffffffffffffffffffffffffffffffffff1663f242432a30858486604051806020016040528060008152506040518663ffffffff1660e01b8152600401612b47959493929190614bee565b600060405180830381600087803b158015612b6157600080fd5b505af1158015612b75573d6000803e3d6000fd5b505050505b5b5b5050505050565b612bff848573ffffffffffffffffffffffffffffffffffffffff166323b872dd868686604051602401612bb893929190615055565b604051602081830303815290604052915060e01b6020820180517bffffffffffffffffffffffffffffffffffffffffffffffffffffffff8381831617835250505050613479565b50505050565b60008160000151826020015183604001518460600151604051602001612c2e94939291906152d0565b604051602081830303815290604052805190602001209050919050565b60005b82829050811015612c9757612c8a838383818110612c6f57612c6e614b5b565b5b905060800201803603810190612c859190615028565b61351b565b8080600101915050612c4e565b506000828290501115612d5957600460009054906101000a900473ffffffffffffffffffffffffffffffffffffffff1673ffffffffffffffffffffffffffffffffffffffff1663f099f9f57ff00e60aabbc167f41684e8d81677229edbc0f1876ae2c1ded0a60367465292ab32858590506040518463ffffffff1660e01b8152600401612d269392919061531e565b600060405180830381600087803b158015612d4057600080fd5b505af1158015612d54573d6000803e3d6000fd5b505050505b5050565b60005b82829050811015612def574260076000858585818110612d8357612d82614b5b565b5b90506020020135815260200190815260200160002081905550828282818110612daf57612dae614b5b565b5b905060200201357fd63a18c6858559d79659151118b33c6ad7cf4f7735b64fe9dbd85c509e11a11760405160405180910390a28080600101915050612d60565b506000828290501115612eb157600460009054906101000a900473ffffffffffffffffffffffffffffffffffffffff1673ffffffffffffffffffffffffffffffffffffffff1663f099f9f57f25146e2fbfab3f988e64e94788d256b87c4fa8691f43ec409c49b57436cb7ee632858590506040518463ffffffff1660e01b8152600401612e7e9392919061531e565b600060405180830381600087803b158015612e9857600080fd5b505af1158015612eac573d6000803e3d6000fd5b505050505b5050565b600080600080549050905060006040518060600160405280876003811115612ee057612edf61495e565b5b81526020018673ffffffffffffffffffffffffffffffffffffffff16815260200185815250908060018154018082558091505060019003906000526020600020906002020160009091909190915060008201518160000160006101000a81548160ff02191690836003811115612f5957612f5861495e565b5b021790555060208201518160000160016101000a81548173ffffffffffffffffffffffffffffffffffffffff021916908373ffffffffffffffffffffffffffffffffffffffff16021790555060408201518160010155505060006003811115612fc557612fc461495e565b5b856003811115612fd857612fd761495e565b5b036130445780600160008073ffffffffffffffffffffffffffffffffffffffff1673ffffffffffffffffffffffffffffffffffffffff16815260200190815260200160002060006101000a81548163ffffffff021916908363ffffffff160217905550809150506131b1565b600073ffffffffffffffffffffffffffffffffffffffff168473ffffffffffffffffffffffffffffffffffffffff16036130aa576040517fdc2e5e8d00000000000000000000000000000000000000000000000000000000815260040160405180910390fd5b600160038111156130be576130bd61495e565b5b8560038111156130d1576130d061495e565b5b0361313d5780600160008673ffffffffffffffffffffffffffffffffffffffff1673ffffffffffffffffffffffffffffffffffffffff16815260200190815260200160002060006101000a81548163ffffffff021916908363ffffffff160217905550809150506131b1565b80600260008673ffffffffffffffffffffffffffffffffffffffff1673ffffffffffffffffffffffffffffffffffffffff168152602001908152602001600020600085815260200190815260200160002060006101000a81548163ffffffff021916908363ffffffff160217905550809150505b9392505050565b6000836000018054905090508360000160405180606001604052808581526020018473ffffffffffffffffffffffffffffffffffffffff1681526020016000151581525090806001815401808255809150506001900390600052602060002090600202016000909190919091506000820151816000015560208201518160010160006101000a81548173ffffffffffffffffffffffffffffffffffffffff021916908373ffffffffffffffffffffffffffffffffffffffff16021790555060408201518160010160146101000a81548160ff02191690831515021790555050509392505050565b6132a982826116d4565b6132ec5780826040517fe2517d3f0000000000000000000000000000000000000000000000000000000081526004016132e3929190615355565b60405180910390fd5b5050565b6132f861378d565b61332e576040517fd7e6bcf800000000000000000000000000000000000000000000000000000000815260040160405180910390fd5b565b600061335e7f360894a13ba1a3210667c828492db98dca3e2076cc3735a920a3ca505d382bbc60001b6137ad565b60000160009054906101000a900473ffffffffffffffffffffffffffffffffffffffff16905090565b613390826137b7565b8173ffffffffffffffffffffffffffffffffffffffff167fbc7cd75a20ee27fd9adebab32041f755214dbc6bffa90cc0225b39da2e5c2d3b60405160405180910390a26000815111156133ed576133e78282613884565b506133f6565b6133f5613908565b5b5050565b613474838473ffffffffffffffffffffffffffffffffffffffff1663a9059cbb858560405160240161342d92919061537e565b604051602081830303815290604052915060e01b6020820180517bffffffffffffffffffffffffffffffffffffffffffffffffffffffff8381831617835250505050613479565b505050565b600080602060008451602086016000885af18061349c576040513d6000823e3d81fd5b3d9250600051915050600082146134b75760018114156134d3565b60008473ffffffffffffffffffffffffffffffffffffffff163b145b1561351557836040517f5274afe700000000000000000000000000000000000000000000000000000000815260040161350c91906151ba565b60405180910390fd5b50505050565b600061352a8260200151611a79565b9050600060019050600060038111156135465761354561495e565b5b8260000151600381111561355d5761355c61495e565b5b036135ac576000836000015173ffffffffffffffffffffffffffffffffffffffff166108fc85604001519081150290604051600060405180830381858888f193505050509050809150506136a1565b600160038111156135c0576135bf61495e565b5b826000015160038111156135d7576135d661495e565b5b0361369b57600082602001515063a9059cbb60e01b8460000151856040015160405160240161360792919061537e565b604051602081830303815290604052907bffffffffffffffffffffffffffffffffffffffffffffffffffffffff19166020820180517bffffffffffffffffffffffffffffffffffffffffffffffffffffffff8381831617835250505050905061369381846020015173ffffffffffffffffffffffffffffffffffffffff1661394590919063ffffffff16565b9150506136a0565b600090505b5b80156136fc57826000015173ffffffffffffffffffffffffffffffffffffffff166136cb84612c05565b7f6a65a945f1306f9bb3d4e3ce63aa367de6976a375de002492404554392c2460e60405160405180910390a3613788565b600061370784612c05565b9050426007600083815260200190815260200160002081905550807fedf8120f63daf877f6cb9aa7a3e21724c4532681d4afd77a45561904f1a0459985604051613751919061540b565b60405180910390a2807fd63a18c6858559d79659151118b33c6ad7cf4f7735b64fe9dbd85c509e11a11760405160405180910390a2505b505050565b600061379761207d565b60000160089054906101000a900460ff16905090565b6000819050919050565b60008173ffffffffffffffffffffffffffffffffffffffff163b0361381357806040517f4c9c8ce300000000000000000000000000000000000000000000000000000000815260040161380a91906151ba565b60405180910390fd5b806138407f360894a13ba1a3210667c828492db98dca3e2076cc3735a920a3ca505d382bbc60001b6137ad565b60000160006101000a81548173ffffffffffffffffffffffffffffffffffffffff021916908373ffffffffffffffffffffffffffffffffffffffff16021790555050565b60606000808473ffffffffffffffffffffffffffffffffffffffff16846040516138ae9190615462565b600060405180830381855af49150503d80600081146138e9576040519150601f19603f3d011682016040523d82523d6000602084013e6138ee565b606091505b50915091506138fe858383613a0c565b9250505092915050565b6000341115613943576040517fb398979f00000000000000000000000000000000000000000000000000000000815260040160405180910390fd5b565b60008060008473ffffffffffffffffffffffffffffffffffffffff168460405161396f9190615462565b6000604051808303816000865af19150503d80600081146139ac576040519150601f19603f3d011682016040523d82523d6000602084013e6139b1565b606091505b50915091508180156139df57506000815114806139de5750808060200190518101906139dd91906154a5565b5b5b8015613a02575060008573ffffffffffffffffffffffffffffffffffffffff163b115b9250505092915050565b606082613a2157613a1c82613a9b565b613a93565b60008251148015613a49575060008473ffffffffffffffffffffffffffffffffffffffff163b145b15613a8b57836040517f9996b315000000000000000000000000000000000000000000000000000000008152600401613a8291906151ba565b60405180910390fd5b819050613a94565b5b9392505050565b600081511115613aae5780518082602001fd5b6040517fd6bda27500000000000000000000000000000000000000000000000000000000815260040160405180910390fd5b604051806060016040528060008019168152602001600073ffffffffffffffffffffffffffffffffffffffff1681526020016000151581525090565b604051806060016040528060006003811115613b3b57613b3a61495e565b5b8152602001600073ffffffffffffffffffffffffffffffffffffffff168152602001600081525090565b6000604051905090565b600080fd5b600080fd5b60007fffffffff0000000000000000000000000000000000000000000000000000000082169050919050565b613bae81613b79565b8114613bb957600080fd5b50565b600081359050613bcb81613ba5565b92915050565b600060208284031215613be757613be6613b6f565b5b6000613bf584828501613bbc565b91505092915050565b60008115159050919050565b613c1381613bfe565b82525050565b6000602082019050613c2e6000830184613c0a565b92915050565b6000819050919050565b613c4781613c34565b82525050565b6000602082019050613c626000830184613c3e565b92915050565b6000819050919050565b613c7b81613c68565b8114613c8657600080fd5b50565b600081359050613c9881613c72565b92915050565b613ca781613c34565b8114613cb257600080fd5b50565b600081359050613cc481613c9e565b92915050565b600063ffffffff82169050919050565b613ce381613cca565b8114613cee57600080fd5b50565b600081359050613d0081613cda565b92915050565b600073ffffffffffffffffffffffffffffffffffffffff82169050919050565b6000613d3182613d06565b9050919050565b613d4181613d26565b8114613d4c57600080fd5b50565b600081359050613d5e81613d38565b92915050565b600080600080600060a08688031215613d8057613d7f613b6f565b5b6000613d8e88828901613c89565b9550506020613d9f88828901613cb5565b9450506040613db088828901613cf1565b9350506060613dc188828901613c89565b9250506080613dd288828901613d4f565b9150509295509295909350565b613de881613cca565b82525050565b6000602082019050613e036000830184613ddf565b92915050565b600080fd5b6000601f19601f8301169050919050565b7f4e487b7100000000000000000000000000000000000000000000000000000000600052604160045260246000fd5b613e5782613e0e565b810181811067ffffffffffffffff82111715613e7657613e75613e1f565b5b80604052505050565b6000613e89613b65565b9050613e958282613e4e565b919050565b600067ffffffffffffffff821115613eb557613eb4613e1f565b5b602082029050602081019050919050565b600080fd5b6000613ede613ed984613e9a565b613e7f565b90508083825260208201905060208402830185811115613f0157613f00613ec6565b5b835b81811015613f2a5780613f168882613c89565b845260208401935050602081019050613f03565b5050509392505050565b600082601f830112613f4957613f48613e09565b5b8135613f59848260208601613ecb565b91505092915050565b600060208284031215613f7857613f77613b6f565b5b600082013567ffffffffffffffff811115613f9657613f95613b74565b5b613fa284828501613f34565b91505092915050565b600081519050919050565b600082825260208201905092915050565b6000819050602082019050919050565b613fe081613c34565b82525050565b613fef81613d26565b82525050565b613ffe81613bfe565b82525050565b60608201600082015161401a6000850182613fd7565b50602082015161402d6020850182613fe6565b5060408201516140406040850182613ff5565b50505050565b60006140528383614004565b60608301905092915050565b6000602082019050919050565b600061407682613fab565b6140808185613fb6565b935061408b83613fc7565b8060005b838110156140bc5781516140a38882614046565b97506140ae8361405e565b92505060018101905061408f565b5085935050505092915050565b600060208201905081810360008301526140e3818461406b565b905092915050565b60006020828403121561410157614100613b6f565b5b600061410f84828501613cb5565b91505092915050565b6000806000806080858703121561413257614131613b6f565b5b600061414087828801613d4f565b945050602061415187828801613cb5565b935050604061416287828801613c89565b925050606061417387828801613c89565b91505092959194509250565b6000806040838503121561419657614195613b6f565b5b60006141a485828601613cb5565b92505060206141b585828601613d4f565b9150509250929050565b600481106141cc57600080fd5b50565b6000813590506141de816141bf565b92915050565b6000806000606084860312156141fd576141fc613b6f565b5b600061420b868287016141cf565b935050602061421c86828701613d4f565b925050604061422d86828701613c89565b9150509250925092565b600060408201905061424c6000830185613c0a565b6142596020830184613ddf565b9392505050565b600067ffffffffffffffff82111561427b5761427a613e1f565b5b602082029050602081019050919050565b600061429f61429a84614260565b613e7f565b905080838252602082019050602084028301858111156142c2576142c1613ec6565b5b835b818110156142eb57806142d78882613d4f565b8452602084019350506020810190506142c4565b5050509392505050565b600082601f83011261430a57614309613e09565b5b813561431a84826020860161428c565b91505092915050565b600080600080600080600060e0888a03121561434257614341613b6f565b5b60006143508a828b01613d4f565b97505060206143618a828b01613d4f565b96505060406143728a828b01613d4f565b95505060606143838a828b01613d4f565b94505060806143948a828b01613d4f565b93505060a06143a58a828b01613d4f565b92505060c088013567ffffffffffffffff8111156143c6576143c5613b74565b5b6143d28a828b016142f5565b91505092959891949750929550565b600080fd5b600067ffffffffffffffff82111561440157614400613e1f565b5b61440a82613e0e565b9050602081019050919050565b82818337600083830152505050565b6000614439614434846143e6565b613e7f565b905082815260208101848484011115614455576144546143e1565b5b614460848285614417565b509392505050565b600082601f83011261447d5761447c613e09565b5b813561448d848260208601614426565b91505092915050565b600080604083850312156144ad576144ac613b6f565b5b60006144bb85828601613d4f565b925050602083013567ffffffffffffffff8111156144dc576144db613b74565b5b6144e885828601614468565b9150509250929050565b60008060006060848603121561450b5761450a613b6f565b5b600061451986828701613c89565b935050602084013567ffffffffffffffff81111561453a57614539613b74565b5b61454686828701613f34565b925050604061455786828701613c89565b9150509250925092565b61456a81613c68565b82525050565b60006020820190506145856000830184614561565b92915050565b600080fd5b6000606082840312156145a6576145a561458b565b5b6145b06060613e7f565b905060006145c084828501613cb5565b60008301525060206145d484828501613cf1565b60208301525060406145e884828501613c89565b60408301525092915050565b6000806080838503121561460b5761460a613b6f565b5b600061461985828601613c89565b925050602061462a85828601614590565b9150509250929050565b60008060006060848603121561464d5761464c613b6f565b5b600061465b86828701613d4f565b935050602061466c86828701613cb5565b925050604061467d86828701613c89565b9150509250925092565b600080fd5b60008083601f8401126146a2576146a1613e09565b5b8235905067ffffffffffffffff8111156146bf576146be614687565b5b6020830191508360808202830111156146db576146da613ec6565b5b9250929050565b600080602083850312156146f9576146f8613b6f565b5b600083013567ffffffffffffffff81111561471757614716613b74565b5b6147238582860161468c565b92509250509250929050565b60006020828403121561474557614744613b6f565b5b600061475384828501613c89565b91505092915050565b60008083601f84011261477257614771613e09565b5b8235905067ffffffffffffffff81111561478f5761478e614687565b5b6020830191508360208202830111156147ab576147aa613ec6565b5b9250929050565b600080600080604085870312156147cc576147cb613b6f565b5b600085013567ffffffffffffffff8111156147ea576147e9613b74565b5b6147f68782880161468c565b9450945050602085013567ffffffffffffffff81111561481957614818613b74565b5b6148258782880161475c565b925092505092959194509250565b600081519050919050565b600082825260208201905092915050565b60005b8381101561486d578082015181840152602081019050614852565b60008484015250505050565b600061488482614833565b61488e818561483e565b935061489e81856020860161484f565b6148a781613e0e565b840191505092915050565b600060208201905081810360008301526148cc8184614879565b905092915050565b6060820160008201516148ea6000850182613fd7565b5060208201516148fd6020850182613fe6565b5060408201516149106040850182613ff5565b50505050565b600060608201905061492b60008301846148d4565b92915050565b60006020828403121561494757614946613b6f565b5b600061495584828501613cf1565b91505092915050565b7f4e487b7100000000000000000000000000000000000000000000000000000000600052602160045260246000fd5b6004811061499e5761499d61495e565b5b50565b60008190506149af8261498d565b919050565b60006149bf826149a1565b9050919050565b6149cf816149b4565b82525050565b6149de81613c68565b82525050565b6060820160008201516149fa60008501826149c6565b506020820151614a0d6020850182613fe6565b506040820151614a2060408501826149d5565b50505050565b6000606082019050614a3b60008301846149e4565b92915050565b60008083601f840112614a5757614a56613e09565b5b8235905067ffffffffffffffff811115614a7457614a73614687565b5b602083019150836001820283011115614a9057614a8f613ec6565b5b9250929050565b60008060008060008060a08789031215614ab457614ab3613b6f565b5b6000614ac289828a01613d4f565b9650506020614ad389828a01613d4f565b9550506040614ae489828a01613c89565b9450506060614af589828a01613c89565b935050608087013567ffffffffffffffff811115614b1657614b15613b74565b5b614b2289828a01614a41565b92509250509295509295509295565b614b3a81613b79565b82525050565b6000602082019050614b556000830184614b31565b92915050565b7f4e487b7100000000000000000000000000000000000000000000000000000000600052603260045260246000fd5b614b9381613d26565b82525050565b600081519050919050565b600082825260208201905092915050565b6000614bc082614b99565b614bca8185614ba4565b9350614bda81856020860161484f565b614be381613e0e565b840191505092915050565b600060a082019050614c036000830188614b8a565b614c106020830187614b8a565b614c1d6040830186614561565b614c2a6060830185614561565b8181036080830152614c3c8184614bb5565b90509695505050505050565b6000819050919050565b600067ffffffffffffffff82169050919050565b6000819050919050565b6000614c8b614c86614c8184614c48565b614c66565b614c52565b9050919050565b614c9b81614c70565b82525050565b6000602082019050614cb66000830184614c92565b92915050565b600081519050919050565b600082825260208201905092915050565b6000819050602082019050919050565b6000614cf48383613fd7565b60208301905092915050565b6000602082019050919050565b6000614d1882614cbc565b614d228185614cc7565b9350614d2d83614cd8565b8060005b83811015614d5e578151614d458882614ce8565b9750614d5083614d00565b925050600181019050614d31565b5085935050505092915050565b6000604082019050614d806000830185614561565b8181036020830152614d928184614d0d565b90509392505050565b6000819050919050565b6000614dc0614dbb614db684614d9b565b614c66565b613c68565b9050919050565b614dd081614da5565b82525050565b600060a082019050614deb6000830188614b8a565b614df86020830187614dc7565b8181036040830152614e0a8186614bb5565b9050614e196060830185614561565b614e266080830184614b8a565b9695505050505050565b600081519050919050565b600082825260208201905092915050565b6000819050602082019050919050565b6000614e6883836149d5565b60208301905092915050565b6000602082019050919050565b6000614e8c82614e30565b614e968185614e3b565b9350614ea183614e4c565b8060005b83811015614ed2578151614eb98882614e5c565b9750614ec483614e74565b925050600181019050614ea5565b5085935050505092915050565b60006060820190508181036000830152614ef98186614e81565b9050614f086020830185614561565b8181036040830152614f1a8184614bb5565b9050949350505050565b7f4e487b7100000000000000000000000000000000000000000000000000000000600052601160045260246000fd5b6000614f5e82613c68565b9150614f6983613c68565b9250828203905081811115614f8157614f80614f24565b5b92915050565b6000604082019050614f9c6000830185613c3e565b614fa96020830184613c3e565b9392505050565b600060808284031215614fc657614fc561458b565b5b614fd06080613e7f565b90506000614fe084828501613d4f565b6000830152506020614ff484828501613cf1565b602083015250604061500884828501613c89565b604083015250606061501c84828501613cb5565b60608301525092915050565b60006080828403121561503e5761503d613b6f565b5b600061504c84828501614fb0565b91505092915050565b600060608201905061506a6000830186614b8a565b6150776020830185614b8a565b6150846040830184614561565b949350505050565b6000819050919050565b6150a76150a282613c34565b61508c565b82525050565b60008160e01b9050919050565b60006150c5826150ad565b9050919050565b6150dd6150d882613cca565b6150ba565b82525050565b6000819050919050565b6150fe6150f982613c68565b6150e3565b82525050565b60006151108286615096565b60208201915061512082856150cc565b60048201915061513082846150ed565b602082019150819050949350505050565b60006060820190506151566000830186613ddf565b6151636020830185614561565b6151706040830184614561565b949350505050565b60008151905061518781613c9e565b92915050565b6000602082840312156151a3576151a2613b6f565b5b60006151b184828501615178565b91505092915050565b60006020820190506151cf6000830184614b8a565b92915050565b60006060820190506151ea6000830186614561565b6151f76020830185614561565b6152046040830184614561565b949350505050565b600061521782613c68565b91507fffffffffffffffffffffffffffffffffffffffffffffffffffffffffffffffff820361524957615248614f24565b5b600182019050919050565b600061525f82613c68565b915061526a83613c68565b925082820190508082111561528257615281614f24565b5b92915050565b60008160601b9050919050565b60006152a082615288565b9050919050565b60006152b282615295565b9050919050565b6152ca6152c582613d26565b6152a7565b82525050565b60006152dc82876152b9565b6014820191506152ec82866150cc565b6004820191506152fc82856150ed565b60208201915061530c8284615096565b60208201915081905095945050505050565b60006060820190506153336000830186613c3e565b6153406020830185614b8a565b61534d6040830184614561565b949350505050565b600060408201905061536a6000830185614b8a565b6153776020830184613c3e565b9392505050565b60006040820190506153936000830185614b8a565b6153a06020830184614561565b9392505050565b6153b081613cca565b82525050565b6080820160008201516153cc6000850182613fe6565b5060208201516153df60208501826153a7565b5060408201516153f260408501826149d5565b5060608201516154056060850182613fd7565b50505050565b600060808201905061542060008301846153b6565b92915050565b600081905092915050565b600061543c82614b99565b6154468185615426565b935061545681856020860161484f565b80840191505092915050565b600061546e8284615431565b915081905092915050565b61548281613bfe565b811461548d57600080fd5b50565b60008151905061549f81615479565b92915050565b6000602082840312156154bb576154ba613b6f565b5b60006154c984828501615490565b9150509291505056fea2646970667358221220b523d3b42564563b75acad60a22b5f360ec78880c6c2041f5facfd461036e32664736f6c634300081b0033",
  "linkReferences": {},
  "deployedLinkReferences": {}
}