{
  "_format": "hh-sol-artifact-1",
  "contractName": "Liquidity",
  "sourceName": "contracts/liquidity/Liquidity.sol",
  "abi": [
    {
      "inputs": [],
      "stateMutability": "nonpayable",
      "type": "constructor"
    },
    {
      "inputs": [],
      "name": "AccessControlBadConfirmation",
      "type": "error"
    },
    {
      "inputs": [
        {
          "internalType": "address",
          "name": "account",
          "type": "address"
        },
        {
          "internalType": "bytes32",
          "name": "neededRole",
          "type": "bytes32"
        }
      ],
      "name": "AccessControlUnauthorizedAccount",
      "type": "error"
    },
    {
      "inputs": [
        {
          "internalType": "address",
          "name": "target",
          "type": "address"
        }
      ],
      "name": "AddressEmptyCode",
      "type": "error"
    },
    {
      "inputs": [],
      "name": "AddressZero",
      "type": "error"
    },
    {
      "inputs": [],
      "name": "AlreadyAnalyzed",
      "type": "error"
    },
    {
      "inputs": [
        {
          "internalType": "uint256",
          "name": "depositAmount",
          "type": "uint256"
        },
        {
          "internalType": "uint256",
          "name": "limit",
          "type": "uint256"
        }
      ],
      "name": "DepositAmountExceedsLimit",
      "type": "error"
    },
    {
      "inputs": [
        {
          "internalType": "bytes32",
          "name": "depositHash",
          "type": "bytes32"
        }
      ],
      "name": "DepositHashAlreadyExists",
      "type": "error"
    },
    {
      "inputs": [
        {
          "internalType": "address",
          "name": "implementation",
          "type": "address"
        }
      ],
      "name": "ERC1967InvalidImplementation",
      "type": "error"
    },
    {
      "inputs": [],
      "name": "ERC1967NonPayable",
      "type": "error"
    },
    {
      "inputs": [],
      "name": "EnforcedPause",
      "type": "error"
    },
    {
      "inputs": [],
      "name": "ExpectedPause",
      "type": "error"
    },
    {
      "inputs": [],
      "name": "FailedCall",
      "type": "error"
    },
    {
      "inputs": [
        {
          "internalType": "bytes32",
          "name": "depositDataHash",
          "type": "bytes32"
        },
        {
          "internalType": "bytes32",
          "name": "calculatedHash",
          "type": "bytes32"
        }
      ],
      "name": "InvalidDepositHash",
      "type": "error"
    },
    {
      "inputs": [],
      "name": "InvalidInitialization",
      "type": "error"
    },
    {
      "inputs": [],
      "name": "InvalidTokenIndex",
      "type": "error"
    },
    {
      "inputs": [],
      "name": "InvalidWithdrawalAddress",
      "type": "error"
    },
    {
      "inputs": [],
      "name": "NotInitializing",
      "type": "error"
    },
    {
      "inputs": [],
      "name": "OnlySenderCanCancelDeposit",
      "type": "error"
    },
    {
      "inputs": [
        {
          "internalType": "address",
          "name": "token",
          "type": "address"
        }
      ],
      "name": "SafeERC20FailedOperation",
      "type": "error"
    },
    {
      "inputs": [],
      "name": "SenderIsNotScrollMessenger",
      "type": "error"
    },
    {
      "inputs": [],
      "name": "TokenAddressIsZero",
      "type": "error"
    },
    {
      "inputs": [
        {
          "internalType": "uint256",
          "name": "upToDepositId",
          "type": "uint256"
        },
        {
          "internalType": "uint256",
          "name": "firstDepositId",
          "type": "uint256"
        },
        {
          "internalType": "uint256",
          "name": "lastDepositId",
          "type": "uint256"
        }
      ],
      "name": "TriedAnalyzeOutOfRange",
      "type": "error"
    },
    {
      "inputs": [],
      "name": "TriedToDepositZero",
      "type": "error"
    },
    {
      "inputs": [
        {
          "internalType": "uint256",
          "name": "rejectIndex",
          "type": "uint256"
        },
        {
          "internalType": "uint256",
          "name": "front",
          "type": "uint256"
        },
        {
          "internalType": "uint256",
          "name": "upToDepositId",
          "type": "uint256"
        }
      ],
      "name": "TriedToRejectOutOfRange",
      "type": "error"
    },
    {
      "inputs": [],
      "name": "UUPSUnauthorizedCallContext",
      "type": "error"
    },
    {
      "inputs": [
        {
          "internalType": "bytes32",
          "name": "slot",
          "type": "bytes32"
        }
      ],
      "name": "UUPSUnsupportedProxiableUUID",
      "type": "error"
    },
    {
      "inputs": [],
      "name": "WithdrawalAddressNotSet",
      "type": "error"
    },
    {
      "inputs": [
        {
          "internalType": "bytes32",
          "name": "withdrawalHash",
          "type": "bytes32"
        }
      ],
      "name": "WithdrawalNotFound",
      "type": "error"
    },
    {
      "anonymous": false,
      "inputs": [
        {
          "indexed": true,
          "internalType": "address",
          "name": "recipient",
          "type": "address"
        },
        {
          "indexed": true,
          "internalType": "bytes32",
          "name": "withdrawalHash",
          "type": "bytes32"
        }
      ],
      "name": "ClaimedWithdrawal",
      "type": "event"
    },
    {
      "anonymous": false,
      "inputs": [
        {
          "indexed": true,
          "internalType": "uint256",
          "name": "depositId",
          "type": "uint256"
        }
      ],
      "name": "DepositCanceled",
      "type": "event"
    },
    {
      "anonymous": false,
      "inputs": [
        {
          "indexed": true,
          "internalType": "uint256",
          "name": "depositId",
          "type": "uint256"
        },
        {
          "indexed": true,
          "internalType": "address",
          "name": "sender",
          "type": "address"
        },
        {
          "indexed": true,
          "internalType": "bytes32",
          "name": "recipientSaltHash",
          "type": "bytes32"
        },
        {
          "indexed": false,
          "internalType": "uint32",
          "name": "tokenIndex",
          "type": "uint32"
        },
        {
          "indexed": false,
          "internalType": "uint256",
          "name": "amount",
          "type": "uint256"
        },
        {
          "indexed": false,
          "internalType": "uint256",
          "name": "depositedAt",
          "type": "uint256"
        }
      ],
      "name": "Deposited",
      "type": "event"
    },
    {
      "anonymous": false,
      "inputs": [
        {
          "indexed": true,
          "internalType": "uint256",
          "name": "upToDepositId",
          "type": "uint256"
        },
        {
          "indexed": false,
          "internalType": "uint256[]",
          "name": "rejectedIndices",
          "type": "uint256[]"
        },
        {
          "indexed": false,
          "internalType": "uint256",
          "name": "gasLimit",
          "type": "uint256"
        },
        {
          "indexed": false,
          "internalType": "bytes",
          "name": "message",
          "type": "bytes"
        }
      ],
      "name": "DepositsAnalyzedAndRelayed",
      "type": "event"
    },
    {
      "anonymous": false,
      "inputs": [
        {
          "indexed": true,
          "internalType": "bytes32",
          "name": "withdrawalHash",
          "type": "bytes32"
        },
        {
          "components": [
            {
              "internalType": "address",
              "name": "recipient",
              "type": "address"
            },
            {
              "internalType": "uint32",
              "name": "tokenIndex",
              "type": "uint32"
            },
            {
              "internalType": "uint256",
              "name": "amount",
              "type": "uint256"
            },
            {
              "internalType": "bytes32",
              "name": "nullifier",
              "type": "bytes32"
            }
          ],
          "indexed": false,
          "internalType": "struct WithdrawalLib.Withdrawal",
          "name": "withdrawal",
          "type": "tuple"
        }
      ],
      "name": "DirectWithdrawalFailed",
      "type": "event"
    },
    {
      "anonymous": false,
      "inputs": [
        {
          "indexed": true,
          "internalType": "bytes32",
          "name": "withdrawalHash",
          "type": "bytes32"
        },
        {
          "indexed": true,
          "internalType": "address",
          "name": "recipient",
          "type": "address"
        }
      ],
      "name": "DirectWithdrawalSuccessed",
      "type": "event"
    },
    {
      "anonymous": false,
      "inputs": [
        {
          "indexed": false,
          "internalType": "uint64",
          "name": "version",
          "type": "uint64"
        }
      ],
      "name": "Initialized",
      "type": "event"
    },
    {
      "anonymous": false,
      "inputs": [
        {
          "indexed": false,
          "internalType": "address",
          "name": "account",
          "type": "address"
        }
      ],
      "name": "Paused",
      "type": "event"
    },
    {
      "anonymous": false,
      "inputs": [
        {
          "indexed": true,
          "internalType": "bytes32",
          "name": "role",
          "type": "bytes32"
        },
        {
          "indexed": true,
          "internalType": "bytes32",
          "name": "previousAdminRole",
          "type": "bytes32"
        },
        {
          "indexed": true,
          "internalType": "bytes32",
          "name": "newAdminRole",
          "type": "bytes32"
        }
      ],
      "name": "RoleAdminChanged",
      "type": "event"
    },
    {
      "anonymous": false,
      "inputs": [
        {
          "indexed": true,
          "internalType": "bytes32",
          "name": "role",
          "type": "bytes32"
        },
        {
          "indexed": true,
          "internalType": "address",
          "name": "account",
          "type": "address"
        },
        {
          "indexed": true,
          "internalType": "address",
          "name": "sender",
          "type": "address"
        }
      ],
      "name": "RoleGranted",
      "type": "event"
    },
    {
      "anonymous": false,
      "inputs": [
        {
          "indexed": true,
          "internalType": "bytes32",
          "name": "role",
          "type": "bytes32"
        },
        {
          "indexed": true,
          "internalType": "address",
          "name": "account",
          "type": "address"
        },
        {
          "indexed": true,
          "internalType": "address",
          "name": "sender",
          "type": "address"
        }
      ],
      "name": "RoleRevoked",
      "type": "event"
    },
    {
      "anonymous": false,
      "inputs": [
        {
          "indexed": false,
          "internalType": "address",
          "name": "account",
          "type": "address"
        }
      ],
      "name": "Unpaused",
      "type": "event"
    },
    {
      "anonymous": false,
      "inputs": [
        {
          "indexed": true,
          "internalType": "address",
          "name": "implementation",
          "type": "address"
        }
      ],
      "name": "Upgraded",
      "type": "event"
    },
    {
      "anonymous": false,
      "inputs": [
        {
          "indexed": true,
          "internalType": "bytes32",
          "name": "withdrawalHash",
          "type": "bytes32"
        }
      ],
      "name": "WithdrawalClaimable",
      "type": "event"
    },
    {
      "inputs": [],
      "name": "ANALYZER",
      "outputs": [
        {
          "internalType": "bytes32",
          "name": "",
          "type": "bytes32"
        }
      ],
      "stateMutability": "view",
      "type": "function"
    },
    {
      "inputs": [],
      "name": "DEFAULT_ADMIN_ROLE",
      "outputs": [
        {
          "internalType": "bytes32",
          "name": "",
          "type": "bytes32"
        }
      ],
      "stateMutability": "view",
      "type": "function"
    },
    {
      "inputs": [],
      "name": "UPGRADE_INTERFACE_VERSION",
      "outputs": [
        {
          "internalType": "string",
          "name": "",
          "type": "string"
        }
      ],
      "stateMutability": "view",
      "type": "function"
    },
    {
      "inputs": [],
      "name": "WITHDRAWAL",
      "outputs": [
        {
          "internalType": "bytes32",
          "name": "",
          "type": "bytes32"
        }
      ],
      "stateMutability": "view",
      "type": "function"
    },
    {
      "inputs": [
        {
          "internalType": "uint256",
          "name": "upToDepositId",
          "type": "uint256"
        },
        {
          "internalType": "uint256[]",
          "name": "rejectDepositIds",
          "type": "uint256[]"
        },
        {
          "internalType": "uint256",
          "name": "gasLimit",
          "type": "uint256"
        }
      ],
      "name": "analyzeAndRelayDeposits",
      "outputs": [],
      "stateMutability": "payable",
      "type": "function"
    },
    {
      "inputs": [
        {
          "internalType": "uint256",
          "name": "depositId",
          "type": "uint256"
        },
        {
          "components": [
            {
              "internalType": "address",
              "name": "depositor",
              "type": "address"
            },
            {
              "internalType": "bytes32",
              "name": "recipientSaltHash",
              "type": "bytes32"
            },
            {
              "internalType": "uint256",
              "name": "amount",
              "type": "uint256"
            },
            {
              "internalType": "uint32",
              "name": "tokenIndex",
              "type": "uint32"
            },
            {
              "internalType": "bool",
              "name": "isEligible",
              "type": "bool"
            }
          ],
          "internalType": "struct DepositLib.Deposit",
          "name": "deposit",
          "type": "tuple"
        }
      ],
      "name": "cancelDeposit",
      "outputs": [],
      "stateMutability": "nonpayable",
      "type": "function"
    },
    {
      "inputs": [
        {
          "components": [
            {
              "internalType": "address",
              "name": "recipient",
              "type": "address"
            },
            {
              "internalType": "uint32",
              "name": "tokenIndex",
              "type": "uint32"
            },
            {
              "internalType": "uint256",
              "name": "amount",
              "type": "uint256"
            },
            {
              "internalType": "bytes32",
              "name": "nullifier",
              "type": "bytes32"
            }
          ],
          "internalType": "struct WithdrawalLib.Withdrawal[]",
          "name": "withdrawals",
          "type": "tuple[]"
        }
      ],
      "name": "claimWithdrawals",
      "outputs": [],
      "stateMutability": "nonpayable",
      "type": "function"
    },
    {
      "inputs": [
        {
          "internalType": "bytes32",
          "name": "",
          "type": "bytes32"
        }
      ],
      "name": "claimableWithdrawals",
      "outputs": [
        {
          "internalType": "uint256",
          "name": "",
          "type": "uint256"
        }
      ],
      "stateMutability": "view",
      "type": "function"
    },
    {
      "inputs": [
        {
          "internalType": "address",
          "name": "tokenAddress",
          "type": "address"
        },
        {
          "internalType": "bytes32",
          "name": "recipientSaltHash",
          "type": "bytes32"
        },
        {
          "internalType": "uint256",
          "name": "tokenId",
          "type": "uint256"
        },
        {
          "internalType": "uint256",
          "name": "amount",
          "type": "uint256"
        }
      ],
      "name": "depositERC1155",
      "outputs": [],
      "stateMutability": "nonpayable",
      "type": "function"
    },
    {
      "inputs": [
        {
          "internalType": "address",
          "name": "tokenAddress",
          "type": "address"
        },
        {
          "internalType": "bytes32",
          "name": "recipientSaltHash",
          "type": "bytes32"
        },
        {
          "internalType": "uint256",
          "name": "amount",
          "type": "uint256"
        }
      ],
      "name": "depositERC20",
      "outputs": [],
      "stateMutability": "nonpayable",
      "type": "function"
    },
    {
      "inputs": [
        {
          "internalType": "address",
          "name": "tokenAddress",
          "type": "address"
        },
        {
          "internalType": "bytes32",
          "name": "recipientSaltHash",
          "type": "bytes32"
        },
        {
          "internalType": "uint256",
          "name": "tokenId",
          "type": "uint256"
        }
      ],
      "name": "depositERC721",
      "outputs": [],
      "stateMutability": "nonpayable",
      "type": "function"
    },
    {
      "inputs": [
        {
          "internalType": "bytes32",
          "name": "recipientSaltHash",
          "type": "bytes32"
        }
      ],
      "name": "depositNativeToken",
      "outputs": [],
      "stateMutability": "payable",
      "type": "function"
    },
    {
      "inputs": [
        {
          "internalType": "uint256",
          "name": "depositId",
          "type": "uint256"
        }
      ],
      "name": "getDepositData",
      "outputs": [
        {
          "components": [
            {
              "internalType": "bytes32",
              "name": "depositHash",
              "type": "bytes32"
            },
            {
              "internalType": "address",
              "name": "sender",
              "type": "address"
            },
            {
              "internalType": "bool",
              "name": "isRejected",
              "type": "bool"
            }
          ],
          "internalType": "struct DepositQueueLib.DepositData",
          "name": "",
          "type": "tuple"
        }
      ],
      "stateMutability": "view",
      "type": "function"
    },
    {
      "inputs": [
        {
          "internalType": "uint256[]",
          "name": "depositIds",
          "type": "uint256[]"
        }
      ],
      "name": "getDepositDataBatch",
      "outputs": [
        {
          "components": [
            {
              "internalType": "bytes32",
              "name": "depositHash",
              "type": "bytes32"
            },
            {
              "internalType": "address",
              "name": "sender",
              "type": "address"
            },
            {
              "internalType": "bool",
              "name": "isRejected",
              "type": "bool"
            }
          ],
          "internalType": "struct DepositQueueLib.DepositData[]",
          "name": "",
          "type": "tuple[]"
        }
      ],
      "stateMutability": "view",
      "type": "function"
    },
    {
      "inputs": [
        {
          "internalType": "uint256",
          "name": "depositId",
          "type": "uint256"
        }
      ],
      "name": "getDepositDataHash",
      "outputs": [
        {
          "internalType": "bytes32",
          "name": "",
          "type": "bytes32"
        }
      ],
      "stateMutability": "view",
      "type": "function"
    },
    {
      "inputs": [],
      "name": "getLastDepositId",
      "outputs": [
        {
          "internalType": "uint256",
          "name": "",
          "type": "uint256"
        }
      ],
      "stateMutability": "view",
      "type": "function"
    },
    {
      "inputs": [],
      "name": "getLastRelayedDepositId",
      "outputs": [
        {
          "internalType": "uint256",
          "name": "",
          "type": "uint256"
        }
      ],
      "stateMutability": "view",
      "type": "function"
    },
    {
      "inputs": [],
      "name": "getNativeTokenIndex",
      "outputs": [
        {
          "internalType": "uint32",
          "name": "",
          "type": "uint32"
        }
      ],
      "stateMutability": "pure",
      "type": "function"
    },
    {
      "inputs": [
        {
          "internalType": "bytes32",
          "name": "role",
          "type": "bytes32"
        }
      ],
      "name": "getRoleAdmin",
      "outputs": [
        {
          "internalType": "bytes32",
          "name": "",
          "type": "bytes32"
        }
      ],
      "stateMutability": "view",
      "type": "function"
    },
    {
      "inputs": [
        {
          "internalType": "enum ITokenData.TokenType",
          "name": "tokenType",
          "type": "uint8"
        },
        {
          "internalType": "address",
          "name": "tokenAddress",
          "type": "address"
        },
        {
          "internalType": "uint256",
          "name": "tokenId",
          "type": "uint256"
        }
      ],
      "name": "getTokenIndex",
      "outputs": [
        {
          "internalType": "bool",
          "name": "",
          "type": "bool"
        },
        {
          "internalType": "uint32",
          "name": "",
          "type": "uint32"
        }
      ],
      "stateMutability": "view",
      "type": "function"
    },
    {
      "inputs": [
        {
          "internalType": "uint32",
          "name": "tokenIndex",
          "type": "uint32"
        }
      ],
      "name": "getTokenInfo",
      "outputs": [
        {
          "components": [
            {
              "internalType": "enum ITokenData.TokenType",
              "name": "tokenType",
              "type": "uint8"
            },
            {
              "internalType": "address",
              "name": "tokenAddress",
              "type": "address"
            },
            {
              "internalType": "uint256",
              "name": "tokenId",
              "type": "uint256"
            }
          ],
          "internalType": "struct ITokenData.TokenInfo",
          "name": "",
          "type": "tuple"
        }
      ],
      "stateMutability": "view",
      "type": "function"
    },
    {
      "inputs": [
        {
          "internalType": "bytes32",
          "name": "role",
          "type": "bytes32"
        },
        {
          "internalType": "address",
          "name": "account",
          "type": "address"
        }
      ],
      "name": "grantRole",
      "outputs": [],
      "stateMutability": "nonpayable",
      "type": "function"
    },
    {
      "inputs": [
        {
          "internalType": "bytes32",
          "name": "role",
          "type": "bytes32"
        },
        {
          "internalType": "address",
          "name": "account",
          "type": "address"
        }
      ],
      "name": "hasRole",
      "outputs": [
        {
          "internalType": "bool",
          "name": "",
          "type": "bool"
        }
      ],
      "stateMutability": "view",
      "type": "function"
    },
    {
      "inputs": [
        {
          "internalType": "address",
          "name": "_admin",
          "type": "address"
        },
        {
          "internalType": "address",
          "name": "_l1ScrollMessenger",
          "type": "address"
        },
        {
          "internalType": "address",
          "name": "_rollup",
          "type": "address"
        },
        {
          "internalType": "address",
          "name": "_withdrawal",
          "type": "address"
        },
        {
          "internalType": "address",
          "name": "_analyzer",
          "type": "address"
        },
        {
          "internalType": "address",
          "name": "_contribution",
          "type": "address"
        },
        {
          "internalType": "address[]",
          "name": "initialERC20Tokens",
          "type": "address[]"
        }
      ],
      "name": "initialize",
      "outputs": [],
      "stateMutability": "nonpayable",
      "type": "function"
    },
    {
      "inputs": [
        {
          "internalType": "uint256",
          "name": "depositId",
          "type": "uint256"
        },
        {
          "internalType": "bytes32",
          "name": "recipientSaltHash",
          "type": "bytes32"
        },
        {
          "internalType": "uint32",
          "name": "tokenIndex",
          "type": "uint32"
        },
        {
          "internalType": "uint256",
          "name": "amount",
          "type": "uint256"
        },
        {
          "internalType": "bool",
          "name": "isEligible",
          "type": "bool"
        },
        {
          "internalType": "address",
          "name": "sender",
          "type": "address"
        }
      ],
      "name": "isDepositValid",
      "outputs": [
        {
          "internalType": "bool",
          "name": "",
          "type": "bool"
        }
      ],
      "stateMutability": "view",
      "type": "function"
    },
    {
      "inputs": [
        {
          "internalType": "address",
          "name": "",
          "type": "address"
        },
        {
          "internalType": "address",
          "name": "",
          "type": "address"
        },
        {
          "internalType": "uint256",
          "name": "",
          "type": "uint256"
        },
        {
          "internalType": "uint256",
          "name": "",
          "type": "uint256"
        },
        {
          "internalType": "bytes",
          "name": "",
          "type": "bytes"
        }
      ],
      "name": "onERC1155Received",
      "outputs": [
        {
          "internalType": "bytes4",
          "name": "",
          "type": "bytes4"
        }
      ],
      "stateMutability": "pure",
      "type": "function"
    },
    {
      "inputs": [],
      "name": "pauseDeposits",
      "outputs": [],
      "stateMutability": "nonpayable",
      "type": "function"
    },
    {
      "inputs": [],
      "name": "paused",
      "outputs": [
        {
          "internalType": "bool",
          "name": "",
          "type": "bool"
        }
      ],
      "stateMutability": "view",
      "type": "function"
    },
    {
      "inputs": [
        {
          "components": [
            {
              "internalType": "address",
              "name": "recipient",
              "type": "address"
            },
            {
              "internalType": "uint32",
              "name": "tokenIndex",
              "type": "uint32"
            },
            {
              "internalType": "uint256",
              "name": "amount",
              "type": "uint256"
            },
            {
              "internalType": "bytes32",
              "name": "nullifier",
              "type": "bytes32"
            }
          ],
          "internalType": "struct WithdrawalLib.Withdrawal[]",
          "name": "withdrawals",
          "type": "tuple[]"
        },
        {
          "internalType": "bytes32[]",
          "name": "withdrawalHashes",
          "type": "bytes32[]"
        }
      ],
      "name": "processWithdrawals",
      "outputs": [],
      "stateMutability": "nonpayable",
      "type": "function"
    },
    {
      "inputs": [],
      "name": "proxiableUUID",
      "outputs": [
        {
          "internalType": "bytes32",
          "name": "",
          "type": "bytes32"
        }
      ],
      "stateMutability": "view",
      "type": "function"
    },
    {
      "inputs": [
        {
          "internalType": "bytes32",
          "name": "role",
          "type": "bytes32"
        },
        {
          "internalType": "address",
          "name": "callerConfirmation",
          "type": "address"
        }
      ],
      "name": "renounceRole",
      "outputs": [],
      "stateMutability": "nonpayable",
      "type": "function"
    },
    {
      "inputs": [
        {
          "internalType": "bytes32",
          "name": "role",
          "type": "bytes32"
        },
        {
          "internalType": "address",
          "name": "account",
          "type": "address"
        }
      ],
      "name": "revokeRole",
      "outputs": [],
      "stateMutability": "nonpayable",
      "type": "function"
    },
    {
      "inputs": [
        {
          "internalType": "bytes4",
          "name": "interfaceId",
          "type": "bytes4"
        }
      ],
      "name": "supportsInterface",
      "outputs": [
        {
          "internalType": "bool",
          "name": "",
          "type": "bool"
        }
      ],
      "stateMutability": "view",
      "type": "function"
    },
    {
      "inputs": [],
      "name": "unpauseDeposits",
      "outputs": [],
      "stateMutability": "nonpayable",
      "type": "function"
    },
    {
      "inputs": [
        {
          "internalType": "address",
          "name": "newImplementation",
          "type": "address"
        },
        {
          "internalType": "bytes",
          "name": "data",
          "type": "bytes"
        }
      ],
      "name": "upgradeToAndCall",
      "outputs": [],
      "stateMutability": "payable",
      "type": "function"
    }
  ],
  "bytecode": "0x60a06040523073ffffffffffffffffffffffffffffffffffffffff1660809073ffffffffffffffffffffffffffffffffffffffff1681525034801561004357600080fd5b5061005261008660201b60201c565b6201518060016201518042610067919061021a565b610071919061024b565b61007b919061027f565b6003819055506102ff565b600061009661018a60201b60201c565b90508060000160089054906101000a900460ff16156100e1576040517ff92ee8a900000000000000000000000000000000000000000000000000000000815260040160405180910390fd5b67ffffffffffffffff80168160000160009054906101000a900467ffffffffffffffff1667ffffffffffffffff16146101875767ffffffffffffffff8160000160006101000a81548167ffffffffffffffff021916908367ffffffffffffffff1602179055507fc7f505b2f371ae2175ee4913f4499e1f2633a7b5936321eed1cdaeb6115181d267ffffffffffffffff60405161017e91906102e4565b60405180910390a15b50565b60007ff0c57e16840df040f15088dc2f81fe391c3923bec73e23a9662efc9c229c6a00905090565b6000819050919050565b7f4e487b7100000000000000000000000000000000000000000000000000000000600052601260045260246000fd5b7f4e487b7100000000000000000000000000000000000000000000000000000000600052601160045260246000fd5b6000610225826101b2565b9150610230836101b2565b9250826102405761023f6101bc565b5b828204905092915050565b6000610256826101b2565b9150610261836101b2565b9250828201905080821115610279576102786101eb565b5b92915050565b600061028a826101b2565b9150610295836101b2565b92508282026102a3816101b2565b915082820484148315176102ba576102b96101eb565b5b5092915050565b600067ffffffffffffffff82169050919050565b6102de816102c1565b82525050565b60006020820190506102f960008301846102d5565b92915050565b60805161617e6103286000396000818161280d015281816128620152612a23015261617e6000f3fe6080604052600436106102045760003560e01c80636751783711610118578063a217fddf116100a0578063d547741f1161006f578063d547741f1461075e578063dd9ea29914610787578063e579fa2b146107b2578063f23a6e61146107ef578063ffd553321461082c57610204565b8063a217fddf1461068e578063ad3cb1cc146106b9578063c13819b6146106e4578063cbd90cd01461072157610204565b8063986be0e2116100e7578063986be0e2146105995780639c79a31c146105d65780639d07861c146105ff5780639d6a54cb1461063c5780639f401f581461066557610204565b806367517837146104df578063788c2ecf1461050a57806391d148541461053357806391f69b7d1461057057610204565b806336568abe1161019b5780634f1ef2861161016a5780634f1ef2861461043a57806352d1902d146104565780635362485e146104815780635c975abb1461049d57806363d8882a146104c857610204565b806336568abe1461037f578063381175f6146103a857806342a82b4f146103e6578063433f6c121461040f57610204565b8063232c1c8a116101d7578063232c1c8a146102b3578063248a9ca3146102f057806326fc02dd1461032d5780632f2ff15d1461035657610204565b806301ffc9a71461020957806302191980146102465780630c0b59b91461025d578063219cd26314610288575b600080fd5b34801561021557600080fd5b50610230600480360381019061022b91906146c3565b610848565b60405161023d919061470b565b60405180910390f35b34801561025257600080fd5b5061025b6108c2565b005b34801561026957600080fd5b506102726108da565b60405161027f919061473f565b60405180910390f35b34801561029457600080fd5b5061029d6108fe565b6040516102aa9190614779565b60405180910390f35b3480156102bf57600080fd5b506102da60048036038101906102d59190614923565b610903565b6040516102e79190614abc565b60405180910390f35b3480156102fc57600080fd5b5061031760048036038101906103129190614b0a565b610a64565b604051610324919061473f565b60405180910390f35b34801561033957600080fd5b50610354600480360381019061034f9190614b63565b610a92565b005b34801561036257600080fd5b5061037d60048036038101906103789190614bca565b610b87565b005b34801561038b57600080fd5b506103a660048036038101906103a19190614bca565b610ba9565b005b3480156103b457600080fd5b506103cf60048036038101906103ca9190614c2f565b610c24565b6040516103dd929190614c82565b60405180910390f35b3480156103f257600080fd5b5061040d60048036038101906104089190614d6e565b610e50565b005b34801561041b57600080fd5b5061042461138a565b604051610431919061473f565b60405180910390f35b610454600480360381019061044f9190614ee1565b6113ae565b005b34801561046257600080fd5b5061046b6113cd565b604051610478919061473f565b60405180910390f35b61049b60048036038101906104969190614f3d565b611400565b005b3480156104a957600080fd5b506104b26115c4565b6040516104bf919061470b565b60405180910390f35b3480156104d457600080fd5b506104dd6115e9565b005b3480156104eb57600080fd5b506104f4611601565b6040516105019190614fbb565b60405180910390f35b34801561051657600080fd5b50610531600480360381019061052c9190614fd6565b61161a565b005b34801561053f57600080fd5b5061055a60048036038101906105559190614bca565b6116ba565b604051610567919061470b565b60405180910390f35b34801561057c57600080fd5b5061059760048036038101906105929190615084565b611733565b005b3480156105a557600080fd5b506105c060048036038101906105bb91906150d1565b611879565b6040516105cd919061473f565b60405180910390f35b3480156105e257600080fd5b506105fd60048036038101906105f891906151e7565b6118ab565b005b34801561060b57600080fd5b5061062660048036038101906106219190615227565b611af2565b604051610633919061470b565b60405180910390f35b34801561064857600080fd5b50610663600480360381019061065e919061530a565b611c71565b005b34801561067157600080fd5b5061068c60048036038101906106879190614fd6565b611ded565b005b34801561069a57600080fd5b506106a3611e95565b6040516106b0919061473f565b60405180910390f35b3480156106c557600080fd5b506106ce611e9c565b6040516106db919061540a565b60405180910390f35b3480156106f057600080fd5b5061070b600480360381019061070691906150d1565b611ed5565b604051610718919061546e565b60405180910390f35b34801561072d57600080fd5b5061074860048036038101906107439190615489565b611f8f565b604051610755919061557e565b60405180910390f35b34801561076a57600080fd5b5061078560048036038101906107809190614bca565b61206c565b005b34801561079357600080fd5b5061079c61208e565b6040516107a99190614fbb565b60405180910390f35b3480156107be57600080fd5b506107d960048036038101906107d49190614b0a565b6120aa565b6040516107e69190614fbb565b60405180910390f35b3480156107fb57600080fd5b50610816600480360381019061081191906155ef565b6120c2565b6040516108239190615698565b60405180910390f35b61084660048036038101906108419190614b0a565b6120d8565b005b60007f7965db0b000000000000000000000000000000000000000000000000000000007bffffffffffffffffffffffffffffffffffffffffffffffffffffffff1916827bffffffffffffffffffffffffffffffffffffffffffffffffffffffff191614806108bb57506108ba8261213d565b5b9050919050565b6000801b6108cf816121a7565b6108d76121bb565b50565b7fe5002bd16ffc71462a6c1c19eaf55e254c97864c770378b6f68c1a085231514a81565b600090565b60606000825167ffffffffffffffff811115610922576109216147aa565b5b60405190808252806020026020018201604052801561095b57816020015b6109486145d2565b8152602001906001900390816109405790505b50905060005b8351811015610a5a576009600001848281518110610982576109816156b3565b5b60200260200101518154811061099b5761099a6156b3565b5b9060005260206000209060020201604051806060016040529081600082015481526020016001820160009054906101000a900473ffffffffffffffffffffffffffffffffffffffff1673ffffffffffffffffffffffffffffffffffffffff1673ffffffffffffffffffffffffffffffffffffffff1681526020016001820160149054906101000a900460ff161515151581525050828281518110610a4257610a416156b3565b5b60200260200101819052508080600101915050610961565b5080915050919050565b600080610a6f61222d565b905080600001600084815260200190815260200160002060010154915050919050565b610a9a612255565b60008103610ad4576040517f94fe88d900000000000000000000000000000000000000000000000000000000815260040160405180910390fd5b8373ffffffffffffffffffffffffffffffffffffffff1663f242432a610af8612296565b308585604051806020016040528060008152506040518663ffffffff1660e01b8152600401610b2b959493929190615746565b600060405180830381600087803b158015610b4557600080fd5b505af1158015610b59573d6000803e3d6000fd5b505050506000610b6b6003868561229e565b9050610b80610b78612296565b8583856122d9565b5050505050565b610b9082610a64565b610b99816121a7565b610ba3838361248c565b50505050565b610bb1612296565b73ffffffffffffffffffffffffffffffffffffffff168173ffffffffffffffffffffffffffffffffffffffff1614610c15576040517f6697b23200000000000000000000000000000000000000000000000000000000815260040160405180910390fd5b610c1f828261258d565b505050565b60008060006003811115610c3b57610c3a6154b6565b5b856003811115610c4e57610c4d6154b6565b5b03610c60576001600091509150610e48565b600073ffffffffffffffffffffffffffffffffffffffff168473ffffffffffffffffffffffffffffffffffffffff1603610cc6576040517fdc2e5e8d00000000000000000000000000000000000000000000000000000000815260040160405180910390fd5b60016003811115610cda57610cd96154b6565b5b856003811115610ced57610cec6154b6565b5b03610d63576000600160008673ffffffffffffffffffffffffffffffffffffffff1673ffffffffffffffffffffffffffffffffffffffff16815260200190815260200160002060009054906101000a900463ffffffff16905060008163ffffffff1614610d61576001819250925050610e48565b505b60026003811115610d7757610d766154b6565b5b856003811115610d8a57610d896154b6565b5b1480610db95750600380811115610da457610da36154b6565b5b856003811115610db757610db66154b6565b5b145b15610e40576000600260008673ffffffffffffffffffffffffffffffffffffffff1673ffffffffffffffffffffffffffffffffffffffff168152602001908152602001600020600085815260200190815260200160002060009054906101000a900463ffffffff16905060008163ffffffff1614610e3e576001819250925050610e48565b505b600080915091505b935093915050565b6000610e5a61268f565b905060008160000160089054906101000a900460ff1615905060008260000160009054906101000a900467ffffffffffffffff1690506000808267ffffffffffffffff16148015610ea85750825b9050600060018367ffffffffffffffff16148015610edd575060003073ffffffffffffffffffffffffffffffffffffffff163b145b905081158015610eeb575080155b15610f22576040517ff92ee8a900000000000000000000000000000000000000000000000000000000815260040160405180910390fd5b60018560000160006101000a81548167ffffffffffffffff021916908367ffffffffffffffff1602179055508315610f725760018560000160086101000a81548160ff0219169083151502179055505b600073ffffffffffffffffffffffffffffffffffffffff168c73ffffffffffffffffffffffffffffffffffffffff1603610fd8576040517f9fabe1c100000000000000000000000000000000000000000000000000000000815260040160405180910390fd5b600073ffffffffffffffffffffffffffffffffffffffff168b73ffffffffffffffffffffffffffffffffffffffff160361103e576040517f9fabe1c100000000000000000000000000000000000000000000000000000000815260040160405180910390fd5b600073ffffffffffffffffffffffffffffffffffffffff168a73ffffffffffffffffffffffffffffffffffffffff16036110a4576040517f9fabe1c100000000000000000000000000000000000000000000000000000000815260040160405180910390fd5b600073ffffffffffffffffffffffffffffffffffffffff168973ffffffffffffffffffffffffffffffffffffffff160361110a576040517f9fabe1c100000000000000000000000000000000000000000000000000000000815260040160405180910390fd5b600073ffffffffffffffffffffffffffffffffffffffff168873ffffffffffffffffffffffffffffffffffffffff1603611170576040517f9fabe1c100000000000000000000000000000000000000000000000000000000815260040160405180910390fd5b600073ffffffffffffffffffffffffffffffffffffffff168773ffffffffffffffffffffffffffffffffffffffff16036111d6576040517f9fabe1c100000000000000000000000000000000000000000000000000000000815260040160405180910390fd5b6111e36000801b8d61248c565b5061120e7fe5002bd16ffc71462a6c1c19eaf55e254c97864c770378b6f68c1a085231514a8961248c565b506112397f738128fe393bef1bcd8a524796fff40618b938cd467c71fcf37850ab0ba4f7d78a61248c565b506112426126b7565b61124a6126c1565b611253866126cb565b61125d6009612726565b8a600460006101000a81548173ffffffffffffffffffffffffffffffffffffffff021916908373ffffffffffffffffffffffffffffffffffffffff16021790555086600560006101000a81548173ffffffffffffffffffffffffffffffffffffffff021916908373ffffffffffffffffffffffffffffffffffffffff16021790555089600660006101000a81548173ffffffffffffffffffffffffffffffffffffffff021916908373ffffffffffffffffffffffffffffffffffffffff160217905550831561137c5760008560000160086101000a81548160ff0219169083151502179055507fc7f505b2f371ae2175ee4913f4499e1f2633a7b5936321eed1cdaeb6115181d2600160405161137391906157f9565b60405180910390a15b505050505050505050505050565b7f738128fe393bef1bcd8a524796fff40618b938cd467c71fcf37850ab0ba4f7d781565b6113b661280b565b6113bf826128f1565b6113c98282612902565b5050565b60006113d7612a21565b7f360894a13ba1a3210667c828492db98dca3e2076cc3735a920a3ca505d382bbc60001b905090565b7fe5002bd16ffc71462a6c1c19eaf55e254c97864c770378b6f68c1a085231514a61142a816121a7565b600061144285856009612aa89092919063ffffffff16565b9050600063f03efa3760e01b86836040516024016114619291906158c3565b604051602081830303815290604052907bffffffffffffffffffffffffffffffffffffffffffffffffffffffff19166020820180517bffffffffffffffffffffffffffffffffffffffffffffffffffffffff83818316178352505050509050600460009054906101000a900473ffffffffffffffffffffffffffffffffffffffff1673ffffffffffffffffffffffffffffffffffffffff16635f7b157734600660009054906101000a900473ffffffffffffffffffffffffffffffffffffffff166000858961152e612296565b6040518763ffffffff1660e01b815260040161154e95949392919061592e565b6000604051808303818588803b15801561156757600080fd5b505af115801561157b573d6000803e3d6000fd5b5050505050857f2f41e147f23b2fb60bd8f0c0f016c37b7eeff712415ba8c2d60f846be3b098e68686846040516115b493929190615a37565b60405180910390a2505050505050565b6000806115cf612e71565b90508060000160009054906101000a900460ff1691505090565b6000801b6115f6816121a7565b6115fe612e99565b50565b600060016009600101546116159190615aab565b905090565b611622612255565b6000810361165c576040517f94fe88d900000000000000000000000000000000000000000000000000000000815260040160405180910390fd5b611690611667612296565b30838673ffffffffffffffffffffffffffffffffffffffff16612f0b909392919063ffffffff16565b600061169f600185600061229e565b90506116b46116ac612296565b8483856122d9565b50505050565b6000806116c561222d565b905080600001600085815260200190815260200160002060000160008473ffffffffffffffffffffffffffffffffffffffff1673ffffffffffffffffffffffffffffffffffffffff16815260200190815260200160002060009054906101000a900460ff1691505092915050565b60005b82829050811015611874576000838383818110611756576117556156b3565b5b90506080020180360381019061176c9190615b57565b9050600061177982612f8d565b905060006007600083815260200190815260200160002054036117d357806040517f60737bc00000000000000000000000000000000000000000000000000000000081526004016117ca919061473f565b60405180910390fd5b60006117e28360200151611f8f565b9050600760008381526020019081526020016000206000905561181c81600001518260200151856000015186604001518560400151612fd3565b81836000015173ffffffffffffffffffffffffffffffffffffffff167f0575467d13f5ab9174f470cec96623374b05cf4b19a3c83a4bfca523e243ab0460405160405180910390a35050508080600101915050611736565b505050565b600060096000018281548110611892576118916156b3565b5b9060005260206000209060020201600001549050919050565b81816000600960000183815481106118c6576118c56156b3565b5b9060005260206000209060020201604051806060016040529081600082015481526020016001820160009054906101000a900473ffffffffffffffffffffffffffffffffffffffff1673ffffffffffffffffffffffffffffffffffffffff1673ffffffffffffffffffffffffffffffffffffffff1681526020016001820160149054906101000a900460ff1615151515815250509050611964612296565b73ffffffffffffffffffffffffffffffffffffffff16816020015173ffffffffffffffffffffffffffffffffffffffff16146119cc576040517f8b2ea0f800000000000000000000000000000000000000000000000000000000815260040160405180910390fd5b60006119d7836131d3565b905080826000015114611a27578160000151816040517f7be225b6000000000000000000000000000000000000000000000000000000008152600401611a1e929190615b84565b60405180910390fd5b611a2f611601565b8411611a71578160400151611a70576040517f643710d400000000000000000000000000000000000000000000000000000000815260040160405180910390fd5b5b6000611a8787600961321f90919063ffffffff16565b90506000611a988760600151611f8f565b9050611abb8160000151826020015184602001518a604001518560400151612fd3565b877f0c1c0787650562778c282502dfd6dcea2fb79d23783920aa18aee36b4aa3dc4860405160405180910390a25050505050505050565b60008060096000018881548110611b0c57611b0b6156b3565b5b9060005260206000209060020201604051806060016040529081600082015481526020016001820160009054906101000a900473ffffffffffffffffffffffffffffffffffffffff1673ffffffffffffffffffffffffffffffffffffffff1673ffffffffffffffffffffffffffffffffffffffff1681526020016001820160149054906101000a900460ff16151515158152505090506000611bf16040518060a001604052808673ffffffffffffffffffffffffffffffffffffffff1681526020018a81526020018881526020018963ffffffff1681526020018715158152506131d3565b905080826000015114611c0957600092505050611c67565b8373ffffffffffffffffffffffffffffffffffffffff16826020015173ffffffffffffffffffffffffffffffffffffffff1614611c4b57600092505050611c67565b816040015115611c6057600092505050611c67565b6001925050505b9695505050505050565b6000600460009054906101000a900473ffffffffffffffffffffffffffffffffffffffff1690508073ffffffffffffffffffffffffffffffffffffffff16611cb7612296565b73ffffffffffffffffffffffffffffffffffffffff1614611d04576040517fd8844f1500000000000000000000000000000000000000000000000000000000815260040160405180910390fd5b611d9c7f738128fe393bef1bcd8a524796fff40618b938cd467c71fcf37850ab0ba4f7d78273ffffffffffffffffffffffffffffffffffffffff16636e296e456040518163ffffffff1660e01b8152600401602060405180830381865afa158015611d73573d6000803e3d6000fd5b505050506040513d601f19601f82011682018060405250810190611d979190615bc2565b6116ba565b611dd2576040517f84c2102600000000000000000000000000000000000000000000000000000000815260040160405180910390fd5b611ddc8585613343565b611de68383613455565b5050505050565b611df5612255565b8273ffffffffffffffffffffffffffffffffffffffff166323b872dd611e19612296565b30846040518463ffffffff1660e01b8152600401611e3993929190615bef565b600060405180830381600087803b158015611e5357600080fd5b505af1158015611e67573d6000803e3d6000fd5b505050506000611e796002858461229e565b9050611e8f611e86612296565b848360016122d9565b50505050565b6000801b81565b6040518060400160405280600581526020017f352e302e3000000000000000000000000000000000000000000000000000000081525081565b611edd6145d2565b60096000018281548110611ef457611ef36156b3565b5b9060005260206000209060020201604051806060016040529081600082015481526020016001820160009054906101000a900473ffffffffffffffffffffffffffffffffffffffff1673ffffffffffffffffffffffffffffffffffffffff1673ffffffffffffffffffffffffffffffffffffffff1681526020016001820160149054906101000a900460ff1615151515815250509050919050565b611f9761460e565b60008263ffffffff1681548110611fb157611fb06156b3565b5b90600052602060002090600202016040518060600160405290816000820160009054906101000a900460ff166003811115611fef57611fee6154b6565b5b6003811115612001576120006154b6565b5b81526020016000820160019054906101000a900473ffffffffffffffffffffffffffffffffffffffff1673ffffffffffffffffffffffffffffffffffffffff1673ffffffffffffffffffffffffffffffffffffffff1681526020016001820154815250509050919050565b61207582610a64565b61207e816121a7565b612088838361258d565b50505050565b600060016009600001805490506120a59190615aab565b905090565b60076020528060005260406000206000915090505481565b600063f23a6e6160e01b90509695505050505050565b6120e0612255565b6000340361211a576040517f94fe88d900000000000000000000000000000000000000000000000000000000815260040160405180910390fd5b60006121246108fe565b9050612139612131612296565b8383346122d9565b5050565b60007f01ffc9a7000000000000000000000000000000000000000000000000000000007bffffffffffffffffffffffffffffffffffffffffffffffffffffffff1916827bffffffffffffffffffffffffffffffffffffffffffffffffffffffff1916149050919050565b6121b8816121b3612296565b6135ad565b50565b6121c3612255565b60006121cd612e71565b905060018160000160006101000a81548160ff0219169083151502179055507f62e78cea01bee320cd4e420270b5ea74000d11b0c9f74754ebdbfc544b05a258612215612296565b6040516122229190615c26565b60405180910390a150565b60007f02dd7bc7dec4dceedda775e58dd541e08a116c6c53815c0bd028192f7b626800905090565b61225d6115c4565b15612294576040517fd93c066500000000000000000000000000000000000000000000000000000000815260040160405180910390fd5b565b600033905090565b60008060006122ae868686610c24565b9150915081156122c25780925050506122d2565b6122cd8686866135fe565b925050505b9392505050565b60006122e58342613901565b90508082111561232e5781816040517f539163e1000000000000000000000000000000000000000000000000000000008152600401612325929190615c41565b60405180910390fd5b60006001905060006123836040518060a001604052808973ffffffffffffffffffffffffffffffffffffffff1681526020018881526020018681526020018763ffffffff1681526020018415158152506131d3565b90506008600082815260200190815260200160002060009054906101000a900460ff16156123e857806040517fbff0e9e70000000000000000000000000000000000000000000000000000000081526004016123df919061473f565b60405180910390fd5b60016008600083815260200190815260200160002060006101000a81548160ff021916908315150217905550600061242c82896009613cbb9092919063ffffffff16565b9050868873ffffffffffffffffffffffffffffffffffffffff16827f1e88950eef3c1bd8dd83d765aec1f21f34ca153104f0acd7a6218bf8f48e841089894260405161247a93929190615c6a565b60405180910390a45050505050505050565b60008061249761222d565b90506124a384846116ba565b61258157600181600001600086815260200190815260200160002060000160008573ffffffffffffffffffffffffffffffffffffffff1673ffffffffffffffffffffffffffffffffffffffff16815260200190815260200160002060006101000a81548160ff02191690831515021790555061251d612296565b73ffffffffffffffffffffffffffffffffffffffff168373ffffffffffffffffffffffffffffffffffffffff16857f2f8788117e7eff1d82e926ec794901d17c78024a50270940304540a733656f0d60405160405180910390a46001915050612587565b60009150505b92915050565b60008061259861222d565b90506125a484846116ba565b1561268357600081600001600086815260200190815260200160002060000160008573ffffffffffffffffffffffffffffffffffffffff1673ffffffffffffffffffffffffffffffffffffffff16815260200190815260200160002060006101000a81548160ff02191690831515021790555061261f612296565b73ffffffffffffffffffffffffffffffffffffffff168373ffffffffffffffffffffffffffffffffffffffff16857ff6391f5c32d9c69d2a47ea670b442974b53935d1edc7fd64eb21e047a839171b60405160405180910390a46001915050612689565b60009150505b92915050565b60007ff0c57e16840df040f15088dc2f81fe391c3923bec73e23a9662efc9c229c6a00905090565b6126bf613da2565b565b6126c9613da2565b565b6126d3613da2565b6126e060008060006135fe565b5060005b8151811015612722576127146001838381518110612705576127046156b3565b5b602002602001015160006135fe565b5080806001019150506126e4565b5050565b8060000160405180606001604052806000801b8152602001600073ffffffffffffffffffffffffffffffffffffffff1681526020016000151581525090806001815401808255809150506001900390600052602060002090600202016000909190919091506000820151816000015560208201518160010160006101000a81548173ffffffffffffffffffffffffffffffffffffffff021916908373ffffffffffffffffffffffffffffffffffffffff16021790555060408201518160010160146101000a81548160ff02191690831515021790555050506001816001018190555050565b7f000000000000000000000000000000000000000000000000000000000000000073ffffffffffffffffffffffffffffffffffffffff163073ffffffffffffffffffffffffffffffffffffffff1614806128b857507f000000000000000000000000000000000000000000000000000000000000000073ffffffffffffffffffffffffffffffffffffffff1661289f613de2565b73ffffffffffffffffffffffffffffffffffffffff1614155b156128ef576040517fe07c8dba00000000000000000000000000000000000000000000000000000000815260040160405180910390fd5b565b6000801b6128fe816121a7565b5050565b8173ffffffffffffffffffffffffffffffffffffffff166352d1902d6040518163ffffffff1660e01b8152600401602060405180830381865afa92505050801561296a57506040513d601f19601f820116820180604052508101906129679190615cb6565b60015b6129ab57816040517f4c9c8ce30000000000000000000000000000000000000000000000000000000081526004016129a29190615c26565b60405180910390fd5b7f360894a13ba1a3210667c828492db98dca3e2076cc3735a920a3ca505d382bbc60001b8114612a1257806040517faa1d49a4000000000000000000000000000000000000000000000000000000008152600401612a09919061473f565b60405180910390fd5b612a1c8383613e39565b505050565b7f000000000000000000000000000000000000000000000000000000000000000073ffffffffffffffffffffffffffffffffffffffff163073ffffffffffffffffffffffffffffffffffffffff1614612aa6576040517fe07c8dba00000000000000000000000000000000000000000000000000000000815260040160405180910390fd5b565b6060600084600101549050846000018054905084101580612ac857508084105b15612b2157838160018760000180549050612ae39190615aab565b6040517f3b405536000000000000000000000000000000000000000000000000000000008152600401612b1893929190615ce3565b60405180910390fd5b60005b8351811015612bed576000848281518110612b4257612b416156b3565b5b6020026020010151905085811180612b5957508281105b15612b9f578083876040517f9e16c3b9000000000000000000000000000000000000000000000000000000008152600401612b9693929190615ce3565b60405180910390fd5b6001876000018281548110612bb757612bb66156b3565b5b906000526020600020906002020160010160146101000a81548160ff021916908315150217905550508080600101915050612b24565b506000808290505b858111612cd357600073ffffffffffffffffffffffffffffffffffffffff16876000018281548110612c2a57612c296156b3565b5b906000526020600020906002020160010160009054906101000a900473ffffffffffffffffffffffffffffffffffffffff1673ffffffffffffffffffffffffffffffffffffffff160315612cc057866000018181548110612c8e57612c8d6156b3565b5b906000526020600020906002020160010160149054906101000a900460ff16612cc0578180612cbc90615d1a565b9250505b8080612ccb90615d1a565b915050612bf5565b5060008167ffffffffffffffff811115612cf057612cef6147aa565b5b604051908082528060200260200182016040528015612d1e5781602001602082028036833780820191505090505b5090506000808490505b878111612e4d57600073ffffffffffffffffffffffffffffffffffffffff16896000018281548110612d5d57612d5c6156b3565b5b906000526020600020906002020160010160009054906101000a900473ffffffffffffffffffffffffffffffffffffffff1673ffffffffffffffffffffffffffffffffffffffff160315612e3a57886000018181548110612dc157612dc06156b3565b5b906000526020600020906002020160010160149054906101000a900460ff16612e3a57886000018181548110612dfa57612df96156b3565b5b906000526020600020906002020160000154838381518110612e1f57612e1e6156b3565b5b6020026020010181815250508180612e3690615d1a565b9250505b8080612e4590615d1a565b915050612d28565b50600187612e5b9190615d62565b8860010181905550819450505050509392505050565b60007fcd5ed15c6e187e77e9aee88184c21f4f2182ab5827cb3b7e07fbedcd63f03300905090565b612ea1613eac565b6000612eab612e71565b905060008160000160006101000a81548160ff0219169083151502179055507f5db9ee0a495bf2e6ff9c91a7834c1ba4fdd244a5e8aa4e537bd38aeae4b073aa612ef3612296565b604051612f009190615c26565b60405180910390a150565b612f87848573ffffffffffffffffffffffffffffffffffffffff166323b872dd868686604051602401612f4093929190615bef565b604051602081830303815290604052915060e01b6020820180517bffffffffffffffffffffffffffffffffffffffffffffffffffffffff8381831617835250505050613eec565b50505050565b60008160000151826020015183604001518460600151604051602001612fb69493929190615e56565b604051602081830303815290604052805190602001209050919050565b60006003811115612fe757612fe66154b6565b5b856003811115612ffa57612ff96154b6565b5b0361304b578273ffffffffffffffffffffffffffffffffffffffff166108fc839081150290604051600060405180830381858888f19350505050158015613045573d6000803e3d6000fd5b506131cc565b6001600381111561305f5761305e6154b6565b5b856003811115613072576130716154b6565b5b036130a7576130a283838673ffffffffffffffffffffffffffffffffffffffff16613f8e9092919063ffffffff16565b6131cb565b600260038111156130bb576130ba6154b6565b5b8560038111156130ce576130cd6154b6565b5b03613147578373ffffffffffffffffffffffffffffffffffffffff166323b872dd3085846040518463ffffffff1660e01b815260040161311093929190615bef565b600060405180830381600087803b15801561312a57600080fd5b505af115801561313e573d6000803e3d6000fd5b505050506131ca565b8373ffffffffffffffffffffffffffffffffffffffff1663f242432a30858486604051806020016040528060008152506040518663ffffffff1660e01b8152600401613197959493929190615746565b600060405180830381600087803b1580156131b157600080fd5b505af11580156131c5573d6000803e3d6000fd5b505050505b5b5b5050505050565b600081600001518260200151836040015184606001518560800151604051602001613202959493929190615eec565b604051602081830303815290604052805190602001209050919050565b6132276145d2565b82600001828154811061323d5761323c6156b3565b5b9060005260206000209060020201604051806060016040529081600082015481526020016001820160009054906101000a900473ffffffffffffffffffffffffffffffffffffffff1673ffffffffffffffffffffffffffffffffffffffff1673ffffffffffffffffffffffffffffffffffffffff1681526020016001820160149054906101000a900460ff16151515158152505090508260000182815481106132e9576132e86156b3565b5b90600052602060002090600202016000808201600090556001820160006101000a81549073ffffffffffffffffffffffffffffffffffffffff02191690556001820160146101000a81549060ff0219169055505092915050565b60005b8282905081101561338f57613382838383818110613367576133666156b3565b5b90506080020180360381019061337d9190615b57565b61400d565b8080600101915050613346565b50600082829050111561345157600560009054906101000a900473ffffffffffffffffffffffffffffffffffffffff1673ffffffffffffffffffffffffffffffffffffffff1663f099f9f57ff00e60aabbc167f41684e8d81677229edbc0f1876ae2c1ded0a60367465292ab32858590506040518463ffffffff1660e01b815260040161341e93929190615f4b565b600060405180830381600087803b15801561343857600080fd5b505af115801561344c573d6000803e3d6000fd5b505050505b5050565b60005b828290508110156134e757426007600085858581811061347b5761347a6156b3565b5b905060200201358152602001908152602001600020819055508282828181106134a7576134a66156b3565b5b905060200201357fd63a18c6858559d79659151118b33c6ad7cf4f7735b64fe9dbd85c509e11a11760405160405180910390a28080600101915050613458565b5060008282905011156135a957600560009054906101000a900473ffffffffffffffffffffffffffffffffffffffff1673ffffffffffffffffffffffffffffffffffffffff1663f099f9f57f25146e2fbfab3f988e64e94788d256b87c4fa8691f43ec409c49b57436cb7ee632858590506040518463ffffffff1660e01b815260040161357693929190615f4b565b600060405180830381600087803b15801561359057600080fd5b505af11580156135a4573d6000803e3d6000fd5b505050505b5050565b6135b782826116ba565b6135fa5780826040517fe2517d3f0000000000000000000000000000000000000000000000000000000081526004016135f1929190615f82565b60405180910390fd5b5050565b600080600080549050905060006040518060600160405280876003811115613629576136286154b6565b5b81526020018673ffffffffffffffffffffffffffffffffffffffff16815260200185815250908060018154018082558091505060019003906000526020600020906002020160009091909190915060008201518160000160006101000a81548160ff021916908360038111156136a2576136a16154b6565b5b021790555060208201518160000160016101000a81548173ffffffffffffffffffffffffffffffffffffffff021916908373ffffffffffffffffffffffffffffffffffffffff1602179055506040820151816001015550506000600381111561370e5761370d6154b6565b5b856003811115613721576137206154b6565b5b0361378d5780600160008073ffffffffffffffffffffffffffffffffffffffff1673ffffffffffffffffffffffffffffffffffffffff16815260200190815260200160002060006101000a81548163ffffffff021916908363ffffffff160217905550809150506138fa565b600073ffffffffffffffffffffffffffffffffffffffff168473ffffffffffffffffffffffffffffffffffffffff16036137f3576040517fdc2e5e8d00000000000000000000000000000000000000000000000000000000815260040160405180910390fd5b60016003811115613807576138066154b6565b5b85600381111561381a576138196154b6565b5b036138865780600160008673ffffffffffffffffffffffffffffffffffffffff1673ffffffffffffffffffffffffffffffffffffffff16815260200190815260200160002060006101000a81548163ffffffff021916908363ffffffff160217905550809150506138fa565b80600260008673ffffffffffffffffffffffffffffffffffffffff1673ffffffffffffffffffffffffffffffffffffffff168152602001908152602001600020600085815260200190815260200160002060006101000a81548163ffffffff021916908363ffffffff160217905550809150505b9392505050565b600060028363ffffffff161115613944576040517f609f982f00000000000000000000000000000000000000000000000000000000815260040160405180910390fd5b8142101561399757600060ff168363ffffffff160361396d57678ac7230489e800009050613cb5565b600160ff168363ffffffff160361398a576302faf0809050613cb5565b640ba43b74009050613cb5565b60006201518083426139a99190615aab565b6139b39190615fda565b90506104fd61ffff1681106139eb577fffffffffffffffffffffffffffffffffffffffffffffffffffffffffffffffff915050613cb5565b600061044761ffff168210613a035760069050613a7a565b61039161ffff168210613a195760059050613a79565b6102da61ffff168210613a2f5760049050613a78565b61022461ffff168210613a455760039050613a77565b61016d61ffff168210613a5b5760029050613a76565b60b761ffff168210613a705760019050613a75565b600090505b5b5b5b5b5b600060ff168563ffffffff1603613b535760008160ff1603613aa857678ac7230489e8000092505050613cb5565b60018160ff1603613ac6576802b5e3af16b188000092505050613cb5565b60028160ff1603613ae45768056bc75e2d6310000092505050613cb5565b60038160ff1603613b0257681b1ae4d6e2ef50000092505050613cb5565b60048160ff1603613b2057683635c9adc5dea0000092505050613cb5565b60058160ff1603613b3f5769010f0cf064dd5920000092505050613cb5565b69021e19e0c9bab240000092505050613cb5565b600160ff168563ffffffff1603613c0b5760008160ff1603613b7d576302faf08092505050613cb5565b60018160ff1603613b96576305f5e10092505050613cb5565b60028160ff1603613baf57631dcd650092505050613cb5565b60038160ff1603613bc857633b9aca0092505050613cb5565b60048160ff1603613be25764012a05f20092505050613cb5565b60058160ff1603613bfc576402540be40092505050613cb5565b640ba43b740092505050613cb5565b60008160ff1603613c2557640ba43b740092505050613cb5565b60018160ff1603613c3f5764174876e80092505050613cb5565b60028160ff1603613c595764746a52880092505050613cb5565b60038160ff1603613c735764e8d4a5100092505050613cb5565b60048160ff1603613c8e5765048c2739500092505050613cb5565b60058160ff1603613ca9576509184e72a00092505050613cb5565b652d79883d2000925050505b92915050565b6000836000018054905090508360000160405180606001604052808581526020018473ffffffffffffffffffffffffffffffffffffffff1681526020016000151581525090806001815401808255809150506001900390600052602060002090600202016000909190919091506000820151816000015560208201518160010160006101000a81548173ffffffffffffffffffffffffffffffffffffffff021916908373ffffffffffffffffffffffffffffffffffffffff16021790555060408201518160010160146101000a81548160ff02191690831515021790555050509392505050565b613daa61427f565b613de0576040517fd7e6bcf800000000000000000000000000000000000000000000000000000000815260040160405180910390fd5b565b6000613e107f360894a13ba1a3210667c828492db98dca3e2076cc3735a920a3ca505d382bbc60001b61429f565b60000160009054906101000a900473ffffffffffffffffffffffffffffffffffffffff16905090565b613e42826142a9565b8173ffffffffffffffffffffffffffffffffffffffff167fbc7cd75a20ee27fd9adebab32041f755214dbc6bffa90cc0225b39da2e5c2d3b60405160405180910390a2600081511115613e9f57613e998282614376565b50613ea8565b613ea76143fa565b5b5050565b613eb46115c4565b613eea576040517f8dfc202b00000000000000000000000000000000000000000000000000000000815260040160405180910390fd5b565b600080602060008451602086016000885af180613f0f576040513d6000823e3d81fd5b3d925060005191505060008214613f2a576001811415613f46565b60008473ffffffffffffffffffffffffffffffffffffffff163b145b15613f8857836040517f5274afe7000000000000000000000000000000000000000000000000000000008152600401613f7f9190615c26565b60405180910390fd5b50505050565b614008838473ffffffffffffffffffffffffffffffffffffffff1663a9059cbb8585604051602401613fc192919061600b565b604051602081830303815290604052915060e01b6020820180517bffffffffffffffffffffffffffffffffffffffffffffffffffffffff8381831617835250505050613eec565b505050565b600061401c8260200151611f8f565b905060006001905060006003811115614038576140376154b6565b5b8260000151600381111561404f5761404e6154b6565b5b0361409e576000836000015173ffffffffffffffffffffffffffffffffffffffff166108fc85604001519081150290604051600060405180830381858888f19350505050905080915050614193565b600160038111156140b2576140b16154b6565b5b826000015160038111156140c9576140c86154b6565b5b0361418d57600082602001515063a9059cbb60e01b846000015185604001516040516024016140f992919061600b565b604051602081830303815290604052907bffffffffffffffffffffffffffffffffffffffffffffffffffffffff19166020820180517bffffffffffffffffffffffffffffffffffffffffffffffffffffffff8381831617835250505050905061418581846020015173ffffffffffffffffffffffffffffffffffffffff1661443790919063ffffffff16565b915050614192565b600090505b5b80156141ee57826000015173ffffffffffffffffffffffffffffffffffffffff166141bd84612f8d565b7f6a65a945f1306f9bb3d4e3ce63aa367de6976a375de002492404554392c2460e60405160405180910390a361427a565b60006141f984612f8d565b9050426007600083815260200190815260200160002081905550807fedf8120f63daf877f6cb9aa7a3e21724c4532681d4afd77a45561904f1a04599856040516142439190616098565b60405180910390a2807fd63a18c6858559d79659151118b33c6ad7cf4f7735b64fe9dbd85c509e11a11760405160405180910390a2505b505050565b600061428961268f565b60000160089054906101000a900460ff16905090565b6000819050919050565b60008173ffffffffffffffffffffffffffffffffffffffff163b0361430557806040517f4c9c8ce30000000000000000000000000000000000000000000000000000000081526004016142fc9190615c26565b60405180910390fd5b806143327f360894a13ba1a3210667c828492db98dca3e2076cc3735a920a3ca505d382bbc60001b61429f565b60000160006101000a81548173ffffffffffffffffffffffffffffffffffffffff021916908373ffffffffffffffffffffffffffffffffffffffff16021790555050565b60606000808473ffffffffffffffffffffffffffffffffffffffff16846040516143a091906160ef565b600060405180830381855af49150503d80600081146143db576040519150601f19603f3d011682016040523d82523d6000602084013e6143e0565b606091505b50915091506143f08583836144fe565b9250505092915050565b6000341115614435576040517fb398979f00000000000000000000000000000000000000000000000000000000815260040160405180910390fd5b565b60008060008473ffffffffffffffffffffffffffffffffffffffff168460405161446191906160ef565b6000604051808303816000865af19150503d806000811461449e576040519150601f19603f3d011682016040523d82523d6000602084013e6144a3565b606091505b50915091508180156144d157506000815114806144d05750808060200190518101906144cf919061611b565b5b5b80156144f4575060008573ffffffffffffffffffffffffffffffffffffffff163b115b9250505092915050565b6060826145135761450e8261458d565b614585565b6000825114801561453b575060008473ffffffffffffffffffffffffffffffffffffffff163b145b1561457d57836040517f9996b3150000000000000000000000000000000000000000000000000000000081526004016145749190615c26565b60405180910390fd5b819050614586565b5b9392505050565b6000815111156145a05780518082602001fd5b6040517fd6bda27500000000000000000000000000000000000000000000000000000000815260040160405180910390fd5b604051806060016040528060008019168152602001600073ffffffffffffffffffffffffffffffffffffffff1681526020016000151581525090565b60405180606001604052806000600381111561462d5761462c6154b6565b5b8152602001600073ffffffffffffffffffffffffffffffffffffffff168152602001600081525090565b6000604051905090565b600080fd5b600080fd5b60007fffffffff0000000000000000000000000000000000000000000000000000000082169050919050565b6146a08161466b565b81146146ab57600080fd5b50565b6000813590506146bd81614697565b92915050565b6000602082840312156146d9576146d8614661565b5b60006146e7848285016146ae565b91505092915050565b60008115159050919050565b614705816146f0565b82525050565b600060208201905061472060008301846146fc565b92915050565b6000819050919050565b61473981614726565b82525050565b60006020820190506147546000830184614730565b92915050565b600063ffffffff82169050919050565b6147738161475a565b82525050565b600060208201905061478e600083018461476a565b92915050565b600080fd5b6000601f19601f8301169050919050565b7f4e487b7100000000000000000000000000000000000000000000000000000000600052604160045260246000fd5b6147e282614799565b810181811067ffffffffffffffff82111715614801576148006147aa565b5b80604052505050565b6000614814614657565b905061482082826147d9565b919050565b600067ffffffffffffffff8211156148405761483f6147aa565b5b602082029050602081019050919050565b600080fd5b6000819050919050565b61486981614856565b811461487457600080fd5b50565b60008135905061488681614860565b92915050565b600061489f61489a84614825565b61480a565b905080838252602082019050602084028301858111156148c2576148c1614851565b5b835b818110156148eb57806148d78882614877565b8452602084019350506020810190506148c4565b5050509392505050565b600082601f83011261490a57614909614794565b5b813561491a84826020860161488c565b91505092915050565b60006020828403121561493957614938614661565b5b600082013567ffffffffffffffff81111561495757614956614666565b5b614963848285016148f5565b91505092915050565b600081519050919050565b600082825260208201905092915050565b6000819050602082019050919050565b6149a181614726565b82525050565b600073ffffffffffffffffffffffffffffffffffffffff82169050919050565b60006149d2826149a7565b9050919050565b6149e2816149c7565b82525050565b6149f1816146f0565b82525050565b606082016000820151614a0d6000850182614998565b506020820151614a2060208501826149d9565b506040820151614a3360408501826149e8565b50505050565b6000614a4583836149f7565b60608301905092915050565b6000602082019050919050565b6000614a698261496c565b614a738185614977565b9350614a7e83614988565b8060005b83811015614aaf578151614a968882614a39565b9750614aa183614a51565b925050600181019050614a82565b5085935050505092915050565b60006020820190508181036000830152614ad68184614a5e565b905092915050565b614ae781614726565b8114614af257600080fd5b50565b600081359050614b0481614ade565b92915050565b600060208284031215614b2057614b1f614661565b5b6000614b2e84828501614af5565b91505092915050565b614b40816149c7565b8114614b4b57600080fd5b50565b600081359050614b5d81614b37565b92915050565b60008060008060808587031215614b7d57614b7c614661565b5b6000614b8b87828801614b4e565b9450506020614b9c87828801614af5565b9350506040614bad87828801614877565b9250506060614bbe87828801614877565b91505092959194509250565b60008060408385031215614be157614be0614661565b5b6000614bef85828601614af5565b9250506020614c0085828601614b4e565b9150509250929050565b60048110614c1757600080fd5b50565b600081359050614c2981614c0a565b92915050565b600080600060608486031215614c4857614c47614661565b5b6000614c5686828701614c1a565b9350506020614c6786828701614b4e565b9250506040614c7886828701614877565b9150509250925092565b6000604082019050614c9760008301856146fc565b614ca4602083018461476a565b9392505050565b600067ffffffffffffffff821115614cc657614cc56147aa565b5b602082029050602081019050919050565b6000614cea614ce584614cab565b61480a565b90508083825260208201905060208402830185811115614d0d57614d0c614851565b5b835b81811015614d365780614d228882614b4e565b845260208401935050602081019050614d0f565b5050509392505050565b600082601f830112614d5557614d54614794565b5b8135614d65848260208601614cd7565b91505092915050565b600080600080600080600060e0888a031215614d8d57614d8c614661565b5b6000614d9b8a828b01614b4e565b9750506020614dac8a828b01614b4e565b9650506040614dbd8a828b01614b4e565b9550506060614dce8a828b01614b4e565b9450506080614ddf8a828b01614b4e565b93505060a0614df08a828b01614b4e565b92505060c088013567ffffffffffffffff811115614e1157614e10614666565b5b614e1d8a828b01614d40565b91505092959891949750929550565b600080fd5b600067ffffffffffffffff821115614e4c57614e4b6147aa565b5b614e5582614799565b9050602081019050919050565b82818337600083830152505050565b6000614e84614e7f84614e31565b61480a565b905082815260208101848484011115614ea057614e9f614e2c565b5b614eab848285614e62565b509392505050565b600082601f830112614ec857614ec7614794565b5b8135614ed8848260208601614e71565b91505092915050565b60008060408385031215614ef857614ef7614661565b5b6000614f0685828601614b4e565b925050602083013567ffffffffffffffff811115614f2757614f26614666565b5b614f3385828601614eb3565b9150509250929050565b600080600060608486031215614f5657614f55614661565b5b6000614f6486828701614877565b935050602084013567ffffffffffffffff811115614f8557614f84614666565b5b614f91868287016148f5565b9250506040614fa286828701614877565b9150509250925092565b614fb581614856565b82525050565b6000602082019050614fd06000830184614fac565b92915050565b600080600060608486031215614fef57614fee614661565b5b6000614ffd86828701614b4e565b935050602061500e86828701614af5565b925050604061501f86828701614877565b9150509250925092565b600080fd5b60008083601f84011261504457615043614794565b5b8235905067ffffffffffffffff81111561506157615060615029565b5b60208301915083608082028301111561507d5761507c614851565b5b9250929050565b6000806020838503121561509b5761509a614661565b5b600083013567ffffffffffffffff8111156150b9576150b8614666565b5b6150c58582860161502e565b92509250509250929050565b6000602082840312156150e7576150e6614661565b5b60006150f584828501614877565b91505092915050565b600080fd5b61510c8161475a565b811461511757600080fd5b50565b60008135905061512981615103565b92915050565b615138816146f0565b811461514357600080fd5b50565b6000813590506151558161512f565b92915050565b600060a08284031215615171576151706150fe565b5b61517b60a061480a565b9050600061518b84828501614b4e565b600083015250602061519f84828501614af5565b60208301525060406151b384828501614877565b60408301525060606151c78482850161511a565b60608301525060806151db84828501615146565b60808301525092915050565b60008060c083850312156151fe576151fd614661565b5b600061520c85828601614877565b925050602061521d8582860161515b565b9150509250929050565b60008060008060008060c0878903121561524457615243614661565b5b600061525289828a01614877565b965050602061526389828a01614af5565b955050604061527489828a0161511a565b945050606061528589828a01614877565b935050608061529689828a01615146565b92505060a06152a789828a01614b4e565b9150509295509295509295565b60008083601f8401126152ca576152c9614794565b5b8235905067ffffffffffffffff8111156152e7576152e6615029565b5b60208301915083602082028301111561530357615302614851565b5b9250929050565b6000806000806040858703121561532457615323614661565b5b600085013567ffffffffffffffff81111561534257615341614666565b5b61534e8782880161502e565b9450945050602085013567ffffffffffffffff81111561537157615370614666565b5b61537d878288016152b4565b925092505092959194509250565b600081519050919050565b600082825260208201905092915050565b60005b838110156153c55780820151818401526020810190506153aa565b60008484015250505050565b60006153dc8261538b565b6153e68185615396565b93506153f68185602086016153a7565b6153ff81614799565b840191505092915050565b6000602082019050818103600083015261542481846153d1565b905092915050565b6060820160008201516154426000850182614998565b50602082015161545560208501826149d9565b50604082015161546860408501826149e8565b50505050565b6000606082019050615483600083018461542c565b92915050565b60006020828403121561549f5761549e614661565b5b60006154ad8482850161511a565b91505092915050565b7f4e487b7100000000000000000000000000000000000000000000000000000000600052602160045260246000fd5b600481106154f6576154f56154b6565b5b50565b6000819050615507826154e5565b919050565b6000615517826154f9565b9050919050565b6155278161550c565b82525050565b61553681614856565b82525050565b606082016000820151615552600085018261551e565b50602082015161556560208501826149d9565b506040820151615578604085018261552d565b50505050565b6000606082019050615593600083018461553c565b92915050565b60008083601f8401126155af576155ae614794565b5b8235905067ffffffffffffffff8111156155cc576155cb615029565b5b6020830191508360018202830111156155e8576155e7614851565b5b9250929050565b60008060008060008060a0878903121561560c5761560b614661565b5b600061561a89828a01614b4e565b965050602061562b89828a01614b4e565b955050604061563c89828a01614877565b945050606061564d89828a01614877565b935050608087013567ffffffffffffffff81111561566e5761566d614666565b5b61567a89828a01615599565b92509250509295509295509295565b6156928161466b565b82525050565b60006020820190506156ad6000830184615689565b92915050565b7f4e487b7100000000000000000000000000000000000000000000000000000000600052603260045260246000fd5b6156eb816149c7565b82525050565b600081519050919050565b600082825260208201905092915050565b6000615718826156f1565b61572281856156fc565b93506157328185602086016153a7565b61573b81614799565b840191505092915050565b600060a08201905061575b60008301886156e2565b61576860208301876156e2565b6157756040830186614fac565b6157826060830185614fac565b8181036080830152615794818461570d565b90509695505050505050565b6000819050919050565b600067ffffffffffffffff82169050919050565b6000819050919050565b60006157e36157de6157d9846157a0565b6157be565b6157aa565b9050919050565b6157f3816157c8565b82525050565b600060208201905061580e60008301846157ea565b92915050565b600081519050919050565b600082825260208201905092915050565b6000819050602082019050919050565b600061584c8383614998565b60208301905092915050565b6000602082019050919050565b600061587082615814565b61587a818561581f565b935061588583615830565b8060005b838110156158b657815161589d8882615840565b97506158a883615858565b925050600181019050615889565b5085935050505092915050565b60006040820190506158d86000830185614fac565b81810360208301526158ea8184615865565b90509392505050565b6000819050919050565b600061591861591361590e846158f3565b6157be565b614856565b9050919050565b615928816158fd565b82525050565b600060a08201905061594360008301886156e2565b615950602083018761591f565b8181036040830152615962818661570d565b90506159716060830185614fac565b61597e60808301846156e2565b9695505050505050565b600081519050919050565b600082825260208201905092915050565b6000819050602082019050919050565b60006159c0838361552d565b60208301905092915050565b6000602082019050919050565b60006159e482615988565b6159ee8185615993565b93506159f9836159a4565b8060005b83811015615a2a578151615a1188826159b4565b9750615a1c836159cc565b9250506001810190506159fd565b5085935050505092915050565b60006060820190508181036000830152615a5181866159d9565b9050615a606020830185614fac565b8181036040830152615a72818461570d565b9050949350505050565b7f4e487b7100000000000000000000000000000000000000000000000000000000600052601160045260246000fd5b6000615ab682614856565b9150615ac183614856565b9250828203905081811115615ad957615ad8615a7c565b5b92915050565b600060808284031215615af557615af46150fe565b5b615aff608061480a565b90506000615b0f84828501614b4e565b6000830152506020615b238482850161511a565b6020830152506040615b3784828501614877565b6040830152506060615b4b84828501614af5565b60608301525092915050565b600060808284031215615b6d57615b6c614661565b5b6000615b7b84828501615adf565b91505092915050565b6000604082019050615b996000830185614730565b615ba66020830184614730565b9392505050565b600081519050615bbc81614b37565b92915050565b600060208284031215615bd857615bd7614661565b5b6000615be684828501615bad565b91505092915050565b6000606082019050615c0460008301866156e2565b615c1160208301856156e2565b615c1e6040830184614fac565b949350505050565b6000602082019050615c3b60008301846156e2565b92915050565b6000604082019050615c566000830185614fac565b615c636020830184614fac565b9392505050565b6000606082019050615c7f600083018661476a565b615c8c6020830185614fac565b615c996040830184614fac565b949350505050565b600081519050615cb081614ade565b92915050565b600060208284031215615ccc57615ccb614661565b5b6000615cda84828501615ca1565b91505092915050565b6000606082019050615cf86000830186614fac565b615d056020830185614fac565b615d126040830184614fac565b949350505050565b6000615d2582614856565b91507fffffffffffffffffffffffffffffffffffffffffffffffffffffffffffffffff8203615d5757615d56615a7c565b5b600182019050919050565b6000615d6d82614856565b9150615d7883614856565b9250828201905080821115615d9057615d8f615a7c565b5b92915050565b60008160601b9050919050565b6000615dae82615d96565b9050919050565b6000615dc082615da3565b9050919050565b615dd8615dd3826149c7565b615db5565b82525050565b60008160e01b9050919050565b6000615df682615dde565b9050919050565b615e0e615e098261475a565b615deb565b82525050565b6000819050919050565b615e2f615e2a82614856565b615e14565b82525050565b6000819050919050565b615e50615e4b82614726565b615e35565b82525050565b6000615e628287615dc7565b601482019150615e728286615dfd565b600482019150615e828285615e1e565b602082019150615e928284615e3f565b60208201915081905095945050505050565b60008160f81b9050919050565b6000615ebc82615ea4565b9050919050565b6000615ece82615eb1565b9050919050565b615ee6615ee1826146f0565b615ec3565b82525050565b6000615ef88288615dc7565b601482019150615f088287615e3f565b602082019150615f188286615e1e565b602082019150615f288285615dfd565b600482019150615f388284615ed5565b6001820191508190509695505050505050565b6000606082019050615f606000830186614730565b615f6d60208301856156e2565b615f7a6040830184614fac565b949350505050565b6000604082019050615f9760008301856156e2565b615fa46020830184614730565b9392505050565b7f4e487b7100000000000000000000000000000000000000000000000000000000600052601260045260246000fd5b6000615fe582614856565b9150615ff083614856565b92508261600057615fff615fab565b5b828204905092915050565b600060408201905061602060008301856156e2565b61602d6020830184614fac565b9392505050565b61603d8161475a565b82525050565b60808201600082015161605960008501826149d9565b50602082015161606c6020850182616034565b50604082015161607f604085018261552d565b5060608201516160926060850182614998565b50505050565b60006080820190506160ad6000830184616043565b92915050565b600081905092915050565b60006160c9826156f1565b6160d381856160b3565b93506160e38185602086016153a7565b80840191505092915050565b60006160fb82846160be565b915081905092915050565b6000815190506161158161512f565b92915050565b60006020828403121561613157616130614661565b5b600061613f84828501616106565b9150509291505056fea2646970667358221220a26836c0b4bfe914a0a05d26efde57fdae9e6c1606e6d357af6b4a7e3e0986ee64736f6c634300081b0033",
  "linkReferences": {},
  "deployedLinkReferences": {}
}