{
  "_format": "hh-sol-artifact-1",
  "contractName": "Liquidity",
  "sourceName": "contracts/liquidity/Liquidity.sol",
  "abi": [
    {
      "inputs": [],
      "stateMutability": "nonpayable",
      "type": "constructor"
    },
    {
      "inputs": [],
      "name": "AccessControlBadConfirmation",
      "type": "error"
    },
    {
      "inputs": [
        {
          "internalType": "address",
          "name": "account",
          "type": "address"
        },
        {
          "internalType": "bytes32",
          "name": "neededRole",
          "type": "bytes32"
        }
      ],
      "name": "AccessControlUnauthorizedAccount",
      "type": "error"
    },
    {
      "inputs": [
        {
          "internalType": "address",
          "name": "target",
          "type": "address"
        }
      ],
      "name": "AddressEmptyCode",
      "type": "error"
    },
    {
      "inputs": [],
      "name": "AddressZero",
      "type": "error"
    },
    {
      "inputs": [],
      "name": "AlreadyAnalyzed",
      "type": "error"
    },
    {
      "inputs": [
        {
          "internalType": "address",
          "name": "implementation",
          "type": "address"
        }
      ],
      "name": "ERC1967InvalidImplementation",
      "type": "error"
    },
    {
      "inputs": [],
      "name": "ERC1967NonPayable",
      "type": "error"
    },
    {
      "inputs": [],
      "name": "EnforcedPause",
      "type": "error"
    },
    {
      "inputs": [],
      "name": "ExpectedPause",
      "type": "error"
    },
    {
      "inputs": [],
      "name": "FailedCall",
      "type": "error"
    },
    {
      "inputs": [
        {
          "internalType": "bytes32",
          "name": "depositDataHash",
          "type": "bytes32"
        },
        {
          "internalType": "bytes32",
          "name": "calculatedHash",
          "type": "bytes32"
        }
      ],
      "name": "InvalidDepositHash",
      "type": "error"
    },
    {
      "inputs": [],
      "name": "InvalidInitialization",
      "type": "error"
    },
    {
      "inputs": [],
      "name": "InvalidWithdrawalAddress",
      "type": "error"
    },
    {
      "inputs": [],
      "name": "NotInitializing",
      "type": "error"
    },
    {
      "inputs": [],
      "name": "OnlySenderCanCancelDeposit",
      "type": "error"
    },
    {
      "inputs": [
        {
          "internalType": "address",
          "name": "token",
          "type": "address"
        }
      ],
      "name": "SafeERC20FailedOperation",
      "type": "error"
    },
    {
      "inputs": [],
      "name": "SenderIsNotScrollMessenger",
      "type": "error"
    },
    {
      "inputs": [],
      "name": "TokenAddressIsZero",
      "type": "error"
    },
    {
      "inputs": [
        {
          "internalType": "uint256",
          "name": "upToDepositId",
          "type": "uint256"
        },
        {
          "internalType": "uint256",
          "name": "firstDepositId",
          "type": "uint256"
        },
        {
          "internalType": "uint256",
          "name": "lastDepositId",
          "type": "uint256"
        }
      ],
      "name": "TriedAnalyzeOutOfRange",
      "type": "error"
    },
    {
      "inputs": [],
      "name": "TriedToDepositZero",
      "type": "error"
    },
    {
      "inputs": [
        {
          "internalType": "uint256",
          "name": "rejectIndex",
          "type": "uint256"
        },
        {
          "internalType": "uint256",
          "name": "front",
          "type": "uint256"
        },
        {
          "internalType": "uint256",
          "name": "upToDepositId",
          "type": "uint256"
        }
      ],
      "name": "TriedToRejectOutOfRange",
      "type": "error"
    },
    {
      "inputs": [],
      "name": "UUPSUnauthorizedCallContext",
      "type": "error"
    },
    {
      "inputs": [
        {
          "internalType": "bytes32",
          "name": "slot",
          "type": "bytes32"
        }
      ],
      "name": "UUPSUnsupportedProxiableUUID",
      "type": "error"
    },
    {
      "inputs": [],
      "name": "WithdrawalAddressNotSet",
      "type": "error"
    },
    {
      "inputs": [
        {
          "internalType": "bytes32",
          "name": "withdrawalHash",
          "type": "bytes32"
        }
      ],
      "name": "WithdrawalNotFound",
      "type": "error"
    },
    {
      "anonymous": false,
      "inputs": [
        {
          "indexed": true,
          "internalType": "address",
          "name": "recipient",
          "type": "address"
        },
        {
          "indexed": true,
          "internalType": "bytes32",
          "name": "withdrawalHash",
          "type": "bytes32"
        }
      ],
      "name": "ClaimedWithdrawal",
      "type": "event"
    },
    {
      "anonymous": false,
      "inputs": [
        {
          "indexed": true,
          "internalType": "uint256",
          "name": "depositId",
          "type": "uint256"
        }
      ],
      "name": "DepositCanceled",
      "type": "event"
    },
    {
      "anonymous": false,
      "inputs": [
        {
          "indexed": true,
          "internalType": "uint256",
          "name": "depositId",
          "type": "uint256"
        },
        {
          "indexed": true,
          "internalType": "address",
          "name": "sender",
          "type": "address"
        },
        {
          "indexed": true,
          "internalType": "bytes32",
          "name": "recipientSaltHash",
          "type": "bytes32"
        },
        {
          "indexed": false,
          "internalType": "uint256",
          "name": "amount",
          "type": "uint256"
        },
        {
          "indexed": false,
          "internalType": "uint32",
          "name": "tokenIndex",
          "type": "uint32"
        },
        {
          "indexed": false,
          "internalType": "uint32",
          "name": "nonce",
          "type": "uint32"
        },
        {
          "indexed": false,
          "internalType": "uint256",
          "name": "depositedAt",
          "type": "uint256"
        }
      ],
      "name": "Deposited",
      "type": "event"
    },
    {
      "anonymous": false,
      "inputs": [
        {
          "indexed": true,
          "internalType": "uint256",
          "name": "upToDepositId",
          "type": "uint256"
        },
        {
          "indexed": false,
          "internalType": "uint256[]",
          "name": "rejectedIndices",
          "type": "uint256[]"
        },
        {
          "indexed": false,
          "internalType": "uint256",
          "name": "gasLimit",
          "type": "uint256"
        },
        {
          "indexed": false,
          "internalType": "bytes",
          "name": "message",
          "type": "bytes"
        }
      ],
      "name": "DepositsAnalyzedAndRelayed",
      "type": "event"
    },
    {
      "anonymous": false,
      "inputs": [
        {
          "indexed": true,
          "internalType": "bytes32",
          "name": "withdrawalHash",
          "type": "bytes32"
        },
        {
          "components": [
            {
              "internalType": "address",
              "name": "recipient",
              "type": "address"
            },
            {
              "internalType": "uint32",
              "name": "tokenIndex",
              "type": "uint32"
            },
            {
              "internalType": "uint256",
              "name": "amount",
              "type": "uint256"
            },
            {
              "internalType": "bytes32",
              "name": "nullifier",
              "type": "bytes32"
            }
          ],
          "indexed": false,
          "internalType": "struct WithdrawalLib.Withdrawal",
          "name": "withdrawal",
          "type": "tuple"
        }
      ],
      "name": "DirectWithdrawalFailed",
      "type": "event"
    },
    {
      "anonymous": false,
      "inputs": [
        {
          "indexed": true,
          "internalType": "bytes32",
          "name": "withdrawalHash",
          "type": "bytes32"
        },
        {
          "indexed": true,
          "internalType": "address",
          "name": "recipient",
          "type": "address"
        }
      ],
      "name": "DirectWithdrawalSuccessed",
      "type": "event"
    },
    {
      "anonymous": false,
      "inputs": [
        {
          "indexed": false,
          "internalType": "uint64",
          "name": "version",
          "type": "uint64"
        }
      ],
      "name": "Initialized",
      "type": "event"
    },
    {
      "anonymous": false,
      "inputs": [
        {
          "indexed": false,
          "internalType": "address",
          "name": "account",
          "type": "address"
        }
      ],
      "name": "Paused",
      "type": "event"
    },
    {
      "anonymous": false,
      "inputs": [
        {
          "indexed": true,
          "internalType": "bytes32",
          "name": "role",
          "type": "bytes32"
        },
        {
          "indexed": true,
          "internalType": "bytes32",
          "name": "previousAdminRole",
          "type": "bytes32"
        },
        {
          "indexed": true,
          "internalType": "bytes32",
          "name": "newAdminRole",
          "type": "bytes32"
        }
      ],
      "name": "RoleAdminChanged",
      "type": "event"
    },
    {
      "anonymous": false,
      "inputs": [
        {
          "indexed": true,
          "internalType": "bytes32",
          "name": "role",
          "type": "bytes32"
        },
        {
          "indexed": true,
          "internalType": "address",
          "name": "account",
          "type": "address"
        },
        {
          "indexed": true,
          "internalType": "address",
          "name": "sender",
          "type": "address"
        }
      ],
      "name": "RoleGranted",
      "type": "event"
    },
    {
      "anonymous": false,
      "inputs": [
        {
          "indexed": true,
          "internalType": "bytes32",
          "name": "role",
          "type": "bytes32"
        },
        {
          "indexed": true,
          "internalType": "address",
          "name": "account",
          "type": "address"
        },
        {
          "indexed": true,
          "internalType": "address",
          "name": "sender",
          "type": "address"
        }
      ],
      "name": "RoleRevoked",
      "type": "event"
    },
    {
      "anonymous": false,
      "inputs": [
        {
          "indexed": false,
          "internalType": "address",
          "name": "account",
          "type": "address"
        }
      ],
      "name": "Unpaused",
      "type": "event"
    },
    {
      "anonymous": false,
      "inputs": [
        {
          "indexed": true,
          "internalType": "address",
          "name": "implementation",
          "type": "address"
        }
      ],
      "name": "Upgraded",
      "type": "event"
    },
    {
      "anonymous": false,
      "inputs": [
        {
          "indexed": true,
          "internalType": "bytes32",
          "name": "withdrawalHash",
          "type": "bytes32"
        }
      ],
      "name": "WithdrawalClaimable",
      "type": "event"
    },
    {
      "inputs": [],
      "name": "ANALYZER",
      "outputs": [
        {
          "internalType": "bytes32",
          "name": "",
          "type": "bytes32"
        }
      ],
      "stateMutability": "view",
      "type": "function"
    },
    {
      "inputs": [],
      "name": "DEFAULT_ADMIN_ROLE",
      "outputs": [
        {
          "internalType": "bytes32",
          "name": "",
          "type": "bytes32"
        }
      ],
      "stateMutability": "view",
      "type": "function"
    },
    {
      "inputs": [],
      "name": "UPGRADE_INTERFACE_VERSION",
      "outputs": [
        {
          "internalType": "string",
          "name": "",
          "type": "string"
        }
      ],
      "stateMutability": "view",
      "type": "function"
    },
    {
      "inputs": [
        {
          "internalType": "uint256",
          "name": "upToDepositId",
          "type": "uint256"
        },
        {
          "internalType": "uint256[]",
          "name": "rejectDepositIds",
          "type": "uint256[]"
        },
        {
          "internalType": "uint256",
          "name": "gasLimit",
          "type": "uint256"
        }
      ],
      "name": "analyzeAndRelayDeposits",
      "outputs": [],
      "stateMutability": "payable",
      "type": "function"
    },
    {
      "inputs": [
        {
          "internalType": "uint256",
          "name": "depositId",
          "type": "uint256"
        },
        {
          "components": [
            {
              "internalType": "address",
              "name": "depositor",
              "type": "address"
            },
            {
              "internalType": "bytes32",
              "name": "recipientSaltHash",
              "type": "bytes32"
            },
            {
              "internalType": "uint256",
              "name": "amount",
              "type": "uint256"
            },
            {
              "internalType": "uint32",
              "name": "tokenIndex",
              "type": "uint32"
            },
            {
              "internalType": "uint32",
              "name": "nonce",
              "type": "uint32"
            }
          ],
          "internalType": "struct DepositLib.Deposit",
          "name": "deposit",
          "type": "tuple"
        }
      ],
      "name": "cancelDeposit",
      "outputs": [],
      "stateMutability": "nonpayable",
      "type": "function"
    },
    {
      "inputs": [
        {
          "components": [
            {
              "internalType": "address",
              "name": "recipient",
              "type": "address"
            },
            {
              "internalType": "uint32",
              "name": "tokenIndex",
              "type": "uint32"
            },
            {
              "internalType": "uint256",
              "name": "amount",
              "type": "uint256"
            },
            {
              "internalType": "bytes32",
              "name": "nullifier",
              "type": "bytes32"
            }
          ],
          "internalType": "struct WithdrawalLib.Withdrawal[]",
          "name": "withdrawals",
          "type": "tuple[]"
        }
      ],
      "name": "claimWithdrawals",
      "outputs": [],
      "stateMutability": "nonpayable",
      "type": "function"
    },
    {
      "inputs": [
        {
          "internalType": "bytes32",
          "name": "",
          "type": "bytes32"
        }
      ],
      "name": "claimableWithdrawals",
      "outputs": [
        {
          "internalType": "uint256",
          "name": "",
          "type": "uint256"
        }
      ],
      "stateMutability": "view",
      "type": "function"
    },
    {
      "inputs": [
        {
          "internalType": "address",
          "name": "tokenAddress",
          "type": "address"
        },
        {
          "internalType": "bytes32",
          "name": "recipientSaltHash",
          "type": "bytes32"
        },
        {
          "internalType": "uint256",
          "name": "tokenId",
          "type": "uint256"
        },
        {
          "internalType": "uint256",
          "name": "amount",
          "type": "uint256"
        }
      ],
      "name": "depositERC1155",
      "outputs": [],
      "stateMutability": "nonpayable",
      "type": "function"
    },
    {
      "inputs": [
        {
          "internalType": "address",
          "name": "tokenAddress",
          "type": "address"
        },
        {
          "internalType": "bytes32",
          "name": "recipientSaltHash",
          "type": "bytes32"
        },
        {
          "internalType": "uint256",
          "name": "amount",
          "type": "uint256"
        }
      ],
      "name": "depositERC20",
      "outputs": [],
      "stateMutability": "nonpayable",
      "type": "function"
    },
    {
      "inputs": [
        {
          "internalType": "address",
          "name": "tokenAddress",
          "type": "address"
        },
        {
          "internalType": "bytes32",
          "name": "recipientSaltHash",
          "type": "bytes32"
        },
        {
          "internalType": "uint256",
          "name": "tokenId",
          "type": "uint256"
        }
      ],
      "name": "depositERC721",
      "outputs": [],
      "stateMutability": "nonpayable",
      "type": "function"
    },
    {
      "inputs": [
        {
          "internalType": "bytes32",
          "name": "recipientSaltHash",
          "type": "bytes32"
        }
      ],
      "name": "depositNativeToken",
      "outputs": [],
      "stateMutability": "payable",
      "type": "function"
    },
    {
      "inputs": [
        {
          "internalType": "uint256",
          "name": "depositId",
          "type": "uint256"
        }
      ],
      "name": "getDepositData",
      "outputs": [
        {
          "components": [
            {
              "internalType": "bytes32",
              "name": "depositHash",
              "type": "bytes32"
            },
            {
              "internalType": "address",
              "name": "sender",
              "type": "address"
            },
            {
              "internalType": "bool",
              "name": "isRejected",
              "type": "bool"
            }
          ],
          "internalType": "struct DepositQueueLib.DepositData",
          "name": "",
          "type": "tuple"
        }
      ],
      "stateMutability": "view",
      "type": "function"
    },
    {
      "inputs": [
        {
          "internalType": "uint256[]",
          "name": "depositIds",
          "type": "uint256[]"
        }
      ],
      "name": "getDepositDataBatch",
      "outputs": [
        {
          "components": [
            {
              "internalType": "bytes32",
              "name": "depositHash",
              "type": "bytes32"
            },
            {
              "internalType": "address",
              "name": "sender",
              "type": "address"
            },
            {
              "internalType": "bool",
              "name": "isRejected",
              "type": "bool"
            }
          ],
          "internalType": "struct DepositQueueLib.DepositData[]",
          "name": "",
          "type": "tuple[]"
        }
      ],
      "stateMutability": "view",
      "type": "function"
    },
    {
      "inputs": [
        {
          "internalType": "uint256",
          "name": "depositId",
          "type": "uint256"
        }
      ],
      "name": "getDepositDataHash",
      "outputs": [
        {
          "internalType": "bytes32",
          "name": "",
          "type": "bytes32"
        }
      ],
      "stateMutability": "view",
      "type": "function"
    },
    {
      "inputs": [],
      "name": "getLastDepositId",
      "outputs": [
        {
          "internalType": "uint256",
          "name": "",
          "type": "uint256"
        }
      ],
      "stateMutability": "view",
      "type": "function"
    },
    {
      "inputs": [],
      "name": "getLastRelayedDepositId",
      "outputs": [
        {
          "internalType": "uint256",
          "name": "",
          "type": "uint256"
        }
      ],
      "stateMutability": "view",
      "type": "function"
    },
    {
      "inputs": [],
      "name": "getNativeTokenIndex",
      "outputs": [
        {
          "internalType": "uint32",
          "name": "",
          "type": "uint32"
        }
      ],
      "stateMutability": "pure",
      "type": "function"
    },
    {
      "inputs": [
        {
          "internalType": "bytes32",
          "name": "role",
          "type": "bytes32"
        }
      ],
      "name": "getRoleAdmin",
      "outputs": [
        {
          "internalType": "bytes32",
          "name": "",
          "type": "bytes32"
        }
      ],
      "stateMutability": "view",
      "type": "function"
    },
    {
      "inputs": [
        {
          "internalType": "enum ITokenData.TokenType",
          "name": "tokenType",
          "type": "uint8"
        },
        {
          "internalType": "address",
          "name": "tokenAddress",
          "type": "address"
        },
        {
          "internalType": "uint256",
          "name": "tokenId",
          "type": "uint256"
        }
      ],
      "name": "getTokenIndex",
      "outputs": [
        {
          "internalType": "bool",
          "name": "",
          "type": "bool"
        },
        {
          "internalType": "uint32",
          "name": "",
          "type": "uint32"
        }
      ],
      "stateMutability": "view",
      "type": "function"
    },
    {
      "inputs": [
        {
          "internalType": "uint32",
          "name": "tokenIndex",
          "type": "uint32"
        }
      ],
      "name": "getTokenInfo",
      "outputs": [
        {
          "components": [
            {
              "internalType": "enum ITokenData.TokenType",
              "name": "tokenType",
              "type": "uint8"
            },
            {
              "internalType": "address",
              "name": "tokenAddress",
              "type": "address"
            },
            {
              "internalType": "uint256",
              "name": "tokenId",
              "type": "uint256"
            }
          ],
          "internalType": "struct ITokenData.TokenInfo",
          "name": "",
          "type": "tuple"
        }
      ],
      "stateMutability": "view",
      "type": "function"
    },
    {
      "inputs": [
        {
          "internalType": "bytes32",
          "name": "role",
          "type": "bytes32"
        },
        {
          "internalType": "address",
          "name": "account",
          "type": "address"
        }
      ],
      "name": "grantRole",
      "outputs": [],
      "stateMutability": "nonpayable",
      "type": "function"
    },
    {
      "inputs": [
        {
          "internalType": "bytes32",
          "name": "role",
          "type": "bytes32"
        },
        {
          "internalType": "address",
          "name": "account",
          "type": "address"
        }
      ],
      "name": "hasRole",
      "outputs": [
        {
          "internalType": "bool",
          "name": "",
          "type": "bool"
        }
      ],
      "stateMutability": "view",
      "type": "function"
    },
    {
      "inputs": [
        {
          "internalType": "address",
          "name": "_admin",
          "type": "address"
        },
        {
          "internalType": "address",
          "name": "_l1ScrollMessenger",
          "type": "address"
        },
        {
          "internalType": "address",
          "name": "_rollup",
          "type": "address"
        },
        {
          "internalType": "address",
          "name": "_withdrawal",
          "type": "address"
        },
        {
          "internalType": "address",
          "name": "_analyzer",
          "type": "address"
        },
        {
          "internalType": "address",
          "name": "_contribution",
          "type": "address"
        },
        {
          "internalType": "address[]",
          "name": "initialERC20Tokens",
          "type": "address[]"
        }
      ],
      "name": "initialize",
      "outputs": [],
      "stateMutability": "nonpayable",
      "type": "function"
    },
    {
      "inputs": [
        {
          "internalType": "uint256",
          "name": "depositId",
          "type": "uint256"
        },
        {
          "internalType": "address",
          "name": "sender",
          "type": "address"
        },
        {
          "internalType": "bytes32",
          "name": "recipientSaltHash",
          "type": "bytes32"
        },
        {
          "internalType": "uint256",
          "name": "amount",
          "type": "uint256"
        },
        {
          "internalType": "uint32",
          "name": "tokenIndex",
          "type": "uint32"
        },
        {
          "internalType": "uint32",
          "name": "nonce",
          "type": "uint32"
        }
      ],
      "name": "isDepositValid",
      "outputs": [
        {
          "internalType": "bool",
          "name": "",
          "type": "bool"
        }
      ],
      "stateMutability": "view",
      "type": "function"
    },
    {
      "inputs": [
        {
          "internalType": "address",
          "name": "",
          "type": "address"
        },
        {
          "internalType": "address",
          "name": "",
          "type": "address"
        },
        {
          "internalType": "uint256",
          "name": "",
          "type": "uint256"
        },
        {
          "internalType": "uint256",
          "name": "",
          "type": "uint256"
        },
        {
          "internalType": "bytes",
          "name": "",
          "type": "bytes"
        }
      ],
      "name": "onERC1155Received",
      "outputs": [
        {
          "internalType": "bytes4",
          "name": "",
          "type": "bytes4"
        }
      ],
      "stateMutability": "pure",
      "type": "function"
    },
    {
      "inputs": [],
      "name": "pauseDeposits",
      "outputs": [],
      "stateMutability": "nonpayable",
      "type": "function"
    },
    {
      "inputs": [],
      "name": "paused",
      "outputs": [
        {
          "internalType": "bool",
          "name": "",
          "type": "bool"
        }
      ],
      "stateMutability": "view",
      "type": "function"
    },
    {
      "inputs": [
        {
          "components": [
            {
              "internalType": "address",
              "name": "recipient",
              "type": "address"
            },
            {
              "internalType": "uint32",
              "name": "tokenIndex",
              "type": "uint32"
            },
            {
              "internalType": "uint256",
              "name": "amount",
              "type": "uint256"
            },
            {
              "internalType": "bytes32",
              "name": "nullifier",
              "type": "bytes32"
            }
          ],
          "internalType": "struct WithdrawalLib.Withdrawal[]",
          "name": "withdrawals",
          "type": "tuple[]"
        },
        {
          "internalType": "bytes32[]",
          "name": "withdrawalHashes",
          "type": "bytes32[]"
        }
      ],
      "name": "processWithdrawals",
      "outputs": [],
      "stateMutability": "nonpayable",
      "type": "function"
    },
    {
      "inputs": [],
      "name": "proxiableUUID",
      "outputs": [
        {
          "internalType": "bytes32",
          "name": "",
          "type": "bytes32"
        }
      ],
      "stateMutability": "view",
      "type": "function"
    },
    {
      "inputs": [
        {
          "internalType": "bytes32",
          "name": "role",
          "type": "bytes32"
        },
        {
          "internalType": "address",
          "name": "callerConfirmation",
          "type": "address"
        }
      ],
      "name": "renounceRole",
      "outputs": [],
      "stateMutability": "nonpayable",
      "type": "function"
    },
    {
      "inputs": [
        {
          "internalType": "bytes32",
          "name": "role",
          "type": "bytes32"
        },
        {
          "internalType": "address",
          "name": "account",
          "type": "address"
        }
      ],
      "name": "revokeRole",
      "outputs": [],
      "stateMutability": "nonpayable",
      "type": "function"
    },
    {
      "inputs": [
        {
          "internalType": "bytes4",
          "name": "interfaceId",
          "type": "bytes4"
        }
      ],
      "name": "supportsInterface",
      "outputs": [
        {
          "internalType": "bool",
          "name": "",
          "type": "bool"
        }
      ],
      "stateMutability": "view",
      "type": "function"
    },
    {
      "inputs": [],
      "name": "unpauseDeposits",
      "outputs": [],
      "stateMutability": "nonpayable",
      "type": "function"
    },
    {
      "inputs": [
        {
          "internalType": "address",
          "name": "newImplementation",
          "type": "address"
        },
        {
          "internalType": "bytes",
          "name": "data",
          "type": "bytes"
        }
      ],
      "name": "upgradeToAndCall",
      "outputs": [],
      "stateMutability": "payable",
      "type": "function"
    }
  ],
  "bytecode": "0x60a06040523073ffffffffffffffffffffffffffffffffffffffff1660809073ffffffffffffffffffffffffffffffffffffffff1681525034801561004357600080fd5b5061005261005760201b60201c565b6101c1565b600061006761015b60201b60201c565b90508060000160089054906101000a900460ff16156100b2576040517ff92ee8a900000000000000000000000000000000000000000000000000000000815260040160405180910390fd5b67ffffffffffffffff80168160000160009054906101000a900467ffffffffffffffff1667ffffffffffffffff16146101585767ffffffffffffffff8160000160006101000a81548167ffffffffffffffff021916908367ffffffffffffffff1602179055507fc7f505b2f371ae2175ee4913f4499e1f2633a7b5936321eed1cdaeb6115181d267ffffffffffffffff60405161014f91906101a6565b60405180910390a15b50565b60007ff0c57e16840df040f15088dc2f81fe391c3923bec73e23a9662efc9c229c6a00905090565b600067ffffffffffffffff82169050919050565b6101a081610183565b82525050565b60006020820190506101bb6000830184610197565b92915050565b608051615cb56101ea600039600081816127a2015281816127f701526129b80152615cb56000f3fe6080604052600436106101f95760003560e01c806372cb5fb21161010d578063ad3cb1cc116100a0578063dd9ea2991161006f578063dd9ea29914610714578063e579fa2b1461073f578063ec8b17481461077c578063f23a6e61146107b9578063ffd55332146107f6576101f9565b8063ad3cb1cc14610646578063c13819b614610671578063cbd90cd0146106ae578063d547741f146106eb576101f9565b8063986be0e2116100dc578063986be0e21461058c5780639d6a54cb146105c95780639f401f58146105f2578063a217fddf1461061b576101f9565b806372cb5fb2146104d4578063788c2ecf146104fd57806391d148541461052657806391f69b7d14610563576101f9565b806336568abe1161019057806352d1902d1161015f57806352d1902d146104205780635362485e1461044b5780635c975abb1461046757806363d8882a1461049257806367517837146104a9576101f9565b806336568abe14610374578063381175f61461039d57806342a82b4f146103db5780634f1ef28614610404576101f9565b8063232c1c8a116101cc578063232c1c8a146102a8578063248a9ca3146102e557806326fc02dd146103225780632f2ff15d1461034b576101f9565b806301ffc9a7146101fe578063021919801461023b5780630c0b59b914610252578063219cd2631461027d575b600080fd5b34801561020a57600080fd5b50610225600480360381019061022091906142d2565b610812565b604051610232919061431a565b60405180910390f35b34801561024757600080fd5b5061025061088c565b005b34801561025e57600080fd5b506102676108a4565b604051610274919061434e565b60405180910390f35b34801561028957600080fd5b506102926108c8565b60405161029f9190614388565b60405180910390f35b3480156102b457600080fd5b506102cf60048036038101906102ca9190614532565b6108cd565b6040516102dc91906146cb565b60405180910390f35b3480156102f157600080fd5b5061030c60048036038101906103079190614719565b610a2e565b604051610319919061434e565b60405180910390f35b34801561032e57600080fd5b5061034960048036038101906103449190614772565b610a5c565b005b34801561035757600080fd5b50610372600480360381019061036d91906147d9565b610b51565b005b34801561038057600080fd5b5061039b600480360381019061039691906147d9565b610b73565b005b3480156103a957600080fd5b506103c460048036038101906103bf919061483e565b610bee565b6040516103d2929190614891565b60405180910390f35b3480156103e757600080fd5b5061040260048036038101906103fd919061497d565b610e1a565b005b61041e60048036038101906104199190614af0565b611372565b005b34801561042c57600080fd5b50610435611391565b604051610442919061434e565b60405180910390f35b61046560048036038101906104609190614b4c565b6113c4565b005b34801561047357600080fd5b5061047c611588565b604051610489919061431a565b60405180910390f35b34801561049e57600080fd5b506104a76115ad565b005b3480156104b557600080fd5b506104be6115c5565b6040516104cb9190614bca565b60405180910390f35b3480156104e057600080fd5b506104fb60048036038101906104f69190614ca2565b6115de565b005b34801561050957600080fd5b50610524600480360381019061051f9190614ce2565b611825565b005b34801561053257600080fd5b5061054d600480360381019061054891906147d9565b6118c5565b60405161055a919061431a565b60405180910390f35b34801561056f57600080fd5b5061058a60048036038101906105859190614d90565b61193e565b005b34801561059857600080fd5b506105b360048036038101906105ae9190614ddd565b611a84565b6040516105c0919061434e565b60405180910390f35b3480156105d557600080fd5b506105f060048036038101906105eb9190614e60565b611ab6565b005b3480156105fe57600080fd5b5061061960048036038101906106149190614ce2565b611cc5565b005b34801561062757600080fd5b50610630611d6d565b60405161063d919061434e565b60405180910390f35b34801561065257600080fd5b5061065b611d74565b6040516106689190614f60565b60405180910390f35b34801561067d57600080fd5b5061069860048036038101906106939190614ddd565b611dad565b6040516106a59190614fc4565b60405180910390f35b3480156106ba57600080fd5b506106d560048036038101906106d09190614fdf565b611e67565b6040516106e291906150d4565b60405180910390f35b3480156106f757600080fd5b50610712600480360381019061070d91906147d9565b611f44565b005b34801561072057600080fd5b50610729611f66565b6040516107369190614bca565b60405180910390f35b34801561074b57600080fd5b5061076660048036038101906107619190614719565b611f82565b6040516107739190614bca565b60405180910390f35b34801561078857600080fd5b506107a3600480360381019061079e91906150ef565b611f9a565b6040516107b0919061431a565b60405180910390f35b3480156107c557600080fd5b506107e060048036038101906107db91906151d2565b61211d565b6040516107ed919061527b565b60405180910390f35b610810600480360381019061080b9190614719565b612133565b005b60007f7965db0b000000000000000000000000000000000000000000000000000000007bffffffffffffffffffffffffffffffffffffffffffffffffffffffff1916827bffffffffffffffffffffffffffffffffffffffffffffffffffffffff19161480610885575061088482612198565b5b9050919050565b6000801b61089981612202565b6108a1612216565b50565b7fe5002bd16ffc71462a6c1c19eaf55e254c97864c770378b6f68c1a085231514a81565b600090565b60606000825167ffffffffffffffff8111156108ec576108eb6143b9565b5b60405190808252806020026020018201604052801561092557816020015b6109126141e1565b81526020019060019003908161090a5790505b50905060005b8351811015610a2457600860000184828151811061094c5761094b615296565b5b60200260200101518154811061096557610964615296565b5b9060005260206000209060020201604051806060016040529081600082015481526020016001820160009054906101000a900473ffffffffffffffffffffffffffffffffffffffff1673ffffffffffffffffffffffffffffffffffffffff1673ffffffffffffffffffffffffffffffffffffffff1681526020016001820160149054906101000a900460ff161515151581525050828281518110610a0c57610a0b615296565b5b6020026020010181905250808060010191505061092b565b5080915050919050565b600080610a39612288565b905080600001600084815260200190815260200160002060010154915050919050565b610a646122b0565b60008103610a9e576040517f94fe88d900000000000000000000000000000000000000000000000000000000815260040160405180910390fd5b8373ffffffffffffffffffffffffffffffffffffffff1663f242432a610ac26122f1565b308585604051806020016040528060008152506040518663ffffffff1660e01b8152600401610af5959493929190615329565b600060405180830381600087803b158015610b0f57600080fd5b505af1158015610b23573d6000803e3d6000fd5b505050506000610b35600386856122f9565b9050610b4a610b426122f1565b858385612334565b5050505050565b610b5a82610a2e565b610b6381612202565b610b6d838361240f565b50505050565b610b7b6122f1565b73ffffffffffffffffffffffffffffffffffffffff168173ffffffffffffffffffffffffffffffffffffffff1614610bdf576040517f6697b23200000000000000000000000000000000000000000000000000000000815260040160405180910390fd5b610be98282612510565b505050565b60008060006003811115610c0557610c0461500c565b5b856003811115610c1857610c1761500c565b5b03610c2a576001600091509150610e12565b600073ffffffffffffffffffffffffffffffffffffffff168473ffffffffffffffffffffffffffffffffffffffff1603610c90576040517fdc2e5e8d00000000000000000000000000000000000000000000000000000000815260040160405180910390fd5b60016003811115610ca457610ca361500c565b5b856003811115610cb757610cb661500c565b5b03610d2d576000600160008673ffffffffffffffffffffffffffffffffffffffff1673ffffffffffffffffffffffffffffffffffffffff16815260200190815260200160002060009054906101000a900463ffffffff16905060008163ffffffff1614610d2b576001819250925050610e12565b505b60026003811115610d4157610d4061500c565b5b856003811115610d5457610d5361500c565b5b1480610d835750600380811115610d6e57610d6d61500c565b5b856003811115610d8157610d8061500c565b5b145b15610e0a576000600260008673ffffffffffffffffffffffffffffffffffffffff1673ffffffffffffffffffffffffffffffffffffffff168152602001908152602001600020600085815260200190815260200160002060009054906101000a900463ffffffff16905060008163ffffffff1614610e08576001819250925050610e12565b505b600080915091505b935093915050565b6000610e24612612565b905060008160000160089054906101000a900460ff1615905060008260000160009054906101000a900467ffffffffffffffff1690506000808267ffffffffffffffff16148015610e725750825b9050600060018367ffffffffffffffff16148015610ea7575060003073ffffffffffffffffffffffffffffffffffffffff163b145b905081158015610eb5575080155b15610eec576040517ff92ee8a900000000000000000000000000000000000000000000000000000000815260040160405180910390fd5b60018560000160006101000a81548167ffffffffffffffff021916908367ffffffffffffffff1602179055508315610f3c5760018560000160086101000a81548160ff0219169083151502179055505b600073ffffffffffffffffffffffffffffffffffffffff168c73ffffffffffffffffffffffffffffffffffffffff1603610fa2576040517f9fabe1c100000000000000000000000000000000000000000000000000000000815260040160405180910390fd5b600073ffffffffffffffffffffffffffffffffffffffff168b73ffffffffffffffffffffffffffffffffffffffff1603611008576040517f9fabe1c100000000000000000000000000000000000000000000000000000000815260040160405180910390fd5b600073ffffffffffffffffffffffffffffffffffffffff168a73ffffffffffffffffffffffffffffffffffffffff160361106e576040517f9fabe1c100000000000000000000000000000000000000000000000000000000815260040160405180910390fd5b600073ffffffffffffffffffffffffffffffffffffffff168973ffffffffffffffffffffffffffffffffffffffff16036110d4576040517f9fabe1c100000000000000000000000000000000000000000000000000000000815260040160405180910390fd5b600073ffffffffffffffffffffffffffffffffffffffff168873ffffffffffffffffffffffffffffffffffffffff160361113a576040517f9fabe1c100000000000000000000000000000000000000000000000000000000815260040160405180910390fd5b600073ffffffffffffffffffffffffffffffffffffffff168773ffffffffffffffffffffffffffffffffffffffff16036111a0576040517f9fabe1c100000000000000000000000000000000000000000000000000000000815260040160405180910390fd5b6111ad6000801b8d61240f565b506111d87fe5002bd16ffc71462a6c1c19eaf55e254c97864c770378b6f68c1a085231514a8961240f565b506111e161263a565b6111e961264c565b6111f1612656565b6111fa86612660565b61120460086126bb565b8a600360006101000a81548173ffffffffffffffffffffffffffffffffffffffff021916908373ffffffffffffffffffffffffffffffffffffffff16021790555086600460006101000a81548173ffffffffffffffffffffffffffffffffffffffff021916908373ffffffffffffffffffffffffffffffffffffffff16021790555089600560006101000a81548173ffffffffffffffffffffffffffffffffffffffff021916908373ffffffffffffffffffffffffffffffffffffffff16021790555088600660006101000a81548173ffffffffffffffffffffffffffffffffffffffff021916908373ffffffffffffffffffffffffffffffffffffffff16021790555083156113645760008560000160086101000a81548160ff0219169083151502179055507fc7f505b2f371ae2175ee4913f4499e1f2633a7b5936321eed1cdaeb6115181d2600160405161135b91906153dc565b60405180910390a15b505050505050505050505050565b61137a6127a0565b61138382612886565b61138d8282612897565b5050565b600061139b6129b6565b7f360894a13ba1a3210667c828492db98dca3e2076cc3735a920a3ca505d382bbc60001b905090565b7fe5002bd16ffc71462a6c1c19eaf55e254c97864c770378b6f68c1a085231514a6113ee81612202565b600061140685856008612a3d9092919063ffffffff16565b9050600063f03efa3760e01b86836040516024016114259291906154a6565b604051602081830303815290604052907bffffffffffffffffffffffffffffffffffffffffffffffffffffffff19166020820180517bffffffffffffffffffffffffffffffffffffffffffffffffffffffff83818316178352505050509050600360009054906101000a900473ffffffffffffffffffffffffffffffffffffffff1673ffffffffffffffffffffffffffffffffffffffff16635f7b157734600560009054906101000a900473ffffffffffffffffffffffffffffffffffffffff16600085896114f26122f1565b6040518763ffffffff1660e01b8152600401611512959493929190615511565b6000604051808303818588803b15801561152b57600080fd5b505af115801561153f573d6000803e3d6000fd5b5050505050857f2f41e147f23b2fb60bd8f0c0f016c37b7eeff712415ba8c2d60f846be3b098e68686846040516115789392919061561a565b60405180910390a2505050505050565b600080611593612e06565b90508060000160009054906101000a900460ff1691505090565b6000801b6115ba81612202565b6115c2612e2e565b50565b600060016008600101546115d9919061568e565b905090565b81816000600860000183815481106115f9576115f8615296565b5b9060005260206000209060020201604051806060016040529081600082015481526020016001820160009054906101000a900473ffffffffffffffffffffffffffffffffffffffff1673ffffffffffffffffffffffffffffffffffffffff1673ffffffffffffffffffffffffffffffffffffffff1681526020016001820160149054906101000a900460ff16151515158152505090506116976122f1565b73ffffffffffffffffffffffffffffffffffffffff16816020015173ffffffffffffffffffffffffffffffffffffffff16146116ff576040517f8b2ea0f800000000000000000000000000000000000000000000000000000000815260040160405180910390fd5b600061170a83612ea0565b90508082600001511461175a578160000151816040517f7be225b60000000000000000000000000000000000000000000000000000000081526004016117519291906156c2565b60405180910390fd5b6117626115c5565b84116117a45781604001516117a3576040517f643710d400000000000000000000000000000000000000000000000000000000815260040160405180910390fd5b5b60006117ba876008612eec90919063ffffffff16565b905060006117cb8760600151611e67565b90506117ee8160000151826020015184602001518a604001518560400151613010565b877f0c1c0787650562778c282502dfd6dcea2fb79d23783920aa18aee36b4aa3dc4860405160405180910390a25050505050505050565b61182d6122b0565b60008103611867576040517f94fe88d900000000000000000000000000000000000000000000000000000000815260040160405180910390fd5b61189b6118726122f1565b30838673ffffffffffffffffffffffffffffffffffffffff16613210909392919063ffffffff16565b60006118aa60018560006122f9565b90506118bf6118b76122f1565b848385612334565b50505050565b6000806118d0612288565b905080600001600085815260200190815260200160002060000160008473ffffffffffffffffffffffffffffffffffffffff1673ffffffffffffffffffffffffffffffffffffffff16815260200190815260200160002060009054906101000a900460ff1691505092915050565b60005b82829050811015611a7f57600083838381811061196157611960615296565b5b9050608002018036038101906119779190615763565b9050600061198482613292565b905060006007600083815260200190815260200160002054036119de57806040517f60737bc00000000000000000000000000000000000000000000000000000000081526004016119d5919061434e565b60405180910390fd5b60006119ed8360200151611e67565b90506007600083815260200190815260200160002060009055611a2781600001518260200151856000015186604001518560400151613010565b81836000015173ffffffffffffffffffffffffffffffffffffffff167f0575467d13f5ab9174f470cec96623374b05cf4b19a3c83a4bfca523e243ab0460405160405180910390a35050508080600101915050611941565b505050565b600060086000018281548110611a9d57611a9c615296565b5b9060005260206000209060020201600001549050919050565b6000600660009054906101000a900473ffffffffffffffffffffffffffffffffffffffff1690506000600360009054906101000a900473ffffffffffffffffffffffffffffffffffffffff169050600073ffffffffffffffffffffffffffffffffffffffff168273ffffffffffffffffffffffffffffffffffffffff1603611b6a576040517ff8994bfa00000000000000000000000000000000000000000000000000000000815260040160405180910390fd5b8073ffffffffffffffffffffffffffffffffffffffff16611b896122f1565b73ffffffffffffffffffffffffffffffffffffffff1614611bd6576040517fd8844f1500000000000000000000000000000000000000000000000000000000815260040160405180910390fd5b8073ffffffffffffffffffffffffffffffffffffffff16636e296e456040518163ffffffff1660e01b8152600401602060405180830381865afa158015611c21573d6000803e3d6000fd5b505050506040513d601f19601f82011682018060405250810190611c4591906157a5565b73ffffffffffffffffffffffffffffffffffffffff168273ffffffffffffffffffffffffffffffffffffffff1614611ca9576040517f84c2102600000000000000000000000000000000000000000000000000000000815260040160405180910390fd5b611cb386866132d8565b611cbd84846133ea565b505050505050565b611ccd6122b0565b8273ffffffffffffffffffffffffffffffffffffffff166323b872dd611cf16122f1565b30846040518463ffffffff1660e01b8152600401611d11939291906157d2565b600060405180830381600087803b158015611d2b57600080fd5b505af1158015611d3f573d6000803e3d6000fd5b505050506000611d51600285846122f9565b9050611d67611d5e6122f1565b84836001612334565b50505050565b6000801b81565b6040518060400160405280600581526020017f352e302e3000000000000000000000000000000000000000000000000000000081525081565b611db56141e1565b60086000018281548110611dcc57611dcb615296565b5b9060005260206000209060020201604051806060016040529081600082015481526020016001820160009054906101000a900473ffffffffffffffffffffffffffffffffffffffff1673ffffffffffffffffffffffffffffffffffffffff1673ffffffffffffffffffffffffffffffffffffffff1681526020016001820160149054906101000a900460ff1615151515815250509050919050565b611e6f61421d565b60008263ffffffff1681548110611e8957611e88615296565b5b90600052602060002090600202016040518060600160405290816000820160009054906101000a900460ff166003811115611ec757611ec661500c565b5b6003811115611ed957611ed861500c565b5b81526020016000820160019054906101000a900473ffffffffffffffffffffffffffffffffffffffff1673ffffffffffffffffffffffffffffffffffffffff1673ffffffffffffffffffffffffffffffffffffffff1681526020016001820154815250509050919050565b611f4d82610a2e565b611f5681612202565b611f608383612510565b50505050565b60006001600860000180549050611f7d919061568e565b905090565b60076020528060005260406000206000915090505481565b60008060086000018881548110611fb457611fb3615296565b5b9060005260206000209060020201604051806060016040529081600082015481526020016001820160009054906101000a900473ffffffffffffffffffffffffffffffffffffffff1673ffffffffffffffffffffffffffffffffffffffff1673ffffffffffffffffffffffffffffffffffffffff1681526020016001820160149054906101000a900460ff1615151515815250509050600061209d6040518060a001604052808a73ffffffffffffffffffffffffffffffffffffffff1681526020018981526020018881526020018763ffffffff1681526020018663ffffffff16815250612ea0565b9050808260000151146120b557600092505050612113565b8773ffffffffffffffffffffffffffffffffffffffff16826020015173ffffffffffffffffffffffffffffffffffffffff16146120f757600092505050612113565b81604001511561210c57600092505050612113565b6001925050505b9695505050505050565b600063f23a6e6160e01b90509695505050505050565b61213b6122b0565b60003403612175576040517f94fe88d900000000000000000000000000000000000000000000000000000000815260040160405180910390fd5b600061217f6108c8565b905061219461218c6122f1565b838334612334565b5050565b60007f01ffc9a7000000000000000000000000000000000000000000000000000000007bffffffffffffffffffffffffffffffffffffffffffffffffffffffff1916827bffffffffffffffffffffffffffffffffffffffffffffffffffffffff1916149050919050565b6122138161220e6122f1565b613542565b50565b61221e6122b0565b6000612228612e06565b905060018160000160006101000a81548160ff0219169083151502179055507f62e78cea01bee320cd4e420270b5ea74000d11b0c9f74754ebdbfc544b05a2586122706122f1565b60405161227d9190615809565b60405180910390a150565b60007f02dd7bc7dec4dceedda775e58dd541e08a116c6c53815c0bd028192f7b626800905090565b6122b8611588565b156122ef576040517fd93c066500000000000000000000000000000000000000000000000000000000815260040160405180910390fd5b565b600033905090565b6000806000612309868686610bee565b91509150811561231d57809250505061232d565b612328868686613593565b925050505b9392505050565b6000600860000180549050905060006123946040518060a001604052808873ffffffffffffffffffffffffffffffffffffffff1681526020018781526020018581526020018663ffffffff1681526020018463ffffffff16815250612ea0565b905060006123ae828860086138969092919063ffffffff16565b9050858773ffffffffffffffffffffffffffffffffffffffff16827fc94a219e2fba03fedb28293a26e78243c37499d70f8bdb19e9e71a107f7b3846878988426040516123fe9493929190615824565b60405180910390a450505050505050565b60008061241a612288565b905061242684846118c5565b61250457600181600001600086815260200190815260200160002060000160008573ffffffffffffffffffffffffffffffffffffffff1673ffffffffffffffffffffffffffffffffffffffff16815260200190815260200160002060006101000a81548160ff0219169083151502179055506124a06122f1565b73ffffffffffffffffffffffffffffffffffffffff168373ffffffffffffffffffffffffffffffffffffffff16857f2f8788117e7eff1d82e926ec794901d17c78024a50270940304540a733656f0d60405160405180910390a4600191505061250a565b60009150505b92915050565b60008061251b612288565b905061252784846118c5565b1561260657600081600001600086815260200190815260200160002060000160008573ffffffffffffffffffffffffffffffffffffffff1673ffffffffffffffffffffffffffffffffffffffff16815260200190815260200160002060006101000a81548160ff0219169083151502179055506125a26122f1565b73ffffffffffffffffffffffffffffffffffffffff168373ffffffffffffffffffffffffffffffffffffffff16857ff6391f5c32d9c69d2a47ea670b442974b53935d1edc7fd64eb21e047a839171b60405160405180910390a4600191505061260c565b60009150505b92915050565b60007ff0c57e16840df040f15088dc2f81fe391c3923bec73e23a9662efc9c229c6a00905090565b61264261397d565b61264a6139bd565b565b61265461397d565b565b61265e61397d565b565b61266861397d565b6126756000806000613593565b5060005b81518110156126b7576126a9600183838151811061269a57612699615296565b5b60200260200101516000613593565b508080600101915050612679565b5050565b8060000160405180606001604052806000801b8152602001600073ffffffffffffffffffffffffffffffffffffffff1681526020016000151581525090806001815401808255809150506001900390600052602060002090600202016000909190919091506000820151816000015560208201518160010160006101000a81548173ffffffffffffffffffffffffffffffffffffffff021916908373ffffffffffffffffffffffffffffffffffffffff16021790555060408201518160010160146101000a81548160ff02191690831515021790555050506001816001018190555050565b7f000000000000000000000000000000000000000000000000000000000000000073ffffffffffffffffffffffffffffffffffffffff163073ffffffffffffffffffffffffffffffffffffffff16148061284d57507f000000000000000000000000000000000000000000000000000000000000000073ffffffffffffffffffffffffffffffffffffffff166128346139f1565b73ffffffffffffffffffffffffffffffffffffffff1614155b15612884576040517fe07c8dba00000000000000000000000000000000000000000000000000000000815260040160405180910390fd5b565b6000801b61289381612202565b5050565b8173ffffffffffffffffffffffffffffffffffffffff166352d1902d6040518163ffffffff1660e01b8152600401602060405180830381865afa9250505080156128ff57506040513d601f19601f820116820180604052508101906128fc919061587e565b60015b61294057816040517f4c9c8ce30000000000000000000000000000000000000000000000000000000081526004016129379190615809565b60405180910390fd5b7f360894a13ba1a3210667c828492db98dca3e2076cc3735a920a3ca505d382bbc60001b81146129a757806040517faa1d49a400000000000000000000000000000000000000000000000000000000815260040161299e919061434e565b60405180910390fd5b6129b18383613a48565b505050565b7f000000000000000000000000000000000000000000000000000000000000000073ffffffffffffffffffffffffffffffffffffffff163073ffffffffffffffffffffffffffffffffffffffff1614612a3b576040517fe07c8dba00000000000000000000000000000000000000000000000000000000815260040160405180910390fd5b565b6060600084600101549050846000018054905084101580612a5d57508084105b15612ab657838160018760000180549050612a78919061568e565b6040517f3b405536000000000000000000000000000000000000000000000000000000008152600401612aad939291906158ab565b60405180910390fd5b60005b8351811015612b82576000848281518110612ad757612ad6615296565b5b6020026020010151905085811180612aee57508281105b15612b34578083876040517f9e16c3b9000000000000000000000000000000000000000000000000000000008152600401612b2b939291906158ab565b60405180910390fd5b6001876000018281548110612b4c57612b4b615296565b5b906000526020600020906002020160010160146101000a81548160ff021916908315150217905550508080600101915050612ab9565b506000808290505b858111612c6857600073ffffffffffffffffffffffffffffffffffffffff16876000018281548110612bbf57612bbe615296565b5b906000526020600020906002020160010160009054906101000a900473ffffffffffffffffffffffffffffffffffffffff1673ffffffffffffffffffffffffffffffffffffffff160315612c5557866000018181548110612c2357612c22615296565b5b906000526020600020906002020160010160149054906101000a900460ff16612c55578180612c51906158e2565b9250505b8080612c60906158e2565b915050612b8a565b5060008167ffffffffffffffff811115612c8557612c846143b9565b5b604051908082528060200260200182016040528015612cb35781602001602082028036833780820191505090505b5090506000808490505b878111612de257600073ffffffffffffffffffffffffffffffffffffffff16896000018281548110612cf257612cf1615296565b5b906000526020600020906002020160010160009054906101000a900473ffffffffffffffffffffffffffffffffffffffff1673ffffffffffffffffffffffffffffffffffffffff160315612dcf57886000018181548110612d5657612d55615296565b5b906000526020600020906002020160010160149054906101000a900460ff16612dcf57886000018181548110612d8f57612d8e615296565b5b906000526020600020906002020160000154838381518110612db457612db3615296565b5b6020026020010181815250508180612dcb906158e2565b9250505b8080612dda906158e2565b915050612cbd565b50600187612df0919061592a565b8860010181905550819450505050509392505050565b60007fcd5ed15c6e187e77e9aee88184c21f4f2182ab5827cb3b7e07fbedcd63f03300905090565b612e36613abb565b6000612e40612e06565b905060008160000160006101000a81548160ff0219169083151502179055507f5db9ee0a495bf2e6ff9c91a7834c1ba4fdd244a5e8aa4e537bd38aeae4b073aa612e886122f1565b604051612e959190615809565b60405180910390a150565b600081600001518260200151836040015184606001518560800151604051602001612ecf959493929190615a1e565b604051602081830303815290604052805190602001209050919050565b612ef46141e1565b826000018281548110612f0a57612f09615296565b5b9060005260206000209060020201604051806060016040529081600082015481526020016001820160009054906101000a900473ffffffffffffffffffffffffffffffffffffffff1673ffffffffffffffffffffffffffffffffffffffff1673ffffffffffffffffffffffffffffffffffffffff1681526020016001820160149054906101000a900460ff1615151515815250509050826000018281548110612fb657612fb5615296565b5b90600052602060002090600202016000808201600090556001820160006101000a81549073ffffffffffffffffffffffffffffffffffffffff02191690556001820160146101000a81549060ff0219169055505092915050565b600060038111156130245761302361500c565b5b8560038111156130375761303661500c565b5b03613088578273ffffffffffffffffffffffffffffffffffffffff166108fc839081150290604051600060405180830381858888f19350505050158015613082573d6000803e3d6000fd5b50613209565b6001600381111561309c5761309b61500c565b5b8560038111156130af576130ae61500c565b5b036130e4576130df83838673ffffffffffffffffffffffffffffffffffffffff16613afb9092919063ffffffff16565b613208565b600260038111156130f8576130f761500c565b5b85600381111561310b5761310a61500c565b5b03613184578373ffffffffffffffffffffffffffffffffffffffff166323b872dd3085846040518463ffffffff1660e01b815260040161314d939291906157d2565b600060405180830381600087803b15801561316757600080fd5b505af115801561317b573d6000803e3d6000fd5b50505050613207565b8373ffffffffffffffffffffffffffffffffffffffff1663f242432a30858486604051806020016040528060008152506040518663ffffffff1660e01b81526004016131d4959493929190615329565b600060405180830381600087803b1580156131ee57600080fd5b505af1158015613202573d6000803e3d6000fd5b505050505b5b5b5050505050565b61328c848573ffffffffffffffffffffffffffffffffffffffff166323b872dd868686604051602401613245939291906157d2565b604051602081830303815290604052915060e01b6020820180517bffffffffffffffffffffffffffffffffffffffffffffffffffffffff8381831617835250505050613b7a565b50505050565b600081600001518260200151836040015184606001516040516020016132bb9493929190615a7d565b604051602081830303815290604052805190602001209050919050565b60005b82829050811015613324576133178383838181106132fc576132fb615296565b5b9050608002018036038101906133129190615763565b613c1c565b80806001019150506132db565b5060008282905011156133e657600460009054906101000a900473ffffffffffffffffffffffffffffffffffffffff1673ffffffffffffffffffffffffffffffffffffffff1663f099f9f57ff00e60aabbc167f41684e8d81677229edbc0f1876ae2c1ded0a60367465292ab32858590506040518463ffffffff1660e01b81526004016133b393929190615acb565b600060405180830381600087803b1580156133cd57600080fd5b505af11580156133e1573d6000803e3d6000fd5b505050505b5050565b60005b8282905081101561347c5742600760008585858181106134105761340f615296565b5b9050602002013581526020019081526020016000208190555082828281811061343c5761343b615296565b5b905060200201357fd63a18c6858559d79659151118b33c6ad7cf4f7735b64fe9dbd85c509e11a11760405160405180910390a280806001019150506133ed565b50600082829050111561353e57600460009054906101000a900473ffffffffffffffffffffffffffffffffffffffff1673ffffffffffffffffffffffffffffffffffffffff1663f099f9f57f25146e2fbfab3f988e64e94788d256b87c4fa8691f43ec409c49b57436cb7ee632858590506040518463ffffffff1660e01b815260040161350b93929190615acb565b600060405180830381600087803b15801561352557600080fd5b505af1158015613539573d6000803e3d6000fd5b505050505b5050565b61354c82826118c5565b61358f5780826040517fe2517d3f000000000000000000000000000000000000000000000000000000008152600401613586929190615b02565b60405180910390fd5b5050565b6000806000805490509050600060405180606001604052808760038111156135be576135bd61500c565b5b81526020018673ffffffffffffffffffffffffffffffffffffffff16815260200185815250908060018154018082558091505060019003906000526020600020906002020160009091909190915060008201518160000160006101000a81548160ff021916908360038111156136375761363661500c565b5b021790555060208201518160000160016101000a81548173ffffffffffffffffffffffffffffffffffffffff021916908373ffffffffffffffffffffffffffffffffffffffff160217905550604082015181600101555050600060038111156136a3576136a261500c565b5b8560038111156136b6576136b561500c565b5b036137225780600160008073ffffffffffffffffffffffffffffffffffffffff1673ffffffffffffffffffffffffffffffffffffffff16815260200190815260200160002060006101000a81548163ffffffff021916908363ffffffff1602179055508091505061388f565b600073ffffffffffffffffffffffffffffffffffffffff168473ffffffffffffffffffffffffffffffffffffffff1603613788576040517fdc2e5e8d00000000000000000000000000000000000000000000000000000000815260040160405180910390fd5b6001600381111561379c5761379b61500c565b5b8560038111156137af576137ae61500c565b5b0361381b5780600160008673ffffffffffffffffffffffffffffffffffffffff1673ffffffffffffffffffffffffffffffffffffffff16815260200190815260200160002060006101000a81548163ffffffff021916908363ffffffff1602179055508091505061388f565b80600260008673ffffffffffffffffffffffffffffffffffffffff1673ffffffffffffffffffffffffffffffffffffffff168152602001908152602001600020600085815260200190815260200160002060006101000a81548163ffffffff021916908363ffffffff160217905550809150505b9392505050565b6000836000018054905090508360000160405180606001604052808581526020018473ffffffffffffffffffffffffffffffffffffffff1681526020016000151581525090806001815401808255809150506001900390600052602060002090600202016000909190919091506000820151816000015560208201518160010160006101000a81548173ffffffffffffffffffffffffffffffffffffffff021916908373ffffffffffffffffffffffffffffffffffffffff16021790555060408201518160010160146101000a81548160ff02191690831515021790555050509392505050565b613985613e8e565b6139bb576040517fd7e6bcf800000000000000000000000000000000000000000000000000000000815260040160405180910390fd5b565b6139c561397d565b60006139cf612e06565b905060008160000160006101000a81548160ff02191690831515021790555050565b6000613a1f7f360894a13ba1a3210667c828492db98dca3e2076cc3735a920a3ca505d382bbc60001b613eae565b60000160009054906101000a900473ffffffffffffffffffffffffffffffffffffffff16905090565b613a5182613eb8565b8173ffffffffffffffffffffffffffffffffffffffff167fbc7cd75a20ee27fd9adebab32041f755214dbc6bffa90cc0225b39da2e5c2d3b60405160405180910390a2600081511115613aae57613aa88282613f85565b50613ab7565b613ab6614009565b5b5050565b613ac3611588565b613af9576040517f8dfc202b00000000000000000000000000000000000000000000000000000000815260040160405180910390fd5b565b613b75838473ffffffffffffffffffffffffffffffffffffffff1663a9059cbb8585604051602401613b2e929190615b2b565b604051602081830303815290604052915060e01b6020820180517bffffffffffffffffffffffffffffffffffffffffffffffffffffffff8381831617835250505050613b7a565b505050565b600080602060008451602086016000885af180613b9d576040513d6000823e3d81fd5b3d925060005191505060008214613bb8576001811415613bd4565b60008473ffffffffffffffffffffffffffffffffffffffff163b145b15613c1657836040517f5274afe7000000000000000000000000000000000000000000000000000000008152600401613c0d9190615809565b60405180910390fd5b50505050565b6000613c2b8260200151611e67565b905060006001905060006003811115613c4757613c4661500c565b5b82600001516003811115613c5e57613c5d61500c565b5b03613cad576000836000015173ffffffffffffffffffffffffffffffffffffffff166108fc85604001519081150290604051600060405180830381858888f19350505050905080915050613da2565b60016003811115613cc157613cc061500c565b5b82600001516003811115613cd857613cd761500c565b5b03613d9c57600082602001515063a9059cbb60e01b84600001518560400151604051602401613d08929190615b2b565b604051602081830303815290604052907bffffffffffffffffffffffffffffffffffffffffffffffffffffffff19166020820180517bffffffffffffffffffffffffffffffffffffffffffffffffffffffff83818316178352505050509050613d9481846020015173ffffffffffffffffffffffffffffffffffffffff1661404690919063ffffffff16565b915050613da1565b600090505b5b8015613dfd57826000015173ffffffffffffffffffffffffffffffffffffffff16613dcc84613292565b7f6a65a945f1306f9bb3d4e3ce63aa367de6976a375de002492404554392c2460e60405160405180910390a3613e89565b6000613e0884613292565b9050426007600083815260200190815260200160002081905550807fedf8120f63daf877f6cb9aa7a3e21724c4532681d4afd77a45561904f1a0459985604051613e529190615bb8565b60405180910390a2807fd63a18c6858559d79659151118b33c6ad7cf4f7735b64fe9dbd85c509e11a11760405160405180910390a2505b505050565b6000613e98612612565b60000160089054906101000a900460ff16905090565b6000819050919050565b60008173ffffffffffffffffffffffffffffffffffffffff163b03613f1457806040517f4c9c8ce3000000000000000000000000000000000000000000000000000000008152600401613f0b9190615809565b60405180910390fd5b80613f417f360894a13ba1a3210667c828492db98dca3e2076cc3735a920a3ca505d382bbc60001b613eae565b60000160006101000a81548173ffffffffffffffffffffffffffffffffffffffff021916908373ffffffffffffffffffffffffffffffffffffffff16021790555050565b60606000808473ffffffffffffffffffffffffffffffffffffffff1684604051613faf9190615c0f565b600060405180830381855af49150503d8060008114613fea576040519150601f19603f3d011682016040523d82523d6000602084013e613fef565b606091505b5091509150613fff85838361410d565b9250505092915050565b6000341115614044576040517fb398979f00000000000000000000000000000000000000000000000000000000815260040160405180910390fd5b565b60008060008473ffffffffffffffffffffffffffffffffffffffff16846040516140709190615c0f565b6000604051808303816000865af19150503d80600081146140ad576040519150601f19603f3d011682016040523d82523d6000602084013e6140b2565b606091505b50915091508180156140e057506000815114806140df5750808060200190518101906140de9190615c52565b5b5b8015614103575060008573ffffffffffffffffffffffffffffffffffffffff163b115b9250505092915050565b6060826141225761411d8261419c565b614194565b6000825114801561414a575060008473ffffffffffffffffffffffffffffffffffffffff163b145b1561418c57836040517f9996b3150000000000000000000000000000000000000000000000000000000081526004016141839190615809565b60405180910390fd5b819050614195565b5b9392505050565b6000815111156141af5780518082602001fd5b6040517fd6bda27500000000000000000000000000000000000000000000000000000000815260040160405180910390fd5b604051806060016040528060008019168152602001600073ffffffffffffffffffffffffffffffffffffffff1681526020016000151581525090565b60405180606001604052806000600381111561423c5761423b61500c565b5b8152602001600073ffffffffffffffffffffffffffffffffffffffff168152602001600081525090565b6000604051905090565b600080fd5b600080fd5b60007fffffffff0000000000000000000000000000000000000000000000000000000082169050919050565b6142af8161427a565b81146142ba57600080fd5b50565b6000813590506142cc816142a6565b92915050565b6000602082840312156142e8576142e7614270565b5b60006142f6848285016142bd565b91505092915050565b60008115159050919050565b614314816142ff565b82525050565b600060208201905061432f600083018461430b565b92915050565b6000819050919050565b61434881614335565b82525050565b6000602082019050614363600083018461433f565b92915050565b600063ffffffff82169050919050565b61438281614369565b82525050565b600060208201905061439d6000830184614379565b92915050565b600080fd5b6000601f19601f8301169050919050565b7f4e487b7100000000000000000000000000000000000000000000000000000000600052604160045260246000fd5b6143f1826143a8565b810181811067ffffffffffffffff821117156144105761440f6143b9565b5b80604052505050565b6000614423614266565b905061442f82826143e8565b919050565b600067ffffffffffffffff82111561444f5761444e6143b9565b5b602082029050602081019050919050565b600080fd5b6000819050919050565b61447881614465565b811461448357600080fd5b50565b6000813590506144958161446f565b92915050565b60006144ae6144a984614434565b614419565b905080838252602082019050602084028301858111156144d1576144d0614460565b5b835b818110156144fa57806144e68882614486565b8452602084019350506020810190506144d3565b5050509392505050565b600082601f830112614519576145186143a3565b5b813561452984826020860161449b565b91505092915050565b60006020828403121561454857614547614270565b5b600082013567ffffffffffffffff81111561456657614565614275565b5b61457284828501614504565b91505092915050565b600081519050919050565b600082825260208201905092915050565b6000819050602082019050919050565b6145b081614335565b82525050565b600073ffffffffffffffffffffffffffffffffffffffff82169050919050565b60006145e1826145b6565b9050919050565b6145f1816145d6565b82525050565b614600816142ff565b82525050565b60608201600082015161461c60008501826145a7565b50602082015161462f60208501826145e8565b50604082015161464260408501826145f7565b50505050565b60006146548383614606565b60608301905092915050565b6000602082019050919050565b60006146788261457b565b6146828185614586565b935061468d83614597565b8060005b838110156146be5781516146a58882614648565b97506146b083614660565b925050600181019050614691565b5085935050505092915050565b600060208201905081810360008301526146e5818461466d565b905092915050565b6146f681614335565b811461470157600080fd5b50565b600081359050614713816146ed565b92915050565b60006020828403121561472f5761472e614270565b5b600061473d84828501614704565b91505092915050565b61474f816145d6565b811461475a57600080fd5b50565b60008135905061476c81614746565b92915050565b6000806000806080858703121561478c5761478b614270565b5b600061479a8782880161475d565b94505060206147ab87828801614704565b93505060406147bc87828801614486565b92505060606147cd87828801614486565b91505092959194509250565b600080604083850312156147f0576147ef614270565b5b60006147fe85828601614704565b925050602061480f8582860161475d565b9150509250929050565b6004811061482657600080fd5b50565b60008135905061483881614819565b92915050565b60008060006060848603121561485757614856614270565b5b600061486586828701614829565b93505060206148768682870161475d565b925050604061488786828701614486565b9150509250925092565b60006040820190506148a6600083018561430b565b6148b36020830184614379565b9392505050565b600067ffffffffffffffff8211156148d5576148d46143b9565b5b602082029050602081019050919050565b60006148f96148f4846148ba565b614419565b9050808382526020820190506020840283018581111561491c5761491b614460565b5b835b818110156149455780614931888261475d565b84526020840193505060208101905061491e565b5050509392505050565b600082601f830112614964576149636143a3565b5b81356149748482602086016148e6565b91505092915050565b600080600080600080600060e0888a03121561499c5761499b614270565b5b60006149aa8a828b0161475d565b97505060206149bb8a828b0161475d565b96505060406149cc8a828b0161475d565b95505060606149dd8a828b0161475d565b94505060806149ee8a828b0161475d565b93505060a06149ff8a828b0161475d565b92505060c088013567ffffffffffffffff811115614a2057614a1f614275565b5b614a2c8a828b0161494f565b91505092959891949750929550565b600080fd5b600067ffffffffffffffff821115614a5b57614a5a6143b9565b5b614a64826143a8565b9050602081019050919050565b82818337600083830152505050565b6000614a93614a8e84614a40565b614419565b905082815260208101848484011115614aaf57614aae614a3b565b5b614aba848285614a71565b509392505050565b600082601f830112614ad757614ad66143a3565b5b8135614ae7848260208601614a80565b91505092915050565b60008060408385031215614b0757614b06614270565b5b6000614b158582860161475d565b925050602083013567ffffffffffffffff811115614b3657614b35614275565b5b614b4285828601614ac2565b9150509250929050565b600080600060608486031215614b6557614b64614270565b5b6000614b7386828701614486565b935050602084013567ffffffffffffffff811115614b9457614b93614275565b5b614ba086828701614504565b9250506040614bb186828701614486565b9150509250925092565b614bc481614465565b82525050565b6000602082019050614bdf6000830184614bbb565b92915050565b600080fd5b614bf381614369565b8114614bfe57600080fd5b50565b600081359050614c1081614bea565b92915050565b600060a08284031215614c2c57614c2b614be5565b5b614c3660a0614419565b90506000614c468482850161475d565b6000830152506020614c5a84828501614704565b6020830152506040614c6e84828501614486565b6040830152506060614c8284828501614c01565b6060830152506080614c9684828501614c01565b60808301525092915050565b60008060c08385031215614cb957614cb8614270565b5b6000614cc785828601614486565b9250506020614cd885828601614c16565b9150509250929050565b600080600060608486031215614cfb57614cfa614270565b5b6000614d098682870161475d565b9350506020614d1a86828701614704565b9250506040614d2b86828701614486565b9150509250925092565b600080fd5b60008083601f840112614d5057614d4f6143a3565b5b8235905067ffffffffffffffff811115614d6d57614d6c614d35565b5b602083019150836080820283011115614d8957614d88614460565b5b9250929050565b60008060208385031215614da757614da6614270565b5b600083013567ffffffffffffffff811115614dc557614dc4614275565b5b614dd185828601614d3a565b92509250509250929050565b600060208284031215614df357614df2614270565b5b6000614e0184828501614486565b91505092915050565b60008083601f840112614e2057614e1f6143a3565b5b8235905067ffffffffffffffff811115614e3d57614e3c614d35565b5b602083019150836020820283011115614e5957614e58614460565b5b9250929050565b60008060008060408587031215614e7a57614e79614270565b5b600085013567ffffffffffffffff811115614e9857614e97614275565b5b614ea487828801614d3a565b9450945050602085013567ffffffffffffffff811115614ec757614ec6614275565b5b614ed387828801614e0a565b925092505092959194509250565b600081519050919050565b600082825260208201905092915050565b60005b83811015614f1b578082015181840152602081019050614f00565b60008484015250505050565b6000614f3282614ee1565b614f3c8185614eec565b9350614f4c818560208601614efd565b614f55816143a8565b840191505092915050565b60006020820190508181036000830152614f7a8184614f27565b905092915050565b606082016000820151614f9860008501826145a7565b506020820151614fab60208501826145e8565b506040820151614fbe60408501826145f7565b50505050565b6000606082019050614fd96000830184614f82565b92915050565b600060208284031215614ff557614ff4614270565b5b600061500384828501614c01565b91505092915050565b7f4e487b7100000000000000000000000000000000000000000000000000000000600052602160045260246000fd5b6004811061504c5761504b61500c565b5b50565b600081905061505d8261503b565b919050565b600061506d8261504f565b9050919050565b61507d81615062565b82525050565b61508c81614465565b82525050565b6060820160008201516150a86000850182615074565b5060208201516150bb60208501826145e8565b5060408201516150ce6040850182615083565b50505050565b60006060820190506150e96000830184615092565b92915050565b60008060008060008060c0878903121561510c5761510b614270565b5b600061511a89828a01614486565b965050602061512b89828a0161475d565b955050604061513c89828a01614704565b945050606061514d89828a01614486565b935050608061515e89828a01614c01565b92505060a061516f89828a01614c01565b9150509295509295509295565b60008083601f840112615192576151916143a3565b5b8235905067ffffffffffffffff8111156151af576151ae614d35565b5b6020830191508360018202830111156151cb576151ca614460565b5b9250929050565b60008060008060008060a087890312156151ef576151ee614270565b5b60006151fd89828a0161475d565b965050602061520e89828a0161475d565b955050604061521f89828a01614486565b945050606061523089828a01614486565b935050608087013567ffffffffffffffff81111561525157615250614275565b5b61525d89828a0161517c565b92509250509295509295509295565b6152758161427a565b82525050565b6000602082019050615290600083018461526c565b92915050565b7f4e487b7100000000000000000000000000000000000000000000000000000000600052603260045260246000fd5b6152ce816145d6565b82525050565b600081519050919050565b600082825260208201905092915050565b60006152fb826152d4565b61530581856152df565b9350615315818560208601614efd565b61531e816143a8565b840191505092915050565b600060a08201905061533e60008301886152c5565b61534b60208301876152c5565b6153586040830186614bbb565b6153656060830185614bbb565b818103608083015261537781846152f0565b90509695505050505050565b6000819050919050565b600067ffffffffffffffff82169050919050565b6000819050919050565b60006153c66153c16153bc84615383565b6153a1565b61538d565b9050919050565b6153d6816153ab565b82525050565b60006020820190506153f160008301846153cd565b92915050565b600081519050919050565b600082825260208201905092915050565b6000819050602082019050919050565b600061542f83836145a7565b60208301905092915050565b6000602082019050919050565b6000615453826153f7565b61545d8185615402565b935061546883615413565b8060005b838110156154995781516154808882615423565b975061548b8361543b565b92505060018101905061546c565b5085935050505092915050565b60006040820190506154bb6000830185614bbb565b81810360208301526154cd8184615448565b90509392505050565b6000819050919050565b60006154fb6154f66154f1846154d6565b6153a1565b614465565b9050919050565b61550b816154e0565b82525050565b600060a08201905061552660008301886152c5565b6155336020830187615502565b818103604083015261554581866152f0565b90506155546060830185614bbb565b61556160808301846152c5565b9695505050505050565b600081519050919050565b600082825260208201905092915050565b6000819050602082019050919050565b60006155a38383615083565b60208301905092915050565b6000602082019050919050565b60006155c78261556b565b6155d18185615576565b93506155dc83615587565b8060005b8381101561560d5781516155f48882615597565b97506155ff836155af565b9250506001810190506155e0565b5085935050505092915050565b6000606082019050818103600083015261563481866155bc565b90506156436020830185614bbb565b818103604083015261565581846152f0565b9050949350505050565b7f4e487b7100000000000000000000000000000000000000000000000000000000600052601160045260246000fd5b600061569982614465565b91506156a483614465565b92508282039050818111156156bc576156bb61565f565b5b92915050565b60006040820190506156d7600083018561433f565b6156e4602083018461433f565b9392505050565b60006080828403121561570157615700614be5565b5b61570b6080614419565b9050600061571b8482850161475d565b600083015250602061572f84828501614c01565b602083015250604061574384828501614486565b604083015250606061575784828501614704565b60608301525092915050565b60006080828403121561577957615778614270565b5b6000615787848285016156eb565b91505092915050565b60008151905061579f81614746565b92915050565b6000602082840312156157bb576157ba614270565b5b60006157c984828501615790565b91505092915050565b60006060820190506157e760008301866152c5565b6157f460208301856152c5565b6158016040830184614bbb565b949350505050565b600060208201905061581e60008301846152c5565b92915050565b60006080820190506158396000830187614bbb565b6158466020830186614379565b6158536040830185614379565b6158606060830184614bbb565b95945050505050565b600081519050615878816146ed565b92915050565b60006020828403121561589457615893614270565b5b60006158a284828501615869565b91505092915050565b60006060820190506158c06000830186614bbb565b6158cd6020830185614bbb565b6158da6040830184614bbb565b949350505050565b60006158ed82614465565b91507fffffffffffffffffffffffffffffffffffffffffffffffffffffffffffffffff820361591f5761591e61565f565b5b600182019050919050565b600061593582614465565b915061594083614465565b92508282019050808211156159585761595761565f565b5b92915050565b60008160601b9050919050565b60006159768261595e565b9050919050565b60006159888261596b565b9050919050565b6159a061599b826145d6565b61597d565b82525050565b6000819050919050565b6159c16159bc82614335565b6159a6565b82525050565b6000819050919050565b6159e26159dd82614465565b6159c7565b82525050565b60008160e01b9050919050565b6000615a00826159e8565b9050919050565b615a18615a1382614369565b6159f5565b82525050565b6000615a2a828861598f565b601482019150615a3a82876159b0565b602082019150615a4a82866159d1565b602082019150615a5a8285615a07565b600482019150615a6a8284615a07565b6004820191508190509695505050505050565b6000615a89828761598f565b601482019150615a998286615a07565b600482019150615aa982856159d1565b602082019150615ab982846159b0565b60208201915081905095945050505050565b6000606082019050615ae0600083018661433f565b615aed60208301856152c5565b615afa6040830184614bbb565b949350505050565b6000604082019050615b1760008301856152c5565b615b24602083018461433f565b9392505050565b6000604082019050615b4060008301856152c5565b615b4d6020830184614bbb565b9392505050565b615b5d81614369565b82525050565b608082016000820151615b7960008501826145e8565b506020820151615b8c6020850182615b54565b506040820151615b9f6040850182615083565b506060820151615bb260608501826145a7565b50505050565b6000608082019050615bcd6000830184615b63565b92915050565b600081905092915050565b6000615be9826152d4565b615bf38185615bd3565b9350615c03818560208601614efd565b80840191505092915050565b6000615c1b8284615bde565b915081905092915050565b615c2f816142ff565b8114615c3a57600080fd5b50565b600081519050615c4c81615c26565b92915050565b600060208284031215615c6857615c67614270565b5b6000615c7684828501615c3d565b9150509291505056fea26469706673582212202a8177e0f4ca31d2d4dd380d0d3b5978afb0eedfd08ffdc3f379a45ff2369b4464736f6c634300081b0033",
  "linkReferences": {},
  "deployedLinkReferences": {}
}