{
  "_format": "hh-sol-artifact-1",
  "contractName": "Liquidity",
  "sourceName": "contracts/liquidity/Liquidity.sol",
  "abi": [
    {
      "inputs": [],
      "stateMutability": "nonpayable",
      "type": "constructor"
    },
    {
      "inputs": [],
      "name": "AccessControlBadConfirmation",
      "type": "error"
    },
    {
      "inputs": [
        {
          "internalType": "address",
          "name": "account",
          "type": "address"
        },
        {
          "internalType": "bytes32",
          "name": "neededRole",
          "type": "bytes32"
        }
      ],
      "name": "AccessControlUnauthorizedAccount",
      "type": "error"
    },
    {
      "inputs": [
        {
          "internalType": "address",
          "name": "target",
          "type": "address"
        }
      ],
      "name": "AddressEmptyCode",
      "type": "error"
    },
    {
      "inputs": [],
      "name": "AddressZero",
      "type": "error"
    },
    {
      "inputs": [],
      "name": "AlreadyAnalyzed",
      "type": "error"
    },
    {
      "inputs": [
        {
          "internalType": "bytes32",
          "name": "depositHash",
          "type": "bytes32"
        }
      ],
      "name": "DepositHashAlreadyExists",
      "type": "error"
    },
    {
      "inputs": [
        {
          "internalType": "address",
          "name": "implementation",
          "type": "address"
        }
      ],
      "name": "ERC1967InvalidImplementation",
      "type": "error"
    },
    {
      "inputs": [],
      "name": "ERC1967NonPayable",
      "type": "error"
    },
    {
      "inputs": [],
      "name": "EnforcedPause",
      "type": "error"
    },
    {
      "inputs": [],
      "name": "ExpectedPause",
      "type": "error"
    },
    {
      "inputs": [],
      "name": "FailedCall",
      "type": "error"
    },
    {
      "inputs": [
        {
          "internalType": "bytes32",
          "name": "depositDataHash",
          "type": "bytes32"
        },
        {
          "internalType": "bytes32",
          "name": "calculatedHash",
          "type": "bytes32"
        }
      ],
      "name": "InvalidDepositHash",
      "type": "error"
    },
    {
      "inputs": [],
      "name": "InvalidInitialization",
      "type": "error"
    },
    {
      "inputs": [],
      "name": "InvalidWithdrawalAddress",
      "type": "error"
    },
    {
      "inputs": [],
      "name": "NotInitializing",
      "type": "error"
    },
    {
      "inputs": [],
      "name": "OnlySenderCanCancelDeposit",
      "type": "error"
    },
    {
      "inputs": [
        {
          "internalType": "address",
          "name": "token",
          "type": "address"
        }
      ],
      "name": "SafeERC20FailedOperation",
      "type": "error"
    },
    {
      "inputs": [],
      "name": "SenderIsNotScrollMessenger",
      "type": "error"
    },
    {
      "inputs": [],
      "name": "TokenAddressIsZero",
      "type": "error"
    },
    {
      "inputs": [
        {
          "internalType": "uint256",
          "name": "upToDepositId",
          "type": "uint256"
        },
        {
          "internalType": "uint256",
          "name": "firstDepositId",
          "type": "uint256"
        },
        {
          "internalType": "uint256",
          "name": "lastDepositId",
          "type": "uint256"
        }
      ],
      "name": "TriedAnalyzeOutOfRange",
      "type": "error"
    },
    {
      "inputs": [],
      "name": "TriedToDepositZero",
      "type": "error"
    },
    {
      "inputs": [
        {
          "internalType": "uint256",
          "name": "rejectIndex",
          "type": "uint256"
        },
        {
          "internalType": "uint256",
          "name": "front",
          "type": "uint256"
        },
        {
          "internalType": "uint256",
          "name": "upToDepositId",
          "type": "uint256"
        }
      ],
      "name": "TriedToRejectOutOfRange",
      "type": "error"
    },
    {
      "inputs": [],
      "name": "UUPSUnauthorizedCallContext",
      "type": "error"
    },
    {
      "inputs": [
        {
          "internalType": "bytes32",
          "name": "slot",
          "type": "bytes32"
        }
      ],
      "name": "UUPSUnsupportedProxiableUUID",
      "type": "error"
    },
    {
      "inputs": [],
      "name": "WithdrawalAddressNotSet",
      "type": "error"
    },
    {
      "inputs": [
        {
          "internalType": "bytes32",
          "name": "withdrawalHash",
          "type": "bytes32"
        }
      ],
      "name": "WithdrawalNotFound",
      "type": "error"
    },
    {
      "anonymous": false,
      "inputs": [
        {
          "indexed": true,
          "internalType": "address",
          "name": "recipient",
          "type": "address"
        },
        {
          "indexed": true,
          "internalType": "bytes32",
          "name": "withdrawalHash",
          "type": "bytes32"
        }
      ],
      "name": "ClaimedWithdrawal",
      "type": "event"
    },
    {
      "anonymous": false,
      "inputs": [
        {
          "indexed": true,
          "internalType": "uint256",
          "name": "depositId",
          "type": "uint256"
        }
      ],
      "name": "DepositCanceled",
      "type": "event"
    },
    {
      "anonymous": false,
      "inputs": [
        {
          "indexed": true,
          "internalType": "uint256",
          "name": "depositId",
          "type": "uint256"
        },
        {
          "indexed": true,
          "internalType": "address",
          "name": "sender",
          "type": "address"
        },
        {
          "indexed": true,
          "internalType": "bytes32",
          "name": "recipientSaltHash",
          "type": "bytes32"
        },
        {
          "indexed": false,
          "internalType": "uint32",
          "name": "tokenIndex",
          "type": "uint32"
        },
        {
          "indexed": false,
          "internalType": "uint256",
          "name": "amount",
          "type": "uint256"
        },
        {
          "indexed": false,
          "internalType": "uint256",
          "name": "depositedAt",
          "type": "uint256"
        }
      ],
      "name": "Deposited",
      "type": "event"
    },
    {
      "anonymous": false,
      "inputs": [
        {
          "indexed": true,
          "internalType": "uint256",
          "name": "upToDepositId",
          "type": "uint256"
        },
        {
          "indexed": false,
          "internalType": "uint256[]",
          "name": "rejectedIndices",
          "type": "uint256[]"
        },
        {
          "indexed": false,
          "internalType": "uint256",
          "name": "gasLimit",
          "type": "uint256"
        },
        {
          "indexed": false,
          "internalType": "bytes",
          "name": "message",
          "type": "bytes"
        }
      ],
      "name": "DepositsAnalyzedAndRelayed",
      "type": "event"
    },
    {
      "anonymous": false,
      "inputs": [
        {
          "indexed": true,
          "internalType": "bytes32",
          "name": "withdrawalHash",
          "type": "bytes32"
        },
        {
          "components": [
            {
              "internalType": "address",
              "name": "recipient",
              "type": "address"
            },
            {
              "internalType": "uint32",
              "name": "tokenIndex",
              "type": "uint32"
            },
            {
              "internalType": "uint256",
              "name": "amount",
              "type": "uint256"
            },
            {
              "internalType": "bytes32",
              "name": "nullifier",
              "type": "bytes32"
            }
          ],
          "indexed": false,
          "internalType": "struct WithdrawalLib.Withdrawal",
          "name": "withdrawal",
          "type": "tuple"
        }
      ],
      "name": "DirectWithdrawalFailed",
      "type": "event"
    },
    {
      "anonymous": false,
      "inputs": [
        {
          "indexed": true,
          "internalType": "bytes32",
          "name": "withdrawalHash",
          "type": "bytes32"
        },
        {
          "indexed": true,
          "internalType": "address",
          "name": "recipient",
          "type": "address"
        }
      ],
      "name": "DirectWithdrawalSuccessed",
      "type": "event"
    },
    {
      "anonymous": false,
      "inputs": [
        {
          "indexed": false,
          "internalType": "uint64",
          "name": "version",
          "type": "uint64"
        }
      ],
      "name": "Initialized",
      "type": "event"
    },
    {
      "anonymous": false,
      "inputs": [
        {
          "indexed": false,
          "internalType": "address",
          "name": "account",
          "type": "address"
        }
      ],
      "name": "Paused",
      "type": "event"
    },
    {
      "anonymous": false,
      "inputs": [
        {
          "indexed": true,
          "internalType": "bytes32",
          "name": "role",
          "type": "bytes32"
        },
        {
          "indexed": true,
          "internalType": "bytes32",
          "name": "previousAdminRole",
          "type": "bytes32"
        },
        {
          "indexed": true,
          "internalType": "bytes32",
          "name": "newAdminRole",
          "type": "bytes32"
        }
      ],
      "name": "RoleAdminChanged",
      "type": "event"
    },
    {
      "anonymous": false,
      "inputs": [
        {
          "indexed": true,
          "internalType": "bytes32",
          "name": "role",
          "type": "bytes32"
        },
        {
          "indexed": true,
          "internalType": "address",
          "name": "account",
          "type": "address"
        },
        {
          "indexed": true,
          "internalType": "address",
          "name": "sender",
          "type": "address"
        }
      ],
      "name": "RoleGranted",
      "type": "event"
    },
    {
      "anonymous": false,
      "inputs": [
        {
          "indexed": true,
          "internalType": "bytes32",
          "name": "role",
          "type": "bytes32"
        },
        {
          "indexed": true,
          "internalType": "address",
          "name": "account",
          "type": "address"
        },
        {
          "indexed": true,
          "internalType": "address",
          "name": "sender",
          "type": "address"
        }
      ],
      "name": "RoleRevoked",
      "type": "event"
    },
    {
      "anonymous": false,
      "inputs": [
        {
          "indexed": false,
          "internalType": "address",
          "name": "account",
          "type": "address"
        }
      ],
      "name": "Unpaused",
      "type": "event"
    },
    {
      "anonymous": false,
      "inputs": [
        {
          "indexed": true,
          "internalType": "address",
          "name": "implementation",
          "type": "address"
        }
      ],
      "name": "Upgraded",
      "type": "event"
    },
    {
      "anonymous": false,
      "inputs": [
        {
          "indexed": true,
          "internalType": "bytes32",
          "name": "withdrawalHash",
          "type": "bytes32"
        }
      ],
      "name": "WithdrawalClaimable",
      "type": "event"
    },
    {
      "inputs": [],
      "name": "ANALYZER",
      "outputs": [
        {
          "internalType": "bytes32",
          "name": "",
          "type": "bytes32"
        }
      ],
      "stateMutability": "view",
      "type": "function"
    },
    {
      "inputs": [],
      "name": "DEFAULT_ADMIN_ROLE",
      "outputs": [
        {
          "internalType": "bytes32",
          "name": "",
          "type": "bytes32"
        }
      ],
      "stateMutability": "view",
      "type": "function"
    },
    {
      "inputs": [],
      "name": "UPGRADE_INTERFACE_VERSION",
      "outputs": [
        {
          "internalType": "string",
          "name": "",
          "type": "string"
        }
      ],
      "stateMutability": "view",
      "type": "function"
    },
    {
      "inputs": [
        {
          "internalType": "uint256",
          "name": "upToDepositId",
          "type": "uint256"
        },
        {
          "internalType": "uint256[]",
          "name": "rejectDepositIds",
          "type": "uint256[]"
        },
        {
          "internalType": "uint256",
          "name": "gasLimit",
          "type": "uint256"
        }
      ],
      "name": "analyzeAndRelayDeposits",
      "outputs": [],
      "stateMutability": "payable",
      "type": "function"
    },
    {
      "inputs": [
        {
          "internalType": "uint256",
          "name": "depositId",
          "type": "uint256"
        },
        {
          "components": [
            {
              "internalType": "address",
              "name": "depositor",
              "type": "address"
            },
            {
              "internalType": "bytes32",
              "name": "recipientSaltHash",
              "type": "bytes32"
            },
            {
              "internalType": "uint256",
              "name": "amount",
              "type": "uint256"
            },
            {
              "internalType": "uint32",
              "name": "tokenIndex",
              "type": "uint32"
            }
          ],
          "internalType": "struct DepositLib.Deposit",
          "name": "deposit",
          "type": "tuple"
        }
      ],
      "name": "cancelDeposit",
      "outputs": [],
      "stateMutability": "nonpayable",
      "type": "function"
    },
    {
      "inputs": [
        {
          "components": [
            {
              "internalType": "address",
              "name": "recipient",
              "type": "address"
            },
            {
              "internalType": "uint32",
              "name": "tokenIndex",
              "type": "uint32"
            },
            {
              "internalType": "uint256",
              "name": "amount",
              "type": "uint256"
            },
            {
              "internalType": "bytes32",
              "name": "nullifier",
              "type": "bytes32"
            }
          ],
          "internalType": "struct WithdrawalLib.Withdrawal[]",
          "name": "withdrawals",
          "type": "tuple[]"
        }
      ],
      "name": "claimWithdrawals",
      "outputs": [],
      "stateMutability": "nonpayable",
      "type": "function"
    },
    {
      "inputs": [
        {
          "internalType": "bytes32",
          "name": "",
          "type": "bytes32"
        }
      ],
      "name": "claimableWithdrawals",
      "outputs": [
        {
          "internalType": "uint256",
          "name": "",
          "type": "uint256"
        }
      ],
      "stateMutability": "view",
      "type": "function"
    },
    {
      "inputs": [
        {
          "internalType": "address",
          "name": "tokenAddress",
          "type": "address"
        },
        {
          "internalType": "bytes32",
          "name": "recipientSaltHash",
          "type": "bytes32"
        },
        {
          "internalType": "uint256",
          "name": "tokenId",
          "type": "uint256"
        },
        {
          "internalType": "uint256",
          "name": "amount",
          "type": "uint256"
        }
      ],
      "name": "depositERC1155",
      "outputs": [],
      "stateMutability": "nonpayable",
      "type": "function"
    },
    {
      "inputs": [
        {
          "internalType": "address",
          "name": "tokenAddress",
          "type": "address"
        },
        {
          "internalType": "bytes32",
          "name": "recipientSaltHash",
          "type": "bytes32"
        },
        {
          "internalType": "uint256",
          "name": "amount",
          "type": "uint256"
        }
      ],
      "name": "depositERC20",
      "outputs": [],
      "stateMutability": "nonpayable",
      "type": "function"
    },
    {
      "inputs": [
        {
          "internalType": "address",
          "name": "tokenAddress",
          "type": "address"
        },
        {
          "internalType": "bytes32",
          "name": "recipientSaltHash",
          "type": "bytes32"
        },
        {
          "internalType": "uint256",
          "name": "tokenId",
          "type": "uint256"
        }
      ],
      "name": "depositERC721",
      "outputs": [],
      "stateMutability": "nonpayable",
      "type": "function"
    },
    {
      "inputs": [
        {
          "internalType": "bytes32",
          "name": "recipientSaltHash",
          "type": "bytes32"
        }
      ],
      "name": "depositNativeToken",
      "outputs": [],
      "stateMutability": "payable",
      "type": "function"
    },
    {
      "inputs": [
        {
          "internalType": "uint256",
          "name": "depositId",
          "type": "uint256"
        }
      ],
      "name": "getDepositData",
      "outputs": [
        {
          "components": [
            {
              "internalType": "bytes32",
              "name": "depositHash",
              "type": "bytes32"
            },
            {
              "internalType": "address",
              "name": "sender",
              "type": "address"
            },
            {
              "internalType": "bool",
              "name": "isRejected",
              "type": "bool"
            }
          ],
          "internalType": "struct DepositQueueLib.DepositData",
          "name": "",
          "type": "tuple"
        }
      ],
      "stateMutability": "view",
      "type": "function"
    },
    {
      "inputs": [
        {
          "internalType": "uint256[]",
          "name": "depositIds",
          "type": "uint256[]"
        }
      ],
      "name": "getDepositDataBatch",
      "outputs": [
        {
          "components": [
            {
              "internalType": "bytes32",
              "name": "depositHash",
              "type": "bytes32"
            },
            {
              "internalType": "address",
              "name": "sender",
              "type": "address"
            },
            {
              "internalType": "bool",
              "name": "isRejected",
              "type": "bool"
            }
          ],
          "internalType": "struct DepositQueueLib.DepositData[]",
          "name": "",
          "type": "tuple[]"
        }
      ],
      "stateMutability": "view",
      "type": "function"
    },
    {
      "inputs": [
        {
          "internalType": "uint256",
          "name": "depositId",
          "type": "uint256"
        }
      ],
      "name": "getDepositDataHash",
      "outputs": [
        {
          "internalType": "bytes32",
          "name": "",
          "type": "bytes32"
        }
      ],
      "stateMutability": "view",
      "type": "function"
    },
    {
      "inputs": [],
      "name": "getLastDepositId",
      "outputs": [
        {
          "internalType": "uint256",
          "name": "",
          "type": "uint256"
        }
      ],
      "stateMutability": "view",
      "type": "function"
    },
    {
      "inputs": [],
      "name": "getLastRelayedDepositId",
      "outputs": [
        {
          "internalType": "uint256",
          "name": "",
          "type": "uint256"
        }
      ],
      "stateMutability": "view",
      "type": "function"
    },
    {
      "inputs": [],
      "name": "getNativeTokenIndex",
      "outputs": [
        {
          "internalType": "uint32",
          "name": "",
          "type": "uint32"
        }
      ],
      "stateMutability": "pure",
      "type": "function"
    },
    {
      "inputs": [
        {
          "internalType": "bytes32",
          "name": "role",
          "type": "bytes32"
        }
      ],
      "name": "getRoleAdmin",
      "outputs": [
        {
          "internalType": "bytes32",
          "name": "",
          "type": "bytes32"
        }
      ],
      "stateMutability": "view",
      "type": "function"
    },
    {
      "inputs": [
        {
          "internalType": "enum ITokenData.TokenType",
          "name": "tokenType",
          "type": "uint8"
        },
        {
          "internalType": "address",
          "name": "tokenAddress",
          "type": "address"
        },
        {
          "internalType": "uint256",
          "name": "tokenId",
          "type": "uint256"
        }
      ],
      "name": "getTokenIndex",
      "outputs": [
        {
          "internalType": "bool",
          "name": "",
          "type": "bool"
        },
        {
          "internalType": "uint32",
          "name": "",
          "type": "uint32"
        }
      ],
      "stateMutability": "view",
      "type": "function"
    },
    {
      "inputs": [
        {
          "internalType": "uint32",
          "name": "tokenIndex",
          "type": "uint32"
        }
      ],
      "name": "getTokenInfo",
      "outputs": [
        {
          "components": [
            {
              "internalType": "enum ITokenData.TokenType",
              "name": "tokenType",
              "type": "uint8"
            },
            {
              "internalType": "address",
              "name": "tokenAddress",
              "type": "address"
            },
            {
              "internalType": "uint256",
              "name": "tokenId",
              "type": "uint256"
            }
          ],
          "internalType": "struct ITokenData.TokenInfo",
          "name": "",
          "type": "tuple"
        }
      ],
      "stateMutability": "view",
      "type": "function"
    },
    {
      "inputs": [
        {
          "internalType": "bytes32",
          "name": "role",
          "type": "bytes32"
        },
        {
          "internalType": "address",
          "name": "account",
          "type": "address"
        }
      ],
      "name": "grantRole",
      "outputs": [],
      "stateMutability": "nonpayable",
      "type": "function"
    },
    {
      "inputs": [
        {
          "internalType": "bytes32",
          "name": "role",
          "type": "bytes32"
        },
        {
          "internalType": "address",
          "name": "account",
          "type": "address"
        }
      ],
      "name": "hasRole",
      "outputs": [
        {
          "internalType": "bool",
          "name": "",
          "type": "bool"
        }
      ],
      "stateMutability": "view",
      "type": "function"
    },
    {
      "inputs": [
        {
          "internalType": "address",
          "name": "_admin",
          "type": "address"
        },
        {
          "internalType": "address",
          "name": "_l1ScrollMessenger",
          "type": "address"
        },
        {
          "internalType": "address",
          "name": "_rollup",
          "type": "address"
        },
        {
          "internalType": "address",
          "name": "_withdrawal",
          "type": "address"
        },
        {
          "internalType": "address",
          "name": "_analyzer",
          "type": "address"
        },
        {
          "internalType": "address",
          "name": "_contribution",
          "type": "address"
        },
        {
          "internalType": "address[]",
          "name": "initialERC20Tokens",
          "type": "address[]"
        }
      ],
      "name": "initialize",
      "outputs": [],
      "stateMutability": "nonpayable",
      "type": "function"
    },
    {
      "inputs": [
        {
          "internalType": "uint256",
          "name": "depositId",
          "type": "uint256"
        },
        {
          "internalType": "bytes32",
          "name": "recipientSaltHash",
          "type": "bytes32"
        },
        {
          "internalType": "uint32",
          "name": "tokenIndex",
          "type": "uint32"
        },
        {
          "internalType": "uint256",
          "name": "amount",
          "type": "uint256"
        },
        {
          "internalType": "address",
          "name": "sender",
          "type": "address"
        }
      ],
      "name": "isDepositValid",
      "outputs": [
        {
          "internalType": "bool",
          "name": "",
          "type": "bool"
        }
      ],
      "stateMutability": "view",
      "type": "function"
    },
    {
      "inputs": [
        {
          "internalType": "address",
          "name": "",
          "type": "address"
        },
        {
          "internalType": "address",
          "name": "",
          "type": "address"
        },
        {
          "internalType": "uint256",
          "name": "",
          "type": "uint256"
        },
        {
          "internalType": "uint256",
          "name": "",
          "type": "uint256"
        },
        {
          "internalType": "bytes",
          "name": "",
          "type": "bytes"
        }
      ],
      "name": "onERC1155Received",
      "outputs": [
        {
          "internalType": "bytes4",
          "name": "",
          "type": "bytes4"
        }
      ],
      "stateMutability": "pure",
      "type": "function"
    },
    {
      "inputs": [],
      "name": "pauseDeposits",
      "outputs": [],
      "stateMutability": "nonpayable",
      "type": "function"
    },
    {
      "inputs": [],
      "name": "paused",
      "outputs": [
        {
          "internalType": "bool",
          "name": "",
          "type": "bool"
        }
      ],
      "stateMutability": "view",
      "type": "function"
    },
    {
      "inputs": [
        {
          "components": [
            {
              "internalType": "address",
              "name": "recipient",
              "type": "address"
            },
            {
              "internalType": "uint32",
              "name": "tokenIndex",
              "type": "uint32"
            },
            {
              "internalType": "uint256",
              "name": "amount",
              "type": "uint256"
            },
            {
              "internalType": "bytes32",
              "name": "nullifier",
              "type": "bytes32"
            }
          ],
          "internalType": "struct WithdrawalLib.Withdrawal[]",
          "name": "withdrawals",
          "type": "tuple[]"
        },
        {
          "internalType": "bytes32[]",
          "name": "withdrawalHashes",
          "type": "bytes32[]"
        }
      ],
      "name": "processWithdrawals",
      "outputs": [],
      "stateMutability": "nonpayable",
      "type": "function"
    },
    {
      "inputs": [],
      "name": "proxiableUUID",
      "outputs": [
        {
          "internalType": "bytes32",
          "name": "",
          "type": "bytes32"
        }
      ],
      "stateMutability": "view",
      "type": "function"
    },
    {
      "inputs": [
        {
          "internalType": "bytes32",
          "name": "role",
          "type": "bytes32"
        },
        {
          "internalType": "address",
          "name": "callerConfirmation",
          "type": "address"
        }
      ],
      "name": "renounceRole",
      "outputs": [],
      "stateMutability": "nonpayable",
      "type": "function"
    },
    {
      "inputs": [
        {
          "internalType": "bytes32",
          "name": "role",
          "type": "bytes32"
        },
        {
          "internalType": "address",
          "name": "account",
          "type": "address"
        }
      ],
      "name": "revokeRole",
      "outputs": [],
      "stateMutability": "nonpayable",
      "type": "function"
    },
    {
      "inputs": [
        {
          "internalType": "bytes4",
          "name": "interfaceId",
          "type": "bytes4"
        }
      ],
      "name": "supportsInterface",
      "outputs": [
        {
          "internalType": "bool",
          "name": "",
          "type": "bool"
        }
      ],
      "stateMutability": "view",
      "type": "function"
    },
    {
      "inputs": [],
      "name": "unpauseDeposits",
      "outputs": [],
      "stateMutability": "nonpayable",
      "type": "function"
    },
    {
      "inputs": [
        {
          "internalType": "address",
          "name": "newImplementation",
          "type": "address"
        },
        {
          "internalType": "bytes",
          "name": "data",
          "type": "bytes"
        }
      ],
      "name": "upgradeToAndCall",
      "outputs": [],
      "stateMutability": "payable",
      "type": "function"
    }
  ],
  "bytecode": "0x60a06040523073ffffffffffffffffffffffffffffffffffffffff1660809073ffffffffffffffffffffffffffffffffffffffff1681525034801561004357600080fd5b5061005261005760201b60201c565b6101c1565b600061006761015b60201b60201c565b90508060000160089054906101000a900460ff16156100b2576040517ff92ee8a900000000000000000000000000000000000000000000000000000000815260040160405180910390fd5b67ffffffffffffffff80168160000160009054906101000a900467ffffffffffffffff1667ffffffffffffffff16146101585767ffffffffffffffff8160000160006101000a81548167ffffffffffffffff021916908367ffffffffffffffff1602179055507fc7f505b2f371ae2175ee4913f4499e1f2633a7b5936321eed1cdaeb6115181d267ffffffffffffffff60405161014f91906101a6565b60405180910390a15b50565b60007ff0c57e16840df040f15088dc2f81fe391c3923bec73e23a9662efc9c229c6a00905090565b600067ffffffffffffffff82169050919050565b6101a081610183565b82525050565b60006020820190506101bb6000830184610197565b92915050565b608051615cd06101ea6000396000818161284e015281816128a30152612a640152615cd06000f3fe6080604052600436106101f95760003560e01c8063675178371161010d578063ad3cb1cc116100a0578063d547741f1161006f578063d547741f14610728578063dd9ea29914610751578063e579fa2b1461077c578063f23a6e61146107b9578063ffd55332146107f6576101f9565b8063ad3cb1cc1461065a578063ad85705914610685578063c13819b6146106ae578063cbd90cd0146106eb576101f9565b8063986be0e2116100dc578063986be0e2146105a05780639d6a54cb146105dd5780639f401f5814610606578063a217fddf1461062f576101f9565b806367517837146104e6578063788c2ecf1461051157806391d148541461053a57806391f69b7d14610577576101f9565b80632f2ff15d116101905780634f1ef2861161015f5780634f1ef2861461044157806352d1902d1461045d5780635362485e146104885780635c975abb146104a457806363d8882a146104cf576101f9565b80632f2ff15d1461038857806336568abe146103b1578063381175f6146103da57806342a82b4f14610418576101f9565b8063219cd263116101cc578063219cd263146102ba578063232c1c8a146102e5578063248a9ca31461032257806326fc02dd1461035f576101f9565b806301ffc9a7146101fe578063021919801461023b5780630c0b59b914610252578063117cbe261461027d575b600080fd5b34801561020a57600080fd5b5061022560048036038101906102209190614332565b610812565b604051610232919061437a565b60405180910390f35b34801561024757600080fd5b5061025061088c565b005b34801561025e57600080fd5b506102676108a4565b60405161027491906143ae565b60405180910390f35b34801561028957600080fd5b506102a4600480360381019061029f91906144c5565b6108c8565b6040516102b1919061437a565b60405180910390f35b3480156102c657600080fd5b506102cf610a3e565b6040516102dc919061454f565b60405180910390f35b3480156102f157600080fd5b5061030c600480360381019061030791906146c3565b610a43565b604051610319919061482a565b60405180910390f35b34801561032e57600080fd5b506103496004803603810190610344919061484c565b610ba4565b60405161035691906143ae565b60405180910390f35b34801561036b57600080fd5b5061038660048036038101906103819190614879565b610bd2565b005b34801561039457600080fd5b506103af60048036038101906103aa91906148e0565b610cc7565b005b3480156103bd57600080fd5b506103d860048036038101906103d391906148e0565b610ce9565b005b3480156103e657600080fd5b5061040160048036038101906103fc9190614945565b610d64565b60405161040f929190614998565b60405180910390f35b34801561042457600080fd5b5061043f600480360381019061043a9190614a84565b610f90565b005b61045b60048036038101906104569190614bf7565b6114e8565b005b34801561046957600080fd5b50610472611507565b60405161047f91906143ae565b60405180910390f35b6104a2600480360381019061049d9190614c53565b61153a565b005b3480156104b057600080fd5b506104b96116fe565b6040516104c6919061437a565b60405180910390f35b3480156104db57600080fd5b506104e4611723565b005b3480156104f257600080fd5b506104fb61173b565b6040516105089190614cd1565b60405180910390f35b34801561051d57600080fd5b5061053860048036038101906105339190614cec565b611754565b005b34801561054657600080fd5b50610561600480360381019061055c91906148e0565b6117f4565b60405161056e919061437a565b60405180910390f35b34801561058357600080fd5b5061059e60048036038101906105999190614d9a565b61186d565b005b3480156105ac57600080fd5b506105c760048036038101906105c29190614de7565b6119b3565b6040516105d491906143ae565b60405180910390f35b3480156105e957600080fd5b5061060460048036038101906105ff9190614e6a565b6119e5565b005b34801561061257600080fd5b5061062d60048036038101906106289190614cec565b611bf4565b005b34801561063b57600080fd5b50610644611c9c565b60405161065191906143ae565b60405180910390f35b34801561066657600080fd5b5061066f611ca3565b60405161067c9190614f6a565b60405180910390f35b34801561069157600080fd5b506106ac60048036038101906106a79190615009565b611cdc565b005b3480156106ba57600080fd5b506106d560048036038101906106d09190614de7565b611f23565b6040516106e2919061508b565b60405180910390f35b3480156106f757600080fd5b50610712600480360381019061070d91906150a6565b611fdd565b60405161071f919061519b565b60405180910390f35b34801561073457600080fd5b5061074f600480360381019061074a91906148e0565b6120ba565b005b34801561075d57600080fd5b506107666120dc565b6040516107739190614cd1565b60405180910390f35b34801561078857600080fd5b506107a3600480360381019061079e919061484c565b6120f8565b6040516107b09190614cd1565b60405180910390f35b3480156107c557600080fd5b506107e060048036038101906107db919061520c565b612110565b6040516107ed91906152b5565b60405180910390f35b610810600480360381019061080b919061484c565b612126565b005b60007f7965db0b000000000000000000000000000000000000000000000000000000007bffffffffffffffffffffffffffffffffffffffffffffffffffffffff1916827bffffffffffffffffffffffffffffffffffffffffffffffffffffffff1916148061088557506108848261218b565b5b9050919050565b6000801b610899816121f5565b6108a1612209565b50565b7fe5002bd16ffc71462a6c1c19eaf55e254c97864c770378b6f68c1a085231514a81565b600080600960000187815481106108e2576108e16152d0565b5b9060005260206000209060020201604051806060016040529081600082015481526020016001820160009054906101000a900473ffffffffffffffffffffffffffffffffffffffff1673ffffffffffffffffffffffffffffffffffffffff1673ffffffffffffffffffffffffffffffffffffffff1681526020016001820160149054906101000a900460ff161515151581525050905060006109bf60405180608001604052808673ffffffffffffffffffffffffffffffffffffffff1681526020018981526020018781526020018863ffffffff1681525061227b565b9050808260000151146109d757600092505050610a35565b8373ffffffffffffffffffffffffffffffffffffffff16826020015173ffffffffffffffffffffffffffffffffffffffff1614610a1957600092505050610a35565b816040015115610a2e57600092505050610a35565b6001925050505b95945050505050565b600090565b60606000825167ffffffffffffffff811115610a6257610a61614580565b5b604051908082528060200260200182016040528015610a9b57816020015b610a88614241565b815260200190600190039081610a805790505b50905060005b8351811015610b9a576009600001848281518110610ac257610ac16152d0565b5b602002602001015181548110610adb57610ada6152d0565b5b9060005260206000209060020201604051806060016040529081600082015481526020016001820160009054906101000a900473ffffffffffffffffffffffffffffffffffffffff1673ffffffffffffffffffffffffffffffffffffffff1673ffffffffffffffffffffffffffffffffffffffff1681526020016001820160149054906101000a900460ff161515151581525050828281518110610b8257610b816152d0565b5b60200260200101819052508080600101915050610aa1565b5080915050919050565b600080610baf6122c1565b905080600001600084815260200190815260200160002060010154915050919050565b610bda6122e9565b60008103610c14576040517f94fe88d900000000000000000000000000000000000000000000000000000000815260040160405180910390fd5b8373ffffffffffffffffffffffffffffffffffffffff1663f242432a610c3861232a565b308585604051806020016040528060008152506040518663ffffffff1660e01b8152600401610c6b959493929190615363565b600060405180830381600087803b158015610c8557600080fd5b505af1158015610c99573d6000803e3d6000fd5b505050506000610cab60038685612332565b9050610cc0610cb861232a565b85838561236d565b5050505050565b610cd082610ba4565b610cd9816121f5565b610ce383836124bb565b50505050565b610cf161232a565b73ffffffffffffffffffffffffffffffffffffffff168173ffffffffffffffffffffffffffffffffffffffff1614610d55576040517f6697b23200000000000000000000000000000000000000000000000000000000815260040160405180910390fd5b610d5f82826125bc565b505050565b60008060006003811115610d7b57610d7a6150d3565b5b856003811115610d8e57610d8d6150d3565b5b03610da0576001600091509150610f88565b600073ffffffffffffffffffffffffffffffffffffffff168473ffffffffffffffffffffffffffffffffffffffff1603610e06576040517fdc2e5e8d00000000000000000000000000000000000000000000000000000000815260040160405180910390fd5b60016003811115610e1a57610e196150d3565b5b856003811115610e2d57610e2c6150d3565b5b03610ea3576000600160008673ffffffffffffffffffffffffffffffffffffffff1673ffffffffffffffffffffffffffffffffffffffff16815260200190815260200160002060009054906101000a900463ffffffff16905060008163ffffffff1614610ea1576001819250925050610f88565b505b60026003811115610eb757610eb66150d3565b5b856003811115610eca57610ec96150d3565b5b1480610ef95750600380811115610ee457610ee36150d3565b5b856003811115610ef757610ef66150d3565b5b145b15610f80576000600260008673ffffffffffffffffffffffffffffffffffffffff1673ffffffffffffffffffffffffffffffffffffffff168152602001908152602001600020600085815260200190815260200160002060009054906101000a900463ffffffff16905060008163ffffffff1614610f7e576001819250925050610f88565b505b600080915091505b935093915050565b6000610f9a6126be565b905060008160000160089054906101000a900460ff1615905060008260000160009054906101000a900467ffffffffffffffff1690506000808267ffffffffffffffff16148015610fe85750825b9050600060018367ffffffffffffffff1614801561101d575060003073ffffffffffffffffffffffffffffffffffffffff163b145b90508115801561102b575080155b15611062576040517ff92ee8a900000000000000000000000000000000000000000000000000000000815260040160405180910390fd5b60018560000160006101000a81548167ffffffffffffffff021916908367ffffffffffffffff16021790555083156110b25760018560000160086101000a81548160ff0219169083151502179055505b600073ffffffffffffffffffffffffffffffffffffffff168c73ffffffffffffffffffffffffffffffffffffffff1603611118576040517f9fabe1c100000000000000000000000000000000000000000000000000000000815260040160405180910390fd5b600073ffffffffffffffffffffffffffffffffffffffff168b73ffffffffffffffffffffffffffffffffffffffff160361117e576040517f9fabe1c100000000000000000000000000000000000000000000000000000000815260040160405180910390fd5b600073ffffffffffffffffffffffffffffffffffffffff168a73ffffffffffffffffffffffffffffffffffffffff16036111e4576040517f9fabe1c100000000000000000000000000000000000000000000000000000000815260040160405180910390fd5b600073ffffffffffffffffffffffffffffffffffffffff168973ffffffffffffffffffffffffffffffffffffffff160361124a576040517f9fabe1c100000000000000000000000000000000000000000000000000000000815260040160405180910390fd5b600073ffffffffffffffffffffffffffffffffffffffff168873ffffffffffffffffffffffffffffffffffffffff16036112b0576040517f9fabe1c100000000000000000000000000000000000000000000000000000000815260040160405180910390fd5b600073ffffffffffffffffffffffffffffffffffffffff168773ffffffffffffffffffffffffffffffffffffffff1603611316576040517f9fabe1c100000000000000000000000000000000000000000000000000000000815260040160405180910390fd5b6113236000801b8d6124bb565b5061134e7fe5002bd16ffc71462a6c1c19eaf55e254c97864c770378b6f68c1a085231514a896124bb565b506113576126e6565b61135f6126f8565b611367612702565b6113708661270c565b61137a6009612767565b8a600360006101000a81548173ffffffffffffffffffffffffffffffffffffffff021916908373ffffffffffffffffffffffffffffffffffffffff16021790555086600460006101000a81548173ffffffffffffffffffffffffffffffffffffffff021916908373ffffffffffffffffffffffffffffffffffffffff16021790555089600560006101000a81548173ffffffffffffffffffffffffffffffffffffffff021916908373ffffffffffffffffffffffffffffffffffffffff16021790555088600660006101000a81548173ffffffffffffffffffffffffffffffffffffffff021916908373ffffffffffffffffffffffffffffffffffffffff16021790555083156114da5760008560000160086101000a81548160ff0219169083151502179055507fc7f505b2f371ae2175ee4913f4499e1f2633a7b5936321eed1cdaeb6115181d260016040516114d19190615416565b60405180910390a15b505050505050505050505050565b6114f061284c565b6114f982612932565b6115038282612943565b5050565b6000611511612a62565b7f360894a13ba1a3210667c828492db98dca3e2076cc3735a920a3ca505d382bbc60001b905090565b7fe5002bd16ffc71462a6c1c19eaf55e254c97864c770378b6f68c1a085231514a611564816121f5565b600061157c85856009612ae99092919063ffffffff16565b9050600063f03efa3760e01b868360405160240161159b9291906154e0565b604051602081830303815290604052907bffffffffffffffffffffffffffffffffffffffffffffffffffffffff19166020820180517bffffffffffffffffffffffffffffffffffffffffffffffffffffffff83818316178352505050509050600360009054906101000a900473ffffffffffffffffffffffffffffffffffffffff1673ffffffffffffffffffffffffffffffffffffffff16635f7b157734600560009054906101000a900473ffffffffffffffffffffffffffffffffffffffff166000858961166861232a565b6040518763ffffffff1660e01b815260040161168895949392919061554b565b6000604051808303818588803b1580156116a157600080fd5b505af11580156116b5573d6000803e3d6000fd5b5050505050857f2f41e147f23b2fb60bd8f0c0f016c37b7eeff712415ba8c2d60f846be3b098e68686846040516116ee93929190615654565b60405180910390a2505050505050565b600080611709612eb2565b90508060000160009054906101000a900460ff1691505090565b6000801b611730816121f5565b611738612eda565b50565b6000600160096001015461174f91906156c8565b905090565b61175c6122e9565b60008103611796576040517f94fe88d900000000000000000000000000000000000000000000000000000000815260040160405180910390fd5b6117ca6117a161232a565b30838673ffffffffffffffffffffffffffffffffffffffff16612f4c909392919063ffffffff16565b60006117d96001856000612332565b90506117ee6117e661232a565b84838561236d565b50505050565b6000806117ff6122c1565b905080600001600085815260200190815260200160002060000160008473ffffffffffffffffffffffffffffffffffffffff1673ffffffffffffffffffffffffffffffffffffffff16815260200190815260200160002060009054906101000a900460ff1691505092915050565b60005b828290508110156119ae5760008383838181106118905761188f6152d0565b5b9050608002018036038101906118a69190615774565b905060006118b382612fce565b9050600060076000838152602001908152602001600020540361190d57806040517f60737bc000000000000000000000000000000000000000000000000000000000815260040161190491906143ae565b60405180910390fd5b600061191c8360200151611fdd565b9050600760008381526020019081526020016000206000905561195681600001518260200151856000015186604001518560400151613014565b81836000015173ffffffffffffffffffffffffffffffffffffffff167f0575467d13f5ab9174f470cec96623374b05cf4b19a3c83a4bfca523e243ab0460405160405180910390a35050508080600101915050611870565b505050565b6000600960000182815481106119cc576119cb6152d0565b5b9060005260206000209060020201600001549050919050565b6000600660009054906101000a900473ffffffffffffffffffffffffffffffffffffffff1690506000600360009054906101000a900473ffffffffffffffffffffffffffffffffffffffff169050600073ffffffffffffffffffffffffffffffffffffffff168273ffffffffffffffffffffffffffffffffffffffff1603611a99576040517ff8994bfa00000000000000000000000000000000000000000000000000000000815260040160405180910390fd5b8073ffffffffffffffffffffffffffffffffffffffff16611ab861232a565b73ffffffffffffffffffffffffffffffffffffffff1614611b05576040517fd8844f1500000000000000000000000000000000000000000000000000000000815260040160405180910390fd5b8073ffffffffffffffffffffffffffffffffffffffff16636e296e456040518163ffffffff1660e01b8152600401602060405180830381865afa158015611b50573d6000803e3d6000fd5b505050506040513d601f19601f82011682018060405250810190611b7491906157b6565b73ffffffffffffffffffffffffffffffffffffffff168273ffffffffffffffffffffffffffffffffffffffff1614611bd8576040517f84c2102600000000000000000000000000000000000000000000000000000000815260040160405180910390fd5b611be28686613214565b611bec8484613326565b505050505050565b611bfc6122e9565b8273ffffffffffffffffffffffffffffffffffffffff166323b872dd611c2061232a565b30846040518463ffffffff1660e01b8152600401611c40939291906157e3565b600060405180830381600087803b158015611c5a57600080fd5b505af1158015611c6e573d6000803e3d6000fd5b505050506000611c8060028584612332565b9050611c96611c8d61232a565b8483600161236d565b50505050565b6000801b81565b6040518060400160405280600581526020017f352e302e3000000000000000000000000000000000000000000000000000000081525081565b8181600060096000018381548110611cf757611cf66152d0565b5b9060005260206000209060020201604051806060016040529081600082015481526020016001820160009054906101000a900473ffffffffffffffffffffffffffffffffffffffff1673ffffffffffffffffffffffffffffffffffffffff1673ffffffffffffffffffffffffffffffffffffffff1681526020016001820160149054906101000a900460ff1615151515815250509050611d9561232a565b73ffffffffffffffffffffffffffffffffffffffff16816020015173ffffffffffffffffffffffffffffffffffffffff1614611dfd576040517f8b2ea0f800000000000000000000000000000000000000000000000000000000815260040160405180910390fd5b6000611e088361227b565b905080826000015114611e58578160000151816040517f7be225b6000000000000000000000000000000000000000000000000000000008152600401611e4f92919061581a565b60405180910390fd5b611e6061173b565b8411611ea2578160400151611ea1576040517f643710d400000000000000000000000000000000000000000000000000000000815260040160405180910390fd5b5b6000611eb887600961347e90919063ffffffff16565b90506000611ec98760600151611fdd565b9050611eec8160000151826020015184602001518a604001518560400151613014565b877f0c1c0787650562778c282502dfd6dcea2fb79d23783920aa18aee36b4aa3dc4860405160405180910390a25050505050505050565b611f2b614241565b60096000018281548110611f4257611f416152d0565b5b9060005260206000209060020201604051806060016040529081600082015481526020016001820160009054906101000a900473ffffffffffffffffffffffffffffffffffffffff1673ffffffffffffffffffffffffffffffffffffffff1673ffffffffffffffffffffffffffffffffffffffff1681526020016001820160149054906101000a900460ff1615151515815250509050919050565b611fe561427d565b60008263ffffffff1681548110611fff57611ffe6152d0565b5b90600052602060002090600202016040518060600160405290816000820160009054906101000a900460ff16600381111561203d5761203c6150d3565b5b600381111561204f5761204e6150d3565b5b81526020016000820160019054906101000a900473ffffffffffffffffffffffffffffffffffffffff1673ffffffffffffffffffffffffffffffffffffffff1673ffffffffffffffffffffffffffffffffffffffff1681526020016001820154815250509050919050565b6120c382610ba4565b6120cc816121f5565b6120d683836125bc565b50505050565b600060016009600001805490506120f391906156c8565b905090565b60076020528060005260406000206000915090505481565b600063f23a6e6160e01b90509695505050505050565b61212e6122e9565b60003403612168576040517f94fe88d900000000000000000000000000000000000000000000000000000000815260040160405180910390fd5b6000612172610a3e565b905061218761217f61232a565b83833461236d565b5050565b60007f01ffc9a7000000000000000000000000000000000000000000000000000000007bffffffffffffffffffffffffffffffffffffffffffffffffffffffff1916827bffffffffffffffffffffffffffffffffffffffffffffffffffffffff1916149050919050565b6122068161220161232a565b6135a2565b50565b6122116122e9565b600061221b612eb2565b905060018160000160006101000a81548160ff0219169083151502179055507f62e78cea01bee320cd4e420270b5ea74000d11b0c9f74754ebdbfc544b05a25861226361232a565b6040516122709190615843565b60405180910390a150565b600081600001518260200151836040015184606001516040516020016122a4949392919061591e565b604051602081830303815290604052805190602001209050919050565b60007f02dd7bc7dec4dceedda775e58dd541e08a116c6c53815c0bd028192f7b626800905090565b6122f16116fe565b15612328576040517fd93c066500000000000000000000000000000000000000000000000000000000815260040160405180910390fd5b565b600033905090565b6000806000612342868686610d64565b915091508115612356578092505050612366565b6123618686866135f3565b925050505b9392505050565b60006123b460405180608001604052808773ffffffffffffffffffffffffffffffffffffffff1681526020018681526020018481526020018563ffffffff1681525061227b565b90506008600082815260200190815260200160002060009054906101000a900460ff161561241957806040517fbff0e9e700000000000000000000000000000000000000000000000000000000815260040161241091906143ae565b60405180910390fd5b60016008600083815260200190815260200160002060006101000a81548160ff021916908315150217905550600061245d828760096138f69092919063ffffffff16565b9050848673ffffffffffffffffffffffffffffffffffffffff16827f1e88950eef3c1bd8dd83d765aec1f21f34ca153104f0acd7a6218bf8f48e84108787426040516124ab9392919061596c565b60405180910390a4505050505050565b6000806124c66122c1565b90506124d284846117f4565b6125b057600181600001600086815260200190815260200160002060000160008573ffffffffffffffffffffffffffffffffffffffff1673ffffffffffffffffffffffffffffffffffffffff16815260200190815260200160002060006101000a81548160ff02191690831515021790555061254c61232a565b73ffffffffffffffffffffffffffffffffffffffff168373ffffffffffffffffffffffffffffffffffffffff16857f2f8788117e7eff1d82e926ec794901d17c78024a50270940304540a733656f0d60405160405180910390a460019150506125b6565b60009150505b92915050565b6000806125c76122c1565b90506125d384846117f4565b156126b257600081600001600086815260200190815260200160002060000160008573ffffffffffffffffffffffffffffffffffffffff1673ffffffffffffffffffffffffffffffffffffffff16815260200190815260200160002060006101000a81548160ff02191690831515021790555061264e61232a565b73ffffffffffffffffffffffffffffffffffffffff168373ffffffffffffffffffffffffffffffffffffffff16857ff6391f5c32d9c69d2a47ea670b442974b53935d1edc7fd64eb21e047a839171b60405160405180910390a460019150506126b8565b60009150505b92915050565b60007ff0c57e16840df040f15088dc2f81fe391c3923bec73e23a9662efc9c229c6a00905090565b6126ee6139dd565b6126f6613a1d565b565b6127006139dd565b565b61270a6139dd565b565b6127146139dd565b61272160008060006135f3565b5060005b8151811015612763576127556001838381518110612746576127456152d0565b5b602002602001015160006135f3565b508080600101915050612725565b5050565b8060000160405180606001604052806000801b8152602001600073ffffffffffffffffffffffffffffffffffffffff1681526020016000151581525090806001815401808255809150506001900390600052602060002090600202016000909190919091506000820151816000015560208201518160010160006101000a81548173ffffffffffffffffffffffffffffffffffffffff021916908373ffffffffffffffffffffffffffffffffffffffff16021790555060408201518160010160146101000a81548160ff02191690831515021790555050506001816001018190555050565b7f000000000000000000000000000000000000000000000000000000000000000073ffffffffffffffffffffffffffffffffffffffff163073ffffffffffffffffffffffffffffffffffffffff1614806128f957507f000000000000000000000000000000000000000000000000000000000000000073ffffffffffffffffffffffffffffffffffffffff166128e0613a51565b73ffffffffffffffffffffffffffffffffffffffff1614155b15612930576040517fe07c8dba00000000000000000000000000000000000000000000000000000000815260040160405180910390fd5b565b6000801b61293f816121f5565b5050565b8173ffffffffffffffffffffffffffffffffffffffff166352d1902d6040518163ffffffff1660e01b8152600401602060405180830381865afa9250505080156129ab57506040513d601f19601f820116820180604052508101906129a891906159b8565b60015b6129ec57816040517f4c9c8ce30000000000000000000000000000000000000000000000000000000081526004016129e39190615843565b60405180910390fd5b7f360894a13ba1a3210667c828492db98dca3e2076cc3735a920a3ca505d382bbc60001b8114612a5357806040517faa1d49a4000000000000000000000000000000000000000000000000000000008152600401612a4a91906143ae565b60405180910390fd5b612a5d8383613aa8565b505050565b7f000000000000000000000000000000000000000000000000000000000000000073ffffffffffffffffffffffffffffffffffffffff163073ffffffffffffffffffffffffffffffffffffffff1614612ae7576040517fe07c8dba00000000000000000000000000000000000000000000000000000000815260040160405180910390fd5b565b6060600084600101549050846000018054905084101580612b0957508084105b15612b6257838160018760000180549050612b2491906156c8565b6040517f3b405536000000000000000000000000000000000000000000000000000000008152600401612b59939291906159e5565b60405180910390fd5b60005b8351811015612c2e576000848281518110612b8357612b826152d0565b5b6020026020010151905085811180612b9a57508281105b15612be0578083876040517f9e16c3b9000000000000000000000000000000000000000000000000000000008152600401612bd7939291906159e5565b60405180910390fd5b6001876000018281548110612bf857612bf76152d0565b5b906000526020600020906002020160010160146101000a81548160ff021916908315150217905550508080600101915050612b65565b506000808290505b858111612d1457600073ffffffffffffffffffffffffffffffffffffffff16876000018281548110612c6b57612c6a6152d0565b5b906000526020600020906002020160010160009054906101000a900473ffffffffffffffffffffffffffffffffffffffff1673ffffffffffffffffffffffffffffffffffffffff160315612d0157866000018181548110612ccf57612cce6152d0565b5b906000526020600020906002020160010160149054906101000a900460ff16612d01578180612cfd90615a1c565b9250505b8080612d0c90615a1c565b915050612c36565b5060008167ffffffffffffffff811115612d3157612d30614580565b5b604051908082528060200260200182016040528015612d5f5781602001602082028036833780820191505090505b5090506000808490505b878111612e8e57600073ffffffffffffffffffffffffffffffffffffffff16896000018281548110612d9e57612d9d6152d0565b5b906000526020600020906002020160010160009054906101000a900473ffffffffffffffffffffffffffffffffffffffff1673ffffffffffffffffffffffffffffffffffffffff160315612e7b57886000018181548110612e0257612e016152d0565b5b906000526020600020906002020160010160149054906101000a900460ff16612e7b57886000018181548110612e3b57612e3a6152d0565b5b906000526020600020906002020160000154838381518110612e6057612e5f6152d0565b5b6020026020010181815250508180612e7790615a1c565b9250505b8080612e8690615a1c565b915050612d69565b50600187612e9c9190615a64565b8860010181905550819450505050509392505050565b60007fcd5ed15c6e187e77e9aee88184c21f4f2182ab5827cb3b7e07fbedcd63f03300905090565b612ee2613b1b565b6000612eec612eb2565b905060008160000160006101000a81548160ff0219169083151502179055507f5db9ee0a495bf2e6ff9c91a7834c1ba4fdd244a5e8aa4e537bd38aeae4b073aa612f3461232a565b604051612f419190615843565b60405180910390a150565b612fc8848573ffffffffffffffffffffffffffffffffffffffff166323b872dd868686604051602401612f81939291906157e3565b604051602081830303815290604052915060e01b6020820180517bffffffffffffffffffffffffffffffffffffffffffffffffffffffff8381831617835250505050613b5b565b50505050565b60008160000151826020015183604001518460600151604051602001612ff79493929190615a98565b604051602081830303815290604052805190602001209050919050565b60006003811115613028576130276150d3565b5b85600381111561303b5761303a6150d3565b5b0361308c578273ffffffffffffffffffffffffffffffffffffffff166108fc839081150290604051600060405180830381858888f19350505050158015613086573d6000803e3d6000fd5b5061320d565b600160038111156130a05761309f6150d3565b5b8560038111156130b3576130b26150d3565b5b036130e8576130e383838673ffffffffffffffffffffffffffffffffffffffff16613bfd9092919063ffffffff16565b61320c565b600260038111156130fc576130fb6150d3565b5b85600381111561310f5761310e6150d3565b5b03613188578373ffffffffffffffffffffffffffffffffffffffff166323b872dd3085846040518463ffffffff1660e01b8152600401613151939291906157e3565b600060405180830381600087803b15801561316b57600080fd5b505af115801561317f573d6000803e3d6000fd5b5050505061320b565b8373ffffffffffffffffffffffffffffffffffffffff1663f242432a30858486604051806020016040528060008152506040518663ffffffff1660e01b81526004016131d8959493929190615363565b600060405180830381600087803b1580156131f257600080fd5b505af1158015613206573d6000803e3d6000fd5b505050505b5b5b5050505050565b60005b8282905081101561326057613253838383818110613238576132376152d0565b5b90506080020180360381019061324e9190615774565b613c7c565b8080600101915050613217565b50600082829050111561332257600460009054906101000a900473ffffffffffffffffffffffffffffffffffffffff1673ffffffffffffffffffffffffffffffffffffffff1663f099f9f57ff00e60aabbc167f41684e8d81677229edbc0f1876ae2c1ded0a60367465292ab32858590506040518463ffffffff1660e01b81526004016132ef93929190615ae6565b600060405180830381600087803b15801561330957600080fd5b505af115801561331d573d6000803e3d6000fd5b505050505b5050565b60005b828290508110156133b857426007600085858581811061334c5761334b6152d0565b5b90506020020135815260200190815260200160002081905550828282818110613378576133776152d0565b5b905060200201357fd63a18c6858559d79659151118b33c6ad7cf4f7735b64fe9dbd85c509e11a11760405160405180910390a28080600101915050613329565b50600082829050111561347a57600460009054906101000a900473ffffffffffffffffffffffffffffffffffffffff1673ffffffffffffffffffffffffffffffffffffffff1663f099f9f57f25146e2fbfab3f988e64e94788d256b87c4fa8691f43ec409c49b57436cb7ee632858590506040518463ffffffff1660e01b815260040161344793929190615ae6565b600060405180830381600087803b15801561346157600080fd5b505af1158015613475573d6000803e3d6000fd5b505050505b5050565b613486614241565b82600001828154811061349c5761349b6152d0565b5b9060005260206000209060020201604051806060016040529081600082015481526020016001820160009054906101000a900473ffffffffffffffffffffffffffffffffffffffff1673ffffffffffffffffffffffffffffffffffffffff1673ffffffffffffffffffffffffffffffffffffffff1681526020016001820160149054906101000a900460ff1615151515815250509050826000018281548110613548576135476152d0565b5b90600052602060002090600202016000808201600090556001820160006101000a81549073ffffffffffffffffffffffffffffffffffffffff02191690556001820160146101000a81549060ff0219169055505092915050565b6135ac82826117f4565b6135ef5780826040517fe2517d3f0000000000000000000000000000000000000000000000000000000081526004016135e6929190615b1d565b60405180910390fd5b5050565b60008060008054905090506000604051806060016040528087600381111561361e5761361d6150d3565b5b81526020018673ffffffffffffffffffffffffffffffffffffffff16815260200185815250908060018154018082558091505060019003906000526020600020906002020160009091909190915060008201518160000160006101000a81548160ff02191690836003811115613697576136966150d3565b5b021790555060208201518160000160016101000a81548173ffffffffffffffffffffffffffffffffffffffff021916908373ffffffffffffffffffffffffffffffffffffffff16021790555060408201518160010155505060006003811115613703576137026150d3565b5b856003811115613716576137156150d3565b5b036137825780600160008073ffffffffffffffffffffffffffffffffffffffff1673ffffffffffffffffffffffffffffffffffffffff16815260200190815260200160002060006101000a81548163ffffffff021916908363ffffffff160217905550809150506138ef565b600073ffffffffffffffffffffffffffffffffffffffff168473ffffffffffffffffffffffffffffffffffffffff16036137e8576040517fdc2e5e8d00000000000000000000000000000000000000000000000000000000815260040160405180910390fd5b600160038111156137fc576137fb6150d3565b5b85600381111561380f5761380e6150d3565b5b0361387b5780600160008673ffffffffffffffffffffffffffffffffffffffff1673ffffffffffffffffffffffffffffffffffffffff16815260200190815260200160002060006101000a81548163ffffffff021916908363ffffffff160217905550809150506138ef565b80600260008673ffffffffffffffffffffffffffffffffffffffff1673ffffffffffffffffffffffffffffffffffffffff168152602001908152602001600020600085815260200190815260200160002060006101000a81548163ffffffff021916908363ffffffff160217905550809150505b9392505050565b6000836000018054905090508360000160405180606001604052808581526020018473ffffffffffffffffffffffffffffffffffffffff1681526020016000151581525090806001815401808255809150506001900390600052602060002090600202016000909190919091506000820151816000015560208201518160010160006101000a81548173ffffffffffffffffffffffffffffffffffffffff021916908373ffffffffffffffffffffffffffffffffffffffff16021790555060408201518160010160146101000a81548160ff02191690831515021790555050509392505050565b6139e5613eee565b613a1b576040517fd7e6bcf800000000000000000000000000000000000000000000000000000000815260040160405180910390fd5b565b613a256139dd565b6000613a2f612eb2565b905060008160000160006101000a81548160ff02191690831515021790555050565b6000613a7f7f360894a13ba1a3210667c828492db98dca3e2076cc3735a920a3ca505d382bbc60001b613f0e565b60000160009054906101000a900473ffffffffffffffffffffffffffffffffffffffff16905090565b613ab182613f18565b8173ffffffffffffffffffffffffffffffffffffffff167fbc7cd75a20ee27fd9adebab32041f755214dbc6bffa90cc0225b39da2e5c2d3b60405160405180910390a2600081511115613b0e57613b088282613fe5565b50613b17565b613b16614069565b5b5050565b613b236116fe565b613b59576040517f8dfc202b00000000000000000000000000000000000000000000000000000000815260040160405180910390fd5b565b600080602060008451602086016000885af180613b7e576040513d6000823e3d81fd5b3d925060005191505060008214613b99576001811415613bb5565b60008473ffffffffffffffffffffffffffffffffffffffff163b145b15613bf757836040517f5274afe7000000000000000000000000000000000000000000000000000000008152600401613bee9190615843565b60405180910390fd5b50505050565b613c77838473ffffffffffffffffffffffffffffffffffffffff1663a9059cbb8585604051602401613c30929190615b46565b604051602081830303815290604052915060e01b6020820180517bffffffffffffffffffffffffffffffffffffffffffffffffffffffff8381831617835250505050613b5b565b505050565b6000613c8b8260200151611fdd565b905060006001905060006003811115613ca757613ca66150d3565b5b82600001516003811115613cbe57613cbd6150d3565b5b03613d0d576000836000015173ffffffffffffffffffffffffffffffffffffffff166108fc85604001519081150290604051600060405180830381858888f19350505050905080915050613e02565b60016003811115613d2157613d206150d3565b5b82600001516003811115613d3857613d376150d3565b5b03613dfc57600082602001515063a9059cbb60e01b84600001518560400151604051602401613d68929190615b46565b604051602081830303815290604052907bffffffffffffffffffffffffffffffffffffffffffffffffffffffff19166020820180517bffffffffffffffffffffffffffffffffffffffffffffffffffffffff83818316178352505050509050613df481846020015173ffffffffffffffffffffffffffffffffffffffff166140a690919063ffffffff16565b915050613e01565b600090505b5b8015613e5d57826000015173ffffffffffffffffffffffffffffffffffffffff16613e2c84612fce565b7f6a65a945f1306f9bb3d4e3ce63aa367de6976a375de002492404554392c2460e60405160405180910390a3613ee9565b6000613e6884612fce565b9050426007600083815260200190815260200160002081905550807fedf8120f63daf877f6cb9aa7a3e21724c4532681d4afd77a45561904f1a0459985604051613eb29190615bd3565b60405180910390a2807fd63a18c6858559d79659151118b33c6ad7cf4f7735b64fe9dbd85c509e11a11760405160405180910390a2505b505050565b6000613ef86126be565b60000160089054906101000a900460ff16905090565b6000819050919050565b60008173ffffffffffffffffffffffffffffffffffffffff163b03613f7457806040517f4c9c8ce3000000000000000000000000000000000000000000000000000000008152600401613f6b9190615843565b60405180910390fd5b80613fa17f360894a13ba1a3210667c828492db98dca3e2076cc3735a920a3ca505d382bbc60001b613f0e565b60000160006101000a81548173ffffffffffffffffffffffffffffffffffffffff021916908373ffffffffffffffffffffffffffffffffffffffff16021790555050565b60606000808473ffffffffffffffffffffffffffffffffffffffff168460405161400f9190615c2a565b600060405180830381855af49150503d806000811461404a576040519150601f19603f3d011682016040523d82523d6000602084013e61404f565b606091505b509150915061405f85838361416d565b9250505092915050565b60003411156140a4576040517fb398979f00000000000000000000000000000000000000000000000000000000815260040160405180910390fd5b565b60008060008473ffffffffffffffffffffffffffffffffffffffff16846040516140d09190615c2a565b6000604051808303816000865af19150503d806000811461410d576040519150601f19603f3d011682016040523d82523d6000602084013e614112565b606091505b5091509150818015614140575060008151148061413f57508080602001905181019061413e9190615c6d565b5b5b8015614163575060008573ffffffffffffffffffffffffffffffffffffffff163b115b9250505092915050565b6060826141825761417d826141fc565b6141f4565b600082511480156141aa575060008473ffffffffffffffffffffffffffffffffffffffff163b145b156141ec57836040517f9996b3150000000000000000000000000000000000000000000000000000000081526004016141e39190615843565b60405180910390fd5b8190506141f5565b5b9392505050565b60008151111561420f5780518082602001fd5b6040517fd6bda27500000000000000000000000000000000000000000000000000000000815260040160405180910390fd5b604051806060016040528060008019168152602001600073ffffffffffffffffffffffffffffffffffffffff1681526020016000151581525090565b60405180606001604052806000600381111561429c5761429b6150d3565b5b8152602001600073ffffffffffffffffffffffffffffffffffffffff168152602001600081525090565b6000604051905090565b600080fd5b600080fd5b60007fffffffff0000000000000000000000000000000000000000000000000000000082169050919050565b61430f816142da565b811461431a57600080fd5b50565b60008135905061432c81614306565b92915050565b600060208284031215614348576143476142d0565b5b60006143568482850161431d565b91505092915050565b60008115159050919050565b6143748161435f565b82525050565b600060208201905061438f600083018461436b565b92915050565b6000819050919050565b6143a881614395565b82525050565b60006020820190506143c3600083018461439f565b92915050565b6000819050919050565b6143dc816143c9565b81146143e757600080fd5b50565b6000813590506143f9816143d3565b92915050565b61440881614395565b811461441357600080fd5b50565b600081359050614425816143ff565b92915050565b600063ffffffff82169050919050565b6144448161442b565b811461444f57600080fd5b50565b6000813590506144618161443b565b92915050565b600073ffffffffffffffffffffffffffffffffffffffff82169050919050565b600061449282614467565b9050919050565b6144a281614487565b81146144ad57600080fd5b50565b6000813590506144bf81614499565b92915050565b600080600080600060a086880312156144e1576144e06142d0565b5b60006144ef888289016143ea565b955050602061450088828901614416565b945050604061451188828901614452565b9350506060614522888289016143ea565b9250506080614533888289016144b0565b9150509295509295909350565b6145498161442b565b82525050565b60006020820190506145646000830184614540565b92915050565b600080fd5b6000601f19601f8301169050919050565b7f4e487b7100000000000000000000000000000000000000000000000000000000600052604160045260246000fd5b6145b88261456f565b810181811067ffffffffffffffff821117156145d7576145d6614580565b5b80604052505050565b60006145ea6142c6565b90506145f682826145af565b919050565b600067ffffffffffffffff82111561461657614615614580565b5b602082029050602081019050919050565b600080fd5b600061463f61463a846145fb565b6145e0565b9050808382526020820190506020840283018581111561466257614661614627565b5b835b8181101561468b578061467788826143ea565b845260208401935050602081019050614664565b5050509392505050565b600082601f8301126146aa576146a961456a565b5b81356146ba84826020860161462c565b91505092915050565b6000602082840312156146d9576146d86142d0565b5b600082013567ffffffffffffffff8111156146f7576146f66142d5565b5b61470384828501614695565b91505092915050565b600081519050919050565b600082825260208201905092915050565b6000819050602082019050919050565b61474181614395565b82525050565b61475081614487565b82525050565b61475f8161435f565b82525050565b60608201600082015161477b6000850182614738565b50602082015161478e6020850182614747565b5060408201516147a16040850182614756565b50505050565b60006147b38383614765565b60608301905092915050565b6000602082019050919050565b60006147d78261470c565b6147e18185614717565b93506147ec83614728565b8060005b8381101561481d57815161480488826147a7565b975061480f836147bf565b9250506001810190506147f0565b5085935050505092915050565b6000602082019050818103600083015261484481846147cc565b905092915050565b600060208284031215614862576148616142d0565b5b600061487084828501614416565b91505092915050565b60008060008060808587031215614893576148926142d0565b5b60006148a1878288016144b0565b94505060206148b287828801614416565b93505060406148c3878288016143ea565b92505060606148d4878288016143ea565b91505092959194509250565b600080604083850312156148f7576148f66142d0565b5b600061490585828601614416565b9250506020614916858286016144b0565b9150509250929050565b6004811061492d57600080fd5b50565b60008135905061493f81614920565b92915050565b60008060006060848603121561495e5761495d6142d0565b5b600061496c86828701614930565b935050602061497d868287016144b0565b925050604061498e868287016143ea565b9150509250925092565b60006040820190506149ad600083018561436b565b6149ba6020830184614540565b9392505050565b600067ffffffffffffffff8211156149dc576149db614580565b5b602082029050602081019050919050565b6000614a006149fb846149c1565b6145e0565b90508083825260208201905060208402830185811115614a2357614a22614627565b5b835b81811015614a4c5780614a3888826144b0565b845260208401935050602081019050614a25565b5050509392505050565b600082601f830112614a6b57614a6a61456a565b5b8135614a7b8482602086016149ed565b91505092915050565b600080600080600080600060e0888a031215614aa357614aa26142d0565b5b6000614ab18a828b016144b0565b9750506020614ac28a828b016144b0565b9650506040614ad38a828b016144b0565b9550506060614ae48a828b016144b0565b9450506080614af58a828b016144b0565b93505060a0614b068a828b016144b0565b92505060c088013567ffffffffffffffff811115614b2757614b266142d5565b5b614b338a828b01614a56565b91505092959891949750929550565b600080fd5b600067ffffffffffffffff821115614b6257614b61614580565b5b614b6b8261456f565b9050602081019050919050565b82818337600083830152505050565b6000614b9a614b9584614b47565b6145e0565b905082815260208101848484011115614bb657614bb5614b42565b5b614bc1848285614b78565b509392505050565b600082601f830112614bde57614bdd61456a565b5b8135614bee848260208601614b87565b91505092915050565b60008060408385031215614c0e57614c0d6142d0565b5b6000614c1c858286016144b0565b925050602083013567ffffffffffffffff811115614c3d57614c3c6142d5565b5b614c4985828601614bc9565b9150509250929050565b600080600060608486031215614c6c57614c6b6142d0565b5b6000614c7a868287016143ea565b935050602084013567ffffffffffffffff811115614c9b57614c9a6142d5565b5b614ca786828701614695565b9250506040614cb8868287016143ea565b9150509250925092565b614ccb816143c9565b82525050565b6000602082019050614ce66000830184614cc2565b92915050565b600080600060608486031215614d0557614d046142d0565b5b6000614d13868287016144b0565b9350506020614d2486828701614416565b9250506040614d35868287016143ea565b9150509250925092565b600080fd5b60008083601f840112614d5a57614d5961456a565b5b8235905067ffffffffffffffff811115614d7757614d76614d3f565b5b602083019150836080820283011115614d9357614d92614627565b5b9250929050565b60008060208385031215614db157614db06142d0565b5b600083013567ffffffffffffffff811115614dcf57614dce6142d5565b5b614ddb85828601614d44565b92509250509250929050565b600060208284031215614dfd57614dfc6142d0565b5b6000614e0b848285016143ea565b91505092915050565b60008083601f840112614e2a57614e2961456a565b5b8235905067ffffffffffffffff811115614e4757614e46614d3f565b5b602083019150836020820283011115614e6357614e62614627565b5b9250929050565b60008060008060408587031215614e8457614e836142d0565b5b600085013567ffffffffffffffff811115614ea257614ea16142d5565b5b614eae87828801614d44565b9450945050602085013567ffffffffffffffff811115614ed157614ed06142d5565b5b614edd87828801614e14565b925092505092959194509250565b600081519050919050565b600082825260208201905092915050565b60005b83811015614f25578082015181840152602081019050614f0a565b60008484015250505050565b6000614f3c82614eeb565b614f468185614ef6565b9350614f56818560208601614f07565b614f5f8161456f565b840191505092915050565b60006020820190508181036000830152614f848184614f31565b905092915050565b600080fd5b600060808284031215614fa757614fa6614f8c565b5b614fb160806145e0565b90506000614fc1848285016144b0565b6000830152506020614fd584828501614416565b6020830152506040614fe9848285016143ea565b6040830152506060614ffd84828501614452565b60608301525092915050565b60008060a083850312156150205761501f6142d0565b5b600061502e858286016143ea565b925050602061503f85828601614f91565b9150509250929050565b60608201600082015161505f6000850182614738565b5060208201516150726020850182614747565b5060408201516150856040850182614756565b50505050565b60006060820190506150a06000830184615049565b92915050565b6000602082840312156150bc576150bb6142d0565b5b60006150ca84828501614452565b91505092915050565b7f4e487b7100000000000000000000000000000000000000000000000000000000600052602160045260246000fd5b60048110615113576151126150d3565b5b50565b600081905061512482615102565b919050565b600061513482615116565b9050919050565b61514481615129565b82525050565b615153816143c9565b82525050565b60608201600082015161516f600085018261513b565b5060208201516151826020850182614747565b506040820151615195604085018261514a565b50505050565b60006060820190506151b06000830184615159565b92915050565b60008083601f8401126151cc576151cb61456a565b5b8235905067ffffffffffffffff8111156151e9576151e8614d3f565b5b60208301915083600182028301111561520557615204614627565b5b9250929050565b60008060008060008060a08789031215615229576152286142d0565b5b600061523789828a016144b0565b965050602061524889828a016144b0565b955050604061525989828a016143ea565b945050606061526a89828a016143ea565b935050608087013567ffffffffffffffff81111561528b5761528a6142d5565b5b61529789828a016151b6565b92509250509295509295509295565b6152af816142da565b82525050565b60006020820190506152ca60008301846152a6565b92915050565b7f4e487b7100000000000000000000000000000000000000000000000000000000600052603260045260246000fd5b61530881614487565b82525050565b600081519050919050565b600082825260208201905092915050565b60006153358261530e565b61533f8185615319565b935061534f818560208601614f07565b6153588161456f565b840191505092915050565b600060a08201905061537860008301886152ff565b61538560208301876152ff565b6153926040830186614cc2565b61539f6060830185614cc2565b81810360808301526153b1818461532a565b90509695505050505050565b6000819050919050565b600067ffffffffffffffff82169050919050565b6000819050919050565b60006154006153fb6153f6846153bd565b6153db565b6153c7565b9050919050565b615410816153e5565b82525050565b600060208201905061542b6000830184615407565b92915050565b600081519050919050565b600082825260208201905092915050565b6000819050602082019050919050565b60006154698383614738565b60208301905092915050565b6000602082019050919050565b600061548d82615431565b615497818561543c565b93506154a28361544d565b8060005b838110156154d35781516154ba888261545d565b97506154c583615475565b9250506001810190506154a6565b5085935050505092915050565b60006040820190506154f56000830185614cc2565b81810360208301526155078184615482565b90509392505050565b6000819050919050565b600061553561553061552b84615510565b6153db565b6143c9565b9050919050565b6155458161551a565b82525050565b600060a08201905061556060008301886152ff565b61556d602083018761553c565b818103604083015261557f818661532a565b905061558e6060830185614cc2565b61559b60808301846152ff565b9695505050505050565b600081519050919050565b600082825260208201905092915050565b6000819050602082019050919050565b60006155dd838361514a565b60208301905092915050565b6000602082019050919050565b6000615601826155a5565b61560b81856155b0565b9350615616836155c1565b8060005b8381101561564757815161562e88826155d1565b9750615639836155e9565b92505060018101905061561a565b5085935050505092915050565b6000606082019050818103600083015261566e81866155f6565b905061567d6020830185614cc2565b818103604083015261568f818461532a565b9050949350505050565b7f4e487b7100000000000000000000000000000000000000000000000000000000600052601160045260246000fd5b60006156d3826143c9565b91506156de836143c9565b92508282039050818111156156f6576156f5615699565b5b92915050565b60006080828403121561571257615711614f8c565b5b61571c60806145e0565b9050600061572c848285016144b0565b600083015250602061574084828501614452565b6020830152506040615754848285016143ea565b604083015250606061576884828501614416565b60608301525092915050565b60006080828403121561578a576157896142d0565b5b6000615798848285016156fc565b91505092915050565b6000815190506157b081614499565b92915050565b6000602082840312156157cc576157cb6142d0565b5b60006157da848285016157a1565b91505092915050565b60006060820190506157f860008301866152ff565b61580560208301856152ff565b6158126040830184614cc2565b949350505050565b600060408201905061582f600083018561439f565b61583c602083018461439f565b9392505050565b600060208201905061585860008301846152ff565b92915050565b60008160601b9050919050565b60006158768261585e565b9050919050565b60006158888261586b565b9050919050565b6158a061589b82614487565b61587d565b82525050565b6000819050919050565b6158c16158bc82614395565b6158a6565b82525050565b6000819050919050565b6158e26158dd826143c9565b6158c7565b82525050565b60008160e01b9050919050565b6000615900826158e8565b9050919050565b6159186159138261442b565b6158f5565b82525050565b600061592a828761588f565b60148201915061593a82866158b0565b60208201915061594a82856158d1565b60208201915061595a8284615907565b60048201915081905095945050505050565b60006060820190506159816000830186614540565b61598e6020830185614cc2565b61599b6040830184614cc2565b949350505050565b6000815190506159b2816143ff565b92915050565b6000602082840312156159ce576159cd6142d0565b5b60006159dc848285016159a3565b91505092915050565b60006060820190506159fa6000830186614cc2565b615a076020830185614cc2565b615a146040830184614cc2565b949350505050565b6000615a27826143c9565b91507fffffffffffffffffffffffffffffffffffffffffffffffffffffffffffffffff8203615a5957615a58615699565b5b600182019050919050565b6000615a6f826143c9565b9150615a7a836143c9565b9250828201905080821115615a9257615a91615699565b5b92915050565b6000615aa4828761588f565b601482019150615ab48286615907565b600482019150615ac482856158d1565b602082019150615ad482846158b0565b60208201915081905095945050505050565b6000606082019050615afb600083018661439f565b615b0860208301856152ff565b615b156040830184614cc2565b949350505050565b6000604082019050615b3260008301856152ff565b615b3f602083018461439f565b9392505050565b6000604082019050615b5b60008301856152ff565b615b686020830184614cc2565b9392505050565b615b788161442b565b82525050565b608082016000820151615b946000850182614747565b506020820151615ba76020850182615b6f565b506040820151615bba604085018261514a565b506060820151615bcd6060850182614738565b50505050565b6000608082019050615be86000830184615b7e565b92915050565b600081905092915050565b6000615c048261530e565b615c0e8185615bee565b9350615c1e818560208601614f07565b80840191505092915050565b6000615c368284615bf9565b915081905092915050565b615c4a8161435f565b8114615c5557600080fd5b50565b600081519050615c6781615c41565b92915050565b600060208284031215615c8357615c826142d0565b5b6000615c9184828501615c58565b9150509291505056fea264697066735822122004630ea0b0b59bf6a34577aa4c87dd536291015a4cd54a16972fe20a6058387e64736f6c634300081b0033",
  "linkReferences": {},
  "deployedLinkReferences": {}
}