{
  "_format": "hh-sol-artifact-1",
  "contractName": "Liquidity",
  "sourceName": "contracts/liquidity/Liquidity.sol",
  "abi": [
    {
      "inputs": [],
      "stateMutability": "nonpayable",
      "type": "constructor"
    },
    {
      "inputs": [],
      "name": "AccessControlBadConfirmation",
      "type": "error"
    },
    {
      "inputs": [
        {
          "internalType": "address",
          "name": "account",
          "type": "address"
        },
        {
          "internalType": "bytes32",
          "name": "neededRole",
          "type": "bytes32"
        }
      ],
      "name": "AccessControlUnauthorizedAccount",
      "type": "error"
    },
    {
      "inputs": [
        {
          "internalType": "address",
          "name": "target",
          "type": "address"
        }
      ],
      "name": "AddressEmptyCode",
      "type": "error"
    },
    {
      "inputs": [],
      "name": "AddressZero",
      "type": "error"
    },
    {
      "inputs": [],
      "name": "AlreadyAnalyzed",
      "type": "error"
    },
    {
      "inputs": [
        {
          "internalType": "uint256",
          "name": "depositAmount",
          "type": "uint256"
        },
        {
          "internalType": "uint256",
          "name": "limit",
          "type": "uint256"
        }
      ],
      "name": "DepositAmountExceedsLimit",
      "type": "error"
    },
    {
      "inputs": [
        {
          "internalType": "bytes32",
          "name": "depositHash",
          "type": "bytes32"
        }
      ],
      "name": "DepositHashAlreadyExists",
      "type": "error"
    },
    {
      "inputs": [
        {
          "internalType": "address",
          "name": "implementation",
          "type": "address"
        }
      ],
      "name": "ERC1967InvalidImplementation",
      "type": "error"
    },
    {
      "inputs": [],
      "name": "ERC1967NonPayable",
      "type": "error"
    },
    {
      "inputs": [],
      "name": "EnforcedPause",
      "type": "error"
    },
    {
      "inputs": [],
      "name": "ExpectedPause",
      "type": "error"
    },
    {
      "inputs": [],
      "name": "FailedCall",
      "type": "error"
    },
    {
      "inputs": [
        {
          "internalType": "bytes32",
          "name": "depositDataHash",
          "type": "bytes32"
        },
        {
          "internalType": "bytes32",
          "name": "calculatedHash",
          "type": "bytes32"
        }
      ],
      "name": "InvalidDepositHash",
      "type": "error"
    },
    {
      "inputs": [],
      "name": "InvalidInitialization",
      "type": "error"
    },
    {
      "inputs": [],
      "name": "InvalidTokenIndex",
      "type": "error"
    },
    {
      "inputs": [],
      "name": "InvalidWithdrawalAddress",
      "type": "error"
    },
    {
      "inputs": [],
      "name": "NotInitializing",
      "type": "error"
    },
    {
      "inputs": [],
      "name": "OnlySenderCanCancelDeposit",
      "type": "error"
    },
    {
      "inputs": [
        {
          "internalType": "address",
          "name": "token",
          "type": "address"
        }
      ],
      "name": "SafeERC20FailedOperation",
      "type": "error"
    },
    {
      "inputs": [],
      "name": "SenderIsNotScrollMessenger",
      "type": "error"
    },
    {
      "inputs": [],
      "name": "TokenAddressIsZero",
      "type": "error"
    },
    {
      "inputs": [
        {
          "internalType": "uint256",
          "name": "upToDepositId",
          "type": "uint256"
        },
        {
          "internalType": "uint256",
          "name": "firstDepositId",
          "type": "uint256"
        },
        {
          "internalType": "uint256",
          "name": "lastDepositId",
          "type": "uint256"
        }
      ],
      "name": "TriedAnalyzeOutOfRange",
      "type": "error"
    },
    {
      "inputs": [],
      "name": "TriedToDepositZero",
      "type": "error"
    },
    {
      "inputs": [
        {
          "internalType": "uint256",
          "name": "rejectIndex",
          "type": "uint256"
        },
        {
          "internalType": "uint256",
          "name": "front",
          "type": "uint256"
        },
        {
          "internalType": "uint256",
          "name": "upToDepositId",
          "type": "uint256"
        }
      ],
      "name": "TriedToRejectOutOfRange",
      "type": "error"
    },
    {
      "inputs": [],
      "name": "UUPSUnauthorizedCallContext",
      "type": "error"
    },
    {
      "inputs": [
        {
          "internalType": "bytes32",
          "name": "slot",
          "type": "bytes32"
        }
      ],
      "name": "UUPSUnsupportedProxiableUUID",
      "type": "error"
    },
    {
      "inputs": [],
      "name": "WithdrawalAddressNotSet",
      "type": "error"
    },
    {
      "inputs": [
        {
          "internalType": "bytes32",
          "name": "withdrawalHash",
          "type": "bytes32"
        }
      ],
      "name": "WithdrawalNotFound",
      "type": "error"
    },
    {
      "anonymous": false,
      "inputs": [
        {
          "indexed": true,
          "internalType": "address",
          "name": "recipient",
          "type": "address"
        },
        {
          "indexed": true,
          "internalType": "bytes32",
          "name": "withdrawalHash",
          "type": "bytes32"
        }
      ],
      "name": "ClaimedWithdrawal",
      "type": "event"
    },
    {
      "anonymous": false,
      "inputs": [
        {
          "indexed": true,
          "internalType": "uint256",
          "name": "depositId",
          "type": "uint256"
        }
      ],
      "name": "DepositCanceled",
      "type": "event"
    },
    {
      "anonymous": false,
      "inputs": [
        {
          "indexed": true,
          "internalType": "uint256",
          "name": "depositId",
          "type": "uint256"
        },
        {
          "indexed": true,
          "internalType": "address",
          "name": "sender",
          "type": "address"
        },
        {
          "indexed": true,
          "internalType": "bytes32",
          "name": "recipientSaltHash",
          "type": "bytes32"
        },
        {
          "indexed": false,
          "internalType": "uint32",
          "name": "tokenIndex",
          "type": "uint32"
        },
        {
          "indexed": false,
          "internalType": "uint256",
          "name": "amount",
          "type": "uint256"
        },
        {
          "indexed": false,
          "internalType": "uint256",
          "name": "depositedAt",
          "type": "uint256"
        }
      ],
      "name": "Deposited",
      "type": "event"
    },
    {
      "anonymous": false,
      "inputs": [
        {
          "indexed": true,
          "internalType": "uint256",
          "name": "upToDepositId",
          "type": "uint256"
        },
        {
          "indexed": false,
          "internalType": "uint256[]",
          "name": "rejectedIndices",
          "type": "uint256[]"
        },
        {
          "indexed": false,
          "internalType": "uint256",
          "name": "gasLimit",
          "type": "uint256"
        },
        {
          "indexed": false,
          "internalType": "bytes",
          "name": "message",
          "type": "bytes"
        }
      ],
      "name": "DepositsAnalyzedAndRelayed",
      "type": "event"
    },
    {
      "anonymous": false,
      "inputs": [
        {
          "indexed": true,
          "internalType": "bytes32",
          "name": "withdrawalHash",
          "type": "bytes32"
        },
        {
          "components": [
            {
              "internalType": "address",
              "name": "recipient",
              "type": "address"
            },
            {
              "internalType": "uint32",
              "name": "tokenIndex",
              "type": "uint32"
            },
            {
              "internalType": "uint256",
              "name": "amount",
              "type": "uint256"
            },
            {
              "internalType": "bytes32",
              "name": "nullifier",
              "type": "bytes32"
            }
          ],
          "indexed": false,
          "internalType": "struct WithdrawalLib.Withdrawal",
          "name": "withdrawal",
          "type": "tuple"
        }
      ],
      "name": "DirectWithdrawalFailed",
      "type": "event"
    },
    {
      "anonymous": false,
      "inputs": [
        {
          "indexed": true,
          "internalType": "bytes32",
          "name": "withdrawalHash",
          "type": "bytes32"
        },
        {
          "indexed": true,
          "internalType": "address",
          "name": "recipient",
          "type": "address"
        }
      ],
      "name": "DirectWithdrawalSuccessed",
      "type": "event"
    },
    {
      "anonymous": false,
      "inputs": [
        {
          "indexed": false,
          "internalType": "uint64",
          "name": "version",
          "type": "uint64"
        }
      ],
      "name": "Initialized",
      "type": "event"
    },
    {
      "anonymous": false,
      "inputs": [
        {
          "indexed": false,
          "internalType": "address",
          "name": "account",
          "type": "address"
        }
      ],
      "name": "Paused",
      "type": "event"
    },
    {
      "anonymous": false,
      "inputs": [
        {
          "indexed": true,
          "internalType": "bytes32",
          "name": "role",
          "type": "bytes32"
        },
        {
          "indexed": true,
          "internalType": "bytes32",
          "name": "previousAdminRole",
          "type": "bytes32"
        },
        {
          "indexed": true,
          "internalType": "bytes32",
          "name": "newAdminRole",
          "type": "bytes32"
        }
      ],
      "name": "RoleAdminChanged",
      "type": "event"
    },
    {
      "anonymous": false,
      "inputs": [
        {
          "indexed": true,
          "internalType": "bytes32",
          "name": "role",
          "type": "bytes32"
        },
        {
          "indexed": true,
          "internalType": "address",
          "name": "account",
          "type": "address"
        },
        {
          "indexed": true,
          "internalType": "address",
          "name": "sender",
          "type": "address"
        }
      ],
      "name": "RoleGranted",
      "type": "event"
    },
    {
      "anonymous": false,
      "inputs": [
        {
          "indexed": true,
          "internalType": "bytes32",
          "name": "role",
          "type": "bytes32"
        },
        {
          "indexed": true,
          "internalType": "address",
          "name": "account",
          "type": "address"
        },
        {
          "indexed": true,
          "internalType": "address",
          "name": "sender",
          "type": "address"
        }
      ],
      "name": "RoleRevoked",
      "type": "event"
    },
    {
      "anonymous": false,
      "inputs": [
        {
          "indexed": false,
          "internalType": "address",
          "name": "account",
          "type": "address"
        }
      ],
      "name": "Unpaused",
      "type": "event"
    },
    {
      "anonymous": false,
      "inputs": [
        {
          "indexed": true,
          "internalType": "address",
          "name": "implementation",
          "type": "address"
        }
      ],
      "name": "Upgraded",
      "type": "event"
    },
    {
      "anonymous": false,
      "inputs": [
        {
          "indexed": true,
          "internalType": "bytes32",
          "name": "withdrawalHash",
          "type": "bytes32"
        }
      ],
      "name": "WithdrawalClaimable",
      "type": "event"
    },
    {
      "inputs": [],
      "name": "ANALYZER",
      "outputs": [
        {
          "internalType": "bytes32",
          "name": "",
          "type": "bytes32"
        }
      ],
      "stateMutability": "view",
      "type": "function"
    },
    {
      "inputs": [],
      "name": "DEFAULT_ADMIN_ROLE",
      "outputs": [
        {
          "internalType": "bytes32",
          "name": "",
          "type": "bytes32"
        }
      ],
      "stateMutability": "view",
      "type": "function"
    },
    {
      "inputs": [],
      "name": "UPGRADE_INTERFACE_VERSION",
      "outputs": [
        {
          "internalType": "string",
          "name": "",
          "type": "string"
        }
      ],
      "stateMutability": "view",
      "type": "function"
    },
    {
      "inputs": [],
      "name": "WITHDRAWAL",
      "outputs": [
        {
          "internalType": "bytes32",
          "name": "",
          "type": "bytes32"
        }
      ],
      "stateMutability": "view",
      "type": "function"
    },
    {
      "inputs": [
        {
          "internalType": "uint256",
          "name": "upToDepositId",
          "type": "uint256"
        },
        {
          "internalType": "uint256[]",
          "name": "rejectDepositIds",
          "type": "uint256[]"
        },
        {
          "internalType": "uint256",
          "name": "gasLimit",
          "type": "uint256"
        }
      ],
      "name": "analyzeAndRelayDeposits",
      "outputs": [],
      "stateMutability": "payable",
      "type": "function"
    },
    {
      "inputs": [
        {
          "internalType": "uint256",
          "name": "depositId",
          "type": "uint256"
        },
        {
          "components": [
            {
              "internalType": "address",
              "name": "depositor",
              "type": "address"
            },
            {
              "internalType": "bytes32",
              "name": "recipientSaltHash",
              "type": "bytes32"
            },
            {
              "internalType": "uint256",
              "name": "amount",
              "type": "uint256"
            },
            {
              "internalType": "uint32",
              "name": "tokenIndex",
              "type": "uint32"
            },
            {
              "internalType": "bool",
              "name": "isEligible",
              "type": "bool"
            }
          ],
          "internalType": "struct DepositLib.Deposit",
          "name": "deposit",
          "type": "tuple"
        }
      ],
      "name": "cancelDeposit",
      "outputs": [],
      "stateMutability": "nonpayable",
      "type": "function"
    },
    {
      "inputs": [
        {
          "components": [
            {
              "internalType": "address",
              "name": "recipient",
              "type": "address"
            },
            {
              "internalType": "uint32",
              "name": "tokenIndex",
              "type": "uint32"
            },
            {
              "internalType": "uint256",
              "name": "amount",
              "type": "uint256"
            },
            {
              "internalType": "bytes32",
              "name": "nullifier",
              "type": "bytes32"
            }
          ],
          "internalType": "struct WithdrawalLib.Withdrawal[]",
          "name": "withdrawals",
          "type": "tuple[]"
        }
      ],
      "name": "claimWithdrawals",
      "outputs": [],
      "stateMutability": "nonpayable",
      "type": "function"
    },
    {
      "inputs": [
        {
          "internalType": "bytes32",
          "name": "",
          "type": "bytes32"
        }
      ],
      "name": "claimableWithdrawals",
      "outputs": [
        {
          "internalType": "uint256",
          "name": "",
          "type": "uint256"
        }
      ],
      "stateMutability": "view",
      "type": "function"
    },
    {
      "inputs": [
        {
          "internalType": "address",
          "name": "tokenAddress",
          "type": "address"
        },
        {
          "internalType": "bytes32",
          "name": "recipientSaltHash",
          "type": "bytes32"
        },
        {
          "internalType": "uint256",
          "name": "tokenId",
          "type": "uint256"
        },
        {
          "internalType": "uint256",
          "name": "amount",
          "type": "uint256"
        }
      ],
      "name": "depositERC1155",
      "outputs": [],
      "stateMutability": "nonpayable",
      "type": "function"
    },
    {
      "inputs": [
        {
          "internalType": "address",
          "name": "tokenAddress",
          "type": "address"
        },
        {
          "internalType": "bytes32",
          "name": "recipientSaltHash",
          "type": "bytes32"
        },
        {
          "internalType": "uint256",
          "name": "amount",
          "type": "uint256"
        }
      ],
      "name": "depositERC20",
      "outputs": [],
      "stateMutability": "nonpayable",
      "type": "function"
    },
    {
      "inputs": [
        {
          "internalType": "address",
          "name": "tokenAddress",
          "type": "address"
        },
        {
          "internalType": "bytes32",
          "name": "recipientSaltHash",
          "type": "bytes32"
        },
        {
          "internalType": "uint256",
          "name": "tokenId",
          "type": "uint256"
        }
      ],
      "name": "depositERC721",
      "outputs": [],
      "stateMutability": "nonpayable",
      "type": "function"
    },
    {
      "inputs": [
        {
          "internalType": "bytes32",
          "name": "recipientSaltHash",
          "type": "bytes32"
        }
      ],
      "name": "depositNativeToken",
      "outputs": [],
      "stateMutability": "payable",
      "type": "function"
    },
    {
      "inputs": [
        {
          "internalType": "uint256",
          "name": "depositId",
          "type": "uint256"
        }
      ],
      "name": "getDepositData",
      "outputs": [
        {
          "components": [
            {
              "internalType": "bytes32",
              "name": "depositHash",
              "type": "bytes32"
            },
            {
              "internalType": "address",
              "name": "sender",
              "type": "address"
            },
            {
              "internalType": "bool",
              "name": "isRejected",
              "type": "bool"
            }
          ],
          "internalType": "struct DepositQueueLib.DepositData",
          "name": "",
          "type": "tuple"
        }
      ],
      "stateMutability": "view",
      "type": "function"
    },
    {
      "inputs": [
        {
          "internalType": "uint256[]",
          "name": "depositIds",
          "type": "uint256[]"
        }
      ],
      "name": "getDepositDataBatch",
      "outputs": [
        {
          "components": [
            {
              "internalType": "bytes32",
              "name": "depositHash",
              "type": "bytes32"
            },
            {
              "internalType": "address",
              "name": "sender",
              "type": "address"
            },
            {
              "internalType": "bool",
              "name": "isRejected",
              "type": "bool"
            }
          ],
          "internalType": "struct DepositQueueLib.DepositData[]",
          "name": "",
          "type": "tuple[]"
        }
      ],
      "stateMutability": "view",
      "type": "function"
    },
    {
      "inputs": [
        {
          "internalType": "uint256",
          "name": "depositId",
          "type": "uint256"
        }
      ],
      "name": "getDepositDataHash",
      "outputs": [
        {
          "internalType": "bytes32",
          "name": "",
          "type": "bytes32"
        }
      ],
      "stateMutability": "view",
      "type": "function"
    },
    {
      "inputs": [],
      "name": "getLastDepositId",
      "outputs": [
        {
          "internalType": "uint256",
          "name": "",
          "type": "uint256"
        }
      ],
      "stateMutability": "view",
      "type": "function"
    },
    {
      "inputs": [],
      "name": "getLastRelayedDepositId",
      "outputs": [
        {
          "internalType": "uint256",
          "name": "",
          "type": "uint256"
        }
      ],
      "stateMutability": "view",
      "type": "function"
    },
    {
      "inputs": [],
      "name": "getNativeTokenIndex",
      "outputs": [
        {
          "internalType": "uint32",
          "name": "",
          "type": "uint32"
        }
      ],
      "stateMutability": "pure",
      "type": "function"
    },
    {
      "inputs": [
        {
          "internalType": "bytes32",
          "name": "role",
          "type": "bytes32"
        }
      ],
      "name": "getRoleAdmin",
      "outputs": [
        {
          "internalType": "bytes32",
          "name": "",
          "type": "bytes32"
        }
      ],
      "stateMutability": "view",
      "type": "function"
    },
    {
      "inputs": [
        {
          "internalType": "enum ITokenData.TokenType",
          "name": "tokenType",
          "type": "uint8"
        },
        {
          "internalType": "address",
          "name": "tokenAddress",
          "type": "address"
        },
        {
          "internalType": "uint256",
          "name": "tokenId",
          "type": "uint256"
        }
      ],
      "name": "getTokenIndex",
      "outputs": [
        {
          "internalType": "bool",
          "name": "",
          "type": "bool"
        },
        {
          "internalType": "uint32",
          "name": "",
          "type": "uint32"
        }
      ],
      "stateMutability": "view",
      "type": "function"
    },
    {
      "inputs": [
        {
          "internalType": "uint32",
          "name": "tokenIndex",
          "type": "uint32"
        }
      ],
      "name": "getTokenInfo",
      "outputs": [
        {
          "components": [
            {
              "internalType": "enum ITokenData.TokenType",
              "name": "tokenType",
              "type": "uint8"
            },
            {
              "internalType": "address",
              "name": "tokenAddress",
              "type": "address"
            },
            {
              "internalType": "uint256",
              "name": "tokenId",
              "type": "uint256"
            }
          ],
          "internalType": "struct ITokenData.TokenInfo",
          "name": "",
          "type": "tuple"
        }
      ],
      "stateMutability": "view",
      "type": "function"
    },
    {
      "inputs": [
        {
          "internalType": "bytes32",
          "name": "role",
          "type": "bytes32"
        },
        {
          "internalType": "address",
          "name": "account",
          "type": "address"
        }
      ],
      "name": "grantRole",
      "outputs": [],
      "stateMutability": "nonpayable",
      "type": "function"
    },
    {
      "inputs": [
        {
          "internalType": "bytes32",
          "name": "role",
          "type": "bytes32"
        },
        {
          "internalType": "address",
          "name": "account",
          "type": "address"
        }
      ],
      "name": "hasRole",
      "outputs": [
        {
          "internalType": "bool",
          "name": "",
          "type": "bool"
        }
      ],
      "stateMutability": "view",
      "type": "function"
    },
    {
      "inputs": [
        {
          "internalType": "address",
          "name": "_admin",
          "type": "address"
        },
        {
          "internalType": "address",
          "name": "_l1ScrollMessenger",
          "type": "address"
        },
        {
          "internalType": "address",
          "name": "_rollup",
          "type": "address"
        },
        {
          "internalType": "address",
          "name": "_withdrawal",
          "type": "address"
        },
        {
          "internalType": "address",
          "name": "_analyzer",
          "type": "address"
        },
        {
          "internalType": "address",
          "name": "_contribution",
          "type": "address"
        },
        {
          "internalType": "address[]",
          "name": "initialERC20Tokens",
          "type": "address[]"
        }
      ],
      "name": "initialize",
      "outputs": [],
      "stateMutability": "nonpayable",
      "type": "function"
    },
    {
      "inputs": [
        {
          "internalType": "uint256",
          "name": "depositId",
          "type": "uint256"
        },
        {
          "internalType": "bytes32",
          "name": "recipientSaltHash",
          "type": "bytes32"
        },
        {
          "internalType": "uint32",
          "name": "tokenIndex",
          "type": "uint32"
        },
        {
          "internalType": "uint256",
          "name": "amount",
          "type": "uint256"
        },
        {
          "internalType": "bool",
          "name": "isEligible",
          "type": "bool"
        },
        {
          "internalType": "address",
          "name": "sender",
          "type": "address"
        }
      ],
      "name": "isDepositValid",
      "outputs": [
        {
          "internalType": "bool",
          "name": "",
          "type": "bool"
        }
      ],
      "stateMutability": "view",
      "type": "function"
    },
    {
      "inputs": [
        {
          "internalType": "address",
          "name": "",
          "type": "address"
        },
        {
          "internalType": "address",
          "name": "",
          "type": "address"
        },
        {
          "internalType": "uint256",
          "name": "",
          "type": "uint256"
        },
        {
          "internalType": "uint256",
          "name": "",
          "type": "uint256"
        },
        {
          "internalType": "bytes",
          "name": "",
          "type": "bytes"
        }
      ],
      "name": "onERC1155Received",
      "outputs": [
        {
          "internalType": "bytes4",
          "name": "",
          "type": "bytes4"
        }
      ],
      "stateMutability": "pure",
      "type": "function"
    },
    {
      "inputs": [],
      "name": "pauseDeposits",
      "outputs": [],
      "stateMutability": "nonpayable",
      "type": "function"
    },
    {
      "inputs": [],
      "name": "paused",
      "outputs": [
        {
          "internalType": "bool",
          "name": "",
          "type": "bool"
        }
      ],
      "stateMutability": "view",
      "type": "function"
    },
    {
      "inputs": [
        {
          "components": [
            {
              "internalType": "address",
              "name": "recipient",
              "type": "address"
            },
            {
              "internalType": "uint32",
              "name": "tokenIndex",
              "type": "uint32"
            },
            {
              "internalType": "uint256",
              "name": "amount",
              "type": "uint256"
            },
            {
              "internalType": "bytes32",
              "name": "nullifier",
              "type": "bytes32"
            }
          ],
          "internalType": "struct WithdrawalLib.Withdrawal[]",
          "name": "withdrawals",
          "type": "tuple[]"
        },
        {
          "internalType": "bytes32[]",
          "name": "withdrawalHashes",
          "type": "bytes32[]"
        }
      ],
      "name": "processWithdrawals",
      "outputs": [],
      "stateMutability": "nonpayable",
      "type": "function"
    },
    {
      "inputs": [],
      "name": "proxiableUUID",
      "outputs": [
        {
          "internalType": "bytes32",
          "name": "",
          "type": "bytes32"
        }
      ],
      "stateMutability": "view",
      "type": "function"
    },
    {
      "inputs": [
        {
          "internalType": "bytes32",
          "name": "role",
          "type": "bytes32"
        },
        {
          "internalType": "address",
          "name": "callerConfirmation",
          "type": "address"
        }
      ],
      "name": "renounceRole",
      "outputs": [],
      "stateMutability": "nonpayable",
      "type": "function"
    },
    {
      "inputs": [
        {
          "internalType": "bytes32",
          "name": "role",
          "type": "bytes32"
        },
        {
          "internalType": "address",
          "name": "account",
          "type": "address"
        }
      ],
      "name": "revokeRole",
      "outputs": [],
      "stateMutability": "nonpayable",
      "type": "function"
    },
    {
      "inputs": [
        {
          "internalType": "bytes4",
          "name": "interfaceId",
          "type": "bytes4"
        }
      ],
      "name": "supportsInterface",
      "outputs": [
        {
          "internalType": "bool",
          "name": "",
          "type": "bool"
        }
      ],
      "stateMutability": "view",
      "type": "function"
    },
    {
      "inputs": [],
      "name": "unpauseDeposits",
      "outputs": [],
      "stateMutability": "nonpayable",
      "type": "function"
    },
    {
      "inputs": [
        {
          "internalType": "address",
          "name": "newImplementation",
          "type": "address"
        },
        {
          "internalType": "bytes",
          "name": "data",
          "type": "bytes"
        }
      ],
      "name": "upgradeToAndCall",
      "outputs": [],
      "stateMutability": "payable",
      "type": "function"
    }
  ],
  "bytecode": "0x60a06040523060805234801561001457600080fd5b5061001d61004a565b61002a6201518042610112565b610035906001610134565b610042906201518061014d565b600355610164565b7ff0c57e16840df040f15088dc2f81fe391c3923bec73e23a9662efc9c229c6a00805468010000000000000000900460ff161561009a5760405163f92ee8a960e01b815260040160405180910390fd5b80546001600160401b03908116146100f95780546001600160401b0319166001600160401b0390811782556040519081527fc7f505b2f371ae2175ee4913f4499e1f2633a7b5936321eed1cdaeb6115181d29060200160405180910390a15b50565b634e487b7160e01b600052601160045260246000fd5b60008261012f57634e487b7160e01b600052601260045260246000fd5b500490565b80820180821115610147576101476100fc565b92915050565b8082028115828204841417610147576101476100fc565b608051613bfa61018d60003960008181611ae501528181611b0e0152611c520152613bfa6000f3fe6080604052600436106102045760003560e01c80636751783711610118578063a217fddf116100a0578063d547741f1161006f578063d547741f14610627578063dd9ea29914610647578063e579fa2b1461065c578063f23a6e6114610689578063ffd55332146106cf57600080fd5b8063a217fddf1461057a578063ad3cb1cc1461058f578063c13819b6146105cd578063cbd90cd0146105fa57600080fd5b8063986be0e2116100e7578063986be0e2146104da5780639c79a31c146104fa5780639d07861c1461051a5780639d6a54cb1461053a5780639f401f581461055a57600080fd5b80636751783714610465578063788c2ecf1461047a57806391d148541461049a57806391f69b7d146104ba57600080fd5b806336568abe1161019b5780634f1ef2861161016a5780634f1ef286146103f057806352d1902d146104035780635362485e146104185780635c975abb1461042b57806363d8882a1461045057600080fd5b806336568abe14610340578063381175f61461036057806342a82b4f1461039c578063433f6c12146103bc57600080fd5b8063232c1c8a116101d7578063232c1c8a146102b3578063248a9ca3146102e057806326fc02dd146103005780632f2ff15d1461032057600080fd5b806301ffc9a714610209578063021919801461023e5780630c0b59b914610255578063219cd26314610297575b600080fd5b34801561021557600080fd5b50610229610224366004612fea565b6106e2565b60405190151581526020015b60405180910390f35b34801561024a57600080fd5b50610253610719565b005b34801561026157600080fd5b506102897fe5002bd16ffc71462a6c1c19eaf55e254c97864c770378b6f68c1a085231514a81565b604051908152602001610235565b3480156102a357600080fd5b5060405160008152602001610235565b3480156102bf57600080fd5b506102d36102ce3660046130ea565b61072f565b6040516102359190613126565b3480156102ec57600080fd5b506102896102fb366004613193565b61084e565b34801561030c57600080fd5b5061025361031b3660046131c1565b610870565b34801561032c57600080fd5b5061025361033b3660046131fc565b61092e565b34801561034c57600080fd5b5061025361035b3660046131fc565b610950565b34801561036c57600080fd5b5061038061037b36600461322c565b610988565b60408051921515835263ffffffff909116602083015201610235565b3480156103a857600080fd5b506102536103b7366004613271565b610aa3565b3480156103c857600080fd5b506102897f738128fe393bef1bcd8a524796fff40618b938cd467c71fcf37850ab0ba4f7d781565b6102536103fe366004613381565b610dfe565b34801561040f57600080fd5b50610289610e1d565b61025361042636600461342c565b610e3a565b34801561043757600080fd5b50600080516020613ba58339815191525460ff16610229565b34801561045c57600080fd5b50610253610f82565b34801561047157600080fd5b50610289610f95565b34801561048657600080fd5b5061025361049536600461347c565b610fac565b3480156104a657600080fd5b506102296104b53660046131fc565b611007565b3480156104c657600080fd5b506102536104d53660046134fc565b61103f565b3480156104e657600080fd5b506102896104f5366004613193565b611144565b34801561050657600080fd5b50610253610515366004613564565b611175565b34801561052657600080fd5b50610229610535366004613607565b6112d8565b34801561054657600080fd5b5061025361055536600461366c565b6113d5565b34801561056657600080fd5b5061025361057536600461347c565b6114b8565b34801561058657600080fd5b50610289600081565b34801561059b57600080fd5b506105c0604051806040016040528060058152602001640352e302e360dc1b81525081565b604051610235919061375d565b3480156105d957600080fd5b506105ed6105e8366004613193565b611553565b6040516102359190613770565b34801561060657600080fd5b5061061a61061536600461379c565b6115d5565b60405161023591906137cd565b34801561063357600080fd5b506102536106423660046131fc565b611678565b34801561065357600080fd5b50610289611694565b34801561066857600080fd5b50610289610677366004613193565b60076020526000908152604090205481565b34801561069557600080fd5b506106b66106a4366004613818565b63f23a6e6160e01b9695505050505050565b6040516001600160e01b03199091168152602001610235565b6102536106dd366004613193565b6116a6565b60006001600160e01b03198216637965db0b60e01b148061071357506301ffc9a760e01b6001600160e01b03198316145b92915050565b6000610724816116dd565b61072c6116e7565b50565b6060600082516001600160401b0381111561074c5761074c613014565b60405190808252806020026020018201604052801561079757816020015b604080516060810182526000808252602080830182905292820152825260001990920191018161076a5790505b50905060005b83518110156108475760096000018482815181106107bd576107bd6138c3565b6020026020010151815481106107d5576107d56138c3565b60009182526020918290206040805160608101825260029390930290910180548352600101546001600160a01b03811693830193909352600160a01b90920460ff161515918101919091528251839083908110610834576108346138c3565b602090810291909101015260010161079d565b5092915050565b6000908152600080516020613b85833981519152602052604090206001015490565b61087861174a565b80600003610899576040516394fe88d960e01b815260040160405180910390fd5b60408051602081018252600081529051637921219560e11b81526001600160a01b0386169163f242432a916108d9913391309188918891906004016138d9565b600060405180830381600087803b1580156108f357600080fd5b505af1158015610907573d6000803e3d6000fd5b5050505060006109196003868561177d565b9050610927338583856117b7565b5050505050565b6109378261084e565b610940816116dd565b61094a8383611960565b50505050565b6001600160a01b03811633146109795760405163334bd91960e11b815260040160405180910390fd5b6109838282611a05565b505050565b6000808085600381111561099e5761099e6137b7565b036109af5750600190506000610a9b565b6001600160a01b0384166109d65760405163dc2e5e8d60e01b815260040160405180910390fd5b60018560038111156109ea576109ea6137b7565b03610a21576001600160a01b03841660009081526001602052604090205463ffffffff168015610a1f57600192509050610a9b565b505b6002856003811115610a3557610a356137b7565b1480610a5257506003856003811115610a5057610a506137b7565b145b15610a94576001600160a01b038416600090815260026020908152604080832086845290915290205463ffffffff168015610a9257600192509050610a9b565b505b5060009050805b935093915050565b7ff0c57e16840df040f15088dc2f81fe391c3923bec73e23a9662efc9c229c6a008054600160401b810460ff1615906001600160401b0316600081158015610ae85750825b90506000826001600160401b03166001148015610b045750303b155b905081158015610b12575080155b15610b305760405163f92ee8a960e01b815260040160405180910390fd5b845467ffffffffffffffff191660011785558315610b5a57845460ff60401b1916600160401b1785555b6001600160a01b038c16610b8157604051639fabe1c160e01b815260040160405180910390fd5b6001600160a01b038b16610ba857604051639fabe1c160e01b815260040160405180910390fd5b6001600160a01b038a16610bcf57604051639fabe1c160e01b815260040160405180910390fd5b6001600160a01b038916610bf657604051639fabe1c160e01b815260040160405180910390fd5b6001600160a01b038816610c1d57604051639fabe1c160e01b815260040160405180910390fd5b6001600160a01b038716610c4457604051639fabe1c160e01b815260040160405180910390fd5b610c4f60008d611960565b50610c7a7fe5002bd16ffc71462a6c1c19eaf55e254c97864c770378b6f68c1a085231514a89611960565b50610ca57f738128fe393bef1bcd8a524796fff40618b938cd467c71fcf37850ab0ba4f7d78a611960565b50610cae611a81565b610cb6611a81565b610cbf86611a89565b6040805160608101825260008082526020820181815292820181815260098054600180820183559190935292517f6e1540171b6c0c960b71a7020d9f60077f6af931a8bbf590da0223dacf75c7af60029093029283015592517f6e1540171b6c0c960b71a7020d9f60077f6af931a8bbf590da0223dacf75c7b0909101805493511515600160a01b026001600160a81b03199094166001600160a01b039092169190911792909217909155600a55600480546001600160a01b03808e166001600160a01b031992831617909255600580548a841690831617905560068054928d16929091169190911790558315610df057845460ff60401b19168555604051600181527fc7f505b2f371ae2175ee4913f4499e1f2633a7b5936321eed1cdaeb6115181d29060200160405180910390a15b505050505050505050505050565b610e06611ada565b610e0f82611b7f565b610e198282611b8a565b5050565b6000610e27611c47565b50600080516020613b6583398151915290565b7fe5002bd16ffc71462a6c1c19eaf55e254c97864c770378b6f68c1a085231514a610e64816116dd565b6000610e7260098686611c90565b9050600063f03efa3760e01b8683604051602401610e9192919061391e565b60408051601f198184030181529190526020810180516001600160e01b03166001600160e01b0319909316929092179091526004546006549192506001600160a01b0390811691635f7b15779134911660008589610eec3390565b6040518763ffffffff1660e01b8152600401610f0c95949392919061396d565b6000604051808303818588803b158015610f2557600080fd5b505af1158015610f39573d6000803e3d6000fd5b5050505050857f2f41e147f23b2fb60bd8f0c0f016c37b7eeff712415ba8c2d60f846be3b098e6868684604051610f72939291906139b6565b60405180910390a2505050505050565b6000610f8d816116dd565b61072c611f7d565b600a54600090610fa790600190613a20565b905090565b610fb461174a565b80600003610fd5576040516394fe88d960e01b815260040160405180910390fd5b610fea6001600160a01b038416333084611fc3565b6000610ff9600185600061177d565b905061094a338483856117b7565b6000918252600080516020613b85833981519152602090815260408084206001600160a01b0393909316845291905290205460ff1690565b60005b8181101561098357600083838381811061105e5761105e6138c3565b9050608002018036038101906110749190613a33565b905060006110818261202a565b600081815260076020526040812054919250036110b957604051630181cdef60e61b8152600481018290526024015b60405180910390fd5b60006110c883602001516115d5565b90506007600083815260200190815260200160002060009055611102816000015182602001518560000151866040015185604001516120a7565b825160405183916001600160a01b0316907f0575467d13f5ab9174f470cec96623374b05cf4b19a3c83a4bfca523e243ab0490600090a3505050600101611042565b60006009600001828154811061115c5761115c6138c3565b9060005260206000209060020201600001549050919050565b818160006009600001838154811061118f5761118f6138c3565b60009182526020918290206040805160608101825260029390930290910180548352600101546001600160a01b038116938301849052600160a01b900460ff16151590820152915033146111f657604051631165d41f60e31b815260040160405180910390fd5b60006112018361222d565b82519091508114611232578151604051633df112db60e11b81526004810191909152602481018290526044016110b0565b61123a610f95565b84116112625781604001516112625760405163190dc43560e21b815260040160405180910390fd5b600061126f6009886122ab565b9050600061128087606001516115d5565b90506112a38160000151826020015184602001518a6040015185604001516120a7565b60405188907f0c1c0787650562778c282502dfd6dcea2fb79d23783920aa18aee36b4aa3dc4890600090a25050505050505050565b600080600960000188815481106112f1576112f16138c3565b60009182526020808320604080516060808201835260029590950290920180548352600101546001600160a01b0380821684860152600160a01b90910460ff16151583830152815160a08101835290891681529283018c9052820189905263ffffffff8a169282019290925286151560808201529092506113719061222d565b82519091508114611387576000925050506113cb565b836001600160a01b031682602001516001600160a01b0316146113af576000925050506113cb565b8160400151156113c4576000925050506113cb565b6001925050505b9695505050505050565b6004546001600160a01b03163381146114015760405163d8844f1560e01b815260040160405180910390fd5b6114877f738128fe393bef1bcd8a524796fff40618b938cd467c71fcf37850ab0ba4f7d7826001600160a01b0316636e296e456040518163ffffffff1660e01b8152600401602060405180830381865afa158015611463573d6000803e3d6000fd5b505050506040513d601f19601f820116820180604052508101906104b59190613aa7565b6114a457604051634261081360e11b815260040160405180910390fd5b6114ae8585612368565b6109278383612441565b6114c061174a565b6001600160a01b0383166323b872dd336040516001600160e01b031960e084901b1681526001600160a01b03909116600482015230602482015260448101849052606401600060405180830381600087803b15801561151e57600080fd5b505af1158015611532573d6000803e3d6000fd5b5050505060006115446002858461177d565b905061094a33848360016117b7565b60408051606081018252600080825260208201819052918101919091526009805483908110611584576115846138c3565b60009182526020918290206040805160608101825260029390930290910180548352600101546001600160a01b03811693830193909352600160a01b90920460ff1615159181019190915292915050565b604080516060810182526000808252602082018190529181019190915260008263ffffffff168154811061160b5761160b6138c3565b6000918252602090912060408051606081019091526002909202018054829060ff16600381111561163e5761163e6137b7565b600381111561164f5761164f6137b7565b8152815461010090046001600160a01b0316602082015260019091015460409091015292915050565b6116818261084e565b61168a816116dd565b61094a8383611a05565b600954600090610fa790600190613a20565b6116ae61174a565b346000036116cf576040516394fe88d960e01b815260040160405180910390fd5b6000610e19338383346117b7565b61072c813361252d565b6116ef61174a565b600080516020613ba5833981519152805460ff191660011781557f62e78cea01bee320cd4e420270b5ea74000d11b0c9f74754ebdbfc544b05a258335b6040516001600160a01b03909116815260200160405180910390a150565b600080516020613ba58339815191525460ff161561177b5760405163d93c066560e01b815260040160405180910390fd5b565b600080600061178d868686610988565b9150915081156117a05791506117b09050565b6117ab868686612566565b925050505b9392505050565b60006117c38342612728565b9050808211156117f05760405163539163e160e01b815260048101839052602481018290526044016110b0565b60006001905060006118386040518060a00160405280896001600160a01b031681526020018881526020018681526020018763ffffffff16815260200184151581525061222d565b60008181526008602052604090205490915060ff161561186e5760405163bff0e9e760e01b8152600481018290526024016110b0565b6000818152600860205260408120805460ff191660011790556118ff6009838a8254604080516060810182529384526001600160a01b03928316602080860191825260009286018381526001808601895597845292209451600284029095019485555193909401805494511515600160a01b026001600160a81b031990951693909216929092179290921790915590565b6040805163ffffffff89168152602081018890524281830152905191925088916001600160a01b038b169184917f1e88950eef3c1bd8dd83d765aec1f21f34ca153104f0acd7a6218bf8f48e84109181900360600190a45050505050505050565b6000600080516020613b8583398151915261197b8484611007565b6119fb576000848152602082815260408083206001600160a01b03871684529091529020805460ff191660011790556119b13390565b6001600160a01b0316836001600160a01b0316857f2f8788117e7eff1d82e926ec794901d17c78024a50270940304540a733656f0d60405160405180910390a46001915050610713565b6000915050610713565b6000600080516020613b85833981519152611a208484611007565b156119fb576000848152602082815260408083206001600160a01b0387168085529252808320805460ff1916905551339287917ff6391f5c32d9c69d2a47ea670b442974b53935d1edc7fd64eb21e047a839171b9190a46001915050610713565b61177b612a6c565b611a91612a6c565b611a9e6000806000612566565b5060005b8151811015610e1957611ad16001838381518110611ac257611ac26138c3565b60200260200101516000612566565b50600101611aa2565b306001600160a01b037f0000000000000000000000000000000000000000000000000000000000000000161480611b6157507f00000000000000000000000000000000000000000000000000000000000000006001600160a01b0316611b55600080516020613b65833981519152546001600160a01b031690565b6001600160a01b031614155b1561177b5760405163703e46dd60e11b815260040160405180910390fd5b6000610e19816116dd565b816001600160a01b03166352d1902d6040518163ffffffff1660e01b8152600401602060405180830381865afa925050508015611be4575060408051601f3d908101601f19168201909252611be191810190613ac4565b60015b611c0c57604051634c9c8ce360e01b81526001600160a01b03831660048201526024016110b0565b600080516020613b658339815191528114611c3d57604051632a87526960e21b8152600481018290526024016110b0565b6109838383612ab5565b306001600160a01b037f0000000000000000000000000000000000000000000000000000000000000000161461177b5760405163703e46dd60e11b815260040160405180910390fd5b600183015483546060919084101580611ca857508084105b15611ce957845484908290611cbf90600190613a20565b604051631da02a9b60e11b81526004810193909352602483019190915260448201526064016110b0565b60005b8351811015611d9c576000848281518110611d0957611d096138c3565b6020026020010151905085811180611d2057508281105b15611d4f57604051639e16c3b960e01b81526004810182905260248101849052604481018790526064016110b0565b6001876000018281548110611d6657611d666138c3565b906000526020600020906002020160010160146101000a81548160ff021916908315150217905550508080600101915050611cec565b506000815b858111611e39578654600090889083908110611dbf57611dbf6138c3565b60009182526020909120600160029092020101546001600160a01b031614611e2757866000018181548110611df657611df66138c3565b906000526020600020906002020160010160149054906101000a900460ff16611e275781611e2381613add565b9250505b80611e3181613add565b915050611da1565b506000816001600160401b03811115611e5457611e54613014565b604051908082528060200260200182016040528015611e7d578160200160208202803683370190505b5090506000835b878111611f605788546000908a9083908110611ea257611ea26138c3565b60009182526020909120600160029092020101546001600160a01b031614611f4e57886000018181548110611ed957611ed96138c3565b906000526020600020906002020160010160149054906101000a900460ff16611f4e57886000018181548110611f1157611f116138c3565b906000526020600020906002020160000154838381518110611f3557611f356138c3565b602090810291909101015281611f4a81613add565b9250505b80611f5881613add565b915050611e84565b50611f6c876001613af6565b600189015550925050509392505050565b611f85612b0b565b600080516020613ba5833981519152805460ff191681557f5db9ee0a495bf2e6ff9c91a7834c1ba4fdd244a5e8aa4e537bd38aeae4b073aa3361172c565b6040516001600160a01b03848116602483015283811660448301526064820183905261094a9186918216906323b872dd906084015b604051602081830303815290604052915060e01b6020820180516001600160e01b038381831617835250505050612b3b565b6000816000015182602001518360400151846060015160405160200161208a949392919060609490941b6bffffffffffffffffffffffff1916845260e09290921b6001600160e01b03191660148401526018830152603882015260580190565b604051602081830303815290604052805190602001209050919050565b60008560038111156120bb576120bb6137b7565b036120fc576040516001600160a01b0384169083156108fc029084906000818181858888f193505050501580156120f6573d6000803e3d6000fd5b50610927565b6001856003811115612110576121106137b7565b0361212e576121296001600160a01b0385168484612bac565b610927565b6002856003811115612142576121426137b7565b036121b4576040516323b872dd60e01b81523060048201526001600160a01b038481166024830152604482018390528516906323b872dd90606401600060405180830381600087803b15801561219757600080fd5b505af11580156121ab573d6000803e3d6000fd5b50505050610927565b60408051602081018252600081529051637921219560e11b81526001600160a01b0386169163f242432a916121f4913091889187918991906004016138d9565b600060405180830381600087803b15801561220e57600080fd5b505af1158015612222573d6000803e3d6000fd5b505050505050505050565b600081600001518260200151836040015184606001518560800151612253576000612256565b60015b60405160609590951b6bffffffffffffffffffffffff191660208601526034850193909352605484019190915260e090811b6001600160e01b03191660748401521b60ff60e01b166078820152607c0161208a565b60408051606081018252600080825260208201819052918101919091528260000182815481106122dd576122dd6138c3565b60009182526020918290206040805160608101825260029390930290910180548352600101546001600160a01b03811693830193909352600160a01b90920460ff16151591810191909152835490915083908390811061233f5761233f6138c3565b60009182526020822060029091020190815560010180546001600160a81b031916905592915050565b60005b818110156123ab576123a3838383818110612388576123886138c3565b90506080020180360381019061239e9190613a33565b612bdd565b60010161236b565b508015610e195760055460405163f099f9f560e01b81527ff00e60aabbc167f41684e8d81677229edbc0f1876ae2c1ded0a60367465292ab6004820152326024820152604481018390526001600160a01b039091169063f099f9f5906064015b600060405180830381600087803b15801561242557600080fd5b505af1158015612439573d6000803e3d6000fd5b505050505050565b60005b818110156124c9574260076000858585818110612463576124636138c3565b9050602002013581526020019081526020016000208190555082828281811061248e5761248e6138c3565b905060200201357fd63a18c6858559d79659151118b33c6ad7cf4f7735b64fe9dbd85c509e11a11760405160405180910390a2600101612444565b508015610e195760055460405163f099f9f560e01b81527f25146e2fbfab3f988e64e94788d256b87c4fa8691f43ec409c49b57436cb7ee66004820152326024820152604481018390526001600160a01b039091169063f099f9f59060640161240b565b6125378282611007565b610e195760405163e2517d3f60e01b81526001600160a01b0382166004820152602481018390526044016110b0565b60008054604080516060810190915282908087600381111561258a5761258a6137b7565b81526001600160a01b038716602080830191909152604090910186905282546001818101855560009485529190932082516002909402018054929390929091839160ff1916908360038111156125e2576125e26137b7565b0217905550602082015181546001600160a01b0390911661010002610100600160a81b0319909116178155604090910151600190910155600085600381111561262d5761262d6137b7565b03612676576000805260016020527fa6eef7e35abe7026729641147f7915573c7e97b47efa546f5f6e3230263bcb49805463ffffffff191663ffffffff831617905590506117b0565b6001600160a01b03841661269d5760405163dc2e5e8d60e01b815260040160405180910390fd5b60018560038111156126b1576126b16137b7565b036126e8576001600160a01b0384166000908152600160205260409020805463ffffffff191663ffffffff831617905590506117b0565b6001600160a01b0393909316600090815260026020908152604080832094835293905291909120805463ffffffff191663ffffffff841617905550919050565b600060028363ffffffff1611156127525760405163609f982f60e01b815260040160405180910390fd5b8142101561279a5763ffffffff83166127745750678ac7230489e80000610713565b60001963ffffffff84160161278e57506302faf080610713565b50640ba43b7400610713565b6000620151806127aa8442613a20565b6127b49190613b09565b90506104fd81106127ca57600019915050610713565b600061044782106127dd57506006612835565b61039182106127ee57506005612835565b6102da82106127ff57506004612835565b610224821061281057506003612835565b61016d821061282157506002612835565b60b7821061283157506001612835565b5060005b63ffffffff8516612908578060ff1660000361285d57678ac7230489e8000092505050610713565b8060ff1660010361287b576802b5e3af16b188000092505050610713565b8060ff166002036128995768056bc75e2d6310000092505050610713565b8060ff166003036128b757681b1ae4d6e2ef50000092505050610713565b8060ff166004036128d557683635c9adc5dea0000092505050610713565b8060ff166005036128f45769010f0cf064dd5920000092505050610713565b69021e19e0c9bab240000092505050610713565b60001963ffffffff8616016129be578060ff16600003612930576302faf08092505050610713565b8060ff16600103612949576305f5e10092505050610713565b8060ff1660020361296257631dcd650092505050610713565b8060ff1660030361297b57633b9aca0092505050610713565b8060ff166004036129955764012a05f20092505050610713565b8060ff166005036129af576402540be40092505050610713565b640ba43b740092505050610713565b8060ff166000036129d857640ba43b740092505050610713565b8060ff166001036129f25764174876e80092505050610713565b8060ff16600203612a0c5764746a52880092505050610713565b8060ff16600303612a265764e8d4a5100092505050610713565b8060ff16600403612a415765048c2739500092505050610713565b8060ff16600503612a5c576509184e72a00092505050610713565b652d79883d200092505050610713565b7ff0c57e16840df040f15088dc2f81fe391c3923bec73e23a9662efc9c229c6a0054600160401b900460ff1661177b57604051631afcd79f60e31b815260040160405180910390fd5b612abe82612dc8565b6040516001600160a01b038316907fbc7cd75a20ee27fd9adebab32041f755214dbc6bffa90cc0225b39da2e5c2d3b90600090a2805115612b03576109838282612e2d565b610e19612ea3565b600080516020613ba58339815191525460ff1661177b57604051638dfc202b60e01b815260040160405180910390fd5b600080602060008451602086016000885af180612b5e576040513d6000823e3d81fd5b50506000513d91508115612b76578060011415612b83565b6001600160a01b0384163b155b1561094a57604051635274afe760e01b81526001600160a01b03851660048201526024016110b0565b6040516001600160a01b0383811660248301526044820183905261098391859182169063a9059cbb90606401611ff8565b6000612bec82602001516115d5565b90506001600082516003811115612c0557612c056137b7565b03612c3d57825160408085015190516000926001600160a01b03169180156108fc029184818181858888f19550612cc1945050505050565b600182516003811115612c5257612c526137b7565b03612cbd57825160408085015181516001600160a01b03938416602482015260448082019290925282518082039092018252606401909152602080820180516001600160e01b031663a9059cbb60e01b1790528401519091612cb5911682612ec2565b915050612cc1565b5060005b8015612d095782516001600160a01b0316612cdb8461202a565b6040517f6a65a945f1306f9bb3d4e3ce63aa367de6976a375de002492404554392c2460e90600090a3505050565b6000612d148461202a565b600081815260076020526040908190204290555190915081907fedf8120f63daf877f6cb9aa7a3e21724c4532681d4afd77a45561904f1a0459990612d8f90879081516001600160a01b0316815260208083015163ffffffff1690820152604080830151908201526060918201519181019190915260800190565b60405180910390a260405181907fd63a18c6858559d79659151118b33c6ad7cf4f7735b64fe9dbd85c509e11a11790600090a250505050565b806001600160a01b03163b600003612dfe57604051634c9c8ce360e01b81526001600160a01b03821660048201526024016110b0565b600080516020613b6583398151915280546001600160a01b0319166001600160a01b0392909216919091179055565b6060600080846001600160a01b031684604051612e4a9190613b2b565b600060405180830381855af49150503d8060008114612e85576040519150601f19603f3d011682016040523d82523d6000602084013e612e8a565b606091505b5091509150612e9a858383612f65565b95945050505050565b341561177b5760405163b398979f60e01b815260040160405180910390fd5b6000806000846001600160a01b031684604051612edf9190613b2b565b6000604051808303816000865af19150503d8060008114612f1c576040519150601f19603f3d011682016040523d82523d6000602084013e612f21565b606091505b5091509150818015612f4b575080511580612f4b575080806020019051810190612f4b9190613b47565b8015612e9a5750505050506001600160a01b03163b151590565b606082612f7a57612f7582612fc1565b6117b0565b8151158015612f9157506001600160a01b0384163b155b15612fba57604051639996b31560e01b81526001600160a01b03851660048201526024016110b0565b50806117b0565b805115612fd15780518082602001fd5b60405163d6bda27560e01b815260040160405180910390fd5b600060208284031215612ffc57600080fd5b81356001600160e01b0319811681146117b057600080fd5b634e487b7160e01b600052604160045260246000fd5b604051601f8201601f191681016001600160401b038111828210171561305257613052613014565b604052919050565b60006001600160401b0382111561307357613073613014565b5060051b60200190565b600082601f83011261308e57600080fd5b81356130a161309c8261305a565b61302a565b8082825260208201915060208360051b8601019250858311156130c357600080fd5b602085015b838110156130e05780358352602092830192016130c8565b5095945050505050565b6000602082840312156130fc57600080fd5b81356001600160401b0381111561311257600080fd5b61311e8482850161307d565b949350505050565b602080825282518282018190526000918401906040840190835b8181101561318857613172838551805182526020808201516001600160a01b0316908301526040908101511515910152565b6020939093019260609290920191600101613140565b509095945050505050565b6000602082840312156131a557600080fd5b5035919050565b6001600160a01b038116811461072c57600080fd5b600080600080608085870312156131d757600080fd5b84356131e2816131ac565b966020860135965060408601359560600135945092505050565b6000806040838503121561320f57600080fd5b823591506020830135613221816131ac565b809150509250929050565b60008060006060848603121561324157600080fd5b83356004811061325057600080fd5b92506020840135613260816131ac565b929592945050506040919091013590565b600080600080600080600060e0888a03121561328c57600080fd5b8735613297816131ac565b965060208801356132a7816131ac565b955060408801356132b7816131ac565b945060608801356132c7816131ac565b935060808801356132d7816131ac565b925060a08801356132e7816131ac565b915060c08801356001600160401b0381111561330257600080fd5b8801601f81018a1361331357600080fd5b803561332161309c8261305a565b8082825260208201915060208360051b85010192508c83111561334357600080fd5b6020840193505b8284101561336e57833561335d816131ac565b82526020938401939091019061334a565b8094505050505092959891949750929550565b6000806040838503121561339457600080fd5b823561339f816131ac565b915060208301356001600160401b038111156133ba57600080fd5b8301601f810185136133cb57600080fd5b80356001600160401b038111156133e4576133e4613014565b6133f7601f8201601f191660200161302a565b81815286602083850101111561340c57600080fd5b816020840160208301376000602083830101528093505050509250929050565b60008060006060848603121561344157600080fd5b8335925060208401356001600160401b0381111561345e57600080fd5b61346a8682870161307d565b93969395505050506040919091013590565b60008060006060848603121561349157600080fd5b833561349c816131ac565b95602085013595506040909401359392505050565b60008083601f8401126134c357600080fd5b5081356001600160401b038111156134da57600080fd5b6020830191508360208260071b85010111156134f557600080fd5b9250929050565b6000806020838503121561350f57600080fd5b82356001600160401b0381111561352557600080fd5b613531858286016134b1565b90969095509350505050565b803563ffffffff8116811461355157600080fd5b919050565b801515811461072c57600080fd5b60008082840360c081121561357857600080fd5b8335925060a0601f198201121561358e57600080fd5b5060405160a081016001600160401b03811182821017156135b1576135b1613014565b60405260208401356135c2816131ac565b815260408481013560208301526060850135908201526135e46080850161353d565b606082015260a08401356135f781613556565b6080820152919491935090915050565b60008060008060008060c0878903121561362057600080fd5b86359550602087013594506136376040880161353d565b935060608701359250608087013561364e81613556565b915060a087013561365e816131ac565b809150509295509295509295565b6000806000806040858703121561368257600080fd5b84356001600160401b0381111561369857600080fd5b6136a4878288016134b1565b90955093505060208501356001600160401b038111156136c357600080fd5b8501601f810187136136d457600080fd5b80356001600160401b038111156136ea57600080fd5b8760208260051b84010111156136ff57600080fd5b949793965060200194505050565b60005b83811015613728578181015183820152602001613710565b50506000910152565b6000815180845261374981602086016020860161370d565b601f01601f19169290920160200192915050565b6020815260006117b06020830184613731565b815181526020808301516001600160a01b03169082015260408083015115159082015260608101610713565b6000602082840312156137ae57600080fd5b6117b08261353d565b634e487b7160e01b600052602160045260246000fd5b81516060820190600481106137f257634e487b7160e01b600052602160045260246000fd5b82526020838101516001600160a01b031690830152604092830151929091019190915290565b60008060008060008060a0878903121561383157600080fd5b863561383c816131ac565b9550602087013561384c816131ac565b9450604087013593506060870135925060808701356001600160401b0381111561387557600080fd5b8701601f8101891361388657600080fd5b80356001600160401b0381111561389c57600080fd5b8960208284010111156138ae57600080fd5b60208201935080925050509295509295509295565b634e487b7160e01b600052603260045260246000fd5b6001600160a01b03868116825285166020820152604081018490526060810183905260a06080820181905260009061391390830184613731565b979650505050505050565b6000604082018483526040602084015280845180835260608501915060208601925060005b81811015613961578351835260209384019390920191600101613943565b50909695505050505050565b60018060a01b038616815284602082015260a06040820152600061399460a0830186613731565b6060830194909452506001600160a01b03919091166080909101529392505050565b6060808252845190820181905260009060208601906080840190835b818110156139f05783518352602093840193909201916001016139d2565b505085602085015283810360408501526139138186613731565b634e487b7160e01b600052601160045260246000fd5b8181038181111561071357610713613a0a565b60006080828403128015613a4657600080fd5b50604051608081016001600160401b0381118282101715613a6957613a69613014565b6040528235613a77816131ac565b8152613a856020840161353d565b6020820152604083810135908201526060928301359281019290925250919050565b600060208284031215613ab957600080fd5b81516117b0816131ac565b600060208284031215613ad657600080fd5b5051919050565b600060018201613aef57613aef613a0a565b5060010190565b8082018082111561071357610713613a0a565b600082613b2657634e487b7160e01b600052601260045260246000fd5b500490565b60008251613b3d81846020870161370d565b9190910192915050565b600060208284031215613b5957600080fd5b81516117b08161355656fe360894a13ba1a3210667c828492db98dca3e2076cc3735a920a3ca505d382bbc02dd7bc7dec4dceedda775e58dd541e08a116c6c53815c0bd028192f7b626800cd5ed15c6e187e77e9aee88184c21f4f2182ab5827cb3b7e07fbedcd63f03300a264697066735822122056be9ed55eea359c1b5ea5bd805c1772f8197b9fc588d6462f5ed401d1adee8f64736f6c634300081b0033",
  "linkReferences": {},
  "deployedLinkReferences": {}
}