{
  "_format": "hh-sol-artifact-1",
  "contractName": "Rollup",
  "sourceName": "contracts/rollup/Rollup.sol",
  "abi": [
    {
      "inputs": [],
      "stateMutability": "nonpayable",
      "type": "constructor"
    },
    {
      "inputs": [
        {
          "internalType": "address",
          "name": "target",
          "type": "address"
        }
      ],
      "name": "AddressEmptyCode",
      "type": "error"
    },
    {
      "inputs": [],
      "name": "AddressZero",
      "type": "error"
    },
    {
      "inputs": [],
      "name": "BlockNumberOutOfRange",
      "type": "error"
    },
    {
      "inputs": [
        {
          "internalType": "address",
          "name": "implementation",
          "type": "address"
        }
      ],
      "name": "ERC1967InvalidImplementation",
      "type": "error"
    },
    {
      "inputs": [],
      "name": "ERC1967NonPayable",
      "type": "error"
    },
    {
      "inputs": [],
      "name": "Expired",
      "type": "error"
    },
    {
      "inputs": [],
      "name": "FailedCall",
      "type": "error"
    },
    {
      "inputs": [],
      "name": "InsufficientPenaltyFee",
      "type": "error"
    },
    {
      "inputs": [],
      "name": "InvalidInitialization",
      "type": "error"
    },
    {
      "inputs": [],
      "name": "MerkleTreeFull",
      "type": "error"
    },
    {
      "inputs": [],
      "name": "NotInitializing",
      "type": "error"
    },
    {
      "inputs": [],
      "name": "OnlyLiquidity",
      "type": "error"
    },
    {
      "inputs": [],
      "name": "OnlyScrollMessenger",
      "type": "error"
    },
    {
      "inputs": [
        {
          "internalType": "address",
          "name": "owner",
          "type": "address"
        }
      ],
      "name": "OwnableInvalidOwner",
      "type": "error"
    },
    {
      "inputs": [
        {
          "internalType": "address",
          "name": "account",
          "type": "address"
        }
      ],
      "name": "OwnableUnauthorizedAccount",
      "type": "error"
    },
    {
      "inputs": [
        {
          "internalType": "uint256",
          "name": "x",
          "type": "uint256"
        },
        {
          "internalType": "uint256",
          "name": "y",
          "type": "uint256"
        }
      ],
      "name": "PRBMath_MulDiv18_Overflow",
      "type": "error"
    },
    {
      "inputs": [
        {
          "internalType": "uint256",
          "name": "x",
          "type": "uint256"
        }
      ],
      "name": "PRBMath_UD60x18_Convert_Overflow",
      "type": "error"
    },
    {
      "inputs": [],
      "name": "PairingCheckFailed",
      "type": "error"
    },
    {
      "inputs": [],
      "name": "PairingOpCodeFailed",
      "type": "error"
    },
    {
      "inputs": [],
      "name": "SenderAccountIdsInvalidLength",
      "type": "error"
    },
    {
      "inputs": [],
      "name": "TooManyAccountIds",
      "type": "error"
    },
    {
      "inputs": [],
      "name": "TooManySenderPublicKeys",
      "type": "error"
    },
    {
      "inputs": [],
      "name": "UUPSUnauthorizedCallContext",
      "type": "error"
    },
    {
      "inputs": [
        {
          "internalType": "bytes32",
          "name": "slot",
          "type": "bytes32"
        }
      ],
      "name": "UUPSUnsupportedProxiableUUID",
      "type": "error"
    },
    {
      "anonymous": false,
      "inputs": [
        {
          "indexed": true,
          "internalType": "bytes32",
          "name": "prevBlockHash",
          "type": "bytes32"
        },
        {
          "indexed": true,
          "internalType": "address",
          "name": "blockBuilder",
          "type": "address"
        },
        {
          "indexed": false,
          "internalType": "uint64",
          "name": "timestamp",
          "type": "uint64"
        },
        {
          "indexed": false,
          "internalType": "uint256",
          "name": "blockNumber",
          "type": "uint256"
        },
        {
          "indexed": false,
          "internalType": "bytes32",
          "name": "depositTreeRoot",
          "type": "bytes32"
        },
        {
          "indexed": false,
          "internalType": "bytes32",
          "name": "signatureHash",
          "type": "bytes32"
        }
      ],
      "name": "BlockPosted",
      "type": "event"
    },
    {
      "anonymous": false,
      "inputs": [
        {
          "indexed": true,
          "internalType": "uint32",
          "name": "depositIndex",
          "type": "uint32"
        },
        {
          "indexed": true,
          "internalType": "bytes32",
          "name": "depositHash",
          "type": "bytes32"
        }
      ],
      "name": "DepositLeafInserted",
      "type": "event"
    },
    {
      "anonymous": false,
      "inputs": [
        {
          "indexed": true,
          "internalType": "uint256",
          "name": "lastProcessedDepositId",
          "type": "uint256"
        },
        {
          "indexed": false,
          "internalType": "bytes32",
          "name": "depositTreeRoot",
          "type": "bytes32"
        }
      ],
      "name": "DepositsProcessed",
      "type": "event"
    },
    {
      "anonymous": false,
      "inputs": [
        {
          "indexed": false,
          "internalType": "uint64",
          "name": "version",
          "type": "uint64"
        }
      ],
      "name": "Initialized",
      "type": "event"
    },
    {
      "anonymous": false,
      "inputs": [
        {
          "indexed": true,
          "internalType": "address",
          "name": "previousOwner",
          "type": "address"
        },
        {
          "indexed": true,
          "internalType": "address",
          "name": "newOwner",
          "type": "address"
        }
      ],
      "name": "OwnershipTransferred",
      "type": "event"
    },
    {
      "anonymous": false,
      "inputs": [
        {
          "indexed": true,
          "internalType": "address",
          "name": "implementation",
          "type": "address"
        }
      ],
      "name": "Upgraded",
      "type": "event"
    },
    {
      "inputs": [],
      "name": "UPGRADE_INTERFACE_VERSION",
      "outputs": [
        {
          "internalType": "string",
          "name": "",
          "type": "string"
        }
      ],
      "stateMutability": "view",
      "type": "function"
    },
    {
      "inputs": [
        {
          "internalType": "uint256",
          "name": "",
          "type": "uint256"
        }
      ],
      "name": "blockBuilders",
      "outputs": [
        {
          "internalType": "address",
          "name": "",
          "type": "address"
        }
      ],
      "stateMutability": "view",
      "type": "function"
    },
    {
      "inputs": [
        {
          "internalType": "uint256",
          "name": "",
          "type": "uint256"
        }
      ],
      "name": "blockHashes",
      "outputs": [
        {
          "internalType": "bytes32",
          "name": "",
          "type": "bytes32"
        }
      ],
      "stateMutability": "view",
      "type": "function"
    },
    {
      "inputs": [],
      "name": "depositIndex",
      "outputs": [
        {
          "internalType": "uint32",
          "name": "",
          "type": "uint32"
        }
      ],
      "stateMutability": "view",
      "type": "function"
    },
    {
      "inputs": [],
      "name": "depositTreeRoot",
      "outputs": [
        {
          "internalType": "bytes32",
          "name": "",
          "type": "bytes32"
        }
      ],
      "stateMutability": "view",
      "type": "function"
    },
    {
      "inputs": [
        {
          "internalType": "uint32",
          "name": "blockNumber",
          "type": "uint32"
        }
      ],
      "name": "getBlockBuilder",
      "outputs": [
        {
          "internalType": "address",
          "name": "",
          "type": "address"
        }
      ],
      "stateMutability": "view",
      "type": "function"
    },
    {
      "inputs": [
        {
          "internalType": "uint32",
          "name": "blockNumber",
          "type": "uint32"
        }
      ],
      "name": "getBlockHash",
      "outputs": [
        {
          "internalType": "bytes32",
          "name": "",
          "type": "bytes32"
        }
      ],
      "stateMutability": "view",
      "type": "function"
    },
    {
      "inputs": [],
      "name": "getLatestBlockNumber",
      "outputs": [
        {
          "internalType": "uint32",
          "name": "",
          "type": "uint32"
        }
      ],
      "stateMutability": "view",
      "type": "function"
    },
    {
      "inputs": [
        {
          "internalType": "address",
          "name": "_admin",
          "type": "address"
        },
        {
          "internalType": "address",
          "name": "_scrollMessenger",
          "type": "address"
        },
        {
          "internalType": "address",
          "name": "_liquidity",
          "type": "address"
        },
        {
          "internalType": "address",
          "name": "_contribution",
          "type": "address"
        }
      ],
      "name": "initialize",
      "outputs": [],
      "stateMutability": "nonpayable",
      "type": "function"
    },
    {
      "inputs": [],
      "name": "lastProcessedDepositId",
      "outputs": [
        {
          "internalType": "uint256",
          "name": "",
          "type": "uint256"
        }
      ],
      "stateMutability": "view",
      "type": "function"
    },
    {
      "inputs": [],
      "name": "owner",
      "outputs": [
        {
          "internalType": "address",
          "name": "",
          "type": "address"
        }
      ],
      "stateMutability": "view",
      "type": "function"
    },
    {
      "inputs": [
        {
          "internalType": "bytes32",
          "name": "txTreeRoot",
          "type": "bytes32"
        },
        {
          "internalType": "uint64",
          "name": "expiry",
          "type": "uint64"
        },
        {
          "internalType": "bytes16",
          "name": "senderFlags",
          "type": "bytes16"
        },
        {
          "internalType": "bytes32[2]",
          "name": "aggregatedPublicKey",
          "type": "bytes32[2]"
        },
        {
          "internalType": "bytes32[4]",
          "name": "aggregatedSignature",
          "type": "bytes32[4]"
        },
        {
          "internalType": "bytes32[4]",
          "name": "messagePoint",
          "type": "bytes32[4]"
        },
        {
          "internalType": "bytes32",
          "name": "publicKeysHash",
          "type": "bytes32"
        },
        {
          "internalType": "bytes",
          "name": "senderAccountIds",
          "type": "bytes"
        }
      ],
      "name": "postNonRegistrationBlock",
      "outputs": [],
      "stateMutability": "payable",
      "type": "function"
    },
    {
      "inputs": [
        {
          "internalType": "bytes32",
          "name": "txTreeRoot",
          "type": "bytes32"
        },
        {
          "internalType": "uint64",
          "name": "expiry",
          "type": "uint64"
        },
        {
          "internalType": "bytes16",
          "name": "senderFlags",
          "type": "bytes16"
        },
        {
          "internalType": "bytes32[2]",
          "name": "aggregatedPublicKey",
          "type": "bytes32[2]"
        },
        {
          "internalType": "bytes32[4]",
          "name": "aggregatedSignature",
          "type": "bytes32[4]"
        },
        {
          "internalType": "bytes32[4]",
          "name": "messagePoint",
          "type": "bytes32[4]"
        },
        {
          "internalType": "uint256[]",
          "name": "senderPublicKeys",
          "type": "uint256[]"
        }
      ],
      "name": "postRegistrationBlock",
      "outputs": [],
      "stateMutability": "payable",
      "type": "function"
    },
    {
      "inputs": [
        {
          "internalType": "uint256",
          "name": "_lastProcessedDepositId",
          "type": "uint256"
        },
        {
          "internalType": "bytes32[]",
          "name": "depositHashes",
          "type": "bytes32[]"
        }
      ],
      "name": "processDeposits",
      "outputs": [],
      "stateMutability": "nonpayable",
      "type": "function"
    },
    {
      "inputs": [],
      "name": "proxiableUUID",
      "outputs": [
        {
          "internalType": "bytes32",
          "name": "",
          "type": "bytes32"
        }
      ],
      "stateMutability": "view",
      "type": "function"
    },
    {
      "inputs": [],
      "name": "renounceOwnership",
      "outputs": [],
      "stateMutability": "nonpayable",
      "type": "function"
    },
    {
      "inputs": [
        {
          "internalType": "address",
          "name": "newOwner",
          "type": "address"
        }
      ],
      "name": "transferOwnership",
      "outputs": [],
      "stateMutability": "nonpayable",
      "type": "function"
    },
    {
      "inputs": [
        {
          "internalType": "address",
          "name": "newImplementation",
          "type": "address"
        },
        {
          "internalType": "bytes",
          "name": "data",
          "type": "bytes"
        }
      ],
      "name": "upgradeToAndCall",
      "outputs": [],
      "stateMutability": "payable",
      "type": "function"
    },
    {
      "inputs": [
        {
          "internalType": "address",
          "name": "to",
          "type": "address"
        }
      ],
      "name": "withdrawPenaltyFee",
      "outputs": [],
      "stateMutability": "nonpayable",
      "type": "function"
    }
  ],
  "bytecode": "0x60a06040523060805234801561001457600080fd5b5061001d610022565b6100d4565b7ff0c57e16840df040f15088dc2f81fe391c3923bec73e23a9662efc9c229c6a00805468010000000000000000900460ff16156100725760405163f92ee8a960e01b815260040160405180910390fd5b80546001600160401b03908116146100d15780546001600160401b0319166001600160401b0390811782556040519081527fc7f505b2f371ae2175ee4913f4499e1f2633a7b5936321eed1cdaeb6115181d29060200160405180910390a15b50565b60805161217a6100fd60003960008181610eb801528181610ee10152611022015261217a6000f3fe6080604052600436106101145760003560e01c80637b898939116100a0578063c76c388411610064578063c76c388414610302578063d2b210a114610317578063f03efa3714610337578063f2fde38b14610357578063f8c8765e1461037757600080fd5b80637b89893914610222578063859bac24146102545780638da5cb5b14610267578063ad3cb1cc146102a4578063b568a055146102e257600080fd5b806334cdf78d116100e757806334cdf78d146101af5780634f1ef286146101cf57806352d1902d146101e2578063567419c1146101f7578063715018a61461020d57600080fd5b806306f743c0146101195780631d9a07b91461015657806322bec34e1461017a57806325d89cfd1461018f575b600080fd5b34801561012557600080fd5b5061013961013436600461198e565b610397565b6040516001600160a01b0390911681526020015b60405180910390f35b34801561016257600080fd5b5061016c602a5481565b60405190815260200161014d565b61018d610188366004611a5e565b610401565b005b34801561019b57600080fd5b5061018d6101aa366004611b1a565b610533565b3480156101bb57600080fd5b5061016c6101ca366004611b35565b610574565b61018d6101dd366004611b64565b610595565b3480156101ee57600080fd5b5061016c6105b0565b34801561020357600080fd5b5061016c60015481565b34801561021957600080fd5b5061018d6105cd565b34801561022e57600080fd5b50602b5461023f9063ffffffff1681565b60405163ffffffff909116815260200161014d565b61018d610262366004611c2b565b6105e1565b34801561027357600080fd5b507f9016d09d72d40fdae2fd8ceac6b6234c7706214fd39c1cd1e609a0528c199300546001600160a01b0316610139565b3480156102b057600080fd5b506102d5604051806040016040528060058152602001640352e302e360dc1b81525081565b60405161014d9190611d2f565b3480156102ee57600080fd5b506101396102fd366004611b35565b6107a2565b34801561030e57600080fd5b5061023f6107cc565b34801561032357600080fd5b5061016c61033236600461198e565b6107e8565b34801561034357600080fd5b5061018d610352366004611d62565b610849565b34801561036357600080fd5b5061018d610372366004611b1a565b6109a5565b34801561038357600080fd5b5061018d610392366004611dad565b6109e8565b60006103a260025490565b63ffffffff168263ffffffff16106103cd57604051634c788ccb60e11b815260040160405180910390fd5b60038263ffffffff16815481106103e6576103e6611e01565b6000918252602090912001546001600160a01b031692915050565b6001600160401b03871615801590610422575042876001600160401b031611155b1561044057604051630407b05b60e31b815260040160405180910390fd5b610448610c88565b80608081111561046b576040516307b556c960e01b815260040160405180910390fd5b610473611951565b60005b828110156104b65784848281811061049057610490611e01565b905060200201358282608081106104a9576104a9611e01565b6020020152600101610476565b50815b60808110156104e35760018282608081106104d6576104d6611e01565b60200201526001016104b9565b506000816040516020016104f79190611e17565b60408051601f1981840301815291905280516020909101209050600061052560018d8d8d86868f8f8f610cfd565b505050505050505050505050565b61053b610e52565b6040516001600160a01b038216904780156108fc02916000818181858888f19350505050158015610570573d6000803e3d6000fd5b5050565b6002818154811061058457600080fd5b600091825260209091200154905081565b61059d610ead565b6105a682610f52565b6105708282610f5a565b60006105ba611017565b5060008051602061212583398151915290565b6105d5610e52565b6105df6000611060565b565b6001600160401b03881615801590610602575042886001600160401b031611155b1561062057604051630407b05b60e31b815260040160405180910390fd5b610628610c88565b8061063560806005611e62565b811115610655576040516333b890b560e11b815260040160405180910390fd5b610660600582611e8f565b1561067e576040516341adec0d60e01b815260040160405180910390fd5b600061068c60806005611e62565b6001600160401b038111156106a3576106a3611b4e565b6040519080825280601f01601f1916602001820160405280156106cd576020820181803683370190505b50905060005b82811015610728578484828181106106ed576106ed611e01565b9050013560f81c60f81b82828151811061070957610709611e01565b60200101906001600160f81b031916908160001a9053506001016106d3565b50815b61073760806005611e62565b81101561078857600160f81b8261074f836004611ea3565b8151811061075f5761075f611e01565b60200101906001600160f81b031916908160001a905350610781600582611ea3565b905061072b565b508051602082012061052560008d8d8d8a868f8f8f610cfd565b600381815481106107b257600080fd5b6000918252602090912001546001600160a01b0316905081565b600060016107d960025490565b6107e39190611eb6565b905090565b60006107f360025490565b63ffffffff168263ffffffff161061081e57604051634c788ccb60e11b815260040160405180910390fd5b60028263ffffffff168154811061083757610837611e01565b90600052602060002001549050919050565b602b5463ffffffff1660005b828110156108ea5761088984848381811061087257610872611e01565b9050602002013560066110d190919063ffffffff16565b83838281811061089b5761089b611e01565b905060200201358263ffffffff167f529a1f0fdd7142aabe2b12dd8590a30a26c8427b5200ad8c775a5b4aa03fb41d60405160405180910390a3816108df81611ed2565b925050600101610855565b50602b805463ffffffff191663ffffffff8316179055600184905560408051610460810191829052600091610961919060069082906060820190839060209082845b81548152602001906001019080831161092c5750505050508152602001602082015481526020016021820154815250506111b7565b602a81905560405181815290915085907f598fdeda3e3b7298359a08c9a438151e3481bdcf3c3ff9906fa71dcc723617b09060200160405180910390a25050505050565b6109ad610e52565b6001600160a01b0381166109dc57604051631e4fbdf760e01b8152600060048201526024015b60405180910390fd5b6109e581611060565b50565b7ff0c57e16840df040f15088dc2f81fe391c3923bec73e23a9662efc9c229c6a008054600160401b810460ff1615906001600160401b0316600081158015610a2d5750825b90506000826001600160401b03166001148015610a495750303b155b905081158015610a57575080155b15610a755760405163f92ee8a960e01b815260040160405180910390fd5b845467ffffffffffffffff191660011785558315610a9f57845460ff60401b1916600160401b1785555b6001600160a01b038916610ac657604051639fabe1c160e01b815260040160405180910390fd5b6001600160a01b038816610aed57604051639fabe1c160e01b815260040160405180910390fd5b6001600160a01b038716610b1457604051639fabe1c160e01b815260040160405180910390fd5b6001600160a01b038616610b3b57604051639fabe1c160e01b815260040160405180910390fd5b610b448961129c565b610b4c6112ad565b610b5660066112b5565b600480546001600160a01b038a81166001600160a01b031992831617909255600080548a84169083161790556005805492891692909116919091179055604080516104608101918290526006805460608301908152610be693839190839060209060076080860180831161092c5750505050508152602001602082015481526020016021820154815250506111b7565b602a819055610bf7906002906112f1565b600380546001810182556000919091527fc2575a0e9e593c00f959f8c92f12db2869c3395a3b0502d05e2516446f71f85b0180546001600160a01b03191690558315610c7d57845460ff60401b19168555604051600181527fc7f505b2f371ae2175ee4913f4499e1f2633a7b5936321eed1cdaeb6115181d29060200160405180910390a15b505050505050505050565b6000610c94602861131a565b905034811115610cb75760405163234340c960e11b815260040160405180910390fd5b6000610cc38234611ef7565b9050801561057057604051339082156108fc029083906000818181858888f19350505050158015610cf8573d6000803e3d6000fd5b505050565b6000610d0a8484846113f6565b905080610d2a57604051630792895160e11b815260040160405180910390fd5b60008a610d38576000610d3b565b60015b60ff168a8a8a8a8a8a8a8a604051602001610d5e99989796959493929190611f0a565b6040516020818303038152906040528051906020012090506000610d8160025490565b90506000610d8f60026114ab565b602a5490915042610da360028387846114ce565b50600380546001810182556000919091527fc2575a0e9e593c00f959f8c92f12db2869c3395a3b0502d05e2516446f71f85b0180546001600160a01b03191633908117909155604080516001600160401b038416815263ffffffff8716602082015280820185905260608101889052905185917f28857582f627ebec65097e573daaa05604c35030fabadc548b80d1eec929d601919081900360800190a3505050505050505050505050505050565b33610e847f9016d09d72d40fdae2fd8ceac6b6234c7706214fd39c1cd1e609a0528c199300546001600160a01b031690565b6001600160a01b0316146105df5760405163118cdaa760e01b81523360048201526024016109d3565b306001600160a01b037f0000000000000000000000000000000000000000000000000000000000000000161480610f3457507f00000000000000000000000000000000000000000000000000000000000000006001600160a01b0316610f28600080516020612125833981519152546001600160a01b031690565b6001600160a01b031614155b156105df5760405163703e46dd60e11b815260040160405180910390fd5b6109e5610e52565b816001600160a01b03166352d1902d6040518163ffffffff1660e01b8152600401602060405180830381865afa925050508015610fb4575060408051601f3d908101601f19168201909252610fb191810190611f83565b60015b610fdc57604051634c9c8ce360e01b81526001600160a01b03831660048201526024016109d3565b600080516020612125833981519152811461100d57604051632a87526960e21b8152600481018290526024016109d3565b610cf8838361150d565b306001600160a01b037f000000000000000000000000000000000000000000000000000000000000000016146105df5760405163703e46dd60e11b815260040160405180910390fd5b7f9016d09d72d40fdae2fd8ceac6b6234c7706214fd39c1cd1e609a0528c19930080546001600160a01b031981166001600160a01b03848116918217845560405192169182907f8be0079c531659141344cd1fd0a4f28419497f9722a3daafe3b4186f6b6457e090600090a3505050565b60208083015482916001906110e7906002612083565b6110f19190611ef7565b8110611110576040516377ae67b360e11b815260040160405180910390fd5b600061111d826001611ea3565b60208601819055905060005b60208110156111a7578082901c60011660010361115d578386826020811061115357611153611e01565b0155505050505050565b85816020811061116f5761116f611e01565b0154604080516020810192909252810185905260600160408051601f1981840301815291905280516020909101209350600101611129565b506111b061208f565b5050505050565b604081015160208201516000919081835b6020811015611292578083901c60011660010361122f57855181602081106111f2576111f2611e01565b602002015184604051602001611212929190918252602082015260400190565b60405160208183030381529060405280519060200120935061125c565b60408051602081018690529081018390526060016040516020818303038152906040528051906020012093505b604080516020810184905290810183905260600160408051601f19818403018152919052805160209091012091506001016111c8565b5091949350505050565b6112a4611563565b6109e5816115ac565b6105df611563565b6040805160a0810182526000808252602082018190529181018290526060810182905260808101919091526112e9906115b4565b602190910155565b8161130060008381808061164a565b815460018101835560009283526020909220909101555050565b8054600090429067d02ab486cedc00009083036113435790835560019092019190915550600090565b83546704a03ce68d21555590600090611365906113609086611ef7565b6116a6565b9050600061139b61137684846116ed565b61139661138c61138660016116a6565b876116fc565b8a600101546116ed565b61170b565b600188018190558588559050808411156113e95760006113bb85836116fc565b90506113dd6113da6113d466038d7ea4c68000846116ed565b836116ed565b90565b98975050505050505050565b5060009695505050505050565b60008084836040518060400160405280600181526020017f30644e72e131a029b85045b68181585d97816a916871ca8d3c208c16d87cfd458152508660405160200161144594939291906120a5565b604051602081830303815290604052905061145e611970565b81516000906020838282870160086107d05a03fa9150818061147c57fe5b508161149b5760405163def2011f60e01b815260040160405180910390fd5b50505115159150505b9392505050565b805460009082906114be90600190611ef7565b8154811061083757610837611e01565b60006114ec6114dc866114ab565b8585856114e78a5490565b61164a565b85546001810187556000968752602090962090950185905550929392505050565b6115168261171a565b6040516001600160a01b038316907fbc7cd75a20ee27fd9adebab32041f755214dbc6bffa90cc0225b39da2e5c2d3b90600090a280511561155b57610cf8828261177f565b6105706117f7565b7ff0c57e16840df040f15088dc2f81fe391c3923bec73e23a9662efc9c229c6a0054600160401b900460ff166105df57604051631afcd79f60e31b815260040160405180910390fd5b6109ad611563565b6000816000015182602001518360400151846060015185608001516115da5760006115dd565b60015b60405160609590951b6bffffffffffffffffffffffff191660208601526034850193909352605484019190915260e090811b6001600160e01b03191660748401521b60ff60e01b166078820152607c01604051602081830303815290604052805190602001209050919050565b6040805160208082019790975280820195909552606085019390935260c09190911b6001600160c01b031916608084015260e01b6001600160e01b03191660888301528051606c818403018152608c9092019052805191012090565b60006116bc670de0b6b3a76400006000196120f4565b8211156116df57604051631cd951a760e01b8152600481018390526024016109d3565b50670de0b6b3a76400000290565b60006114a46113da8484611816565b60006114a46113da8385611ef7565b60006114a46113da8385611ea3565b806001600160a01b03163b60000361175057604051634c9c8ce360e01b81526001600160a01b03821660048201526024016109d3565b60008051602061212583398151915280546001600160a01b0319166001600160a01b0392909216919091179055565b6060600080846001600160a01b03168460405161179c9190612108565b600060405180830381855af49150503d80600081146117d7576040519150601f19603f3d011682016040523d82523d6000602084013e6117dc565b606091505b50915091506117ec8583836118cc565b925050505b92915050565b34156105df5760405163b398979f60e01b815260040160405180910390fd5b600080806000198486098486029250828110838203039150508060000361184a5750670de0b6b3a7640000900490506117f1565b670de0b6b3a7640000811061187c57604051635173648d60e01b815260048101869052602481018590526044016109d3565b6000670de0b6b3a764000085870962040000818503049310909103600160ee1b02919091177faccb18165bd6fe31ae1cf318dc5b51eee0e1ba569b88cd74c1773b91fac106690291505092915050565b6060826118e1576118dc82611928565b6114a4565b81511580156118f857506001600160a01b0384163b155b1561192157604051639996b31560e01b81526001600160a01b03851660048201526024016109d3565b50806114a4565b8051156119385780518082602001fd5b60405163d6bda27560e01b815260040160405180910390fd5b6040518061100001604052806080906020820280368337509192915050565b60405180602001604052806001906020820280368337509192915050565b6000602082840312156119a057600080fd5b813563ffffffff811681146114a457600080fd5b80356001600160401b03811681146119cb57600080fd5b919050565b80356fffffffffffffffffffffffffffffffff19811681146119cb57600080fd5b80604081018310156117f157600080fd5b80608081018310156117f157600080fd5b60008083601f840112611a2557600080fd5b5081356001600160401b03811115611a3c57600080fd5b6020830191508360208260051b8501011115611a5757600080fd5b9250929050565b6000806000806000806000806101c0898b031215611a7b57600080fd5b88359750611a8b60208a016119b4565b9650611a9960408a016119d0565b9550611aa88a60608b016119f1565b9450611ab78a60a08b01611a02565b9350611ac78a6101208b01611a02565b92506101a08901356001600160401b03811115611ae357600080fd5b611aef8b828c01611a13565b999c989b5096995094979396929594505050565b80356001600160a01b03811681146119cb57600080fd5b600060208284031215611b2c57600080fd5b6114a482611b03565b600060208284031215611b4757600080fd5b5035919050565b634e487b7160e01b600052604160045260246000fd5b60008060408385031215611b7757600080fd5b611b8083611b03565b915060208301356001600160401b03811115611b9b57600080fd5b8301601f81018513611bac57600080fd5b80356001600160401b03811115611bc557611bc5611b4e565b604051601f8201601f19908116603f011681016001600160401b0381118282101715611bf357611bf3611b4e565b604052818152828201602001871015611c0b57600080fd5b816020840160208301376000602083830101528093505050509250929050565b60008060008060008060008060006101e08a8c031215611c4a57600080fd5b89359850611c5a60208b016119b4565b9750611c6860408b016119d0565b9650611c778b60608c016119f1565b9550611c868b60a08c01611a02565b9450611c968b6101208c01611a02565b93506101a08a013592506101c08a01356001600160401b03811115611cba57600080fd5b8a01601f81018c13611ccb57600080fd5b80356001600160401b03811115611ce157600080fd5b8c6020828401011115611cf357600080fd5b60208201935080925050509295985092959850929598565b60005b83811015611d26578181015183820152602001611d0e565b50506000910152565b6020815260008251806020840152611d4e816040850160208701611d0b565b601f01601f19169190910160400192915050565b600080600060408486031215611d7757600080fd5b8335925060208401356001600160401b03811115611d9457600080fd5b611da086828701611a13565b9497909650939450505050565b60008060008060808587031215611dc357600080fd5b611dcc85611b03565b9350611dda60208601611b03565b9250611de860408601611b03565b9150611df660608601611b03565b905092959194509250565b634e487b7160e01b600052603260045260246000fd5b60008183825b6080811015611e3c578151835260209283019290910190600101611e1d565b5050506110008201905092915050565b634e487b7160e01b600052601160045260246000fd5b80820281158282048414176117f1576117f1611e4c565b634e487b7160e01b600052601260045260246000fd5b600082611e9e57611e9e611e79565b500690565b808201808211156117f1576117f1611e4c565b63ffffffff82811682821603908111156117f1576117f1611e4c565b600063ffffffff821663ffffffff8103611eee57611eee611e4c565b60010192915050565b818103818111156117f1576117f1611e4c565b63ffffffff60e01b8a60e01b1681528860048201526001600160401b0360c01b8860c01b1660248201526fffffffffffffffffffffffffffffffff198716602c82015285603c82015284605c820152604084607c83013760808360bc83013760808261013c8301376101bc019998505050505050505050565b600060208284031215611f9557600080fd5b5051919050565b6001815b6001841115611fd757808504811115611fbb57611fbb611e4c565b6001841615611fc957908102905b60019390931c928002611fa0565b935093915050565b600082611fee575060016117f1565b81611ffb575060006117f1565b8160018114612011576002811461201b57612037565b60019150506117f1565b60ff84111561202c5761202c611e4c565b50506001821b6117f1565b5060208310610133831016604e8410600b841016171561205a575081810a6117f1565b6120676000198484611f9c565b806000190482111561207b5761207b611e4c565b029392505050565b60006114a48383611fdf565b634e487b7160e01b600052600160045260246000fd5b60408582376080846040830137600060c082018460005b60028110156120db5781518352602092830192909101906001016120bc565b5050506080836101008401375061018001949350505050565b60008261210357612103611e79565b500490565b6000825161211a818460208701611d0b565b919091019291505056fe360894a13ba1a3210667c828492db98dca3e2076cc3735a920a3ca505d382bbca2646970667358221220e3816843a453700d0bdbf8f255e4a89c5390f37c165c5be624509b78e2f428df64736f6c634300081b0033",
  "linkReferences": {},
  "deployedLinkReferences": {}
}