{
  "_format": "hh-sol-artifact-1",
  "contractName": "Rollup",
  "sourceName": "contracts/rollup/Rollup.sol",
  "abi": [
    {
      "inputs": [],
      "stateMutability": "nonpayable",
      "type": "constructor"
    },
    {
      "inputs": [
        {
          "internalType": "address",
          "name": "target",
          "type": "address"
        }
      ],
      "name": "AddressEmptyCode",
      "type": "error"
    },
    {
      "inputs": [],
      "name": "AddressZero",
      "type": "error"
    },
    {
      "inputs": [],
      "name": "BlockNumberOutOfRange",
      "type": "error"
    },
    {
      "inputs": [
        {
          "internalType": "address",
          "name": "implementation",
          "type": "address"
        }
      ],
      "name": "ERC1967InvalidImplementation",
      "type": "error"
    },
    {
      "inputs": [],
      "name": "ERC1967NonPayable",
      "type": "error"
    },
    {
      "inputs": [],
      "name": "Expired",
      "type": "error"
    },
    {
      "inputs": [],
      "name": "FailedCall",
      "type": "error"
    },
    {
      "inputs": [],
      "name": "InsufficientPenaltyFee",
      "type": "error"
    },
    {
      "inputs": [],
      "name": "InvalidInitialization",
      "type": "error"
    },
    {
      "inputs": [],
      "name": "InvalidNonce",
      "type": "error"
    },
    {
      "inputs": [],
      "name": "MerkleTreeFull",
      "type": "error"
    },
    {
      "inputs": [],
      "name": "NotInitializing",
      "type": "error"
    },
    {
      "inputs": [],
      "name": "OnlyLiquidity",
      "type": "error"
    },
    {
      "inputs": [],
      "name": "OnlyScrollMessenger",
      "type": "error"
    },
    {
      "inputs": [
        {
          "internalType": "address",
          "name": "owner",
          "type": "address"
        }
      ],
      "name": "OwnableInvalidOwner",
      "type": "error"
    },
    {
      "inputs": [
        {
          "internalType": "address",
          "name": "account",
          "type": "address"
        }
      ],
      "name": "OwnableUnauthorizedAccount",
      "type": "error"
    },
    {
      "inputs": [
        {
          "internalType": "uint256",
          "name": "x",
          "type": "uint256"
        },
        {
          "internalType": "uint256",
          "name": "y",
          "type": "uint256"
        }
      ],
      "name": "PRBMath_MulDiv18_Overflow",
      "type": "error"
    },
    {
      "inputs": [
        {
          "internalType": "uint256",
          "name": "x",
          "type": "uint256"
        }
      ],
      "name": "PRBMath_UD60x18_Convert_Overflow",
      "type": "error"
    },
    {
      "inputs": [],
      "name": "PairingCheckFailed",
      "type": "error"
    },
    {
      "inputs": [],
      "name": "PairingOpCodeFailed",
      "type": "error"
    },
    {
      "inputs": [],
      "name": "SenderAccountIdsInvalidLength",
      "type": "error"
    },
    {
      "inputs": [],
      "name": "TooManyAccountIds",
      "type": "error"
    },
    {
      "inputs": [],
      "name": "TooManySenderPublicKeys",
      "type": "error"
    },
    {
      "inputs": [],
      "name": "UUPSUnauthorizedCallContext",
      "type": "error"
    },
    {
      "inputs": [
        {
          "internalType": "bytes32",
          "name": "slot",
          "type": "bytes32"
        }
      ],
      "name": "UUPSUnsupportedProxiableUUID",
      "type": "error"
    },
    {
      "anonymous": false,
      "inputs": [
        {
          "indexed": true,
          "internalType": "bytes32",
          "name": "prevBlockHash",
          "type": "bytes32"
        },
        {
          "indexed": true,
          "internalType": "address",
          "name": "blockBuilder",
          "type": "address"
        },
        {
          "indexed": false,
          "internalType": "uint64",
          "name": "timestamp",
          "type": "uint64"
        },
        {
          "indexed": false,
          "internalType": "uint256",
          "name": "blockNumber",
          "type": "uint256"
        },
        {
          "indexed": false,
          "internalType": "bytes32",
          "name": "depositTreeRoot",
          "type": "bytes32"
        },
        {
          "indexed": false,
          "internalType": "bytes32",
          "name": "signatureHash",
          "type": "bytes32"
        }
      ],
      "name": "BlockPosted",
      "type": "event"
    },
    {
      "anonymous": false,
      "inputs": [
        {
          "indexed": true,
          "internalType": "uint32",
          "name": "depositIndex",
          "type": "uint32"
        },
        {
          "indexed": true,
          "internalType": "bytes32",
          "name": "depositHash",
          "type": "bytes32"
        }
      ],
      "name": "DepositLeafInserted",
      "type": "event"
    },
    {
      "anonymous": false,
      "inputs": [
        {
          "indexed": true,
          "internalType": "uint256",
          "name": "lastProcessedDepositId",
          "type": "uint256"
        },
        {
          "indexed": false,
          "internalType": "bytes32",
          "name": "depositTreeRoot",
          "type": "bytes32"
        }
      ],
      "name": "DepositsProcessed",
      "type": "event"
    },
    {
      "anonymous": false,
      "inputs": [
        {
          "indexed": false,
          "internalType": "uint64",
          "name": "version",
          "type": "uint64"
        }
      ],
      "name": "Initialized",
      "type": "event"
    },
    {
      "anonymous": false,
      "inputs": [
        {
          "indexed": true,
          "internalType": "address",
          "name": "previousOwner",
          "type": "address"
        },
        {
          "indexed": true,
          "internalType": "address",
          "name": "newOwner",
          "type": "address"
        }
      ],
      "name": "OwnershipTransferred",
      "type": "event"
    },
    {
      "anonymous": false,
      "inputs": [
        {
          "indexed": true,
          "internalType": "address",
          "name": "implementation",
          "type": "address"
        }
      ],
      "name": "Upgraded",
      "type": "event"
    },
    {
      "inputs": [],
      "name": "UPGRADE_INTERFACE_VERSION",
      "outputs": [
        {
          "internalType": "string",
          "name": "",
          "type": "string"
        }
      ],
      "stateMutability": "view",
      "type": "function"
    },
    {
      "inputs": [
        {
          "internalType": "uint256",
          "name": "",
          "type": "uint256"
        }
      ],
      "name": "blockHashes",
      "outputs": [
        {
          "internalType": "bytes32",
          "name": "",
          "type": "bytes32"
        }
      ],
      "stateMutability": "view",
      "type": "function"
    },
    {
      "inputs": [
        {
          "internalType": "address",
          "name": "",
          "type": "address"
        }
      ],
      "name": "builderNonRegistrationNonce",
      "outputs": [
        {
          "internalType": "uint32",
          "name": "",
          "type": "uint32"
        }
      ],
      "stateMutability": "view",
      "type": "function"
    },
    {
      "inputs": [
        {
          "internalType": "address",
          "name": "",
          "type": "address"
        }
      ],
      "name": "builderRegistrationNonce",
      "outputs": [
        {
          "internalType": "uint32",
          "name": "",
          "type": "uint32"
        }
      ],
      "stateMutability": "view",
      "type": "function"
    },
    {
      "inputs": [],
      "name": "depositIndex",
      "outputs": [
        {
          "internalType": "uint32",
          "name": "",
          "type": "uint32"
        }
      ],
      "stateMutability": "view",
      "type": "function"
    },
    {
      "inputs": [],
      "name": "depositTreeRoot",
      "outputs": [
        {
          "internalType": "bytes32",
          "name": "",
          "type": "bytes32"
        }
      ],
      "stateMutability": "view",
      "type": "function"
    },
    {
      "inputs": [
        {
          "internalType": "uint32",
          "name": "blockNumber",
          "type": "uint32"
        }
      ],
      "name": "getBlockHash",
      "outputs": [
        {
          "internalType": "bytes32",
          "name": "",
          "type": "bytes32"
        }
      ],
      "stateMutability": "view",
      "type": "function"
    },
    {
      "inputs": [],
      "name": "getLatestBlockNumber",
      "outputs": [
        {
          "internalType": "uint32",
          "name": "",
          "type": "uint32"
        }
      ],
      "stateMutability": "view",
      "type": "function"
    },
    {
      "inputs": [],
      "name": "getPenalty",
      "outputs": [
        {
          "internalType": "uint256",
          "name": "",
          "type": "uint256"
        }
      ],
      "stateMutability": "view",
      "type": "function"
    },
    {
      "inputs": [
        {
          "internalType": "address",
          "name": "_admin",
          "type": "address"
        },
        {
          "internalType": "address",
          "name": "_scrollMessenger",
          "type": "address"
        },
        {
          "internalType": "address",
          "name": "_liquidity",
          "type": "address"
        },
        {
          "internalType": "address",
          "name": "_contribution",
          "type": "address"
        }
      ],
      "name": "initialize",
      "outputs": [],
      "stateMutability": "nonpayable",
      "type": "function"
    },
    {
      "inputs": [],
      "name": "lastProcessedDepositId",
      "outputs": [
        {
          "internalType": "uint256",
          "name": "",
          "type": "uint256"
        }
      ],
      "stateMutability": "view",
      "type": "function"
    },
    {
      "inputs": [],
      "name": "owner",
      "outputs": [
        {
          "internalType": "address",
          "name": "",
          "type": "address"
        }
      ],
      "stateMutability": "view",
      "type": "function"
    },
    {
      "inputs": [
        {
          "internalType": "bytes32",
          "name": "txTreeRoot",
          "type": "bytes32"
        },
        {
          "internalType": "uint64",
          "name": "expiry",
          "type": "uint64"
        },
        {
          "internalType": "uint32",
          "name": "builderNonce",
          "type": "uint32"
        },
        {
          "internalType": "bytes16",
          "name": "senderFlags",
          "type": "bytes16"
        },
        {
          "internalType": "bytes32[2]",
          "name": "aggregatedPublicKey",
          "type": "bytes32[2]"
        },
        {
          "internalType": "bytes32[4]",
          "name": "aggregatedSignature",
          "type": "bytes32[4]"
        },
        {
          "internalType": "bytes32[4]",
          "name": "messagePoint",
          "type": "bytes32[4]"
        },
        {
          "internalType": "bytes32",
          "name": "publicKeysHash",
          "type": "bytes32"
        },
        {
          "internalType": "bytes",
          "name": "senderAccountIds",
          "type": "bytes"
        }
      ],
      "name": "postNonRegistrationBlock",
      "outputs": [],
      "stateMutability": "payable",
      "type": "function"
    },
    {
      "inputs": [
        {
          "internalType": "bytes32",
          "name": "txTreeRoot",
          "type": "bytes32"
        },
        {
          "internalType": "uint64",
          "name": "expiry",
          "type": "uint64"
        },
        {
          "internalType": "uint32",
          "name": "builderNonce",
          "type": "uint32"
        },
        {
          "internalType": "bytes16",
          "name": "senderFlags",
          "type": "bytes16"
        },
        {
          "internalType": "bytes32[2]",
          "name": "aggregatedPublicKey",
          "type": "bytes32[2]"
        },
        {
          "internalType": "bytes32[4]",
          "name": "aggregatedSignature",
          "type": "bytes32[4]"
        },
        {
          "internalType": "bytes32[4]",
          "name": "messagePoint",
          "type": "bytes32[4]"
        },
        {
          "internalType": "uint256[]",
          "name": "senderPublicKeys",
          "type": "uint256[]"
        }
      ],
      "name": "postRegistrationBlock",
      "outputs": [],
      "stateMutability": "payable",
      "type": "function"
    },
    {
      "inputs": [
        {
          "internalType": "uint256",
          "name": "_lastProcessedDepositId",
          "type": "uint256"
        },
        {
          "internalType": "bytes32[]",
          "name": "depositHashes",
          "type": "bytes32[]"
        }
      ],
      "name": "processDeposits",
      "outputs": [],
      "stateMutability": "nonpayable",
      "type": "function"
    },
    {
      "inputs": [],
      "name": "proxiableUUID",
      "outputs": [
        {
          "internalType": "bytes32",
          "name": "",
          "type": "bytes32"
        }
      ],
      "stateMutability": "view",
      "type": "function"
    },
    {
      "inputs": [],
      "name": "renounceOwnership",
      "outputs": [],
      "stateMutability": "nonpayable",
      "type": "function"
    },
    {
      "inputs": [
        {
          "internalType": "address",
          "name": "newOwner",
          "type": "address"
        }
      ],
      "name": "transferOwnership",
      "outputs": [],
      "stateMutability": "nonpayable",
      "type": "function"
    },
    {
      "inputs": [
        {
          "internalType": "address",
          "name": "newImplementation",
          "type": "address"
        },
        {
          "internalType": "bytes",
          "name": "data",
          "type": "bytes"
        }
      ],
      "name": "upgradeToAndCall",
      "outputs": [],
      "stateMutability": "payable",
      "type": "function"
    },
    {
      "inputs": [
        {
          "internalType": "address",
          "name": "to",
          "type": "address"
        }
      ],
      "name": "withdrawPenaltyFee",
      "outputs": [],
      "stateMutability": "nonpayable",
      "type": "function"
    }
  ],
  "bytecode": "0x60a06040523060805234801561001457600080fd5b5061001d610022565b6100d4565b7ff0c57e16840df040f15088dc2f81fe391c3923bec73e23a9662efc9c229c6a00805468010000000000000000900460ff16156100725760405163f92ee8a960e01b815260040160405180910390fd5b80546001600160401b03908116146100d15780546001600160401b0319166001600160401b0390811782556040519081527fc7f505b2f371ae2175ee4913f4499e1f2633a7b5936321eed1cdaeb6115181d29060200160405180910390a15b50565b60805161241c6100fd60003960008181610de301528181610e0c0152610f52015261241c6000f3fe60806040526004361061011f5760003560e01c80638da5cb5b116100a0578063e56e56db11610064578063e56e56db14610327578063f03efa371461033c578063f2fde38b1461035c578063f8c8765e1461037c578063fdd567561461039c57600080fd5b80638da5cb5b1461025a5780639b6babf0146102a1578063ad3cb1cc146102b4578063c76c3884146102f2578063d2b210a11461030757600080fd5b806353929652116100e757806353929652146101b7578063567419c1146101ff5780635bdcdf1b14610215578063715018a6146102285780637b8989391461023d57600080fd5b80631d9a07b91461012457806325d89cfd1461014d57806334cdf78d1461016f5780634f1ef2861461018f57806352d1902d146101a2575b600080fd5b34801561013057600080fd5b5061013a602b5481565b6040519081526020015b60405180910390f35b34801561015957600080fd5b5061016d610168366004611bd4565b6103cf565b005b34801561017b57600080fd5b5061013a61018a366004611bef565b610410565b61016d61019d366004611c1e565b610431565b3480156101ae57600080fd5b5061013a61044c565b3480156101c357600080fd5b506101ea6101d2366004611bd4565b60046020526000908152604090205463ffffffff1681565b60405163ffffffff9091168152602001610144565b34801561020b57600080fd5b5061013a60015481565b61016d610223366004611d4a565b610469565b34801561023457600080fd5b5061016d61071a565b34801561024957600080fd5b50602c546101ea9063ffffffff1681565b34801561026657600080fd5b507f9016d09d72d40fdae2fd8ceac6b6234c7706214fd39c1cd1e609a0528c199300546040516001600160a01b039091168152602001610144565b61016d6102af366004611e7f565b61072e565b3480156102c057600080fd5b506102e5604051806040016040528060058152602001640352e302e360dc1b81525081565b6040516101449190611f5b565b3480156102fe57600080fd5b506101ea610932565b34801561031357600080fd5b5061013a610322366004611f8e565b61094e565b34801561033357600080fd5b5061013a6109af565b34801561034857600080fd5b5061016d610357366004611fa9565b6109bb565b34801561036857600080fd5b5061016d610377366004611bd4565b610b17565b34801561038857600080fd5b5061016d610397366004611ff4565b610b5a565b3480156103a857600080fd5b506101ea6103b7366004611bd4565b60036020526000908152604090205463ffffffff1681565b6103d7610d7d565b6040516001600160a01b038216904780156108fc02916000818181858888f1935050505015801561040c573d6000803e3d6000fd5b5050565b6002818154811061042057600080fd5b600091825260209091200154905081565b610439610dd8565b61044282610e7d565b61040c8282610e85565b6000610456610f47565b506000805160206123c783398151915290565b6001600160401b0389161580159061048a575042896001600160401b031611155b156104a857604051630407b05b60e31b815260040160405180910390fd5b6104b0610f90565b60006040518061012001604052806000151581526020018c81526020018b6001600160401b031681526020016104e33390565b6001600160a01b031681526020018a63ffffffff168152602001896001600160801b0319168152602001886002806020026040519081016040528092919082600260200280828437600092019190915250505081526040805160808181019092526020909201919089906004908390839080828437600092019190915250505081526040805160808181019092526020909201919088906004908390839080828437600092019190915250505090529050816105a16080600561205e565b8111156105c1576040516333b890b560e11b815260040160405180910390fd5b6105cc60058261208b565b156105ea576040516341adec0d60e01b815260040160405180910390fd5b60006105f86080600561205e565b6001600160401b0381111561060f5761060f611c08565b6040519080825280601f01601f191660200182016040528015610639576020820181803683370190505b50905060005b82811015610694578585828181106106595761065961209f565b9050013560f81c60f81b8282815181106106755761067561209f565b60200101906001600160f81b031916908160001a90535060010161063f565b50815b6106a36080600561205e565b8110156106f457600160f81b826106bb8360046120b5565b815181106106cb576106cb61209f565b60200101906001600160f81b031916908160001a9053506106ed6005826120b5565b9050610697565b508051602082012061070a8488838d8d8d611000565b5050505050505050505050505050565b610722610d7d565b61072c6000611267565b565b6001600160401b0388161580159061074f575042886001600160401b031611155b1561076d57604051630407b05b60e31b815260040160405180910390fd5b610775610f90565b60006040518061012001604052806001151581526020018b81526020018a6001600160401b031681526020016107a83390565b6001600160a01b031681526020018963ffffffff168152602001886001600160801b031916815260200187600280602002604051908101604052809291908260026020028082843760009201919091525050508152604080516080818101909252602090920191908890600490839083908082843760009201919091525050508152604080516080818101909252602090920191908790600490839083908082843760009201919091525050509052905081608081111561087c576040516307b556c960e01b815260040160405180910390fd5b610884611b7b565b60005b828110156108c7578585828181106108a1576108a161209f565b905060200201358282608081106108ba576108ba61209f565b6020020152600101610887565b50815b60808110156108f45760018282608081106108e7576108e761209f565b60200201526001016108ca565b5060008160405160200161090891906120c8565b60408051601f1981840301815291905280516020909101209050600061070a8583838d8d8d611000565b6000600161093f60025490565b61094991906120fd565b905090565b600061095960025490565b63ffffffff168263ffffffff161061098457604051634c788ccb60e11b815260040160405180910390fd5b60028263ffffffff168154811061099d5761099d61209f565b90600052602060002001549050919050565b600061094960296112d8565b602c5463ffffffff1660005b82811015610a5c576109fb8484838181106109e4576109e461209f565b9050602002013560076112ed90919063ffffffff16565b838382818110610a0d57610a0d61209f565b905060200201358263ffffffff167f529a1f0fdd7142aabe2b12dd8590a30a26c8427b5200ad8c775a5b4aa03fb41d60405160405180910390a381610a5181612119565b9250506001016109c7565b50602c805463ffffffff191663ffffffff8316179055600184905560408051610460810191829052600091610ad3919060079082906060820190839060209082845b815481526020019060010190808311610a9e5750505050508152602001602082015481526020016021820154815250506113d3565b602b81905560405181815290915085907f598fdeda3e3b7298359a08c9a438151e3481bdcf3c3ff9906fa71dcc723617b09060200160405180910390a25050505050565b610b1f610d7d565b6001600160a01b038116610b4e57604051631e4fbdf760e01b8152600060048201526024015b60405180910390fd5b610b5781611267565b50565b7ff0c57e16840df040f15088dc2f81fe391c3923bec73e23a9662efc9c229c6a008054600160401b810460ff1615906001600160401b0316600081158015610b9f5750825b90506000826001600160401b03166001148015610bbb5750303b155b905081158015610bc9575080155b15610be75760405163f92ee8a960e01b815260040160405180910390fd5b845467ffffffffffffffff191660011785558315610c1157845460ff60401b1916600160401b1785555b6001600160a01b0389161580610c2e57506001600160a01b038816155b80610c4057506001600160a01b038716155b80610c5257506001600160a01b038616155b15610c7057604051639fabe1c160e01b815260040160405180910390fd5b610c79896114b8565b610c816114c9565b610c8b60076114d1565b600580546001600160a01b038a81166001600160a01b031992831617909255600080548a84169083161790556006805492891692909116919091179055604080516104608101918290526007805460608301908152610d1b938391908390602090600860808601808311610a9e5750505050508152602001602082015481526020016021820154815250506113d3565b602b819055610d2c9060029061150d565b8315610d7257845460ff60401b19168555604051600181527fc7f505b2f371ae2175ee4913f4499e1f2633a7b5936321eed1cdaeb6115181d29060200160405180910390a15b505050505050505050565b33610daf7f9016d09d72d40fdae2fd8ceac6b6234c7706214fd39c1cd1e609a0528c199300546001600160a01b031690565b6001600160a01b03161461072c5760405163118cdaa760e01b8152336004820152602401610b45565b306001600160a01b037f0000000000000000000000000000000000000000000000000000000000000000161480610e5f57507f00000000000000000000000000000000000000000000000000000000000000006001600160a01b0316610e536000805160206123c7833981519152546001600160a01b031690565b6001600160a01b031614155b1561072c5760405163703e46dd60e11b815260040160405180910390fd5b610b57610d7d565b816001600160a01b03166352d1902d6040518163ffffffff1660e01b8152600401602060405180830381865afa925050508015610edf575060408051601f3d908101601f19168201909252610edc9181019061213e565b60015b610f0757604051634c9c8ce360e01b81526001600160a01b0383166004820152602401610b45565b6000805160206123c78339815191528114610f3857604051632a87526960e21b815260048101829052602401610b45565b610f428383611536565b505050565b306001600160a01b037f0000000000000000000000000000000000000000000000000000000000000000161461072c5760405163703e46dd60e11b815260040160405180910390fd5b6000610f9c602961158c565b905034811115610fbf5760405163234340c960e11b815260040160405180910390fd5b6000610fcb8234612157565b9050801561040c57604051339082156108fc029083906000818181858888f19350505050158015610f42573d6000803e3d6000fd5b608086015163ffffffff161561113f578551156110ad5760608601516001600160a01b0316600090815260036020526040902054608087015163ffffffff918216911681111561106357604051633ab3447f60e11b815260040160405180910390fd5b608087015161107390600161216a565b60608801516001600160a01b03166000908152600360205260409020805463ffffffff191663ffffffff929092169190911790555061113f565b60608601516001600160a01b0316600090815260046020526040902054608087015163ffffffff91821691168111156110f957604051633ab3447f60e11b815260040160405180910390fd5b608087015161110990600161216a565b60608801516001600160a01b03166000908152600460205260409020805463ffffffff191663ffffffff92909216919091179055505b600061114c8484846115ae565b90508061116c57604051630792895160e11b815260040160405180910390fd5b865160009061117c57600061117f565b60015b60ff16886020015189604001518a606001518b608001518c60a001518c8c8c8c8c6040516020016111ba9b9a99989796959493929190612198565b60405160208183030381529060405280519060200120905060006111dd60025490565b905060006111eb6002611663565b602b54909150426111ff6002838784611686565b50604080516001600160401b038316815263ffffffff86166020820152808201849052606081018790529051339185917f28857582f627ebec65097e573daaa05604c35030fabadc548b80d1eec929d6019181900360800190a3505050505050505050505050565b7f9016d09d72d40fdae2fd8ceac6b6234c7706214fd39c1cd1e609a0528c19930080546001600160a01b031981166001600160a01b03848116918217845560405192169182907f8be0079c531659141344cd1fd0a4f28419497f9722a3daafe3b4186f6b6457e090600090a3505050565b6000806112e583426116c5565b949350505050565b6020808301548291600190611303906002612325565b61130d9190612157565b811061132c576040516377ae67b360e11b815260040160405180910390fd5b60006113398260016120b5565b60208601819055905060005b60208110156113c3578082901c600116600103611379578386826020811061136f5761136f61209f565b0155505050505050565b85816020811061138b5761138b61209f565b0154604080516020810192909252810185905260600160408051601f1981840301815291905280516020909101209350600101611345565b506113cc612331565b5050505050565b604081015160208201516000919081835b60208110156114ae578083901c60011660010361144b578551816020811061140e5761140e61209f565b60200201518460405160200161142e929190918252602082015260400190565b604051602081830303815290604052805190602001209350611478565b60408051602081018690529081018390526060016040516020818303038152906040528051906020012093505b604080516020810184905290810183905260600160408051601f19818403018152919052805160209091012091506001016113e4565b5091949350505050565b6114c061178d565b610b57816117d6565b61072c61178d565b6040805160a081018252600080825260208201819052918101829052606081018290526080810191909152611505906117de565b602190910155565b8161151c600083818080611874565b815460018101835560009283526020909220909101555050565b61153f826118d0565b6040516001600160a01b038316907fbc7cd75a20ee27fd9adebab32041f755214dbc6bffa90cc0225b39da2e5c2d3b90600090a280511561158457610f428282611935565b61040c6119ad565b600042818061159b85846116c5565b9386556001909501949094555092915050565b60008084836040518060400160405280600181526020017f30644e72e131a029b85045b68181585d97816a916871ca8d3c208c16d87cfd45815250866040516020016115fd9493929190612347565b6040516020818303038152906040529050611616611b9a565b81516000906020838282870160086107d05a03fa9150818061163457fe5b50816116535760405163def2011f60e01b815260040160405180910390fd5b50505115159150505b9392505050565b8054600090829061167690600190612157565b8154811061099d5761099d61209f565b60006116a461169486611663565b85858561169f8a5490565b611874565b85546001810187556000968752602090962090950185905550929392505050565b8154600090819067d02ab486cedc00009082036116e757915060009050611786565b84546704a03ce68d21555590600090611709906117049088612157565b6119cc565b905061173d6117188383611a13565b61173861172e61172860016119cc565b86611a22565b8a60010154611a13565b611a31565b94508483111561177d5760006117538487611a22565b905061177561177261176c66038d7ea4c6800084611a13565b83611a13565b90565b945050611782565b600093505b5050505b9250929050565b7ff0c57e16840df040f15088dc2f81fe391c3923bec73e23a9662efc9c229c6a0054600160401b900460ff1661072c57604051631afcd79f60e31b815260040160405180910390fd5b610b1f61178d565b600081600001518260200151836040015184606001518560800151611804576000611807565b60015b60405160609590951b6bffffffffffffffffffffffff191660208601526034850193909352605484019190915260e090811b6001600160e01b03191660748401521b60ff60e01b166078820152607c01604051602081830303815290604052805190602001209050919050565b6040805160208082019790975280820195909552606085019390935260c09190911b6001600160c01b031916608084015260e01b6001600160e01b03191660888301528051606c818403018152608c9092019052805191012090565b806001600160a01b03163b60000361190657604051634c9c8ce360e01b81526001600160a01b0382166004820152602401610b45565b6000805160206123c783398151915280546001600160a01b0319166001600160a01b0392909216919091179055565b6060600080846001600160a01b0316846040516119529190612396565b600060405180830381855af49150503d806000811461198d576040519150601f19603f3d011682016040523d82523d6000602084013e611992565b606091505b50915091506119a2858383611a40565b925050505b92915050565b341561072c5760405163b398979f60e01b815260040160405180910390fd5b60006119e2670de0b6b3a76400006000196123b2565b821115611a0557604051631cd951a760e01b815260048101839052602401610b45565b50670de0b6b3a76400000290565b600061165c6117728484611a9c565b600061165c6117728385612157565b600061165c61177283856120b5565b606082611a5557611a5082611b52565b61165c565b8151158015611a6c57506001600160a01b0384163b155b15611a9557604051639996b31560e01b81526001600160a01b0385166004820152602401610b45565b508061165c565b6000808060001984860984860292508281108382030391505080600003611ad05750670de0b6b3a7640000900490506119a7565b670de0b6b3a76400008110611b0257604051635173648d60e01b81526004810186905260248101859052604401610b45565b6000670de0b6b3a764000085870962040000818503049310909103600160ee1b02919091177faccb18165bd6fe31ae1cf318dc5b51eee0e1ba569b88cd74c1773b91fac106690291505092915050565b805115611b625780518082602001fd5b60405163d6bda27560e01b815260040160405180910390fd5b6040518061100001604052806080906020820280368337509192915050565b60405180602001604052806001906020820280368337509192915050565b80356001600160a01b0381168114611bcf57600080fd5b919050565b600060208284031215611be657600080fd5b61165c82611bb8565b600060208284031215611c0157600080fd5b5035919050565b634e487b7160e01b600052604160045260246000fd5b60008060408385031215611c3157600080fd5b611c3a83611bb8565b915060208301356001600160401b03811115611c5557600080fd5b8301601f81018513611c6657600080fd5b80356001600160401b03811115611c7f57611c7f611c08565b604051601f8201601f19908116603f011681016001600160401b0381118282101715611cad57611cad611c08565b604052818152828201602001871015611cc557600080fd5b816020840160208301376000602083830101528093505050509250929050565b80356001600160401b0381168114611bcf57600080fd5b803563ffffffff81168114611bcf57600080fd5b80356001600160801b031981168114611bcf57600080fd5b80604081018310156119a757600080fd5b80608081018310156119a757600080fd5b6000806000806000806000806000806102008b8d031215611d6a57600080fd5b8a359950611d7a60208c01611ce5565b9850611d8860408c01611cfc565b9750611d9660608c01611d10565b9650611da58c60808d01611d28565b9550611db48c60c08d01611d39565b9450611dc48c6101408d01611d39565b93506101c08b013592506101e08b01356001600160401b03811115611de857600080fd5b8b01601f81018d13611df957600080fd5b80356001600160401b03811115611e0f57600080fd5b8d6020828401011115611e2157600080fd5b60208201935080925050509295989b9194979a5092959850565b60008083601f840112611e4d57600080fd5b5081356001600160401b03811115611e6457600080fd5b6020830191508360208260051b850101111561178657600080fd5b60008060008060008060008060006101e08a8c031215611e9e57600080fd5b89359850611eae60208b01611ce5565b9750611ebc60408b01611cfc565b9650611eca60608b01611d10565b9550611ed98b60808c01611d28565b9450611ee88b60c08c01611d39565b9350611ef88b6101408c01611d39565b92506101c08a01356001600160401b03811115611f1457600080fd5b611f208c828d01611e3b565b915080935050809150509295985092959850929598565b60005b83811015611f52578181015183820152602001611f3a565b50506000910152565b6020815260008251806020840152611f7a816040850160208701611f37565b601f01601f19169190910160400192915050565b600060208284031215611fa057600080fd5b61165c82611cfc565b600080600060408486031215611fbe57600080fd5b8335925060208401356001600160401b03811115611fdb57600080fd5b611fe786828701611e3b565b9497909650939450505050565b6000806000806080858703121561200a57600080fd5b61201385611bb8565b935061202160208601611bb8565b925061202f60408601611bb8565b915061203d60608601611bb8565b905092959194509250565b634e487b7160e01b600052601160045260246000fd5b80820281158282048414176119a7576119a7612048565b634e487b7160e01b600052601260045260246000fd5b60008261209a5761209a612075565b500690565b634e487b7160e01b600052603260045260246000fd5b808201808211156119a7576119a7612048565b60008183825b60808110156120ed5781518352602092830192909101906001016120ce565b5050506110008201905092915050565b63ffffffff82811682821603908111156119a7576119a7612048565b600063ffffffff821663ffffffff810361213557612135612048565b60010192915050565b60006020828403121561215057600080fd5b5051919050565b818103818111156119a7576119a7612048565b63ffffffff81811683821601908111156119a7576119a7612048565b60408183375050565b60808183375050565b6001600160e01b031960e08d811b82168352600483018d90526001600160c01b031960c08d901b1660248401526bffffffffffffffffffffffff1960608c901b16602c84015289901b1660408201526001600160801b0319871660448201528560548201528460748201526122106094820185612186565b61221d60d482018461218f565b61222b61015482018361218f565b6101d4019b9a5050505050505050505050565b6001815b60018411156122795780850481111561225d5761225d612048565b600184161561226b57908102905b60019390931c928002612242565b935093915050565b600082612290575060016119a7565b8161229d575060006119a7565b81600181146122b357600281146122bd576122d9565b60019150506119a7565b60ff8411156122ce576122ce612048565b50506001821b6119a7565b5060208310610133831016604e8410600b84101617156122fc575081810a6119a7565b612309600019848461223e565b806000190482111561231d5761231d612048565b029392505050565b600061165c8383612281565b634e487b7160e01b600052600160045260246000fd5b60408582376080846040830137600060c082018460005b600281101561237d57815183526020928301929091019060010161235e565b5050506080836101008401375061018001949350505050565b600082516123a8818460208701611f37565b9190910192915050565b6000826123c1576123c1612075565b50049056fe360894a13ba1a3210667c828492db98dca3e2076cc3735a920a3ca505d382bbca2646970667358221220b32f715dac8086fbf91dc67fa95026e987e78362d940e2200852552c7c51481964736f6c634300081b0033",
  "linkReferences": {},
  "deployedLinkReferences": {}
}