{
  "_format": "hh-sol-artifact-1",
  "contractName": "Rollup",
  "sourceName": "contracts/rollup/Rollup.sol",
  "abi": [
    {
      "inputs": [],
      "stateMutability": "nonpayable",
      "type": "constructor"
    },
    {
      "inputs": [
        {
          "internalType": "address",
          "name": "target",
          "type": "address"
        }
      ],
      "name": "AddressEmptyCode",
      "type": "error"
    },
    {
      "inputs": [],
      "name": "AddressZero",
      "type": "error"
    },
    {
      "inputs": [],
      "name": "BlockNumberOutOfRange",
      "type": "error"
    },
    {
      "inputs": [
        {
          "internalType": "address",
          "name": "implementation",
          "type": "address"
        }
      ],
      "name": "ERC1967InvalidImplementation",
      "type": "error"
    },
    {
      "inputs": [],
      "name": "ERC1967NonPayable",
      "type": "error"
    },
    {
      "inputs": [],
      "name": "FailedCall",
      "type": "error"
    },
    {
      "inputs": [],
      "name": "InsufficientPenaltyFee",
      "type": "error"
    },
    {
      "inputs": [],
      "name": "InvalidInitialization",
      "type": "error"
    },
    {
      "inputs": [],
      "name": "MerkleTreeFull",
      "type": "error"
    },
    {
      "inputs": [],
      "name": "NotInitializing",
      "type": "error"
    },
    {
      "inputs": [],
      "name": "OnlyLiquidity",
      "type": "error"
    },
    {
      "inputs": [],
      "name": "OnlyScrollMessenger",
      "type": "error"
    },
    {
      "inputs": [
        {
          "internalType": "address",
          "name": "owner",
          "type": "address"
        }
      ],
      "name": "OwnableInvalidOwner",
      "type": "error"
    },
    {
      "inputs": [
        {
          "internalType": "address",
          "name": "account",
          "type": "address"
        }
      ],
      "name": "OwnableUnauthorizedAccount",
      "type": "error"
    },
    {
      "inputs": [
        {
          "internalType": "uint256",
          "name": "x",
          "type": "uint256"
        },
        {
          "internalType": "uint256",
          "name": "y",
          "type": "uint256"
        }
      ],
      "name": "PRBMath_MulDiv18_Overflow",
      "type": "error"
    },
    {
      "inputs": [
        {
          "internalType": "uint256",
          "name": "x",
          "type": "uint256"
        }
      ],
      "name": "PRBMath_UD60x18_Convert_Overflow",
      "type": "error"
    },
    {
      "inputs": [],
      "name": "PairingCheckFailed",
      "type": "error"
    },
    {
      "inputs": [],
      "name": "PairingOpCodeFailed",
      "type": "error"
    },
    {
      "inputs": [],
      "name": "SenderAccountIdsInvalidLength",
      "type": "error"
    },
    {
      "inputs": [],
      "name": "TooManyAccountIds",
      "type": "error"
    },
    {
      "inputs": [],
      "name": "TooManySenderPublicKeys",
      "type": "error"
    },
    {
      "inputs": [],
      "name": "UUPSUnauthorizedCallContext",
      "type": "error"
    },
    {
      "inputs": [
        {
          "internalType": "bytes32",
          "name": "slot",
          "type": "bytes32"
        }
      ],
      "name": "UUPSUnsupportedProxiableUUID",
      "type": "error"
    },
    {
      "anonymous": false,
      "inputs": [
        {
          "indexed": true,
          "internalType": "bytes32",
          "name": "prevBlockHash",
          "type": "bytes32"
        },
        {
          "indexed": true,
          "internalType": "address",
          "name": "blockBuilder",
          "type": "address"
        },
        {
          "indexed": false,
          "internalType": "uint256",
          "name": "blockNumber",
          "type": "uint256"
        },
        {
          "indexed": false,
          "internalType": "bytes32",
          "name": "depositTreeRoot",
          "type": "bytes32"
        },
        {
          "indexed": false,
          "internalType": "bytes32",
          "name": "signatureHash",
          "type": "bytes32"
        }
      ],
      "name": "BlockPosted",
      "type": "event"
    },
    {
      "anonymous": false,
      "inputs": [
        {
          "indexed": true,
          "internalType": "uint32",
          "name": "depositIndex",
          "type": "uint32"
        },
        {
          "indexed": true,
          "internalType": "bytes32",
          "name": "depositHash",
          "type": "bytes32"
        }
      ],
      "name": "DepositLeafInserted",
      "type": "event"
    },
    {
      "anonymous": false,
      "inputs": [
        {
          "indexed": true,
          "internalType": "uint256",
          "name": "lastProcessedDepositId",
          "type": "uint256"
        },
        {
          "indexed": false,
          "internalType": "bytes32",
          "name": "depositTreeRoot",
          "type": "bytes32"
        }
      ],
      "name": "DepositsProcessed",
      "type": "event"
    },
    {
      "anonymous": false,
      "inputs": [
        {
          "indexed": false,
          "internalType": "uint64",
          "name": "version",
          "type": "uint64"
        }
      ],
      "name": "Initialized",
      "type": "event"
    },
    {
      "anonymous": false,
      "inputs": [
        {
          "indexed": true,
          "internalType": "address",
          "name": "previousOwner",
          "type": "address"
        },
        {
          "indexed": true,
          "internalType": "address",
          "name": "newOwner",
          "type": "address"
        }
      ],
      "name": "OwnershipTransferred",
      "type": "event"
    },
    {
      "anonymous": false,
      "inputs": [
        {
          "indexed": true,
          "internalType": "address",
          "name": "implementation",
          "type": "address"
        }
      ],
      "name": "Upgraded",
      "type": "event"
    },
    {
      "inputs": [],
      "name": "UPGRADE_INTERFACE_VERSION",
      "outputs": [
        {
          "internalType": "string",
          "name": "",
          "type": "string"
        }
      ],
      "stateMutability": "view",
      "type": "function"
    },
    {
      "inputs": [
        {
          "internalType": "uint256",
          "name": "",
          "type": "uint256"
        }
      ],
      "name": "blockBuilders",
      "outputs": [
        {
          "internalType": "address",
          "name": "",
          "type": "address"
        }
      ],
      "stateMutability": "view",
      "type": "function"
    },
    {
      "inputs": [
        {
          "internalType": "uint256",
          "name": "",
          "type": "uint256"
        }
      ],
      "name": "blockHashes",
      "outputs": [
        {
          "internalType": "bytes32",
          "name": "",
          "type": "bytes32"
        }
      ],
      "stateMutability": "view",
      "type": "function"
    },
    {
      "inputs": [],
      "name": "depositIndex",
      "outputs": [
        {
          "internalType": "uint32",
          "name": "",
          "type": "uint32"
        }
      ],
      "stateMutability": "view",
      "type": "function"
    },
    {
      "inputs": [],
      "name": "depositTreeRoot",
      "outputs": [
        {
          "internalType": "bytes32",
          "name": "",
          "type": "bytes32"
        }
      ],
      "stateMutability": "view",
      "type": "function"
    },
    {
      "inputs": [
        {
          "internalType": "uint32",
          "name": "blockNumber",
          "type": "uint32"
        }
      ],
      "name": "getBlockBuilder",
      "outputs": [
        {
          "internalType": "address",
          "name": "",
          "type": "address"
        }
      ],
      "stateMutability": "view",
      "type": "function"
    },
    {
      "inputs": [
        {
          "internalType": "uint32",
          "name": "blockNumber",
          "type": "uint32"
        }
      ],
      "name": "getBlockHash",
      "outputs": [
        {
          "internalType": "bytes32",
          "name": "",
          "type": "bytes32"
        }
      ],
      "stateMutability": "view",
      "type": "function"
    },
    {
      "inputs": [],
      "name": "getLatestBlockNumber",
      "outputs": [
        {
          "internalType": "uint32",
          "name": "",
          "type": "uint32"
        }
      ],
      "stateMutability": "view",
      "type": "function"
    },
    {
      "inputs": [
        {
          "internalType": "address",
          "name": "_scrollMessenger",
          "type": "address"
        },
        {
          "internalType": "address",
          "name": "_liquidity",
          "type": "address"
        },
        {
          "internalType": "address",
          "name": "_contribution",
          "type": "address"
        }
      ],
      "name": "initialize",
      "outputs": [],
      "stateMutability": "nonpayable",
      "type": "function"
    },
    {
      "inputs": [],
      "name": "lastProcessedDepositId",
      "outputs": [
        {
          "internalType": "uint256",
          "name": "",
          "type": "uint256"
        }
      ],
      "stateMutability": "view",
      "type": "function"
    },
    {
      "inputs": [],
      "name": "owner",
      "outputs": [
        {
          "internalType": "address",
          "name": "",
          "type": "address"
        }
      ],
      "stateMutability": "view",
      "type": "function"
    },
    {
      "inputs": [
        {
          "internalType": "bytes32",
          "name": "txTreeRoot",
          "type": "bytes32"
        },
        {
          "internalType": "bytes16",
          "name": "senderFlags",
          "type": "bytes16"
        },
        {
          "internalType": "bytes32[2]",
          "name": "aggregatedPublicKey",
          "type": "bytes32[2]"
        },
        {
          "internalType": "bytes32[4]",
          "name": "aggregatedSignature",
          "type": "bytes32[4]"
        },
        {
          "internalType": "bytes32[4]",
          "name": "messagePoint",
          "type": "bytes32[4]"
        },
        {
          "internalType": "bytes32",
          "name": "publicKeysHash",
          "type": "bytes32"
        },
        {
          "internalType": "bytes",
          "name": "senderAccountIds",
          "type": "bytes"
        }
      ],
      "name": "postNonRegistrationBlock",
      "outputs": [],
      "stateMutability": "payable",
      "type": "function"
    },
    {
      "inputs": [
        {
          "internalType": "bytes32",
          "name": "txTreeRoot",
          "type": "bytes32"
        },
        {
          "internalType": "bytes16",
          "name": "senderFlags",
          "type": "bytes16"
        },
        {
          "internalType": "bytes32[2]",
          "name": "aggregatedPublicKey",
          "type": "bytes32[2]"
        },
        {
          "internalType": "bytes32[4]",
          "name": "aggregatedSignature",
          "type": "bytes32[4]"
        },
        {
          "internalType": "bytes32[4]",
          "name": "messagePoint",
          "type": "bytes32[4]"
        },
        {
          "internalType": "uint256[]",
          "name": "senderPublicKeys",
          "type": "uint256[]"
        }
      ],
      "name": "postRegistrationBlock",
      "outputs": [],
      "stateMutability": "payable",
      "type": "function"
    },
    {
      "inputs": [
        {
          "internalType": "uint256",
          "name": "_lastProcessedDepositId",
          "type": "uint256"
        },
        {
          "internalType": "bytes32[]",
          "name": "depositHashes",
          "type": "bytes32[]"
        }
      ],
      "name": "processDeposits",
      "outputs": [],
      "stateMutability": "nonpayable",
      "type": "function"
    },
    {
      "inputs": [],
      "name": "proxiableUUID",
      "outputs": [
        {
          "internalType": "bytes32",
          "name": "",
          "type": "bytes32"
        }
      ],
      "stateMutability": "view",
      "type": "function"
    },
    {
      "inputs": [],
      "name": "renounceOwnership",
      "outputs": [],
      "stateMutability": "nonpayable",
      "type": "function"
    },
    {
      "inputs": [
        {
          "internalType": "address",
          "name": "newOwner",
          "type": "address"
        }
      ],
      "name": "transferOwnership",
      "outputs": [],
      "stateMutability": "nonpayable",
      "type": "function"
    },
    {
      "inputs": [
        {
          "internalType": "address",
          "name": "newImplementation",
          "type": "address"
        },
        {
          "internalType": "bytes",
          "name": "data",
          "type": "bytes"
        }
      ],
      "name": "upgradeToAndCall",
      "outputs": [],
      "stateMutability": "payable",
      "type": "function"
    },
    {
      "inputs": [
        {
          "internalType": "address",
          "name": "to",
          "type": "address"
        }
      ],
      "name": "withdrawPenaltyFee",
      "outputs": [],
      "stateMutability": "nonpayable",
      "type": "function"
    }
  ],
  "bytecode": "0x60a06040523073ffffffffffffffffffffffffffffffffffffffff1660809073ffffffffffffffffffffffffffffffffffffffff1681525034801561004357600080fd5b5061005261005760201b60201c565b6101c1565b600061006761015b60201b60201c565b90508060000160089054906101000a900460ff16156100b2576040517ff92ee8a900000000000000000000000000000000000000000000000000000000815260040160405180910390fd5b67ffffffffffffffff80168160000160009054906101000a900467ffffffffffffffff1667ffffffffffffffff16146101585767ffffffffffffffff8160000160006101000a81548167ffffffffffffffff021916908367ffffffffffffffff1602179055507fc7f505b2f371ae2175ee4913f4499e1f2633a7b5936321eed1cdaeb6115181d267ffffffffffffffff60405161014f91906101a6565b60405180910390a15b50565b60007ff0c57e16840df040f15088dc2f81fe391c3923bec73e23a9662efc9c229c6a00905090565b600067ffffffffffffffff82169050919050565b6101a081610183565b82525050565b60006020820190506101bb6000830184610197565b92915050565b6080516134746101ea6000396000818161108c015281816110e1015261129c01526134746000f3fe6080604052600436106101145760003560e01c8063842f1bfc116100a0578063c76c388411610064578063c76c388414610373578063c7bffeeb1461039e578063d2b210a1146103ba578063f03efa37146103f7578063f2fde38b1461042057610114565b8063842f1bfc1461029b5780638da5cb5b146102b7578063ad3cb1cc146102e2578063b568a0551461030d578063c0c53b8b1461034a57610114565b80634f1ef286116100e75780634f1ef286146101e757806352d1902d14610203578063567419c11461022e578063715018a6146102595780637b8989391461027057610114565b806306f743c0146101195780631d9a07b91461015657806325d89cfd1461018157806334cdf78d146101aa575b600080fd5b34801561012557600080fd5b50610140600480360381019061013b919061233c565b610449565b60405161014d91906123aa565b60405180910390f35b34801561016257600080fd5b5061016b6104e5565b60405161017891906123de565b60405180910390f35b34801561018d57600080fd5b506101a860048036038101906101a39190612425565b6104eb565b005b3480156101b657600080fd5b506101d160048036038101906101cc9190612488565b61053d565b6040516101de91906123de565b60405180910390f35b61020160048036038101906101fc91906125fb565b610561565b005b34801561020f57600080fd5b50610218610580565b60405161022591906123de565b60405180910390f35b34801561023a57600080fd5b506102436105b3565b6040516102509190612666565b60405180910390f35b34801561026557600080fd5b5061026e6105b9565b005b34801561027c57600080fd5b506102856105cd565b6040516102929190612690565b60405180910390f35b6102b560048036038101906102b091906127d3565b6105e3565b005b3480156102c357600080fd5b506102cc610803565b6040516102d991906123aa565b60405180910390f35b3480156102ee57600080fd5b506102f761083b565b6040516103049190612918565b60405180910390f35b34801561031957600080fd5b50610334600480360381019061032f9190612488565b610874565b60405161034191906123aa565b60405180910390f35b34801561035657600080fd5b50610371600480360381019061036c919061293a565b6108b3565b005b34801561037f57600080fd5b50610388610c0d565b6040516103959190612690565b60405180910390f35b6103b860048036038101906103b391906129e3565b610c2a565b005b3480156103c657600080fd5b506103e160048036038101906103dc919061233c565b610d58565b6040516103ee91906123de565b60405180910390f35b34801561040357600080fd5b5061041e60048036038101906104199190612aeb565b610dd4565b005b34801561042c57600080fd5b5061044760048036038101906104429190612425565b610f6f565b005b60006104556002610ff5565b63ffffffff168263ffffffff1610610499576040517f98f1199600000000000000000000000000000000000000000000000000000000815260040160405180910390fd5b60038263ffffffff16815481106104b3576104b2612b4b565b5b9060005260206000200160009054906101000a900473ffffffffffffffffffffffffffffffffffffffff169050919050565b602a5481565b6104f3611003565b8073ffffffffffffffffffffffffffffffffffffffff166108fc479081150290604051600060405180830381858888f19350505050158015610539573d6000803e3d6000fd5b5050565b6002818154811061054d57600080fd5b906000526020600020016000915090505481565b61056961108a565b61057282611170565b61057c828261117b565b5050565b600061058a61129a565b7f360894a13ba1a3210667c828492db98dca3e2076cc3735a920a3ca505d382bbc60001b905090565b60015481565b6105c1611003565b6105cb6000611321565b565b602b60009054906101000a900463ffffffff1681565b6105eb6113f8565b6000828290509050600560806106019190612ba9565b81111561063a576040517f6771216a00000000000000000000000000000000000000000000000000000000815260040160405180910390fd5b60006005826106499190612c1a565b14610680576040517f41adec0d00000000000000000000000000000000000000000000000000000000815260040160405180910390fd5b6000600560806106909190612ba9565b67ffffffffffffffff8111156106a9576106a86124d0565b5b6040519080825280601f01601f1916602001820160405280156106db5781602001600182028036833780820191505090505b50905060005b82811015610755578484828181106106fc576106fb612b4b565b5b9050013560f81c60f81b82828151811061071957610718612b4b565b5b60200101907effffffffffffffffffffffffffffffffffffffffffffffffffffffffffffff1916908160001a90535080806001019150506106e1565b5060008290505b6005608061076a9190612ba9565b8110156107d857600160f81b826004836107849190612c4b565b8151811061079557610794612b4b565b5b60200101907effffffffffffffffffffffffffffffffffffffffffffffffffffffffffffff1916908160001a9053506005816107d19190612c4b565b905061075c565b506000818051906020012090506107f660008c8c89858e8e8e6114ac565b5050505050505050505050565b60008061080e611649565b90508060000160009054906101000a900473ffffffffffffffffffffffffffffffffffffffff1691505090565b6040518060400160405280600581526020017f352e302e3000000000000000000000000000000000000000000000000000000081525081565b6003818154811061088457600080fd5b906000526020600020016000915054906101000a900473ffffffffffffffffffffffffffffffffffffffff1681565b60006108bd611671565b905060008160000160089054906101000a900460ff1615905060008260000160009054906101000a900467ffffffffffffffff1690506000808267ffffffffffffffff1614801561090b5750825b9050600060018367ffffffffffffffff16148015610940575060003073ffffffffffffffffffffffffffffffffffffffff163b145b90508115801561094e575080155b15610985576040517ff92ee8a900000000000000000000000000000000000000000000000000000000815260040160405180910390fd5b60018560000160006101000a81548167ffffffffffffffff021916908367ffffffffffffffff16021790555083156109d55760018560000160086101000a81548160ff0219169083151502179055505b6109e56109e0611699565b6116a1565b6109ed6116b5565b6109f760066116bf565b87600460006101000a81548173ffffffffffffffffffffffffffffffffffffffff021916908373ffffffffffffffffffffffffffffffffffffffff160217905550866000806101000a81548173ffffffffffffffffffffffffffffffffffffffff021916908373ffffffffffffffffffffffffffffffffffffffff16021790555085600560006101000a81548173ffffffffffffffffffffffffffffffffffffffff021916908373ffffffffffffffffffffffffffffffffffffffff160217905550610b27600660405180606001604052908160008201602080602002604051908101604052809291908260208015610b05576020028201915b815481526020019060010190808311610af1575b50505050508152602001602082015481526020016021820154815250506116f8565b602a81905550610b43602a5460026117e890919063ffffffff16565b600360009080600181540180825580915050600190039060005260206000200160009091909190916101000a81548173ffffffffffffffffffffffffffffffffffffffff021916908373ffffffffffffffffffffffffffffffffffffffff1602179055508315610c035760008560000160086101000a81548160ff0219169083151502179055507fc7f505b2f371ae2175ee4913f4499e1f2633a7b5936321eed1cdaeb6115181d26001604051610bfa9190612cd8565b60405180910390a15b5050505050505050565b60006001610c1b6002610ff5565b610c259190612cf3565b905090565b610c326113f8565b60008282905090506080811115610c75576040517f07b556c900000000000000000000000000000000000000000000000000000000815260040160405180910390fd5b610c7d6122a7565b60005b82811015610ccb57848482818110610c9b57610c9a612b4b565b5b90506020020135828260808110610cb557610cb4612b4b565b5b6020020181815250508080600101915050610c80565b5060008290505b6080811015610d06576001828260808110610cf057610cef612b4b565b5b6020020181815250508080600101915050610cd2565b50600081604051602001610d1a9190612dd6565b60405160208183030381529060405280519060200120905060008060001b9050610d4b60018c8c85858e8e8e6114ac565b5050505050505050505050565b6000610d646002610ff5565b63ffffffff168263ffffffff1610610da8576040517f98f1199600000000000000000000000000000000000000000000000000000000815260040160405180910390fd5b60028263ffffffff1681548110610dc257610dc1612b4b565b5b90600052602060002001549050919050565b6000602b60009054906101000a900463ffffffff16905060005b83839050811015610e8e57610e26848483818110610e0f57610e0e612b4b565b5b90506020020135600661182690919063ffffffff16565b838382818110610e3957610e38612b4b565b5b905060200201358263ffffffff167f529a1f0fdd7142aabe2b12dd8590a30a26c8427b5200ad8c775a5b4aa03fb41d60405160405180910390a38180610e7e90612df2565b9250508080600101915050610dee565b5080602b60006101000a81548163ffffffff021916908363ffffffff160217905550836001819055506000610f27600660405180606001604052908160008201602080602002604051908101604052809291908260208015610f05576020028201915b815481526020019060010190808311610ef1575b50505050508152602001602082015481526020016021820154815250506116f8565b905080602a81905550847f598fdeda3e3b7298359a08c9a438151e3481bdcf3c3ff9906fa71dcc723617b082604051610f6091906123de565b60405180910390a25050505050565b610f77611003565b600073ffffffffffffffffffffffffffffffffffffffff168173ffffffffffffffffffffffffffffffffffffffff1603610fe95760006040517f1e4fbdf7000000000000000000000000000000000000000000000000000000008152600401610fe091906123aa565b60405180910390fd5b610ff281611321565b50565b600081805490509050919050565b61100b611699565b73ffffffffffffffffffffffffffffffffffffffff16611029610803565b73ffffffffffffffffffffffffffffffffffffffff16146110885761104c611699565b6040517f118cdaa700000000000000000000000000000000000000000000000000000000815260040161107f91906123aa565b60405180910390fd5b565b7f000000000000000000000000000000000000000000000000000000000000000073ffffffffffffffffffffffffffffffffffffffff163073ffffffffffffffffffffffffffffffffffffffff16148061113757507f000000000000000000000000000000000000000000000000000000000000000073ffffffffffffffffffffffffffffffffffffffff1661111e611945565b73ffffffffffffffffffffffffffffffffffffffff1614155b1561116e576040517fe07c8dba00000000000000000000000000000000000000000000000000000000815260040160405180910390fd5b565b611178611003565b50565b8173ffffffffffffffffffffffffffffffffffffffff166352d1902d6040518163ffffffff1660e01b8152600401602060405180830381865afa9250505080156111e357506040513d601f19601f820116820180604052508101906111e09190612e33565b60015b61122457816040517f4c9c8ce300000000000000000000000000000000000000000000000000000000815260040161121b91906123aa565b60405180910390fd5b7f360894a13ba1a3210667c828492db98dca3e2076cc3735a920a3ca505d382bbc60001b811461128b57806040517faa1d49a400000000000000000000000000000000000000000000000000000000815260040161128291906123de565b60405180910390fd5b611295838361199c565b505050565b7f000000000000000000000000000000000000000000000000000000000000000073ffffffffffffffffffffffffffffffffffffffff163073ffffffffffffffffffffffffffffffffffffffff161461131f576040517fe07c8dba00000000000000000000000000000000000000000000000000000000815260040160405180910390fd5b565b600061132b611649565b905060008160000160009054906101000a900473ffffffffffffffffffffffffffffffffffffffff169050828260000160006101000a81548173ffffffffffffffffffffffffffffffffffffffff021916908373ffffffffffffffffffffffffffffffffffffffff1602179055508273ffffffffffffffffffffffffffffffffffffffff168173ffffffffffffffffffffffffffffffffffffffff167f8be0079c531659141344cd1fd0a4f28419497f9722a3daafe3b4186f6b6457e060405160405180910390a3505050565b60006114046028611a0f565b905034811115611440576040517f4686819200000000000000000000000000000000000000000000000000000000815260040160405180910390fd5b6000813461144e9190612e60565b905060008111156114a857611461611699565b73ffffffffffffffffffffffffffffffffffffffff166108fc829081150290604051600060405180830381858888f193505050501580156114a6573d6000803e3d6000fd5b505b5050565b60006114b9848484611b2f565b9050806114f2576040517f0f2512a200000000000000000000000000000000000000000000000000000000815260040160405180910390fd5b600089611500576000611503565b60015b60ff1689898989898989604051602001611524989796959493929190612f35565b60405160208183030381529060405280519060200120905060006115486002610ff5565b905060006115566002611c1d565b90506000602a54905061157581856002611c549092919063ffffffff16565b506003611580611699565b9080600181540180825580915050600190039060005260206000200160009091909190916101000a81548173ffffffffffffffffffffffffffffffffffffffff021916908373ffffffffffffffffffffffffffffffffffffffff1602179055506115e8611699565b73ffffffffffffffffffffffffffffffffffffffff16827fe27163b76905dc373b4ad854ddc9403bbac659c5f1c5191c39e5a7c44574040a85848860405161163293929190612ff8565b60405180910390a350505050505050505050505050565b60007f9016d09d72d40fdae2fd8ceac6b6234c7706214fd39c1cd1e609a0528c199300905090565b60007ff0c57e16840df040f15088dc2f81fe391c3923bec73e23a9662efc9c229c6a00905090565b600033905090565b6116a9611ca3565b6116b281611ce3565b50565b6116bd611ca3565b565b6116ed60405180606001604052806000801b8152602001600063ffffffff1681526020016000815250611d69565b816021018190555050565b6000808260400151905060008360200151905060008460400151905060005b60208110156117dc576001808285901c1603611778578560000151816020811061174457611743612b4b565b5b60200201518460405160200161175b92919061302f565b6040516020818303038152906040528051906020012093506117a4565b838260405160200161178b92919061302f565b6040516020818303038152906040528051906020012093505b81826040516020016117b792919061302f565b6040516020818303038152906040528051906020012091508080600101915050611717565b50829350505050919050565b816117fc6000801b836000801b6000611da9565b90806001815401808255809150506001900390600052602060002001600090919091909150555050565b6000819050600083602001549050600160206002611844919061318e565b61184e9190612e60565b8110611886576040517fef5ccf6600000000000000000000000000000000000000000000000000000000815260040160405180910390fd5b60006001826118959190612c4b565b905080856020018190555060005b602081101561192d576001808284901c16036118de57838660000182602081106118d0576118cf612b4b565b5b018190555050505050611941565b8560000181602081106118f4576118f3612b4b565b5b01548460405160200161190892919061302f565b60405160208183030381529060405280519060200120935080806001019150506118a3565b50600061193d5761193c6131d9565b5b5050505b5050565b60006119737f360894a13ba1a3210667c828492db98dca3e2076cc3735a920a3ca505d382bbc60001b611de2565b60000160009054906101000a900473ffffffffffffffffffffffffffffffffffffffff16905090565b6119a582611dec565b8173ffffffffffffffffffffffffffffffffffffffff167fbc7cd75a20ee27fd9adebab32041f755214dbc6bffa90cc0225b39da2e5c2d3b60405160405180910390a2600081511115611a02576119fc8282611eb9565b50611a0b565b611a0a611f3d565b5b5050565b6000804290506000611a2867d02ab486cedc0000611f7a565b90506000846000015403611a5357818460000181905550808460010181905550600092505050611b2a565b6000611a666704a03ce68d215555611f7a565b90506000611a82866000015485611a7d9190612e60565b611f84565b90506000611ab8611a938484612010565b611ab3611aa9611aa36001611f84565b8761203c565b8a60010154612010565b61206a565b9050808760010181905550848760000181905550611ad68185612098565b15611b20576000611ae7858361203c565b9050611b13611b0e611b08611b0266038d7ea4c68000611f7a565b84612010565b83612010565b6120b5565b9650505050505050611b2a565b6000955050505050505b919050565b60008084836040518060400160405280600181526020017f30644e72e131a029b85045b68181585d97816a916871ca8d3c208c16d87cfd4581525086604051602001611b7e949392919061328c565b6040516020818303038152906040529050611b976122ca565b60008083519050602083826020870160086107d05a03fa91508160008103611bbb57fe5b5081611bf3576040517fdef2011f00000000000000000000000000000000000000000000000000000000815260040160405180910390fd5b600083600060018110611c0957611c08612b4b565b5b602002015114159450505050509392505050565b60008160018380549050611c319190612e60565b81548110611c4257611c41612b4b565b5b90600052602060002001549050919050565b6000611c72611c6285611c1d565b8484611c6d88610ff5565b611da9565b9050838190806001815401808255809150506001900390600052602060002001600090919091909150559392505050565b611cab6120bf565b611ce1576040517fd7e6bcf800000000000000000000000000000000000000000000000000000000815260040160405180910390fd5b565b611ceb611ca3565b600073ffffffffffffffffffffffffffffffffffffffff168173ffffffffffffffffffffffffffffffffffffffff1603611d5d5760006040517f1e4fbdf7000000000000000000000000000000000000000000000000000000008152600401611d5491906123aa565b60405180910390fd5b611d6681611321565b50565b6000816000015182602001518360400151604051602001611d8c939291906132fb565b604051602081830303815290604052805190602001209050919050565b600084848484604051602001611dc29493929190613338565b604051602081830303815290604052805190602001209050949350505050565b6000819050919050565b60008173ffffffffffffffffffffffffffffffffffffffff163b03611e4857806040517f4c9c8ce3000000000000000000000000000000000000000000000000000000008152600401611e3f91906123aa565b60405180910390fd5b80611e757f360894a13ba1a3210667c828492db98dca3e2076cc3735a920a3ca505d382bbc60001b611de2565b60000160006101000a81548173ffffffffffffffffffffffffffffffffffffffff021916908373ffffffffffffffffffffffffffffffffffffffff16021790555050565b60606000808473ffffffffffffffffffffffffffffffffffffffff1684604051611ee391906133cd565b600060405180830381855af49150503d8060008114611f1e576040519150601f19603f3d011682016040523d82523d6000602084013e611f23565b606091505b5091509150611f338583836120df565b9250505092915050565b6000341115611f78576040517fb398979f00000000000000000000000000000000000000000000000000000000815260040160405180910390fd5b565b6000819050919050565b6000670de0b6b3a76400007fffffffffffffffffffffffffffffffffffffffffffffffffffffffffffffffff611fba91906133e4565b821115611ffe57816040517f1cd951a7000000000000000000000000000000000000000000000000000000008152600401611ff59190612666565b60405180910390fd5b670de0b6b3a764000082029050919050565b600061203461202f612021856120b5565b61202a856120b5565b61216e565b612258565b905092915050565b600061206261204a836120b5565b612053856120b5565b61205d9190612e60565b612258565b905092915050565b6000612090612078836120b5565b612081856120b5565b61208b9190612c4b565b612258565b905092915050565b60006120a3826120b5565b6120ac846120b5565b10905092915050565b6000819050919050565b60006120c9611671565b60000160089054906101000a900460ff16905090565b6060826120f4576120ef82612262565b612166565b6000825114801561211c575060008473ffffffffffffffffffffffffffffffffffffffff163b145b1561215e57836040517f9996b31500000000000000000000000000000000000000000000000000000000815260040161215591906123aa565b60405180910390fd5b819050612167565b5b9392505050565b60008060008019848609848602925082811083820303915050600081036121b157670de0b6b3a764000082816121a7576121a6612beb565b5b0492505050612252565b670de0b6b3a764000081106121ff5784846040517f5173648d0000000000000000000000000000000000000000000000000000000081526004016121f6929190613415565b60405180910390fd5b6000670de0b6b3a764000085870990507faccb18165bd6fe31ae1cf318dc5b51eee0e1ba569b88cd74c1773b91fac106696001620400008060000304018483118403026204000083860304170293505050505b92915050565b6000819050919050565b6000815111156122755780518082602001fd5b6040517fd6bda27500000000000000000000000000000000000000000000000000000000815260040160405180910390fd5b604051806110000160405280608090602082028036833780820191505090505090565b6040518060200160405280600190602082028036833780820191505090505090565b6000604051905090565b600080fd5b600080fd5b600063ffffffff82169050919050565b61231981612300565b811461232457600080fd5b50565b60008135905061233681612310565b92915050565b600060208284031215612352576123516122f6565b5b600061236084828501612327565b91505092915050565b600073ffffffffffffffffffffffffffffffffffffffff82169050919050565b600061239482612369565b9050919050565b6123a481612389565b82525050565b60006020820190506123bf600083018461239b565b92915050565b6000819050919050565b6123d8816123c5565b82525050565b60006020820190506123f360008301846123cf565b92915050565b61240281612389565b811461240d57600080fd5b50565b60008135905061241f816123f9565b92915050565b60006020828403121561243b5761243a6122f6565b5b600061244984828501612410565b91505092915050565b6000819050919050565b61246581612452565b811461247057600080fd5b50565b6000813590506124828161245c565b92915050565b60006020828403121561249e5761249d6122f6565b5b60006124ac84828501612473565b91505092915050565b600080fd5b600080fd5b6000601f19601f8301169050919050565b7f4e487b7100000000000000000000000000000000000000000000000000000000600052604160045260246000fd5b612508826124bf565b810181811067ffffffffffffffff82111715612527576125266124d0565b5b80604052505050565b600061253a6122ec565b905061254682826124ff565b919050565b600067ffffffffffffffff821115612566576125656124d0565b5b61256f826124bf565b9050602081019050919050565b82818337600083830152505050565b600061259e6125998461254b565b612530565b9050828152602081018484840111156125ba576125b96124ba565b5b6125c584828561257c565b509392505050565b600082601f8301126125e2576125e16124b5565b5b81356125f284826020860161258b565b91505092915050565b60008060408385031215612612576126116122f6565b5b600061262085828601612410565b925050602083013567ffffffffffffffff811115612641576126406122fb565b5b61264d858286016125cd565b9150509250929050565b61266081612452565b82525050565b600060208201905061267b6000830184612657565b92915050565b61268a81612300565b82525050565b60006020820190506126a56000830184612681565b92915050565b6126b4816123c5565b81146126bf57600080fd5b50565b6000813590506126d1816126ab565b92915050565b60007fffffffffffffffffffffffffffffffff0000000000000000000000000000000082169050919050565b61270c816126d7565b811461271757600080fd5b50565b60008135905061272981612703565b92915050565b600080fd5b6000819050826020600202820111156127505761274f61272f565b5b92915050565b6000819050826020600402820111156127725761277161272f565b5b92915050565b600080fd5b60008083601f840112612793576127926124b5565b5b8235905067ffffffffffffffff8111156127b0576127af612778565b5b6020830191508360018202830111156127cc576127cb61272f565b5b9250929050565b6000806000806000806000806101c0898b0312156127f4576127f36122f6565b5b60006128028b828c016126c2565b98505060206128138b828c0161271a565b97505060406128248b828c01612734565b96505060806128358b828c01612756565b9550506101006128478b828c01612756565b9450506101806128598b828c016126c2565b9350506101a089013567ffffffffffffffff81111561287b5761287a6122fb565b5b6128878b828c0161277d565b92509250509295985092959890939650565b600081519050919050565b600082825260208201905092915050565b60005b838110156128d35780820151818401526020810190506128b8565b60008484015250505050565b60006128ea82612899565b6128f481856128a4565b93506129048185602086016128b5565b61290d816124bf565b840191505092915050565b6000602082019050818103600083015261293281846128df565b905092915050565b600080600060608486031215612953576129526122f6565b5b600061296186828701612410565b935050602061297286828701612410565b925050604061298386828701612410565b9150509250925092565b60008083601f8401126129a3576129a26124b5565b5b8235905067ffffffffffffffff8111156129c0576129bf612778565b5b6020830191508360208202830111156129dc576129db61272f565b5b9250929050565b60008060008060008060006101a0888a031215612a0357612a026122f6565b5b6000612a118a828b016126c2565b9750506020612a228a828b0161271a565b9650506040612a338a828b01612734565b9550506080612a448a828b01612756565b945050610100612a568a828b01612756565b93505061018088013567ffffffffffffffff811115612a7857612a776122fb565b5b612a848a828b0161298d565b925092505092959891949750929550565b60008083601f840112612aab57612aaa6124b5565b5b8235905067ffffffffffffffff811115612ac857612ac7612778565b5b602083019150836020820283011115612ae457612ae361272f565b5b9250929050565b600080600060408486031215612b0457612b036122f6565b5b6000612b1286828701612473565b935050602084013567ffffffffffffffff811115612b3357612b326122fb565b5b612b3f86828701612a95565b92509250509250925092565b7f4e487b7100000000000000000000000000000000000000000000000000000000600052603260045260246000fd5b7f4e487b7100000000000000000000000000000000000000000000000000000000600052601160045260246000fd5b6000612bb482612452565b9150612bbf83612452565b9250828202612bcd81612452565b91508282048414831517612be457612be3612b7a565b5b5092915050565b7f4e487b7100000000000000000000000000000000000000000000000000000000600052601260045260246000fd5b6000612c2582612452565b9150612c3083612452565b925082612c4057612c3f612beb565b5b828206905092915050565b6000612c5682612452565b9150612c6183612452565b9250828201905080821115612c7957612c78612b7a565b5b92915050565b6000819050919050565b600067ffffffffffffffff82169050919050565b6000819050919050565b6000612cc2612cbd612cb884612c7f565b612c9d565b612c89565b9050919050565b612cd281612ca7565b82525050565b6000602082019050612ced6000830184612cc9565b92915050565b6000612cfe82612300565b9150612d0983612300565b9250828203905063ffffffff811115612d2557612d24612b7a565b5b92915050565b600060809050919050565b600081905092915050565b6000819050919050565b612d5481612452565b82525050565b6000612d668383612d4b565b60208301905092915050565b6000602082019050919050565b612d8881612d2b565b612d928184612d36565b9250612d9d82612d41565b8060005b83811015612dce578151612db58782612d5a565b9650612dc083612d72565b925050600181019050612da1565b505050505050565b6000612de28284612d7f565b6110008201915081905092915050565b6000612dfd82612300565b915063ffffffff8203612e1357612e12612b7a565b5b600182019050919050565b600081519050612e2d816126ab565b92915050565b600060208284031215612e4957612e486122f6565b5b6000612e5784828501612e1e565b91505092915050565b6000612e6b82612452565b9150612e7683612452565b9250828203905081811115612e8e57612e8d612b7a565b5b92915050565b60008160e01b9050919050565b6000612eac82612e94565b9050919050565b612ec4612ebf82612300565b612ea1565b82525050565b6000819050919050565b612ee5612ee0826123c5565b612eca565b82525050565b6000819050919050565b612f06612f01826126d7565b612eeb565b82525050565b82818337505050565b612f2160408383612f0c565b5050565b612f3160808383612f0c565b5050565b6000612f41828b612eb3565b600482019150612f51828a612ed4565b602082019150612f618289612ef5565b601082019150612f718288612ed4565b602082019150612f818287612ed4565b602082019150612f918286612f15565b604082019150612fa18285612f25565b608082019150612fb18284612f25565b6080820191508190509998505050505050505050565b6000612fe2612fdd612fd884612300565b612c9d565b612452565b9050919050565b612ff281612fc7565b82525050565b600060608201905061300d6000830186612fe9565b61301a60208301856123cf565b61302760408301846123cf565b949350505050565b600061303b8285612ed4565b60208201915061304b8284612ed4565b6020820191508190509392505050565b60008160011c9050919050565b6000808291508390505b60018511156130b25780860481111561308e5761308d612b7a565b5b600185161561309d5780820291505b80810290506130ab8561305b565b9450613072565b94509492505050565b6000826130cb5760019050613187565b816130d95760009050613187565b81600181146130ef57600281146130f957613128565b6001915050613187565b60ff84111561310b5761310a612b7a565b5b8360020a91508482111561312257613121612b7a565b5b50613187565b5060208310610133831016604e8410600b841016171561315d5782820a90508381111561315857613157612b7a565b5b613187565b61316a8484846001613068565b9250905081840481111561318157613180612b7a565b5b81810290505b9392505050565b600061319982612452565b91506131a483612452565b92506131d17fffffffffffffffffffffffffffffffffffffffffffffffffffffffffffffffff84846130bb565b905092915050565b7f4e487b7100000000000000000000000000000000000000000000000000000000600052600160045260246000fd5b600060029050919050565b600081905092915050565b6000819050919050565b6000602082019050919050565b61323e81613208565b6132488184613213565b92506132538261321e565b8060005b8381101561328457815161326b8782612d5a565b965061327683613228565b925050600181019050613257565b505050505050565b60006132988287612f15565b6040820191506132a88286612f25565b6080820191506132b88285613235565b6040820191506132c88284612f25565b60808201915081905095945050505050565b6000819050919050565b6132f56132f082612452565b6132da565b82525050565b60006133078286612ed4565b6020820191506133178285612eb3565b60048201915061332782846132e4565b602082019150819050949350505050565b60006133448287612ed4565b6020820191506133548286612ed4565b6020820191506133648285612ed4565b6020820191506133748284612eb3565b60048201915081905095945050505050565b600081519050919050565b600081905092915050565b60006133a782613386565b6133b18185613391565b93506133c18185602086016128b5565b80840191505092915050565b60006133d9828461339c565b915081905092915050565b60006133ef82612452565b91506133fa83612452565b92508261340a57613409612beb565b5b828204905092915050565b600060408201905061342a6000830185612657565b6134376020830184612657565b939250505056fea2646970667358221220f872682d8bcfba203b3886a5d782f6352efc2579d6f7064d86ac060a3c5967c364736f6c634300081b0033",
  "linkReferences": {},
  "deployedLinkReferences": {}
}