{
  "_format": "hh-sol-artifact-1",
  "contractName": "Rollup",
  "sourceName": "contracts/rollup/Rollup.sol",
  "abi": [
    {
      "inputs": [],
      "stateMutability": "nonpayable",
      "type": "constructor"
    },
    {
      "inputs": [
        {
          "internalType": "address",
          "name": "target",
          "type": "address"
        }
      ],
      "name": "AddressEmptyCode",
      "type": "error"
    },
    {
      "inputs": [],
      "name": "AddressZero",
      "type": "error"
    },
    {
      "inputs": [],
      "name": "BlockNumberOutOfRange",
      "type": "error"
    },
    {
      "inputs": [
        {
          "internalType": "address",
          "name": "implementation",
          "type": "address"
        }
      ],
      "name": "ERC1967InvalidImplementation",
      "type": "error"
    },
    {
      "inputs": [],
      "name": "ERC1967NonPayable",
      "type": "error"
    },
    {
      "inputs": [],
      "name": "Expired",
      "type": "error"
    },
    {
      "inputs": [],
      "name": "FailedCall",
      "type": "error"
    },
    {
      "inputs": [],
      "name": "InsufficientPenaltyFee",
      "type": "error"
    },
    {
      "inputs": [],
      "name": "InvalidInitialization",
      "type": "error"
    },
    {
      "inputs": [],
      "name": "MerkleTreeFull",
      "type": "error"
    },
    {
      "inputs": [],
      "name": "NotInitializing",
      "type": "error"
    },
    {
      "inputs": [],
      "name": "OnlyLiquidity",
      "type": "error"
    },
    {
      "inputs": [],
      "name": "OnlyScrollMessenger",
      "type": "error"
    },
    {
      "inputs": [
        {
          "internalType": "address",
          "name": "owner",
          "type": "address"
        }
      ],
      "name": "OwnableInvalidOwner",
      "type": "error"
    },
    {
      "inputs": [
        {
          "internalType": "address",
          "name": "account",
          "type": "address"
        }
      ],
      "name": "OwnableUnauthorizedAccount",
      "type": "error"
    },
    {
      "inputs": [
        {
          "internalType": "uint256",
          "name": "x",
          "type": "uint256"
        },
        {
          "internalType": "uint256",
          "name": "y",
          "type": "uint256"
        }
      ],
      "name": "PRBMath_MulDiv18_Overflow",
      "type": "error"
    },
    {
      "inputs": [
        {
          "internalType": "uint256",
          "name": "x",
          "type": "uint256"
        }
      ],
      "name": "PRBMath_UD60x18_Convert_Overflow",
      "type": "error"
    },
    {
      "inputs": [],
      "name": "PairingCheckFailed",
      "type": "error"
    },
    {
      "inputs": [],
      "name": "PairingOpCodeFailed",
      "type": "error"
    },
    {
      "inputs": [],
      "name": "SenderAccountIdsInvalidLength",
      "type": "error"
    },
    {
      "inputs": [],
      "name": "TooManyAccountIds",
      "type": "error"
    },
    {
      "inputs": [],
      "name": "TooManySenderPublicKeys",
      "type": "error"
    },
    {
      "inputs": [],
      "name": "UUPSUnauthorizedCallContext",
      "type": "error"
    },
    {
      "inputs": [
        {
          "internalType": "bytes32",
          "name": "slot",
          "type": "bytes32"
        }
      ],
      "name": "UUPSUnsupportedProxiableUUID",
      "type": "error"
    },
    {
      "anonymous": false,
      "inputs": [
        {
          "indexed": true,
          "internalType": "bytes32",
          "name": "prevBlockHash",
          "type": "bytes32"
        },
        {
          "indexed": true,
          "internalType": "address",
          "name": "blockBuilder",
          "type": "address"
        },
        {
          "indexed": false,
          "internalType": "uint64",
          "name": "timestamp",
          "type": "uint64"
        },
        {
          "indexed": false,
          "internalType": "uint256",
          "name": "blockNumber",
          "type": "uint256"
        },
        {
          "indexed": false,
          "internalType": "bytes32",
          "name": "depositTreeRoot",
          "type": "bytes32"
        },
        {
          "indexed": false,
          "internalType": "bytes32",
          "name": "signatureHash",
          "type": "bytes32"
        }
      ],
      "name": "BlockPosted",
      "type": "event"
    },
    {
      "anonymous": false,
      "inputs": [
        {
          "indexed": true,
          "internalType": "uint32",
          "name": "depositIndex",
          "type": "uint32"
        },
        {
          "indexed": true,
          "internalType": "bytes32",
          "name": "depositHash",
          "type": "bytes32"
        }
      ],
      "name": "DepositLeafInserted",
      "type": "event"
    },
    {
      "anonymous": false,
      "inputs": [
        {
          "indexed": true,
          "internalType": "uint256",
          "name": "lastProcessedDepositId",
          "type": "uint256"
        },
        {
          "indexed": false,
          "internalType": "bytes32",
          "name": "depositTreeRoot",
          "type": "bytes32"
        }
      ],
      "name": "DepositsProcessed",
      "type": "event"
    },
    {
      "anonymous": false,
      "inputs": [
        {
          "indexed": false,
          "internalType": "uint64",
          "name": "version",
          "type": "uint64"
        }
      ],
      "name": "Initialized",
      "type": "event"
    },
    {
      "anonymous": false,
      "inputs": [
        {
          "indexed": true,
          "internalType": "address",
          "name": "previousOwner",
          "type": "address"
        },
        {
          "indexed": true,
          "internalType": "address",
          "name": "newOwner",
          "type": "address"
        }
      ],
      "name": "OwnershipTransferred",
      "type": "event"
    },
    {
      "anonymous": false,
      "inputs": [
        {
          "indexed": true,
          "internalType": "address",
          "name": "implementation",
          "type": "address"
        }
      ],
      "name": "Upgraded",
      "type": "event"
    },
    {
      "inputs": [],
      "name": "UPGRADE_INTERFACE_VERSION",
      "outputs": [
        {
          "internalType": "string",
          "name": "",
          "type": "string"
        }
      ],
      "stateMutability": "view",
      "type": "function"
    },
    {
      "inputs": [
        {
          "internalType": "uint256",
          "name": "",
          "type": "uint256"
        }
      ],
      "name": "blockBuilders",
      "outputs": [
        {
          "internalType": "address",
          "name": "",
          "type": "address"
        }
      ],
      "stateMutability": "view",
      "type": "function"
    },
    {
      "inputs": [
        {
          "internalType": "uint256",
          "name": "",
          "type": "uint256"
        }
      ],
      "name": "blockHashes",
      "outputs": [
        {
          "internalType": "bytes32",
          "name": "",
          "type": "bytes32"
        }
      ],
      "stateMutability": "view",
      "type": "function"
    },
    {
      "inputs": [],
      "name": "depositIndex",
      "outputs": [
        {
          "internalType": "uint32",
          "name": "",
          "type": "uint32"
        }
      ],
      "stateMutability": "view",
      "type": "function"
    },
    {
      "inputs": [],
      "name": "depositTreeRoot",
      "outputs": [
        {
          "internalType": "bytes32",
          "name": "",
          "type": "bytes32"
        }
      ],
      "stateMutability": "view",
      "type": "function"
    },
    {
      "inputs": [
        {
          "internalType": "uint32",
          "name": "blockNumber",
          "type": "uint32"
        }
      ],
      "name": "getBlockBuilder",
      "outputs": [
        {
          "internalType": "address",
          "name": "",
          "type": "address"
        }
      ],
      "stateMutability": "view",
      "type": "function"
    },
    {
      "inputs": [
        {
          "internalType": "uint32",
          "name": "blockNumber",
          "type": "uint32"
        }
      ],
      "name": "getBlockHash",
      "outputs": [
        {
          "internalType": "bytes32",
          "name": "",
          "type": "bytes32"
        }
      ],
      "stateMutability": "view",
      "type": "function"
    },
    {
      "inputs": [],
      "name": "getLatestBlockNumber",
      "outputs": [
        {
          "internalType": "uint32",
          "name": "",
          "type": "uint32"
        }
      ],
      "stateMutability": "view",
      "type": "function"
    },
    {
      "inputs": [
        {
          "internalType": "address",
          "name": "_admin",
          "type": "address"
        },
        {
          "internalType": "address",
          "name": "_scrollMessenger",
          "type": "address"
        },
        {
          "internalType": "address",
          "name": "_liquidity",
          "type": "address"
        },
        {
          "internalType": "address",
          "name": "_contribution",
          "type": "address"
        }
      ],
      "name": "initialize",
      "outputs": [],
      "stateMutability": "nonpayable",
      "type": "function"
    },
    {
      "inputs": [],
      "name": "lastProcessedDepositId",
      "outputs": [
        {
          "internalType": "uint256",
          "name": "",
          "type": "uint256"
        }
      ],
      "stateMutability": "view",
      "type": "function"
    },
    {
      "inputs": [],
      "name": "owner",
      "outputs": [
        {
          "internalType": "address",
          "name": "",
          "type": "address"
        }
      ],
      "stateMutability": "view",
      "type": "function"
    },
    {
      "inputs": [
        {
          "internalType": "bytes32",
          "name": "txTreeRoot",
          "type": "bytes32"
        },
        {
          "internalType": "uint64",
          "name": "expiry",
          "type": "uint64"
        },
        {
          "internalType": "bytes16",
          "name": "senderFlags",
          "type": "bytes16"
        },
        {
          "internalType": "bytes32[2]",
          "name": "aggregatedPublicKey",
          "type": "bytes32[2]"
        },
        {
          "internalType": "bytes32[4]",
          "name": "aggregatedSignature",
          "type": "bytes32[4]"
        },
        {
          "internalType": "bytes32[4]",
          "name": "messagePoint",
          "type": "bytes32[4]"
        },
        {
          "internalType": "bytes32",
          "name": "publicKeysHash",
          "type": "bytes32"
        },
        {
          "internalType": "bytes",
          "name": "senderAccountIds",
          "type": "bytes"
        }
      ],
      "name": "postNonRegistrationBlock",
      "outputs": [],
      "stateMutability": "payable",
      "type": "function"
    },
    {
      "inputs": [
        {
          "internalType": "bytes32",
          "name": "txTreeRoot",
          "type": "bytes32"
        },
        {
          "internalType": "uint64",
          "name": "expiry",
          "type": "uint64"
        },
        {
          "internalType": "bytes16",
          "name": "senderFlags",
          "type": "bytes16"
        },
        {
          "internalType": "bytes32[2]",
          "name": "aggregatedPublicKey",
          "type": "bytes32[2]"
        },
        {
          "internalType": "bytes32[4]",
          "name": "aggregatedSignature",
          "type": "bytes32[4]"
        },
        {
          "internalType": "bytes32[4]",
          "name": "messagePoint",
          "type": "bytes32[4]"
        },
        {
          "internalType": "uint256[]",
          "name": "senderPublicKeys",
          "type": "uint256[]"
        }
      ],
      "name": "postRegistrationBlock",
      "outputs": [],
      "stateMutability": "payable",
      "type": "function"
    },
    {
      "inputs": [
        {
          "internalType": "uint256",
          "name": "_lastProcessedDepositId",
          "type": "uint256"
        },
        {
          "internalType": "bytes32[]",
          "name": "depositHashes",
          "type": "bytes32[]"
        }
      ],
      "name": "processDeposits",
      "outputs": [],
      "stateMutability": "nonpayable",
      "type": "function"
    },
    {
      "inputs": [],
      "name": "proxiableUUID",
      "outputs": [
        {
          "internalType": "bytes32",
          "name": "",
          "type": "bytes32"
        }
      ],
      "stateMutability": "view",
      "type": "function"
    },
    {
      "inputs": [],
      "name": "renounceOwnership",
      "outputs": [],
      "stateMutability": "nonpayable",
      "type": "function"
    },
    {
      "inputs": [
        {
          "internalType": "address",
          "name": "newOwner",
          "type": "address"
        }
      ],
      "name": "transferOwnership",
      "outputs": [],
      "stateMutability": "nonpayable",
      "type": "function"
    },
    {
      "inputs": [
        {
          "internalType": "address",
          "name": "newImplementation",
          "type": "address"
        },
        {
          "internalType": "bytes",
          "name": "data",
          "type": "bytes"
        }
      ],
      "name": "upgradeToAndCall",
      "outputs": [],
      "stateMutability": "payable",
      "type": "function"
    },
    {
      "inputs": [
        {
          "internalType": "address",
          "name": "to",
          "type": "address"
        }
      ],
      "name": "withdrawPenaltyFee",
      "outputs": [],
      "stateMutability": "nonpayable",
      "type": "function"
    }
  ],
  "bytecode": "0x60a06040523073ffffffffffffffffffffffffffffffffffffffff1660809073ffffffffffffffffffffffffffffffffffffffff1681525034801561004357600080fd5b5061005261005760201b60201c565b6101c1565b600061006761015b60201b60201c565b90508060000160089054906101000a900460ff16156100b2576040517ff92ee8a900000000000000000000000000000000000000000000000000000000815260040160405180910390fd5b67ffffffffffffffff80168160000160009054906101000a900467ffffffffffffffff1667ffffffffffffffff16146101585767ffffffffffffffff8160000160006101000a81548167ffffffffffffffff021916908367ffffffffffffffff1602179055507fc7f505b2f371ae2175ee4913f4499e1f2633a7b5936321eed1cdaeb6115181d267ffffffffffffffff60405161014f91906101a6565b60405180910390a15b50565b60007ff0c57e16840df040f15088dc2f81fe391c3923bec73e23a9662efc9c229c6a00905090565b600067ffffffffffffffff82169050919050565b6101a081610183565b82525050565b60006020820190506101bb6000830184610197565b92915050565b608051613b3a6101ea60003960008181611778015281816117cd01526119880152613b3a6000f3fe6080604052600436106101145760003560e01c80637b898939116100a0578063c76c388411610064578063c76c388414610366578063d2b210a114610391578063f03efa37146103ce578063f2fde38b146103f7578063f8c8765e1461042057610114565b80637b8989391461028c578063859bac24146102b75780638da5cb5b146102d3578063ad3cb1cc146102fe578063b568a0551461032957610114565b806334cdf78d116100e757806334cdf78d146101c65780634f1ef2861461020357806352d1902d1461021f578063567419c11461024a578063715018a61461027557610114565b806306f743c0146101195780631d9a07b91461015657806322bec34e1461018157806325d89cfd1461019d575b600080fd5b34801561012557600080fd5b50610140600480360381019061013b9190612813565b610449565b60405161014d9190612881565b60405180910390f35b34801561016257600080fd5b5061016b6104e5565b60405161017891906128b5565b60405180910390f35b61019b60048036038101906101969190612a3d565b6104eb565b005b3480156101a957600080fd5b506101c460048036038101906101bf9190612b2e565b610677565b005b3480156101d257600080fd5b506101ed60048036038101906101e89190612b91565b6106c9565b6040516101fa91906128b5565b60405180910390f35b61021d60048036038101906102189190612cff565b6106ed565b005b34801561022b57600080fd5b5061023461070c565b60405161024191906128b5565b60405180910390f35b34801561025657600080fd5b5061025f61073f565b60405161026c9190612d6a565b60405180910390f35b34801561028157600080fd5b5061028a610745565b005b34801561029857600080fd5b506102a1610759565b6040516102ae9190612d94565b60405180910390f35b6102d160048036038101906102cc9190612e05565b61076f565b005b3480156102df57600080fd5b506102e86109ed565b6040516102f59190612881565b60405180910390f35b34801561030a57600080fd5b50610313610a25565b6040516103209190612f5d565b60405180910390f35b34801561033557600080fd5b50610350600480360381019061034b9190612b91565b610a5e565b60405161035d9190612881565b60405180910390f35b34801561037257600080fd5b5061037b610a9d565b6040516103889190612d94565b60405180910390f35b34801561039d57600080fd5b506103b860048036038101906103b39190612813565b610aba565b6040516103c591906128b5565b60405180910390f35b3480156103da57600080fd5b506103f560048036038101906103f09190612fd5565b610b36565b005b34801561040357600080fd5b5061041e60048036038101906104199190612b2e565b610e58565b005b34801561042c57600080fd5b5061044760048036038101906104429190613035565b610ede565b005b600061045560026113ca565b63ffffffff168263ffffffff1610610499576040517f98f1199600000000000000000000000000000000000000000000000000000000815260040160405180910390fd5b60038263ffffffff16815481106104b3576104b261309c565b5b9060005260206000200160009054906101000a900473ffffffffffffffffffffffffffffffffffffffff169050919050565b602a5481565b60008767ffffffffffffffff16141580156105105750428767ffffffffffffffff1611155b15610547576040517f203d82d800000000000000000000000000000000000000000000000000000000815260040160405180910390fd5b61054f6113d8565b60008282905090506080811115610592576040517f07b556c900000000000000000000000000000000000000000000000000000000815260040160405180910390fd5b61059a61277e565b60005b828110156105e8578484828181106105b8576105b761309c565b5b905060200201358282608081106105d2576105d161309c565b5b602002018181525050808060010191505061059d565b5060008290505b608081101561062357600182826080811061060d5761060c61309c565b5b60200201818152505080806001019150506105ef565b506000816040516020016106379190613176565b60405160208183030381529060405280519060200120905060008060001b905061066960018d8d8d86868f8f8f61148c565b505050505050505050505050565b61067f6116ef565b8073ffffffffffffffffffffffffffffffffffffffff166108fc479081150290604051600060405180830381858888f193505050501580156106c5573d6000803e3d6000fd5b5050565b600281815481106106d957600080fd5b906000526020600020016000915090505481565b6106f5611776565b6106fe8261185c565b6107088282611867565b5050565b6000610716611986565b7f360894a13ba1a3210667c828492db98dca3e2076cc3735a920a3ca505d382bbc60001b905090565b60015481565b61074d6116ef565b6107576000611a0d565b565b602b60009054906101000a900463ffffffff1681565b60008867ffffffffffffffff16141580156107945750428867ffffffffffffffff1611155b156107cb576040517f203d82d800000000000000000000000000000000000000000000000000000000815260040160405180910390fd5b6107d36113d8565b6000828290509050600560806107e991906131c1565b811115610822576040517f6771216a00000000000000000000000000000000000000000000000000000000815260040160405180910390fd5b60006005826108319190613232565b14610868576040517f41adec0d00000000000000000000000000000000000000000000000000000000815260040160405180910390fd5b60006005608061087891906131c1565b67ffffffffffffffff81111561089157610890612bd4565b5b6040519080825280601f01601f1916602001820160405280156108c35781602001600182028036833780820191505090505b50905060005b8281101561093d578484828181106108e4576108e361309c565b5b9050013560f81c60f81b8282815181106109015761090061309c565b5b60200101907effffffffffffffffffffffffffffffffffffffffffffffffffffffffffffff1916908160001a90535080806001019150506108c9565b5060008290505b6005608061095291906131c1565b8110156109c057600160f81b8260048361096c9190613263565b8151811061097d5761097c61309c565b5b60200101907effffffffffffffffffffffffffffffffffffffffffffffffffffffffffffff1916908160001a9053506005816109b99190613263565b9050610944565b506000818051906020012090506109df60008d8d8d8a868f8f8f61148c565b505050505050505050505050565b6000806109f8611ae4565b90508060000160009054906101000a900473ffffffffffffffffffffffffffffffffffffffff1691505090565b6040518060400160405280600581526020017f352e302e3000000000000000000000000000000000000000000000000000000081525081565b60038181548110610a6e57600080fd5b906000526020600020016000915054906101000a900473ffffffffffffffffffffffffffffffffffffffff1681565b60006001610aab60026113ca565b610ab59190613297565b905090565b6000610ac660026113ca565b63ffffffff168263ffffffff1610610b0a576040517f98f1199600000000000000000000000000000000000000000000000000000000815260040160405180910390fd5b60028263ffffffff1681548110610b2457610b2361309c565b5b90600052602060002001549050919050565b6000600460009054906101000a900473ffffffffffffffffffffffffffffffffffffffff1690508073ffffffffffffffffffffffffffffffffffffffff16610b7c611b0c565b73ffffffffffffffffffffffffffffffffffffffff1614610bc9576040517fdbeadcfd00000000000000000000000000000000000000000000000000000000815260040160405180910390fd5b8073ffffffffffffffffffffffffffffffffffffffff16636e296e456040518163ffffffff1660e01b8152600401602060405180830381865afa158015610c14573d6000803e3d6000fd5b505050506040513d601f19601f82011682018060405250810190610c3891906132e4565b73ffffffffffffffffffffffffffffffffffffffff1660008054906101000a900473ffffffffffffffffffffffffffffffffffffffff1673ffffffffffffffffffffffffffffffffffffffff1614610cbc576040517faff663a500000000000000000000000000000000000000000000000000000000815260040160405180910390fd5b6000602b60009054906101000a900463ffffffff16905060005b84849050811015610d7657610d0e858583818110610cf757610cf661309c565b5b905060200201356006611b1490919063ffffffff16565b848482818110610d2157610d2061309c565b5b905060200201358263ffffffff167f529a1f0fdd7142aabe2b12dd8590a30a26c8427b5200ad8c775a5b4aa03fb41d60405160405180910390a38180610d6690613311565b9250508080600101915050610cd6565b5080602b60006101000a81548163ffffffff021916908363ffffffff160217905550846001819055506000610e0f600660405180606001604052908160008201602080602002604051908101604052809291908260208015610ded576020028201915b815481526020019060010190808311610dd9575b5050505050815260200160208201548152602001602182015481525050611c33565b905080602a81905550857f598fdeda3e3b7298359a08c9a438151e3481bdcf3c3ff9906fa71dcc723617b082604051610e4891906128b5565b60405180910390a2505050505050565b610e606116ef565b600073ffffffffffffffffffffffffffffffffffffffff168173ffffffffffffffffffffffffffffffffffffffff1603610ed25760006040517f1e4fbdf7000000000000000000000000000000000000000000000000000000008152600401610ec99190612881565b60405180910390fd5b610edb81611a0d565b50565b6000610ee8611d23565b905060008160000160089054906101000a900460ff1615905060008260000160009054906101000a900467ffffffffffffffff1690506000808267ffffffffffffffff16148015610f365750825b9050600060018367ffffffffffffffff16148015610f6b575060003073ffffffffffffffffffffffffffffffffffffffff163b145b905081158015610f79575080155b15610fb0576040517ff92ee8a900000000000000000000000000000000000000000000000000000000815260040160405180910390fd5b60018560000160006101000a81548167ffffffffffffffff021916908367ffffffffffffffff16021790555083156110005760018560000160086101000a81548160ff0219169083151502179055505b600073ffffffffffffffffffffffffffffffffffffffff168973ffffffffffffffffffffffffffffffffffffffff1603611066576040517f9fabe1c100000000000000000000000000000000000000000000000000000000815260040160405180910390fd5b600073ffffffffffffffffffffffffffffffffffffffff168873ffffffffffffffffffffffffffffffffffffffff16036110cc576040517f9fabe1c100000000000000000000000000000000000000000000000000000000815260040160405180910390fd5b600073ffffffffffffffffffffffffffffffffffffffff168773ffffffffffffffffffffffffffffffffffffffff1603611132576040517f9fabe1c100000000000000000000000000000000000000000000000000000000815260040160405180910390fd5b600073ffffffffffffffffffffffffffffffffffffffff168673ffffffffffffffffffffffffffffffffffffffff1603611198576040517f9fabe1c100000000000000000000000000000000000000000000000000000000815260040160405180910390fd5b6111a189611d4b565b6111a9611d5f565b6111b36006611d69565b87600460006101000a81548173ffffffffffffffffffffffffffffffffffffffff021916908373ffffffffffffffffffffffffffffffffffffffff160217905550866000806101000a81548173ffffffffffffffffffffffffffffffffffffffff021916908373ffffffffffffffffffffffffffffffffffffffff16021790555085600560006101000a81548173ffffffffffffffffffffffffffffffffffffffff021916908373ffffffffffffffffffffffffffffffffffffffff1602179055506112e36006604051806060016040529081600082016020806020026040519081016040528092919082602080156112c1576020028201915b8154815260200190600101908083116112ad575b5050505050815260200160208201548152602001602182015481525050611c33565b602a819055506112ff602a546002611dcc90919063ffffffff16565b600360009080600181540180825580915050600190039060005260206000200160009091909190916101000a81548173ffffffffffffffffffffffffffffffffffffffff021916908373ffffffffffffffffffffffffffffffffffffffff16021790555083156113bf5760008560000160086101000a81548160ff0219169083151502179055507fc7f505b2f371ae2175ee4913f4499e1f2633a7b5936321eed1cdaeb6115181d260016040516113b69190613382565b60405180910390a15b505050505050505050565b600081805490509050919050565b60006113e46028611e0b565b905034811115611420576040517f4686819200000000000000000000000000000000000000000000000000000000815260040160405180910390fd5b6000813461142e919061339d565b9050600081111561148857611441611b0c565b73ffffffffffffffffffffffffffffffffffffffff166108fc829081150290604051600060405180830381858888f19350505050158015611486573d6000803e3d6000fd5b505b5050565b6000611499848484611f2b565b9050806114d2576040517f0f2512a200000000000000000000000000000000000000000000000000000000815260040160405180910390fd5b60008a6114e05760006114e3565b60015b60ff168a8a8a8a8a8a8a8a604051602001611506999897969594939291906134a8565b604051602081830303815290604052805190602001209050600061152a60026113ca565b905060006115386002612019565b90506000602a549050600042905061155e8286836002612050909392919063ffffffff16565b506003611569611b0c565b9080600181540180825580915050600190039060005260206000200160009091909190916101000a81548173ffffffffffffffffffffffffffffffffffffffff021916908373ffffffffffffffffffffffffffffffffffffffff1602179055506115d1611b0c565b73ffffffffffffffffffffffffffffffffffffffff16837f28857582f627ebec65097e573daaa05604c35030fabadc548b80d1eec929d6018387868a60405161161d949392919061358b565b60405180910390a3600560009054906101000a900473ffffffffffffffffffffffffffffffffffffffff1673ffffffffffffffffffffffffffffffffffffffff1663f099f9f57f86b9f03d796881acc3ae8b638c23861904ac9c358da18e1d9994e3874f61c12d61168c611b0c565b60016040518463ffffffff1660e01b81526004016116ac93929190613601565b600060405180830381600087803b1580156116c657600080fd5b505af11580156116da573d6000803e3d6000fd5b50505050505050505050505050505050505050565b6116f7611b0c565b73ffffffffffffffffffffffffffffffffffffffff166117156109ed565b73ffffffffffffffffffffffffffffffffffffffff161461177457611738611b0c565b6040517f118cdaa700000000000000000000000000000000000000000000000000000000815260040161176b9190612881565b60405180910390fd5b565b7f000000000000000000000000000000000000000000000000000000000000000073ffffffffffffffffffffffffffffffffffffffff163073ffffffffffffffffffffffffffffffffffffffff16148061182357507f000000000000000000000000000000000000000000000000000000000000000073ffffffffffffffffffffffffffffffffffffffff1661180a6120a1565b73ffffffffffffffffffffffffffffffffffffffff1614155b1561185a576040517fe07c8dba00000000000000000000000000000000000000000000000000000000815260040160405180910390fd5b565b6118646116ef565b50565b8173ffffffffffffffffffffffffffffffffffffffff166352d1902d6040518163ffffffff1660e01b8152600401602060405180830381865afa9250505080156118cf57506040513d601f19601f820116820180604052508101906118cc919061364d565b60015b61191057816040517f4c9c8ce30000000000000000000000000000000000000000000000000000000081526004016119079190612881565b60405180910390fd5b7f360894a13ba1a3210667c828492db98dca3e2076cc3735a920a3ca505d382bbc60001b811461197757806040517faa1d49a400000000000000000000000000000000000000000000000000000000815260040161196e91906128b5565b60405180910390fd5b61198183836120f8565b505050565b7f000000000000000000000000000000000000000000000000000000000000000073ffffffffffffffffffffffffffffffffffffffff163073ffffffffffffffffffffffffffffffffffffffff1614611a0b576040517fe07c8dba00000000000000000000000000000000000000000000000000000000815260040160405180910390fd5b565b6000611a17611ae4565b905060008160000160009054906101000a900473ffffffffffffffffffffffffffffffffffffffff169050828260000160006101000a81548173ffffffffffffffffffffffffffffffffffffffff021916908373ffffffffffffffffffffffffffffffffffffffff1602179055508273ffffffffffffffffffffffffffffffffffffffff168173ffffffffffffffffffffffffffffffffffffffff167f8be0079c531659141344cd1fd0a4f28419497f9722a3daafe3b4186f6b6457e060405160405180910390a3505050565b60007f9016d09d72d40fdae2fd8ceac6b6234c7706214fd39c1cd1e609a0528c199300905090565b600033905090565b6000819050600083602001549050600160206002611b3291906137ad565b611b3c919061339d565b8110611b74576040517fef5ccf6600000000000000000000000000000000000000000000000000000000815260040160405180910390fd5b6000600182611b839190613263565b905080856020018190555060005b6020811015611c1b576001808284901c1603611bcc5783866000018260208110611bbe57611bbd61309c565b5b018190555050505050611c2f565b856000018160208110611be257611be161309c565b5b015484604051602001611bf69291906137f8565b6040516020818303038152906040528051906020012093508080600101915050611b91565b506000611c2b57611c2a613824565b5b5050505b5050565b6000808260400151905060008360200151905060008460400151905060005b6020811015611d17576001808285901c1603611cb35785600001518160208110611c7f57611c7e61309c565b5b602002015184604051602001611c969291906137f8565b604051602081830303815290604052805190602001209350611cdf565b8382604051602001611cc69291906137f8565b6040516020818303038152906040528051906020012093505b8182604051602001611cf29291906137f8565b6040516020818303038152906040528051906020012091508080600101915050611c52565b50829350505050919050565b60007ff0c57e16840df040f15088dc2f81fe391c3923bec73e23a9662efc9c229c6a00905090565b611d5361216b565b611d5c816121ab565b50565b611d6761216b565b565b611dc16040518060a00160405280600073ffffffffffffffffffffffffffffffffffffffff1681526020016000801b815260200160008152602001600063ffffffff168152602001600063ffffffff16815250612231565b816021018190555050565b81611de16000801b836000801b60008061227d565b90806001815401808255809150506001900390600052602060002001600090919091909150555050565b6000804290506000611e2467d02ab486cedc00006122b9565b90506000846000015403611e4f57818460000181905550808460010181905550600092505050611f26565b6000611e626704a03ce68d2155556122b9565b90506000611e7e866000015485611e79919061339d565b6122c3565b90506000611eb4611e8f848461234f565b611eaf611ea5611e9f60016122c3565b8761237b565b8a6001015461234f565b6123a9565b9050808760010181905550848760000181905550611ed281856123d7565b15611f1c576000611ee3858361237b565b9050611f0f611f0a611f04611efe66038d7ea4c680006122b9565b8461234f565b8361234f565b6123f4565b9650505050505050611f26565b6000955050505050505b919050565b60008084836040518060400160405280600181526020017f30644e72e131a029b85045b68181585d97816a916871ca8d3c208c16d87cfd4581525086604051602001611f7a94939291906138d7565b6040516020818303038152906040529050611f936127a1565b60008083519050602083826020870160086107d05a03fa91508160008103611fb757fe5b5081611fef576040517fdef2011f00000000000000000000000000000000000000000000000000000000815260040160405180910390fd5b6000836000600181106120055761200461309c565b5b602002015114159450505050509392505050565b6000816001838054905061202d919061339d565b8154811061203e5761203d61309c565b5b90600052602060002001549050919050565b600061206f61205e86612019565b85858561206a8a6113ca565b61227d565b905084819080600181540180825580915050600190039060005260206000200160009091909190915055949350505050565b60006120cf7f360894a13ba1a3210667c828492db98dca3e2076cc3735a920a3ca505d382bbc60001b6123fe565b60000160009054906101000a900473ffffffffffffffffffffffffffffffffffffffff16905090565b61210182612408565b8173ffffffffffffffffffffffffffffffffffffffff167fbc7cd75a20ee27fd9adebab32041f755214dbc6bffa90cc0225b39da2e5c2d3b60405160405180910390a260008151111561215e5761215882826124d5565b50612167565b612166612559565b5b5050565b612173612596565b6121a9576040517fd7e6bcf800000000000000000000000000000000000000000000000000000000815260040160405180910390fd5b565b6121b361216b565b600073ffffffffffffffffffffffffffffffffffffffff168173ffffffffffffffffffffffffffffffffffffffff16036122255760006040517f1e4fbdf700000000000000000000000000000000000000000000000000000000815260040161221c9190612881565b60405180910390fd5b61222e81611a0d565b50565b60008160000151826020015183604001518460600151856080015160405160200161226095949392919061398e565b604051602081830303815290604052805190602001209050919050565b600085858585856040516020016122989594939291906139ed565b60405160208183030381529060405280519060200120905095945050505050565b6000819050919050565b6000670de0b6b3a76400007fffffffffffffffffffffffffffffffffffffffffffffffffffffffffffffffff6122f99190613a4c565b82111561233d57816040517f1cd951a70000000000000000000000000000000000000000000000000000000081526004016123349190612d6a565b60405180910390fd5b670de0b6b3a764000082029050919050565b600061237361236e612360856123f4565b612369856123f4565b6125b6565b6126a0565b905092915050565b60006123a1612389836123f4565b612392856123f4565b61239c919061339d565b6126a0565b905092915050565b60006123cf6123b7836123f4565b6123c0856123f4565b6123ca9190613263565b6126a0565b905092915050565b60006123e2826123f4565b6123eb846123f4565b10905092915050565b6000819050919050565b6000819050919050565b60008173ffffffffffffffffffffffffffffffffffffffff163b0361246457806040517f4c9c8ce300000000000000000000000000000000000000000000000000000000815260040161245b9190612881565b60405180910390fd5b806124917f360894a13ba1a3210667c828492db98dca3e2076cc3735a920a3ca505d382bbc60001b6123fe565b60000160006101000a81548173ffffffffffffffffffffffffffffffffffffffff021916908373ffffffffffffffffffffffffffffffffffffffff16021790555050565b60606000808473ffffffffffffffffffffffffffffffffffffffff16846040516124ff9190613ac4565b600060405180830381855af49150503d806000811461253a576040519150601f19603f3d011682016040523d82523d6000602084013e61253f565b606091505b509150915061254f8583836126aa565b9250505092915050565b6000341115612594576040517fb398979f00000000000000000000000000000000000000000000000000000000815260040160405180910390fd5b565b60006125a0611d23565b60000160089054906101000a900460ff16905090565b60008060008019848609848602925082811083820303915050600081036125f957670de0b6b3a764000082816125ef576125ee613203565b5b049250505061269a565b670de0b6b3a764000081106126475784846040517f5173648d00000000000000000000000000000000000000000000000000000000815260040161263e929190613adb565b60405180910390fd5b6000670de0b6b3a764000085870990507faccb18165bd6fe31ae1cf318dc5b51eee0e1ba569b88cd74c1773b91fac106696001620400008060000304018483118403026204000083860304170293505050505b92915050565b6000819050919050565b6060826126bf576126ba82612739565b612731565b600082511480156126e7575060008473ffffffffffffffffffffffffffffffffffffffff163b145b1561272957836040517f9996b3150000000000000000000000000000000000000000000000000000000081526004016127209190612881565b60405180910390fd5b819050612732565b5b9392505050565b60008151111561274c5780518082602001fd5b6040517fd6bda27500000000000000000000000000000000000000000000000000000000815260040160405180910390fd5b604051806110000160405280608090602082028036833780820191505090505090565b6040518060200160405280600190602082028036833780820191505090505090565b6000604051905090565b600080fd5b600080fd5b600063ffffffff82169050919050565b6127f0816127d7565b81146127fb57600080fd5b50565b60008135905061280d816127e7565b92915050565b600060208284031215612829576128286127cd565b5b6000612837848285016127fe565b91505092915050565b600073ffffffffffffffffffffffffffffffffffffffff82169050919050565b600061286b82612840565b9050919050565b61287b81612860565b82525050565b60006020820190506128966000830184612872565b92915050565b6000819050919050565b6128af8161289c565b82525050565b60006020820190506128ca60008301846128a6565b92915050565b6128d98161289c565b81146128e457600080fd5b50565b6000813590506128f6816128d0565b92915050565b600067ffffffffffffffff82169050919050565b612919816128fc565b811461292457600080fd5b50565b60008135905061293681612910565b92915050565b60007fffffffffffffffffffffffffffffffff0000000000000000000000000000000082169050919050565b6129718161293c565b811461297c57600080fd5b50565b60008135905061298e81612968565b92915050565b600080fd5b6000819050826020600202820111156129b5576129b4612994565b5b92915050565b6000819050826020600402820111156129d7576129d6612994565b5b92915050565b600080fd5b600080fd5b60008083601f8401126129fd576129fc6129dd565b5b8235905067ffffffffffffffff811115612a1a57612a196129e2565b5b602083019150836020820283011115612a3657612a35612994565b5b9250929050565b6000806000806000806000806101c0898b031215612a5e57612a5d6127cd565b5b6000612a6c8b828c016128e7565b9850506020612a7d8b828c01612927565b9750506040612a8e8b828c0161297f565b9650506060612a9f8b828c01612999565b95505060a0612ab08b828c016129bb565b945050610120612ac28b828c016129bb565b9350506101a089013567ffffffffffffffff811115612ae457612ae36127d2565b5b612af08b828c016129e7565b92509250509295985092959890939650565b612b0b81612860565b8114612b1657600080fd5b50565b600081359050612b2881612b02565b92915050565b600060208284031215612b4457612b436127cd565b5b6000612b5284828501612b19565b91505092915050565b6000819050919050565b612b6e81612b5b565b8114612b7957600080fd5b50565b600081359050612b8b81612b65565b92915050565b600060208284031215612ba757612ba66127cd565b5b6000612bb584828501612b7c565b91505092915050565b600080fd5b6000601f19601f8301169050919050565b7f4e487b7100000000000000000000000000000000000000000000000000000000600052604160045260246000fd5b612c0c82612bc3565b810181811067ffffffffffffffff82111715612c2b57612c2a612bd4565b5b80604052505050565b6000612c3e6127c3565b9050612c4a8282612c03565b919050565b600067ffffffffffffffff821115612c6a57612c69612bd4565b5b612c7382612bc3565b9050602081019050919050565b82818337600083830152505050565b6000612ca2612c9d84612c4f565b612c34565b905082815260208101848484011115612cbe57612cbd612bbe565b5b612cc9848285612c80565b509392505050565b600082601f830112612ce657612ce56129dd565b5b8135612cf6848260208601612c8f565b91505092915050565b60008060408385031215612d1657612d156127cd565b5b6000612d2485828601612b19565b925050602083013567ffffffffffffffff811115612d4557612d446127d2565b5b612d5185828601612cd1565b9150509250929050565b612d6481612b5b565b82525050565b6000602082019050612d7f6000830184612d5b565b92915050565b612d8e816127d7565b82525050565b6000602082019050612da96000830184612d85565b92915050565b60008083601f840112612dc557612dc46129dd565b5b8235905067ffffffffffffffff811115612de257612de16129e2565b5b602083019150836001820283011115612dfe57612dfd612994565b5b9250929050565b60008060008060008060008060006101e08a8c031215612e2857612e276127cd565b5b6000612e368c828d016128e7565b9950506020612e478c828d01612927565b9850506040612e588c828d0161297f565b9750506060612e698c828d01612999565b96505060a0612e7a8c828d016129bb565b955050610120612e8c8c828d016129bb565b9450506101a0612e9e8c828d016128e7565b9350506101c08a013567ffffffffffffffff811115612ec057612ebf6127d2565b5b612ecc8c828d01612daf565b92509250509295985092959850929598565b600081519050919050565b600082825260208201905092915050565b60005b83811015612f18578082015181840152602081019050612efd565b60008484015250505050565b6000612f2f82612ede565b612f398185612ee9565b9350612f49818560208601612efa565b612f5281612bc3565b840191505092915050565b60006020820190508181036000830152612f778184612f24565b905092915050565b60008083601f840112612f9557612f946129dd565b5b8235905067ffffffffffffffff811115612fb257612fb16129e2565b5b602083019150836020820283011115612fce57612fcd612994565b5b9250929050565b600080600060408486031215612fee57612fed6127cd565b5b6000612ffc86828701612b7c565b935050602084013567ffffffffffffffff81111561301d5761301c6127d2565b5b61302986828701612f7f565b92509250509250925092565b6000806000806080858703121561304f5761304e6127cd565b5b600061305d87828801612b19565b945050602061306e87828801612b19565b935050604061307f87828801612b19565b925050606061309087828801612b19565b91505092959194509250565b7f4e487b7100000000000000000000000000000000000000000000000000000000600052603260045260246000fd5b600060809050919050565b600081905092915050565b6000819050919050565b6130f481612b5b565b82525050565b600061310683836130eb565b60208301905092915050565b6000602082019050919050565b613128816130cb565b61313281846130d6565b925061313d826130e1565b8060005b8381101561316e57815161315587826130fa565b965061316083613112565b925050600181019050613141565b505050505050565b6000613182828461311f565b6110008201915081905092915050565b7f4e487b7100000000000000000000000000000000000000000000000000000000600052601160045260246000fd5b60006131cc82612b5b565b91506131d783612b5b565b92508282026131e581612b5b565b915082820484148315176131fc576131fb613192565b5b5092915050565b7f4e487b7100000000000000000000000000000000000000000000000000000000600052601260045260246000fd5b600061323d82612b5b565b915061324883612b5b565b92508261325857613257613203565b5b828206905092915050565b600061326e82612b5b565b915061327983612b5b565b925082820190508082111561329157613290613192565b5b92915050565b60006132a2826127d7565b91506132ad836127d7565b9250828203905063ffffffff8111156132c9576132c8613192565b5b92915050565b6000815190506132de81612b02565b92915050565b6000602082840312156132fa576132f96127cd565b5b6000613308848285016132cf565b91505092915050565b600061331c826127d7565b915063ffffffff820361333257613331613192565b5b600182019050919050565b6000819050919050565b6000819050919050565b600061336c6133676133628461333d565b613347565b6128fc565b9050919050565b61337c81613351565b82525050565b60006020820190506133976000830184613373565b92915050565b60006133a882612b5b565b91506133b383612b5b565b92508282039050818111156133cb576133ca613192565b5b92915050565b60008160e01b9050919050565b60006133e9826133d1565b9050919050565b6134016133fc826127d7565b6133de565b82525050565b6000819050919050565b61342261341d8261289c565b613407565b82525050565b60008160c01b9050919050565b600061344082613428565b9050919050565b613458613453826128fc565b613435565b82525050565b6000819050919050565b6134796134748261293c565b61345e565b82525050565b82818337505050565b6134946040838361347f565b5050565b6134a46080838361347f565b5050565b60006134b4828c6133f0565b6004820191506134c4828b613411565b6020820191506134d4828a613447565b6008820191506134e48289613468565b6010820191506134f48288613411565b6020820191506135048287613411565b6020820191506135148286613488565b6040820191506135248285613498565b6080820191506135348284613498565b6080820191508190509a9950505050505050505050565b613554816128fc565b82525050565b600061357561357061356b846127d7565b613347565b612b5b565b9050919050565b6135858161355a565b82525050565b60006080820190506135a0600083018761354b565b6135ad602083018661357c565b6135ba60408301856128a6565b6135c760608301846128a6565b95945050505050565b60006135eb6135e66135e18461333d565b613347565b612b5b565b9050919050565b6135fb816135d0565b82525050565b600060608201905061361660008301866128a6565b6136236020830185612872565b61363060408301846135f2565b949350505050565b600081519050613647816128d0565b92915050565b600060208284031215613663576136626127cd565b5b600061367184828501613638565b91505092915050565b60008160011c9050919050565b6000808291508390505b60018511156136d1578086048111156136ad576136ac613192565b5b60018516156136bc5780820291505b80810290506136ca8561367a565b9450613691565b94509492505050565b6000826136ea57600190506137a6565b816136f857600090506137a6565b816001811461370e576002811461371857613747565b60019150506137a6565b60ff84111561372a57613729613192565b5b8360020a91508482111561374157613740613192565b5b506137a6565b5060208310610133831016604e8410600b841016171561377c5782820a90508381111561377757613776613192565b5b6137a6565b6137898484846001613687565b925090508184048111156137a05761379f613192565b5b81810290505b9392505050565b60006137b882612b5b565b91506137c383612b5b565b92506137f07fffffffffffffffffffffffffffffffffffffffffffffffffffffffffffffffff84846136da565b905092915050565b60006138048285613411565b6020820191506138148284613411565b6020820191508190509392505050565b7f4e487b7100000000000000000000000000000000000000000000000000000000600052600160045260246000fd5b600060029050919050565b600081905092915050565b6000819050919050565b6000602082019050919050565b61388981613853565b613893818461385e565b925061389e82613869565b8060005b838110156138cf5781516138b687826130fa565b96506138c183613873565b9250506001810190506138a2565b505050505050565b60006138e38287613488565b6040820191506138f38286613498565b6080820191506139038285613880565b6040820191506139138284613498565b60808201915081905095945050505050565b60008160601b9050919050565b600061393d82613925565b9050919050565b600061394f82613932565b9050919050565b61396761396282612860565b613944565b82525050565b6000819050919050565b61398861398382612b5b565b61396d565b82525050565b600061399a8288613956565b6014820191506139aa8287613411565b6020820191506139ba8286613977565b6020820191506139ca82856133f0565b6004820191506139da82846133f0565b6004820191508190509695505050505050565b60006139f98288613411565b602082019150613a098287613411565b602082019150613a198286613411565b602082019150613a298285613447565b600882019150613a3982846133f0565b6004820191508190509695505050505050565b6000613a5782612b5b565b9150613a6283612b5b565b925082613a7257613a71613203565b5b828204905092915050565b600081519050919050565b600081905092915050565b6000613a9e82613a7d565b613aa88185613a88565b9350613ab8818560208601612efa565b80840191505092915050565b6000613ad08284613a93565b915081905092915050565b6000604082019050613af06000830185612d5b565b613afd6020830184612d5b565b939250505056fea264697066735822122043fefb71a48614b447ebf6374003ac15c84943319e26bcd96115293a525775b464736f6c634300081b0033",
  "linkReferences": {},
  "deployedLinkReferences": {}
}