{
  "_format": "hh-sol-artifact-1",
  "contractName": "Rollup",
  "sourceName": "contracts/rollup/Rollup.sol",
  "abi": [
    {
      "inputs": [],
      "stateMutability": "nonpayable",
      "type": "constructor"
    },
    {
      "inputs": [
        {
          "internalType": "address",
          "name": "target",
          "type": "address"
        }
      ],
      "name": "AddressEmptyCode",
      "type": "error"
    },
    {
      "inputs": [],
      "name": "AddressZero",
      "type": "error"
    },
    {
      "inputs": [],
      "name": "BlockNumberOutOfRange",
      "type": "error"
    },
    {
      "inputs": [
        {
          "internalType": "address",
          "name": "implementation",
          "type": "address"
        }
      ],
      "name": "ERC1967InvalidImplementation",
      "type": "error"
    },
    {
      "inputs": [],
      "name": "ERC1967NonPayable",
      "type": "error"
    },
    {
      "inputs": [],
      "name": "Expired",
      "type": "error"
    },
    {
      "inputs": [],
      "name": "FailedCall",
      "type": "error"
    },
    {
      "inputs": [],
      "name": "InsufficientPenaltyFee",
      "type": "error"
    },
    {
      "inputs": [],
      "name": "InvalidInitialization",
      "type": "error"
    },
    {
      "inputs": [],
      "name": "MerkleTreeFull",
      "type": "error"
    },
    {
      "inputs": [],
      "name": "NotInitializing",
      "type": "error"
    },
    {
      "inputs": [],
      "name": "OnlyLiquidity",
      "type": "error"
    },
    {
      "inputs": [],
      "name": "OnlyScrollMessenger",
      "type": "error"
    },
    {
      "inputs": [
        {
          "internalType": "address",
          "name": "owner",
          "type": "address"
        }
      ],
      "name": "OwnableInvalidOwner",
      "type": "error"
    },
    {
      "inputs": [
        {
          "internalType": "address",
          "name": "account",
          "type": "address"
        }
      ],
      "name": "OwnableUnauthorizedAccount",
      "type": "error"
    },
    {
      "inputs": [
        {
          "internalType": "uint256",
          "name": "x",
          "type": "uint256"
        },
        {
          "internalType": "uint256",
          "name": "y",
          "type": "uint256"
        }
      ],
      "name": "PRBMath_MulDiv18_Overflow",
      "type": "error"
    },
    {
      "inputs": [
        {
          "internalType": "uint256",
          "name": "x",
          "type": "uint256"
        }
      ],
      "name": "PRBMath_UD60x18_Convert_Overflow",
      "type": "error"
    },
    {
      "inputs": [],
      "name": "PairingCheckFailed",
      "type": "error"
    },
    {
      "inputs": [],
      "name": "PairingOpCodeFailed",
      "type": "error"
    },
    {
      "inputs": [],
      "name": "SenderAccountIdsInvalidLength",
      "type": "error"
    },
    {
      "inputs": [],
      "name": "TooManyAccountIds",
      "type": "error"
    },
    {
      "inputs": [],
      "name": "TooManySenderPublicKeys",
      "type": "error"
    },
    {
      "inputs": [],
      "name": "UUPSUnauthorizedCallContext",
      "type": "error"
    },
    {
      "inputs": [
        {
          "internalType": "bytes32",
          "name": "slot",
          "type": "bytes32"
        }
      ],
      "name": "UUPSUnsupportedProxiableUUID",
      "type": "error"
    },
    {
      "anonymous": false,
      "inputs": [
        {
          "indexed": true,
          "internalType": "bytes32",
          "name": "prevBlockHash",
          "type": "bytes32"
        },
        {
          "indexed": true,
          "internalType": "address",
          "name": "blockBuilder",
          "type": "address"
        },
        {
          "indexed": false,
          "internalType": "uint64",
          "name": "timestamp",
          "type": "uint64"
        },
        {
          "indexed": false,
          "internalType": "uint256",
          "name": "blockNumber",
          "type": "uint256"
        },
        {
          "indexed": false,
          "internalType": "bytes32",
          "name": "depositTreeRoot",
          "type": "bytes32"
        },
        {
          "indexed": false,
          "internalType": "bytes32",
          "name": "signatureHash",
          "type": "bytes32"
        }
      ],
      "name": "BlockPosted",
      "type": "event"
    },
    {
      "anonymous": false,
      "inputs": [
        {
          "indexed": true,
          "internalType": "uint32",
          "name": "depositIndex",
          "type": "uint32"
        },
        {
          "indexed": true,
          "internalType": "bytes32",
          "name": "depositHash",
          "type": "bytes32"
        }
      ],
      "name": "DepositLeafInserted",
      "type": "event"
    },
    {
      "anonymous": false,
      "inputs": [
        {
          "indexed": true,
          "internalType": "uint256",
          "name": "lastProcessedDepositId",
          "type": "uint256"
        },
        {
          "indexed": false,
          "internalType": "bytes32",
          "name": "depositTreeRoot",
          "type": "bytes32"
        }
      ],
      "name": "DepositsProcessed",
      "type": "event"
    },
    {
      "anonymous": false,
      "inputs": [
        {
          "indexed": false,
          "internalType": "uint64",
          "name": "version",
          "type": "uint64"
        }
      ],
      "name": "Initialized",
      "type": "event"
    },
    {
      "anonymous": false,
      "inputs": [
        {
          "indexed": true,
          "internalType": "address",
          "name": "previousOwner",
          "type": "address"
        },
        {
          "indexed": true,
          "internalType": "address",
          "name": "newOwner",
          "type": "address"
        }
      ],
      "name": "OwnershipTransferred",
      "type": "event"
    },
    {
      "anonymous": false,
      "inputs": [
        {
          "indexed": true,
          "internalType": "address",
          "name": "implementation",
          "type": "address"
        }
      ],
      "name": "Upgraded",
      "type": "event"
    },
    {
      "inputs": [],
      "name": "UPGRADE_INTERFACE_VERSION",
      "outputs": [
        {
          "internalType": "string",
          "name": "",
          "type": "string"
        }
      ],
      "stateMutability": "view",
      "type": "function"
    },
    {
      "inputs": [
        {
          "internalType": "uint256",
          "name": "",
          "type": "uint256"
        }
      ],
      "name": "blockBuilders",
      "outputs": [
        {
          "internalType": "address",
          "name": "",
          "type": "address"
        }
      ],
      "stateMutability": "view",
      "type": "function"
    },
    {
      "inputs": [
        {
          "internalType": "uint256",
          "name": "",
          "type": "uint256"
        }
      ],
      "name": "blockHashes",
      "outputs": [
        {
          "internalType": "bytes32",
          "name": "",
          "type": "bytes32"
        }
      ],
      "stateMutability": "view",
      "type": "function"
    },
    {
      "inputs": [],
      "name": "depositIndex",
      "outputs": [
        {
          "internalType": "uint32",
          "name": "",
          "type": "uint32"
        }
      ],
      "stateMutability": "view",
      "type": "function"
    },
    {
      "inputs": [],
      "name": "depositTreeRoot",
      "outputs": [
        {
          "internalType": "bytes32",
          "name": "",
          "type": "bytes32"
        }
      ],
      "stateMutability": "view",
      "type": "function"
    },
    {
      "inputs": [
        {
          "internalType": "uint32",
          "name": "blockNumber",
          "type": "uint32"
        }
      ],
      "name": "getBlockBuilder",
      "outputs": [
        {
          "internalType": "address",
          "name": "",
          "type": "address"
        }
      ],
      "stateMutability": "view",
      "type": "function"
    },
    {
      "inputs": [
        {
          "internalType": "uint32",
          "name": "blockNumber",
          "type": "uint32"
        }
      ],
      "name": "getBlockHash",
      "outputs": [
        {
          "internalType": "bytes32",
          "name": "",
          "type": "bytes32"
        }
      ],
      "stateMutability": "view",
      "type": "function"
    },
    {
      "inputs": [],
      "name": "getLatestBlockNumber",
      "outputs": [
        {
          "internalType": "uint32",
          "name": "",
          "type": "uint32"
        }
      ],
      "stateMutability": "view",
      "type": "function"
    },
    {
      "inputs": [],
      "name": "getPenalty",
      "outputs": [
        {
          "internalType": "uint256",
          "name": "",
          "type": "uint256"
        }
      ],
      "stateMutability": "view",
      "type": "function"
    },
    {
      "inputs": [
        {
          "internalType": "address",
          "name": "_admin",
          "type": "address"
        },
        {
          "internalType": "address",
          "name": "_scrollMessenger",
          "type": "address"
        },
        {
          "internalType": "address",
          "name": "_liquidity",
          "type": "address"
        },
        {
          "internalType": "address",
          "name": "_contribution",
          "type": "address"
        }
      ],
      "name": "initialize",
      "outputs": [],
      "stateMutability": "nonpayable",
      "type": "function"
    },
    {
      "inputs": [],
      "name": "lastProcessedDepositId",
      "outputs": [
        {
          "internalType": "uint256",
          "name": "",
          "type": "uint256"
        }
      ],
      "stateMutability": "view",
      "type": "function"
    },
    {
      "inputs": [],
      "name": "owner",
      "outputs": [
        {
          "internalType": "address",
          "name": "",
          "type": "address"
        }
      ],
      "stateMutability": "view",
      "type": "function"
    },
    {
      "inputs": [
        {
          "internalType": "bytes32",
          "name": "txTreeRoot",
          "type": "bytes32"
        },
        {
          "internalType": "uint64",
          "name": "expiry",
          "type": "uint64"
        },
        {
          "internalType": "bytes16",
          "name": "senderFlags",
          "type": "bytes16"
        },
        {
          "internalType": "bytes32[2]",
          "name": "aggregatedPublicKey",
          "type": "bytes32[2]"
        },
        {
          "internalType": "bytes32[4]",
          "name": "aggregatedSignature",
          "type": "bytes32[4]"
        },
        {
          "internalType": "bytes32[4]",
          "name": "messagePoint",
          "type": "bytes32[4]"
        },
        {
          "internalType": "bytes32",
          "name": "publicKeysHash",
          "type": "bytes32"
        },
        {
          "internalType": "bytes",
          "name": "senderAccountIds",
          "type": "bytes"
        }
      ],
      "name": "postNonRegistrationBlock",
      "outputs": [],
      "stateMutability": "payable",
      "type": "function"
    },
    {
      "inputs": [
        {
          "internalType": "bytes32",
          "name": "txTreeRoot",
          "type": "bytes32"
        },
        {
          "internalType": "uint64",
          "name": "expiry",
          "type": "uint64"
        },
        {
          "internalType": "bytes16",
          "name": "senderFlags",
          "type": "bytes16"
        },
        {
          "internalType": "bytes32[2]",
          "name": "aggregatedPublicKey",
          "type": "bytes32[2]"
        },
        {
          "internalType": "bytes32[4]",
          "name": "aggregatedSignature",
          "type": "bytes32[4]"
        },
        {
          "internalType": "bytes32[4]",
          "name": "messagePoint",
          "type": "bytes32[4]"
        },
        {
          "internalType": "uint256[]",
          "name": "senderPublicKeys",
          "type": "uint256[]"
        }
      ],
      "name": "postRegistrationBlock",
      "outputs": [],
      "stateMutability": "payable",
      "type": "function"
    },
    {
      "inputs": [
        {
          "internalType": "uint256",
          "name": "_lastProcessedDepositId",
          "type": "uint256"
        },
        {
          "internalType": "bytes32[]",
          "name": "depositHashes",
          "type": "bytes32[]"
        }
      ],
      "name": "processDeposits",
      "outputs": [],
      "stateMutability": "nonpayable",
      "type": "function"
    },
    {
      "inputs": [],
      "name": "proxiableUUID",
      "outputs": [
        {
          "internalType": "bytes32",
          "name": "",
          "type": "bytes32"
        }
      ],
      "stateMutability": "view",
      "type": "function"
    },
    {
      "inputs": [],
      "name": "renounceOwnership",
      "outputs": [],
      "stateMutability": "nonpayable",
      "type": "function"
    },
    {
      "inputs": [
        {
          "internalType": "address",
          "name": "newOwner",
          "type": "address"
        }
      ],
      "name": "transferOwnership",
      "outputs": [],
      "stateMutability": "nonpayable",
      "type": "function"
    },
    {
      "inputs": [
        {
          "internalType": "address",
          "name": "newImplementation",
          "type": "address"
        },
        {
          "internalType": "bytes",
          "name": "data",
          "type": "bytes"
        }
      ],
      "name": "upgradeToAndCall",
      "outputs": [],
      "stateMutability": "payable",
      "type": "function"
    },
    {
      "inputs": [
        {
          "internalType": "address",
          "name": "to",
          "type": "address"
        }
      ],
      "name": "withdrawPenaltyFee",
      "outputs": [],
      "stateMutability": "nonpayable",
      "type": "function"
    }
  ],
  "bytecode": "0x60a06040523060805234801561001457600080fd5b5061001d610022565b6100d4565b7ff0c57e16840df040f15088dc2f81fe391c3923bec73e23a9662efc9c229c6a00805468010000000000000000900460ff16156100725760405163f92ee8a960e01b815260040160405180910390fd5b80546001600160401b03908116146100d15780546001600160401b0319166001600160401b0390811782556040519081527fc7f505b2f371ae2175ee4913f4499e1f2633a7b5936321eed1cdaeb6115181d29060200160405180910390a15b50565b6080516121d26100fd60003960008181610ef401528181610f1d015261105e01526121d26000f3fe60806040526004361061011f5760003560e01c8063859bac24116100a0578063d2b210a111610064578063d2b210a114610322578063e56e56db14610342578063f03efa3714610357578063f2fde38b14610377578063f8c8765e1461039757600080fd5b8063859bac241461025f5780638da5cb5b14610272578063ad3cb1cc146102af578063b568a055146102ed578063c76c38841461030d57600080fd5b80634f1ef286116100e75780634f1ef286146101da57806352d1902d146101ed578063567419c114610202578063715018a6146102185780637b8989391461022d57600080fd5b806306f743c0146101245780631d9a07b91461016157806322bec34e1461018557806325d89cfd1461019a57806334cdf78d146101ba575b600080fd5b34801561013057600080fd5b5061014461013f3660046119ed565b6103b7565b6040516001600160a01b0390911681526020015b60405180910390f35b34801561016d57600080fd5b50610177602a5481565b604051908152602001610158565b610198610193366004611ab6565b610421565b005b3480156101a657600080fd5b506101986101b5366004611b72565b610553565b3480156101c657600080fd5b506101776101d5366004611b8d565b610594565b6101986101e8366004611bbc565b6105b5565b3480156101f957600080fd5b506101776105d0565b34801561020e57600080fd5b5061017760015481565b34801561022457600080fd5b506101986105ed565b34801561023957600080fd5b50602b5461024a9063ffffffff1681565b60405163ffffffff9091168152602001610158565b61019861026d366004611c83565b610601565b34801561027e57600080fd5b507f9016d09d72d40fdae2fd8ceac6b6234c7706214fd39c1cd1e609a0528c199300546001600160a01b0316610144565b3480156102bb57600080fd5b506102e0604051806040016040528060058152602001640352e302e360dc1b81525081565b6040516101589190611d87565b3480156102f957600080fd5b50610144610308366004611b8d565b6107c2565b34801561031957600080fd5b5061024a6107ec565b34801561032e57600080fd5b5061017761033d3660046119ed565b610808565b34801561034e57600080fd5b50610177610869565b34801561036357600080fd5b50610198610372366004611dba565b610875565b34801561038357600080fd5b50610198610392366004611b72565b6109e1565b3480156103a357600080fd5b506101986103b2366004611e05565b610a24565b60006103c260025490565b63ffffffff168263ffffffff16106103ed57604051634c788ccb60e11b815260040160405180910390fd5b60038263ffffffff168154811061040657610406611e59565b6000918252602090912001546001600160a01b031692915050565b6001600160401b03871615801590610442575042876001600160401b031611155b1561046057604051630407b05b60e31b815260040160405180910390fd5b610468610cc4565b80608081111561048b576040516307b556c960e01b815260040160405180910390fd5b6104936119b0565b60005b828110156104d6578484828181106104b0576104b0611e59565b905060200201358282608081106104c9576104c9611e59565b6020020152600101610496565b50815b60808110156105035760018282608081106104f6576104f6611e59565b60200201526001016104d9565b506000816040516020016105179190611e6f565b60408051601f1981840301815291905280516020909101209050600061054560018d8d8d86868f8f8f610d39565b505050505050505050505050565b61055b610e8e565b6040516001600160a01b038216904780156108fc02916000818181858888f19350505050158015610590573d6000803e3d6000fd5b5050565b600281815481106105a457600080fd5b600091825260209091200154905081565b6105bd610ee9565b6105c682610f8e565b6105908282610f96565b60006105da611053565b5060008051602061217d83398151915290565b6105f5610e8e565b6105ff600061109c565b565b6001600160401b03881615801590610622575042886001600160401b031611155b1561064057604051630407b05b60e31b815260040160405180910390fd5b610648610cc4565b8061065560806005611eba565b811115610675576040516333b890b560e11b815260040160405180910390fd5b610680600582611ee7565b1561069e576040516341adec0d60e01b815260040160405180910390fd5b60006106ac60806005611eba565b6001600160401b038111156106c3576106c3611ba6565b6040519080825280601f01601f1916602001820160405280156106ed576020820181803683370190505b50905060005b828110156107485784848281811061070d5761070d611e59565b9050013560f81c60f81b82828151811061072957610729611e59565b60200101906001600160f81b031916908160001a9053506001016106f3565b50815b61075760806005611eba565b8110156107a857600160f81b8261076f836004611efb565b8151811061077f5761077f611e59565b60200101906001600160f81b031916908160001a9053506107a1600582611efb565b905061074b565b508051602082012061054560008d8d8d8a868f8f8f610d39565b600381815481106107d257600080fd5b6000918252602090912001546001600160a01b0316905081565b600060016107f960025490565b6108039190611f0e565b905090565b600061081360025490565b63ffffffff168263ffffffff161061083e57604051634c788ccb60e11b815260040160405180910390fd5b60028263ffffffff168154811061085757610857611e59565b90600052602060002001549050919050565b6000610803602861110d565b600454602b546001600160a01b039091169063ffffffff1660005b83811015610925576108c48585838181106108ad576108ad611e59565b90506020020135600661112290919063ffffffff16565b8484828181106108d6576108d6611e59565b905060200201358263ffffffff167f529a1f0fdd7142aabe2b12dd8590a30a26c8427b5200ad8c775a5b4aa03fb41d60405160405180910390a38161091a81611f2a565b925050600101610890565b50602b805463ffffffff191663ffffffff831617905560018590556040805161046081019182905260009161099c919060069082906060820190839060209082845b815481526020019060010190808311610967575050505050815260200160208201548152602001602182015481525050611208565b602a81905560405181815290915086907f598fdeda3e3b7298359a08c9a438151e3481bdcf3c3ff9906fa71dcc723617b09060200160405180910390a2505050505050565b6109e9610e8e565b6001600160a01b038116610a1857604051631e4fbdf760e01b8152600060048201526024015b60405180910390fd5b610a218161109c565b50565b7ff0c57e16840df040f15088dc2f81fe391c3923bec73e23a9662efc9c229c6a008054600160401b810460ff1615906001600160401b0316600081158015610a695750825b90506000826001600160401b03166001148015610a855750303b155b905081158015610a93575080155b15610ab15760405163f92ee8a960e01b815260040160405180910390fd5b845467ffffffffffffffff191660011785558315610adb57845460ff60401b1916600160401b1785555b6001600160a01b038916610b0257604051639fabe1c160e01b815260040160405180910390fd5b6001600160a01b038816610b2957604051639fabe1c160e01b815260040160405180910390fd5b6001600160a01b038716610b5057604051639fabe1c160e01b815260040160405180910390fd5b6001600160a01b038616610b7757604051639fabe1c160e01b815260040160405180910390fd5b610b80896112ed565b610b886112fe565b610b926006611306565b600480546001600160a01b038a81166001600160a01b031992831617909255600080548a84169083161790556005805492891692909116919091179055604080516104608101918290526006805460608301908152610c22938391908390602090600760808601808311610967575050505050815260200160208201548152602001602182015481525050611208565b602a819055610c3390600290611342565b600380546001810182556000919091527fc2575a0e9e593c00f959f8c92f12db2869c3395a3b0502d05e2516446f71f85b0180546001600160a01b03191690558315610cb957845460ff60401b19168555604051600181527fc7f505b2f371ae2175ee4913f4499e1f2633a7b5936321eed1cdaeb6115181d29060200160405180910390a15b505050505050505050565b6000610cd0602861136b565b905034811115610cf35760405163234340c960e11b815260040160405180910390fd5b6000610cff8234611f4f565b9050801561059057604051339082156108fc029083906000818181858888f19350505050158015610d34573d6000803e3d6000fd5b505050565b6000610d4684848461138d565b905080610d6657604051630792895160e11b815260040160405180910390fd5b60008a610d74576000610d77565b60015b60ff168a8a8a8a8a8a8a8a604051602001610d9a99989796959493929190611f62565b6040516020818303038152906040528051906020012090506000610dbd60025490565b90506000610dcb6002611442565b602a5490915042610ddf6002838784611465565b50600380546001810182556000919091527fc2575a0e9e593c00f959f8c92f12db2869c3395a3b0502d05e2516446f71f85b0180546001600160a01b03191633908117909155604080516001600160401b038416815263ffffffff8716602082015280820185905260608101889052905185917f28857582f627ebec65097e573daaa05604c35030fabadc548b80d1eec929d601919081900360800190a3505050505050505050505050505050565b33610ec07f9016d09d72d40fdae2fd8ceac6b6234c7706214fd39c1cd1e609a0528c199300546001600160a01b031690565b6001600160a01b0316146105ff5760405163118cdaa760e01b8152336004820152602401610a0f565b306001600160a01b037f0000000000000000000000000000000000000000000000000000000000000000161480610f7057507f00000000000000000000000000000000000000000000000000000000000000006001600160a01b0316610f6460008051602061217d833981519152546001600160a01b031690565b6001600160a01b031614155b156105ff5760405163703e46dd60e11b815260040160405180910390fd5b610a21610e8e565b816001600160a01b03166352d1902d6040518163ffffffff1660e01b8152600401602060405180830381865afa925050508015610ff0575060408051601f3d908101601f19168201909252610fed91810190611fdb565b60015b61101857604051634c9c8ce360e01b81526001600160a01b0383166004820152602401610a0f565b60008051602061217d833981519152811461104957604051632a87526960e21b815260048101829052602401610a0f565b610d3483836114a4565b306001600160a01b037f000000000000000000000000000000000000000000000000000000000000000016146105ff5760405163703e46dd60e11b815260040160405180910390fd5b7f9016d09d72d40fdae2fd8ceac6b6234c7706214fd39c1cd1e609a0528c19930080546001600160a01b031981166001600160a01b03848116918217845560405192169182907f8be0079c531659141344cd1fd0a4f28419497f9722a3daafe3b4186f6b6457e090600090a3505050565b60008061111a83426114fa565b949350505050565b60208083015482916001906111389060026120db565b6111429190611f4f565b8110611161576040516377ae67b360e11b815260040160405180910390fd5b600061116e826001611efb565b60208601819055905060005b60208110156111f8578082901c6001166001036111ae57838682602081106111a4576111a4611e59565b0155505050505050565b8581602081106111c0576111c0611e59565b0154604080516020810192909252810185905260600160408051601f198184030181529190528051602090910120935060010161117a565b506112016120e7565b5050505050565b604081015160208201516000919081835b60208110156112e3578083901c600116600103611280578551816020811061124357611243611e59565b602002015184604051602001611263929190918252602082015260400190565b6040516020818303038152906040528051906020012093506112ad565b60408051602081018690529081018390526060016040516020818303038152906040528051906020012093505b604080516020810184905290810183905260600160408051601f1981840301815291905280516020909101209150600101611219565b5091949350505050565b6112f56115c2565b610a218161160b565b6105ff6115c2565b6040805160a08101825260008082526020820181905291810182905260608101829052608081019190915261133a90611613565b602190910155565b816113516000838180806116a9565b815460018101835560009283526020909220909101555050565b600042818061137a85846114fa565b9386556001909501949094555092915050565b60008084836040518060400160405280600181526020017f30644e72e131a029b85045b68181585d97816a916871ca8d3c208c16d87cfd45815250866040516020016113dc94939291906120fd565b60405160208183030381529060405290506113f56119cf565b81516000906020838282870160086107d05a03fa9150818061141357fe5b50816114325760405163def2011f60e01b815260040160405180910390fd5b50505115159150505b9392505050565b8054600090829061145590600190611f4f565b8154811061085757610857611e59565b600061148361147386611442565b85858561147e8a5490565b6116a9565b85546001810187556000968752602090962090950185905550929392505050565b6114ad82611705565b6040516001600160a01b038316907fbc7cd75a20ee27fd9adebab32041f755214dbc6bffa90cc0225b39da2e5c2d3b90600090a28051156114f257610d34828261176a565b6105906117e2565b8154600090819067d02ab486cedc000090820361151c579150600090506115bb565b84546704a03ce68d2155559060009061153e906115399088611f4f565b611801565b905061157261154d8383611848565b61156d61156361155d6001611801565b86611857565b8a60010154611848565b611866565b9450848311156115b25760006115888487611857565b90506115aa6115a76115a166038d7ea4c6800084611848565b83611848565b90565b9450506115b7565b600093505b5050505b9250929050565b7ff0c57e16840df040f15088dc2f81fe391c3923bec73e23a9662efc9c229c6a0054600160401b900460ff166105ff57604051631afcd79f60e31b815260040160405180910390fd5b6109e96115c2565b60008160000151826020015183604001518460600151856080015161163957600061163c565b60015b60405160609590951b6bffffffffffffffffffffffff191660208601526034850193909352605484019190915260e090811b6001600160e01b03191660748401521b60ff60e01b166078820152607c01604051602081830303815290604052805190602001209050919050565b6040805160208082019790975280820195909552606085019390935260c09190911b6001600160c01b031916608084015260e01b6001600160e01b03191660888301528051606c818403018152608c9092019052805191012090565b806001600160a01b03163b60000361173b57604051634c9c8ce360e01b81526001600160a01b0382166004820152602401610a0f565b60008051602061217d83398151915280546001600160a01b0319166001600160a01b0392909216919091179055565b6060600080846001600160a01b031684604051611787919061214c565b600060405180830381855af49150503d80600081146117c2576040519150601f19603f3d011682016040523d82523d6000602084013e6117c7565b606091505b50915091506117d7858383611875565b925050505b92915050565b34156105ff5760405163b398979f60e01b815260040160405180910390fd5b6000611817670de0b6b3a7640000600019612168565b82111561183a57604051631cd951a760e01b815260048101839052602401610a0f565b50670de0b6b3a76400000290565b600061143b6115a784846118d1565b600061143b6115a78385611f4f565b600061143b6115a78385611efb565b60608261188a5761188582611987565b61143b565b81511580156118a157506001600160a01b0384163b155b156118ca57604051639996b31560e01b81526001600160a01b0385166004820152602401610a0f565b508061143b565b60008080600019848609848602925082811083820303915050806000036119055750670de0b6b3a7640000900490506117dc565b670de0b6b3a7640000811061193757604051635173648d60e01b81526004810186905260248101859052604401610a0f565b6000670de0b6b3a764000085870962040000818503049310909103600160ee1b02919091177faccb18165bd6fe31ae1cf318dc5b51eee0e1ba569b88cd74c1773b91fac106690291505092915050565b8051156119975780518082602001fd5b60405163d6bda27560e01b815260040160405180910390fd5b6040518061100001604052806080906020820280368337509192915050565b60405180602001604052806001906020820280368337509192915050565b6000602082840312156119ff57600080fd5b813563ffffffff8116811461143b57600080fd5b80356001600160401b0381168114611a2a57600080fd5b919050565b80356fffffffffffffffffffffffffffffffff1981168114611a2a57600080fd5b80604081018310156117dc57600080fd5b80608081018310156117dc57600080fd5b60008083601f840112611a8457600080fd5b5081356001600160401b03811115611a9b57600080fd5b6020830191508360208260051b85010111156115bb57600080fd5b6000806000806000806000806101c0898b031215611ad357600080fd5b88359750611ae360208a01611a13565b9650611af160408a01611a2f565b9550611b008a60608b01611a50565b9450611b0f8a60a08b01611a61565b9350611b1f8a6101208b01611a61565b92506101a08901356001600160401b03811115611b3b57600080fd5b611b478b828c01611a72565b999c989b5096995094979396929594505050565b80356001600160a01b0381168114611a2a57600080fd5b600060208284031215611b8457600080fd5b61143b82611b5b565b600060208284031215611b9f57600080fd5b5035919050565b634e487b7160e01b600052604160045260246000fd5b60008060408385031215611bcf57600080fd5b611bd883611b5b565b915060208301356001600160401b03811115611bf357600080fd5b8301601f81018513611c0457600080fd5b80356001600160401b03811115611c1d57611c1d611ba6565b604051601f8201601f19908116603f011681016001600160401b0381118282101715611c4b57611c4b611ba6565b604052818152828201602001871015611c6357600080fd5b816020840160208301376000602083830101528093505050509250929050565b60008060008060008060008060006101e08a8c031215611ca257600080fd5b89359850611cb260208b01611a13565b9750611cc060408b01611a2f565b9650611ccf8b60608c01611a50565b9550611cde8b60a08c01611a61565b9450611cee8b6101208c01611a61565b93506101a08a013592506101c08a01356001600160401b03811115611d1257600080fd5b8a01601f81018c13611d2357600080fd5b80356001600160401b03811115611d3957600080fd5b8c6020828401011115611d4b57600080fd5b60208201935080925050509295985092959850929598565b60005b83811015611d7e578181015183820152602001611d66565b50506000910152565b6020815260008251806020840152611da6816040850160208701611d63565b601f01601f19169190910160400192915050565b600080600060408486031215611dcf57600080fd5b8335925060208401356001600160401b03811115611dec57600080fd5b611df886828701611a72565b9497909650939450505050565b60008060008060808587031215611e1b57600080fd5b611e2485611b5b565b9350611e3260208601611b5b565b9250611e4060408601611b5b565b9150611e4e60608601611b5b565b905092959194509250565b634e487b7160e01b600052603260045260246000fd5b60008183825b6080811015611e94578151835260209283019290910190600101611e75565b5050506110008201905092915050565b634e487b7160e01b600052601160045260246000fd5b80820281158282048414176117dc576117dc611ea4565b634e487b7160e01b600052601260045260246000fd5b600082611ef657611ef6611ed1565b500690565b808201808211156117dc576117dc611ea4565b63ffffffff82811682821603908111156117dc576117dc611ea4565b600063ffffffff821663ffffffff8103611f4657611f46611ea4565b60010192915050565b818103818111156117dc576117dc611ea4565b63ffffffff60e01b8a60e01b1681528860048201526001600160401b0360c01b8860c01b1660248201526fffffffffffffffffffffffffffffffff198716602c82015285603c82015284605c820152604084607c83013760808360bc83013760808261013c8301376101bc019998505050505050505050565b600060208284031215611fed57600080fd5b5051919050565b6001815b600184111561202f5780850481111561201357612013611ea4565b600184161561202157908102905b60019390931c928002611ff8565b935093915050565b600082612046575060016117dc565b81612053575060006117dc565b816001811461206957600281146120735761208f565b60019150506117dc565b60ff84111561208457612084611ea4565b50506001821b6117dc565b5060208310610133831016604e8410600b84101617156120b2575081810a6117dc565b6120bf6000198484611ff4565b80600019048211156120d3576120d3611ea4565b029392505050565b600061143b8383612037565b634e487b7160e01b600052600160045260246000fd5b60408582376080846040830137600060c082018460005b6002811015612133578151835260209283019290910190600101612114565b5050506080836101008401375061018001949350505050565b6000825161215e818460208701611d63565b9190910192915050565b60008261217757612177611ed1565b50049056fe360894a13ba1a3210667c828492db98dca3e2076cc3735a920a3ca505d382bbca264697066735822122024a5796551cf10872101fccd71353993ca056f51b21d6ca7db833fac548a029a64736f6c634300081b0033",
  "linkReferences": {},
  "deployedLinkReferences": {}
}