{
  "_format": "hh-sol-artifact-1",
  "contractName": "Rollup",
  "sourceName": "contracts/rollup/Rollup.sol",
  "abi": [
    {
      "inputs": [],
      "stateMutability": "nonpayable",
      "type": "constructor"
    },
    {
      "inputs": [
        {
          "internalType": "address",
          "name": "target",
          "type": "address"
        }
      ],
      "name": "AddressEmptyCode",
      "type": "error"
    },
    {
      "inputs": [],
      "name": "AddressZero",
      "type": "error"
    },
    {
      "inputs": [],
      "name": "BlockNumberOutOfRange",
      "type": "error"
    },
    {
      "inputs": [
        {
          "internalType": "address",
          "name": "implementation",
          "type": "address"
        }
      ],
      "name": "ERC1967InvalidImplementation",
      "type": "error"
    },
    {
      "inputs": [],
      "name": "ERC1967NonPayable",
      "type": "error"
    },
    {
      "inputs": [],
      "name": "FailedCall",
      "type": "error"
    },
    {
      "inputs": [],
      "name": "InsufficientPenaltyFee",
      "type": "error"
    },
    {
      "inputs": [],
      "name": "InvalidInitialization",
      "type": "error"
    },
    {
      "inputs": [],
      "name": "MerkleTreeFull",
      "type": "error"
    },
    {
      "inputs": [],
      "name": "NotInitializing",
      "type": "error"
    },
    {
      "inputs": [],
      "name": "OnlyLiquidity",
      "type": "error"
    },
    {
      "inputs": [],
      "name": "OnlyScrollMessenger",
      "type": "error"
    },
    {
      "inputs": [
        {
          "internalType": "address",
          "name": "owner",
          "type": "address"
        }
      ],
      "name": "OwnableInvalidOwner",
      "type": "error"
    },
    {
      "inputs": [
        {
          "internalType": "address",
          "name": "account",
          "type": "address"
        }
      ],
      "name": "OwnableUnauthorizedAccount",
      "type": "error"
    },
    {
      "inputs": [
        {
          "internalType": "uint256",
          "name": "x",
          "type": "uint256"
        },
        {
          "internalType": "uint256",
          "name": "y",
          "type": "uint256"
        }
      ],
      "name": "PRBMath_MulDiv18_Overflow",
      "type": "error"
    },
    {
      "inputs": [
        {
          "internalType": "uint256",
          "name": "x",
          "type": "uint256"
        }
      ],
      "name": "PRBMath_UD60x18_Convert_Overflow",
      "type": "error"
    },
    {
      "inputs": [],
      "name": "PairingCheckFailed",
      "type": "error"
    },
    {
      "inputs": [],
      "name": "PairingOpCodeFailed",
      "type": "error"
    },
    {
      "inputs": [],
      "name": "SenderAccountIdsInvalidLength",
      "type": "error"
    },
    {
      "inputs": [],
      "name": "TooManyAccountIds",
      "type": "error"
    },
    {
      "inputs": [],
      "name": "TooManySenderPublicKeys",
      "type": "error"
    },
    {
      "inputs": [],
      "name": "UUPSUnauthorizedCallContext",
      "type": "error"
    },
    {
      "inputs": [
        {
          "internalType": "bytes32",
          "name": "slot",
          "type": "bytes32"
        }
      ],
      "name": "UUPSUnsupportedProxiableUUID",
      "type": "error"
    },
    {
      "anonymous": false,
      "inputs": [
        {
          "indexed": true,
          "internalType": "bytes32",
          "name": "prevBlockHash",
          "type": "bytes32"
        },
        {
          "indexed": true,
          "internalType": "address",
          "name": "blockBuilder",
          "type": "address"
        },
        {
          "indexed": false,
          "internalType": "uint256",
          "name": "blockNumber",
          "type": "uint256"
        },
        {
          "indexed": false,
          "internalType": "bytes32",
          "name": "depositTreeRoot",
          "type": "bytes32"
        },
        {
          "indexed": false,
          "internalType": "bytes32",
          "name": "signatureHash",
          "type": "bytes32"
        }
      ],
      "name": "BlockPosted",
      "type": "event"
    },
    {
      "anonymous": false,
      "inputs": [
        {
          "indexed": true,
          "internalType": "uint32",
          "name": "depositIndex",
          "type": "uint32"
        },
        {
          "indexed": true,
          "internalType": "bytes32",
          "name": "depositHash",
          "type": "bytes32"
        }
      ],
      "name": "DepositLeafInserted",
      "type": "event"
    },
    {
      "anonymous": false,
      "inputs": [
        {
          "indexed": true,
          "internalType": "uint256",
          "name": "lastProcessedDepositId",
          "type": "uint256"
        },
        {
          "indexed": false,
          "internalType": "bytes32",
          "name": "depositTreeRoot",
          "type": "bytes32"
        }
      ],
      "name": "DepositsProcessed",
      "type": "event"
    },
    {
      "anonymous": false,
      "inputs": [
        {
          "indexed": false,
          "internalType": "uint64",
          "name": "version",
          "type": "uint64"
        }
      ],
      "name": "Initialized",
      "type": "event"
    },
    {
      "anonymous": false,
      "inputs": [
        {
          "indexed": true,
          "internalType": "address",
          "name": "previousOwner",
          "type": "address"
        },
        {
          "indexed": true,
          "internalType": "address",
          "name": "newOwner",
          "type": "address"
        }
      ],
      "name": "OwnershipTransferred",
      "type": "event"
    },
    {
      "anonymous": false,
      "inputs": [
        {
          "indexed": true,
          "internalType": "address",
          "name": "implementation",
          "type": "address"
        }
      ],
      "name": "Upgraded",
      "type": "event"
    },
    {
      "inputs": [],
      "name": "UPGRADE_INTERFACE_VERSION",
      "outputs": [
        {
          "internalType": "string",
          "name": "",
          "type": "string"
        }
      ],
      "stateMutability": "view",
      "type": "function"
    },
    {
      "inputs": [
        {
          "internalType": "uint256",
          "name": "",
          "type": "uint256"
        }
      ],
      "name": "blockBuilders",
      "outputs": [
        {
          "internalType": "address",
          "name": "",
          "type": "address"
        }
      ],
      "stateMutability": "view",
      "type": "function"
    },
    {
      "inputs": [
        {
          "internalType": "uint256",
          "name": "",
          "type": "uint256"
        }
      ],
      "name": "blockHashes",
      "outputs": [
        {
          "internalType": "bytes32",
          "name": "",
          "type": "bytes32"
        }
      ],
      "stateMutability": "view",
      "type": "function"
    },
    {
      "inputs": [],
      "name": "depositIndex",
      "outputs": [
        {
          "internalType": "uint32",
          "name": "",
          "type": "uint32"
        }
      ],
      "stateMutability": "view",
      "type": "function"
    },
    {
      "inputs": [],
      "name": "depositTreeRoot",
      "outputs": [
        {
          "internalType": "bytes32",
          "name": "",
          "type": "bytes32"
        }
      ],
      "stateMutability": "view",
      "type": "function"
    },
    {
      "inputs": [
        {
          "internalType": "uint32",
          "name": "blockNumber",
          "type": "uint32"
        }
      ],
      "name": "getBlockBuilder",
      "outputs": [
        {
          "internalType": "address",
          "name": "",
          "type": "address"
        }
      ],
      "stateMutability": "view",
      "type": "function"
    },
    {
      "inputs": [
        {
          "internalType": "uint32",
          "name": "blockNumber",
          "type": "uint32"
        }
      ],
      "name": "getBlockHash",
      "outputs": [
        {
          "internalType": "bytes32",
          "name": "",
          "type": "bytes32"
        }
      ],
      "stateMutability": "view",
      "type": "function"
    },
    {
      "inputs": [],
      "name": "getLatestBlockNumber",
      "outputs": [
        {
          "internalType": "uint32",
          "name": "",
          "type": "uint32"
        }
      ],
      "stateMutability": "view",
      "type": "function"
    },
    {
      "inputs": [
        {
          "internalType": "address",
          "name": "_admin",
          "type": "address"
        },
        {
          "internalType": "address",
          "name": "_scrollMessenger",
          "type": "address"
        },
        {
          "internalType": "address",
          "name": "_liquidity",
          "type": "address"
        },
        {
          "internalType": "address",
          "name": "_contribution",
          "type": "address"
        }
      ],
      "name": "initialize",
      "outputs": [],
      "stateMutability": "nonpayable",
      "type": "function"
    },
    {
      "inputs": [],
      "name": "lastProcessedDepositId",
      "outputs": [
        {
          "internalType": "uint256",
          "name": "",
          "type": "uint256"
        }
      ],
      "stateMutability": "view",
      "type": "function"
    },
    {
      "inputs": [],
      "name": "owner",
      "outputs": [
        {
          "internalType": "address",
          "name": "",
          "type": "address"
        }
      ],
      "stateMutability": "view",
      "type": "function"
    },
    {
      "inputs": [
        {
          "internalType": "bytes32",
          "name": "txTreeRoot",
          "type": "bytes32"
        },
        {
          "internalType": "bytes16",
          "name": "senderFlags",
          "type": "bytes16"
        },
        {
          "internalType": "bytes32[2]",
          "name": "aggregatedPublicKey",
          "type": "bytes32[2]"
        },
        {
          "internalType": "bytes32[4]",
          "name": "aggregatedSignature",
          "type": "bytes32[4]"
        },
        {
          "internalType": "bytes32[4]",
          "name": "messagePoint",
          "type": "bytes32[4]"
        },
        {
          "internalType": "bytes32",
          "name": "publicKeysHash",
          "type": "bytes32"
        },
        {
          "internalType": "bytes",
          "name": "senderAccountIds",
          "type": "bytes"
        }
      ],
      "name": "postNonRegistrationBlock",
      "outputs": [],
      "stateMutability": "payable",
      "type": "function"
    },
    {
      "inputs": [
        {
          "internalType": "bytes32",
          "name": "txTreeRoot",
          "type": "bytes32"
        },
        {
          "internalType": "bytes16",
          "name": "senderFlags",
          "type": "bytes16"
        },
        {
          "internalType": "bytes32[2]",
          "name": "aggregatedPublicKey",
          "type": "bytes32[2]"
        },
        {
          "internalType": "bytes32[4]",
          "name": "aggregatedSignature",
          "type": "bytes32[4]"
        },
        {
          "internalType": "bytes32[4]",
          "name": "messagePoint",
          "type": "bytes32[4]"
        },
        {
          "internalType": "uint256[]",
          "name": "senderPublicKeys",
          "type": "uint256[]"
        }
      ],
      "name": "postRegistrationBlock",
      "outputs": [],
      "stateMutability": "payable",
      "type": "function"
    },
    {
      "inputs": [
        {
          "internalType": "uint256",
          "name": "_lastProcessedDepositId",
          "type": "uint256"
        },
        {
          "internalType": "bytes32[]",
          "name": "depositHashes",
          "type": "bytes32[]"
        }
      ],
      "name": "processDeposits",
      "outputs": [],
      "stateMutability": "nonpayable",
      "type": "function"
    },
    {
      "inputs": [],
      "name": "proxiableUUID",
      "outputs": [
        {
          "internalType": "bytes32",
          "name": "",
          "type": "bytes32"
        }
      ],
      "stateMutability": "view",
      "type": "function"
    },
    {
      "inputs": [],
      "name": "renounceOwnership",
      "outputs": [],
      "stateMutability": "nonpayable",
      "type": "function"
    },
    {
      "inputs": [
        {
          "internalType": "address",
          "name": "newOwner",
          "type": "address"
        }
      ],
      "name": "transferOwnership",
      "outputs": [],
      "stateMutability": "nonpayable",
      "type": "function"
    },
    {
      "inputs": [
        {
          "internalType": "address",
          "name": "newImplementation",
          "type": "address"
        },
        {
          "internalType": "bytes",
          "name": "data",
          "type": "bytes"
        }
      ],
      "name": "upgradeToAndCall",
      "outputs": [],
      "stateMutability": "payable",
      "type": "function"
    },
    {
      "inputs": [
        {
          "internalType": "address",
          "name": "to",
          "type": "address"
        }
      ],
      "name": "withdrawPenaltyFee",
      "outputs": [],
      "stateMutability": "nonpayable",
      "type": "function"
    }
  ],
  "bytecode": "0x60a06040523073ffffffffffffffffffffffffffffffffffffffff1660809073ffffffffffffffffffffffffffffffffffffffff1681525034801561004357600080fd5b5061005261005760201b60201c565b6101c1565b600061006761015b60201b60201c565b90508060000160089054906101000a900460ff16156100b2576040517ff92ee8a900000000000000000000000000000000000000000000000000000000815260040160405180910390fd5b67ffffffffffffffff80168160000160009054906101000a900467ffffffffffffffff1667ffffffffffffffff16146101585767ffffffffffffffff8160000160006101000a81548167ffffffffffffffff021916908367ffffffffffffffff1602179055507fc7f505b2f371ae2175ee4913f4499e1f2633a7b5936321eed1cdaeb6115181d267ffffffffffffffff60405161014f91906101a6565b60405180910390a15b50565b60007ff0c57e16840df040f15088dc2f81fe391c3923bec73e23a9662efc9c229c6a00905090565b600067ffffffffffffffff82169050919050565b6101a081610183565b82525050565b60006020820190506101bb6000830184610197565b92915050565b60805161361a6101ea6000396000818161121e01528181611273015261142e015261361a6000f3fe6080604052600436106101145760003560e01c8063842f1bfc116100a0578063c7bffeeb11610064578063c7bffeeb14610375578063d2b210a114610391578063f03efa37146103ce578063f2fde38b146103f7578063f8c8765e1461042057610114565b8063842f1bfc1461029b5780638da5cb5b146102b7578063ad3cb1cc146102e2578063b568a0551461030d578063c76c38841461034a57610114565b80634f1ef286116100e75780634f1ef286146101e757806352d1902d14610203578063567419c11461022e578063715018a6146102595780637b8989391461027057610114565b806306f743c0146101195780631d9a07b91461015657806325d89cfd1461018157806334cdf78d146101aa575b600080fd5b34801561012557600080fd5b50610140600480360381019061013b91906124ce565b610449565b60405161014d919061253c565b60405180910390f35b34801561016257600080fd5b5061016b6104e5565b6040516101789190612570565b60405180910390f35b34801561018d57600080fd5b506101a860048036038101906101a391906125b7565b6104eb565b005b3480156101b657600080fd5b506101d160048036038101906101cc919061261a565b61053d565b6040516101de9190612570565b60405180910390f35b61020160048036038101906101fc919061278d565b610561565b005b34801561020f57600080fd5b50610218610580565b6040516102259190612570565b60405180910390f35b34801561023a57600080fd5b506102436105b3565b60405161025091906127f8565b60405180910390f35b34801561026557600080fd5b5061026e6105b9565b005b34801561027c57600080fd5b506102856105cd565b6040516102929190612822565b60405180910390f35b6102b560048036038101906102b09190612965565b6105e3565b005b3480156102c357600080fd5b506102cc610803565b6040516102d9919061253c565b60405180910390f35b3480156102ee57600080fd5b506102f761083b565b6040516103049190612aaa565b60405180910390f35b34801561031957600080fd5b50610334600480360381019061032f919061261a565b610874565b604051610341919061253c565b60405180910390f35b34801561035657600080fd5b5061035f6108b3565b60405161036c9190612822565b60405180910390f35b61038f600480360381019061038a9190612b22565b6108d0565b005b34801561039d57600080fd5b506103b860048036038101906103b391906124ce565b6109fe565b6040516103c59190612570565b60405180910390f35b3480156103da57600080fd5b506103f560048036038101906103f09190612c2a565b610a7a565b005b34801561040357600080fd5b5061041e600480360381019061041991906125b7565b610c15565b005b34801561042c57600080fd5b5061044760048036038101906104429190612c8a565b610c9b565b005b60006104556002611187565b63ffffffff168263ffffffff1610610499576040517f98f1199600000000000000000000000000000000000000000000000000000000815260040160405180910390fd5b60038263ffffffff16815481106104b3576104b2612cf1565b5b9060005260206000200160009054906101000a900473ffffffffffffffffffffffffffffffffffffffff169050919050565b602a5481565b6104f3611195565b8073ffffffffffffffffffffffffffffffffffffffff166108fc479081150290604051600060405180830381858888f19350505050158015610539573d6000803e3d6000fd5b5050565b6002818154811061054d57600080fd5b906000526020600020016000915090505481565b61056961121c565b61057282611302565b61057c828261130d565b5050565b600061058a61142c565b7f360894a13ba1a3210667c828492db98dca3e2076cc3735a920a3ca505d382bbc60001b905090565b60015481565b6105c1611195565b6105cb60006114b3565b565b602b60009054906101000a900463ffffffff1681565b6105eb61158a565b6000828290509050600560806106019190612d4f565b81111561063a576040517f6771216a00000000000000000000000000000000000000000000000000000000815260040160405180910390fd5b60006005826106499190612dc0565b14610680576040517f41adec0d00000000000000000000000000000000000000000000000000000000815260040160405180910390fd5b6000600560806106909190612d4f565b67ffffffffffffffff8111156106a9576106a8612662565b5b6040519080825280601f01601f1916602001820160405280156106db5781602001600182028036833780820191505090505b50905060005b82811015610755578484828181106106fc576106fb612cf1565b5b9050013560f81c60f81b82828151811061071957610718612cf1565b5b60200101907effffffffffffffffffffffffffffffffffffffffffffffffffffffffffffff1916908160001a90535080806001019150506106e1565b5060008290505b6005608061076a9190612d4f565b8110156107d857600160f81b826004836107849190612df1565b8151811061079557610794612cf1565b5b60200101907effffffffffffffffffffffffffffffffffffffffffffffffffffffffffffff1916908160001a9053506005816107d19190612df1565b905061075c565b506000818051906020012090506107f660008c8c89858e8e8e61163e565b5050505050505050505050565b60008061080e6117db565b90508060000160009054906101000a900473ffffffffffffffffffffffffffffffffffffffff1691505090565b6040518060400160405280600581526020017f352e302e3000000000000000000000000000000000000000000000000000000081525081565b6003818154811061088457600080fd5b906000526020600020016000915054906101000a900473ffffffffffffffffffffffffffffffffffffffff1681565b600060016108c16002611187565b6108cb9190612e25565b905090565b6108d861158a565b6000828290509050608081111561091b576040517f07b556c900000000000000000000000000000000000000000000000000000000815260040160405180910390fd5b610923612439565b60005b828110156109715784848281811061094157610940612cf1565b5b9050602002013582826080811061095b5761095a612cf1565b5b6020020181815250508080600101915050610926565b5060008290505b60808110156109ac57600182826080811061099657610995612cf1565b5b6020020181815250508080600101915050610978565b506000816040516020016109c09190612f08565b60405160208183030381529060405280519060200120905060008060001b90506109f160018c8c85858e8e8e61163e565b5050505050505050505050565b6000610a0a6002611187565b63ffffffff168263ffffffff1610610a4e576040517f98f1199600000000000000000000000000000000000000000000000000000000815260040160405180910390fd5b60028263ffffffff1681548110610a6857610a67612cf1565b5b90600052602060002001549050919050565b6000602b60009054906101000a900463ffffffff16905060005b83839050811015610b3457610acc848483818110610ab557610ab4612cf1565b5b90506020020135600661180390919063ffffffff16565b838382818110610adf57610ade612cf1565b5b905060200201358263ffffffff167f529a1f0fdd7142aabe2b12dd8590a30a26c8427b5200ad8c775a5b4aa03fb41d60405160405180910390a38180610b2490612f24565b9250508080600101915050610a94565b5080602b60006101000a81548163ffffffff021916908363ffffffff160217905550836001819055506000610bcd600660405180606001604052908160008201602080602002604051908101604052809291908260208015610bab576020028201915b815481526020019060010190808311610b97575b5050505050815260200160208201548152602001602182015481525050611922565b905080602a81905550847f598fdeda3e3b7298359a08c9a438151e3481bdcf3c3ff9906fa71dcc723617b082604051610c069190612570565b60405180910390a25050505050565b610c1d611195565b600073ffffffffffffffffffffffffffffffffffffffff168173ffffffffffffffffffffffffffffffffffffffff1603610c8f5760006040517f1e4fbdf7000000000000000000000000000000000000000000000000000000008152600401610c86919061253c565b60405180910390fd5b610c98816114b3565b50565b6000610ca5611a12565b905060008160000160089054906101000a900460ff1615905060008260000160009054906101000a900467ffffffffffffffff1690506000808267ffffffffffffffff16148015610cf35750825b9050600060018367ffffffffffffffff16148015610d28575060003073ffffffffffffffffffffffffffffffffffffffff163b145b905081158015610d36575080155b15610d6d576040517ff92ee8a900000000000000000000000000000000000000000000000000000000815260040160405180910390fd5b60018560000160006101000a81548167ffffffffffffffff021916908367ffffffffffffffff1602179055508315610dbd5760018560000160086101000a81548160ff0219169083151502179055505b600073ffffffffffffffffffffffffffffffffffffffff168973ffffffffffffffffffffffffffffffffffffffff1603610e23576040517f9fabe1c100000000000000000000000000000000000000000000000000000000815260040160405180910390fd5b600073ffffffffffffffffffffffffffffffffffffffff168873ffffffffffffffffffffffffffffffffffffffff1603610e89576040517f9fabe1c100000000000000000000000000000000000000000000000000000000815260040160405180910390fd5b600073ffffffffffffffffffffffffffffffffffffffff168773ffffffffffffffffffffffffffffffffffffffff1603610eef576040517f9fabe1c100000000000000000000000000000000000000000000000000000000815260040160405180910390fd5b600073ffffffffffffffffffffffffffffffffffffffff168673ffffffffffffffffffffffffffffffffffffffff1603610f55576040517f9fabe1c100000000000000000000000000000000000000000000000000000000815260040160405180910390fd5b610f5e89611a3a565b610f66611a4e565b610f706006611a58565b87600460006101000a81548173ffffffffffffffffffffffffffffffffffffffff021916908373ffffffffffffffffffffffffffffffffffffffff160217905550866000806101000a81548173ffffffffffffffffffffffffffffffffffffffff021916908373ffffffffffffffffffffffffffffffffffffffff16021790555085600560006101000a81548173ffffffffffffffffffffffffffffffffffffffff021916908373ffffffffffffffffffffffffffffffffffffffff1602179055506110a060066040518060600160405290816000820160208060200260405190810160405280929190826020801561107e576020028201915b81548152602001906001019080831161106a575b5050505050815260200160208201548152602001602182015481525050611922565b602a819055506110bc602a546002611a9190919063ffffffff16565b600360009080600181540180825580915050600190039060005260206000200160009091909190916101000a81548173ffffffffffffffffffffffffffffffffffffffff021916908373ffffffffffffffffffffffffffffffffffffffff160217905550831561117c5760008560000160086101000a81548160ff0219169083151502179055507fc7f505b2f371ae2175ee4913f4499e1f2633a7b5936321eed1cdaeb6115181d260016040516111739190612fa9565b60405180910390a15b505050505050505050565b600081805490509050919050565b61119d611acf565b73ffffffffffffffffffffffffffffffffffffffff166111bb610803565b73ffffffffffffffffffffffffffffffffffffffff161461121a576111de611acf565b6040517f118cdaa7000000000000000000000000000000000000000000000000000000008152600401611211919061253c565b60405180910390fd5b565b7f000000000000000000000000000000000000000000000000000000000000000073ffffffffffffffffffffffffffffffffffffffff163073ffffffffffffffffffffffffffffffffffffffff1614806112c957507f000000000000000000000000000000000000000000000000000000000000000073ffffffffffffffffffffffffffffffffffffffff166112b0611ad7565b73ffffffffffffffffffffffffffffffffffffffff1614155b15611300576040517fe07c8dba00000000000000000000000000000000000000000000000000000000815260040160405180910390fd5b565b61130a611195565b50565b8173ffffffffffffffffffffffffffffffffffffffff166352d1902d6040518163ffffffff1660e01b8152600401602060405180830381865afa92505050801561137557506040513d601f19601f820116820180604052508101906113729190612fd9565b60015b6113b657816040517f4c9c8ce30000000000000000000000000000000000000000000000000000000081526004016113ad919061253c565b60405180910390fd5b7f360894a13ba1a3210667c828492db98dca3e2076cc3735a920a3ca505d382bbc60001b811461141d57806040517faa1d49a40000000000000000000000000000000000000000000000000000000081526004016114149190612570565b60405180910390fd5b6114278383611b2e565b505050565b7f000000000000000000000000000000000000000000000000000000000000000073ffffffffffffffffffffffffffffffffffffffff163073ffffffffffffffffffffffffffffffffffffffff16146114b1576040517fe07c8dba00000000000000000000000000000000000000000000000000000000815260040160405180910390fd5b565b60006114bd6117db565b905060008160000160009054906101000a900473ffffffffffffffffffffffffffffffffffffffff169050828260000160006101000a81548173ffffffffffffffffffffffffffffffffffffffff021916908373ffffffffffffffffffffffffffffffffffffffff1602179055508273ffffffffffffffffffffffffffffffffffffffff168173ffffffffffffffffffffffffffffffffffffffff167f8be0079c531659141344cd1fd0a4f28419497f9722a3daafe3b4186f6b6457e060405160405180910390a3505050565b60006115966028611ba1565b9050348111156115d2576040517f4686819200000000000000000000000000000000000000000000000000000000815260040160405180910390fd5b600081346115e09190613006565b9050600081111561163a576115f3611acf565b73ffffffffffffffffffffffffffffffffffffffff166108fc829081150290604051600060405180830381858888f19350505050158015611638573d6000803e3d6000fd5b505b5050565b600061164b848484611cc1565b905080611684576040517f0f2512a200000000000000000000000000000000000000000000000000000000815260040160405180910390fd5b600089611692576000611695565b60015b60ff16898989898989896040516020016116b69897969594939291906130db565b60405160208183030381529060405280519060200120905060006116da6002611187565b905060006116e86002611daf565b90506000602a54905061170781856002611de69092919063ffffffff16565b506003611712611acf565b9080600181540180825580915050600190039060005260206000200160009091909190916101000a81548173ffffffffffffffffffffffffffffffffffffffff021916908373ffffffffffffffffffffffffffffffffffffffff16021790555061177a611acf565b73ffffffffffffffffffffffffffffffffffffffff16827fe27163b76905dc373b4ad854ddc9403bbac659c5f1c5191c39e5a7c44574040a8584886040516117c49392919061319e565b60405180910390a350505050505050505050505050565b60007f9016d09d72d40fdae2fd8ceac6b6234c7706214fd39c1cd1e609a0528c199300905090565b60008190506000836020015490506001602060026118219190613308565b61182b9190613006565b8110611863576040517fef5ccf6600000000000000000000000000000000000000000000000000000000815260040160405180910390fd5b60006001826118729190612df1565b905080856020018190555060005b602081101561190a576001808284901c16036118bb57838660000182602081106118ad576118ac612cf1565b5b01819055505050505061191e565b8560000181602081106118d1576118d0612cf1565b5b0154846040516020016118e5929190613353565b6040516020818303038152906040528051906020012093508080600101915050611880565b50600061191a5761191961337f565b5b5050505b5050565b6000808260400151905060008360200151905060008460400151905060005b6020811015611a06576001808285901c16036119a2578560000151816020811061196e5761196d612cf1565b5b602002015184604051602001611985929190613353565b6040516020818303038152906040528051906020012093506119ce565b83826040516020016119b5929190613353565b6040516020818303038152906040528051906020012093505b81826040516020016119e1929190613353565b6040516020818303038152906040528051906020012091508080600101915050611941565b50829350505050919050565b60007ff0c57e16840df040f15088dc2f81fe391c3923bec73e23a9662efc9c229c6a00905090565b611a42611e35565b611a4b81611e75565b50565b611a56611e35565b565b611a8660405180606001604052806000801b8152602001600063ffffffff1681526020016000815250611efb565b816021018190555050565b81611aa56000801b836000801b6000611f3b565b90806001815401808255809150506001900390600052602060002001600090919091909150555050565b600033905090565b6000611b057f360894a13ba1a3210667c828492db98dca3e2076cc3735a920a3ca505d382bbc60001b611f74565b60000160009054906101000a900473ffffffffffffffffffffffffffffffffffffffff16905090565b611b3782611f7e565b8173ffffffffffffffffffffffffffffffffffffffff167fbc7cd75a20ee27fd9adebab32041f755214dbc6bffa90cc0225b39da2e5c2d3b60405160405180910390a2600081511115611b9457611b8e828261204b565b50611b9d565b611b9c6120cf565b5b5050565b6000804290506000611bba67d02ab486cedc000061210c565b90506000846000015403611be557818460000181905550808460010181905550600092505050611cbc565b6000611bf86704a03ce68d21555561210c565b90506000611c14866000015485611c0f9190613006565b612116565b90506000611c4a611c2584846121a2565b611c45611c3b611c356001612116565b876121ce565b8a600101546121a2565b6121fc565b9050808760010181905550848760000181905550611c68818561222a565b15611cb2576000611c7985836121ce565b9050611ca5611ca0611c9a611c9466038d7ea4c6800061210c565b846121a2565b836121a2565b612247565b9650505050505050611cbc565b6000955050505050505b919050565b60008084836040518060400160405280600181526020017f30644e72e131a029b85045b68181585d97816a916871ca8d3c208c16d87cfd4581525086604051602001611d109493929190613432565b6040516020818303038152906040529050611d2961245c565b60008083519050602083826020870160086107d05a03fa91508160008103611d4d57fe5b5081611d85576040517fdef2011f00000000000000000000000000000000000000000000000000000000815260040160405180910390fd5b600083600060018110611d9b57611d9a612cf1565b5b602002015114159450505050509392505050565b60008160018380549050611dc39190613006565b81548110611dd457611dd3612cf1565b5b90600052602060002001549050919050565b6000611e04611df485611daf565b8484611dff88611187565b611f3b565b9050838190806001815401808255809150506001900390600052602060002001600090919091909150559392505050565b611e3d612251565b611e73576040517fd7e6bcf800000000000000000000000000000000000000000000000000000000815260040160405180910390fd5b565b611e7d611e35565b600073ffffffffffffffffffffffffffffffffffffffff168173ffffffffffffffffffffffffffffffffffffffff1603611eef5760006040517f1e4fbdf7000000000000000000000000000000000000000000000000000000008152600401611ee6919061253c565b60405180910390fd5b611ef8816114b3565b50565b6000816000015182602001518360400151604051602001611f1e939291906134a1565b604051602081830303815290604052805190602001209050919050565b600084848484604051602001611f5494939291906134de565b604051602081830303815290604052805190602001209050949350505050565b6000819050919050565b60008173ffffffffffffffffffffffffffffffffffffffff163b03611fda57806040517f4c9c8ce3000000000000000000000000000000000000000000000000000000008152600401611fd1919061253c565b60405180910390fd5b806120077f360894a13ba1a3210667c828492db98dca3e2076cc3735a920a3ca505d382bbc60001b611f74565b60000160006101000a81548173ffffffffffffffffffffffffffffffffffffffff021916908373ffffffffffffffffffffffffffffffffffffffff16021790555050565b60606000808473ffffffffffffffffffffffffffffffffffffffff16846040516120759190613573565b600060405180830381855af49150503d80600081146120b0576040519150601f19603f3d011682016040523d82523d6000602084013e6120b5565b606091505b50915091506120c5858383612271565b9250505092915050565b600034111561210a576040517fb398979f00000000000000000000000000000000000000000000000000000000815260040160405180910390fd5b565b6000819050919050565b6000670de0b6b3a76400007fffffffffffffffffffffffffffffffffffffffffffffffffffffffffffffffff61214c919061358a565b82111561219057816040517f1cd951a700000000000000000000000000000000000000000000000000000000815260040161218791906127f8565b60405180910390fd5b670de0b6b3a764000082029050919050565b60006121c66121c16121b385612247565b6121bc85612247565b612300565b6123ea565b905092915050565b60006121f46121dc83612247565b6121e585612247565b6121ef9190613006565b6123ea565b905092915050565b600061222261220a83612247565b61221385612247565b61221d9190612df1565b6123ea565b905092915050565b600061223582612247565b61223e84612247565b10905092915050565b6000819050919050565b600061225b611a12565b60000160089054906101000a900460ff16905090565b60608261228657612281826123f4565b6122f8565b600082511480156122ae575060008473ffffffffffffffffffffffffffffffffffffffff163b145b156122f057836040517f9996b3150000000000000000000000000000000000000000000000000000000081526004016122e7919061253c565b60405180910390fd5b8190506122f9565b5b9392505050565b600080600080198486098486029250828110838203039150506000810361234357670de0b6b3a7640000828161233957612338612d91565b5b04925050506123e4565b670de0b6b3a764000081106123915784846040517f5173648d0000000000000000000000000000000000000000000000000000000081526004016123889291906135bb565b60405180910390fd5b6000670de0b6b3a764000085870990507faccb18165bd6fe31ae1cf318dc5b51eee0e1ba569b88cd74c1773b91fac106696001620400008060000304018483118403026204000083860304170293505050505b92915050565b6000819050919050565b6000815111156124075780518082602001fd5b6040517fd6bda27500000000000000000000000000000000000000000000000000000000815260040160405180910390fd5b604051806110000160405280608090602082028036833780820191505090505090565b6040518060200160405280600190602082028036833780820191505090505090565b6000604051905090565b600080fd5b600080fd5b600063ffffffff82169050919050565b6124ab81612492565b81146124b657600080fd5b50565b6000813590506124c8816124a2565b92915050565b6000602082840312156124e4576124e3612488565b5b60006124f2848285016124b9565b91505092915050565b600073ffffffffffffffffffffffffffffffffffffffff82169050919050565b6000612526826124fb565b9050919050565b6125368161251b565b82525050565b6000602082019050612551600083018461252d565b92915050565b6000819050919050565b61256a81612557565b82525050565b60006020820190506125856000830184612561565b92915050565b6125948161251b565b811461259f57600080fd5b50565b6000813590506125b18161258b565b92915050565b6000602082840312156125cd576125cc612488565b5b60006125db848285016125a2565b91505092915050565b6000819050919050565b6125f7816125e4565b811461260257600080fd5b50565b600081359050612614816125ee565b92915050565b6000602082840312156126305761262f612488565b5b600061263e84828501612605565b91505092915050565b600080fd5b600080fd5b6000601f19601f8301169050919050565b7f4e487b7100000000000000000000000000000000000000000000000000000000600052604160045260246000fd5b61269a82612651565b810181811067ffffffffffffffff821117156126b9576126b8612662565b5b80604052505050565b60006126cc61247e565b90506126d88282612691565b919050565b600067ffffffffffffffff8211156126f8576126f7612662565b5b61270182612651565b9050602081019050919050565b82818337600083830152505050565b600061273061272b846126dd565b6126c2565b90508281526020810184848401111561274c5761274b61264c565b5b61275784828561270e565b509392505050565b600082601f83011261277457612773612647565b5b813561278484826020860161271d565b91505092915050565b600080604083850312156127a4576127a3612488565b5b60006127b2858286016125a2565b925050602083013567ffffffffffffffff8111156127d3576127d261248d565b5b6127df8582860161275f565b9150509250929050565b6127f2816125e4565b82525050565b600060208201905061280d60008301846127e9565b92915050565b61281c81612492565b82525050565b60006020820190506128376000830184612813565b92915050565b61284681612557565b811461285157600080fd5b50565b6000813590506128638161283d565b92915050565b60007fffffffffffffffffffffffffffffffff0000000000000000000000000000000082169050919050565b61289e81612869565b81146128a957600080fd5b50565b6000813590506128bb81612895565b92915050565b600080fd5b6000819050826020600202820111156128e2576128e16128c1565b5b92915050565b600081905082602060040282011115612904576129036128c1565b5b92915050565b600080fd5b60008083601f84011261292557612924612647565b5b8235905067ffffffffffffffff8111156129425761294161290a565b5b60208301915083600182028301111561295e5761295d6128c1565b5b9250929050565b6000806000806000806000806101c0898b03121561298657612985612488565b5b60006129948b828c01612854565b98505060206129a58b828c016128ac565b97505060406129b68b828c016128c6565b96505060806129c78b828c016128e8565b9550506101006129d98b828c016128e8565b9450506101806129eb8b828c01612854565b9350506101a089013567ffffffffffffffff811115612a0d57612a0c61248d565b5b612a198b828c0161290f565b92509250509295985092959890939650565b600081519050919050565b600082825260208201905092915050565b60005b83811015612a65578082015181840152602081019050612a4a565b60008484015250505050565b6000612a7c82612a2b565b612a868185612a36565b9350612a96818560208601612a47565b612a9f81612651565b840191505092915050565b60006020820190508181036000830152612ac48184612a71565b905092915050565b60008083601f840112612ae257612ae1612647565b5b8235905067ffffffffffffffff811115612aff57612afe61290a565b5b602083019150836020820283011115612b1b57612b1a6128c1565b5b9250929050565b60008060008060008060006101a0888a031215612b4257612b41612488565b5b6000612b508a828b01612854565b9750506020612b618a828b016128ac565b9650506040612b728a828b016128c6565b9550506080612b838a828b016128e8565b945050610100612b958a828b016128e8565b93505061018088013567ffffffffffffffff811115612bb757612bb661248d565b5b612bc38a828b01612acc565b925092505092959891949750929550565b60008083601f840112612bea57612be9612647565b5b8235905067ffffffffffffffff811115612c0757612c0661290a565b5b602083019150836020820283011115612c2357612c226128c1565b5b9250929050565b600080600060408486031215612c4357612c42612488565b5b6000612c5186828701612605565b935050602084013567ffffffffffffffff811115612c7257612c7161248d565b5b612c7e86828701612bd4565b92509250509250925092565b60008060008060808587031215612ca457612ca3612488565b5b6000612cb2878288016125a2565b9450506020612cc3878288016125a2565b9350506040612cd4878288016125a2565b9250506060612ce5878288016125a2565b91505092959194509250565b7f4e487b7100000000000000000000000000000000000000000000000000000000600052603260045260246000fd5b7f4e487b7100000000000000000000000000000000000000000000000000000000600052601160045260246000fd5b6000612d5a826125e4565b9150612d65836125e4565b9250828202612d73816125e4565b91508282048414831517612d8a57612d89612d20565b5b5092915050565b7f4e487b7100000000000000000000000000000000000000000000000000000000600052601260045260246000fd5b6000612dcb826125e4565b9150612dd6836125e4565b925082612de657612de5612d91565b5b828206905092915050565b6000612dfc826125e4565b9150612e07836125e4565b9250828201905080821115612e1f57612e1e612d20565b5b92915050565b6000612e3082612492565b9150612e3b83612492565b9250828203905063ffffffff811115612e5757612e56612d20565b5b92915050565b600060809050919050565b600081905092915050565b6000819050919050565b612e86816125e4565b82525050565b6000612e988383612e7d565b60208301905092915050565b6000602082019050919050565b612eba81612e5d565b612ec48184612e68565b9250612ecf82612e73565b8060005b83811015612f00578151612ee78782612e8c565b9650612ef283612ea4565b925050600181019050612ed3565b505050505050565b6000612f148284612eb1565b6110008201915081905092915050565b6000612f2f82612492565b915063ffffffff8203612f4557612f44612d20565b5b600182019050919050565b6000819050919050565b600067ffffffffffffffff82169050919050565b6000819050919050565b6000612f93612f8e612f8984612f50565b612f6e565b612f5a565b9050919050565b612fa381612f78565b82525050565b6000602082019050612fbe6000830184612f9a565b92915050565b600081519050612fd38161283d565b92915050565b600060208284031215612fef57612fee612488565b5b6000612ffd84828501612fc4565b91505092915050565b6000613011826125e4565b915061301c836125e4565b925082820390508181111561303457613033612d20565b5b92915050565b60008160e01b9050919050565b60006130528261303a565b9050919050565b61306a61306582612492565b613047565b82525050565b6000819050919050565b61308b61308682612557565b613070565b82525050565b6000819050919050565b6130ac6130a782612869565b613091565b82525050565b82818337505050565b6130c7604083836130b2565b5050565b6130d7608083836130b2565b5050565b60006130e7828b613059565b6004820191506130f7828a61307a565b602082019150613107828961309b565b601082019150613117828861307a565b602082019150613127828761307a565b60208201915061313782866130bb565b60408201915061314782856130cb565b60808201915061315782846130cb565b6080820191508190509998505050505050505050565b600061318861318361317e84612492565b612f6e565b6125e4565b9050919050565b6131988161316d565b82525050565b60006060820190506131b3600083018661318f565b6131c06020830185612561565b6131cd6040830184612561565b949350505050565b60008160011c9050919050565b6000808291508390505b600185111561322c5780860481111561320857613207612d20565b5b60018516156132175780820291505b8081029050613225856131d5565b94506131ec565b94509492505050565b6000826132455760019050613301565b816132535760009050613301565b81600181146132695760028114613273576132a2565b6001915050613301565b60ff84111561328557613284612d20565b5b8360020a91508482111561329c5761329b612d20565b5b50613301565b5060208310610133831016604e8410600b84101617156132d75782820a9050838111156132d2576132d1612d20565b5b613301565b6132e484848460016131e2565b925090508184048111156132fb576132fa612d20565b5b81810290505b9392505050565b6000613313826125e4565b915061331e836125e4565b925061334b7fffffffffffffffffffffffffffffffffffffffffffffffffffffffffffffffff8484613235565b905092915050565b600061335f828561307a565b60208201915061336f828461307a565b6020820191508190509392505050565b7f4e487b7100000000000000000000000000000000000000000000000000000000600052600160045260246000fd5b600060029050919050565b600081905092915050565b6000819050919050565b6000602082019050919050565b6133e4816133ae565b6133ee81846133b9565b92506133f9826133c4565b8060005b8381101561342a5781516134118782612e8c565b965061341c836133ce565b9250506001810190506133fd565b505050505050565b600061343e82876130bb565b60408201915061344e82866130cb565b60808201915061345e82856133db565b60408201915061346e82846130cb565b60808201915081905095945050505050565b6000819050919050565b61349b613496826125e4565b613480565b82525050565b60006134ad828661307a565b6020820191506134bd8285613059565b6004820191506134cd828461348a565b602082019150819050949350505050565b60006134ea828761307a565b6020820191506134fa828661307a565b60208201915061350a828561307a565b60208201915061351a8284613059565b60048201915081905095945050505050565b600081519050919050565b600081905092915050565b600061354d8261352c565b6135578185613537565b9350613567818560208601612a47565b80840191505092915050565b600061357f8284613542565b915081905092915050565b6000613595826125e4565b91506135a0836125e4565b9250826135b0576135af612d91565b5b828204905092915050565b60006040820190506135d060008301856127e9565b6135dd60208301846127e9565b939250505056fea264697066735822122071c1137525c430a0ea8690a0a257937472cda3a2612b03b9caa1ba98a136d6ef64736f6c634300081b0033",
  "linkReferences": {},
  "deployedLinkReferences": {}
}