{
  "_format": "hh-sol-artifact-1",
  "contractName": "TestERC1155",
  "sourceName": "contracts/test/TestERC1155.sol",
  "abi": [
    {
      "inputs": [],
      "stateMutability": "nonpayable",
      "type": "constructor"
    },
    {
      "inputs": [
        {
          "internalType": "address",
          "name": "sender",
          "type": "address"
        },
        {
          "internalType": "uint256",
          "name": "balance",
          "type": "uint256"
        },
        {
          "internalType": "uint256",
          "name": "needed",
          "type": "uint256"
        },
        {
          "internalType": "uint256",
          "name": "tokenId",
          "type": "uint256"
        }
      ],
      "name": "ERC1155InsufficientBalance",
      "type": "error"
    },
    {
      "inputs": [
        {
          "internalType": "address",
          "name": "approver",
          "type": "address"
        }
      ],
      "name": "ERC1155InvalidApprover",
      "type": "error"
    },
    {
      "inputs": [
        {
          "internalType": "uint256",
          "name": "idsLength",
          "type": "uint256"
        },
        {
          "internalType": "uint256",
          "name": "valuesLength",
          "type": "uint256"
        }
      ],
      "name": "ERC1155InvalidArrayLength",
      "type": "error"
    },
    {
      "inputs": [
        {
          "internalType": "address",
          "name": "operator",
          "type": "address"
        }
      ],
      "name": "ERC1155InvalidOperator",
      "type": "error"
    },
    {
      "inputs": [
        {
          "internalType": "address",
          "name": "receiver",
          "type": "address"
        }
      ],
      "name": "ERC1155InvalidReceiver",
      "type": "error"
    },
    {
      "inputs": [
        {
          "internalType": "address",
          "name": "sender",
          "type": "address"
        }
      ],
      "name": "ERC1155InvalidSender",
      "type": "error"
    },
    {
      "inputs": [
        {
          "internalType": "address",
          "name": "operator",
          "type": "address"
        },
        {
          "internalType": "address",
          "name": "owner",
          "type": "address"
        }
      ],
      "name": "ERC1155MissingApprovalForAll",
      "type": "error"
    },
    {
      "anonymous": false,
      "inputs": [
        {
          "indexed": true,
          "internalType": "address",
          "name": "account",
          "type": "address"
        },
        {
          "indexed": true,
          "internalType": "address",
          "name": "operator",
          "type": "address"
        },
        {
          "indexed": false,
          "internalType": "bool",
          "name": "approved",
          "type": "bool"
        }
      ],
      "name": "ApprovalForAll",
      "type": "event"
    },
    {
      "anonymous": false,
      "inputs": [
        {
          "indexed": true,
          "internalType": "address",
          "name": "operator",
          "type": "address"
        },
        {
          "indexed": true,
          "internalType": "address",
          "name": "from",
          "type": "address"
        },
        {
          "indexed": true,
          "internalType": "address",
          "name": "to",
          "type": "address"
        },
        {
          "indexed": false,
          "internalType": "uint256[]",
          "name": "ids",
          "type": "uint256[]"
        },
        {
          "indexed": false,
          "internalType": "uint256[]",
          "name": "values",
          "type": "uint256[]"
        }
      ],
      "name": "TransferBatch",
      "type": "event"
    },
    {
      "anonymous": false,
      "inputs": [
        {
          "indexed": true,
          "internalType": "address",
          "name": "operator",
          "type": "address"
        },
        {
          "indexed": true,
          "internalType": "address",
          "name": "from",
          "type": "address"
        },
        {
          "indexed": true,
          "internalType": "address",
          "name": "to",
          "type": "address"
        },
        {
          "indexed": false,
          "internalType": "uint256",
          "name": "id",
          "type": "uint256"
        },
        {
          "indexed": false,
          "internalType": "uint256",
          "name": "value",
          "type": "uint256"
        }
      ],
      "name": "TransferSingle",
      "type": "event"
    },
    {
      "anonymous": false,
      "inputs": [
        {
          "indexed": false,
          "internalType": "string",
          "name": "value",
          "type": "string"
        },
        {
          "indexed": true,
          "internalType": "uint256",
          "name": "id",
          "type": "uint256"
        }
      ],
      "name": "URI",
      "type": "event"
    },
    {
      "inputs": [
        {
          "internalType": "address",
          "name": "account",
          "type": "address"
        },
        {
          "internalType": "uint256",
          "name": "id",
          "type": "uint256"
        }
      ],
      "name": "balanceOf",
      "outputs": [
        {
          "internalType": "uint256",
          "name": "",
          "type": "uint256"
        }
      ],
      "stateMutability": "view",
      "type": "function"
    },
    {
      "inputs": [
        {
          "internalType": "address[]",
          "name": "accounts",
          "type": "address[]"
        },
        {
          "internalType": "uint256[]",
          "name": "ids",
          "type": "uint256[]"
        }
      ],
      "name": "balanceOfBatch",
      "outputs": [
        {
          "internalType": "uint256[]",
          "name": "",
          "type": "uint256[]"
        }
      ],
      "stateMutability": "view",
      "type": "function"
    },
    {
      "inputs": [
        {
          "internalType": "address",
          "name": "account",
          "type": "address"
        },
        {
          "internalType": "address",
          "name": "operator",
          "type": "address"
        }
      ],
      "name": "isApprovedForAll",
      "outputs": [
        {
          "internalType": "bool",
          "name": "",
          "type": "bool"
        }
      ],
      "stateMutability": "view",
      "type": "function"
    },
    {
      "inputs": [
        {
          "internalType": "address",
          "name": "to",
          "type": "address"
        },
        {
          "internalType": "uint256",
          "name": "id",
          "type": "uint256"
        },
        {
          "internalType": "uint256",
          "name": "value",
          "type": "uint256"
        },
        {
          "internalType": "bytes",
          "name": "data",
          "type": "bytes"
        }
      ],
      "name": "mint",
      "outputs": [],
      "stateMutability": "nonpayable",
      "type": "function"
    },
    {
      "inputs": [
        {
          "internalType": "address",
          "name": "from",
          "type": "address"
        },
        {
          "internalType": "address",
          "name": "to",
          "type": "address"
        },
        {
          "internalType": "uint256[]",
          "name": "ids",
          "type": "uint256[]"
        },
        {
          "internalType": "uint256[]",
          "name": "values",
          "type": "uint256[]"
        },
        {
          "internalType": "bytes",
          "name": "data",
          "type": "bytes"
        }
      ],
      "name": "safeBatchTransferFrom",
      "outputs": [],
      "stateMutability": "nonpayable",
      "type": "function"
    },
    {
      "inputs": [
        {
          "internalType": "address",
          "name": "from",
          "type": "address"
        },
        {
          "internalType": "address",
          "name": "to",
          "type": "address"
        },
        {
          "internalType": "uint256",
          "name": "id",
          "type": "uint256"
        },
        {
          "internalType": "uint256",
          "name": "value",
          "type": "uint256"
        },
        {
          "internalType": "bytes",
          "name": "data",
          "type": "bytes"
        }
      ],
      "name": "safeTransferFrom",
      "outputs": [],
      "stateMutability": "nonpayable",
      "type": "function"
    },
    {
      "inputs": [
        {
          "internalType": "address",
          "name": "operator",
          "type": "address"
        },
        {
          "internalType": "bool",
          "name": "approved",
          "type": "bool"
        }
      ],
      "name": "setApprovalForAll",
      "outputs": [],
      "stateMutability": "nonpayable",
      "type": "function"
    },
    {
      "inputs": [
        {
          "internalType": "bytes4",
          "name": "interfaceId",
          "type": "bytes4"
        }
      ],
      "name": "supportsInterface",
      "outputs": [
        {
          "internalType": "bool",
          "name": "",
          "type": "bool"
        }
      ],
      "stateMutability": "view",
      "type": "function"
    },
    {
      "inputs": [
        {
          "internalType": "uint256",
          "name": "",
          "type": "uint256"
        }
      ],
      "name": "uri",
      "outputs": [
        {
          "internalType": "string",
          "name": "",
          "type": "string"
        }
      ],
      "stateMutability": "view",
      "type": "function"
    }
  ],
  "bytecode": "0x608060405234801561001057600080fd5b506040518060400160405280600e81526020017f68747470733a2f2f666f6f6261610000000000000000000000000000000000008152506100568161005c60201b60201c565b50610391565b806002908161006b91906102bf565b5050565b600081519050919050565b7f4e487b7100000000000000000000000000000000000000000000000000000000600052604160045260246000fd5b7f4e487b7100000000000000000000000000000000000000000000000000000000600052602260045260246000fd5b600060028204905060018216806100f057607f821691505b602082108103610103576101026100a9565b5b50919050565b60008190508160005260206000209050919050565b60006020601f8301049050919050565b600082821b905092915050565b60006008830261016b7fffffffffffffffffffffffffffffffffffffffffffffffffffffffffffffffff8261012e565b610175868361012e565b95508019841693508086168417925050509392505050565b6000819050919050565b6000819050919050565b60006101bc6101b76101b28461018d565b610197565b61018d565b9050919050565b6000819050919050565b6101d6836101a1565b6101ea6101e2826101c3565b84845461013b565b825550505050565b600090565b6101ff6101f2565b61020a8184846101cd565b505050565b5b8181101561022e576102236000826101f7565b600181019050610210565b5050565b601f8211156102735761024481610109565b61024d8461011e565b8101602085101561025c578190505b6102706102688561011e565b83018261020f565b50505b505050565b600082821c905092915050565b600061029660001984600802610278565b1980831691505092915050565b60006102af8383610285565b9150826002028217905092915050565b6102c88261006f565b67ffffffffffffffff8111156102e1576102e061007a565b5b6102eb82546100d8565b6102f6828285610232565b600060209050601f8311600181146103295760008415610317578287015190505b61032185826102a3565b865550610389565b601f19841661033786610109565b60005b8281101561035f5784890151825560018201915060208501945060208101905061033a565b8683101561037c5784890151610378601f891682610285565b8355505b6001600288020188555050505b505050505050565b612046806103a06000396000f3fe608060405234801561001057600080fd5b50600436106100925760003560e01c80634e1273f4116100665780634e1273f414610143578063731133e914610173578063a22cb4651461018f578063e985e9c5146101ab578063f242432a146101db57610092565b8062fdd58e1461009757806301ffc9a7146100c75780630e89341c146100f75780632eb2c2d614610127575b600080fd5b6100b160048036038101906100ac919061141c565b6101f7565b6040516100be919061146b565b60405180910390f35b6100e160048036038101906100dc91906114de565b610251565b6040516100ee9190611526565b60405180910390f35b610111600480360381019061010c9190611541565b610333565b60405161011e91906115fe565b60405180910390f35b610141600480360381019061013c919061181d565b6103c7565b005b61015d600480360381019061015891906119af565b61046f565b60405161016a9190611ae5565b60405180910390f35b61018d60048036038101906101889190611b07565b610578565b005b6101a960048036038101906101a49190611bb6565b61058a565b005b6101c560048036038101906101c09190611bf6565b6105a0565b6040516101d29190611526565b60405180910390f35b6101f560048036038101906101f09190611c36565b610634565b005b600080600083815260200190815260200160002060008473ffffffffffffffffffffffffffffffffffffffff1673ffffffffffffffffffffffffffffffffffffffff16815260200190815260200160002054905092915050565b60007fd9b67a26000000000000000000000000000000000000000000000000000000007bffffffffffffffffffffffffffffffffffffffffffffffffffffffff1916827bffffffffffffffffffffffffffffffffffffffffffffffffffffffff1916148061031c57507f0e89341c000000000000000000000000000000000000000000000000000000007bffffffffffffffffffffffffffffffffffffffffffffffffffffffff1916827bffffffffffffffffffffffffffffffffffffffffffffffffffffffff1916145b8061032c575061032b826106dc565b5b9050919050565b60606002805461034290611cfc565b80601f016020809104026020016040519081016040528092919081815260200182805461036e90611cfc565b80156103bb5780601f10610390576101008083540402835291602001916103bb565b820191906000526020600020905b81548152906001019060200180831161039e57829003601f168201915b50505050509050919050565b60006103d1610746565b90508073ffffffffffffffffffffffffffffffffffffffff168673ffffffffffffffffffffffffffffffffffffffff1614158015610416575061041486826105a0565b155b1561045a5780866040517fe237d922000000000000000000000000000000000000000000000000000000008152600401610451929190611d3c565b60405180910390fd5b610467868686868661074e565b505050505050565b606081518351146104bb57815183516040517f5b0599910000000000000000000000000000000000000000000000000000000081526004016104b2929190611d65565b60405180910390fd5b6000835167ffffffffffffffff8111156104d8576104d7611625565b5b6040519080825280602002602001820160405280156105065781602001602082028036833780820191505090505b50905060005b845181101561056d5761054361052b828761084690919063ffffffff16565b61053e838761085a90919063ffffffff16565b6101f7565b82828151811061055657610555611d8e565b5b60200260200101818152505080600101905061050c565b508091505092915050565b6105848484848461086e565b50505050565b61059c610595610746565b8383610907565b5050565b6000600160008473ffffffffffffffffffffffffffffffffffffffff1673ffffffffffffffffffffffffffffffffffffffff16815260200190815260200160002060008373ffffffffffffffffffffffffffffffffffffffff1673ffffffffffffffffffffffffffffffffffffffff16815260200190815260200160002060009054906101000a900460ff16905092915050565b600061063e610746565b90508073ffffffffffffffffffffffffffffffffffffffff168673ffffffffffffffffffffffffffffffffffffffff1614158015610683575061068186826105a0565b155b156106c75780866040517fe237d9220000000000000000000000000000000000000000000000000000000081526004016106be929190611d3c565b60405180910390fd5b6106d48686868686610a77565b505050505050565b60007f01ffc9a7000000000000000000000000000000000000000000000000000000007bffffffffffffffffffffffffffffffffffffffffffffffffffffffff1916827bffffffffffffffffffffffffffffffffffffffffffffffffffffffff1916149050919050565b600033905090565b600073ffffffffffffffffffffffffffffffffffffffff168473ffffffffffffffffffffffffffffffffffffffff16036107c05760006040517f57f447ce0000000000000000000000000000000000000000000000000000000081526004016107b79190611dbd565b60405180910390fd5b600073ffffffffffffffffffffffffffffffffffffffff168573ffffffffffffffffffffffffffffffffffffffff16036108325760006040517f01a835140000000000000000000000000000000000000000000000000000000081526004016108299190611dbd565b60405180910390fd5b61083f8585858585610b82565b5050505050565b600060208202602084010151905092915050565b600060208202602084010151905092915050565b600073ffffffffffffffffffffffffffffffffffffffff168473ffffffffffffffffffffffffffffffffffffffff16036108e05760006040517f57f447ce0000000000000000000000000000000000000000000000000000000081526004016108d79190611dbd565b60405180910390fd5b6000806108ed8585610c34565b915091506108ff600087848487610b82565b505050505050565b600073ffffffffffffffffffffffffffffffffffffffff168273ffffffffffffffffffffffffffffffffffffffff16036109795760006040517fced3e1000000000000000000000000000000000000000000000000000000000081526004016109709190611dbd565b60405180910390fd5b80600160008573ffffffffffffffffffffffffffffffffffffffff1673ffffffffffffffffffffffffffffffffffffffff16815260200190815260200160002060008473ffffffffffffffffffffffffffffffffffffffff1673ffffffffffffffffffffffffffffffffffffffff16815260200190815260200160002060006101000a81548160ff0219169083151502179055508173ffffffffffffffffffffffffffffffffffffffff168373ffffffffffffffffffffffffffffffffffffffff167f17307eab39ab6107e8899845ad3d59bd9653f200f220920489ca2b5937696c3183604051610a6a9190611526565b60405180910390a3505050565b600073ffffffffffffffffffffffffffffffffffffffff168473ffffffffffffffffffffffffffffffffffffffff1603610ae95760006040517f57f447ce000000000000000000000000000000000000000000000000000000008152600401610ae09190611dbd565b60405180910390fd5b600073ffffffffffffffffffffffffffffffffffffffff168573ffffffffffffffffffffffffffffffffffffffff1603610b5b5760006040517f01a83514000000000000000000000000000000000000000000000000000000008152600401610b529190611dbd565b60405180910390fd5b600080610b688585610c34565b91509150610b798787848487610b82565b50505050505050565b610b8e85858585610c64565b600073ffffffffffffffffffffffffffffffffffffffff168473ffffffffffffffffffffffffffffffffffffffff1614610c2d576000610bcc610746565b90506001845103610c1c576000610bed60008661085a90919063ffffffff16565b90506000610c0560008661085a90919063ffffffff16565b9050610c1583898985858961100c565b5050610c2b565b610c2a8187878787876111c0565b5b505b5050505050565b60608060405191506001825283602083015260408201905060018152826020820152604081016040529250929050565b8051825114610cae57815181516040517f5b059991000000000000000000000000000000000000000000000000000000008152600401610ca5929190611d65565b60405180910390fd5b6000610cb8610746565b905060005b8351811015610ec7576000610cdb828661085a90919063ffffffff16565b90506000610cf2838661085a90919063ffffffff16565b9050600073ffffffffffffffffffffffffffffffffffffffff168873ffffffffffffffffffffffffffffffffffffffff1614610e1f57600080600084815260200190815260200160002060008a73ffffffffffffffffffffffffffffffffffffffff1673ffffffffffffffffffffffffffffffffffffffff16815260200190815260200160002054905081811015610dc757888183856040517f03dee4c5000000000000000000000000000000000000000000000000000000008152600401610dbe9493929190611dd8565b60405180910390fd5b81810360008085815260200190815260200160002060008b73ffffffffffffffffffffffffffffffffffffffff1673ffffffffffffffffffffffffffffffffffffffff16815260200190815260200160002081905550505b600073ffffffffffffffffffffffffffffffffffffffff168773ffffffffffffffffffffffffffffffffffffffff1614610eba578060008084815260200190815260200160002060008973ffffffffffffffffffffffffffffffffffffffff1673ffffffffffffffffffffffffffffffffffffffff1681526020019081526020016000206000828254610eb29190611e4c565b925050819055505b5050806001019050610cbd565b506001835103610f86576000610ee760008561085a90919063ffffffff16565b90506000610eff60008561085a90919063ffffffff16565b90508573ffffffffffffffffffffffffffffffffffffffff168773ffffffffffffffffffffffffffffffffffffffff168473ffffffffffffffffffffffffffffffffffffffff167fc3d58168c5ae7397731d063d5bbf3d657854427343f4c083240f7aacaa2d0f628585604051610f77929190611d65565b60405180910390a45050611005565b8373ffffffffffffffffffffffffffffffffffffffff168573ffffffffffffffffffffffffffffffffffffffff168273ffffffffffffffffffffffffffffffffffffffff167f4a39dc06d4c0dbc64b70af90fd698a233a518aa5d07e595d983b8c0526c8f7fb8686604051610ffc929190611e80565b60405180910390a45b5050505050565b60008473ffffffffffffffffffffffffffffffffffffffff163b11156111b8578373ffffffffffffffffffffffffffffffffffffffff1663f23a6e6187878686866040518663ffffffff1660e01b815260040161106d959493929190611f0c565b6020604051808303816000875af19250505080156110a957506040513d601f19601f820116820180604052508101906110a69190611f7b565b60015b61112d573d80600081146110d9576040519150601f19603f3d011682016040523d82523d6000602084013e6110de565b606091505b50600081510361112557846040517f57f447ce00000000000000000000000000000000000000000000000000000000815260040161111c9190611dbd565b60405180910390fd5b805181602001fd5b63f23a6e6160e01b7bffffffffffffffffffffffffffffffffffffffffffffffffffffffff1916817bffffffffffffffffffffffffffffffffffffffffffffffffffffffff1916146111b657846040517f57f447ce0000000000000000000000000000000000000000000000000000000081526004016111ad9190611dbd565b60405180910390fd5b505b505050505050565b60008473ffffffffffffffffffffffffffffffffffffffff163b111561136c578373ffffffffffffffffffffffffffffffffffffffff1663bc197c8187878686866040518663ffffffff1660e01b8152600401611221959493929190611fa8565b6020604051808303816000875af192505050801561125d57506040513d601f19601f8201168201806040525081019061125a9190611f7b565b60015b6112e1573d806000811461128d576040519150601f19603f3d011682016040523d82523d6000602084013e611292565b606091505b5060008151036112d957846040517f57f447ce0000000000000000000000000000000000000000000000000000000081526004016112d09190611dbd565b60405180910390fd5b805181602001fd5b63bc197c8160e01b7bffffffffffffffffffffffffffffffffffffffffffffffffffffffff1916817bffffffffffffffffffffffffffffffffffffffffffffffffffffffff19161461136a57846040517f57f447ce0000000000000000000000000000000000000000000000000000000081526004016113619190611dbd565b60405180910390fd5b505b505050505050565b6000604051905090565b600080fd5b600080fd5b600073ffffffffffffffffffffffffffffffffffffffff82169050919050565b60006113b382611388565b9050919050565b6113c3816113a8565b81146113ce57600080fd5b50565b6000813590506113e0816113ba565b92915050565b6000819050919050565b6113f9816113e6565b811461140457600080fd5b50565b600081359050611416816113f0565b92915050565b600080604083850312156114335761143261137e565b5b6000611441858286016113d1565b925050602061145285828601611407565b9150509250929050565b611465816113e6565b82525050565b6000602082019050611480600083018461145c565b92915050565b60007fffffffff0000000000000000000000000000000000000000000000000000000082169050919050565b6114bb81611486565b81146114c657600080fd5b50565b6000813590506114d8816114b2565b92915050565b6000602082840312156114f4576114f361137e565b5b6000611502848285016114c9565b91505092915050565b60008115159050919050565b6115208161150b565b82525050565b600060208201905061153b6000830184611517565b92915050565b6000602082840312156115575761155661137e565b5b600061156584828501611407565b91505092915050565b600081519050919050565b600082825260208201905092915050565b60005b838110156115a857808201518184015260208101905061158d565b60008484015250505050565b6000601f19601f8301169050919050565b60006115d08261156e565b6115da8185611579565b93506115ea81856020860161158a565b6115f3816115b4565b840191505092915050565b6000602082019050818103600083015261161881846115c5565b905092915050565b600080fd5b7f4e487b7100000000000000000000000000000000000000000000000000000000600052604160045260246000fd5b61165d826115b4565b810181811067ffffffffffffffff8211171561167c5761167b611625565b5b80604052505050565b600061168f611374565b905061169b8282611654565b919050565b600067ffffffffffffffff8211156116bb576116ba611625565b5b602082029050602081019050919050565b600080fd5b60006116e46116df846116a0565b611685565b90508083825260208201905060208402830185811115611707576117066116cc565b5b835b81811015611730578061171c8882611407565b845260208401935050602081019050611709565b5050509392505050565b600082601f83011261174f5761174e611620565b5b813561175f8482602086016116d1565b91505092915050565b600080fd5b600067ffffffffffffffff82111561178857611787611625565b5b611791826115b4565b9050602081019050919050565b82818337600083830152505050565b60006117c06117bb8461176d565b611685565b9050828152602081018484840111156117dc576117db611768565b5b6117e784828561179e565b509392505050565b600082601f83011261180457611803611620565b5b81356118148482602086016117ad565b91505092915050565b600080600080600060a086880312156118395761183861137e565b5b6000611847888289016113d1565b9550506020611858888289016113d1565b945050604086013567ffffffffffffffff81111561187957611878611383565b5b6118858882890161173a565b935050606086013567ffffffffffffffff8111156118a6576118a5611383565b5b6118b28882890161173a565b925050608086013567ffffffffffffffff8111156118d3576118d2611383565b5b6118df888289016117ef565b9150509295509295909350565b600067ffffffffffffffff82111561190757611906611625565b5b602082029050602081019050919050565b600061192b611926846118ec565b611685565b9050808382526020820190506020840283018581111561194e5761194d6116cc565b5b835b81811015611977578061196388826113d1565b845260208401935050602081019050611950565b5050509392505050565b600082601f83011261199657611995611620565b5b81356119a6848260208601611918565b91505092915050565b600080604083850312156119c6576119c561137e565b5b600083013567ffffffffffffffff8111156119e4576119e3611383565b5b6119f085828601611981565b925050602083013567ffffffffffffffff811115611a1157611a10611383565b5b611a1d8582860161173a565b9150509250929050565b600081519050919050565b600082825260208201905092915050565b6000819050602082019050919050565b611a5c816113e6565b82525050565b6000611a6e8383611a53565b60208301905092915050565b6000602082019050919050565b6000611a9282611a27565b611a9c8185611a32565b9350611aa783611a43565b8060005b83811015611ad8578151611abf8882611a62565b9750611aca83611a7a565b925050600181019050611aab565b5085935050505092915050565b60006020820190508181036000830152611aff8184611a87565b905092915050565b60008060008060808587031215611b2157611b2061137e565b5b6000611b2f878288016113d1565b9450506020611b4087828801611407565b9350506040611b5187828801611407565b925050606085013567ffffffffffffffff811115611b7257611b71611383565b5b611b7e878288016117ef565b91505092959194509250565b611b938161150b565b8114611b9e57600080fd5b50565b600081359050611bb081611b8a565b92915050565b60008060408385031215611bcd57611bcc61137e565b5b6000611bdb858286016113d1565b9250506020611bec85828601611ba1565b9150509250929050565b60008060408385031215611c0d57611c0c61137e565b5b6000611c1b858286016113d1565b9250506020611c2c858286016113d1565b9150509250929050565b600080600080600060a08688031215611c5257611c5161137e565b5b6000611c60888289016113d1565b9550506020611c71888289016113d1565b9450506040611c8288828901611407565b9350506060611c9388828901611407565b925050608086013567ffffffffffffffff811115611cb457611cb3611383565b5b611cc0888289016117ef565b9150509295509295909350565b7f4e487b7100000000000000000000000000000000000000000000000000000000600052602260045260246000fd5b60006002820490506001821680611d1457607f821691505b602082108103611d2757611d26611ccd565b5b50919050565b611d36816113a8565b82525050565b6000604082019050611d516000830185611d2d565b611d5e6020830184611d2d565b9392505050565b6000604082019050611d7a600083018561145c565b611d87602083018461145c565b9392505050565b7f4e487b7100000000000000000000000000000000000000000000000000000000600052603260045260246000fd5b6000602082019050611dd26000830184611d2d565b92915050565b6000608082019050611ded6000830187611d2d565b611dfa602083018661145c565b611e07604083018561145c565b611e14606083018461145c565b95945050505050565b7f4e487b7100000000000000000000000000000000000000000000000000000000600052601160045260246000fd5b6000611e57826113e6565b9150611e62836113e6565b9250828201905080821115611e7a57611e79611e1d565b5b92915050565b60006040820190508181036000830152611e9a8185611a87565b90508181036020830152611eae8184611a87565b90509392505050565b600081519050919050565b600082825260208201905092915050565b6000611ede82611eb7565b611ee88185611ec2565b9350611ef881856020860161158a565b611f01816115b4565b840191505092915050565b600060a082019050611f216000830188611d2d565b611f2e6020830187611d2d565b611f3b604083018661145c565b611f48606083018561145c565b8181036080830152611f5a8184611ed3565b90509695505050505050565b600081519050611f75816114b2565b92915050565b600060208284031215611f9157611f9061137e565b5b6000611f9f84828501611f66565b91505092915050565b600060a082019050611fbd6000830188611d2d565b611fca6020830187611d2d565b8181036040830152611fdc8186611a87565b90508181036060830152611ff08185611a87565b905081810360808301526120048184611ed3565b9050969550505050505056fea26469706673582212207cdd3abc1051d41a2865ff4f06c754cf8d7450ddd60862ae827469bec5443c0f64736f6c634300081b0033",
  "linkReferences": {},
  "deployedLinkReferences": {}
}