{
  "_format": "hh-sol-artifact-1",
  "contractName": "Withdrawal",
  "sourceName": "contracts/withdrawal/Withdrawal.sol",
  "abi": [
    {
      "inputs": [],
      "stateMutability": "nonpayable",
      "type": "constructor"
    },
    {
      "inputs": [
        {
          "internalType": "address",
          "name": "target",
          "type": "address"
        }
      ],
      "name": "AddressEmptyCode",
      "type": "error"
    },
    {
      "inputs": [],
      "name": "AddressZero",
      "type": "error"
    },
    {
      "inputs": [
        {
          "internalType": "bytes32",
          "name": "blockHash",
          "type": "bytes32"
        }
      ],
      "name": "BlockHashNotExists",
      "type": "error"
    },
    {
      "inputs": [
        {
          "internalType": "address",
          "name": "implementation",
          "type": "address"
        }
      ],
      "name": "ERC1967InvalidImplementation",
      "type": "error"
    },
    {
      "inputs": [],
      "name": "ERC1967NonPayable",
      "type": "error"
    },
    {
      "inputs": [],
      "name": "FailedCall",
      "type": "error"
    },
    {
      "inputs": [],
      "name": "InvalidInitialization",
      "type": "error"
    },
    {
      "inputs": [],
      "name": "NotInitializing",
      "type": "error"
    },
    {
      "inputs": [
        {
          "internalType": "address",
          "name": "owner",
          "type": "address"
        }
      ],
      "name": "OwnableInvalidOwner",
      "type": "error"
    },
    {
      "inputs": [
        {
          "internalType": "address",
          "name": "account",
          "type": "address"
        }
      ],
      "name": "OwnableUnauthorizedAccount",
      "type": "error"
    },
    {
      "inputs": [
        {
          "internalType": "uint256",
          "name": "tokenIndice",
          "type": "uint256"
        }
      ],
      "name": "TokenAlreadyExist",
      "type": "error"
    },
    {
      "inputs": [
        {
          "internalType": "uint256",
          "name": "tokenIndice",
          "type": "uint256"
        }
      ],
      "name": "TokenNotExist",
      "type": "error"
    },
    {
      "inputs": [],
      "name": "UUPSUnauthorizedCallContext",
      "type": "error"
    },
    {
      "inputs": [
        {
          "internalType": "bytes32",
          "name": "slot",
          "type": "bytes32"
        }
      ],
      "name": "UUPSUnsupportedProxiableUUID",
      "type": "error"
    },
    {
      "inputs": [],
      "name": "WithdrawalAggregatorMismatch",
      "type": "error"
    },
    {
      "inputs": [],
      "name": "WithdrawalChainVerificationFailed",
      "type": "error"
    },
    {
      "inputs": [],
      "name": "WithdrawalProofVerificationFailed",
      "type": "error"
    },
    {
      "anonymous": false,
      "inputs": [
        {
          "indexed": true,
          "internalType": "bytes32",
          "name": "withdrawalHash",
          "type": "bytes32"
        },
        {
          "indexed": true,
          "internalType": "address",
          "name": "recipient",
          "type": "address"
        },
        {
          "components": [
            {
              "internalType": "address",
              "name": "recipient",
              "type": "address"
            },
            {
              "internalType": "uint32",
              "name": "tokenIndex",
              "type": "uint32"
            },
            {
              "internalType": "uint256",
              "name": "amount",
              "type": "uint256"
            },
            {
              "internalType": "bytes32",
              "name": "nullifier",
              "type": "bytes32"
            }
          ],
          "indexed": false,
          "internalType": "struct WithdrawalLib.Withdrawal",
          "name": "withdrawal",
          "type": "tuple"
        }
      ],
      "name": "ClaimableWithdrawalQueued",
      "type": "event"
    },
    {
      "anonymous": false,
      "inputs": [
        {
          "indexed": true,
          "internalType": "bytes32",
          "name": "withdrawalHash",
          "type": "bytes32"
        },
        {
          "indexed": true,
          "internalType": "address",
          "name": "recipient",
          "type": "address"
        },
        {
          "components": [
            {
              "internalType": "address",
              "name": "recipient",
              "type": "address"
            },
            {
              "internalType": "uint32",
              "name": "tokenIndex",
              "type": "uint32"
            },
            {
              "internalType": "uint256",
              "name": "amount",
              "type": "uint256"
            },
            {
              "internalType": "bytes32",
              "name": "nullifier",
              "type": "bytes32"
            }
          ],
          "indexed": false,
          "internalType": "struct WithdrawalLib.Withdrawal",
          "name": "withdrawal",
          "type": "tuple"
        }
      ],
      "name": "DirectWithdrawalQueued",
      "type": "event"
    },
    {
      "anonymous": false,
      "inputs": [
        {
          "indexed": false,
          "internalType": "uint256[]",
          "name": "tokenIndices",
          "type": "uint256[]"
        }
      ],
      "name": "DirectWithdrawalTokenIndicesAdded",
      "type": "event"
    },
    {
      "anonymous": false,
      "inputs": [
        {
          "indexed": false,
          "internalType": "uint256[]",
          "name": "tokenIndices",
          "type": "uint256[]"
        }
      ],
      "name": "DirectWithdrawalTokenIndicesRemoved",
      "type": "event"
    },
    {
      "anonymous": false,
      "inputs": [
        {
          "indexed": false,
          "internalType": "uint64",
          "name": "version",
          "type": "uint64"
        }
      ],
      "name": "Initialized",
      "type": "event"
    },
    {
      "anonymous": false,
      "inputs": [
        {
          "indexed": true,
          "internalType": "address",
          "name": "previousOwner",
          "type": "address"
        },
        {
          "indexed": true,
          "internalType": "address",
          "name": "newOwner",
          "type": "address"
        }
      ],
      "name": "OwnershipTransferred",
      "type": "event"
    },
    {
      "anonymous": false,
      "inputs": [
        {
          "indexed": true,
          "internalType": "address",
          "name": "implementation",
          "type": "address"
        }
      ],
      "name": "Upgraded",
      "type": "event"
    },
    {
      "inputs": [],
      "name": "UPGRADE_INTERFACE_VERSION",
      "outputs": [
        {
          "internalType": "string",
          "name": "",
          "type": "string"
        }
      ],
      "stateMutability": "view",
      "type": "function"
    },
    {
      "inputs": [
        {
          "internalType": "uint256[]",
          "name": "tokenIndices",
          "type": "uint256[]"
        }
      ],
      "name": "addDirectWithdrawalTokenIndices",
      "outputs": [],
      "stateMutability": "nonpayable",
      "type": "function"
    },
    {
      "inputs": [],
      "name": "getDirectWithdrawalTokenIndices",
      "outputs": [
        {
          "internalType": "uint256[]",
          "name": "",
          "type": "uint256[]"
        }
      ],
      "stateMutability": "view",
      "type": "function"
    },
    {
      "inputs": [
        {
          "internalType": "address",
          "name": "_admin",
          "type": "address"
        },
        {
          "internalType": "address",
          "name": "_scrollMessenger",
          "type": "address"
        },
        {
          "internalType": "address",
          "name": "_withdrawalVerifier",
          "type": "address"
        },
        {
          "internalType": "address",
          "name": "_liquidity",
          "type": "address"
        },
        {
          "internalType": "address",
          "name": "_rollup",
          "type": "address"
        },
        {
          "internalType": "address",
          "name": "_contribution",
          "type": "address"
        },
        {
          "internalType": "uint256[]",
          "name": "_directWithdrawalTokenIndices",
          "type": "uint256[]"
        }
      ],
      "name": "initialize",
      "outputs": [],
      "stateMutability": "nonpayable",
      "type": "function"
    },
    {
      "inputs": [],
      "name": "owner",
      "outputs": [
        {
          "internalType": "address",
          "name": "",
          "type": "address"
        }
      ],
      "stateMutability": "view",
      "type": "function"
    },
    {
      "inputs": [],
      "name": "proxiableUUID",
      "outputs": [
        {
          "internalType": "bytes32",
          "name": "",
          "type": "bytes32"
        }
      ],
      "stateMutability": "view",
      "type": "function"
    },
    {
      "inputs": [
        {
          "internalType": "uint256[]",
          "name": "tokenIndices",
          "type": "uint256[]"
        }
      ],
      "name": "removeDirectWithdrawalTokenIndices",
      "outputs": [],
      "stateMutability": "nonpayable",
      "type": "function"
    },
    {
      "inputs": [],
      "name": "renounceOwnership",
      "outputs": [],
      "stateMutability": "nonpayable",
      "type": "function"
    },
    {
      "inputs": [
        {
          "components": [
            {
              "internalType": "address",
              "name": "recipient",
              "type": "address"
            },
            {
              "internalType": "uint32",
              "name": "tokenIndex",
              "type": "uint32"
            },
            {
              "internalType": "uint256",
              "name": "amount",
              "type": "uint256"
            },
            {
              "internalType": "bytes32",
              "name": "nullifier",
              "type": "bytes32"
            },
            {
              "internalType": "bytes32",
              "name": "blockHash",
              "type": "bytes32"
            },
            {
              "internalType": "uint32",
              "name": "blockNumber",
              "type": "uint32"
            }
          ],
          "internalType": "struct ChainedWithdrawalLib.ChainedWithdrawal[]",
          "name": "withdrawals",
          "type": "tuple[]"
        },
        {
          "components": [
            {
              "internalType": "bytes32",
              "name": "lastWithdrawalHash",
              "type": "bytes32"
            },
            {
              "internalType": "address",
              "name": "withdrawalAggregator",
              "type": "address"
            }
          ],
          "internalType": "struct WithdrawalProofPublicInputsLib.WithdrawalProofPublicInputs",
          "name": "publicInputs",
          "type": "tuple"
        },
        {
          "internalType": "bytes",
          "name": "proof",
          "type": "bytes"
        }
      ],
      "name": "submitWithdrawalProof",
      "outputs": [],
      "stateMutability": "nonpayable",
      "type": "function"
    },
    {
      "inputs": [
        {
          "internalType": "address",
          "name": "newOwner",
          "type": "address"
        }
      ],
      "name": "transferOwnership",
      "outputs": [],
      "stateMutability": "nonpayable",
      "type": "function"
    },
    {
      "inputs": [
        {
          "internalType": "address",
          "name": "newImplementation",
          "type": "address"
        },
        {
          "internalType": "bytes",
          "name": "data",
          "type": "bytes"
        }
      ],
      "name": "upgradeToAndCall",
      "outputs": [],
      "stateMutability": "payable",
      "type": "function"
    }
  ],
  "bytecode": "0x60a06040523060805234801561001457600080fd5b5061001d610022565b6100d4565b7ff0c57e16840df040f15088dc2f81fe391c3923bec73e23a9662efc9c229c6a00805468010000000000000000900460ff16156100725760405163f92ee8a960e01b815260040160405180910390fd5b80546001600160401b03908116146100d15780546001600160401b0319166001600160401b0390811782556040519081527fc7f505b2f371ae2175ee4913f4499e1f2633a7b5936321eed1cdaeb6115181d29060200160405180910390a15b50565b608051611faf6100fd60003960008181610bbe01528181610be70152610d2d0152611faf6000f3fe60806040526004361061009c5760003560e01c80638da5cb5b116100645780638da5cb5b146101335780639a0002a91461017a578063a7178c371461019a578063a93e83a6146101bc578063ad3cb1cc146101dc578063f2fde38b1461021a57600080fd5b80634f1ef286146100a157806352d1902d146100b6578063715018a6146100de57806377e88d2c146100f3578063871c5fe714610113575b600080fd5b6100b46100af366004611798565b61023a565b005b3480156100c257600080fd5b506100cb610259565b6040519081526020015b60405180910390f35b3480156100ea57600080fd5b506100b4610276565b3480156100ff57600080fd5b506100b461010e366004611841565b61028a565b34801561011f57600080fd5b506100b461012e366004611956565b6104ef565b34801561013f57600080fd5b507f9016d09d72d40fdae2fd8ceac6b6234c7706214fd39c1cd1e609a0528c199300546040516001600160a01b0390911681526020016100d5565b34801561018657600080fd5b506100b4610195366004611956565b610533565b3480156101a657600080fd5b506101af610600565b6040516100d59190611a07565b3480156101c857600080fd5b506100b46101d7366004611a7a565b610611565b3480156101e857600080fd5b5061020d604051806040016040528060058152602001640352e302e360dc1b81525081565b6040516100d59190611b82565b34801561022657600080fd5b506100b4610235366004611b95565b610b75565b610242610bb3565b61024b82610c58565b6102558282610c60565b5050565b6000610263610d22565b50600080516020611f5a83398151915290565b61027e610d6b565b6102886000610dc6565b565b7ff0c57e16840df040f15088dc2f81fe391c3923bec73e23a9662efc9c229c6a008054600160401b810460ff1615906001600160401b03166000811580156102cf5750825b90506000826001600160401b031660011480156102eb5750303b155b9050811580156102f9575080155b156103175760405163f92ee8a960e01b815260040160405180910390fd5b845467ffffffffffffffff19166001178555831561034157845460ff60401b1916600160401b1785555b6001600160a01b038c1661036857604051639fabe1c160e01b815260040160405180910390fd5b6001600160a01b038b1661038f57604051639fabe1c160e01b815260040160405180910390fd5b6001600160a01b038a166103b657604051639fabe1c160e01b815260040160405180910390fd5b6001600160a01b0389166103dd57604051639fabe1c160e01b815260040160405180910390fd5b6001600160a01b03881661040457604051639fabe1c160e01b815260040160405180910390fd5b6001600160a01b03871661042b57604051639fabe1c160e01b815260040160405180910390fd5b6104348c610e37565b61043c610e48565b600180546001600160a01b03199081166001600160a01b038e8116919091179092556000805482168d84161790556002805482168b84161790556004805482168a841617905560038054909116918b1691909117905561049b86610e50565b83156104e157845460ff60401b19168555604051600181527fc7f505b2f371ae2175ee4913f4499e1f2633a7b5936321eed1cdaeb6115181d29060200160405180910390a15b505050505050505050505050565b6104f7610d6b565b610255828280806020026020016040519081016040528093929190818152602001838360200280828437600092019190915250610e5092505050565b61053b610d6b565b60005b818110156105c257600061057484848481811061055d5761055d611bb0565b905060200201356006610f0c90919063ffffffff16565b9050806105b95783838381811061058d5761058d611bb0565b90506020020135604051632a2c67cd60e01b81526004016105b091815260200190565b60405180910390fd5b5060010161053e565b507f0e5fb72f67c09578724f25132b948e5fb901741fa3240f11804518dc94799a2b82826040516105f4929190611bc6565b60405180910390a15050565b606061060c6006610f21565b905090565b61061e8585858585610f35565b60008080866001600160401b0381111561063a5761063a611752565b604051908082528060200260200182016040528015610663578160200160208202803683370190505b50905060005b878110156107e357600089898381811061068557610685611bb0565b905060c0020180360381019061069b9190611c13565b606081015160009081526005602052604090205490915060ff16156106e45760018383815181106106ce576106ce611bb0565b91151560209283029190910190910152506107db565b6060810151600090815260056020526040808220805460ff1916600117905560025460a0840151915163d2b210a160e01b815263ffffffff90921660048301526001600160a01b03169063d2b210a190602401602060405180830381865afa158015610754573d6000803e3d6000fd5b505050506040513d601f19601f820116820180604052508101906107789190611ca6565b9050816080015181146107a6578160800151604051630631b89b60e41b81526004016105b091815260200190565b6107b382602001516110a1565b156107ca57856107c281611cd5565b9650506107d8565b846107d481611cd5565b9550505b50505b600101610669565b50821580156107f0575081155b156107fd57505050610b6e565b6000836001600160401b0381111561081757610817611752565b60405190808252806020026020018201604052801561086957816020015b6040805160808101825260008082526020808301829052928201819052606082015282526000199092019101816108355790505b5090506000836001600160401b0381111561088657610886611752565b6040519080825280602002602001820160405280156108af578160200160208202803683370190505b50905060008060005b8b811015610a67578581815181106108d2576108d2611bb0565b6020026020010151610a5f5760008d8d838181106108f2576108f2611bb0565b905060c002018036038101906109089190611c13565b90506000604051806080016040528083600001516001600160a01b03168152602001836020015163ffffffff168152602001836040015181526020018360600151815250905061095b82602001516110a1565b156109db578087868151811061097357610973611bb0565b602090810291909101015280516001600160a01b0316610992826110b7565b7fdbe674c66915823ad8cb90cac7eb482e951adec0311c9cf091da19de527ee935836040516109c19190611cee565b60405180910390a3846109d381611cd5565b955050610a5c565b60006109e6826110b7565b9050808786815181106109fb576109fb611bb0565b60200260200101818152505081600001516001600160a01b0316817f740137a4fd93de42bb435842325e4fad55ea4ba617db0b44125377b94b43249d84604051610a459190611cee565b60405180910390a384610a5781611cd5565b955050505b50505b6001016108b8565b506000639d6a54cb60e01b8585604051602401610a85929190611d28565b60408051601f198184030181529190526020810180516001600160e01b03166001600160e01b0319909316929092179091529050610ac28161112f565b6004546001600160a01b031663f099f9f57f738128fe393bef1bcd8a524796fff40618b938cd467c71fcf37850ab0ba4f7d733610aff8b8d611de2565b6040516001600160e01b031960e086901b16815260048101939093526001600160a01b0390911660248301526044820152606401600060405180830381600087803b158015610b4d57600080fd5b505af1158015610b61573d6000803e3d6000fd5b5050505050505050505050505b5050505050565b610b7d610d6b565b6001600160a01b038116610ba757604051631e4fbdf760e01b8152600060048201526024016105b0565b610bb081610dc6565b50565b306001600160a01b037f0000000000000000000000000000000000000000000000000000000000000000161480610c3a57507f00000000000000000000000000000000000000000000000000000000000000006001600160a01b0316610c2e600080516020611f5a833981519152546001600160a01b031690565b6001600160a01b031614155b156102885760405163703e46dd60e11b815260040160405180910390fd5b610bb0610d6b565b816001600160a01b03166352d1902d6040518163ffffffff1660e01b8152600401602060405180830381865afa925050508015610cba575060408051601f3d908101601f19168201909252610cb791810190611ca6565b60015b610ce257604051634c9c8ce360e01b81526001600160a01b03831660048201526024016105b0565b600080516020611f5a8339815191528114610d1357604051632a87526960e21b8152600481018290526024016105b0565b610d1d83836111ab565b505050565b306001600160a01b037f000000000000000000000000000000000000000000000000000000000000000016146102885760405163703e46dd60e11b815260040160405180910390fd5b33610d9d7f9016d09d72d40fdae2fd8ceac6b6234c7706214fd39c1cd1e609a0528c199300546001600160a01b031690565b6001600160a01b0316146102885760405163118cdaa760e01b81523360048201526024016105b0565b7f9016d09d72d40fdae2fd8ceac6b6234c7706214fd39c1cd1e609a0528c19930080546001600160a01b031981166001600160a01b03848116918217845560405192169182907f8be0079c531659141344cd1fd0a4f28419497f9722a3daafe3b4186f6b6457e090600090a3505050565b610e3f611201565b610bb08161124a565b610288611201565b60005b8151811015610ed1576000610e8b838381518110610e7357610e73611bb0565b6020026020010151600661125290919063ffffffff16565b905080610ec857828281518110610ea457610ea4611bb0565b6020026020010151604051631a3aa67b60e31b81526004016105b091815260200190565b50600101610e53565b507f03e4a91d34a2a2419d5513d9814cf5ea9e317e6166670b4b89a97e478541d4b981604051610f019190611a07565b60405180910390a150565b6000610f18838361125e565b90505b92915050565b60606000610f2e83611351565b9392505050565b610f9e83600001358686808060200260200160405190810160405280939291908181526020016000905b82821015610f8b57610f7c60c08302860136819003810190611c13565b81526020019060010190610f5f565b50505050506113ad90919063ffffffff16565b610fbb5760405163fbf63aef60e01b815260040160405180910390fd5b33610fcc6040850160208601611b95565b6001600160a01b031614610ff357604051635f4736cb60e11b815260040160405180910390fd5b6000546001600160a01b0316637e4f7a8a838361102561102061101b368a90038a018a611df5565b61140a565b61143d565b6040518463ffffffff1660e01b815260040161104393929190611e4a565b602060405180830381865afa158015611060573d6000803e3d6000fd5b505050506040513d601f19601f820116820180604052508101906110849190611e92565b610b6e57604051630e28fbf160e21b815260040160405180910390fd5b6000610f1b600663ffffffff808516906114b516565b60008160000151826020015183604001518460600151604051602001611112949392919060609490941b6001600160601b031916845260e09290921b6001600160e01b03191660148401526018830152603882015260580190565b604051602081830303815290604052805190602001209050919050565b600154600354604051635f7b157760e01b8152600092600019926001600160a01b0391821692635f7b1577928692611174929116908390899088903390600401611eb4565b6000604051808303818588803b15801561118d57600080fd5b505af11580156111a1573d6000803e3d6000fd5b5050505050505050565b6111b4826114cd565b6040516001600160a01b038316907fbc7cd75a20ee27fd9adebab32041f755214dbc6bffa90cc0225b39da2e5c2d3b90600090a28051156111f957610d1d8282611532565b6102556115a8565b7ff0c57e16840df040f15088dc2f81fe391c3923bec73e23a9662efc9c229c6a0054600160401b900460ff1661028857604051631afcd79f60e31b815260040160405180910390fd5b610b7d611201565b6000610f1883836115c7565b60008181526001830160205260408120548015611347576000611282600183611efd565b855490915060009061129690600190611efd565b90508082146112fb5760008660000182815481106112b6576112b6611bb0565b90600052602060002001549050808760000184815481106112d9576112d9611bb0565b6000918252602080832090910192909255918252600188019052604090208390555b855486908061130c5761130c611f10565b600190038181906000526020600020016000905590558560010160008681526020019081526020016000206000905560019350505050610f1b565b6000915050610f1b565b6060816000018054806020026020016040519081016040528092919081815260200182805480156113a157602002820191906000526020600020905b81548152602001906001019080831161138d575b50505050509050919050565b600080805b84518110156113ee5760008582815181106113cf576113cf611bb0565b602002602001015190506113e38184611616565b9250506001016113b2565b50828114611400576000915050610f1b565b5060019392505050565b60008160000151826020015160405160200161111292919091825260601b6001600160601b031916602082015260340190565b604080516008808252610120820190925260609160009190602082016101008036833701905050905060005b60088110156114ae5761147d816020611f26565b84901b60e01c63ffffffff1682828151811061149b5761149b611bb0565b6020908102919091010152600101611469565b5092915050565b60008181526001830160205260408120541515610f18565b806001600160a01b03163b60000361150357604051634c9c8ce360e01b81526001600160a01b03821660048201526024016105b0565b600080516020611f5a83398151915280546001600160a01b0319166001600160a01b0392909216919091179055565b6060600080846001600160a01b03168460405161154f9190611f3d565b600060405180830381855af49150503d806000811461158a576040519150601f19603f3d011682016040523d82523d6000602084013e61158f565b606091505b509150915061159f8583836116b8565b95945050505050565b34156102885760405163b398979f60e01b815260040160405180910390fd5b600081815260018301602052604081205461160e57508154600181810184556000848152602080822090930184905584548482528286019093526040902091909155610f1b565b506000610f1b565b600081836000015184602001518560400151866060015187608001518860a0015160405160200161169a979695949392919096875260609590951b6001600160601b031916602087015260e093841b6001600160e01b0319908116603488015260388701939093526058860191909152607885015291901b166098820152609c0190565b60405160208183030381529060405280519060200120905092915050565b6060826116cd576116c88261170d565b610f2e565b81511580156116e457506001600160a01b0384163b155b156114ae57604051639996b31560e01b81526001600160a01b03851660048201526024016105b0565b80511561171d5780518082602001fd5b60405163d6bda27560e01b815260040160405180910390fd5b80356001600160a01b038116811461174d57600080fd5b919050565b634e487b7160e01b600052604160045260246000fd5b604051601f8201601f191681016001600160401b038111828210171561179057611790611752565b604052919050565b600080604083850312156117ab57600080fd5b6117b483611736565b915060208301356001600160401b038111156117cf57600080fd5b8301601f810185136117e057600080fd5b80356001600160401b038111156117f9576117f9611752565b61180c601f8201601f1916602001611768565b81815286602083850101111561182157600080fd5b816020840160208301376000602083830101528093505050509250929050565b600080600080600080600060e0888a03121561185c57600080fd5b61186588611736565b965061187360208901611736565b955061188160408901611736565b945061188f60608901611736565b935061189d60808901611736565b92506118ab60a08901611736565b915060c08801356001600160401b038111156118c657600080fd5b8801601f81018a136118d757600080fd5b80356001600160401b038111156118f0576118f0611752565b8060051b61190060208201611768565b9182526020818401810192908101908d84111561191c57600080fd5b6020850194505b8385101561194257843580835260209586019590935090910190611923565b809550505050505092959891949750929550565b6000806020838503121561196957600080fd5b82356001600160401b0381111561197f57600080fd5b8301601f8101851361199057600080fd5b80356001600160401b038111156119a657600080fd5b8560208260051b84010111156119bb57600080fd5b6020919091019590945092505050565b600081518084526020840193506020830160005b828110156119fd5781518652602095860195909101906001016119df565b5093949350505050565b602081526000610f1860208301846119cb565b600060408284031215611a2c57600080fd5b50919050565b60008083601f840112611a4457600080fd5b5081356001600160401b03811115611a5b57600080fd5b602083019150836020828501011115611a7357600080fd5b9250929050565b600080600080600060808688031215611a9257600080fd5b85356001600160401b03811115611aa857600080fd5b8601601f81018813611ab957600080fd5b80356001600160401b03811115611acf57600080fd5b88602060c083028401011115611ae457600080fd5b602091820196509450611afa9088908801611a1a565b925060608601356001600160401b03811115611b1557600080fd5b611b2188828901611a32565b969995985093965092949392505050565b60005b83811015611b4d578181015183820152602001611b35565b50506000910152565b60008151808452611b6e816020860160208601611b32565b601f01601f19169290920160200192915050565b602081526000610f186020830184611b56565b600060208284031215611ba757600080fd5b610f1882611736565b634e487b7160e01b600052603260045260246000fd5b6020808252810182905260006001600160fb1b03831115611be657600080fd5b8260051b80856040850137919091016040019392505050565b803563ffffffff8116811461174d57600080fd5b600060c0828403128015611c2657600080fd5b5060405160009060c081016001600160401b0381118282101715611c4c57611c4c611752565b604052611c5884611736565b8152611c6660208501611bff565b602082015260408481013590820152606080850135908201526080808501359082018190529150611c9960a08501611bff565b60a0820152949350505050565b600060208284031215611cb857600080fd5b5051919050565b634e487b7160e01b600052601160045260246000fd5b600060018201611ce757611ce7611cbf565b5060010190565b81516001600160a01b0316815260208083015163ffffffff1690820152604080830151908201526060808301519082015260808101610f1b565b6040808252835190820181905260009060208501906060840190835b81811015611d9a57611d8483855180516001600160a01b0316825260208082015163ffffffff169083015260408082015190830152606090810151910152565b6020939093019260809290920191600101611d44565b50508381036020808601919091528551808352918101925085019060005b81811015611dd6578251845260209384019390920191600101611db8565b50919695505050505050565b80820180821115610f1b57610f1b611cbf565b60006040828403128015611e0857600080fd5b50604080519081016001600160401b0381118282101715611e2b57611e2b611752565b60405282358152611e3e60208401611736565b60208201529392505050565b60408152826040820152828460608301376000606084830101526000601f19601f85011682016060838203016020840152611e8860608201856119cb565b9695505050505050565b600060208284031215611ea457600080fd5b81518015158114610f2e57600080fd5b60018060a01b038616815284602082015260a060408201526000611edb60a0830186611b56565b6060830194909452506001600160a01b03919091166080909101529392505050565b81810381811115610f1b57610f1b611cbf565b634e487b7160e01b600052603160045260246000fd5b8082028115828204841417610f1b57610f1b611cbf565b60008251611f4f818460208701611b32565b919091019291505056fe360894a13ba1a3210667c828492db98dca3e2076cc3735a920a3ca505d382bbca26469706673582212209e27ef756fd58c7131f537940d053aebe789f405c3da9d3fa34cddea6a09045b64736f6c634300081b0033",
  "linkReferences": {},
  "deployedLinkReferences": {}
}