{
  "_format": "hh-sol-artifact-1",
  "contractName": "Liquidity",
  "sourceName": "contracts/liquidity/Liquidity.sol",
  "abi": [
    {
      "inputs": [],
      "stateMutability": "nonpayable",
      "type": "constructor"
    },
    {
      "inputs": [],
      "name": "AccessControlBadConfirmation",
      "type": "error"
    },
    {
      "inputs": [
        {
          "internalType": "address",
          "name": "account",
          "type": "address"
        },
        {
          "internalType": "bytes32",
          "name": "neededRole",
          "type": "bytes32"
        }
      ],
      "name": "AccessControlUnauthorizedAccount",
      "type": "error"
    },
    {
      "inputs": [
        {
          "internalType": "address",
          "name": "target",
          "type": "address"
        }
      ],
      "name": "AddressEmptyCode",
      "type": "error"
    },
    {
      "inputs": [],
      "name": "AddressZero",
      "type": "error"
    },
    {
      "inputs": [],
      "name": "AlreadyAnalyzed",
      "type": "error"
    },
    {
      "inputs": [
        {
          "internalType": "bytes32",
          "name": "depositHash",
          "type": "bytes32"
        }
      ],
      "name": "DepositHashAlreadyExists",
      "type": "error"
    },
    {
      "inputs": [
        {
          "internalType": "address",
          "name": "implementation",
          "type": "address"
        }
      ],
      "name": "ERC1967InvalidImplementation",
      "type": "error"
    },
    {
      "inputs": [],
      "name": "ERC1967NonPayable",
      "type": "error"
    },
    {
      "inputs": [],
      "name": "FailedCall",
      "type": "error"
    },
    {
      "inputs": [
        {
          "internalType": "bytes32",
          "name": "depositDataHash",
          "type": "bytes32"
        },
        {
          "internalType": "bytes32",
          "name": "calculatedHash",
          "type": "bytes32"
        }
      ],
      "name": "InvalidDepositHash",
      "type": "error"
    },
    {
      "inputs": [],
      "name": "InvalidInitialization",
      "type": "error"
    },
    {
      "inputs": [],
      "name": "InvalidWithdrawalAddress",
      "type": "error"
    },
    {
      "inputs": [],
      "name": "NotInitializing",
      "type": "error"
    },
    {
      "inputs": [],
      "name": "OnlySenderCanCancelDeposit",
      "type": "error"
    },
    {
      "inputs": [
        {
          "internalType": "address",
          "name": "token",
          "type": "address"
        }
      ],
      "name": "SafeERC20FailedOperation",
      "type": "error"
    },
    {
      "inputs": [],
      "name": "SenderIsNotScrollMessenger",
      "type": "error"
    },
    {
      "inputs": [],
      "name": "TokenAddressIsZero",
      "type": "error"
    },
    {
      "inputs": [
        {
          "internalType": "uint256",
          "name": "upToDepositId",
          "type": "uint256"
        },
        {
          "internalType": "uint256",
          "name": "firstDepositId",
          "type": "uint256"
        },
        {
          "internalType": "uint256",
          "name": "lastDepositId",
          "type": "uint256"
        }
      ],
      "name": "TriedAnalyzeOutOfRange",
      "type": "error"
    },
    {
      "inputs": [],
      "name": "TriedToDepositZero",
      "type": "error"
    },
    {
      "inputs": [
        {
          "internalType": "uint256",
          "name": "rejectIndex",
          "type": "uint256"
        },
        {
          "internalType": "uint256",
          "name": "front",
          "type": "uint256"
        },
        {
          "internalType": "uint256",
          "name": "upToDepositId",
          "type": "uint256"
        }
      ],
      "name": "TriedToRejectOutOfRange",
      "type": "error"
    },
    {
      "inputs": [],
      "name": "UUPSUnauthorizedCallContext",
      "type": "error"
    },
    {
      "inputs": [
        {
          "internalType": "bytes32",
          "name": "slot",
          "type": "bytes32"
        }
      ],
      "name": "UUPSUnsupportedProxiableUUID",
      "type": "error"
    },
    {
      "inputs": [],
      "name": "WithdrawalAddressNotSet",
      "type": "error"
    },
    {
      "inputs": [
        {
          "internalType": "bytes32",
          "name": "withdrawalHash",
          "type": "bytes32"
        }
      ],
      "name": "WithdrawalNotFound",
      "type": "error"
    },
    {
      "anonymous": false,
      "inputs": [
        {
          "indexed": true,
          "internalType": "uint256",
          "name": "lastProcessedClaimableWithdrawalId",
          "type": "uint256"
        }
      ],
      "name": "ClaimableWithdrawalsProcessed",
      "type": "event"
    },
    {
      "anonymous": false,
      "inputs": [
        {
          "indexed": true,
          "internalType": "address",
          "name": "recipient",
          "type": "address"
        },
        {
          "indexed": true,
          "internalType": "bytes32",
          "name": "withdrawalHash",
          "type": "bytes32"
        }
      ],
      "name": "ClaimedWithdrawal",
      "type": "event"
    },
    {
      "anonymous": false,
      "inputs": [
        {
          "indexed": true,
          "internalType": "uint256",
          "name": "depositId",
          "type": "uint256"
        }
      ],
      "name": "DepositCanceled",
      "type": "event"
    },
    {
      "anonymous": false,
      "inputs": [
        {
          "indexed": true,
          "internalType": "uint256",
          "name": "depositId",
          "type": "uint256"
        },
        {
          "indexed": true,
          "internalType": "address",
          "name": "sender",
          "type": "address"
        },
        {
          "indexed": true,
          "internalType": "bytes32",
          "name": "recipientSaltHash",
          "type": "bytes32"
        },
        {
          "indexed": false,
          "internalType": "uint32",
          "name": "tokenIndex",
          "type": "uint32"
        },
        {
          "indexed": false,
          "internalType": "uint256",
          "name": "amount",
          "type": "uint256"
        },
        {
          "indexed": false,
          "internalType": "uint256",
          "name": "depositedAt",
          "type": "uint256"
        }
      ],
      "name": "Deposited",
      "type": "event"
    },
    {
      "anonymous": false,
      "inputs": [
        {
          "indexed": true,
          "internalType": "uint256",
          "name": "upToDepositId",
          "type": "uint256"
        },
        {
          "indexed": false,
          "internalType": "uint256[]",
          "name": "rejectedIndices",
          "type": "uint256[]"
        },
        {
          "indexed": false,
          "internalType": "uint256",
          "name": "gasLimit",
          "type": "uint256"
        },
        {
          "indexed": false,
          "internalType": "bytes",
          "name": "message",
          "type": "bytes"
        }
      ],
      "name": "DepositsAnalyzedAndRelayed",
      "type": "event"
    },
    {
      "anonymous": false,
      "inputs": [
        {
          "indexed": true,
          "internalType": "bytes32",
          "name": "withdrawalHash",
          "type": "bytes32"
        },
        {
          "components": [
            {
              "internalType": "address",
              "name": "recipient",
              "type": "address"
            },
            {
              "internalType": "uint32",
              "name": "tokenIndex",
              "type": "uint32"
            },
            {
              "internalType": "uint256",
              "name": "amount",
              "type": "uint256"
            },
            {
              "internalType": "uint256",
              "name": "id",
              "type": "uint256"
            }
          ],
          "indexed": false,
          "internalType": "struct WithdrawalLib.Withdrawal",
          "name": "withdrawal",
          "type": "tuple"
        }
      ],
      "name": "DirectWithdrawalFailed",
      "type": "event"
    },
    {
      "anonymous": false,
      "inputs": [
        {
          "indexed": true,
          "internalType": "uint256",
          "name": "lastProcessedDirectWithdrawalId",
          "type": "uint256"
        }
      ],
      "name": "DirectWithdrawalsProcessed",
      "type": "event"
    },
    {
      "anonymous": false,
      "inputs": [
        {
          "indexed": false,
          "internalType": "uint64",
          "name": "version",
          "type": "uint64"
        }
      ],
      "name": "Initialized",
      "type": "event"
    },
    {
      "anonymous": false,
      "inputs": [
        {
          "indexed": true,
          "internalType": "bytes32",
          "name": "role",
          "type": "bytes32"
        },
        {
          "indexed": true,
          "internalType": "bytes32",
          "name": "previousAdminRole",
          "type": "bytes32"
        },
        {
          "indexed": true,
          "internalType": "bytes32",
          "name": "newAdminRole",
          "type": "bytes32"
        }
      ],
      "name": "RoleAdminChanged",
      "type": "event"
    },
    {
      "anonymous": false,
      "inputs": [
        {
          "indexed": true,
          "internalType": "bytes32",
          "name": "role",
          "type": "bytes32"
        },
        {
          "indexed": true,
          "internalType": "address",
          "name": "account",
          "type": "address"
        },
        {
          "indexed": true,
          "internalType": "address",
          "name": "sender",
          "type": "address"
        }
      ],
      "name": "RoleGranted",
      "type": "event"
    },
    {
      "anonymous": false,
      "inputs": [
        {
          "indexed": true,
          "internalType": "bytes32",
          "name": "role",
          "type": "bytes32"
        },
        {
          "indexed": true,
          "internalType": "address",
          "name": "account",
          "type": "address"
        },
        {
          "indexed": true,
          "internalType": "address",
          "name": "sender",
          "type": "address"
        }
      ],
      "name": "RoleRevoked",
      "type": "event"
    },
    {
      "anonymous": false,
      "inputs": [
        {
          "indexed": true,
          "internalType": "address",
          "name": "implementation",
          "type": "address"
        }
      ],
      "name": "Upgraded",
      "type": "event"
    },
    {
      "anonymous": false,
      "inputs": [
        {
          "indexed": true,
          "internalType": "bytes32",
          "name": "withdrawalHash",
          "type": "bytes32"
        }
      ],
      "name": "WithdrawalClaimable",
      "type": "event"
    },
    {
      "inputs": [],
      "name": "ANALYZER",
      "outputs": [
        {
          "internalType": "bytes32",
          "name": "",
          "type": "bytes32"
        }
      ],
      "stateMutability": "view",
      "type": "function"
    },
    {
      "inputs": [],
      "name": "DEFAULT_ADMIN_ROLE",
      "outputs": [
        {
          "internalType": "bytes32",
          "name": "",
          "type": "bytes32"
        }
      ],
      "stateMutability": "view",
      "type": "function"
    },
    {
      "inputs": [],
      "name": "UPGRADE_INTERFACE_VERSION",
      "outputs": [
        {
          "internalType": "string",
          "name": "",
          "type": "string"
        }
      ],
      "stateMutability": "view",
      "type": "function"
    },
    {
      "inputs": [
        {
          "internalType": "uint256",
          "name": "upToDepositId",
          "type": "uint256"
        },
        {
          "internalType": "uint256[]",
          "name": "rejectDepositIds",
          "type": "uint256[]"
        },
        {
          "internalType": "uint256",
          "name": "gasLimit",
          "type": "uint256"
        }
      ],
      "name": "analyzeAndRelayDeposits",
      "outputs": [],
      "stateMutability": "payable",
      "type": "function"
    },
    {
      "inputs": [
        {
          "internalType": "uint256",
          "name": "depositId",
          "type": "uint256"
        },
        {
          "components": [
            {
              "internalType": "bytes32",
              "name": "recipientSaltHash",
              "type": "bytes32"
            },
            {
              "internalType": "uint32",
              "name": "tokenIndex",
              "type": "uint32"
            },
            {
              "internalType": "uint256",
              "name": "amount",
              "type": "uint256"
            }
          ],
          "internalType": "struct DepositLib.Deposit",
          "name": "deposit",
          "type": "tuple"
        }
      ],
      "name": "cancelDeposit",
      "outputs": [],
      "stateMutability": "nonpayable",
      "type": "function"
    },
    {
      "inputs": [
        {
          "components": [
            {
              "internalType": "address",
              "name": "recipient",
              "type": "address"
            },
            {
              "internalType": "uint32",
              "name": "tokenIndex",
              "type": "uint32"
            },
            {
              "internalType": "uint256",
              "name": "amount",
              "type": "uint256"
            },
            {
              "internalType": "uint256",
              "name": "id",
              "type": "uint256"
            }
          ],
          "internalType": "struct WithdrawalLib.Withdrawal[]",
          "name": "withdrawals",
          "type": "tuple[]"
        }
      ],
      "name": "claimWithdrawals",
      "outputs": [],
      "stateMutability": "nonpayable",
      "type": "function"
    },
    {
      "inputs": [
        {
          "internalType": "bytes32",
          "name": "",
          "type": "bytes32"
        }
      ],
      "name": "claimableWithdrawals",
      "outputs": [
        {
          "internalType": "uint256",
          "name": "",
          "type": "uint256"
        }
      ],
      "stateMutability": "view",
      "type": "function"
    },
    {
      "inputs": [
        {
          "internalType": "address",
          "name": "tokenAddress",
          "type": "address"
        },
        {
          "internalType": "bytes32",
          "name": "recipientSaltHash",
          "type": "bytes32"
        },
        {
          "internalType": "uint256",
          "name": "tokenId",
          "type": "uint256"
        },
        {
          "internalType": "uint256",
          "name": "amount",
          "type": "uint256"
        }
      ],
      "name": "depositERC1155",
      "outputs": [],
      "stateMutability": "nonpayable",
      "type": "function"
    },
    {
      "inputs": [
        {
          "internalType": "address",
          "name": "tokenAddress",
          "type": "address"
        },
        {
          "internalType": "bytes32",
          "name": "recipientSaltHash",
          "type": "bytes32"
        },
        {
          "internalType": "uint256",
          "name": "amount",
          "type": "uint256"
        }
      ],
      "name": "depositERC20",
      "outputs": [],
      "stateMutability": "nonpayable",
      "type": "function"
    },
    {
      "inputs": [
        {
          "internalType": "address",
          "name": "tokenAddress",
          "type": "address"
        },
        {
          "internalType": "bytes32",
          "name": "recipientSaltHash",
          "type": "bytes32"
        },
        {
          "internalType": "uint256",
          "name": "tokenId",
          "type": "uint256"
        }
      ],
      "name": "depositERC721",
      "outputs": [],
      "stateMutability": "nonpayable",
      "type": "function"
    },
    {
      "inputs": [
        {
          "internalType": "bytes32",
          "name": "recipientSaltHash",
          "type": "bytes32"
        }
      ],
      "name": "depositNativeToken",
      "outputs": [],
      "stateMutability": "payable",
      "type": "function"
    },
    {
      "inputs": [
        {
          "internalType": "uint256",
          "name": "depositId",
          "type": "uint256"
        }
      ],
      "name": "getDepositData",
      "outputs": [
        {
          "components": [
            {
              "internalType": "bytes32",
              "name": "depositHash",
              "type": "bytes32"
            },
            {
              "internalType": "address",
              "name": "sender",
              "type": "address"
            },
            {
              "internalType": "bool",
              "name": "isRejected",
              "type": "bool"
            }
          ],
          "internalType": "struct DepositQueueLib.DepositData",
          "name": "",
          "type": "tuple"
        }
      ],
      "stateMutability": "view",
      "type": "function"
    },
    {
      "inputs": [
        {
          "internalType": "uint256",
          "name": "depositId",
          "type": "uint256"
        }
      ],
      "name": "getDepositDataHash",
      "outputs": [
        {
          "internalType": "bytes32",
          "name": "",
          "type": "bytes32"
        }
      ],
      "stateMutability": "view",
      "type": "function"
    },
    {
      "inputs": [],
      "name": "getLastDepositId",
      "outputs": [
        {
          "internalType": "uint256",
          "name": "",
          "type": "uint256"
        }
      ],
      "stateMutability": "view",
      "type": "function"
    },
    {
      "inputs": [],
      "name": "getLastRelayedDepositId",
      "outputs": [
        {
          "internalType": "uint256",
          "name": "",
          "type": "uint256"
        }
      ],
      "stateMutability": "view",
      "type": "function"
    },
    {
      "inputs": [],
      "name": "getNativeTokenIndex",
      "outputs": [
        {
          "internalType": "uint32",
          "name": "",
          "type": "uint32"
        }
      ],
      "stateMutability": "pure",
      "type": "function"
    },
    {
      "inputs": [
        {
          "internalType": "bytes32",
          "name": "role",
          "type": "bytes32"
        }
      ],
      "name": "getRoleAdmin",
      "outputs": [
        {
          "internalType": "bytes32",
          "name": "",
          "type": "bytes32"
        }
      ],
      "stateMutability": "view",
      "type": "function"
    },
    {
      "inputs": [
        {
          "internalType": "enum ITokenData.TokenType",
          "name": "tokenType",
          "type": "uint8"
        },
        {
          "internalType": "address",
          "name": "tokenAddress",
          "type": "address"
        },
        {
          "internalType": "uint256",
          "name": "tokenId",
          "type": "uint256"
        }
      ],
      "name": "getTokenIndex",
      "outputs": [
        {
          "internalType": "bool",
          "name": "",
          "type": "bool"
        },
        {
          "internalType": "uint32",
          "name": "",
          "type": "uint32"
        }
      ],
      "stateMutability": "view",
      "type": "function"
    },
    {
      "inputs": [
        {
          "internalType": "uint32",
          "name": "tokenIndex",
          "type": "uint32"
        }
      ],
      "name": "getTokenInfo",
      "outputs": [
        {
          "components": [
            {
              "internalType": "enum ITokenData.TokenType",
              "name": "tokenType",
              "type": "uint8"
            },
            {
              "internalType": "address",
              "name": "tokenAddress",
              "type": "address"
            },
            {
              "internalType": "uint256",
              "name": "tokenId",
              "type": "uint256"
            }
          ],
          "internalType": "struct ITokenData.TokenInfo",
          "name": "",
          "type": "tuple"
        }
      ],
      "stateMutability": "view",
      "type": "function"
    },
    {
      "inputs": [
        {
          "internalType": "bytes32",
          "name": "role",
          "type": "bytes32"
        },
        {
          "internalType": "address",
          "name": "account",
          "type": "address"
        }
      ],
      "name": "grantRole",
      "outputs": [],
      "stateMutability": "nonpayable",
      "type": "function"
    },
    {
      "inputs": [
        {
          "internalType": "bytes32",
          "name": "role",
          "type": "bytes32"
        },
        {
          "internalType": "address",
          "name": "account",
          "type": "address"
        }
      ],
      "name": "hasRole",
      "outputs": [
        {
          "internalType": "bool",
          "name": "",
          "type": "bool"
        }
      ],
      "stateMutability": "view",
      "type": "function"
    },
    {
      "inputs": [
        {
          "internalType": "address",
          "name": "_l1ScrollMessenger",
          "type": "address"
        },
        {
          "internalType": "address",
          "name": "_rollup",
          "type": "address"
        },
        {
          "internalType": "address",
          "name": "_withdrawal",
          "type": "address"
        },
        {
          "internalType": "address",
          "name": "_analyzer",
          "type": "address"
        },
        {
          "internalType": "address",
          "name": "_contribution",
          "type": "address"
        },
        {
          "internalType": "address[]",
          "name": "initialERC20Tokens",
          "type": "address[]"
        }
      ],
      "name": "initialize",
      "outputs": [],
      "stateMutability": "nonpayable",
      "type": "function"
    },
    {
      "inputs": [
        {
          "internalType": "uint256",
          "name": "depositId",
          "type": "uint256"
        },
        {
          "internalType": "bytes32",
          "name": "recipientSaltHash",
          "type": "bytes32"
        },
        {
          "internalType": "uint32",
          "name": "tokenIndex",
          "type": "uint32"
        },
        {
          "internalType": "uint256",
          "name": "amount",
          "type": "uint256"
        },
        {
          "internalType": "address",
          "name": "sender",
          "type": "address"
        }
      ],
      "name": "isDepositValid",
      "outputs": [
        {
          "internalType": "bool",
          "name": "",
          "type": "bool"
        }
      ],
      "stateMutability": "view",
      "type": "function"
    },
    {
      "inputs": [
        {
          "internalType": "address",
          "name": "",
          "type": "address"
        },
        {
          "internalType": "address",
          "name": "",
          "type": "address"
        },
        {
          "internalType": "uint256",
          "name": "",
          "type": "uint256"
        },
        {
          "internalType": "uint256",
          "name": "",
          "type": "uint256"
        },
        {
          "internalType": "bytes",
          "name": "",
          "type": "bytes"
        }
      ],
      "name": "onERC1155Received",
      "outputs": [
        {
          "internalType": "bytes4",
          "name": "",
          "type": "bytes4"
        }
      ],
      "stateMutability": "pure",
      "type": "function"
    },
    {
      "inputs": [
        {
          "internalType": "uint256",
          "name": "_lastProcessedDirectWithdrawalId",
          "type": "uint256"
        },
        {
          "components": [
            {
              "internalType": "address",
              "name": "recipient",
              "type": "address"
            },
            {
              "internalType": "uint32",
              "name": "tokenIndex",
              "type": "uint32"
            },
            {
              "internalType": "uint256",
              "name": "amount",
              "type": "uint256"
            },
            {
              "internalType": "uint256",
              "name": "id",
              "type": "uint256"
            }
          ],
          "internalType": "struct WithdrawalLib.Withdrawal[]",
          "name": "withdrawals",
          "type": "tuple[]"
        },
        {
          "internalType": "uint256",
          "name": "_lastProcessedClaimableWithdrawalId",
          "type": "uint256"
        },
        {
          "internalType": "bytes32[]",
          "name": "withdrawalHashes",
          "type": "bytes32[]"
        }
      ],
      "name": "processWithdrawals",
      "outputs": [],
      "stateMutability": "nonpayable",
      "type": "function"
    },
    {
      "inputs": [],
      "name": "proxiableUUID",
      "outputs": [
        {
          "internalType": "bytes32",
          "name": "",
          "type": "bytes32"
        }
      ],
      "stateMutability": "view",
      "type": "function"
    },
    {
      "inputs": [
        {
          "internalType": "bytes32",
          "name": "role",
          "type": "bytes32"
        },
        {
          "internalType": "address",
          "name": "callerConfirmation",
          "type": "address"
        }
      ],
      "name": "renounceRole",
      "outputs": [],
      "stateMutability": "nonpayable",
      "type": "function"
    },
    {
      "inputs": [
        {
          "internalType": "bytes32",
          "name": "role",
          "type": "bytes32"
        },
        {
          "internalType": "address",
          "name": "account",
          "type": "address"
        }
      ],
      "name": "revokeRole",
      "outputs": [],
      "stateMutability": "nonpayable",
      "type": "function"
    },
    {
      "inputs": [
        {
          "internalType": "bytes4",
          "name": "interfaceId",
          "type": "bytes4"
        }
      ],
      "name": "supportsInterface",
      "outputs": [
        {
          "internalType": "bool",
          "name": "",
          "type": "bool"
        }
      ],
      "stateMutability": "view",
      "type": "function"
    },
    {
      "inputs": [
        {
          "internalType": "address",
          "name": "newImplementation",
          "type": "address"
        },
        {
          "internalType": "bytes",
          "name": "data",
          "type": "bytes"
        }
      ],
      "name": "upgradeToAndCall",
      "outputs": [],
      "stateMutability": "payable",
      "type": "function"
    }
  ],
  "bytecode": "0x60a06040523073ffffffffffffffffffffffffffffffffffffffff1660809073ffffffffffffffffffffffffffffffffffffffff1681525034801561004357600080fd5b5061005261005760201b60201c565b6101c1565b600061006761015b60201b60201c565b90508060000160089054906101000a900460ff16156100b2576040517ff92ee8a900000000000000000000000000000000000000000000000000000000815260040160405180910390fd5b67ffffffffffffffff80168160000160009054906101000a900467ffffffffffffffff1667ffffffffffffffff16146101585767ffffffffffffffff8160000160006101000a81548167ffffffffffffffff021916908367ffffffffffffffff1602179055507fc7f505b2f371ae2175ee4913f4499e1f2633a7b5936321eed1cdaeb6115181d267ffffffffffffffff60405161014f91906101a6565b60405180910390a15b50565b60007ff0c57e16840df040f15088dc2f81fe391c3923bec73e23a9662efc9c229c6a00905090565b600067ffffffffffffffff82169050919050565b6101a081610183565b82525050565b60006020820190506101bb6000830184610197565b92915050565b6080516156596101ea60003960008181612599015281816125ee01526127af01526156596000f3fe6080604052600436106101cd5760003560e01c8063729f67be116100f7578063b5df06b411610095578063dd9ea29911610064578063dd9ea2991461068f578063e579fa2b146106ba578063f23a6e61146106f7578063ffd5533214610734576101cd565b8063b5df06b4146105c3578063c13819b6146105ec578063cbd90cd014610629578063d547741f14610666576101cd565b8063986be0e2116100d1578063986be0e2146105075780639f401f5814610544578063a217fddf1461056d578063ad3cb1cc14610598576101cd565b8063729f67be14610478578063788c2ecf146104a157806391d14854146104ca576101cd565b80632f2ff15d1161016f57806352d1902d1161013e57806352d1902d146103dd5780635362485e1461040857806367517837146104245780636ef5475b1461044f576101cd565b80632f2ff15d1461033157806336568abe1461035a578063381175f6146103835780634f1ef286146103c1576101cd565b8063117cbe26116101ab578063117cbe2614610263578063219cd263146102a0578063248a9ca3146102cb57806326fc02dd14610308576101cd565b806301ffc9a7146101d2578063088f0bdd1461020f5780630c0b59b914610238575b600080fd5b3480156101de57600080fd5b506101f960048036038101906101f49190613e2b565b610750565b6040516102069190613e73565b60405180910390f35b34801561021b57600080fd5b5061023660048036038101906102319190613f7f565b6107ca565b005b34801561024457600080fd5b5061024d6109dd565b60405161025a919061403f565b60405180910390f35b34801561026f57600080fd5b5061028a60048036038101906102859190614120565b610a01565b6040516102979190613e73565b60405180910390f35b3480156102ac57600080fd5b506102b5610b5b565b6040516102c291906141aa565b60405180910390f35b3480156102d757600080fd5b506102f260048036038101906102ed91906141c5565b610b60565b6040516102ff919061403f565b60405180910390f35b34801561031457600080fd5b5061032f600480360381019061032a91906141f2565b610b8e565b005b34801561033d57600080fd5b5061035860048036038101906103539190614259565b610c7b565b005b34801561036657600080fd5b50610381600480360381019061037c9190614259565b610c9d565b005b34801561038f57600080fd5b506103aa60048036038101906103a591906142be565b610d18565b6040516103b8929190614311565b60405180910390f35b6103db60048036038101906103d6919061447b565b610f44565b005b3480156103e957600080fd5b506103f2610f63565b6040516103ff919061403f565b60405180910390f35b610422600480360381019061041d919061459a565b610f96565b005b34801561043057600080fd5b5061043961115a565b6040516104469190614618565b60405180910390f35b34801561045b57600080fd5b506104766004803603810190610471919061469c565b611173565b005b34801561048457600080fd5b5061049f600480360381019061049a91906146dc565b6113ba565b005b3480156104ad57600080fd5b506104c860048036038101906104c39190614729565b611500565b005b3480156104d657600080fd5b506104f160048036038101906104ec9190614259565b611598565b6040516104fe9190613e73565b60405180910390f35b34801561051357600080fd5b5061052e6004803603810190610529919061477c565b611611565b60405161053b919061403f565b60405180910390f35b34801561055057600080fd5b5061056b60048036038101906105669190614729565b611643565b005b34801561057957600080fd5b506105826116e3565b60405161058f919061403f565b60405180910390f35b3480156105a457600080fd5b506105ad6116ea565b6040516105ba9190614828565b60405180910390f35b3480156105cf57600080fd5b506105ea60048036038101906105e5919061490d565b611723565b005b3480156105f857600080fd5b50610613600480360381019061060e919061477c565b611c13565b6040516106209190614a25565b60405180910390f35b34801561063557600080fd5b50610650600480360381019061064b9190614a40565b611ccd565b60405161065d9190614b35565b60405180910390f35b34801561067257600080fd5b5061068d60048036038101906106889190614259565b611daa565b005b34801561069b57600080fd5b506106a4611dcc565b6040516106b19190614618565b60405180910390f35b3480156106c657600080fd5b506106e160048036038101906106dc91906141c5565b611de8565b6040516106ee9190614618565b60405180910390f35b34801561070357600080fd5b5061071e60048036038101906107199190614ba6565b611e00565b60405161072b9190614c4f565b60405180910390f35b61074e600480360381019061074991906141c5565b611e16565b005b60007f7965db0b000000000000000000000000000000000000000000000000000000007bffffffffffffffffffffffffffffffffffffffffffffffffffffffff1916827bffffffffffffffffffffffffffffffffffffffffffffffffffffffff191614806107c357506107c282611e73565b5b9050919050565b6000600660009054906101000a900473ffffffffffffffffffffffffffffffffffffffff1690506000600360009054906101000a900473ffffffffffffffffffffffffffffffffffffffff169050600073ffffffffffffffffffffffffffffffffffffffff168273ffffffffffffffffffffffffffffffffffffffff160361087e576040517ff8994bfa00000000000000000000000000000000000000000000000000000000815260040160405180910390fd5b8073ffffffffffffffffffffffffffffffffffffffff1661089d611edd565b73ffffffffffffffffffffffffffffffffffffffff16146108ea576040517fd8844f1500000000000000000000000000000000000000000000000000000000815260040160405180910390fd5b8073ffffffffffffffffffffffffffffffffffffffff16636e296e456040518163ffffffff1660e01b8152600401602060405180830381865afa158015610935573d6000803e3d6000fd5b505050506040513d601f19601f820116820180604052508101906109599190614c7f565b73ffffffffffffffffffffffffffffffffffffffff168273ffffffffffffffffffffffffffffffffffffffff16146109bd576040517f84c2102600000000000000000000000000000000000000000000000000000000815260040160405180910390fd5b6109c8888888611ee5565b6109d3858585612025565b5050505050505050565b7fe5002bd16ffc71462a6c1c19eaf55e254c97864c770378b6f68c1a085231514a81565b60008060096000018781548110610a1b57610a1a614cac565b5b9060005260206000209060020201604051806060016040529081600082015481526020016001820160009054906101000a900473ffffffffffffffffffffffffffffffffffffffff1673ffffffffffffffffffffffffffffffffffffffff1673ffffffffffffffffffffffffffffffffffffffff1681526020016001820160149054906101000a900460ff16151515158152505090506000610adc60405180606001604052808981526020018863ffffffff168152602001878152506121ab565b905080826000015114610af457600092505050610b52565b8373ffffffffffffffffffffffffffffffffffffffff16826020015173ffffffffffffffffffffffffffffffffffffffff1614610b3657600092505050610b52565b816040015115610b4b57600092505050610b52565b6001925050505b95945050505050565b600090565b600080610b6b6121eb565b905080600001600084815260200190815260200160002060010154915050919050565b60008103610bc8576040517f94fe88d900000000000000000000000000000000000000000000000000000000815260040160405180910390fd5b8373ffffffffffffffffffffffffffffffffffffffff1663f242432a610bec611edd565b308585604051806020016040528060008152506040518663ffffffff1660e01b8152600401610c1f959493929190614d3f565b600060405180830381600087803b158015610c3957600080fd5b505af1158015610c4d573d6000803e3d6000fd5b505050506000610c5f60038685612213565b9050610c74610c6c611edd565b85838561224e565b5050505050565b610c8482610b60565b610c8d81612380565b610c978383612394565b50505050565b610ca5611edd565b73ffffffffffffffffffffffffffffffffffffffff168173ffffffffffffffffffffffffffffffffffffffff1614610d09576040517f6697b23200000000000000000000000000000000000000000000000000000000815260040160405180910390fd5b610d138282612495565b505050565b60008060006003811115610d2f57610d2e614a6d565b5b856003811115610d4257610d41614a6d565b5b03610d54576001600091509150610f3c565b600073ffffffffffffffffffffffffffffffffffffffff168473ffffffffffffffffffffffffffffffffffffffff1603610dba576040517fdc2e5e8d00000000000000000000000000000000000000000000000000000000815260040160405180910390fd5b60016003811115610dce57610dcd614a6d565b5b856003811115610de157610de0614a6d565b5b03610e57576000600160008673ffffffffffffffffffffffffffffffffffffffff1673ffffffffffffffffffffffffffffffffffffffff16815260200190815260200160002060009054906101000a900463ffffffff16905060008163ffffffff1614610e55576001819250925050610f3c565b505b60026003811115610e6b57610e6a614a6d565b5b856003811115610e7e57610e7d614a6d565b5b1480610ead5750600380811115610e9857610e97614a6d565b5b856003811115610eab57610eaa614a6d565b5b145b15610f34576000600260008673ffffffffffffffffffffffffffffffffffffffff1673ffffffffffffffffffffffffffffffffffffffff168152602001908152602001600020600085815260200190815260200160002060009054906101000a900463ffffffff16905060008163ffffffff1614610f32576001819250925050610f3c565b505b600080915091505b935093915050565b610f4c612597565b610f558261267d565b610f5f828261268e565b5050565b6000610f6d6127ad565b7f360894a13ba1a3210667c828492db98dca3e2076cc3735a920a3ca505d382bbc60001b905090565b7fe5002bd16ffc71462a6c1c19eaf55e254c97864c770378b6f68c1a085231514a610fc081612380565b6000610fd8858560096128349092919063ffffffff16565b9050600063f03efa3760e01b8683604051602401610ff7929190614e48565b604051602081830303815290604052907bffffffffffffffffffffffffffffffffffffffffffffffffffffffff19166020820180517bffffffffffffffffffffffffffffffffffffffffffffffffffffffff83818316178352505050509050600360009054906101000a900473ffffffffffffffffffffffffffffffffffffffff1673ffffffffffffffffffffffffffffffffffffffff16635f7b157734600560009054906101000a900473ffffffffffffffffffffffffffffffffffffffff16600085896110c4611edd565b6040518763ffffffff1660e01b81526004016110e4959493929190614ebd565b6000604051808303818588803b1580156110fd57600080fd5b505af1158015611111573d6000803e3d6000fd5b5050505050857f2f41e147f23b2fb60bd8f0c0f016c37b7eeff712415ba8c2d60f846be3b098e686868460405161114a93929190614fc6565b60405180910390a2505050505050565b6000600160096001015461116e919061503a565b905090565b818160006009600001838154811061118e5761118d614cac565b5b9060005260206000209060020201604051806060016040529081600082015481526020016001820160009054906101000a900473ffffffffffffffffffffffffffffffffffffffff1673ffffffffffffffffffffffffffffffffffffffff1673ffffffffffffffffffffffffffffffffffffffff1681526020016001820160149054906101000a900460ff161515151581525050905061122c611edd565b73ffffffffffffffffffffffffffffffffffffffff16816020015173ffffffffffffffffffffffffffffffffffffffff1614611294576040517f8b2ea0f800000000000000000000000000000000000000000000000000000000815260040160405180910390fd5b600061129f836121ab565b9050808260000151146112ef578160000151816040517f7be225b60000000000000000000000000000000000000000000000000000000081526004016112e692919061506e565b60405180910390fd5b6112f761115a565b8411611339578160400151611338576040517f643710d400000000000000000000000000000000000000000000000000000000815260040160405180910390fd5b5b600061134f876009612bfd90919063ffffffff16565b905060006113608760200151611ccd565b90506113838160000151826020015184602001518a604001518560400151612d21565b877f0c1c0787650562778c282502dfd6dcea2fb79d23783920aa18aee36b4aa3dc4860405160405180910390a25050505050505050565b60005b828290508110156114fb5760008383838181106113dd576113dc614cac565b5b9050608002018036038101906113f3919061510f565b9050600061140082612f21565b9050600060076000838152602001908152602001600020540361145a57806040517f60737bc0000000000000000000000000000000000000000000000000000000008152600401611451919061403f565b60405180910390fd5b60006114698360200151611ccd565b905060076000838152602001908152602001600020600090556114a381600001518260200151856000015186604001518560400151612d21565b81836000015173ffffffffffffffffffffffffffffffffffffffff167f0575467d13f5ab9174f470cec96623374b05cf4b19a3c83a4bfca523e243ab0460405160405180910390a350505080806001019150506113bd565b505050565b6000810361153a576040517f94fe88d900000000000000000000000000000000000000000000000000000000815260040160405180910390fd5b61156e611545611edd565b30838673ffffffffffffffffffffffffffffffffffffffff16612f67909392919063ffffffff16565b600061157d6001856000612213565b905061159261158a611edd565b84838561224e565b50505050565b6000806115a36121eb565b905080600001600085815260200190815260200160002060000160008473ffffffffffffffffffffffffffffffffffffffff1673ffffffffffffffffffffffffffffffffffffffff16815260200190815260200160002060009054906101000a900460ff1691505092915050565b60006009600001828154811061162a57611629614cac565b5b9060005260206000209060020201600001549050919050565b8273ffffffffffffffffffffffffffffffffffffffff166323b872dd611667611edd565b30846040518463ffffffff1660e01b81526004016116879392919061513c565b600060405180830381600087803b1580156116a157600080fd5b505af11580156116b5573d6000803e3d6000fd5b5050505060006116c760028584612213565b90506116dd6116d4611edd565b8483600161224e565b50505050565b6000801b81565b6040518060400160405280600581526020017f352e302e3000000000000000000000000000000000000000000000000000000081525081565b600061172d612fe9565b905060008160000160089054906101000a900460ff1615905060008260000160009054906101000a900467ffffffffffffffff1690506000808267ffffffffffffffff1614801561177b5750825b9050600060018367ffffffffffffffff161480156117b0575060003073ffffffffffffffffffffffffffffffffffffffff163b145b9050811580156117be575080155b156117f5576040517ff92ee8a900000000000000000000000000000000000000000000000000000000815260040160405180910390fd5b60018560000160006101000a81548167ffffffffffffffff021916908367ffffffffffffffff16021790555083156118455760018560000160086101000a81548160ff0219169083151502179055505b600073ffffffffffffffffffffffffffffffffffffffff168b73ffffffffffffffffffffffffffffffffffffffff16036118ab576040517f9fabe1c100000000000000000000000000000000000000000000000000000000815260040160405180910390fd5b600073ffffffffffffffffffffffffffffffffffffffff168a73ffffffffffffffffffffffffffffffffffffffff1603611911576040517f9fabe1c100000000000000000000000000000000000000000000000000000000815260040160405180910390fd5b600073ffffffffffffffffffffffffffffffffffffffff168973ffffffffffffffffffffffffffffffffffffffff1603611977576040517f9fabe1c100000000000000000000000000000000000000000000000000000000815260040160405180910390fd5b600073ffffffffffffffffffffffffffffffffffffffff168873ffffffffffffffffffffffffffffffffffffffff16036119dd576040517f9fabe1c100000000000000000000000000000000000000000000000000000000815260040160405180910390fd5b600073ffffffffffffffffffffffffffffffffffffffff168773ffffffffffffffffffffffffffffffffffffffff1603611a43576040517f9fabe1c100000000000000000000000000000000000000000000000000000000815260040160405180910390fd5b611a576000801b611a52611edd565b612394565b50611a827fe5002bd16ffc71462a6c1c19eaf55e254c97864c770378b6f68c1a085231514a89612394565b50611a8b613011565b611a9361301b565b611a9c86613025565b611aa66009613080565b8a600360006101000a81548173ffffffffffffffffffffffffffffffffffffffff021916908373ffffffffffffffffffffffffffffffffffffffff16021790555086600460006101000a81548173ffffffffffffffffffffffffffffffffffffffff021916908373ffffffffffffffffffffffffffffffffffffffff16021790555089600560006101000a81548173ffffffffffffffffffffffffffffffffffffffff021916908373ffffffffffffffffffffffffffffffffffffffff16021790555088600660006101000a81548173ffffffffffffffffffffffffffffffffffffffff021916908373ffffffffffffffffffffffffffffffffffffffff1602179055508315611c065760008560000160086101000a81548160ff0219169083151502179055507fc7f505b2f371ae2175ee4913f4499e1f2633a7b5936321eed1cdaeb6115181d26001604051611bfd91906151c2565b60405180910390a15b5050505050505050505050565b611c1b613d3a565b60096000018281548110611c3257611c31614cac565b5b9060005260206000209060020201604051806060016040529081600082015481526020016001820160009054906101000a900473ffffffffffffffffffffffffffffffffffffffff1673ffffffffffffffffffffffffffffffffffffffff1673ffffffffffffffffffffffffffffffffffffffff1681526020016001820160149054906101000a900460ff1615151515815250509050919050565b611cd5613d76565b60008263ffffffff1681548110611cef57611cee614cac565b5b90600052602060002090600202016040518060600160405290816000820160009054906101000a900460ff166003811115611d2d57611d2c614a6d565b5b6003811115611d3f57611d3e614a6d565b5b81526020016000820160019054906101000a900473ffffffffffffffffffffffffffffffffffffffff1673ffffffffffffffffffffffffffffffffffffffff1673ffffffffffffffffffffffffffffffffffffffff1681526020016001820154815250509050919050565b611db382610b60565b611dbc81612380565b611dc68383612495565b50505050565b60006001600960000180549050611de3919061503a565b905090565b60076020528060005260406000206000915090505481565b600063f23a6e6160e01b90509695505050505050565b60003403611e50576040517f94fe88d900000000000000000000000000000000000000000000000000000000815260040160405180910390fd5b6000611e5a610b5b565b9050611e6f611e67611edd565b83833461224e565b5050565b60007f01ffc9a7000000000000000000000000000000000000000000000000000000007bffffffffffffffffffffffffffffffffffffffffffffffffffffffff1916827bffffffffffffffffffffffffffffffffffffffffffffffffffffffff1916149050919050565b600033905090565b60005b82829050811015611f3157611f24838383818110611f0957611f08614cac565b5b905060800201803603810190611f1f919061510f565b613165565b8080600101915050611ee8565b50600082829050111561202057827f6d89692e6d34d23438c6aee95e29bb1a47404cb2868acb8a3041d16dceadff1860405160405180910390a2600460009054906101000a900473ffffffffffffffffffffffffffffffffffffffff1673ffffffffffffffffffffffffffffffffffffffff1663f099f9f57ff00e60aabbc167f41684e8d81677229edbc0f1876ae2c1ded0a60367465292ab32858590506040518463ffffffff1660e01b8152600401611fed939291906151dd565b600060405180830381600087803b15801561200757600080fd5b505af115801561201b573d6000803e3d6000fd5b505050505b505050565b60005b828290508110156120b757426007600085858581811061204b5761204a614cac565b5b9050602002013581526020019081526020016000208190555082828281811061207757612076614cac565b5b905060200201357fd63a18c6858559d79659151118b33c6ad7cf4f7735b64fe9dbd85c509e11a11760405160405180910390a28080600101915050612028565b5060008282905011156121a657827fc822ed466f0466d78c7d829b38f3d4f38f64b1f07363274ac66dde2ed8d833e760405160405180910390a2600460009054906101000a900473ffffffffffffffffffffffffffffffffffffffff1673ffffffffffffffffffffffffffffffffffffffff1663f099f9f57f25146e2fbfab3f988e64e94788d256b87c4fa8691f43ec409c49b57436cb7ee632858590506040518463ffffffff1660e01b8152600401612173939291906151dd565b600060405180830381600087803b15801561218d57600080fd5b505af11580156121a1573d6000803e3d6000fd5b505050505b505050565b60008160000151826020015183604001516040516020016121ce9392919061528c565b604051602081830303815290604052805190602001209050919050565b60007f02dd7bc7dec4dceedda775e58dd541e08a116c6c53815c0bd028192f7b626800905090565b6000806000612223868686610d18565b915091508115612237578092505050612247565b612242868686613381565b925050505b9392505050565b600061227960405180606001604052808681526020018563ffffffff168152602001848152506121ab565b90506008600082815260200190815260200160002060009054906101000a900460ff16156122de57806040517fbff0e9e70000000000000000000000000000000000000000000000000000000081526004016122d5919061403f565b60405180910390fd5b60016008600083815260200190815260200160002060006101000a81548160ff0219169083151502179055506000612322828760096136849092919063ffffffff16565b9050848673ffffffffffffffffffffffffffffffffffffffff16827f1e88950eef3c1bd8dd83d765aec1f21f34ca153104f0acd7a6218bf8f48e8410878742604051612370939291906152c9565b60405180910390a4505050505050565b6123918161238c611edd565b61376b565b50565b60008061239f6121eb565b90506123ab8484611598565b61248957600181600001600086815260200190815260200160002060000160008573ffffffffffffffffffffffffffffffffffffffff1673ffffffffffffffffffffffffffffffffffffffff16815260200190815260200160002060006101000a81548160ff021916908315150217905550612425611edd565b73ffffffffffffffffffffffffffffffffffffffff168373ffffffffffffffffffffffffffffffffffffffff16857f2f8788117e7eff1d82e926ec794901d17c78024a50270940304540a733656f0d60405160405180910390a4600191505061248f565b60009150505b92915050565b6000806124a06121eb565b90506124ac8484611598565b1561258b57600081600001600086815260200190815260200160002060000160008573ffffffffffffffffffffffffffffffffffffffff1673ffffffffffffffffffffffffffffffffffffffff16815260200190815260200160002060006101000a81548160ff021916908315150217905550612527611edd565b73ffffffffffffffffffffffffffffffffffffffff168373ffffffffffffffffffffffffffffffffffffffff16857ff6391f5c32d9c69d2a47ea670b442974b53935d1edc7fd64eb21e047a839171b60405160405180910390a46001915050612591565b60009150505b92915050565b7f000000000000000000000000000000000000000000000000000000000000000073ffffffffffffffffffffffffffffffffffffffff163073ffffffffffffffffffffffffffffffffffffffff16148061264457507f000000000000000000000000000000000000000000000000000000000000000073ffffffffffffffffffffffffffffffffffffffff1661262b6137bc565b73ffffffffffffffffffffffffffffffffffffffff1614155b1561267b576040517fe07c8dba00000000000000000000000000000000000000000000000000000000815260040160405180910390fd5b565b6000801b61268a81612380565b5050565b8173ffffffffffffffffffffffffffffffffffffffff166352d1902d6040518163ffffffff1660e01b8152600401602060405180830381865afa9250505080156126f657506040513d601f19601f820116820180604052508101906126f39190615315565b60015b61273757816040517f4c9c8ce300000000000000000000000000000000000000000000000000000000815260040161272e9190615342565b60405180910390fd5b7f360894a13ba1a3210667c828492db98dca3e2076cc3735a920a3ca505d382bbc60001b811461279e57806040517faa1d49a4000000000000000000000000000000000000000000000000000000008152600401612795919061403f565b60405180910390fd5b6127a88383613813565b505050565b7f000000000000000000000000000000000000000000000000000000000000000073ffffffffffffffffffffffffffffffffffffffff163073ffffffffffffffffffffffffffffffffffffffff1614612832576040517fe07c8dba00000000000000000000000000000000000000000000000000000000815260040160405180910390fd5b565b606060008460010154905084600001805490508410158061285457508084105b156128ad5783816001876000018054905061286f919061503a565b6040517f3b4055360000000000000000000000000000000000000000000000000000000081526004016128a49392919061535d565b60405180910390fd5b60005b83518110156129795760008482815181106128ce576128cd614cac565b5b60200260200101519050858111806128e557508281105b1561292b578083876040517f9e16c3b90000000000000000000000000000000000000000000000000000000081526004016129229392919061535d565b60405180910390fd5b600187600001828154811061294357612942614cac565b5b906000526020600020906002020160010160146101000a81548160ff0219169083151502179055505080806001019150506128b0565b506000808290505b858111612a5f57600073ffffffffffffffffffffffffffffffffffffffff168760000182815481106129b6576129b5614cac565b5b906000526020600020906002020160010160009054906101000a900473ffffffffffffffffffffffffffffffffffffffff1673ffffffffffffffffffffffffffffffffffffffff160315612a4c57866000018181548110612a1a57612a19614cac565b5b906000526020600020906002020160010160149054906101000a900460ff16612a4c578180612a4890615394565b9250505b8080612a5790615394565b915050612981565b5060008167ffffffffffffffff811115612a7c57612a7b614350565b5b604051908082528060200260200182016040528015612aaa5781602001602082028036833780820191505090505b5090506000808490505b878111612bd957600073ffffffffffffffffffffffffffffffffffffffff16896000018281548110612ae957612ae8614cac565b5b906000526020600020906002020160010160009054906101000a900473ffffffffffffffffffffffffffffffffffffffff1673ffffffffffffffffffffffffffffffffffffffff160315612bc657886000018181548110612b4d57612b4c614cac565b5b906000526020600020906002020160010160149054906101000a900460ff16612bc657886000018181548110612b8657612b85614cac565b5b906000526020600020906002020160000154838381518110612bab57612baa614cac565b5b6020026020010181815250508180612bc290615394565b9250505b8080612bd190615394565b915050612ab4565b50600187612be791906153dc565b8860010181905550819450505050509392505050565b612c05613d3a565b826000018281548110612c1b57612c1a614cac565b5b9060005260206000209060020201604051806060016040529081600082015481526020016001820160009054906101000a900473ffffffffffffffffffffffffffffffffffffffff1673ffffffffffffffffffffffffffffffffffffffff1673ffffffffffffffffffffffffffffffffffffffff1681526020016001820160149054906101000a900460ff1615151515815250509050826000018281548110612cc757612cc6614cac565b5b90600052602060002090600202016000808201600090556001820160006101000a81549073ffffffffffffffffffffffffffffffffffffffff02191690556001820160146101000a81549060ff0219169055505092915050565b60006003811115612d3557612d34614a6d565b5b856003811115612d4857612d47614a6d565b5b03612d99578273ffffffffffffffffffffffffffffffffffffffff166108fc839081150290604051600060405180830381858888f19350505050158015612d93573d6000803e3d6000fd5b50612f1a565b60016003811115612dad57612dac614a6d565b5b856003811115612dc057612dbf614a6d565b5b03612df557612df083838673ffffffffffffffffffffffffffffffffffffffff166138869092919063ffffffff16565b612f19565b60026003811115612e0957612e08614a6d565b5b856003811115612e1c57612e1b614a6d565b5b03612e95578373ffffffffffffffffffffffffffffffffffffffff166323b872dd3085846040518463ffffffff1660e01b8152600401612e5e9392919061513c565b600060405180830381600087803b158015612e7857600080fd5b505af1158015612e8c573d6000803e3d6000fd5b50505050612f18565b8373ffffffffffffffffffffffffffffffffffffffff1663f242432a30858486604051806020016040528060008152506040518663ffffffff1660e01b8152600401612ee5959493929190614d3f565b600060405180830381600087803b158015612eff57600080fd5b505af1158015612f13573d6000803e3d6000fd5b505050505b5b5b5050505050565b60008160000151826020015183604001518460600151604051602001612f4a9493929190615458565b604051602081830303815290604052805190602001209050919050565b612fe3848573ffffffffffffffffffffffffffffffffffffffff166323b872dd868686604051602401612f9c9392919061513c565b604051602081830303815290604052915060e01b6020820180517bffffffffffffffffffffffffffffffffffffffffffffffffffffffff8381831617835250505050613905565b50505050565b60007ff0c57e16840df040f15088dc2f81fe391c3923bec73e23a9662efc9c229c6a00905090565b6130196139a7565b565b6130236139a7565b565b61302d6139a7565b61303a6000806000613381565b5060005b815181101561307c5761306e600183838151811061305f5761305e614cac565b5b60200260200101516000613381565b50808060010191505061303e565b5050565b8060000160405180606001604052806000801b8152602001600073ffffffffffffffffffffffffffffffffffffffff1681526020016000151581525090806001815401808255809150506001900390600052602060002090600202016000909190919091506000820151816000015560208201518160010160006101000a81548173ffffffffffffffffffffffffffffffffffffffff021916908373ffffffffffffffffffffffffffffffffffffffff16021790555060408201518160010160146101000a81548160ff02191690831515021790555050506001816001018190555050565b60006131748260200151611ccd565b9050600060019050600060038111156131905761318f614a6d565b5b826000015160038111156131a7576131a6614a6d565b5b036131f6576000836000015173ffffffffffffffffffffffffffffffffffffffff166108fc85604001519081150290604051600060405180830381858888f193505050509050809150506132eb565b6001600381111561320a57613209614a6d565b5b8260000151600381111561322157613220614a6d565b5b036132e557600082602001515063a9059cbb60e01b846000015185604001516040516024016132519291906154a6565b604051602081830303815290604052907bffffffffffffffffffffffffffffffffffffffffffffffffffffffff19166020820180517bffffffffffffffffffffffffffffffffffffffffffffffffffffffff838183161783525050505090506132dd81846020015173ffffffffffffffffffffffffffffffffffffffff166139e790919063ffffffff16565b9150506132ea565b600090505b5b8061337c5760006132fb84612f21565b9050426007600083815260200190815260200160002081905550807f8ce8bbdabe2ee16dd931b3f10c29bf34ea5c7130f483ff81aa5fdcfa8a10135c856040516133459190615533565b60405180910390a2807fd63a18c6858559d79659151118b33c6ad7cf4f7735b64fe9dbd85c509e11a11760405160405180910390a2505b505050565b6000806000805490509050600060405180606001604052808760038111156133ac576133ab614a6d565b5b81526020018673ffffffffffffffffffffffffffffffffffffffff16815260200185815250908060018154018082558091505060019003906000526020600020906002020160009091909190915060008201518160000160006101000a81548160ff0219169083600381111561342557613424614a6d565b5b021790555060208201518160000160016101000a81548173ffffffffffffffffffffffffffffffffffffffff021916908373ffffffffffffffffffffffffffffffffffffffff1602179055506040820151816001015550506000600381111561349157613490614a6d565b5b8560038111156134a4576134a3614a6d565b5b036135105780600160008073ffffffffffffffffffffffffffffffffffffffff1673ffffffffffffffffffffffffffffffffffffffff16815260200190815260200160002060006101000a81548163ffffffff021916908363ffffffff1602179055508091505061367d565b600073ffffffffffffffffffffffffffffffffffffffff168473ffffffffffffffffffffffffffffffffffffffff1603613576576040517fdc2e5e8d00000000000000000000000000000000000000000000000000000000815260040160405180910390fd5b6001600381111561358a57613589614a6d565b5b85600381111561359d5761359c614a6d565b5b036136095780600160008673ffffffffffffffffffffffffffffffffffffffff1673ffffffffffffffffffffffffffffffffffffffff16815260200190815260200160002060006101000a81548163ffffffff021916908363ffffffff1602179055508091505061367d565b80600260008673ffffffffffffffffffffffffffffffffffffffff1673ffffffffffffffffffffffffffffffffffffffff168152602001908152602001600020600085815260200190815260200160002060006101000a81548163ffffffff021916908363ffffffff160217905550809150505b9392505050565b6000836000018054905090508360000160405180606001604052808581526020018473ffffffffffffffffffffffffffffffffffffffff1681526020016000151581525090806001815401808255809150506001900390600052602060002090600202016000909190919091506000820151816000015560208201518160010160006101000a81548173ffffffffffffffffffffffffffffffffffffffff021916908373ffffffffffffffffffffffffffffffffffffffff16021790555060408201518160010160146101000a81548160ff02191690831515021790555050509392505050565b6137758282611598565b6137b85780826040517fe2517d3f0000000000000000000000000000000000000000000000000000000081526004016137af92919061554e565b60405180910390fd5b5050565b60006137ea7f360894a13ba1a3210667c828492db98dca3e2076cc3735a920a3ca505d382bbc60001b613aae565b60000160009054906101000a900473ffffffffffffffffffffffffffffffffffffffff16905090565b61381c82613ab8565b8173ffffffffffffffffffffffffffffffffffffffff167fbc7cd75a20ee27fd9adebab32041f755214dbc6bffa90cc0225b39da2e5c2d3b60405160405180910390a2600081511115613879576138738282613b85565b50613882565b613881613c09565b5b5050565b613900838473ffffffffffffffffffffffffffffffffffffffff1663a9059cbb85856040516024016138b99291906154a6565b604051602081830303815290604052915060e01b6020820180517bffffffffffffffffffffffffffffffffffffffffffffffffffffffff8381831617835250505050613905565b505050565b600080602060008451602086016000885af180613928576040513d6000823e3d81fd5b3d92506000519150506000821461394357600181141561395f565b60008473ffffffffffffffffffffffffffffffffffffffff163b145b156139a157836040517f5274afe70000000000000000000000000000000000000000000000000000000081526004016139989190615342565b60405180910390fd5b50505050565b6139af613c46565b6139e5576040517fd7e6bcf800000000000000000000000000000000000000000000000000000000815260040160405180910390fd5b565b60008060008473ffffffffffffffffffffffffffffffffffffffff1684604051613a1191906155b3565b6000604051808303816000865af19150503d8060008114613a4e576040519150601f19603f3d011682016040523d82523d6000602084013e613a53565b606091505b5091509150818015613a815750600081511480613a80575080806020019051810190613a7f91906155f6565b5b5b8015613aa4575060008573ffffffffffffffffffffffffffffffffffffffff163b115b9250505092915050565b6000819050919050565b60008173ffffffffffffffffffffffffffffffffffffffff163b03613b1457806040517f4c9c8ce3000000000000000000000000000000000000000000000000000000008152600401613b0b9190615342565b60405180910390fd5b80613b417f360894a13ba1a3210667c828492db98dca3e2076cc3735a920a3ca505d382bbc60001b613aae565b60000160006101000a81548173ffffffffffffffffffffffffffffffffffffffff021916908373ffffffffffffffffffffffffffffffffffffffff16021790555050565b60606000808473ffffffffffffffffffffffffffffffffffffffff1684604051613baf91906155b3565b600060405180830381855af49150503d8060008114613bea576040519150601f19603f3d011682016040523d82523d6000602084013e613bef565b606091505b5091509150613bff858383613c66565b9250505092915050565b6000341115613c44576040517fb398979f00000000000000000000000000000000000000000000000000000000815260040160405180910390fd5b565b6000613c50612fe9565b60000160089054906101000a900460ff16905090565b606082613c7b57613c7682613cf5565b613ced565b60008251148015613ca3575060008473ffffffffffffffffffffffffffffffffffffffff163b145b15613ce557836040517f9996b315000000000000000000000000000000000000000000000000000000008152600401613cdc9190615342565b60405180910390fd5b819050613cee565b5b9392505050565b600081511115613d085780518082602001fd5b6040517fd6bda27500000000000000000000000000000000000000000000000000000000815260040160405180910390fd5b604051806060016040528060008019168152602001600073ffffffffffffffffffffffffffffffffffffffff1681526020016000151581525090565b604051806060016040528060006003811115613d9557613d94614a6d565b5b8152602001600073ffffffffffffffffffffffffffffffffffffffff168152602001600081525090565b6000604051905090565b600080fd5b600080fd5b60007fffffffff0000000000000000000000000000000000000000000000000000000082169050919050565b613e0881613dd3565b8114613e1357600080fd5b50565b600081359050613e2581613dff565b92915050565b600060208284031215613e4157613e40613dc9565b5b6000613e4f84828501613e16565b91505092915050565b60008115159050919050565b613e6d81613e58565b82525050565b6000602082019050613e886000830184613e64565b92915050565b6000819050919050565b613ea181613e8e565b8114613eac57600080fd5b50565b600081359050613ebe81613e98565b92915050565b600080fd5b600080fd5b600080fd5b60008083601f840112613ee957613ee8613ec4565b5b8235905067ffffffffffffffff811115613f0657613f05613ec9565b5b602083019150836080820283011115613f2257613f21613ece565b5b9250929050565b60008083601f840112613f3f57613f3e613ec4565b5b8235905067ffffffffffffffff811115613f5c57613f5b613ec9565b5b602083019150836020820283011115613f7857613f77613ece565b5b9250929050565b60008060008060008060808789031215613f9c57613f9b613dc9565b5b6000613faa89828a01613eaf565b965050602087013567ffffffffffffffff811115613fcb57613fca613dce565b5b613fd789828a01613ed3565b95509550506040613fea89828a01613eaf565b935050606087013567ffffffffffffffff81111561400b5761400a613dce565b5b61401789828a01613f29565b92509250509295509295509295565b6000819050919050565b61403981614026565b82525050565b60006020820190506140546000830184614030565b92915050565b61406381614026565b811461406e57600080fd5b50565b6000813590506140808161405a565b92915050565b600063ffffffff82169050919050565b61409f81614086565b81146140aa57600080fd5b50565b6000813590506140bc81614096565b92915050565b600073ffffffffffffffffffffffffffffffffffffffff82169050919050565b60006140ed826140c2565b9050919050565b6140fd816140e2565b811461410857600080fd5b50565b60008135905061411a816140f4565b92915050565b600080600080600060a0868803121561413c5761413b613dc9565b5b600061414a88828901613eaf565b955050602061415b88828901614071565b945050604061416c888289016140ad565b935050606061417d88828901613eaf565b925050608061418e8882890161410b565b9150509295509295909350565b6141a481614086565b82525050565b60006020820190506141bf600083018461419b565b92915050565b6000602082840312156141db576141da613dc9565b5b60006141e984828501614071565b91505092915050565b6000806000806080858703121561420c5761420b613dc9565b5b600061421a8782880161410b565b945050602061422b87828801614071565b935050604061423c87828801613eaf565b925050606061424d87828801613eaf565b91505092959194509250565b600080604083850312156142705761426f613dc9565b5b600061427e85828601614071565b925050602061428f8582860161410b565b9150509250929050565b600481106142a657600080fd5b50565b6000813590506142b881614299565b92915050565b6000806000606084860312156142d7576142d6613dc9565b5b60006142e5868287016142a9565b93505060206142f68682870161410b565b925050604061430786828701613eaf565b9150509250925092565b60006040820190506143266000830185613e64565b614333602083018461419b565b9392505050565b600080fd5b6000601f19601f8301169050919050565b7f4e487b7100000000000000000000000000000000000000000000000000000000600052604160045260246000fd5b6143888261433f565b810181811067ffffffffffffffff821117156143a7576143a6614350565b5b80604052505050565b60006143ba613dbf565b90506143c6828261437f565b919050565b600067ffffffffffffffff8211156143e6576143e5614350565b5b6143ef8261433f565b9050602081019050919050565b82818337600083830152505050565b600061441e614419846143cb565b6143b0565b90508281526020810184848401111561443a5761443961433a565b5b6144458482856143fc565b509392505050565b600082601f83011261446257614461613ec4565b5b813561447284826020860161440b565b91505092915050565b6000806040838503121561449257614491613dc9565b5b60006144a08582860161410b565b925050602083013567ffffffffffffffff8111156144c1576144c0613dce565b5b6144cd8582860161444d565b9150509250929050565b600067ffffffffffffffff8211156144f2576144f1614350565b5b602082029050602081019050919050565b6000614516614511846144d7565b6143b0565b9050808382526020820190506020840283018581111561453957614538613ece565b5b835b81811015614562578061454e8882613eaf565b84526020840193505060208101905061453b565b5050509392505050565b600082601f83011261458157614580613ec4565b5b8135614591848260208601614503565b91505092915050565b6000806000606084860312156145b3576145b2613dc9565b5b60006145c186828701613eaf565b935050602084013567ffffffffffffffff8111156145e2576145e1613dce565b5b6145ee8682870161456c565b92505060406145ff86828701613eaf565b9150509250925092565b61461281613e8e565b82525050565b600060208201905061462d6000830184614609565b92915050565b600080fd5b60006060828403121561464e5761464d614633565b5b61465860606143b0565b9050600061466884828501614071565b600083015250602061467c848285016140ad565b602083015250604061469084828501613eaf565b60408301525092915050565b600080608083850312156146b3576146b2613dc9565b5b60006146c185828601613eaf565b92505060206146d285828601614638565b9150509250929050565b600080602083850312156146f3576146f2613dc9565b5b600083013567ffffffffffffffff81111561471157614710613dce565b5b61471d85828601613ed3565b92509250509250929050565b60008060006060848603121561474257614741613dc9565b5b60006147508682870161410b565b935050602061476186828701614071565b925050604061477286828701613eaf565b9150509250925092565b60006020828403121561479257614791613dc9565b5b60006147a084828501613eaf565b91505092915050565b600081519050919050565b600082825260208201905092915050565b60005b838110156147e35780820151818401526020810190506147c8565b60008484015250505050565b60006147fa826147a9565b61480481856147b4565b93506148148185602086016147c5565b61481d8161433f565b840191505092915050565b6000602082019050818103600083015261484281846147ef565b905092915050565b600067ffffffffffffffff82111561486557614864614350565b5b602082029050602081019050919050565b60006148896148848461484a565b6143b0565b905080838252602082019050602084028301858111156148ac576148ab613ece565b5b835b818110156148d557806148c1888261410b565b8452602084019350506020810190506148ae565b5050509392505050565b600082601f8301126148f4576148f3613ec4565b5b8135614904848260208601614876565b91505092915050565b60008060008060008060c0878903121561492a57614929613dc9565b5b600061493889828a0161410b565b965050602061494989828a0161410b565b955050604061495a89828a0161410b565b945050606061496b89828a0161410b565b935050608061497c89828a0161410b565b92505060a087013567ffffffffffffffff81111561499d5761499c613dce565b5b6149a989828a016148df565b9150509295509295509295565b6149bf81614026565b82525050565b6149ce816140e2565b82525050565b6149dd81613e58565b82525050565b6060820160008201516149f960008501826149b6565b506020820151614a0c60208501826149c5565b506040820151614a1f60408501826149d4565b50505050565b6000606082019050614a3a60008301846149e3565b92915050565b600060208284031215614a5657614a55613dc9565b5b6000614a64848285016140ad565b91505092915050565b7f4e487b7100000000000000000000000000000000000000000000000000000000600052602160045260246000fd5b60048110614aad57614aac614a6d565b5b50565b6000819050614abe82614a9c565b919050565b6000614ace82614ab0565b9050919050565b614ade81614ac3565b82525050565b614aed81613e8e565b82525050565b606082016000820151614b096000850182614ad5565b506020820151614b1c60208501826149c5565b506040820151614b2f6040850182614ae4565b50505050565b6000606082019050614b4a6000830184614af3565b92915050565b60008083601f840112614b6657614b65613ec4565b5b8235905067ffffffffffffffff811115614b8357614b82613ec9565b5b602083019150836001820283011115614b9f57614b9e613ece565b5b9250929050565b60008060008060008060a08789031215614bc357614bc2613dc9565b5b6000614bd189828a0161410b565b9650506020614be289828a0161410b565b9550506040614bf389828a01613eaf565b9450506060614c0489828a01613eaf565b935050608087013567ffffffffffffffff811115614c2557614c24613dce565b5b614c3189828a01614b50565b92509250509295509295509295565b614c4981613dd3565b82525050565b6000602082019050614c646000830184614c40565b92915050565b600081519050614c79816140f4565b92915050565b600060208284031215614c9557614c94613dc9565b5b6000614ca384828501614c6a565b91505092915050565b7f4e487b7100000000000000000000000000000000000000000000000000000000600052603260045260246000fd5b614ce4816140e2565b82525050565b600081519050919050565b600082825260208201905092915050565b6000614d1182614cea565b614d1b8185614cf5565b9350614d2b8185602086016147c5565b614d348161433f565b840191505092915050565b600060a082019050614d546000830188614cdb565b614d616020830187614cdb565b614d6e6040830186614609565b614d7b6060830185614609565b8181036080830152614d8d8184614d06565b90509695505050505050565b600081519050919050565b600082825260208201905092915050565b6000819050602082019050919050565b6000614dd183836149b6565b60208301905092915050565b6000602082019050919050565b6000614df582614d99565b614dff8185614da4565b9350614e0a83614db5565b8060005b83811015614e3b578151614e228882614dc5565b9750614e2d83614ddd565b925050600181019050614e0e565b5085935050505092915050565b6000604082019050614e5d6000830185614609565b8181036020830152614e6f8184614dea565b90509392505050565b6000819050919050565b6000819050919050565b6000614ea7614ea2614e9d84614e78565b614e82565b613e8e565b9050919050565b614eb781614e8c565b82525050565b600060a082019050614ed26000830188614cdb565b614edf6020830187614eae565b8181036040830152614ef18186614d06565b9050614f006060830185614609565b614f0d6080830184614cdb565b9695505050505050565b600081519050919050565b600082825260208201905092915050565b6000819050602082019050919050565b6000614f4f8383614ae4565b60208301905092915050565b6000602082019050919050565b6000614f7382614f17565b614f7d8185614f22565b9350614f8883614f33565b8060005b83811015614fb9578151614fa08882614f43565b9750614fab83614f5b565b925050600181019050614f8c565b5085935050505092915050565b60006060820190508181036000830152614fe08186614f68565b9050614fef6020830185614609565b81810360408301526150018184614d06565b9050949350505050565b7f4e487b7100000000000000000000000000000000000000000000000000000000600052601160045260246000fd5b600061504582613e8e565b915061505083613e8e565b92508282039050818111156150685761506761500b565b5b92915050565b60006040820190506150836000830185614030565b6150906020830184614030565b9392505050565b6000608082840312156150ad576150ac614633565b5b6150b760806143b0565b905060006150c78482850161410b565b60008301525060206150db848285016140ad565b60208301525060406150ef84828501613eaf565b604083015250606061510384828501613eaf565b60608301525092915050565b60006080828403121561512557615124613dc9565b5b600061513384828501615097565b91505092915050565b60006060820190506151516000830186614cdb565b61515e6020830185614cdb565b61516b6040830184614609565b949350505050565b6000819050919050565b600067ffffffffffffffff82169050919050565b60006151ac6151a76151a284615173565b614e82565b61517d565b9050919050565b6151bc81615191565b82525050565b60006020820190506151d760008301846151b3565b92915050565b60006060820190506151f26000830186614030565b6151ff6020830185614cdb565b61520c6040830184614609565b949350505050565b6000819050919050565b61522f61522a82614026565b615214565b82525050565b60008160e01b9050919050565b600061524d82615235565b9050919050565b61526561526082614086565b615242565b82525050565b6000819050919050565b61528661528182613e8e565b61526b565b82525050565b6000615298828661521e565b6020820191506152a88285615254565b6004820191506152b88284615275565b602082019150819050949350505050565b60006060820190506152de600083018661419b565b6152eb6020830185614609565b6152f86040830184614609565b949350505050565b60008151905061530f8161405a565b92915050565b60006020828403121561532b5761532a613dc9565b5b600061533984828501615300565b91505092915050565b60006020820190506153576000830184614cdb565b92915050565b60006060820190506153726000830186614609565b61537f6020830185614609565b61538c6040830184614609565b949350505050565b600061539f82613e8e565b91507fffffffffffffffffffffffffffffffffffffffffffffffffffffffffffffffff82036153d1576153d061500b565b5b600182019050919050565b60006153e782613e8e565b91506153f283613e8e565b925082820190508082111561540a5761540961500b565b5b92915050565b60008160601b9050919050565b600061542882615410565b9050919050565b600061543a8261541d565b9050919050565b61545261544d826140e2565b61542f565b82525050565b60006154648287615441565b6014820191506154748286615254565b6004820191506154848285615275565b6020820191506154948284615275565b60208201915081905095945050505050565b60006040820190506154bb6000830185614cdb565b6154c86020830184614609565b9392505050565b6154d881614086565b82525050565b6080820160008201516154f460008501826149c5565b50602082015161550760208501826154cf565b50604082015161551a6040850182614ae4565b50606082015161552d6060850182614ae4565b50505050565b600060808201905061554860008301846154de565b92915050565b60006040820190506155636000830185614cdb565b6155706020830184614030565b9392505050565b600081905092915050565b600061558d82614cea565b6155978185615577565b93506155a78185602086016147c5565b80840191505092915050565b60006155bf8284615582565b915081905092915050565b6155d381613e58565b81146155de57600080fd5b50565b6000815190506155f0816155ca565b92915050565b60006020828403121561560c5761560b613dc9565b5b600061561a848285016155e1565b9150509291505056fea2646970667358221220d1d9d51085dafb7d481f2e7377939a7c465c0f195ceb3e95381418497d0f822d64736f6c634300081b0033",
  "linkReferences": {},
  "deployedLinkReferences": {}
}