{
  "_format": "hh-sol-artifact-1",
  "contractName": "Rollup",
  "sourceName": "contracts/rollup/Rollup.sol",
  "abi": [
    {
      "inputs": [],
      "stateMutability": "nonpayable",
      "type": "constructor"
    },
    {
      "inputs": [
        {
          "internalType": "address",
          "name": "target",
          "type": "address"
        }
      ],
      "name": "AddressEmptyCode",
      "type": "error"
    },
    {
      "inputs": [],
      "name": "AddressZero",
      "type": "error"
    },
    {
      "inputs": [],
      "name": "BlockNumberOutOfRange",
      "type": "error"
    },
    {
      "inputs": [
        {
          "internalType": "address",
          "name": "implementation",
          "type": "address"
        }
      ],
      "name": "ERC1967InvalidImplementation",
      "type": "error"
    },
    {
      "inputs": [],
      "name": "ERC1967NonPayable",
      "type": "error"
    },
    {
      "inputs": [],
      "name": "FailedCall",
      "type": "error"
    },
    {
      "inputs": [],
      "name": "InsufficientPenaltyFee",
      "type": "error"
    },
    {
      "inputs": [],
      "name": "InvalidInitialization",
      "type": "error"
    },
    {
      "inputs": [],
      "name": "MerkleTreeFull",
      "type": "error"
    },
    {
      "inputs": [],
      "name": "NotInitializing",
      "type": "error"
    },
    {
      "inputs": [],
      "name": "OnlyLiquidity",
      "type": "error"
    },
    {
      "inputs": [],
      "name": "OnlyScrollMessenger",
      "type": "error"
    },
    {
      "inputs": [
        {
          "internalType": "address",
          "name": "owner",
          "type": "address"
        }
      ],
      "name": "OwnableInvalidOwner",
      "type": "error"
    },
    {
      "inputs": [
        {
          "internalType": "address",
          "name": "account",
          "type": "address"
        }
      ],
      "name": "OwnableUnauthorizedAccount",
      "type": "error"
    },
    {
      "inputs": [
        {
          "internalType": "uint256",
          "name": "x",
          "type": "uint256"
        },
        {
          "internalType": "uint256",
          "name": "y",
          "type": "uint256"
        }
      ],
      "name": "PRBMath_MulDiv18_Overflow",
      "type": "error"
    },
    {
      "inputs": [
        {
          "internalType": "uint256",
          "name": "x",
          "type": "uint256"
        }
      ],
      "name": "PRBMath_UD60x18_Convert_Overflow",
      "type": "error"
    },
    {
      "inputs": [],
      "name": "PairingCheckFailed",
      "type": "error"
    },
    {
      "inputs": [],
      "name": "PairingOpCodeFailed",
      "type": "error"
    },
    {
      "inputs": [],
      "name": "SenderAccountIdsInvalidLength",
      "type": "error"
    },
    {
      "inputs": [],
      "name": "TooManyAccountIds",
      "type": "error"
    },
    {
      "inputs": [],
      "name": "TooManySenderPublicKeys",
      "type": "error"
    },
    {
      "inputs": [],
      "name": "UUPSUnauthorizedCallContext",
      "type": "error"
    },
    {
      "inputs": [
        {
          "internalType": "bytes32",
          "name": "slot",
          "type": "bytes32"
        }
      ],
      "name": "UUPSUnsupportedProxiableUUID",
      "type": "error"
    },
    {
      "anonymous": false,
      "inputs": [
        {
          "indexed": true,
          "internalType": "uint256",
          "name": "blockNumber",
          "type": "uint256"
        },
        {
          "indexed": false,
          "internalType": "bytes",
          "name": "accountIds",
          "type": "bytes"
        }
      ],
      "name": "AccountIdsPosted",
      "type": "event"
    },
    {
      "anonymous": false,
      "inputs": [
        {
          "indexed": true,
          "internalType": "bytes32",
          "name": "prevBlockHash",
          "type": "bytes32"
        },
        {
          "indexed": true,
          "internalType": "address",
          "name": "blockBuilder",
          "type": "address"
        },
        {
          "indexed": false,
          "internalType": "uint256",
          "name": "blockNumber",
          "type": "uint256"
        },
        {
          "indexed": false,
          "internalType": "bytes32",
          "name": "depositTreeRoot",
          "type": "bytes32"
        },
        {
          "indexed": false,
          "internalType": "bytes32",
          "name": "signatureHash",
          "type": "bytes32"
        }
      ],
      "name": "BlockPosted",
      "type": "event"
    },
    {
      "anonymous": false,
      "inputs": [
        {
          "indexed": true,
          "internalType": "uint256",
          "name": "lastProcessedDepositId",
          "type": "uint256"
        },
        {
          "indexed": false,
          "internalType": "bytes32",
          "name": "depositTreeRoot",
          "type": "bytes32"
        }
      ],
      "name": "DepositsProcessed",
      "type": "event"
    },
    {
      "anonymous": false,
      "inputs": [
        {
          "indexed": false,
          "internalType": "uint64",
          "name": "version",
          "type": "uint64"
        }
      ],
      "name": "Initialized",
      "type": "event"
    },
    {
      "anonymous": false,
      "inputs": [
        {
          "indexed": true,
          "internalType": "address",
          "name": "previousOwner",
          "type": "address"
        },
        {
          "indexed": true,
          "internalType": "address",
          "name": "newOwner",
          "type": "address"
        }
      ],
      "name": "OwnershipTransferred",
      "type": "event"
    },
    {
      "anonymous": false,
      "inputs": [
        {
          "indexed": true,
          "internalType": "uint256",
          "name": "blockNumber",
          "type": "uint256"
        },
        {
          "indexed": false,
          "internalType": "uint256[]",
          "name": "senderPublicKeys",
          "type": "uint256[]"
        }
      ],
      "name": "PubKeysPosted",
      "type": "event"
    },
    {
      "anonymous": false,
      "inputs": [
        {
          "indexed": true,
          "internalType": "address",
          "name": "implementation",
          "type": "address"
        }
      ],
      "name": "Upgraded",
      "type": "event"
    },
    {
      "inputs": [],
      "name": "UPGRADE_INTERFACE_VERSION",
      "outputs": [
        {
          "internalType": "string",
          "name": "",
          "type": "string"
        }
      ],
      "stateMutability": "view",
      "type": "function"
    },
    {
      "inputs": [
        {
          "internalType": "uint256",
          "name": "",
          "type": "uint256"
        }
      ],
      "name": "blockBuilders",
      "outputs": [
        {
          "internalType": "address",
          "name": "",
          "type": "address"
        }
      ],
      "stateMutability": "view",
      "type": "function"
    },
    {
      "inputs": [
        {
          "internalType": "uint256",
          "name": "",
          "type": "uint256"
        }
      ],
      "name": "blockHashes",
      "outputs": [
        {
          "internalType": "bytes32",
          "name": "",
          "type": "bytes32"
        }
      ],
      "stateMutability": "view",
      "type": "function"
    },
    {
      "inputs": [],
      "name": "depositTreeRoot",
      "outputs": [
        {
          "internalType": "bytes32",
          "name": "",
          "type": "bytes32"
        }
      ],
      "stateMutability": "view",
      "type": "function"
    },
    {
      "inputs": [
        {
          "internalType": "uint32",
          "name": "blockNumber",
          "type": "uint32"
        }
      ],
      "name": "getBlockBuilder",
      "outputs": [
        {
          "internalType": "address",
          "name": "",
          "type": "address"
        }
      ],
      "stateMutability": "view",
      "type": "function"
    },
    {
      "inputs": [
        {
          "internalType": "uint32",
          "name": "blockNumber",
          "type": "uint32"
        }
      ],
      "name": "getBlockHash",
      "outputs": [
        {
          "internalType": "bytes32",
          "name": "",
          "type": "bytes32"
        }
      ],
      "stateMutability": "view",
      "type": "function"
    },
    {
      "inputs": [],
      "name": "getLatestBlockNumber",
      "outputs": [
        {
          "internalType": "uint32",
          "name": "",
          "type": "uint32"
        }
      ],
      "stateMutability": "view",
      "type": "function"
    },
    {
      "inputs": [
        {
          "internalType": "address",
          "name": "_scrollMessenger",
          "type": "address"
        },
        {
          "internalType": "address",
          "name": "_liquidity",
          "type": "address"
        },
        {
          "internalType": "address",
          "name": "_contribution",
          "type": "address"
        }
      ],
      "name": "initialize",
      "outputs": [],
      "stateMutability": "nonpayable",
      "type": "function"
    },
    {
      "inputs": [],
      "name": "lastProcessedDepositId",
      "outputs": [
        {
          "internalType": "uint256",
          "name": "",
          "type": "uint256"
        }
      ],
      "stateMutability": "view",
      "type": "function"
    },
    {
      "inputs": [],
      "name": "owner",
      "outputs": [
        {
          "internalType": "address",
          "name": "",
          "type": "address"
        }
      ],
      "stateMutability": "view",
      "type": "function"
    },
    {
      "inputs": [
        {
          "internalType": "bytes32",
          "name": "txTreeRoot",
          "type": "bytes32"
        },
        {
          "internalType": "bytes16",
          "name": "senderFlags",
          "type": "bytes16"
        },
        {
          "internalType": "bytes32[2]",
          "name": "aggregatedPublicKey",
          "type": "bytes32[2]"
        },
        {
          "internalType": "bytes32[4]",
          "name": "aggregatedSignature",
          "type": "bytes32[4]"
        },
        {
          "internalType": "bytes32[4]",
          "name": "messagePoint",
          "type": "bytes32[4]"
        },
        {
          "internalType": "bytes32",
          "name": "publicKeysHash",
          "type": "bytes32"
        },
        {
          "internalType": "bytes",
          "name": "senderAccountIds",
          "type": "bytes"
        }
      ],
      "name": "postNonRegistrationBlock",
      "outputs": [],
      "stateMutability": "payable",
      "type": "function"
    },
    {
      "inputs": [
        {
          "internalType": "bytes32",
          "name": "txTreeRoot",
          "type": "bytes32"
        },
        {
          "internalType": "bytes16",
          "name": "senderFlags",
          "type": "bytes16"
        },
        {
          "internalType": "bytes32[2]",
          "name": "aggregatedPublicKey",
          "type": "bytes32[2]"
        },
        {
          "internalType": "bytes32[4]",
          "name": "aggregatedSignature",
          "type": "bytes32[4]"
        },
        {
          "internalType": "bytes32[4]",
          "name": "messagePoint",
          "type": "bytes32[4]"
        },
        {
          "internalType": "uint256[]",
          "name": "senderPublicKeys",
          "type": "uint256[]"
        }
      ],
      "name": "postRegistrationBlock",
      "outputs": [],
      "stateMutability": "payable",
      "type": "function"
    },
    {
      "inputs": [
        {
          "internalType": "uint256",
          "name": "_lastProcessedDepositId",
          "type": "uint256"
        },
        {
          "internalType": "bytes32[]",
          "name": "depositHashes",
          "type": "bytes32[]"
        }
      ],
      "name": "processDeposits",
      "outputs": [],
      "stateMutability": "nonpayable",
      "type": "function"
    },
    {
      "inputs": [],
      "name": "proxiableUUID",
      "outputs": [
        {
          "internalType": "bytes32",
          "name": "",
          "type": "bytes32"
        }
      ],
      "stateMutability": "view",
      "type": "function"
    },
    {
      "inputs": [],
      "name": "renounceOwnership",
      "outputs": [],
      "stateMutability": "nonpayable",
      "type": "function"
    },
    {
      "inputs": [
        {
          "internalType": "address",
          "name": "newOwner",
          "type": "address"
        }
      ],
      "name": "transferOwnership",
      "outputs": [],
      "stateMutability": "nonpayable",
      "type": "function"
    },
    {
      "inputs": [
        {
          "internalType": "address",
          "name": "newImplementation",
          "type": "address"
        },
        {
          "internalType": "bytes",
          "name": "data",
          "type": "bytes"
        }
      ],
      "name": "upgradeToAndCall",
      "outputs": [],
      "stateMutability": "payable",
      "type": "function"
    },
    {
      "inputs": [
        {
          "internalType": "address",
          "name": "to",
          "type": "address"
        }
      ],
      "name": "withdrawPenaltyFee",
      "outputs": [],
      "stateMutability": "nonpayable",
      "type": "function"
    }
  ],
  "bytecode": "0x60a06040523073ffffffffffffffffffffffffffffffffffffffff1660809073ffffffffffffffffffffffffffffffffffffffff1681525034801561004357600080fd5b5061005261005760201b60201c565b6101c1565b600061006761015b60201b60201c565b90508060000160089054906101000a900460ff16156100b2576040517ff92ee8a900000000000000000000000000000000000000000000000000000000815260040160405180910390fd5b67ffffffffffffffff80168160000160009054906101000a900467ffffffffffffffff1667ffffffffffffffff16146101585767ffffffffffffffff8160000160006101000a81548167ffffffffffffffff021916908367ffffffffffffffff1602179055507fc7f505b2f371ae2175ee4913f4499e1f2633a7b5936321eed1cdaeb6115181d267ffffffffffffffff60405161014f91906101a6565b60405180910390a15b50565b60007ff0c57e16840df040f15088dc2f81fe391c3923bec73e23a9662efc9c229c6a00905090565b600067ffffffffffffffff82169050919050565b6101a081610183565b82525050565b60006020820190506101bb6000830184610197565b92915050565b60805161391a6101ea60003960008181611303015281816113580152611513015261391a6000f3fe6080604052600436106101095760003560e01c80638da5cb5b11610095578063c76c388411610064578063c76c38841461033d578063c7bffeeb14610368578063d2b210a114610384578063f03efa37146103c1578063f2fde38b146103ea57610109565b80638da5cb5b14610281578063ad3cb1cc146102ac578063b568a055146102d7578063c0c53b8b1461031457610109565b80634f1ef286116100dc5780634f1ef286146101dc57806352d1902d146101f8578063567419c114610223578063715018a61461024e578063842f1bfc1461026557610109565b806306f743c01461010e5780631d9a07b91461014b57806325d89cfd1461017657806334cdf78d1461019f575b600080fd5b34801561011a57600080fd5b506101356004803603810190610130919061266c565b610413565b60405161014291906126da565b60405180910390f35b34801561015757600080fd5b506101606104af565b60405161016d919061270e565b60405180910390f35b34801561018257600080fd5b5061019d60048036038101906101989190612755565b6104b5565b005b3480156101ab57600080fd5b506101c660048036038101906101c191906127b8565b610507565b6040516101d3919061270e565b60405180910390f35b6101f660048036038101906101f1919061292b565b61052b565b005b34801561020457600080fd5b5061020d61054a565b60405161021a919061270e565b60405180910390f35b34801561022f57600080fd5b5061023861057d565b6040516102459190612996565b60405180910390f35b34801561025a57600080fd5b50610263610583565b005b61027f600480360381019061027a9190612ad9565b610597565b005b34801561028d57600080fd5b50610296610806565b6040516102a391906126da565b60405180910390f35b3480156102b857600080fd5b506102c161083e565b6040516102ce9190612c1e565b60405180910390f35b3480156102e357600080fd5b506102fe60048036038101906102f991906127b8565b610877565b60405161030b91906126da565b60405180910390f35b34801561032057600080fd5b5061033b60048036038101906103369190612c40565b6108b6565b005b34801561034957600080fd5b50610352610d42565b60405161035f9190612ca2565b60405180910390f35b610382600480360381019061037d9190612d13565b610d5f565b005b34801561039057600080fd5b506103ab60048036038101906103a6919061266c565b610edc565b6040516103b8919061270e565b60405180910390f35b3480156103cd57600080fd5b506103e860048036038101906103e39190612e1b565b610f58565b005b3480156103f657600080fd5b50610411600480360381019061040c9190612755565b6111e6565b005b600061041f600261126c565b63ffffffff168263ffffffff1610610463576040517f98f1199600000000000000000000000000000000000000000000000000000000815260040160405180910390fd5b60038263ffffffff168154811061047d5761047c612e7b565b5b9060005260206000200160009054906101000a900473ffffffffffffffffffffffffffffffffffffffff169050919050565b602a5481565b6104bd61127a565b8073ffffffffffffffffffffffffffffffffffffffff166108fc479081150290604051600060405180830381858888f19350505050158015610503573d6000803e3d6000fd5b5050565b6002818154811061051757600080fd5b906000526020600020016000915090505481565b610533611301565b61053c826113e7565b61054682826113f2565b5050565b6000610554611511565b7f360894a13ba1a3210667c828492db98dca3e2076cc3735a920a3ca505d382bbc60001b905090565b60015481565b61058b61127a565b6105956000611598565b565b61059f61166f565b6000828290509050600560806105b59190612ed9565b8111156105ee576040517f6771216a00000000000000000000000000000000000000000000000000000000815260040160405180910390fd5b60006005826105fd9190612f4a565b14610634576040517f41adec0d00000000000000000000000000000000000000000000000000000000815260040160405180910390fd5b6000610640600261126c565b90508063ffffffff167f7e4f72212a0dbcb829e5fdaad6c3cb28556083f04fc687bfa2b2e40432bbb935858560405161067a929190612fb9565b60405180910390a26000600560806106929190612ed9565b67ffffffffffffffff8111156106ab576106aa612800565b5b6040519080825280601f01601f1916602001820160405280156106dd5781602001600182028036833780820191505090505b50905060005b83811015610757578585828181106106fe576106fd612e7b565b5b9050013560f81c60f81b82828151811061071b5761071a612e7b565b5b60200101907effffffffffffffffffffffffffffffffffffffffffffffffffffffffffffff1916908160001a90535080806001019150506106e3565b5060008390505b6005608061076c9190612ed9565b8110156107da57600160f81b826004836107869190612fdd565b8151811061079757610796612e7b565b5b60200101907effffffffffffffffffffffffffffffffffffffffffffffffffffffffffffff1916908160001a9053506005816107d39190612fdd565b905061075e565b506000818051906020012090506107f860008d8d8a858f8f8f611723565b505050505050505050505050565b600080610811611979565b90508060000160009054906101000a900473ffffffffffffffffffffffffffffffffffffffff1691505090565b6040518060400160405280600581526020017f352e302e3000000000000000000000000000000000000000000000000000000081525081565b6003818154811061088757600080fd5b906000526020600020016000915054906101000a900473ffffffffffffffffffffffffffffffffffffffff1681565b60006108c06119a1565b905060008160000160089054906101000a900460ff1615905060008260000160009054906101000a900467ffffffffffffffff1690506000808267ffffffffffffffff1614801561090e5750825b9050600060018367ffffffffffffffff16148015610943575060003073ffffffffffffffffffffffffffffffffffffffff163b145b905081158015610951575080155b15610988576040517ff92ee8a900000000000000000000000000000000000000000000000000000000815260040160405180910390fd5b60018560000160006101000a81548167ffffffffffffffff021916908367ffffffffffffffff16021790555083156109d85760018560000160086101000a81548160ff0219169083151502179055505b600073ffffffffffffffffffffffffffffffffffffffff168873ffffffffffffffffffffffffffffffffffffffff1603610a3e576040517f9fabe1c100000000000000000000000000000000000000000000000000000000815260040160405180910390fd5b600073ffffffffffffffffffffffffffffffffffffffff168773ffffffffffffffffffffffffffffffffffffffff1603610aa4576040517f9fabe1c100000000000000000000000000000000000000000000000000000000815260040160405180910390fd5b600073ffffffffffffffffffffffffffffffffffffffff168673ffffffffffffffffffffffffffffffffffffffff1603610b0a576040517f9fabe1c100000000000000000000000000000000000000000000000000000000815260040160405180910390fd5b610b1a610b156119c9565b6119d1565b610b226119e5565b610b2c60066119ef565b87600460006101000a81548173ffffffffffffffffffffffffffffffffffffffff021916908373ffffffffffffffffffffffffffffffffffffffff160217905550866000806101000a81548173ffffffffffffffffffffffffffffffffffffffff021916908373ffffffffffffffffffffffffffffffffffffffff16021790555085600560006101000a81548173ffffffffffffffffffffffffffffffffffffffff021916908373ffffffffffffffffffffffffffffffffffffffff160217905550610c5c600660405180606001604052908160008201602080602002604051908101604052809291908260208015610c3a576020028201915b815481526020019060010190808311610c26575b5050505050815260200160208201548152602001602182015481525050611a28565b602a81905550610c78602a546002611b1890919063ffffffff16565b600360009080600181540180825580915050600190039060005260206000200160009091909190916101000a81548173ffffffffffffffffffffffffffffffffffffffff021916908373ffffffffffffffffffffffffffffffffffffffff1602179055508315610d385760008560000160086101000a81548160ff0219169083151502179055507fc7f505b2f371ae2175ee4913f4499e1f2633a7b5936321eed1cdaeb6115181d26001604051610d2f919061306a565b60405180910390a15b5050505050505050565b60006001610d50600261126c565b610d5a9190613085565b905090565b610d6761166f565b60008282905090506080811115610daa576040517f07b556c900000000000000000000000000000000000000000000000000000000815260040160405180910390fd5b6000610db6600261126c565b90508063ffffffff167f7a873ae11bb72d3848d5c34af1354cdd12aa5b30ec0d5187ec00ba5cefcd5c7f8585604051610df0929190613138565b60405180910390a2610e006125d7565b60005b83811015610e4e57858582818110610e1e57610e1d612e7b565b5b90506020020135828260808110610e3857610e37612e7b565b5b6020020181815250508080600101915050610e03565b5060008390505b6080811015610e89576001828260808110610e7357610e72612e7b565b5b6020020181815250508080600101915050610e55565b50600081604051602001610e9d9190613207565b60405160208183030381529060405280519060200120905060008060001b9050610ece60018d8d85858f8f8f611723565b505050505050505050505050565b6000610ee8600261126c565b63ffffffff168263ffffffff1610610f2c576040517f98f1199600000000000000000000000000000000000000000000000000000000815260040160405180910390fd5b60028263ffffffff1681548110610f4657610f45612e7b565b5b90600052602060002001549050919050565b6000600460009054906101000a900473ffffffffffffffffffffffffffffffffffffffff1690508073ffffffffffffffffffffffffffffffffffffffff16610f9e6119c9565b73ffffffffffffffffffffffffffffffffffffffff1614610feb576040517fdbeadcfd00000000000000000000000000000000000000000000000000000000815260040160405180910390fd5b8073ffffffffffffffffffffffffffffffffffffffff16636e296e456040518163ffffffff1660e01b8152600401602060405180830381865afa158015611036573d6000803e3d6000fd5b505050506040513d601f19601f8201168201806040525081019061105a9190613238565b73ffffffffffffffffffffffffffffffffffffffff1660008054906101000a900473ffffffffffffffffffffffffffffffffffffffff1673ffffffffffffffffffffffffffffffffffffffff16146110de576040517faff663a500000000000000000000000000000000000000000000000000000000815260040160405180910390fd5b60005b838390508110156111265761111984848381811061110257611101612e7b565b5b905060200201356006611b5690919063ffffffff16565b80806001019150506110e1565b5083600181905550600061119e60066040518060600160405290816000820160208060200260405190810160405280929190826020801561117c576020028201915b815481526020019060010190808311611168575b5050505050815260200160208201548152602001602182015481525050611a28565b905080602a81905550847f598fdeda3e3b7298359a08c9a438151e3481bdcf3c3ff9906fa71dcc723617b0826040516111d7919061270e565b60405180910390a25050505050565b6111ee61127a565b600073ffffffffffffffffffffffffffffffffffffffff168173ffffffffffffffffffffffffffffffffffffffff16036112605760006040517f1e4fbdf700000000000000000000000000000000000000000000000000000000815260040161125791906126da565b60405180910390fd5b61126981611598565b50565b600081805490509050919050565b6112826119c9565b73ffffffffffffffffffffffffffffffffffffffff166112a0610806565b73ffffffffffffffffffffffffffffffffffffffff16146112ff576112c36119c9565b6040517f118cdaa70000000000000000000000000000000000000000000000000000000081526004016112f691906126da565b60405180910390fd5b565b7f000000000000000000000000000000000000000000000000000000000000000073ffffffffffffffffffffffffffffffffffffffff163073ffffffffffffffffffffffffffffffffffffffff1614806113ae57507f000000000000000000000000000000000000000000000000000000000000000073ffffffffffffffffffffffffffffffffffffffff16611395611c75565b73ffffffffffffffffffffffffffffffffffffffff1614155b156113e5576040517fe07c8dba00000000000000000000000000000000000000000000000000000000815260040160405180910390fd5b565b6113ef61127a565b50565b8173ffffffffffffffffffffffffffffffffffffffff166352d1902d6040518163ffffffff1660e01b8152600401602060405180830381865afa92505050801561145a57506040513d601f19601f82011682018060405250810190611457919061327a565b60015b61149b57816040517f4c9c8ce300000000000000000000000000000000000000000000000000000000815260040161149291906126da565b60405180910390fd5b7f360894a13ba1a3210667c828492db98dca3e2076cc3735a920a3ca505d382bbc60001b811461150257806040517faa1d49a40000000000000000000000000000000000000000000000000000000081526004016114f9919061270e565b60405180910390fd5b61150c8383611ccc565b505050565b7f000000000000000000000000000000000000000000000000000000000000000073ffffffffffffffffffffffffffffffffffffffff163073ffffffffffffffffffffffffffffffffffffffff1614611596576040517fe07c8dba00000000000000000000000000000000000000000000000000000000815260040160405180910390fd5b565b60006115a2611979565b905060008160000160009054906101000a900473ffffffffffffffffffffffffffffffffffffffff169050828260000160006101000a81548173ffffffffffffffffffffffffffffffffffffffff021916908373ffffffffffffffffffffffffffffffffffffffff1602179055508273ffffffffffffffffffffffffffffffffffffffff168173ffffffffffffffffffffffffffffffffffffffff167f8be0079c531659141344cd1fd0a4f28419497f9722a3daafe3b4186f6b6457e060405160405180910390a3505050565b600061167b6028611d3f565b9050348111156116b7576040517f4686819200000000000000000000000000000000000000000000000000000000815260040160405180910390fd5b600081346116c591906132a7565b9050600081111561171f576116d86119c9565b73ffffffffffffffffffffffffffffffffffffffff166108fc829081150290604051600060405180830381858888f1935050505015801561171d573d6000803e3d6000fd5b505b5050565b6000611730848484611e5f565b905080611769576040517f0f2512a200000000000000000000000000000000000000000000000000000000815260040160405180910390fd5b60008961177757600061177a565b60015b60ff168989898989898960405160200161179b989796959493929190613373565b60405160208183030381529060405280519060200120905060006117bf600261126c565b905060006117cd6002611f4d565b90506000602a5490506117ec81856002611f849092919063ffffffff16565b5060036117f76119c9565b9080600181540180825580915050600190039060005260206000200160009091909190916101000a81548173ffffffffffffffffffffffffffffffffffffffff021916908373ffffffffffffffffffffffffffffffffffffffff16021790555061185f6119c9565b73ffffffffffffffffffffffffffffffffffffffff16827fe27163b76905dc373b4ad854ddc9403bbac659c5f1c5191c39e5a7c44574040a8584886040516118a993929190613436565b60405180910390a3600560009054906101000a900473ffffffffffffffffffffffffffffffffffffffff1673ffffffffffffffffffffffffffffffffffffffff1663f099f9f57f86b9f03d796881acc3ae8b638c23861904ac9c358da18e1d9994e3874f61c12d6119186119c9565b60016040518463ffffffff1660e01b81526004016119389392919061349e565b600060405180830381600087803b15801561195257600080fd5b505af1158015611966573d6000803e3d6000fd5b5050505050505050505050505050505050565b60007f9016d09d72d40fdae2fd8ceac6b6234c7706214fd39c1cd1e609a0528c199300905090565b60007ff0c57e16840df040f15088dc2f81fe391c3923bec73e23a9662efc9c229c6a00905090565b600033905090565b6119d9611fd3565b6119e281612013565b50565b6119ed611fd3565b565b611a1d60405180606001604052806000801b8152602001600063ffffffff1681526020016000815250612099565b816021018190555050565b6000808260400151905060008360200151905060008460400151905060005b6020811015611b0c576001808285901c1603611aa85785600001518160208110611a7457611a73612e7b565b5b602002015184604051602001611a8b9291906134d5565b604051602081830303815290604052805190602001209350611ad4565b8382604051602001611abb9291906134d5565b6040516020818303038152906040528051906020012093505b8182604051602001611ae79291906134d5565b6040516020818303038152906040528051906020012091508080600101915050611a47565b50829350505050919050565b81611b2c6000801b836000801b60006120d9565b90806001815401808255809150506001900390600052602060002001600090919091909150555050565b6000819050600083602001549050600160206002611b749190613634565b611b7e91906132a7565b8110611bb6576040517fef5ccf6600000000000000000000000000000000000000000000000000000000815260040160405180910390fd5b6000600182611bc59190612fdd565b905080856020018190555060005b6020811015611c5d576001808284901c1603611c0e5783866000018260208110611c0057611bff612e7b565b5b018190555050505050611c71565b856000018160208110611c2457611c23612e7b565b5b015484604051602001611c389291906134d5565b6040516020818303038152906040528051906020012093508080600101915050611bd3565b506000611c6d57611c6c61367f565b5b5050505b5050565b6000611ca37f360894a13ba1a3210667c828492db98dca3e2076cc3735a920a3ca505d382bbc60001b612112565b60000160009054906101000a900473ffffffffffffffffffffffffffffffffffffffff16905090565b611cd58261211c565b8173ffffffffffffffffffffffffffffffffffffffff167fbc7cd75a20ee27fd9adebab32041f755214dbc6bffa90cc0225b39da2e5c2d3b60405160405180910390a2600081511115611d3257611d2c82826121e9565b50611d3b565b611d3a61226d565b5b5050565b6000804290506000611d5867d02ab486cedc00006122aa565b90506000846000015403611d8357818460000181905550808460010181905550600092505050611e5a565b6000611d966704a03ce68d2155556122aa565b90506000611db2866000015485611dad91906132a7565b6122b4565b90506000611de8611dc38484612340565b611de3611dd9611dd360016122b4565b8761236c565b8a60010154612340565b61239a565b9050808760010181905550848760000181905550611e0681856123c8565b15611e50576000611e17858361236c565b9050611e43611e3e611e38611e3266038d7ea4c680006122aa565b84612340565b83612340565b6123e5565b9650505050505050611e5a565b6000955050505050505b919050565b60008084836040518060400160405280600181526020017f30644e72e131a029b85045b68181585d97816a916871ca8d3c208c16d87cfd4581525086604051602001611eae9493929190613732565b6040516020818303038152906040529050611ec76125fa565b60008083519050602083826020870160086107d05a03fa91508160008103611eeb57fe5b5081611f23576040517fdef2011f00000000000000000000000000000000000000000000000000000000815260040160405180910390fd5b600083600060018110611f3957611f38612e7b565b5b602002015114159450505050509392505050565b60008160018380549050611f6191906132a7565b81548110611f7257611f71612e7b565b5b90600052602060002001549050919050565b6000611fa2611f9285611f4d565b8484611f9d8861126c565b6120d9565b9050838190806001815401808255809150506001900390600052602060002001600090919091909150559392505050565b611fdb6123ef565b612011576040517fd7e6bcf800000000000000000000000000000000000000000000000000000000815260040160405180910390fd5b565b61201b611fd3565b600073ffffffffffffffffffffffffffffffffffffffff168173ffffffffffffffffffffffffffffffffffffffff160361208d5760006040517f1e4fbdf700000000000000000000000000000000000000000000000000000000815260040161208491906126da565b60405180910390fd5b61209681611598565b50565b60008160000151826020015183604001516040516020016120bc939291906137a1565b604051602081830303815290604052805190602001209050919050565b6000848484846040516020016120f294939291906137de565b604051602081830303815290604052805190602001209050949350505050565b6000819050919050565b60008173ffffffffffffffffffffffffffffffffffffffff163b0361217857806040517f4c9c8ce300000000000000000000000000000000000000000000000000000000815260040161216f91906126da565b60405180910390fd5b806121a57f360894a13ba1a3210667c828492db98dca3e2076cc3735a920a3ca505d382bbc60001b612112565b60000160006101000a81548173ffffffffffffffffffffffffffffffffffffffff021916908373ffffffffffffffffffffffffffffffffffffffff16021790555050565b60606000808473ffffffffffffffffffffffffffffffffffffffff16846040516122139190613873565b600060405180830381855af49150503d806000811461224e576040519150601f19603f3d011682016040523d82523d6000602084013e612253565b606091505b509150915061226385838361240f565b9250505092915050565b60003411156122a8576040517fb398979f00000000000000000000000000000000000000000000000000000000815260040160405180910390fd5b565b6000819050919050565b6000670de0b6b3a76400007fffffffffffffffffffffffffffffffffffffffffffffffffffffffffffffffff6122ea919061388a565b82111561232e57816040517f1cd951a70000000000000000000000000000000000000000000000000000000081526004016123259190612996565b60405180910390fd5b670de0b6b3a764000082029050919050565b600061236461235f612351856123e5565b61235a856123e5565b61249e565b612588565b905092915050565b600061239261237a836123e5565b612383856123e5565b61238d91906132a7565b612588565b905092915050565b60006123c06123a8836123e5565b6123b1856123e5565b6123bb9190612fdd565b612588565b905092915050565b60006123d3826123e5565b6123dc846123e5565b10905092915050565b6000819050919050565b60006123f96119a1565b60000160089054906101000a900460ff16905090565b6060826124245761241f82612592565b612496565b6000825114801561244c575060008473ffffffffffffffffffffffffffffffffffffffff163b145b1561248e57836040517f9996b31500000000000000000000000000000000000000000000000000000000815260040161248591906126da565b60405180910390fd5b819050612497565b5b9392505050565b60008060008019848609848602925082811083820303915050600081036124e157670de0b6b3a764000082816124d7576124d6612f1b565b5b0492505050612582565b670de0b6b3a7640000811061252f5784846040517f5173648d0000000000000000000000000000000000000000000000000000000081526004016125269291906138bb565b60405180910390fd5b6000670de0b6b3a764000085870990507faccb18165bd6fe31ae1cf318dc5b51eee0e1ba569b88cd74c1773b91fac106696001620400008060000304018483118403026204000083860304170293505050505b92915050565b6000819050919050565b6000815111156125a55780518082602001fd5b6040517fd6bda27500000000000000000000000000000000000000000000000000000000815260040160405180910390fd5b604051806110000160405280608090602082028036833780820191505090505090565b6040518060200160405280600190602082028036833780820191505090505090565b6000604051905090565b600080fd5b600080fd5b600063ffffffff82169050919050565b61264981612630565b811461265457600080fd5b50565b60008135905061266681612640565b92915050565b60006020828403121561268257612681612626565b5b600061269084828501612657565b91505092915050565b600073ffffffffffffffffffffffffffffffffffffffff82169050919050565b60006126c482612699565b9050919050565b6126d4816126b9565b82525050565b60006020820190506126ef60008301846126cb565b92915050565b6000819050919050565b612708816126f5565b82525050565b600060208201905061272360008301846126ff565b92915050565b612732816126b9565b811461273d57600080fd5b50565b60008135905061274f81612729565b92915050565b60006020828403121561276b5761276a612626565b5b600061277984828501612740565b91505092915050565b6000819050919050565b61279581612782565b81146127a057600080fd5b50565b6000813590506127b28161278c565b92915050565b6000602082840312156127ce576127cd612626565b5b60006127dc848285016127a3565b91505092915050565b600080fd5b600080fd5b6000601f19601f8301169050919050565b7f4e487b7100000000000000000000000000000000000000000000000000000000600052604160045260246000fd5b612838826127ef565b810181811067ffffffffffffffff8211171561285757612856612800565b5b80604052505050565b600061286a61261c565b9050612876828261282f565b919050565b600067ffffffffffffffff82111561289657612895612800565b5b61289f826127ef565b9050602081019050919050565b82818337600083830152505050565b60006128ce6128c98461287b565b612860565b9050828152602081018484840111156128ea576128e96127ea565b5b6128f58482856128ac565b509392505050565b600082601f830112612912576129116127e5565b5b81356129228482602086016128bb565b91505092915050565b6000806040838503121561294257612941612626565b5b600061295085828601612740565b925050602083013567ffffffffffffffff8111156129715761297061262b565b5b61297d858286016128fd565b9150509250929050565b61299081612782565b82525050565b60006020820190506129ab6000830184612987565b92915050565b6129ba816126f5565b81146129c557600080fd5b50565b6000813590506129d7816129b1565b92915050565b60007fffffffffffffffffffffffffffffffff0000000000000000000000000000000082169050919050565b612a12816129dd565b8114612a1d57600080fd5b50565b600081359050612a2f81612a09565b92915050565b600080fd5b600081905082602060020282011115612a5657612a55612a35565b5b92915050565b600081905082602060040282011115612a7857612a77612a35565b5b92915050565b600080fd5b60008083601f840112612a9957612a986127e5565b5b8235905067ffffffffffffffff811115612ab657612ab5612a7e565b5b602083019150836001820283011115612ad257612ad1612a35565b5b9250929050565b6000806000806000806000806101c0898b031215612afa57612af9612626565b5b6000612b088b828c016129c8565b9850506020612b198b828c01612a20565b9750506040612b2a8b828c01612a3a565b9650506080612b3b8b828c01612a5c565b955050610100612b4d8b828c01612a5c565b945050610180612b5f8b828c016129c8565b9350506101a089013567ffffffffffffffff811115612b8157612b8061262b565b5b612b8d8b828c01612a83565b92509250509295985092959890939650565b600081519050919050565b600082825260208201905092915050565b60005b83811015612bd9578082015181840152602081019050612bbe565b60008484015250505050565b6000612bf082612b9f565b612bfa8185612baa565b9350612c0a818560208601612bbb565b612c13816127ef565b840191505092915050565b60006020820190508181036000830152612c388184612be5565b905092915050565b600080600060608486031215612c5957612c58612626565b5b6000612c6786828701612740565b9350506020612c7886828701612740565b9250506040612c8986828701612740565b9150509250925092565b612c9c81612630565b82525050565b6000602082019050612cb76000830184612c93565b92915050565b60008083601f840112612cd357612cd26127e5565b5b8235905067ffffffffffffffff811115612cf057612cef612a7e565b5b602083019150836020820283011115612d0c57612d0b612a35565b5b9250929050565b60008060008060008060006101a0888a031215612d3357612d32612626565b5b6000612d418a828b016129c8565b9750506020612d528a828b01612a20565b9650506040612d638a828b01612a3a565b9550506080612d748a828b01612a5c565b945050610100612d868a828b01612a5c565b93505061018088013567ffffffffffffffff811115612da857612da761262b565b5b612db48a828b01612cbd565b925092505092959891949750929550565b60008083601f840112612ddb57612dda6127e5565b5b8235905067ffffffffffffffff811115612df857612df7612a7e565b5b602083019150836020820283011115612e1457612e13612a35565b5b9250929050565b600080600060408486031215612e3457612e33612626565b5b6000612e42868287016127a3565b935050602084013567ffffffffffffffff811115612e6357612e6261262b565b5b612e6f86828701612dc5565b92509250509250925092565b7f4e487b7100000000000000000000000000000000000000000000000000000000600052603260045260246000fd5b7f4e487b7100000000000000000000000000000000000000000000000000000000600052601160045260246000fd5b6000612ee482612782565b9150612eef83612782565b9250828202612efd81612782565b91508282048414831517612f1457612f13612eaa565b5b5092915050565b7f4e487b7100000000000000000000000000000000000000000000000000000000600052601260045260246000fd5b6000612f5582612782565b9150612f6083612782565b925082612f7057612f6f612f1b565b5b828206905092915050565b600082825260208201905092915050565b6000612f988385612f7b565b9350612fa58385846128ac565b612fae836127ef565b840190509392505050565b60006020820190508181036000830152612fd4818486612f8c565b90509392505050565b6000612fe882612782565b9150612ff383612782565b925082820190508082111561300b5761300a612eaa565b5b92915050565b6000819050919050565b600067ffffffffffffffff82169050919050565b6000819050919050565b600061305461304f61304a84613011565b61302f565b61301b565b9050919050565b61306481613039565b82525050565b600060208201905061307f600083018461305b565b92915050565b600061309082612630565b915061309b83612630565b9250828203905063ffffffff8111156130b7576130b6612eaa565b5b92915050565b600082825260208201905092915050565b600080fd5b82818337505050565b60006130e883856130bd565b93507f07ffffffffffffffffffffffffffffffffffffffffffffffffffffffffffffff83111561311b5761311a6130ce565b5b60208302925061312c8385846130d3565b82840190509392505050565b600060208201905081810360008301526131538184866130dc565b90509392505050565b600060809050919050565b600081905092915050565b6000819050919050565b61318581612782565b82525050565b6000613197838361317c565b60208301905092915050565b6000602082019050919050565b6131b98161315c565b6131c38184613167565b92506131ce82613172565b8060005b838110156131ff5781516131e6878261318b565b96506131f1836131a3565b9250506001810190506131d2565b505050505050565b600061321382846131b0565b6110008201915081905092915050565b60008151905061323281612729565b92915050565b60006020828403121561324e5761324d612626565b5b600061325c84828501613223565b91505092915050565b600081519050613274816129b1565b92915050565b6000602082840312156132905761328f612626565b5b600061329e84828501613265565b91505092915050565b60006132b282612782565b91506132bd83612782565b92508282039050818111156132d5576132d4612eaa565b5b92915050565b60008160e01b9050919050565b60006132f3826132db565b9050919050565b61330b61330682612630565b6132e8565b82525050565b6000819050919050565b61332c613327826126f5565b613311565b82525050565b6000819050919050565b61334d613348826129dd565b613332565b82525050565b61335f604083836130d3565b5050565b61336f608083836130d3565b5050565b600061337f828b6132fa565b60048201915061338f828a61331b565b60208201915061339f828961333c565b6010820191506133af828861331b565b6020820191506133bf828761331b565b6020820191506133cf8286613353565b6040820191506133df8285613363565b6080820191506133ef8284613363565b6080820191508190509998505050505050505050565b600061342061341b61341684612630565b61302f565b612782565b9050919050565b61343081613405565b82525050565b600060608201905061344b6000830186613427565b61345860208301856126ff565b61346560408301846126ff565b949350505050565b600061348861348361347e84613011565b61302f565b612782565b9050919050565b6134988161346d565b82525050565b60006060820190506134b360008301866126ff565b6134c060208301856126cb565b6134cd604083018461348f565b949350505050565b60006134e1828561331b565b6020820191506134f1828461331b565b6020820191508190509392505050565b60008160011c9050919050565b6000808291508390505b60018511156135585780860481111561353457613533612eaa565b5b60018516156135435780820291505b808102905061355185613501565b9450613518565b94509492505050565b600082613571576001905061362d565b8161357f576000905061362d565b8160018114613595576002811461359f576135ce565b600191505061362d565b60ff8411156135b1576135b0612eaa565b5b8360020a9150848211156135c8576135c7612eaa565b5b5061362d565b5060208310610133831016604e8410600b84101617156136035782820a9050838111156135fe576135fd612eaa565b5b61362d565b613610848484600161350e565b9250905081840481111561362757613626612eaa565b5b81810290505b9392505050565b600061363f82612782565b915061364a83612782565b92506136777fffffffffffffffffffffffffffffffffffffffffffffffffffffffffffffffff8484613561565b905092915050565b7f4e487b7100000000000000000000000000000000000000000000000000000000600052600160045260246000fd5b600060029050919050565b600081905092915050565b6000819050919050565b6000602082019050919050565b6136e4816136ae565b6136ee81846136b9565b92506136f9826136c4565b8060005b8381101561372a578151613711878261318b565b965061371c836136ce565b9250506001810190506136fd565b505050505050565b600061373e8287613353565b60408201915061374e8286613363565b60808201915061375e82856136db565b60408201915061376e8284613363565b60808201915081905095945050505050565b6000819050919050565b61379b61379682612782565b613780565b82525050565b60006137ad828661331b565b6020820191506137bd82856132fa565b6004820191506137cd828461378a565b602082019150819050949350505050565b60006137ea828761331b565b6020820191506137fa828661331b565b60208201915061380a828561331b565b60208201915061381a82846132fa565b60048201915081905095945050505050565b600081519050919050565b600081905092915050565b600061384d8261382c565b6138578185613837565b9350613867818560208601612bbb565b80840191505092915050565b600061387f8284613842565b915081905092915050565b600061389582612782565b91506138a083612782565b9250826138b0576138af612f1b565b5b828204905092915050565b60006040820190506138d06000830185612987565b6138dd6020830184612987565b939250505056fea26469706673582212207102bf6e32534ffeb738b974ab3c646df49cc7112a0f6c06fa9105fdbdd5362964736f6c634300081b0033",
  "linkReferences": {},
  "deployedLinkReferences": {}
}